{
  "abi": [
    {
      "inputs": [],
      "name": "AccessDenied",
      "type": "error"
    },
    {
      "inputs": [],
      "name": "AlreadyVoted",
      "type": "error"
    },
    {
      "inputs": [],
      "name": "DescriptionTooLarge",
      "type": "error"
    },
    {
      "inputs": [],
      "name": "DescriptionTooShort",
      "type": "error"
    },
    {
      "inputs": [],
      "name": "DuplicateOptionSelected",
      "type": "error"
    },
    {
      "inputs": [],
      "name": "InvalidPollOption",
      "type": "error"
    },
    {
      "inputs": [],
      "name": "MultiChoiceNotAllowed",
      "type": "error"
    },
    {
      "inputs": [],
      "name": "NoOptionSelected",
      "type": "error"
    },
    {
      "inputs": [
        {
          "internalType": "uint256",
          "name": "index",
          "type": "uint256"
        }
      ],
      "name": "OptionTooLarge",
      "type": "error"
    },
    {
      "inputs": [
        {
          "internalType": "uint256",
          "name": "index",
          "type": "uint256"
        }
      ],
      "name": "OptionTooShort",
      "type": "error"
    },
    {
      "inputs": [],
      "name": "PollAlreadyClosed",
      "type": "error"
    },
    {
      "inputs": [],
      "name": "PollMustEndAfterStart",
      "type": "error"
    },
    {
      "inputs": [],
      "name": "PollMustHaveAtLeastTwoOptions",
      "type": "error"
    },
    {
      "inputs": [],
      "name": "PollMustHaveAtMostTenOptions",
      "type": "error"
    },
    {
      "inputs": [],
      "name": "PollMustStartInTheFuture",
      "type": "error"
    },
    {
      "inputs": [],
      "name": "PollNotClosed",
      "type": "error"
    },
    {
      "inputs": [
        {
          "internalType": "uint256",
          "name": "pollId",
          "type": "uint256"
        }
      ],
      "name": "PollNotFound",
      "type": "error"
    },
    {
      "inputs": [],
      "name": "PollNotOpen",
      "type": "error"
    },
    {
      "inputs": [],
      "name": "PollResultVisibilitySettingInvalid",
      "type": "error"
    },
    {
      "inputs": [],
      "name": "TitleTooLarge",
      "type": "error"
    },
    {
      "inputs": [],
      "name": "TitleTooShort",
      "type": "error"
    },
    {
      "anonymous": false,
      "inputs": [
        {
          "indexed": true,
          "internalType": "address",
          "name": "creator",
          "type": "address"
        },
        {
          "indexed": true,
          "internalType": "uint256",
          "name": "pollId",
          "type": "uint256"
        }
      ],
      "name": "PollClosed",
      "type": "event"
    },
    {
      "anonymous": false,
      "inputs": [
        {
          "indexed": true,
          "internalType": "address",
          "name": "creator",
          "type": "address"
        },
        {
          "indexed": true,
          "internalType": "uint256",
          "name": "pollId",
          "type": "uint256"
        }
      ],
      "name": "PollCreated",
      "type": "event"
    },
    {
      "anonymous": false,
      "inputs": [
        {
          "indexed": true,
          "internalType": "address",
          "name": "voter",
          "type": "address"
        },
        {
          "indexed": false,
          "internalType": "uint256",
          "name": "pollId",
          "type": "uint256"
        },
        {
          "indexed": false,
          "internalType": "uint256[]",
          "name": "optionIndices",
          "type": "uint256[]"
        }
      ],
      "name": "Voted",
      "type": "event"
    },
    {
      "inputs": [
        {
          "internalType": "address",
          "name": "",
          "type": "address"
        },
        {
          "internalType": "uint256",
          "name": "",
          "type": "uint256"
        }
      ],
      "name": "UserPolls",
      "outputs": [
        {
          "internalType": "uint256",
          "name": "",
          "type": "uint256"
        }
      ],
      "stateMutability": "view",
      "type": "function"
    },
    {
      "inputs": [
        {
          "internalType": "uint256",
          "name": "_pollId",
          "type": "uint256"
        },
        {
          "internalType": "uint256[]",
          "name": "_optionIndices",
          "type": "uint256[]"
        }
      ],
      "name": "caseVote",
      "outputs": [],
      "stateMutability": "nonpayable",
      "type": "function"
    },
    {
      "inputs": [
        {
          "internalType": "uint256",
          "name": "_pollId",
          "type": "uint256"
        }
      ],
      "name": "closePoll",
      "outputs": [],
      "stateMutability": "nonpayable",
      "type": "function"
    },
    {
      "inputs": [
        {
          "internalType": "string",
          "name": "_title",
          "type": "string"
        },
        {
          "internalType": "string",
          "name": "_desc",
          "type": "string"
        },
        {
          "internalType": "uint256",
          "name": "_startsAt",
          "type": "uint256"
        },
        {
          "internalType": "uint256",
          "name": "_endsAt",
          "type": "uint256"
        },
        {
          "internalType": "string[]",
          "name": "_options",
          "type": "string[]"
        },
        {
          "components": [
            {
              "internalType": "bool",
              "name": "multiChoice",
              "type": "bool"
            },
            {
              "internalType": "bool",
              "name": "noDeadline",
              "type": "bool"
            },
            {
              "internalType": "enum Polls.PollResultVisibility",
              "name": "resultVisibility",
              "type": "uint8"
            }
          ],
          "internalType": "struct Polls.PollSettings",
          "name": "_settings",
          "type": "tuple"
        }
      ],
      "name": "createPoll",
      "outputs": [
        {
          "internalType": "uint256",
          "name": "",
          "type": "uint256"
        }
      ],
      "stateMutability": "nonpayable",
      "type": "function"
    },
    {
      "inputs": [
        {
          "internalType": "uint256",
          "name": "_pollId",
          "type": "uint256"
        }
      ],
      "name": "deletePoll",
      "outputs": [],
      "stateMutability": "nonpayable",
      "type": "function"
    },
    {
      "inputs": [
        {
          "internalType": "uint256",
          "name": "_pollId",
          "type": "uint256"
        }
      ],
      "name": "getPollDetails",
      "outputs": [
        {
          "components": [
            {
              "internalType": "address",
              "name": "creator",
              "type": "address"
            },
            {
              "internalType": "string",
              "name": "title",
              "type": "string"
            },
            {
              "internalType": "string",
              "name": "description",
              "type": "string"
            },
            {
              "internalType": "uint256",
              "name": "startsAt",
              "type": "uint256"
            },
            {
              "internalType": "uint256",
              "name": "endsAt",
              "type": "uint256"
            },
            {
              "components": [
                {
                  "internalType": "string",
                  "name": "text",
                  "type": "string"
                },
                {
                  "internalType": "uint256",
                  "name": "votes",
                  "type": "uint256"
                }
              ],
              "internalType": "struct Polls.OptionResult[]",
              "name": "options",
              "type": "tuple[]"
            },
            {
              "internalType": "uint256",
              "name": "pollVotes",
              "type": "uint256"
            },
            {
              "components": [
                {
                  "internalType": "bool",
                  "name": "multiChoice",
                  "type": "bool"
                },
                {
                  "internalType": "bool",
                  "name": "noDeadline",
                  "type": "bool"
                },
                {
                  "internalType": "enum Polls.PollResultVisibility",
                  "name": "resultVisibility",
                  "type": "uint8"
                }
              ],
              "internalType": "struct Polls.PollSettings",
              "name": "settings",
              "type": "tuple"
            },
            {
              "internalType": "bool",
              "name": "hasVoted",
              "type": "bool"
            },
            {
              "internalType": "uint256[]",
              "name": "votedIndices",
              "type": "uint256[]"
            },
            {
              "internalType": "uint256",
              "name": "createdAt",
              "type": "uint256"
            }
          ],
          "internalType": "struct Polls.PollDetails",
          "name": "",
          "type": "tuple"
        }
      ],
      "stateMutability": "view",
      "type": "function"
    },
    {
      "inputs": [],
      "name": "getPollSummaries",
      "outputs": [
        {
          "components": [
            {
              "internalType": "address",
              "name": "creator",
              "type": "address"
            },
            {
              "internalType": "uint256",
              "name": "id",
              "type": "uint256"
            },
            {
              "internalType": "string",
              "name": "title",
              "type": "string"
            },
            {
              "internalType": "uint256",
              "name": "pollVotes",
              "type": "uint256"
            },
            {
              "internalType": "enum Polls.PollStatus",
              "name": "status",
              "type": "uint8"
            },
            {
              "internalType": "uint256",
              "name": "startsAt",
              "type": "uint256"
            },
            {
              "internalType": "uint256",
              "name": "endsAt",
              "type": "uint256"
            },
            {
              "internalType": "uint256",
              "name": "createdAt",
              "type": "uint256"
            }
          ],
          "internalType": "struct Polls.PollSummary[]",
          "name": "",
          "type": "tuple[]"
        }
      ],
      "stateMutability": "view",
      "type": "function"
    },
    {
      "inputs": [
        {
          "internalType": "uint256",
          "name": "",
          "type": "uint256"
        }
      ],
      "name": "polls",
      "outputs": [
        {
          "internalType": "address",
          "name": "creator",
          "type": "address"
        },
        {
          "internalType": "uint256",
          "name": "id",
          "type": "uint256"
        },
        {
          "internalType": "string",
          "name": "title",
          "type": "string"
        },
        {
          "internalType": "string",
          "name": "description",
          "type": "string"
        },
        {
          "internalType": "uint256",
          "name": "startsAt",
          "type": "uint256"
        },
        {
          "internalType": "uint256",
          "name": "endsAt",
          "type": "uint256"
        },
        {
          "internalType": "uint256",
          "name": "pollVotes",
          "type": "uint256"
        },
        {
          "components": [
            {
              "internalType": "bool",
              "name": "multiChoice",
              "type": "bool"
            },
            {
              "internalType": "bool",
              "name": "noDeadline",
              "type": "bool"
            },
            {
              "internalType": "enum Polls.PollResultVisibility",
              "name": "resultVisibility",
              "type": "uint8"
            }
          ],
          "internalType": "struct Polls.PollSettings",
          "name": "settings",
          "type": "tuple"
        },
        {
          "internalType": "uint256",
          "name": "createdAt",
          "type": "uint256"
        },
        {
          "internalType": "bool",
          "name": "isDeleted",
          "type": "bool"
        }
      ],
      "stateMutability": "view",
      "type": "function"
    }
  ],
  "devdoc": {
    "kind": "dev",
    "methods": {},
    "version": 1
  },
  "evm": {
    "assembly": "    /* \"Polls.sol\":72:10144  contract Polls {... */\n  mstore(0x40, 0x80)\n  callvalue\n  dup1\n  iszero\n  tag_1\n  jumpi\n  0x00\n  dup1\n  revert\ntag_1:\n  pop\n  dataSize(sub_0)\n  dup1\n  dataOffset(sub_0)\n  0x00\n  codecopy\n  0x00\n  return\nstop\n\nsub_0: assembly {\n        /* \"Polls.sol\":72:10144  contract Polls {... */\n      mstore(0x40, 0x80)\n      callvalue\n      dup1\n      iszero\n      tag_1\n      jumpi\n      0x00\n      dup1\n      revert\n    tag_1:\n      pop\n      jumpi(tag_2, lt(calldatasize, 0x04))\n      shr(0xe0, calldataload(0x00))\n      dup1\n      0x9a0040e4\n      gt\n      tag_11\n      jumpi\n      dup1\n      0x9a0040e4\n      eq\n      tag_7\n      jumpi\n      dup1\n      0xac2f0074\n      eq\n      tag_8\n      jumpi\n      dup1\n      0xacbcf3bd\n      eq\n      tag_9\n      jumpi\n      dup1\n      0xdfcaab88\n      eq\n      tag_10\n      jumpi\n      0x00\n      dup1\n      revert\n    tag_11:\n      dup1\n      0x1994a615\n      eq\n      tag_3\n      jumpi\n      dup1\n      0x1f35b51d\n      eq\n      tag_4\n      jumpi\n      dup1\n      0x21b91db5\n      eq\n      tag_5\n      jumpi\n      dup1\n      0x9534e637\n      eq\n      tag_6\n      jumpi\n    tag_2:\n      0x00\n      dup1\n      revert\n        /* \"Polls.sol\":1453:1499  mapping(address => uint256[]) public UserPolls */\n    tag_3:\n      tag_12\n      tag_13\n      calldatasize\n      0x04\n      tag_14\n      jump\t// in\n    tag_13:\n      tag_15\n      jump\t// in\n    tag_12:\n      mload(0x40)\n        /* \"#utility.yul\":542:567   */\n      swap1\n      dup2\n      mstore\n        /* \"#utility.yul\":530:532   */\n      0x20\n        /* \"#utility.yul\":515:533   */\n      add\n        /* \"Polls.sol\":1453:1499  mapping(address => uint256[]) public UserPolls */\n    tag_16:\n      mload(0x40)\n      dup1\n      swap2\n      sub\n      swap1\n      return\n        /* \"Polls.sol\":7156:7430  function deletePoll(uint256 _pollId) external {... */\n    tag_4:\n      tag_18\n      tag_19\n      calldatasize\n      0x04\n      tag_20\n      jump\t// in\n    tag_19:\n      tag_21\n      jump\t// in\n    tag_18:\n      stop\n        /* \"Polls.sol\":2805:3958  function createPoll(... */\n    tag_5:\n      tag_12\n      tag_23\n      calldatasize\n      0x04\n      tag_24\n      jump\t// in\n    tag_23:\n      tag_25\n      jump\t// in\n        /* \"Polls.sol\":6830:7148  function closePoll(uint256 _pollId) external {... */\n    tag_6:\n      tag_18\n      tag_28\n      calldatasize\n      0x04\n      tag_20\n      jump\t// in\n    tag_28:\n      tag_29\n      jump\t// in\n        /* \"Polls.sol\":4795:5519  function getPollDetails(... */\n    tag_7:\n      tag_30\n      tag_31\n      calldatasize\n      0x04\n      tag_20\n      jump\t// in\n    tag_31:\n      tag_32\n      jump\t// in\n    tag_30:\n      mload(0x40)\n      tag_16\n      swap2\n      swap1\n      tag_34\n      jump\t// in\n        /* \"Polls.sol\":1427:1446  Poll[] public polls */\n    tag_8:\n      tag_35\n      tag_36\n      calldatasize\n      0x04\n      tag_20\n      jump\t// in\n    tag_36:\n      tag_37\n      jump\t// in\n    tag_35:\n      mload(0x40)\n      tag_16\n      swap11\n      swap10\n      swap9\n      swap8\n      swap7\n      swap6\n      swap5\n      swap4\n      swap3\n      swap2\n      swap1\n      tag_39\n      jump\t// in\n        /* \"Polls.sol\":5527:6822  function caseVote(... */\n    tag_9:\n      tag_18\n      tag_41\n      calldatasize\n      0x04\n      tag_42\n      jump\t// in\n    tag_41:\n      tag_43\n      jump\t// in\n        /* \"Polls.sol\":3966:4787  function getPollSummaries() public view returns (PollSummary[] memory) {... */\n    tag_10:\n      tag_44\n      tag_45\n      jump\t// in\n    tag_44:\n      mload(0x40)\n      tag_16\n      swap2\n      swap1\n      tag_47\n      jump\t// in\n        /* \"Polls.sol\":1453:1499  mapping(address => uint256[]) public UserPolls */\n    tag_15:\n      mstore(0x20, 0x01)\n      dup2\n      0x00\n      mstore\n      keccak256(0x00, 0x40)\n      dup2\n      dup2\n      sload\n      dup2\n      lt\n      tag_48\n      jumpi\n      0x00\n      dup1\n      revert\n    tag_48:\n      swap1\n      0x00\n      mstore\n      keccak256(0x00, 0x20)\n      add\n      0x00\n      swap2\n      pop\n      swap2\n      pop\n      pop\n      sload\n      dup2\n      jump\t// out\n        /* \"Polls.sol\":7156:7430  function deletePoll(uint256 _pollId) external {... */\n    tag_21:\n        /* \"Polls.sol\":7213:7230  Poll storage poll */\n      0x00\n        /* \"Polls.sol\":7233:7249  getPoll(_pollId) */\n      tag_51\n        /* \"Polls.sol\":7241:7248  _pollId */\n      dup3\n        /* \"Polls.sol\":7233:7240  getPoll */\n      tag_52\n        /* \"Polls.sol\":7233:7249  getPoll(_pollId) */\n      jump\t// in\n    tag_51:\n        /* \"Polls.sol\":7264:7276  poll.creator */\n      dup1\n      sload\n        /* \"Polls.sol\":7213:7249  Poll storage poll = getPoll(_pollId) */\n      swap1\n      swap2\n      pop\n      sub(shl(0xa0, 0x01), 0x01)\n        /* \"Polls.sol\":7264:7276  poll.creator */\n      and\n        /* \"Polls.sol\":7280:7290  msg.sender */\n      caller\n        /* \"Polls.sol\":7264:7290  poll.creator != msg.sender */\n      eq\n        /* \"Polls.sol\":7260:7313  if (poll.creator != msg.sender) revert AccessDenied() */\n      tag_53\n      jumpi\n        /* \"Polls.sol\":7299:7313  AccessDenied() */\n      mload(0x40)\n      shl(0xe0, 0x4ca88867)\n      dup2\n      mstore\n      0x04\n      add\n      mload(0x40)\n      dup1\n      swap2\n      sub\n      swap1\n      revert\n        /* \"Polls.sol\":7260:7313  if (poll.creator != msg.sender) revert AccessDenied() */\n    tag_53:\n        /* \"Polls.sol\":7347:7364  PollStatus.Closed */\n      0x03\n        /* \"Polls.sol\":7328:7343  getStatus(poll) */\n      0x40\n      dup1\n      mload\n      0x0160\n      dup2\n      add\n      dup3\n      mstore\n      dup4\n      sload\n      sub(shl(0xa0, 0x01), 0x01)\n      and\n      dup2\n      mstore\n      0x01\n      dup5\n      add\n      sload\n      0x20\n      dup3\n      add\n      mstore\n      0x02\n      dup5\n      add\n      dup1\n      sload\n      tag_57\n      swap4\n        /* \"Polls.sol\":7338:7342  poll */\n      dup7\n      swap3\n        /* \"Polls.sol\":7328:7343  getStatus(poll) */\n      swap1\n      dup5\n      add\n      swap2\n      tag_58\n      swap1\n      tag_59\n      jump\t// in\n    tag_58:\n      dup1\n      0x1f\n      add\n      0x20\n      dup1\n      swap2\n      div\n      mul\n      0x20\n      add\n      mload(0x40)\n      swap1\n      dup2\n      add\n      0x40\n      mstore\n      dup1\n      swap3\n      swap2\n      swap1\n      dup2\n      dup2\n      mstore\n      0x20\n      add\n      dup3\n      dup1\n      sload\n      tag_60\n      swap1\n      tag_59\n      jump\t// in\n    tag_60:\n      dup1\n      iszero\n      tag_61\n      jumpi\n      dup1\n      0x1f\n      lt\n      tag_62\n      jumpi\n      0x0100\n      dup1\n      dup4\n      sload\n      div\n      mul\n      dup4\n      mstore\n      swap2\n      0x20\n      add\n      swap2\n      jump(tag_61)\n    tag_62:\n      dup3\n      add\n      swap2\n      swap1\n      0x00\n      mstore\n      keccak256(0x00, 0x20)\n      swap1\n    tag_63:\n      dup2\n      sload\n      dup2\n      mstore\n      swap1\n      0x01\n      add\n      swap1\n      0x20\n      add\n      dup1\n      dup4\n      gt\n      tag_63\n      jumpi\n      dup3\n      swap1\n      sub\n      0x1f\n      and\n      dup3\n      add\n      swap2\n    tag_61:\n      pop\n      pop\n      pop\n      pop\n      pop\n      dup2\n      mstore\n      0x20\n      add\n      0x03\n      dup3\n      add\n      dup1\n      sload\n      tag_64\n      swap1\n      tag_59\n      jump\t// in\n    tag_64:\n      dup1\n      0x1f\n      add\n      0x20\n      dup1\n      swap2\n      div\n      mul\n      0x20\n      add\n      mload(0x40)\n      swap1\n      dup2\n      add\n      0x40\n      mstore\n      dup1\n      swap3\n      swap2\n      swap1\n      dup2\n      dup2\n      mstore\n      0x20\n      add\n      dup3\n      dup1\n      sload\n      tag_65\n      swap1\n      tag_59\n      jump\t// in\n    tag_65:\n      dup1\n      iszero\n      tag_66\n      jumpi\n      dup1\n      0x1f\n      lt\n      tag_67\n      jumpi\n      0x0100\n      dup1\n      dup4\n      sload\n      div\n      mul\n      dup4\n      mstore\n      swap2\n      0x20\n      add\n      swap2\n      jump(tag_66)\n    tag_67:\n      dup3\n      add\n      swap2\n      swap1\n      0x00\n      mstore\n      keccak256(0x00, 0x20)\n      swap1\n    tag_68:\n      dup2\n      sload\n      dup2\n      mstore\n      swap1\n      0x01\n      add\n      swap1\n      0x20\n      add\n      dup1\n      dup4\n      gt\n      tag_68\n      jumpi\n      dup3\n      swap1\n      sub\n      0x1f\n      and\n      dup3\n      add\n      swap2\n    tag_66:\n      pop\n      pop\n      pop\n      pop\n      pop\n      dup2\n      mstore\n      0x20\n      add\n      0x04\n      dup3\n      add\n      sload\n      dup2\n      mstore\n      0x20\n      add\n      0x05\n      dup3\n      add\n      sload\n      dup2\n      mstore\n      0x20\n      add\n      0x06\n      dup3\n      add\n      dup1\n      sload\n      dup1\n      0x20\n      mul\n      0x20\n      add\n      mload(0x40)\n      swap1\n      dup2\n      add\n      0x40\n      mstore\n      dup1\n      swap3\n      swap2\n      swap1\n      dup2\n      dup2\n      mstore\n      0x20\n      add\n      0x00\n      swap1\n    tag_69:\n      dup3\n      dup3\n      lt\n      iszero\n      tag_70\n      jumpi\n      dup4\n      dup3\n      swap1\n      0x00\n      mstore\n      keccak256(0x00, 0x20)\n      add\n      dup1\n      sload\n      tag_72\n      swap1\n      tag_59\n      jump\t// in\n    tag_72:\n      dup1\n      0x1f\n      add\n      0x20\n      dup1\n      swap2\n      div\n      mul\n      0x20\n      add\n      mload(0x40)\n      swap1\n      dup2\n      add\n      0x40\n      mstore\n      dup1\n      swap3\n      swap2\n      swap1\n      dup2\n      dup2\n      mstore\n      0x20\n      add\n      dup3\n      dup1\n      sload\n      tag_73\n      swap1\n      tag_59\n      jump\t// in\n    tag_73:\n      dup1\n      iszero\n      tag_74\n      jumpi\n      dup1\n      0x1f\n      lt\n      tag_75\n      jumpi\n      0x0100\n      dup1\n      dup4\n      sload\n      div\n      mul\n      dup4\n      mstore\n      swap2\n      0x20\n      add\n      swap2\n      jump(tag_74)\n    tag_75:\n      dup3\n      add\n      swap2\n      swap1\n      0x00\n      mstore\n      keccak256(0x00, 0x20)\n      swap1\n    tag_76:\n      dup2\n      sload\n      dup2\n      mstore\n      swap1\n      0x01\n      add\n      swap1\n      0x20\n      add\n      dup1\n      dup4\n      gt\n      tag_76\n      jumpi\n      dup3\n      swap1\n      sub\n      0x1f\n      and\n      dup3\n      add\n      swap2\n    tag_74:\n      pop\n      pop\n      pop\n      pop\n      pop\n      dup2\n      mstore\n      0x20\n      add\n      swap1\n      0x01\n      add\n      swap1\n      jump(tag_69)\n    tag_70:\n      pop\n      pop\n      pop\n      swap1\n      dup3\n      mstore\n      pop\n      0x07\n      dup3\n      add\n      sload\n      0x20\n      dup1\n      dup4\n      add\n      swap2\n      swap1\n      swap2\n      mstore\n      0x40\n      dup1\n      mload\n      0x60\n      dup2\n      add\n      dup3\n      mstore\n      0x08\n      dup6\n      add\n      dup1\n      sload\n      0xff\n      dup1\n      dup3\n      and\n      iszero\n      iszero\n      dup5\n      mstore\n      0x0100\n      dup3\n      div\n      dup2\n      and\n      iszero\n      iszero\n      swap6\n      dup5\n      add\n      swap6\n      swap1\n      swap6\n      mstore\n      swap5\n      dup4\n      add\n      swap5\n      swap2\n      swap4\n      swap1\n      swap3\n      dup5\n      add\n      swap2\n      0x010000\n      swap1\n      div\n      and\n      0x03\n      dup2\n      gt\n      iszero\n      tag_78\n      jumpi\n      tag_78\n      tag_56\n      jump\t// in\n    tag_78:\n      0x03\n      dup2\n      gt\n      iszero\n      tag_80\n      jumpi\n      tag_80\n      tag_56\n      jump\t// in\n    tag_80:\n      swap1\n      mstore\n      pop\n      dup2\n      mstore\n      0x09\n      dup3\n      add\n      sload\n      0x20\n      dup3\n      add\n      mstore\n      0x0a\n      swap1\n      swap2\n      add\n      sload\n      0xff\n      and\n      iszero\n      iszero\n      0x40\n      swap1\n      swap2\n      add\n      mstore\n        /* \"Polls.sol\":7328:7337  getStatus */\n      tag_81\n        /* \"Polls.sol\":7328:7343  getStatus(poll) */\n      jump\t// in\n    tag_57:\n        /* \"Polls.sol\":7328:7364  getStatus(poll) != PollStatus.Closed */\n      0x03\n      dup2\n      gt\n      iszero\n      tag_83\n      jumpi\n      tag_83\n      tag_56\n      jump\t// in\n    tag_83:\n      eq\n        /* \"Polls.sol\":7324:7388  if (getStatus(poll) != PollStatus.Closed) revert PollNotClosed() */\n      tag_84\n      jumpi\n        /* \"Polls.sol\":7373:7388  PollNotClosed() */\n      mload(0x40)\n      shl(0xe0, 0x87da8e5f)\n      dup2\n      mstore\n      0x04\n      add\n      mload(0x40)\n      dup1\n      swap2\n      sub\n      swap1\n      revert\n        /* \"Polls.sol\":7324:7388  if (getStatus(poll) != PollStatus.Closed) revert PollNotClosed() */\n    tag_84:\n        /* \"Polls.sol\":7401:7415  poll.isDeleted */\n      0x0a\n      add\n        /* \"Polls.sol\":7401:7422  poll.isDeleted = true */\n      dup1\n      sload\n      not(0xff)\n      and\n        /* \"Polls.sol\":7418:7422  true */\n      0x01\n        /* \"Polls.sol\":7401:7422  poll.isDeleted = true */\n      or\n      swap1\n      sstore\n      pop\n        /* \"Polls.sol\":7156:7430  function deletePoll(uint256 _pollId) external {... */\n      jump\t// out\n        /* \"Polls.sol\":2805:3958  function createPoll(... */\n    tag_25:\n        /* \"Polls.sol\":3048:3055  uint256 */\n      0x00\n        /* \"Polls.sol\":3068:3089  validateTitle(_title) */\n      tag_86\n        /* \"Polls.sol\":3082:3088  _title */\n      dup11\n      dup11\n        /* \"Polls.sol\":3068:3081  validateTitle */\n      tag_87\n        /* \"Polls.sol\":3068:3089  validateTitle(_title) */\n      jump\t// in\n    tag_86:\n        /* \"Polls.sol\":3100:3119  validateDesc(_desc) */\n      tag_88\n        /* \"Polls.sol\":3113:3118  _desc */\n      dup9\n      dup9\n        /* \"Polls.sol\":3100:3112  validateDesc */\n      tag_89\n        /* \"Polls.sol\":3100:3119  validateDesc(_desc) */\n      jump\t// in\n    tag_88:\n        /* \"Polls.sol\":3130:3163  validateTimes(_startsAt, _endsAt) */\n      tag_90\n        /* \"Polls.sol\":3144:3153  _startsAt */\n      dup7\n        /* \"Polls.sol\":3155:3162  _endsAt */\n      dup7\n        /* \"Polls.sol\":3130:3143  validateTimes */\n      tag_91\n        /* \"Polls.sol\":3130:3163  validateTimes(_startsAt, _endsAt) */\n      jump\t// in\n    tag_90:\n        /* \"Polls.sol\":3174:3199  validateOptions(_options) */\n      tag_92\n        /* \"Polls.sol\":3190:3198  _options */\n      dup5\n      dup5\n        /* \"Polls.sol\":3174:3189  validateOptions */\n      tag_93\n        /* \"Polls.sol\":3174:3199  validateOptions(_options) */\n      jump\t// in\n    tag_92:\n        /* \"Polls.sol\":3210:3237  validateSettings(_settings) */\n      tag_94\n        /* \"Polls.sol\":3227:3236  _settings */\n      dup3\n        /* \"Polls.sol\":3210:3226  validateSettings */\n      tag_95\n        /* \"Polls.sol\":3210:3237  validateSettings(_settings) */\n      jump\t// in\n    tag_94:\n        /* \"Polls.sol\":3250:3264  uint256 pollId */\n      0x00\n        /* \"Polls.sol\":3267:3279  polls.length */\n      dup1\n      sload\n        /* \"Polls.sol\":3313:3325  polls.push() */\n      0x01\n      dup2\n      add\n      dup3\n      sstore\n      swap1\n      dup1\n      mstore\n      0x0b\n      dup2\n      mul\n      0x290decd9548b62a8d60345a988386fc84ba6bc95484008f6362f93160ef3e563\n      dup2\n      add\n        /* \"Polls.sol\":3336:3364  newPoll.creator = msg.sender */\n      dup1\n      sload\n      0xffffffffffffffffffffffff0000000000000000000000000000000000000000\n      and\n        /* \"Polls.sol\":3354:3364  msg.sender */\n      caller\n        /* \"Polls.sol\":3336:3364  newPoll.creator = msg.sender */\n      or\n      dup2\n      sstore\n        /* \"Polls.sol\":3375:3385  newPoll.id */\n      0x290decd9548b62a8d60345a988386fc84ba6bc95484008f6362f93160ef3e564\n      dup3\n      add\n        /* \"Polls.sol\":3375:3394  newPoll.id = pollId */\n      dup4\n      swap1\n      sstore\n        /* \"Polls.sol\":3313:3325  polls.push() */\n      swap1\n        /* \"Polls.sol\":3405:3418  newPoll.title */\n      0x290decd9548b62a8d60345a988386fc84ba6bc95484008f6362f93160ef3e565\n      add\n        /* \"Polls.sol\":3405:3427  newPoll.title = _title */\n      tag_97\n        /* \"Polls.sol\":3421:3427  _title */\n      dup13\n      dup15\n        /* \"Polls.sol\":3405:3418  newPoll.title */\n      dup4\n        /* \"Polls.sol\":3405:3427  newPoll.title = _title */\n      tag_98\n      jump\t// in\n    tag_97:\n      pop\n        /* \"Polls.sol\":3438:3457  newPoll.description */\n      0x03\n      dup2\n      add\n        /* \"Polls.sol\":3438:3465  newPoll.description = _desc */\n      tag_99\n        /* \"Polls.sol\":3460:3465  _desc */\n      dup11\n      dup13\n        /* \"Polls.sol\":3438:3457  newPoll.description */\n      dup4\n        /* \"Polls.sol\":3438:3465  newPoll.description = _desc */\n      tag_98\n      jump\t// in\n    tag_99:\n      pop\n        /* \"Polls.sol\":3476:3492  newPoll.startsAt */\n      0x04\n      dup2\n      add\n        /* \"Polls.sol\":3476:3504  newPoll.startsAt = _startsAt */\n      dup9\n      swap1\n      sstore\n        /* \"Polls.sol\":3532:3552  _settings.noDeadline */\n      tag_100\n      0x40\n      dup6\n      add\n      0x20\n      dup7\n      add\n      tag_101\n      jump\t// in\n    tag_100:\n        /* \"Polls.sol\":3532:3566  _settings.noDeadline ? 0 : _endsAt */\n      tag_102\n      jumpi\n        /* \"Polls.sol\":3559:3566  _endsAt */\n      dup7\n        /* \"Polls.sol\":3532:3566  _settings.noDeadline ? 0 : _endsAt */\n      jump(tag_103)\n    tag_102:\n        /* \"Polls.sol\":3555:3556  0 */\n      0x00\n        /* \"Polls.sol\":3532:3566  _settings.noDeadline ? 0 : _endsAt */\n    tag_103:\n        /* \"Polls.sol\":3515:3529  newPoll.endsAt */\n      0x05\n      dup3\n      add\n        /* \"Polls.sol\":3515:3566  newPoll.endsAt = _settings.noDeadline ? 0 : _endsAt */\n      sstore\n        /* \"Polls.sol\":3582:3588  uint i */\n      0x00\n        /* \"Polls.sol\":3577:3680  for (uint i = 0; i < _options.length; i++) {... */\n    tag_104:\n        /* \"Polls.sol\":3594:3613  i < _options.length */\n      dup6\n      dup2\n      lt\n        /* \"Polls.sol\":3577:3680  for (uint i = 0; i < _options.length; i++) {... */\n      iszero\n      tag_105\n      jumpi\n        /* \"Polls.sol\":3635:3642  newPoll */\n      dup2\n        /* \"Polls.sol\":3635:3650  newPoll.options */\n      0x06\n      add\n        /* \"Polls.sol\":3656:3664  _options */\n      dup8\n      dup8\n        /* \"Polls.sol\":3665:3666  i */\n      dup4\n        /* \"Polls.sol\":3656:3667  _options[i] */\n      dup2\n      dup2\n      lt\n      tag_108\n      jumpi\n      tag_108\n      tag_109\n      jump\t// in\n    tag_108:\n      swap1\n      pop\n      0x20\n      mul\n      dup2\n      add\n      swap1\n      tag_110\n      swap2\n      swap1\n      tag_111\n      jump\t// in\n    tag_110:\n        /* \"Polls.sol\":3635:3668  newPoll.options.push(_options[i]) */\n      dup3\n      sload\n      0x01\n      dup2\n      add\n      dup5\n      sstore\n      0x00\n      swap4\n      dup5\n      mstore\n      0x20\n      swap1\n      swap4\n      keccak256\n      swap1\n      swap3\n      add\n      swap2\n      tag_113\n      swap2\n      dup4\n      tag_98\n      jump\t// in\n    tag_113:\n      pop\n        /* \"Polls.sol\":3615:3618  i++ */\n      0x01\n      add\n        /* \"Polls.sol\":3577:3680  for (uint i = 0; i < _options.length; i++) {... */\n      jump(tag_104)\n    tag_105:\n      pop\n        /* \"Polls.sol\":3710:3711  0 */\n      0x00\n        /* \"Polls.sol\":3690:3707  newPoll.pollVotes */\n      0x07\n      dup3\n      add\n        /* \"Polls.sol\":3690:3711  newPoll.pollVotes = 0 */\n      sstore\n        /* \"Polls.sol\":3741:3750  _settings */\n      dup4\n        /* \"Polls.sol\":3722:3738  newPoll.settings */\n      0x08\n      dup3\n      add\n        /* \"Polls.sol\":3722:3750  newPoll.settings = _settings */\n      tag_114\n        /* \"Polls.sol\":3741:3750  _settings */\n      dup3\n        /* \"Polls.sol\":3722:3738  newPoll.settings */\n      dup3\n        /* \"Polls.sol\":3722:3750  newPoll.settings = _settings */\n      tag_115\n      jump\t// in\n    tag_114:\n      pop\n      pop\n        /* \"Polls.sol\":3781:3796  block.timestamp */\n      timestamp\n        /* \"Polls.sol\":3761:3778  newPoll.createdAt */\n      0x09\n      dup3\n      add\n        /* \"Polls.sol\":3761:3796  newPoll.createdAt = block.timestamp */\n      sstore\n        /* \"Polls.sol\":3807:3824  newPoll.isDeleted */\n      0x0a\n      dup2\n      add\n        /* \"Polls.sol\":3807:3832  newPoll.isDeleted = false */\n      dup1\n      sload\n      not(0xff)\n      and\n      swap1\n      sstore\n        /* \"Polls.sol\":3855:3865  msg.sender */\n      caller\n        /* \"Polls.sol\":3827:3832  false */\n      0x00\n        /* \"Polls.sol\":3845:3866  UserPolls[msg.sender] */\n      dup2\n      dup2\n      mstore\n        /* \"Polls.sol\":3807:3832  newPoll.isDeleted = false */\n      0x01\n        /* \"Polls.sol\":3845:3866  UserPolls[msg.sender] */\n      0x20\n      dup2\n      dup2\n      mstore\n      0x40\n      dup1\n      dup5\n      keccak256\n        /* \"Polls.sol\":3845:3879  UserPolls[msg.sender].push(pollId) */\n      dup1\n      sload\n      swap4\n      dup5\n      add\n      dup2\n      sstore\n      dup5\n      mstore\n      swap1\n      dup4\n      keccak256\n      swap1\n      swap2\n      add\n      dup6\n      swap1\n      sstore\n        /* \"Polls.sol\":3895:3926  PollCreated(msg.sender, pollId) */\n      mload\n        /* \"Polls.sol\":3872:3878  pollId */\n      dup5\n      swap3\n        /* \"Polls.sol\":3855:3865  msg.sender */\n      swap2\n        /* \"Polls.sol\":3895:3926  PollCreated(msg.sender, pollId) */\n      0x253458ed40d765e300ef79d87f8b5a901191fbfc27d54b1ea052a6752908953c\n      swap2\n      log3\n      pop\n        /* \"Polls.sol\":3944:3950  pollId */\n      swap11\n        /* \"Polls.sol\":2805:3958  function createPoll(... */\n      swap10\n      pop\n      pop\n      pop\n      pop\n      pop\n      pop\n      pop\n      pop\n      pop\n      pop\n      jump\t// out\n        /* \"Polls.sol\":6830:7148  function closePoll(uint256 _pollId) external {... */\n    tag_29:\n        /* \"Polls.sol\":6886:6903  Poll storage poll */\n      0x00\n        /* \"Polls.sol\":6906:6922  getPoll(_pollId) */\n      tag_118\n        /* \"Polls.sol\":6914:6921  _pollId */\n      dup3\n        /* \"Polls.sol\":6906:6913  getPoll */\n      tag_52\n        /* \"Polls.sol\":6906:6922  getPoll(_pollId) */\n      jump\t// in\n    tag_118:\n        /* \"Polls.sol\":6937:6949  poll.creator */\n      dup1\n      sload\n        /* \"Polls.sol\":6886:6922  Poll storage poll = getPoll(_pollId) */\n      swap1\n      swap2\n      pop\n      sub(shl(0xa0, 0x01), 0x01)\n        /* \"Polls.sol\":6937:6949  poll.creator */\n      and\n        /* \"Polls.sol\":6953:6963  msg.sender */\n      caller\n        /* \"Polls.sol\":6937:6963  poll.creator != msg.sender */\n      eq\n        /* \"Polls.sol\":6933:6986  if (poll.creator != msg.sender) revert AccessDenied() */\n      tag_119\n      jumpi\n        /* \"Polls.sol\":6972:6986  AccessDenied() */\n      mload(0x40)\n      shl(0xe0, 0x4ca88867)\n      dup2\n      mstore\n      0x04\n      add\n      mload(0x40)\n      dup1\n      swap2\n      sub\n      swap1\n      revert\n        /* \"Polls.sol\":6933:6986  if (poll.creator != msg.sender) revert AccessDenied() */\n    tag_119:\n        /* \"Polls.sol\":7020:7037  PollStatus.Closed */\n      0x03\n        /* \"Polls.sol\":7001:7016  getStatus(poll) */\n      0x40\n      dup1\n      mload\n      0x0160\n      dup2\n      add\n      dup3\n      mstore\n      dup4\n      sload\n      sub(shl(0xa0, 0x01), 0x01)\n      and\n      dup2\n      mstore\n      0x01\n      dup5\n      add\n      sload\n      0x20\n      dup3\n      add\n      mstore\n      0x02\n      dup5\n      add\n      dup1\n      sload\n      tag_122\n      swap4\n        /* \"Polls.sol\":7011:7015  poll */\n      dup7\n      swap3\n        /* \"Polls.sol\":7001:7016  getStatus(poll) */\n      swap1\n      dup5\n      add\n      swap2\n      tag_123\n      swap1\n      tag_59\n      jump\t// in\n    tag_123:\n      dup1\n      0x1f\n      add\n      0x20\n      dup1\n      swap2\n      div\n      mul\n      0x20\n      add\n      mload(0x40)\n      swap1\n      dup2\n      add\n      0x40\n      mstore\n      dup1\n      swap3\n      swap2\n      swap1\n      dup2\n      dup2\n      mstore\n      0x20\n      add\n      dup3\n      dup1\n      sload\n      tag_124\n      swap1\n      tag_59\n      jump\t// in\n    tag_124:\n      dup1\n      iszero\n      tag_125\n      jumpi\n      dup1\n      0x1f\n      lt\n      tag_126\n      jumpi\n      0x0100\n      dup1\n      dup4\n      sload\n      div\n      mul\n      dup4\n      mstore\n      swap2\n      0x20\n      add\n      swap2\n      jump(tag_125)\n    tag_126:\n      dup3\n      add\n      swap2\n      swap1\n      0x00\n      mstore\n      keccak256(0x00, 0x20)\n      swap1\n    tag_127:\n      dup2\n      sload\n      dup2\n      mstore\n      swap1\n      0x01\n      add\n      swap1\n      0x20\n      add\n      dup1\n      dup4\n      gt\n      tag_127\n      jumpi\n      dup3\n      swap1\n      sub\n      0x1f\n      and\n      dup3\n      add\n      swap2\n    tag_125:\n      pop\n      pop\n      pop\n      pop\n      pop\n      dup2\n      mstore\n      0x20\n      add\n      0x03\n      dup3\n      add\n      dup1\n      sload\n      tag_128\n      swap1\n      tag_59\n      jump\t// in\n    tag_128:\n      dup1\n      0x1f\n      add\n      0x20\n      dup1\n      swap2\n      div\n      mul\n      0x20\n      add\n      mload(0x40)\n      swap1\n      dup2\n      add\n      0x40\n      mstore\n      dup1\n      swap3\n      swap2\n      swap1\n      dup2\n      dup2\n      mstore\n      0x20\n      add\n      dup3\n      dup1\n      sload\n      tag_129\n      swap1\n      tag_59\n      jump\t// in\n    tag_129:\n      dup1\n      iszero\n      tag_130\n      jumpi\n      dup1\n      0x1f\n      lt\n      tag_131\n      jumpi\n      0x0100\n      dup1\n      dup4\n      sload\n      div\n      mul\n      dup4\n      mstore\n      swap2\n      0x20\n      add\n      swap2\n      jump(tag_130)\n    tag_131:\n      dup3\n      add\n      swap2\n      swap1\n      0x00\n      mstore\n      keccak256(0x00, 0x20)\n      swap1\n    tag_132:\n      dup2\n      sload\n      dup2\n      mstore\n      swap1\n      0x01\n      add\n      swap1\n      0x20\n      add\n      dup1\n      dup4\n      gt\n      tag_132\n      jumpi\n      dup3\n      swap1\n      sub\n      0x1f\n      and\n      dup3\n      add\n      swap2\n    tag_130:\n      pop\n      pop\n      pop\n      pop\n      pop\n      dup2\n      mstore\n      0x20\n      add\n      0x04\n      dup3\n      add\n      sload\n      dup2\n      mstore\n      0x20\n      add\n      0x05\n      dup3\n      add\n      sload\n      dup2\n      mstore\n      0x20\n      add\n      0x06\n      dup3\n      add\n      dup1\n      sload\n      dup1\n      0x20\n      mul\n      0x20\n      add\n      mload(0x40)\n      swap1\n      dup2\n      add\n      0x40\n      mstore\n      dup1\n      swap3\n      swap2\n      swap1\n      dup2\n      dup2\n      mstore\n      0x20\n      add\n      0x00\n      swap1\n    tag_133:\n      dup3\n      dup3\n      lt\n      iszero\n      tag_70\n      jumpi\n      dup4\n      dup3\n      swap1\n      0x00\n      mstore\n      keccak256(0x00, 0x20)\n      add\n      dup1\n      sload\n      tag_136\n      swap1\n      tag_59\n      jump\t// in\n    tag_136:\n      dup1\n      0x1f\n      add\n      0x20\n      dup1\n      swap2\n      div\n      mul\n      0x20\n      add\n      mload(0x40)\n      swap1\n      dup2\n      add\n      0x40\n      mstore\n      dup1\n      swap3\n      swap2\n      swap1\n      dup2\n      dup2\n      mstore\n      0x20\n      add\n      dup3\n      dup1\n      sload\n      tag_137\n      swap1\n      tag_59\n      jump\t// in\n    tag_137:\n      dup1\n      iszero\n      tag_138\n      jumpi\n      dup1\n      0x1f\n      lt\n      tag_139\n      jumpi\n      0x0100\n      dup1\n      dup4\n      sload\n      div\n      mul\n      dup4\n      mstore\n      swap2\n      0x20\n      add\n      swap2\n      jump(tag_138)\n    tag_139:\n      dup3\n      add\n      swap2\n      swap1\n      0x00\n      mstore\n      keccak256(0x00, 0x20)\n      swap1\n    tag_140:\n      dup2\n      sload\n      dup2\n      mstore\n      swap1\n      0x01\n      add\n      swap1\n      0x20\n      add\n      dup1\n      dup4\n      gt\n      tag_140\n      jumpi\n      dup3\n      swap1\n      sub\n      0x1f\n      and\n      dup3\n      add\n      swap2\n    tag_138:\n      pop\n      pop\n      pop\n      pop\n      pop\n      dup2\n      mstore\n      0x20\n      add\n      swap1\n      0x01\n      add\n      swap1\n      jump(tag_133)\n    tag_122:\n        /* \"Polls.sol\":7001:7037  getStatus(poll) == PollStatus.Closed */\n      0x03\n      dup2\n      gt\n      iszero\n      tag_146\n      jumpi\n      tag_146\n      tag_56\n      jump\t// in\n    tag_146:\n      sub\n        /* \"Polls.sol\":6997:7065  if (getStatus(poll) == PollStatus.Closed) revert PollAlreadyClosed() */\n      tag_147\n      jumpi\n        /* \"Polls.sol\":7046:7065  PollAlreadyClosed() */\n      mload(0x40)\n      shl(0xe0, 0x9b22ddeb)\n      dup2\n      mstore\n      0x04\n      add\n      mload(0x40)\n      dup1\n      swap2\n      sub\n      swap1\n      revert\n        /* \"Polls.sol\":6997:7065  if (getStatus(poll) == PollStatus.Closed) revert PollAlreadyClosed() */\n    tag_147:\n        /* \"Polls.sol\":7090:7091  1 */\n      0x01\n        /* \"Polls.sol\":7076:7087  poll.endsAt */\n      0x05\n      dup3\n      add\n        /* \"Polls.sol\":7076:7091  poll.endsAt = 1 */\n      sstore\n        /* \"Polls.sol\":7109:7140  PollClosed(msg.sender, _pollId) */\n      mload(0x40)\n        /* \"Polls.sol\":7132:7139  _pollId */\n      dup3\n      swap1\n        /* \"Polls.sol\":7120:7130  msg.sender */\n      caller\n      swap1\n        /* \"Polls.sol\":7109:7140  PollClosed(msg.sender, _pollId) */\n      0x563a96cebb2dd00c04fe16ab3f34901e3749b13da3040e6cae0b5a55ea4daee2\n      swap1\n      0x00\n      swap1\n      log3\n        /* \"Polls.sol\":6875:7148  {... */\n      pop\n        /* \"Polls.sol\":6830:7148  function closePoll(uint256 _pollId) external {... */\n      pop\n      jump\t// out\n        /* \"Polls.sol\":4795:5519  function getPollDetails(... */\n    tag_32:\n        /* \"Polls.sol\":4875:4893  PollDetails memory */\n      tag_148\n      tag_149\n      jump\t// in\n    tag_148:\n        /* \"Polls.sol\":4906:4923  Poll storage poll */\n      0x00\n        /* \"Polls.sol\":4926:4942  getPoll(_pollId) */\n      tag_151\n        /* \"Polls.sol\":4934:4941  _pollId */\n      dup4\n        /* \"Polls.sol\":4926:4933  getPoll */\n      tag_52\n        /* \"Polls.sol\":4926:4942  getPoll(_pollId) */\n      jump\t// in\n    tag_151:\n        /* \"Polls.sol\":4975:5511  PollDetails({... */\n      0x40\n      dup1\n      mload\n      0x0160\n      dup2\n      add\n      swap1\n      swap2\n      mstore\n        /* \"Polls.sol\":5015:5027  poll.creator */\n      dup2\n      sload\n      sub(shl(0xa0, 0x01), 0x01)\n      and\n        /* \"Polls.sol\":4975:5511  PollDetails({... */\n      dup2\n      mstore\n        /* \"Polls.sol\":5053:5063  poll.title */\n      0x02\n      dup3\n      add\n        /* \"Polls.sol\":4975:5511  PollDetails({... */\n      dup1\n      sload\n        /* \"Polls.sol\":4906:4942  Poll storage poll = getPoll(_pollId) */\n      swap3\n      swap4\n      pop\n        /* \"Polls.sol\":4975:5511  PollDetails({... */\n      swap1\n      swap2\n      0x20\n      dup4\n      add\n      swap2\n        /* \"Polls.sol\":5053:5063  poll.title */\n      swap1\n        /* \"Polls.sol\":4975:5511  PollDetails({... */\n      tag_152\n      swap1\n      tag_59\n      jump\t// in\n    tag_152:\n      dup1\n      0x1f\n      add\n      0x20\n      dup1\n      swap2\n      div\n      mul\n      0x20\n      add\n      mload(0x40)\n      swap1\n      dup2\n      add\n      0x40\n      mstore\n      dup1\n      swap3\n      swap2\n      swap1\n      dup2\n      dup2\n      mstore\n      0x20\n      add\n      dup3\n      dup1\n      sload\n      tag_153\n      swap1\n      tag_59\n      jump\t// in\n    tag_153:\n      dup1\n      iszero\n      tag_154\n      jumpi\n      dup1\n      0x1f\n      lt\n      tag_155\n      jumpi\n      0x0100\n      dup1\n      dup4\n      sload\n      div\n      mul\n      dup4\n      mstore\n      swap2\n      0x20\n      add\n      swap2\n      jump(tag_154)\n    tag_155:\n      dup3\n      add\n      swap2\n      swap1\n      0x00\n      mstore\n      keccak256(0x00, 0x20)\n      swap1\n    tag_156:\n      dup2\n      sload\n      dup2\n      mstore\n      swap1\n      0x01\n      add\n      swap1\n      0x20\n      add\n      dup1\n      dup4\n      gt\n      tag_156\n      jumpi\n      dup3\n      swap1\n      sub\n      0x1f\n      and\n      dup3\n      add\n      swap2\n    tag_154:\n      pop\n      pop\n      pop\n      pop\n      pop\n      dup2\n      mstore\n      0x20\n      add\n        /* \"Polls.sol\":5095:5099  poll */\n      dup3\n        /* \"Polls.sol\":5095:5111  poll.description */\n      0x03\n      add\n        /* \"Polls.sol\":4975:5511  PollDetails({... */\n      dup1\n      sload\n      tag_157\n      swap1\n      tag_59\n      jump\t// in\n    tag_157:\n      dup1\n      0x1f\n      add\n      0x20\n      dup1\n      swap2\n      div\n      mul\n      0x20\n      add\n      mload(0x40)\n      swap1\n      dup2\n      add\n      0x40\n      mstore\n      dup1\n      swap3\n      swap2\n      swap1\n      dup2\n      dup2\n      mstore\n      0x20\n      add\n      dup3\n      dup1\n      sload\n      tag_158\n      swap1\n      tag_59\n      jump\t// in\n    tag_158:\n      dup1\n      iszero\n      tag_159\n      jumpi\n      dup1\n      0x1f\n      lt\n      tag_160\n      jumpi\n      0x0100\n      dup1\n      dup4\n      sload\n      div\n      mul\n      dup4\n      mstore\n      swap2\n      0x20\n      add\n      swap2\n      jump(tag_159)\n    tag_160:\n      dup3\n      add\n      swap2\n      swap1\n      0x00\n      mstore\n      keccak256(0x00, 0x20)\n      swap1\n    tag_161:\n      dup2\n      sload\n      dup2\n      mstore\n      swap1\n      0x01\n      add\n      swap1\n      0x20\n      add\n      dup1\n      dup4\n      gt\n      tag_161\n      jumpi\n      dup3\n      swap1\n      sub\n      0x1f\n      and\n      dup3\n      add\n      swap2\n    tag_159:\n      pop\n      pop\n      pop\n      pop\n      pop\n      dup2\n      mstore\n      0x20\n      add\n        /* \"Polls.sol\":5140:5144  poll */\n      dup3\n        /* \"Polls.sol\":5140:5153  poll.startsAt */\n      0x04\n      add\n      sload\n        /* \"Polls.sol\":4975:5511  PollDetails({... */\n      dup2\n      mstore\n      0x20\n      add\n        /* \"Polls.sol\":5180:5184  poll */\n      dup3\n        /* \"Polls.sol\":5180:5191  poll.endsAt */\n      0x05\n      add\n      sload\n        /* \"Polls.sol\":4975:5511  PollDetails({... */\n      dup2\n      mstore\n      0x20\n      add\n        /* \"Polls.sol\":5219:5241  getOptionsResult(poll) */\n      tag_162\n        /* \"Polls.sol\":5236:5240  poll */\n      dup4\n        /* \"Polls.sol\":5219:5241  getOptionsResult(poll) */\n      mload(0x40)\n      dup1\n      0x0160\n      add\n      0x40\n      mstore\n      swap1\n      dup2\n      0x00\n      dup3\n      add\n      0x00\n      swap1\n      sload\n      swap1\n      0x0100\n      exp\n      swap1\n      div\n      sub(shl(0xa0, 0x01), 0x01)\n      and\n      sub(shl(0xa0, 0x01), 0x01)\n      and\n      sub(shl(0xa0, 0x01), 0x01)\n      and\n      dup2\n      mstore\n      0x20\n      add\n      0x01\n      dup3\n      add\n      sload\n      dup2\n      mstore\n      0x20\n      add\n      0x02\n      dup3\n      add\n      dup1\n      sload\n      tag_163\n      swap1\n      tag_59\n      jump\t// in\n    tag_163:\n      dup1\n      0x1f\n      add\n      0x20\n      dup1\n      swap2\n      div\n      mul\n      0x20\n      add\n      mload(0x40)\n      swap1\n      dup2\n      add\n      0x40\n      mstore\n      dup1\n      swap3\n      swap2\n      swap1\n      dup2\n      dup2\n      mstore\n      0x20\n      add\n      dup3\n      dup1\n      sload\n      tag_164\n      swap1\n      tag_59\n      jump\t// in\n    tag_164:\n      dup1\n      iszero\n      tag_165\n      jumpi\n      dup1\n      0x1f\n      lt\n      tag_166\n      jumpi\n      0x0100\n      dup1\n      dup4\n      sload\n      div\n      mul\n      dup4\n      mstore\n      swap2\n      0x20\n      add\n      swap2\n      jump(tag_165)\n    tag_166:\n      dup3\n      add\n      swap2\n      swap1\n      0x00\n      mstore\n      keccak256(0x00, 0x20)\n      swap1\n    tag_167:\n      dup2\n      sload\n      dup2\n      mstore\n      swap1\n      0x01\n      add\n      swap1\n      0x20\n      add\n      dup1\n      dup4\n      gt\n      tag_167\n      jumpi\n      dup3\n      swap1\n      sub\n      0x1f\n      and\n      dup3\n      add\n      swap2\n    tag_165:\n      pop\n      pop\n      pop\n      pop\n      pop\n      dup2\n      mstore\n      0x20\n      add\n      0x03\n      dup3\n      add\n      dup1\n      sload\n      tag_168\n      swap1\n      tag_59\n      jump\t// in\n    tag_168:\n      dup1\n      0x1f\n      add\n      0x20\n      dup1\n      swap2\n      div\n      mul\n      0x20\n      add\n      mload(0x40)\n      swap1\n      dup2\n      add\n      0x40\n      mstore\n      dup1\n      swap3\n      swap2\n      swap1\n      dup2\n      dup2\n      mstore\n      0x20\n      add\n      dup3\n      dup1\n      sload\n      tag_169\n      swap1\n      tag_59\n      jump\t// in\n    tag_169:\n      dup1\n      iszero\n      tag_170\n      jumpi\n      dup1\n      0x1f\n      lt\n      tag_171\n      jumpi\n      0x0100\n      dup1\n      dup4\n      sload\n      div\n      mul\n      dup4\n      mstore\n      swap2\n      0x20\n      add\n      swap2\n      jump(tag_170)\n    tag_171:\n      dup3\n      add\n      swap2\n      swap1\n      0x00\n      mstore\n      keccak256(0x00, 0x20)\n      swap1\n    tag_172:\n      dup2\n      sload\n      dup2\n      mstore\n      swap1\n      0x01\n      add\n      swap1\n      0x20\n      add\n      dup1\n      dup4\n      gt\n      tag_172\n      jumpi\n      dup3\n      swap1\n      sub\n      0x1f\n      and\n      dup3\n      add\n      swap2\n    tag_170:\n      pop\n      pop\n      pop\n      pop\n      pop\n      dup2\n      mstore\n      0x20\n      add\n      0x04\n      dup3\n      add\n      sload\n      dup2\n      mstore\n      0x20\n      add\n      0x05\n      dup3\n      add\n      sload\n      dup2\n      mstore\n      0x20\n      add\n      0x06\n      dup3\n      add\n      dup1\n      sload\n      dup1\n      0x20\n      mul\n      0x20\n      add\n      mload(0x40)\n      swap1\n      dup2\n      add\n      0x40\n      mstore\n      dup1\n      swap3\n      swap2\n      swap1\n      dup2\n      dup2\n      mstore\n      0x20\n      add\n      0x00\n      swap1\n    tag_173:\n      dup3\n      dup3\n      lt\n      iszero\n      tag_174\n      jumpi\n      dup4\n      dup3\n      swap1\n      0x00\n      mstore\n      keccak256(0x00, 0x20)\n      add\n      dup1\n      sload\n      tag_176\n      swap1\n      tag_59\n      jump\t// in\n    tag_176:\n      dup1\n      0x1f\n      add\n      0x20\n      dup1\n      swap2\n      div\n      mul\n      0x20\n      add\n      mload(0x40)\n      swap1\n      dup2\n      add\n      0x40\n      mstore\n      dup1\n      swap3\n      swap2\n      swap1\n      dup2\n      dup2\n      mstore\n      0x20\n      add\n      dup3\n      dup1\n      sload\n      tag_177\n      swap1\n      tag_59\n      jump\t// in\n    tag_177:\n      dup1\n      iszero\n      tag_178\n      jumpi\n      dup1\n      0x1f\n      lt\n      tag_179\n      jumpi\n      0x0100\n      dup1\n      dup4\n      sload\n      div\n      mul\n      dup4\n      mstore\n      swap2\n      0x20\n      add\n      swap2\n      jump(tag_178)\n    tag_179:\n      dup3\n      add\n      swap2\n      swap1\n      0x00\n      mstore\n      keccak256(0x00, 0x20)\n      swap1\n    tag_180:\n      dup2\n      sload\n      dup2\n      mstore\n      swap1\n      0x01\n      add\n      swap1\n      0x20\n      add\n      dup1\n      dup4\n      gt\n      tag_180\n      jumpi\n      dup3\n      swap1\n      sub\n      0x1f\n      and\n      dup3\n      add\n      swap2\n    tag_178:\n      pop\n      pop\n      pop\n      pop\n      pop\n      dup2\n      mstore\n      0x20\n      add\n      swap1\n      0x01\n      add\n      swap1\n      jump(tag_173)\n    tag_174:\n      pop\n      pop\n      pop\n      swap1\n      dup3\n      mstore\n      pop\n      0x07\n      dup3\n      add\n      sload\n      0x20\n      dup1\n      dup4\n      add\n      swap2\n      swap1\n      swap2\n      mstore\n      0x40\n      dup1\n      mload\n      0x60\n      dup2\n      add\n      dup3\n      mstore\n      0x08\n      dup6\n      add\n      dup1\n      sload\n      0xff\n      dup1\n      dup3\n      and\n      iszero\n      iszero\n      dup5\n      mstore\n      0x0100\n      dup3\n      div\n      dup2\n      and\n      iszero\n      iszero\n      swap6\n      dup5\n      add\n      swap6\n      swap1\n      swap6\n      mstore\n      swap5\n      dup4\n      add\n      swap5\n      swap2\n      swap4\n      swap1\n      swap3\n      dup5\n      add\n      swap2\n      0x010000\n      swap1\n      div\n      and\n      0x03\n      dup2\n      gt\n      iszero\n      tag_182\n      jumpi\n      tag_182\n      tag_56\n      jump\t// in\n    tag_182:\n      0x03\n      dup2\n      gt\n      iszero\n      tag_184\n      jumpi\n      tag_184\n      tag_56\n      jump\t// in\n    tag_184:\n      swap1\n      mstore\n      pop\n      dup2\n      mstore\n      0x09\n      dup3\n      add\n      sload\n      0x20\n      dup3\n      add\n      mstore\n      0x0a\n      swap1\n      swap2\n      add\n      sload\n      0xff\n      and\n      iszero\n      iszero\n      0x40\n      swap1\n      swap2\n      add\n      mstore\n        /* \"Polls.sol\":5219:5235  getOptionsResult */\n      tag_185\n        /* \"Polls.sol\":5219:5241  getOptionsResult(poll) */\n      jump\t// in\n    tag_162:\n        /* \"Polls.sol\":4975:5511  PollDetails({... */\n      dup2\n      mstore\n        /* \"Polls.sol\":5271:5285  poll.pollVotes */\n      0x07\n      dup4\n      add\n      sload\n        /* \"Polls.sol\":4975:5511  PollDetails({... */\n      0x20\n      dup1\n      dup4\n      add\n      swap2\n      swap1\n      swap2\n      mstore\n      0x40\n      dup1\n      mload\n      0x60\n      dup2\n      add\n      dup3\n      mstore\n        /* \"Polls.sol\":5314:5327  poll.settings */\n      0x08\n      dup7\n      add\n        /* \"Polls.sol\":4975:5511  PollDetails({... */\n      dup1\n      sload\n      0xff\n      dup1\n      dup3\n      and\n      iszero\n      iszero\n      dup5\n      mstore\n      0x0100\n      dup3\n      div\n      dup2\n      and\n      iszero\n      iszero\n      swap6\n      dup5\n      add\n      swap6\n      swap1\n      swap6\n      mstore\n      swap5\n      dup4\n      add\n      swap5\n      swap2\n      swap4\n        /* \"Polls.sol\":5314:5327  poll.settings */\n      swap1\n      swap3\n        /* \"Polls.sol\":4975:5511  PollDetails({... */\n      dup5\n      add\n      swap2\n      0x010000\n      swap1\n      div\n      and\n      0x03\n      dup2\n      gt\n      iszero\n      tag_187\n      jumpi\n      tag_187\n      tag_56\n      jump\t// in\n    tag_187:\n      0x03\n      dup2\n      gt\n      iszero\n      tag_189\n      jumpi\n      tag_189\n      tag_56\n      jump\t// in\n    tag_189:\n      swap1\n      mstore\n      pop\n      dup2\n      mstore\n        /* \"Polls.sol\":5356:5373  hasVoted[_pollId] */\n      0x00\n      dup6\n      dup2\n      mstore\n        /* \"Polls.sol\":5356:5364  hasVoted */\n      0x02\n        /* \"Polls.sol\":4975:5511  PollDetails({... */\n      0x20\n        /* \"Polls.sol\":5356:5373  hasVoted[_pollId] */\n      swap1\n      dup2\n      mstore\n      0x40\n      dup1\n      dup4\n      keccak256\n        /* \"Polls.sol\":5374:5384  msg.sender */\n      caller\n        /* \"Polls.sol\":5356:5385  hasVoted[_pollId][msg.sender] */\n      dup1\n      dup6\n      mstore\n      swap1\n      dup4\n      mstore\n      dup2\n      dup5\n      keccak256\n      sload\n      0xff\n      and\n        /* \"Polls.sol\":4975:5511  PollDetails({... */\n      iszero\n      iszero\n      dup4\n      dup7\n      add\n      mstore\n        /* \"Polls.sol\":5418:5439  votedIndices[_pollId] */\n      dup9\n      dup5\n      mstore\n        /* \"Polls.sol\":5418:5430  votedIndices */\n      0x05\n        /* \"Polls.sol\":5418:5439  votedIndices[_pollId] */\n      dup4\n      mstore\n      dup2\n      dup5\n      keccak256\n        /* \"Polls.sol\":5418:5451  votedIndices[_pollId][msg.sender] */\n      swap1\n      dup5\n      mstore\n      dup3\n      mstore\n      swap2\n      dup3\n      swap1\n      keccak256\n        /* \"Polls.sol\":4975:5511  PollDetails({... */\n      dup1\n      sload\n      dup4\n      mload\n      dup2\n      dup5\n      mul\n      dup2\n      add\n      dup5\n      add\n      dup6\n      mstore\n      dup2\n      dup2\n      mstore\n      swap4\n      swap1\n      swap5\n      add\n      swap4\n        /* \"Polls.sol\":5418:5451  votedIndices[_pollId][msg.sender] */\n      swap1\n      swap2\n        /* \"Polls.sol\":4975:5511  PollDetails({... */\n      dup4\n      add\n        /* \"Polls.sol\":5418:5451  votedIndices[_pollId][msg.sender] */\n      dup3\n        /* \"Polls.sol\":4975:5511  PollDetails({... */\n      dup3\n      dup1\n      iszero\n      tag_190\n      jumpi\n      0x20\n      mul\n      dup3\n      add\n      swap2\n      swap1\n      0x00\n      mstore\n      keccak256(0x00, 0x20)\n      swap1\n    tag_191:\n      dup2\n      sload\n      dup2\n      mstore\n      0x20\n      add\n      swap1\n      0x01\n      add\n      swap1\n      dup1\n      dup4\n      gt\n      tag_191\n      jumpi\n    tag_190:\n      pop\n      pop\n      pop\n      pop\n      pop\n      dup2\n      mstore\n      0x20\n      add\n        /* \"Polls.sol\":5481:5485  poll */\n      dup3\n        /* \"Polls.sol\":5481:5495  poll.createdAt */\n      0x09\n      add\n      sload\n        /* \"Polls.sol\":4975:5511  PollDetails({... */\n      dup2\n      mstore\n      pop\n        /* \"Polls.sol\":4955:5511  return... */\n      swap2\n      pop\n      pop\n        /* \"Polls.sol\":4795:5519  function getPollDetails(... */\n      swap2\n      swap1\n      pop\n      jump\t// out\n        /* \"Polls.sol\":1427:1446  Poll[] public polls */\n    tag_37:\n      0x00\n      dup2\n      dup2\n      sload\n      dup2\n      lt\n      tag_192\n      jumpi\n      0x00\n      dup1\n      revert\n    tag_192:\n      0x00\n      swap2\n      dup3\n      mstore\n      0x20\n      swap1\n      swap2\n      keccak256\n      0x0b\n      swap1\n      swap2\n      mul\n      add\n      dup1\n      sload\n      0x01\n      dup3\n      add\n      sload\n      0x02\n      dup4\n      add\n      dup1\n      sload\n      sub(shl(0xa0, 0x01), 0x01)\n      swap1\n      swap4\n      and\n      swap5\n      pop\n      swap1\n      swap3\n      swap2\n      tag_194\n      swap1\n      tag_59\n      jump\t// in\n    tag_194:\n      dup1\n      0x1f\n      add\n      0x20\n      dup1\n      swap2\n      div\n      mul\n      0x20\n      add\n      mload(0x40)\n      swap1\n      dup2\n      add\n      0x40\n      mstore\n      dup1\n      swap3\n      swap2\n      swap1\n      dup2\n      dup2\n      mstore\n      0x20\n      add\n      dup3\n      dup1\n      sload\n      tag_195\n      swap1\n      tag_59\n      jump\t// in\n    tag_195:\n      dup1\n      iszero\n      tag_196\n      jumpi\n      dup1\n      0x1f\n      lt\n      tag_197\n      jumpi\n      0x0100\n      dup1\n      dup4\n      sload\n      div\n      mul\n      dup4\n      mstore\n      swap2\n      0x20\n      add\n      swap2\n      jump(tag_196)\n    tag_197:\n      dup3\n      add\n      swap2\n      swap1\n      0x00\n      mstore\n      keccak256(0x00, 0x20)\n      swap1\n    tag_198:\n      dup2\n      sload\n      dup2\n      mstore\n      swap1\n      0x01\n      add\n      swap1\n      0x20\n      add\n      dup1\n      dup4\n      gt\n      tag_198\n      jumpi\n      dup3\n      swap1\n      sub\n      0x1f\n      and\n      dup3\n      add\n      swap2\n    tag_196:\n      pop\n      pop\n      pop\n      pop\n      pop\n      swap1\n      dup1\n      0x03\n      add\n      dup1\n      sload\n      tag_199\n      swap1\n      tag_59\n      jump\t// in\n    tag_199:\n      dup1\n      0x1f\n      add\n      0x20\n      dup1\n      swap2\n      div\n      mul\n      0x20\n      add\n      mload(0x40)\n      swap1\n      dup2\n      add\n      0x40\n      mstore\n      dup1\n      swap3\n      swap2\n      swap1\n      dup2\n      dup2\n      mstore\n      0x20\n      add\n      dup3\n      dup1\n      sload\n      tag_200\n      swap1\n      tag_59\n      jump\t// in\n    tag_200:\n      dup1\n      iszero\n      tag_201\n      jumpi\n      dup1\n      0x1f\n      lt\n      tag_202\n      jumpi\n      0x0100\n      dup1\n      dup4\n      sload\n      div\n      mul\n      dup4\n      mstore\n      swap2\n      0x20\n      add\n      swap2\n      jump(tag_201)\n    tag_202:\n      dup3\n      add\n      swap2\n      swap1\n      0x00\n      mstore\n      keccak256(0x00, 0x20)\n      swap1\n    tag_203:\n      dup2\n      sload\n      dup2\n      mstore\n      swap1\n      0x01\n      add\n      swap1\n      0x20\n      add\n      dup1\n      dup4\n      gt\n      tag_203\n      jumpi\n      dup3\n      swap1\n      sub\n      0x1f\n      and\n      dup3\n      add\n      swap2\n    tag_201:\n      pop\n      pop\n      pop\n      0x04\n      dup5\n      add\n      sload\n      0x05\n      dup6\n      add\n      sload\n      0x07\n      dup7\n      add\n      sload\n      0x40\n      dup1\n      mload\n      0x60\n      dup2\n      add\n      dup3\n      mstore\n      0x08\n      dup10\n      add\n      dup1\n      sload\n      0xff\n      dup1\n      dup3\n      and\n      iszero\n      iszero\n      dup5\n      mstore\n      0x0100\n      dup3\n      div\n      dup2\n      and\n      iszero\n      iszero\n      0x20\n      dup6\n      add\n      mstore\n      swap10\n      swap11\n      swap7\n      swap10\n      swap6\n      swap9\n      pop\n      swap4\n      swap7\n      pop\n      swap1\n      swap4\n      swap1\n      swap3\n      swap2\n      dup5\n      add\n      swap2\n      0x010000\n      swap1\n      div\n      and\n      0x03\n      dup2\n      gt\n      iszero\n      tag_205\n      jumpi\n      tag_205\n      tag_56\n      jump\t// in\n    tag_205:\n      0x03\n      dup2\n      gt\n      iszero\n      tag_207\n      jumpi\n      tag_207\n      tag_56\n      jump\t// in\n    tag_207:\n      swap1\n      mstore\n      pop\n      0x09\n      dup3\n      add\n      sload\n      0x0a\n      swap1\n      swap3\n      add\n      sload\n      swap1\n      swap2\n      swap1\n      0xff\n      and\n      dup11\n      jump\t// out\n        /* \"Polls.sol\":5527:6822  function caseVote(... */\n    tag_43:\n        /* \"Polls.sol\":5642:5659  Poll storage poll */\n      0x00\n        /* \"Polls.sol\":5662:5678  getPoll(_pollId) */\n      tag_209\n        /* \"Polls.sol\":5670:5677  _pollId */\n      dup5\n        /* \"Polls.sol\":5662:5669  getPoll */\n      tag_52\n        /* \"Polls.sol\":5662:5678  getPoll(_pollId) */\n      jump\t// in\n    tag_209:\n        /* \"Polls.sol\":5642:5678  Poll storage poll = getPoll(_pollId) */\n      swap1\n      pop\n        /* \"Polls.sol\":5714:5729  PollStatus.Open */\n      0x01\n        /* \"Polls.sol\":5695:5710  getStatus(poll) */\n      0x40\n      dup1\n      mload\n      0x0160\n      dup2\n      add\n      dup3\n      mstore\n      dup4\n      sload\n      sub(shl(0xa0, 0x01), 0x01)\n      and\n      dup2\n      mstore\n      0x01\n      dup5\n      add\n      sload\n      0x20\n      dup3\n      add\n      mstore\n      0x02\n      dup5\n      add\n      dup1\n      sload\n      tag_212\n      swap4\n        /* \"Polls.sol\":5705:5709  poll */\n      dup7\n      swap3\n        /* \"Polls.sol\":5695:5710  getStatus(poll) */\n      swap1\n      dup5\n      add\n      swap2\n      tag_213\n      swap1\n      tag_59\n      jump\t// in\n    tag_213:\n      dup1\n      0x1f\n      add\n      0x20\n      dup1\n      swap2\n      div\n      mul\n      0x20\n      add\n      mload(0x40)\n      swap1\n      dup2\n      add\n      0x40\n      mstore\n      dup1\n      swap3\n      swap2\n      swap1\n      dup2\n      dup2\n      mstore\n      0x20\n      add\n      dup3\n      dup1\n      sload\n      tag_214\n      swap1\n      tag_59\n      jump\t// in\n    tag_214:\n      dup1\n      iszero\n      tag_215\n      jumpi\n      dup1\n      0x1f\n      lt\n      tag_216\n      jumpi\n      0x0100\n      dup1\n      dup4\n      sload\n      div\n      mul\n      dup4\n      mstore\n      swap2\n      0x20\n      add\n      swap2\n      jump(tag_215)\n    tag_216:\n      dup3\n      add\n      swap2\n      swap1\n      0x00\n      mstore\n      keccak256(0x00, 0x20)\n      swap1\n    tag_217:\n      dup2\n      sload\n      dup2\n      mstore\n      swap1\n      0x01\n      add\n      swap1\n      0x20\n      add\n      dup1\n      dup4\n      gt\n      tag_217\n      jumpi\n      dup3\n      swap1\n      sub\n      0x1f\n      and\n      dup3\n      add\n      swap2\n    tag_215:\n      pop\n      pop\n      pop\n      pop\n      pop\n      dup2\n      mstore\n      0x20\n      add\n      0x03\n      dup3\n      add\n      dup1\n      sload\n      tag_218\n      swap1\n      tag_59\n      jump\t// in\n    tag_218:\n      dup1\n      0x1f\n      add\n      0x20\n      dup1\n      swap2\n      div\n      mul\n      0x20\n      add\n      mload(0x40)\n      swap1\n      dup2\n      add\n      0x40\n      mstore\n      dup1\n      swap3\n      swap2\n      swap1\n      dup2\n      dup2\n      mstore\n      0x20\n      add\n      dup3\n      dup1\n      sload\n      tag_219\n      swap1\n      tag_59\n      jump\t// in\n    tag_219:\n      dup1\n      iszero\n      tag_220\n      jumpi\n      dup1\n      0x1f\n      lt\n      tag_221\n      jumpi\n      0x0100\n      dup1\n      dup4\n      sload\n      div\n      mul\n      dup4\n      mstore\n      swap2\n      0x20\n      add\n      swap2\n      jump(tag_220)\n    tag_221:\n      dup3\n      add\n      swap2\n      swap1\n      0x00\n      mstore\n      keccak256(0x00, 0x20)\n      swap1\n    tag_222:\n      dup2\n      sload\n      dup2\n      mstore\n      swap1\n      0x01\n      add\n      swap1\n      0x20\n      add\n      dup1\n      dup4\n      gt\n      tag_222\n      jumpi\n      dup3\n      swap1\n      sub\n      0x1f\n      and\n      dup3\n      add\n      swap2\n    tag_220:\n      pop\n      pop\n      pop\n      pop\n      pop\n      dup2\n      mstore\n      0x20\n      add\n      0x04\n      dup3\n      add\n      sload\n      dup2\n      mstore\n      0x20\n      add\n      0x05\n      dup3\n      add\n      sload\n      dup2\n      mstore\n      0x20\n      add\n      0x06\n      dup3\n      add\n      dup1\n      sload\n      dup1\n      0x20\n      mul\n      0x20\n      add\n      mload(0x40)\n      swap1\n      dup2\n      add\n      0x40\n      mstore\n      dup1\n      swap3\n      swap2\n      swap1\n      dup2\n      dup2\n      mstore\n      0x20\n      add\n      0x00\n      swap1\n    tag_223:\n      dup3\n      dup3\n      lt\n      iszero\n      tag_70\n      jumpi\n      dup4\n      dup3\n      swap1\n      0x00\n      mstore\n      keccak256(0x00, 0x20)\n      add\n      dup1\n      sload\n      tag_226\n      swap1\n      tag_59\n      jump\t// in\n    tag_226:\n      dup1\n      0x1f\n      add\n      0x20\n      dup1\n      swap2\n      div\n      mul\n      0x20\n      add\n      mload(0x40)\n      swap1\n      dup2\n      add\n      0x40\n      mstore\n      dup1\n      swap3\n      swap2\n      swap1\n      dup2\n      dup2\n      mstore\n      0x20\n      add\n      dup3\n      dup1\n      sload\n      tag_227\n      swap1\n      tag_59\n      jump\t// in\n    tag_227:\n      dup1\n      iszero\n      tag_228\n      jumpi\n      dup1\n      0x1f\n      lt\n      tag_229\n      jumpi\n      0x0100\n      dup1\n      dup4\n      sload\n      div\n      mul\n      dup4\n      mstore\n      swap2\n      0x20\n      add\n      swap2\n      jump(tag_228)\n    tag_229:\n      dup3\n      add\n      swap2\n      swap1\n      0x00\n      mstore\n      keccak256(0x00, 0x20)\n      swap1\n    tag_230:\n      dup2\n      sload\n      dup2\n      mstore\n      swap1\n      0x01\n      add\n      swap1\n      0x20\n      add\n      dup1\n      dup4\n      gt\n      tag_230\n      jumpi\n      dup3\n      swap1\n      sub\n      0x1f\n      and\n      dup3\n      add\n      swap2\n    tag_228:\n      pop\n      pop\n      pop\n      pop\n      pop\n      dup2\n      mstore\n      0x20\n      add\n      swap1\n      0x01\n      add\n      swap1\n      jump(tag_223)\n    tag_212:\n        /* \"Polls.sol\":5695:5729  getStatus(poll) != PollStatus.Open */\n      0x03\n      dup2\n      gt\n      iszero\n      tag_236\n      jumpi\n      tag_236\n      tag_56\n      jump\t// in\n    tag_236:\n      eq\n        /* \"Polls.sol\":5691:5751  if (getStatus(poll) != PollStatus.Open) revert PollNotOpen() */\n      tag_237\n      jumpi\n        /* \"Polls.sol\":5738:5751  PollNotOpen() */\n      mload(0x40)\n      shl(0xe0, 0xb4f0e2d9)\n      dup2\n      mstore\n      0x04\n      add\n      mload(0x40)\n      dup1\n      swap2\n      sub\n      swap1\n      revert\n        /* \"Polls.sol\":5691:5751  if (getStatus(poll) != PollStatus.Open) revert PollNotOpen() */\n    tag_237:\n        /* \"Polls.sol\":5766:5783  hasVoted[_pollId] */\n      0x00\n      dup5\n      dup2\n      mstore\n        /* \"Polls.sol\":5766:5774  hasVoted */\n      0x02\n        /* \"Polls.sol\":5766:5783  hasVoted[_pollId] */\n      0x20\n      swap1\n      dup2\n      mstore\n      0x40\n      dup1\n      dup4\n      keccak256\n        /* \"Polls.sol\":5784:5794  msg.sender */\n      caller\n        /* \"Polls.sol\":5766:5795  hasVoted[_pollId][msg.sender] */\n      dup5\n      mstore\n      swap1\n      swap2\n      mstore\n      swap1\n      keccak256\n      sload\n      0xff\n      and\n        /* \"Polls.sol\":5762:5818  if (hasVoted[_pollId][msg.sender]) revert AlreadyVoted() */\n      iszero\n      tag_238\n      jumpi\n        /* \"Polls.sol\":5804:5818  AlreadyVoted() */\n      mload(0x40)\n      shl(0xe0, 0x7c9a1cf9)\n      dup2\n      mstore\n      0x04\n      add\n      mload(0x40)\n      dup1\n      swap2\n      sub\n      swap1\n      revert\n        /* \"Polls.sol\":5762:5818  if (hasVoted[_pollId][msg.sender]) revert AlreadyVoted() */\n    tag_238:\n        /* \"Polls.sol\":5852:5866  _optionIndices */\n      dup2\n        /* \"Polls.sol\":5831:5849  uint256 numChoices */\n      0x00\n        /* \"Polls.sol\":5888:5903  numChoices == 0 */\n      dup2\n      swap1\n      sub\n        /* \"Polls.sol\":5884:5930  if (numChoices == 0) revert NoOptionSelected() */\n      tag_239\n      jumpi\n        /* \"Polls.sol\":5912:5930  NoOptionSelected() */\n      mload(0x40)\n      shl(0xe0, 0xbe5a2acd)\n      dup2\n      mstore\n      0x04\n      add\n      mload(0x40)\n      dup1\n      swap2\n      sub\n      swap1\n      revert\n        /* \"Polls.sol\":5884:5930  if (numChoices == 0) revert NoOptionSelected() */\n    tag_239:\n        /* \"Polls.sol\":5948:5961  poll.settings */\n      0x08\n      dup3\n      add\n        /* \"Polls.sol\":5948:5973  poll.settings.multiChoice */\n      sload\n      0xff\n      and\n        /* \"Polls.sol\":5947:5973  !poll.settings.multiChoice */\n      iszero\n        /* \"Polls.sol\":5947:5991  !poll.settings.multiChoice && numChoices > 1 */\n      dup1\n      iszero\n      tag_240\n      jumpi\n      pop\n        /* \"Polls.sol\":5990:5991  1 */\n      0x01\n        /* \"Polls.sol\":5977:5987  numChoices */\n      dup2\n        /* \"Polls.sol\":5977:5991  numChoices > 1 */\n      gt\n        /* \"Polls.sol\":5947:5991  !poll.settings.multiChoice && numChoices > 1 */\n    tag_240:\n        /* \"Polls.sol\":5943:6050  if (!poll.settings.multiChoice && numChoices > 1) {... */\n      iszero\n      tag_241\n      jumpi\n        /* \"Polls.sol\":6015:6038  MultiChoiceNotAllowed() */\n      mload(0x40)\n      shl(0xe0, 0xbaabd107)\n      dup2\n      mstore\n      0x04\n      add\n      mload(0x40)\n      dup1\n      swap2\n      sub\n      swap1\n      revert\n        /* \"Polls.sol\":5943:6050  if (!poll.settings.multiChoice && numChoices > 1) {... */\n    tag_241:\n        /* \"Polls.sol\":6067:6076  uint256 i */\n      0x00\n        /* \"Polls.sol\":6062:6484  for (uint256 i = 0; i < numChoices; i++) {... */\n    tag_242:\n        /* \"Polls.sol\":6086:6096  numChoices */\n      dup2\n        /* \"Polls.sol\":6082:6083  i */\n      dup2\n        /* \"Polls.sol\":6082:6096  i < numChoices */\n      lt\n        /* \"Polls.sol\":6062:6484  for (uint256 i = 0; i < numChoices; i++) {... */\n      iszero\n      tag_243\n      jumpi\n        /* \"Polls.sol\":6118:6132  uint256 optInx */\n      0x00\n        /* \"Polls.sol\":6135:6149  _optionIndices */\n      dup6\n      dup6\n        /* \"Polls.sol\":6150:6151  i */\n      dup4\n        /* \"Polls.sol\":6135:6152  _optionIndices[i] */\n      dup2\n      dup2\n      lt\n      tag_246\n      jumpi\n      tag_246\n      tag_109\n      jump\t// in\n    tag_246:\n      swap1\n      pop\n      0x20\n      mul\n      add\n      calldataload\n        /* \"Polls.sol\":6118:6152  uint256 optInx = _optionIndices[i] */\n      swap1\n      pop\n        /* \"Polls.sol\":6181:6185  poll */\n      dup4\n        /* \"Polls.sol\":6181:6193  poll.options */\n      0x06\n      add\n        /* \"Polls.sol\":6181:6200  poll.options.length */\n      dup1\n      sload\n      swap1\n      pop\n        /* \"Polls.sol\":6171:6177  optInx */\n      dup2\n        /* \"Polls.sol\":6171:6200  optInx >= poll.options.length */\n      lt\n        /* \"Polls.sol\":6167:6228  if (optInx >= poll.options.length) revert InvalidPollOption() */\n      tag_247\n      jumpi\n        /* \"Polls.sol\":6209:6228  InvalidPollOption() */\n      mload(0x40)\n      shl(0xe0, 0x70039a25)\n      dup2\n      mstore\n      0x04\n      add\n      mload(0x40)\n      dup1\n      swap2\n      sub\n      swap1\n      revert\n        /* \"Polls.sol\":6167:6228  if (optInx >= poll.options.length) revert InvalidPollOption() */\n    tag_247:\n        /* \"Polls.sol\":6248:6257  uint256 j */\n      0x00\n        /* \"Polls.sol\":6243:6428  for (uint256 j = 0; j < i; j++) {... */\n    tag_248:\n        /* \"Polls.sol\":6267:6268  i */\n      dup3\n        /* \"Polls.sol\":6263:6264  j */\n      dup2\n        /* \"Polls.sol\":6263:6268  j < i */\n      lt\n        /* \"Polls.sol\":6243:6428  for (uint256 j = 0; j < i; j++) {... */\n      iszero\n      tag_249\n      jumpi\n        /* \"Polls.sol\":6319:6333  _optionIndices */\n      dup7\n      dup7\n        /* \"Polls.sol\":6334:6335  j */\n      dup3\n        /* \"Polls.sol\":6319:6336  _optionIndices[j] */\n      dup2\n      dup2\n      lt\n      tag_252\n      jumpi\n      tag_252\n      tag_109\n      jump\t// in\n    tag_252:\n      swap1\n      pop\n      0x20\n      mul\n      add\n      calldataload\n        /* \"Polls.sol\":6298:6312  _optionIndices */\n      dup8\n      dup8\n        /* \"Polls.sol\":6313:6314  i */\n      dup6\n        /* \"Polls.sol\":6298:6315  _optionIndices[i] */\n      dup2\n      dup2\n      lt\n      tag_254\n      jumpi\n      tag_254\n      tag_109\n      jump\t// in\n    tag_254:\n      swap1\n      pop\n      0x20\n      mul\n      add\n      calldataload\n        /* \"Polls.sol\":6298:6336  _optionIndices[i] == _optionIndices[j] */\n      sub\n        /* \"Polls.sol\":6294:6413  if (_optionIndices[i] == _optionIndices[j]) {... */\n      tag_255\n      jumpi\n        /* \"Polls.sol\":6368:6393  DuplicateOptionSelected() */\n      mload(0x40)\n      shl(0xe1, 0x0fe3ee13)\n      dup2\n      mstore\n      0x04\n      add\n      mload(0x40)\n      dup1\n      swap2\n      sub\n      swap1\n      revert\n        /* \"Polls.sol\":6294:6413  if (_optionIndices[i] == _optionIndices[j]) {... */\n    tag_255:\n        /* \"Polls.sol\":6270:6273  j++ */\n      0x01\n      add\n        /* \"Polls.sol\":6243:6428  for (uint256 j = 0; j < i; j++) {... */\n      jump(tag_248)\n    tag_249:\n      pop\n        /* \"Polls.sol\":6442:6462  optionVotes[_pollId] */\n      0x00\n      dup8\n      dup2\n      mstore\n        /* \"Polls.sol\":6442:6453  optionVotes */\n      0x04\n        /* \"Polls.sol\":6442:6462  optionVotes[_pollId] */\n      0x20\n      swap1\n      dup2\n      mstore\n      0x40\n      dup1\n      dup4\n      keccak256\n        /* \"Polls.sol\":6442:6470  optionVotes[_pollId][optInx] */\n      dup5\n      dup5\n      mstore\n      swap1\n      swap2\n      mstore\n      dup2\n      keccak256\n        /* \"Polls.sol\":6442:6472  optionVotes[_pollId][optInx]++ */\n      dup1\n      sload\n      swap2\n      tag_256\n      dup4\n      tag_257\n      jump\t// in\n    tag_256:\n      swap1\n      swap2\n      sstore\n      pop\n      pop\n      pop\n        /* \"Polls.sol\":6098:6101  i++ */\n      0x01\n      add\n        /* \"Polls.sol\":6062:6484  for (uint256 i = 0; i < numChoices; i++) {... */\n      jump(tag_242)\n    tag_243:\n      pop\n        /* \"Polls.sol\":6496:6510  poll.pollVotes */\n      0x07\n      dup3\n      add\n        /* \"Polls.sol\":6496:6512  poll.pollVotes++ */\n      dup1\n      sload\n      swap1\n        /* \"Polls.sol\":6496:6510  poll.pollVotes */\n      0x00\n        /* \"Polls.sol\":6496:6512  poll.pollVotes++ */\n      tag_258\n      dup4\n      tag_257\n      jump\t// in\n    tag_258:\n      swap1\n      swap2\n      sstore\n      pop\n      pop\n        /* \"Polls.sol\":6523:6540  hasVoted[_pollId] */\n      0x00\n      dup6\n      dup2\n      mstore\n        /* \"Polls.sol\":6523:6531  hasVoted */\n      0x02\n        /* \"Polls.sol\":6523:6540  hasVoted[_pollId] */\n      0x20\n      swap1\n      dup2\n      mstore\n      0x40\n      dup1\n      dup4\n      keccak256\n        /* \"Polls.sol\":6541:6551  msg.sender */\n      caller\n        /* \"Polls.sol\":6523:6552  hasVoted[_pollId][msg.sender] */\n      dup1\n      dup6\n      mstore\n      swap1\n      dup4\n      mstore\n      dup2\n      dup5\n      keccak256\n        /* \"Polls.sol\":6523:6559  hasVoted[_pollId][msg.sender] = true */\n      dup1\n      sload\n      not(0xff)\n      and\n        /* \"Polls.sol\":6555:6559  true */\n      0x01\n        /* \"Polls.sol\":6523:6559  hasVoted[_pollId][msg.sender] = true */\n      swap1\n      dup2\n      or\n      swap1\n      swap2\n      sstore\n        /* \"Polls.sol\":6570:6591  UserPolls[msg.sender] */\n      dup1\n      dup5\n      mstore\n      dup3\n      dup6\n      keccak256\n        /* \"Polls.sol\":6570:6605  UserPolls[msg.sender].push(_pollId) */\n      dup1\n      sload\n      swap2\n      dup3\n      add\n      dup2\n      sstore\n      dup6\n      mstore\n      dup4\n      dup6\n      keccak256\n      add\n      dup10\n      swap1\n      sstore\n        /* \"Polls.sol\":6650:6671  votedIndices[_pollId] */\n      dup9\n      dup5\n      mstore\n        /* \"Polls.sol\":6650:6662  votedIndices */\n      0x05\n        /* \"Polls.sol\":6650:6671  votedIndices[_pollId] */\n      dup4\n      mstore\n      dup2\n      dup5\n      keccak256\n        /* \"Polls.sol\":6650:6683  votedIndices[_pollId][msg.sender] */\n      swap1\n      dup5\n      mstore\n      swap1\n      swap2\n      mstore\n      swap1\n      keccak256\n        /* \"Polls.sol\":6650:6700  votedIndices[_pollId][msg.sender] = _optionIndices */\n      tag_260\n      swap1\n        /* \"Polls.sol\":6686:6700  _optionIndices */\n      dup6\n      dup6\n        /* \"Polls.sol\":6650:6700  votedIndices[_pollId][msg.sender] = _optionIndices */\n      tag_261\n      jump\t// in\n    tag_260:\n      pop\n        /* \"Polls.sol\":6778:6788  msg.sender */\n      caller\n      sub(shl(0xa0, 0x01), 0x01)\n        /* \"Polls.sol\":6772:6814  Voted(msg.sender, _pollId, _optionIndices) */\n      and\n      0x871b62f932d6ef8afa59aed962334ae3a32efd388f7ec8932a67b7e47ae7795a\n        /* \"Polls.sol\":6790:6797  _pollId */\n      dup7\n        /* \"Polls.sol\":6799:6813  _optionIndices */\n      dup7\n      dup7\n        /* \"Polls.sol\":6772:6814  Voted(msg.sender, _pollId, _optionIndices) */\n      mload(0x40)\n      tag_262\n      swap4\n      swap3\n      swap2\n      swap1\n      tag_263\n      jump\t// in\n    tag_262:\n      mload(0x40)\n      dup1\n      swap2\n      sub\n      swap1\n      log2\n        /* \"Polls.sol\":5631:6822  {... */\n      pop\n      pop\n        /* \"Polls.sol\":5527:6822  function caseVote(... */\n      pop\n      pop\n      pop\n      jump\t// out\n        /* \"Polls.sol\":3966:4787  function getPollSummaries() public view returns (PollSummary[] memory) {... */\n    tag_45:\n        /* \"Polls.sol\":4082:4092  msg.sender */\n      caller\n        /* \"Polls.sol\":4048:4069  uint256[] storage ids */\n      0x00\n        /* \"Polls.sol\":4072:4093  UserPolls[msg.sender] */\n      swap1\n      dup2\n      mstore\n        /* \"Polls.sol\":4072:4081  UserPolls */\n      0x01\n        /* \"Polls.sol\":4072:4093  UserPolls[msg.sender] */\n      0x20\n      mstore\n      0x40\n      dup2\n      keccak256\n        /* \"Polls.sol\":4120:4130  ids.length */\n      dup1\n      sload\n        /* \"Polls.sol\":4015:4035  PollSummary[] memory */\n      0x60\n      swap3\n        /* \"Polls.sol\":4120:4130  ids.length */\n      dup2\n        /* \"Polls.sol\":4176:4200  new PollSummary[](count) */\n      0xffffffffffffffff\n      dup2\n      gt\n      iszero\n      tag_266\n      jumpi\n      tag_266\n      tag_267\n      jump\t// in\n    tag_266:\n      mload(0x40)\n      swap1\n      dup1\n      dup3\n      mstore\n      dup1\n      0x20\n      mul\n      0x20\n      add\n      dup3\n      add\n      0x40\n      mstore\n      dup1\n      iszero\n      tag_268\n      jumpi\n      dup2\n      0x20\n      add\n    tag_269:\n      tag_270\n      tag_271\n      jump\t// in\n    tag_270:\n      dup2\n      mstore\n      0x20\n      add\n      swap1\n      0x01\n      swap1\n      sub\n      swap1\n      dup2\n      tag_269\n      jumpi\n      swap1\n      pop\n    tag_268:\n      pop\n        /* \"Polls.sol\":4143:4200  PollSummary[] memory summaries = new PollSummary[](count) */\n      swap1\n      pop\n        /* \"Polls.sol\":4218:4227  uint256 i */\n      0x00\n        /* \"Polls.sol\":4213:4751  for (uint256 i = 0; i < count; i++) {... */\n    tag_272:\n        /* \"Polls.sol\":4237:4242  count */\n      dup3\n        /* \"Polls.sol\":4233:4234  i */\n      dup2\n        /* \"Polls.sol\":4233:4242  i < count */\n      lt\n        /* \"Polls.sol\":4213:4751  for (uint256 i = 0; i < count; i++) {... */\n      iszero\n      tag_273\n      jumpi\n        /* \"Polls.sol\":4264:4274  uint256 id */\n      0x00\n        /* \"Polls.sol\":4277:4280  ids */\n      dup5\n        /* \"Polls.sol\":4281:4282  i */\n      dup3\n        /* \"Polls.sol\":4277:4283  ids[i] */\n      dup2\n      sload\n      dup2\n      lt\n      tag_276\n      jumpi\n      tag_276\n      tag_109\n      jump\t// in\n    tag_276:\n      swap1\n      0x00\n      mstore\n      keccak256(0x00, 0x20)\n      add\n      sload\n        /* \"Polls.sol\":4264:4283  uint256 id = ids[i] */\n      swap1\n      pop\n        /* \"Polls.sol\":4298:4315  Poll storage poll */\n      0x00\n        /* \"Polls.sol\":4318:4323  polls */\n      dup1\n        /* \"Polls.sol\":4324:4326  id */\n      dup3\n        /* \"Polls.sol\":4318:4327  polls[id] */\n      dup2\n      sload\n      dup2\n      lt\n      tag_279\n      jumpi\n      tag_279\n      tag_109\n      jump\t// in\n    tag_279:\n      0x00\n      swap2\n      dup3\n      mstore\n      0x20\n      swap1\n      swap2\n      keccak256\n      0x0b\n      swap1\n      swap2\n      mul\n      add\n        /* \"Polls.sol\":4346:4360  poll.isDeleted */\n      0x0a\n      dup2\n      add\n      sload\n        /* \"Polls.sol\":4318:4327  polls[id] */\n      swap1\n      swap2\n      pop\n        /* \"Polls.sol\":4346:4360  poll.isDeleted */\n      0xff\n      and\n        /* \"Polls.sol\":4342:4370  if (poll.isDeleted) continue */\n      iszero\n      tag_281\n      jumpi\n        /* \"Polls.sol\":4362:4370  continue */\n      pop\n      pop\n      jump(tag_274)\n        /* \"Polls.sol\":4342:4370  if (poll.isDeleted) continue */\n    tag_281:\n        /* \"Polls.sol\":4400:4739  PollSummary({... */\n      0x40\n      dup1\n      mload\n      0x0100\n      dup2\n      add\n      dup3\n      mstore\n        /* \"Polls.sol\":4440:4452  poll.creator */\n      dup3\n      sload\n      sub(shl(0xa0, 0x01), 0x01)\n      and\n        /* \"Polls.sol\":4400:4739  PollSummary({... */\n      dup2\n      mstore\n      0x20\n      dup2\n      add\n      dup5\n      swap1\n      mstore\n        /* \"Polls.sol\":4503:4513  poll.title */\n      0x02\n      dup4\n      add\n        /* \"Polls.sol\":4400:4739  PollSummary({... */\n      dup1\n      sload\n      swap2\n      swap3\n      dup4\n      add\n      swap2\n      tag_282\n      swap1\n      tag_59\n      jump\t// in\n    tag_282:\n      dup1\n      0x1f\n      add\n      0x20\n      dup1\n      swap2\n      div\n      mul\n      0x20\n      add\n      mload(0x40)\n      swap1\n      dup2\n      add\n      0x40\n      mstore\n      dup1\n      swap3\n      swap2\n      swap1\n      dup2\n      dup2\n      mstore\n      0x20\n      add\n      dup3\n      dup1\n      sload\n      tag_283\n      swap1\n      tag_59\n      jump\t// in\n    tag_283:\n      dup1\n      iszero\n      tag_284\n      jumpi\n      dup1\n      0x1f\n      lt\n      tag_285\n      jumpi\n      0x0100\n      dup1\n      dup4\n      sload\n      div\n      mul\n      dup4\n      mstore\n      swap2\n      0x20\n      add\n      swap2\n      jump(tag_284)\n    tag_285:\n      dup3\n      add\n      swap2\n      swap1\n      0x00\n      mstore\n      keccak256(0x00, 0x20)\n      swap1\n    tag_286:\n      dup2\n      sload\n      dup2\n      mstore\n      swap1\n      0x01\n      add\n      swap1\n      0x20\n      add\n      dup1\n      dup4\n      gt\n      tag_286\n      jumpi\n      dup3\n      swap1\n      sub\n      0x1f\n      and\n      dup3\n      add\n      swap2\n    tag_284:\n      pop\n      pop\n      pop\n      pop\n      pop\n      dup2\n      mstore\n      0x20\n      add\n        /* \"Polls.sol\":4543:4547  poll */\n      dup3\n        /* \"Polls.sol\":4543:4557  poll.pollVotes */\n      0x07\n      add\n      sload\n        /* \"Polls.sol\":4400:4739  PollSummary({... */\n      dup2\n      mstore\n      0x20\n      add\n        /* \"Polls.sol\":4584:4599  getStatus(poll) */\n      tag_287\n        /* \"Polls.sol\":4594:4598  poll */\n      dup4\n        /* \"Polls.sol\":4584:4599  getStatus(poll) */\n      mload(0x40)\n      dup1\n      0x0160\n      add\n      0x40\n      mstore\n      swap1\n      dup2\n      0x00\n      dup3\n      add\n      0x00\n      swap1\n      sload\n      swap1\n      0x0100\n      exp\n      swap1\n      div\n      sub(shl(0xa0, 0x01), 0x01)\n      and\n      sub(shl(0xa0, 0x01), 0x01)\n      and\n      sub(shl(0xa0, 0x01), 0x01)\n      and\n      dup2\n      mstore\n      0x20\n      add\n      0x01\n      dup3\n      add\n      sload\n      dup2\n      mstore\n      0x20\n      add\n      0x02\n      dup3\n      add\n      dup1\n      sload\n      tag_288\n      swap1\n      tag_59\n      jump\t// in\n    tag_288:\n      dup1\n      0x1f\n      add\n      0x20\n      dup1\n      swap2\n      div\n      mul\n      0x20\n      add\n      mload(0x40)\n      swap1\n      dup2\n      add\n      0x40\n      mstore\n      dup1\n      swap3\n      swap2\n      swap1\n      dup2\n      dup2\n      mstore\n      0x20\n      add\n      dup3\n      dup1\n      sload\n      tag_289\n      swap1\n      tag_59\n      jump\t// in\n    tag_289:\n      dup1\n      iszero\n      tag_290\n      jumpi\n      dup1\n      0x1f\n      lt\n      tag_291\n      jumpi\n      0x0100\n      dup1\n      dup4\n      sload\n      div\n      mul\n      dup4\n      mstore\n      swap2\n      0x20\n      add\n      swap2\n      jump(tag_290)\n    tag_291:\n      dup3\n      add\n      swap2\n      swap1\n      0x00\n      mstore\n      keccak256(0x00, 0x20)\n      swap1\n    tag_292:\n      dup2\n      sload\n      dup2\n      mstore\n      swap1\n      0x01\n      add\n      swap1\n      0x20\n      add\n      dup1\n      dup4\n      gt\n      tag_292\n      jumpi\n      dup3\n      swap1\n      sub\n      0x1f\n      and\n      dup3\n      add\n      swap2\n    tag_290:\n      pop\n      pop\n      pop\n      pop\n      pop\n      dup2\n      mstore\n      0x20\n      add\n      0x03\n      dup3\n      add\n      dup1\n      sload\n      tag_293\n      swap1\n      tag_59\n      jump\t// in\n    tag_293:\n      dup1\n      0x1f\n      add\n      0x20\n      dup1\n      swap2\n      div\n      mul\n      0x20\n      add\n      mload(0x40)\n      swap1\n      dup2\n      add\n      0x40\n      mstore\n      dup1\n      swap3\n      swap2\n      swap1\n      dup2\n      dup2\n      mstore\n      0x20\n      add\n      dup3\n      dup1\n      sload\n      tag_294\n      swap1\n      tag_59\n      jump\t// in\n    tag_294:\n      dup1\n      iszero\n      tag_295\n      jumpi\n      dup1\n      0x1f\n      lt\n      tag_296\n      jumpi\n      0x0100\n      dup1\n      dup4\n      sload\n      div\n      mul\n      dup4\n      mstore\n      swap2\n      0x20\n      add\n      swap2\n      jump(tag_295)\n    tag_296:\n      dup3\n      add\n      swap2\n      swap1\n      0x00\n      mstore\n      keccak256(0x00, 0x20)\n      swap1\n    tag_297:\n      dup2\n      sload\n      dup2\n      mstore\n      swap1\n      0x01\n      add\n      swap1\n      0x20\n      add\n      dup1\n      dup4\n      gt\n      tag_297\n      jumpi\n      dup3\n      swap1\n      sub\n      0x1f\n      and\n      dup3\n      add\n      swap2\n    tag_295:\n      pop\n      pop\n      pop\n      pop\n      pop\n      dup2\n      mstore\n      0x20\n      add\n      0x04\n      dup3\n      add\n      sload\n      dup2\n      mstore\n      0x20\n      add\n      0x05\n      dup3\n      add\n      sload\n      dup2\n      mstore\n      0x20\n      add\n      0x06\n      dup3\n      add\n      dup1\n      sload\n      dup1\n      0x20\n      mul\n      0x20\n      add\n      mload(0x40)\n      swap1\n      dup2\n      add\n      0x40\n      mstore\n      dup1\n      swap3\n      swap2\n      swap1\n      dup2\n      dup2\n      mstore\n      0x20\n      add\n      0x00\n      swap1\n    tag_298:\n      dup3\n      dup3\n      lt\n      iszero\n      tag_70\n      jumpi\n      dup4\n      dup3\n      swap1\n      0x00\n      mstore\n      keccak256(0x00, 0x20)\n      add\n      dup1\n      sload\n      tag_301\n      swap1\n      tag_59\n      jump\t// in\n    tag_301:\n      dup1\n      0x1f\n      add\n      0x20\n      dup1\n      swap2\n      div\n      mul\n      0x20\n      add\n      mload(0x40)\n      swap1\n      dup2\n      add\n      0x40\n      mstore\n      dup1\n      swap3\n      swap2\n      swap1\n      dup2\n      dup2\n      mstore\n      0x20\n      add\n      dup3\n      dup1\n      sload\n      tag_302\n      swap1\n      tag_59\n      jump\t// in\n    tag_302:\n      dup1\n      iszero\n      tag_303\n      jumpi\n      dup1\n      0x1f\n      lt\n      tag_304\n      jumpi\n      0x0100\n      dup1\n      dup4\n      sload\n      div\n      mul\n      dup4\n      mstore\n      swap2\n      0x20\n      add\n      swap2\n      jump(tag_303)\n    tag_304:\n      dup3\n      add\n      swap2\n      swap1\n      0x00\n      mstore\n      keccak256(0x00, 0x20)\n      swap1\n    tag_305:\n      dup2\n      sload\n      dup2\n      mstore\n      swap1\n      0x01\n      add\n      swap1\n      0x20\n      add\n      dup1\n      dup4\n      gt\n      tag_305\n      jumpi\n      dup3\n      swap1\n      sub\n      0x1f\n      and\n      dup3\n      add\n      swap2\n    tag_303:\n      pop\n      pop\n      pop\n      pop\n      pop\n      dup2\n      mstore\n      0x20\n      add\n      swap1\n      0x01\n      add\n      swap1\n      jump(tag_298)\n    tag_287:\n        /* \"Polls.sol\":4400:4739  PollSummary({... */\n      0x03\n      dup2\n      gt\n      iszero\n      tag_311\n      jumpi\n      tag_311\n      tag_56\n      jump\t// in\n    tag_311:\n      dup2\n      mstore\n      0x20\n      add\n        /* \"Polls.sol\":4628:4632  poll */\n      dup3\n        /* \"Polls.sol\":4628:4641  poll.startsAt */\n      0x04\n      add\n      sload\n        /* \"Polls.sol\":4400:4739  PollSummary({... */\n      dup2\n      mstore\n      0x20\n      add\n        /* \"Polls.sol\":4668:4672  poll */\n      dup3\n        /* \"Polls.sol\":4668:4679  poll.endsAt */\n      0x05\n      add\n      sload\n        /* \"Polls.sol\":4400:4739  PollSummary({... */\n      dup2\n      mstore\n      0x20\n      add\n        /* \"Polls.sol\":4709:4713  poll */\n      dup3\n        /* \"Polls.sol\":4709:4723  poll.createdAt */\n      0x09\n      add\n      sload\n        /* \"Polls.sol\":4400:4739  PollSummary({... */\n      dup2\n      mstore\n      pop\n        /* \"Polls.sol\":4385:4394  summaries */\n      dup5\n        /* \"Polls.sol\":4395:4396  i */\n      dup5\n        /* \"Polls.sol\":4385:4397  summaries[i] */\n      dup2\n      mload\n      dup2\n      lt\n      tag_313\n      jumpi\n      tag_313\n      tag_109\n      jump\t// in\n    tag_313:\n      0x20\n      mul\n      0x20\n      add\n      add\n        /* \"Polls.sol\":4385:4739  summaries[i] = PollSummary({... */\n      dup2\n      swap1\n      mstore\n      pop\n        /* \"Polls.sol\":4249:4751  {... */\n      pop\n      pop\n        /* \"Polls.sol\":4213:4751  for (uint256 i = 0; i < count; i++) {... */\n    tag_274:\n        /* \"Polls.sol\":4244:4247  i++ */\n      0x01\n      add\n        /* \"Polls.sol\":4213:4751  for (uint256 i = 0; i < count; i++) {... */\n      jump(tag_272)\n    tag_273:\n      pop\n        /* \"Polls.sol\":4770:4779  summaries */\n      swap4\n        /* \"Polls.sol\":3966:4787  function getPollSummaries() public view returns (PollSummary[] memory) {... */\n      swap3\n      pop\n      pop\n      pop\n      jump\t// out\n        /* \"Polls.sol\":7903:8176  function getPoll(uint256 _pollId) internal view returns (Poll storage) {... */\n    tag_52:\n        /* \"Polls.sol\":7960:7972  Poll storage */\n      0x00\n        /* \"Polls.sol\":8000:8012  polls.length */\n      dup1\n      sload\n        /* \"Polls.sol\":7989:8012  _pollId >= polls.length */\n      dup3\n      lt\n        /* \"Polls.sol\":7985:8042  if (_pollId >= polls.length) revert PollNotFound(_pollId) */\n      tag_315\n      jumpi\n        /* \"Polls.sol\":8021:8042  PollNotFound(_pollId) */\n      mload(0x40)\n      shl(0xe2, 0x02708a4d)\n      dup2\n      mstore\n      0x04\n      dup2\n      add\n        /* \"#utility.yul\":542:567   */\n      dup4\n      swap1\n      mstore\n        /* \"#utility.yul\":515:533   */\n      0x24\n      add\n        /* \"Polls.sol\":8021:8042  PollNotFound(_pollId) */\n    tag_316:\n      mload(0x40)\n      dup1\n      swap2\n      sub\n      swap1\n      revert\n        /* \"Polls.sol\":7985:8042  if (_pollId >= polls.length) revert PollNotFound(_pollId) */\n    tag_315:\n        /* \"Polls.sol\":8053:8070  Poll storage poll */\n      0x00\n        /* \"Polls.sol\":8073:8078  polls */\n      dup1\n        /* \"Polls.sol\":8079:8086  _pollId */\n      dup4\n        /* \"Polls.sol\":8073:8087  polls[_pollId] */\n      dup2\n      sload\n      dup2\n      lt\n      tag_318\n      jumpi\n      tag_318\n      tag_109\n      jump\t// in\n    tag_318:\n      0x00\n      swap2\n      dup3\n      mstore\n      0x20\n      swap1\n      swap2\n      keccak256\n      0x0b\n      swap1\n      swap2\n      mul\n      add\n        /* \"Polls.sol\":8102:8116  poll.isDeleted */\n      0x0a\n      dup2\n      add\n      sload\n        /* \"Polls.sol\":8073:8087  polls[_pollId] */\n      swap1\n      swap2\n      pop\n        /* \"Polls.sol\":8102:8116  poll.isDeleted */\n      0xff\n      and\n        /* \"Polls.sol\":8098:8146  if (poll.isDeleted) revert PollNotFound(_pollId) */\n      iszero\n      tag_320\n      jumpi\n        /* \"Polls.sol\":8125:8146  PollNotFound(_pollId) */\n      mload(0x40)\n      shl(0xe2, 0x02708a4d)\n      dup2\n      mstore\n      0x04\n      dup2\n      add\n        /* \"#utility.yul\":542:567   */\n      dup5\n      swap1\n      mstore\n        /* \"#utility.yul\":515:533   */\n      0x24\n      add\n        /* \"Polls.sol\":8125:8146  PollNotFound(_pollId) */\n      tag_316\n        /* \"#utility.yul\":396:573   */\n      jump\n        /* \"Polls.sol\":8098:8146  if (poll.isDeleted) revert PollNotFound(_pollId) */\n    tag_320:\n        /* \"Polls.sol\":8164:8168  poll */\n      swap3\n        /* \"Polls.sol\":7903:8176  function getPoll(uint256 _pollId) internal view returns (Poll storage) {... */\n      swap2\n      pop\n      pop\n      jump\t// out\n        /* \"Polls.sol\":8184:8606  function getStatus(Poll memory _poll) internal view returns (PollStatus) {... */\n    tag_81:\n        /* \"Polls.sol\":8245:8255  PollStatus */\n      0x00\n        /* \"Polls.sol\":8289:8304  block.timestamp */\n      timestamp\n        /* \"Polls.sol\":8272:8277  _poll */\n      dup3\n        /* \"Polls.sol\":8272:8286  _poll.startsAt */\n      0x80\n      add\n      mload\n        /* \"Polls.sol\":8272:8304  _poll.startsAt > block.timestamp */\n      gt\n        /* \"Polls.sol\":8268:8359  if (_poll.startsAt > block.timestamp) {... */\n      iszero\n      tag_323\n      jumpi\n      pop\n        /* \"Polls.sol\":8328:8347  PollStatus.Upcoming */\n      0x00\n      swap2\n        /* \"Polls.sol\":8184:8606  function getStatus(Poll memory _poll) internal view returns (PollStatus) {... */\n      swap1\n      pop\n      jump\t// out\n        /* \"Polls.sol\":8268:8359  if (_poll.startsAt > block.timestamp) {... */\n    tag_323:\n        /* \"Polls.sol\":8375:8380  _poll */\n      dup2\n        /* \"Polls.sol\":8375:8387  _poll.endsAt */\n      0xa0\n      add\n      mload\n        /* \"Polls.sol\":8391:8392  1 */\n      0x01\n        /* \"Polls.sol\":8375:8392  _poll.endsAt == 1 */\n      sub\n        /* \"Polls.sol\":8371:8445  if (_poll.endsAt == 1) {... */\n      tag_324\n      jumpi\n      pop\n        /* \"Polls.sol\":8416:8433  PollStatus.Closed */\n      0x03\n      swap2\n        /* \"Polls.sol\":8184:8606  function getStatus(Poll memory _poll) internal view returns (PollStatus) {... */\n      swap1\n      pop\n      jump\t// out\n        /* \"Polls.sol\":8371:8445  if (_poll.endsAt == 1) {... */\n    tag_324:\n        /* \"Polls.sol\":8476:8477  1 */\n      0x01\n        /* \"Polls.sol\":8461:8466  _poll */\n      dup3\n        /* \"Polls.sol\":8461:8473  _poll.endsAt */\n      0xa0\n      add\n      mload\n        /* \"Polls.sol\":8461:8477  _poll.endsAt > 1 */\n      gt\n        /* \"Polls.sol\":8461:8512  _poll.endsAt > 1 && _poll.endsAt <= block.timestamp */\n      dup1\n      iszero\n      tag_325\n      jumpi\n      pop\n        /* \"Polls.sol\":8497:8512  block.timestamp */\n      timestamp\n        /* \"Polls.sol\":8481:8486  _poll */\n      dup3\n        /* \"Polls.sol\":8481:8493  _poll.endsAt */\n      0xa0\n      add\n      mload\n        /* \"Polls.sol\":8481:8512  _poll.endsAt <= block.timestamp */\n      gt\n      iszero\n        /* \"Polls.sol\":8461:8512  _poll.endsAt > 1 && _poll.endsAt <= block.timestamp */\n    tag_325:\n        /* \"Polls.sol\":8457:8564  if (_poll.endsAt > 1 && _poll.endsAt <= block.timestamp) {... */\n      iszero\n      tag_326\n      jumpi\n      pop\n        /* \"Polls.sol\":8536:8552  PollStatus.Ended */\n      0x02\n      swap2\n        /* \"Polls.sol\":8184:8606  function getStatus(Poll memory _poll) internal view returns (PollStatus) {... */\n      swap1\n      pop\n      jump\t// out\n        /* \"Polls.sol\":8457:8564  if (_poll.endsAt > 1 && _poll.endsAt <= block.timestamp) {... */\n    tag_326:\n      pop\n        /* \"Polls.sol\":8583:8598  PollStatus.Open */\n      0x01\n      swap2\n        /* \"Polls.sol\":8184:8606  function getStatus(Poll memory _poll) internal view returns (PollStatus) {... */\n      swap1\n      pop\n      jump\t// out\n        /* \"Polls.sol\":8614:8831  function validateTitle(string calldata _title) internal pure {... */\n    tag_87:\n        /* \"Polls.sol\":8709:8715  _title */\n      dup1\n        /* \"Polls.sol\":8747:8748  3 */\n      0x03\n        /* \"Polls.sol\":8738:8748  length < 3 */\n      dup2\n      lt\n        /* \"Polls.sol\":8734:8772  if (length < 3) revert TitleTooShort() */\n      iszero\n      tag_328\n      jumpi\n        /* \"Polls.sol\":8757:8772  TitleTooShort() */\n      mload(0x40)\n      shl(0xe0, 0x24ace355)\n      dup2\n      mstore\n      0x04\n      add\n      mload(0x40)\n      dup1\n      swap2\n      sub\n      swap1\n      revert\n        /* \"Polls.sol\":8734:8772  if (length < 3) revert TitleTooShort() */\n    tag_328:\n        /* \"Polls.sol\":8796:8799  100 */\n      0x64\n        /* \"Polls.sol\":8787:8793  length */\n      dup2\n        /* \"Polls.sol\":8787:8799  length > 100 */\n      gt\n        /* \"Polls.sol\":8783:8823  if (length > 100) revert TitleTooLarge() */\n      iszero\n      tag_329\n      jumpi\n        /* \"Polls.sol\":8808:8823  TitleTooLarge() */\n      mload(0x40)\n      shl(0xe2, 0x2b5df40f)\n      dup2\n      mstore\n      0x04\n      add\n      mload(0x40)\n      dup1\n      swap2\n      sub\n      swap1\n      revert\n        /* \"Polls.sol\":8783:8823  if (length > 100) revert TitleTooLarge() */\n    tag_329:\n        /* \"Polls.sol\":8675:8831  {... */\n      pop\n        /* \"Polls.sol\":8614:8831  function validateTitle(string calldata _title) internal pure {... */\n      pop\n      pop\n      jump\t// out\n        /* \"Polls.sol\":8839:9081  function validateDesc(string calldata _desc) internal pure {... */\n    tag_89:\n        /* \"Polls.sol\":8932:8937  _desc */\n      dup1\n        /* \"Polls.sol\":8960:8970  length > 0 */\n      dup1\n      iszero\n      dup1\n      iszero\n      swap1\n        /* \"Polls.sol\":8960:8985  length > 0 && length < 10 */\n      tag_331\n      jumpi\n      pop\n        /* \"Polls.sol\":8983:8985  10 */\n      0x0a\n        /* \"Polls.sol\":8974:8980  length */\n      dup2\n        /* \"Polls.sol\":8974:8985  length < 10 */\n      lt\n        /* \"Polls.sol\":8960:8985  length > 0 && length < 10 */\n    tag_331:\n        /* \"Polls.sol\":8956:9015  if (length > 0 && length < 10) revert DescriptionTooShort() */\n      iszero\n      tag_332\n      jumpi\n        /* \"Polls.sol\":8994:9015  DescriptionTooShort() */\n      mload(0x40)\n      shl(0xe2, 0x1b0bf735)\n      dup2\n      mstore\n      0x04\n      add\n      mload(0x40)\n      dup1\n      swap2\n      sub\n      swap1\n      revert\n        /* \"Polls.sol\":8956:9015  if (length > 0 && length < 10) revert DescriptionTooShort() */\n    tag_332:\n        /* \"Polls.sol\":9039:9043  1000 */\n      0x03e8\n        /* \"Polls.sol\":9030:9036  length */\n      dup2\n        /* \"Polls.sol\":9030:9043  length > 1000 */\n      gt\n        /* \"Polls.sol\":9026:9073  if (length > 1000) revert DescriptionTooLarge() */\n      iszero\n      tag_329\n      jumpi\n        /* \"Polls.sol\":9052:9073  DescriptionTooLarge() */\n      mload(0x40)\n      shl(0xe0, 0x1b0fce83)\n      dup2\n      mstore\n      0x04\n      add\n      mload(0x40)\n      dup1\n      swap2\n      sub\n      swap1\n      revert\n        /* \"Polls.sol\":9089:9314  function validateTimes(uint256 _startsAt, uint256 _endsAt) internal view {... */\n    tag_91:\n        /* \"Polls.sol\":9189:9204  block.timestamp */\n      timestamp\n        /* \"Polls.sol\":9177:9186  _startsAt */\n      dup3\n        /* \"Polls.sol\":9177:9204  _startsAt < block.timestamp */\n      lt\n        /* \"Polls.sol\":9173:9239  if (_startsAt < block.timestamp) revert PollMustStartInTheFuture() */\n      iszero\n      tag_335\n      jumpi\n        /* \"Polls.sol\":9213:9239  PollMustStartInTheFuture() */\n      mload(0x40)\n      shl(0xe0, 0x3eb2d8c5)\n      dup2\n      mstore\n      0x04\n      add\n      mload(0x40)\n      dup1\n      swap2\n      sub\n      swap1\n      revert\n        /* \"Polls.sol\":9173:9239  if (_startsAt < block.timestamp) revert PollMustStartInTheFuture() */\n    tag_335:\n        /* \"Polls.sol\":9265:9274  _startsAt */\n      dup2\n        /* \"Polls.sol\":9254:9261  _endsAt */\n      dup2\n        /* \"Polls.sol\":9254:9274  _endsAt <= _startsAt */\n      gt\n        /* \"Polls.sol\":9250:9306  if (_endsAt <= _startsAt) revert PollMustEndAfterStart() */\n      tag_336\n      jumpi\n        /* \"Polls.sol\":9283:9306  PollMustEndAfterStart() */\n      mload(0x40)\n      shl(0xe1, 0x71f32861)\n      dup2\n      mstore\n      0x04\n      add\n      mload(0x40)\n      dup1\n      swap2\n      sub\n      swap1\n      revert\n        /* \"Polls.sol\":9250:9306  if (_endsAt <= _startsAt) revert PollMustEndAfterStart() */\n    tag_336:\n        /* \"Polls.sol\":9089:9314  function validateTimes(uint256 _startsAt, uint256 _endsAt) internal view {... */\n      pop\n      pop\n      jump\t// out\n        /* \"Polls.sol\":9322:9846  function validateOptions(string[] calldata _options) internal pure {... */\n    tag_93:\n        /* \"Polls.sol\":9424:9432  _options */\n      dup1\n        /* \"Polls.sol\":9470:9471  2 */\n      0x02\n        /* \"Polls.sol\":9454:9471  optionsLength < 2 */\n      dup2\n      lt\n        /* \"Polls.sol\":9450:9511  if (optionsLength < 2) revert PollMustHaveAtLeastTwoOptions() */\n      iszero\n      tag_338\n      jumpi\n        /* \"Polls.sol\":9480:9511  PollMustHaveAtLeastTwoOptions() */\n      mload(0x40)\n      shl(0xe0, 0x8ee5f57d)\n      dup2\n      mstore\n      0x04\n      add\n      mload(0x40)\n      dup1\n      swap2\n      sub\n      swap1\n      revert\n        /* \"Polls.sol\":9450:9511  if (optionsLength < 2) revert PollMustHaveAtLeastTwoOptions() */\n    tag_338:\n        /* \"Polls.sol\":9542:9544  10 */\n      0x0a\n        /* \"Polls.sol\":9526:9539  optionsLength */\n      dup2\n        /* \"Polls.sol\":9526:9544  optionsLength > 10 */\n      gt\n        /* \"Polls.sol\":9522:9583  if (optionsLength > 10) revert PollMustHaveAtMostTenOptions() */\n      iszero\n      tag_339\n      jumpi\n        /* \"Polls.sol\":9553:9583  PollMustHaveAtMostTenOptions() */\n      mload(0x40)\n      shl(0xe1, 0x701d39f1)\n      dup2\n      mstore\n      0x04\n      add\n      mload(0x40)\n      dup1\n      swap2\n      sub\n      swap1\n      revert\n        /* \"Polls.sol\":9522:9583  if (optionsLength > 10) revert PollMustHaveAtMostTenOptions() */\n    tag_339:\n        /* \"Polls.sol\":9601:9610  uint256 i */\n      0x00\n        /* \"Polls.sol\":9596:9839  for (uint256 i = 0; i < optionsLength; ++i) {... */\n    tag_340:\n        /* \"Polls.sol\":9620:9633  optionsLength */\n      dup2\n        /* \"Polls.sol\":9616:9617  i */\n      dup2\n        /* \"Polls.sol\":9616:9633  i < optionsLength */\n      lt\n        /* \"Polls.sol\":9596:9839  for (uint256 i = 0; i < optionsLength; ++i) {... */\n      iszero\n      tag_341\n      jumpi\n        /* \"Polls.sol\":9655:9675  uint256 optionLength */\n      0x00\n        /* \"Polls.sol\":9684:9692  _options */\n      dup5\n      dup5\n        /* \"Polls.sol\":9693:9694  i */\n      dup4\n        /* \"Polls.sol\":9684:9695  _options[i] */\n      dup2\n      dup2\n      lt\n      tag_344\n      jumpi\n      tag_344\n      tag_109\n      jump\t// in\n    tag_344:\n      swap1\n      pop\n      0x20\n      mul\n      dup2\n      add\n      swap1\n      tag_345\n      swap2\n      swap1\n      tag_111\n      jump\t// in\n    tag_345:\n        /* \"Polls.sol\":9678:9703  bytes(_options[i]).length */\n      swap2\n      pop\n      pop\n        /* \"Polls.sol\":9737:9738  1 */\n      0x01\n        /* \"Polls.sol\":9722:9738  optionLength < 1 */\n      dup2\n      lt\n        /* \"Polls.sol\":9718:9764  if (optionLength < 1) revert OptionTooShort(i) */\n      iszero\n      tag_346\n      jumpi\n        /* \"Polls.sol\":9747:9764  OptionTooShort(i) */\n      mload(0x40)\n      shl(0xe1, 0x23bae5c5)\n      dup2\n      mstore\n      0x04\n      dup2\n      add\n        /* \"#utility.yul\":542:567   */\n      dup4\n      swap1\n      mstore\n        /* \"#utility.yul\":515:533   */\n      0x24\n      add\n        /* \"Polls.sol\":9747:9764  OptionTooShort(i) */\n      tag_316\n        /* \"#utility.yul\":396:573   */\n      jump\n        /* \"Polls.sol\":9718:9764  if (optionLength < 1) revert OptionTooShort(i) */\n    tag_346:\n        /* \"Polls.sol\":9798:9801  100 */\n      0x64\n        /* \"Polls.sol\":9783:9795  optionLength */\n      dup2\n        /* \"Polls.sol\":9783:9801  optionLength > 100 */\n      gt\n        /* \"Polls.sol\":9779:9827  if (optionLength > 100) revert OptionTooLarge(i) */\n      iszero\n      tag_348\n      jumpi\n        /* \"Polls.sol\":9810:9827  OptionTooLarge(i) */\n      mload(0x40)\n      shl(0xe2, 0x1e8a1825)\n      dup2\n      mstore\n      0x04\n      dup2\n      add\n        /* \"#utility.yul\":542:567   */\n      dup4\n      swap1\n      mstore\n        /* \"#utility.yul\":515:533   */\n      0x24\n      add\n        /* \"Polls.sol\":9810:9827  OptionTooLarge(i) */\n      tag_316\n        /* \"#utility.yul\":396:573   */\n      jump\n        /* \"Polls.sol\":9779:9827  if (optionLength > 100) revert OptionTooLarge(i) */\n    tag_348:\n      pop\n        /* \"Polls.sol\":9635:9638  ++i */\n      0x01\n      add\n        /* \"Polls.sol\":9596:9839  for (uint256 i = 0; i < optionsLength; ++i) {... */\n      jump(tag_340)\n    tag_341:\n      pop\n        /* \"Polls.sol\":9389:9846  {... */\n      pop\n        /* \"Polls.sol\":9322:9846  function validateOptions(string[] calldata _options) internal pure {... */\n      pop\n      pop\n      jump\t// out\n        /* \"Polls.sol\":9854:10141  function validateSettings(PollSettings calldata _settings) internal pure {... */\n    tag_95:\n        /* \"Polls.sol\":9956:9976  _settings.noDeadline */\n      tag_351\n      0x40\n      dup3\n      add\n      0x20\n      dup4\n      add\n      tag_101\n      jump\t// in\n    tag_351:\n        /* \"Polls.sol\":9956:10052  _settings.noDeadline &&... */\n      dup1\n      iszero\n      tag_352\n      jumpi\n      pop\n        /* \"Polls.sol\":10023:10052  PollResultVisibility.AfterEnd */\n      0x02\n        /* \"Polls.sol\":9993:10019  _settings.resultVisibility */\n      tag_355\n      0x60\n      dup4\n      add\n      0x40\n      dup5\n      add\n      tag_356\n      jump\t// in\n    tag_355:\n        /* \"Polls.sol\":9993:10052  _settings.resultVisibility == PollResultVisibility.AfterEnd */\n      0x03\n      dup2\n      gt\n      iszero\n      tag_358\n      jumpi\n      tag_358\n      tag_56\n      jump\t// in\n    tag_358:\n      eq\n        /* \"Polls.sol\":9956:10052  _settings.noDeadline &&... */\n    tag_352:\n        /* \"Polls.sol\":9938:10134  if (... */\n      iszero\n      tag_359\n      jumpi\n        /* \"Polls.sol\":10086:10122  PollResultVisibilitySettingInvalid() */\n      mload(0x40)\n      shl(0xe0, 0xdc2ca701)\n      dup2\n      mstore\n      0x04\n      add\n      mload(0x40)\n      dup1\n      swap2\n      sub\n      swap1\n      revert\n        /* \"Polls.sol\":9938:10134  if (... */\n    tag_359:\n        /* \"Polls.sol\":9854:10141  function validateSettings(PollSettings calldata _settings) internal pure {... */\n      pop\n      jump\t// out\n        /* \"Polls.sol\":7438:7895  function getOptionsResult(... */\n    tag_185:\n        /* \"Polls.sol\":7570:7583  _poll.options */\n      0xc0\n      dup2\n      add\n      mload\n        /* \"Polls.sol\":7570:7590  _poll.options.length */\n      mload\n        /* \"Polls.sol\":7522:7543  OptionResult[] memory */\n      0x60\n      swap1\n        /* \"Polls.sol\":7556:7567  uint256 len */\n      0x00\n        /* \"Polls.sol\":7570:7590  _poll.options.length */\n      dup2\n        /* \"Polls.sol\":7633:7656  new OptionResult[](len) */\n      0xffffffffffffffff\n      dup2\n      gt\n      iszero\n      tag_362\n      jumpi\n      tag_362\n      tag_267\n      jump\t// in\n    tag_362:\n      mload(0x40)\n      swap1\n      dup1\n      dup3\n      mstore\n      dup1\n      0x20\n      mul\n      0x20\n      add\n      dup3\n      add\n      0x40\n      mstore\n      dup1\n      iszero\n      tag_363\n      jumpi\n      dup2\n      0x20\n      add\n    tag_364:\n      0x40\n      dup1\n      mload\n      dup1\n      dup3\n      add\n      swap1\n      swap2\n      mstore\n      0x60\n      dup2\n      mstore\n      0x00\n      0x20\n      dup3\n      add\n      mstore\n      dup2\n      mstore\n      0x20\n      add\n      swap1\n      0x01\n      swap1\n      sub\n      swap1\n      dup2\n      tag_364\n      jumpi\n      swap1\n      pop\n    tag_363:\n      pop\n        /* \"Polls.sol\":7601:7656  OptionResult[] memory results = new OptionResult[](len) */\n      swap1\n      pop\n        /* \"Polls.sol\":7674:7683  uint256 i */\n      0x00\n        /* \"Polls.sol\":7669:7863  for (uint256 i = 0; i < len; i++) {... */\n    tag_367:\n        /* \"Polls.sol\":7693:7696  len */\n      dup3\n        /* \"Polls.sol\":7689:7690  i */\n      dup2\n        /* \"Polls.sol\":7689:7696  i < len */\n      lt\n        /* \"Polls.sol\":7669:7863  for (uint256 i = 0; i < len; i++) {... */\n      iszero\n      tag_273\n      jumpi\n        /* \"Polls.sol\":7731:7851  OptionResult({... */\n      mload(0x40)\n      dup1\n      0x40\n      add\n      0x40\n      mstore\n      dup1\n        /* \"Polls.sol\":7769:7774  _poll */\n      dup7\n        /* \"Polls.sol\":7769:7782  _poll.options */\n      0xc0\n      add\n      mload\n        /* \"Polls.sol\":7783:7784  i */\n      dup4\n        /* \"Polls.sol\":7769:7785  _poll.options[i] */\n      dup2\n      mload\n      dup2\n      lt\n      tag_371\n      jumpi\n      tag_371\n      tag_109\n      jump\t// in\n    tag_371:\n      0x20\n      swap1\n      dup2\n      mul\n      swap2\n      swap1\n      swap2\n      add\n      dup2\n      add\n      mload\n        /* \"Polls.sol\":7731:7851  OptionResult({... */\n      dup3\n      mstore\n        /* \"Polls.sol\":7823:7831  _poll.id */\n      dup8\n      dup2\n      add\n      mload\n        /* \"Polls.sol\":7811:7832  optionVotes[_poll.id] */\n      0x00\n      swap1\n      dup2\n      mstore\n        /* \"Polls.sol\":7811:7822  optionVotes */\n      0x04\n        /* \"Polls.sol\":7811:7832  optionVotes[_poll.id] */\n      dup3\n      mstore\n      0x40\n      dup1\n      dup3\n      keccak256\n        /* \"Polls.sol\":7811:7835  optionVotes[_poll.id][i] */\n      dup7\n      dup4\n      mstore\n      dup4\n      mstore\n      swap1\n      keccak256\n      sload\n        /* \"Polls.sol\":7731:7851  OptionResult({... */\n      swap2\n      add\n      mstore\n        /* \"Polls.sol\":7718:7728  results[i] */\n      dup3\n      mload\n        /* \"Polls.sol\":7718:7725  results */\n      dup4\n      swap1\n        /* \"Polls.sol\":7833:7834  i */\n      dup4\n      swap1\n        /* \"Polls.sol\":7718:7728  results[i] */\n      dup2\n      lt\n      tag_373\n      jumpi\n      tag_373\n      tag_109\n      jump\t// in\n    tag_373:\n      0x20\n      swap1\n      dup2\n      mul\n      swap2\n      swap1\n      swap2\n      add\n      add\n        /* \"Polls.sol\":7718:7851  results[i] = OptionResult({... */\n      mstore\n        /* \"Polls.sol\":7698:7701  i++ */\n      0x01\n      add\n        /* \"Polls.sol\":7669:7863  for (uint256 i = 0; i < len; i++) {... */\n      jump(tag_367)\n    tag_149:\n      mload(0x40)\n      dup1\n      0x0160\n      add\n      0x40\n      mstore\n      dup1\n      and(sub(shl(0xa0, 0x01), 0x01), 0x00)\n      dup2\n      mstore\n      0x20\n      add\n      0x60\n      dup2\n      mstore\n      0x20\n      add\n      0x60\n      dup2\n      mstore\n      0x20\n      add\n      0x00\n      dup2\n      mstore\n      0x20\n      add\n      0x00\n      dup2\n      mstore\n      0x20\n      add\n      0x60\n      dup2\n      mstore\n      0x20\n      add\n      0x00\n      dup2\n      mstore\n      0x20\n      add\n      tag_374\n      0x40\n      dup1\n      mload\n      0x60\n      dup2\n      add\n      dup3\n      mstore\n      0x00\n      dup1\n      dup3\n      mstore\n      0x20\n      dup3\n      add\n      dup2\n      swap1\n      mstore\n      swap1\n      swap2\n      dup3\n      add\n      mstore\n      swap1\n      jump\n    tag_374:\n      dup2\n      mstore\n      0x20\n      add\n      iszero(iszero(0x00))\n      dup2\n      mstore\n      0x20\n      add\n      0x60\n      dup2\n      mstore\n      0x20\n      add\n      0x00\n      dup2\n      mstore\n      pop\n      swap1\n      jump\t// out\n    tag_261:\n      dup3\n      dup1\n      sload\n      dup3\n      dup3\n      sstore\n      swap1\n      0x00\n      mstore\n      keccak256(0x00, 0x20)\n      swap1\n      dup2\n      add\n      swap3\n      dup3\n      iszero\n      tag_378\n      jumpi\n      swap2\n      0x20\n      mul\n      dup3\n      add\n    tag_377:\n      dup3\n      dup2\n      gt\n      iszero\n      tag_378\n      jumpi\n      dup3\n      calldataload\n      dup3\n      sstore\n      swap2\n      0x20\n      add\n      swap2\n      swap1\n      0x01\n      add\n      swap1\n      jump(tag_377)\n    tag_378:\n      pop\n      tag_379\n      swap3\n      swap2\n      pop\n      tag_380\n      jump\t// in\n    tag_379:\n      pop\n      swap1\n      jump\t// out\n    tag_271:\n      mload(0x40)\n      dup1\n      0x0100\n      add\n      0x40\n      mstore\n      dup1\n      and(sub(shl(0xa0, 0x01), 0x01), 0x00)\n      dup2\n      mstore\n      0x20\n      add\n      0x00\n      dup2\n      mstore\n      0x20\n      add\n      0x60\n      dup2\n      mstore\n      0x20\n      add\n      0x00\n      dup2\n      mstore\n      0x20\n      add\n      0x00\n      0x03\n      dup2\n      gt\n      iszero\n      tag_382\n      jumpi\n      tag_382\n      tag_56\n      jump\t// in\n    tag_382:\n      dup2\n      mstore\n      0x20\n      add\n      0x00\n      dup2\n      mstore\n      0x20\n      add\n      0x00\n      dup2\n      mstore\n      0x20\n      add\n      0x00\n      dup2\n      mstore\n      pop\n      swap1\n      jump\t// out\n    tag_380:\n    tag_385:\n      dup1\n      dup3\n      gt\n      iszero\n      tag_379\n      jumpi\n      0x00\n      dup2\n      sstore\n      0x01\n      add\n      jump(tag_385)\n        /* \"#utility.yul\":14:391   */\n    tag_14:\n        /* \"#utility.yul\":82:88   */\n      0x00\n        /* \"#utility.yul\":90:96   */\n      dup1\n        /* \"#utility.yul\":143:145   */\n      0x40\n        /* \"#utility.yul\":131:140   */\n      dup4\n        /* \"#utility.yul\":122:129   */\n      dup6\n        /* \"#utility.yul\":118:141   */\n      sub\n        /* \"#utility.yul\":114:146   */\n      slt\n        /* \"#utility.yul\":111:163   */\n      iszero\n      tag_403\n      jumpi\n        /* \"#utility.yul\":159:160   */\n      0x00\n        /* \"#utility.yul\":156:157   */\n      dup1\n        /* \"#utility.yul\":149:161   */\n      revert\n        /* \"#utility.yul\":111:163   */\n    tag_403:\n        /* \"#utility.yul\":198:207   */\n      dup3\n        /* \"#utility.yul\":185:208   */\n      calldataload\n      sub(shl(0xa0, 0x01), 0x01)\n        /* \"#utility.yul\":241:246   */\n      dup2\n        /* \"#utility.yul\":237:291   */\n      and\n        /* \"#utility.yul\":230:235   */\n      dup2\n        /* \"#utility.yul\":227:292   */\n      eq\n        /* \"#utility.yul\":217:310   */\n      tag_404\n      jumpi\n        /* \"#utility.yul\":306:307   */\n      0x00\n        /* \"#utility.yul\":303:304   */\n      dup1\n        /* \"#utility.yul\":296:308   */\n      revert\n        /* \"#utility.yul\":217:310   */\n    tag_404:\n        /* \"#utility.yul\":329:334   */\n      swap5\n        /* \"#utility.yul\":381:383   */\n      0x20\n        /* \"#utility.yul\":366:384   */\n      swap4\n      swap1\n      swap4\n      add\n        /* \"#utility.yul\":353:385   */\n      calldataload\n      swap4\n      pop\n      pop\n      pop\n        /* \"#utility.yul\":14:391   */\n      jump\t// out\n        /* \"#utility.yul\":578:758   */\n    tag_20:\n        /* \"#utility.yul\":637:643   */\n      0x00\n        /* \"#utility.yul\":690:692   */\n      0x20\n        /* \"#utility.yul\":678:687   */\n      dup3\n        /* \"#utility.yul\":669:676   */\n      dup5\n        /* \"#utility.yul\":665:688   */\n      sub\n        /* \"#utility.yul\":661:693   */\n      slt\n        /* \"#utility.yul\":658:710   */\n      iszero\n      tag_407\n      jumpi\n        /* \"#utility.yul\":706:707   */\n      0x00\n        /* \"#utility.yul\":703:704   */\n      dup1\n        /* \"#utility.yul\":696:708   */\n      revert\n        /* \"#utility.yul\":658:710   */\n    tag_407:\n      pop\n        /* \"#utility.yul\":729:752   */\n      calldataload\n      swap2\n        /* \"#utility.yul\":578:758   */\n      swap1\n      pop\n      jump\t// out\n        /* \"#utility.yul\":763:1111   */\n    tag_387:\n        /* \"#utility.yul\":815:823   */\n      0x00\n        /* \"#utility.yul\":825:831   */\n      dup1\n        /* \"#utility.yul\":879:882   */\n      dup4\n        /* \"#utility.yul\":872:876   */\n      0x1f\n        /* \"#utility.yul\":864:870   */\n      dup5\n        /* \"#utility.yul\":860:877   */\n      add\n        /* \"#utility.yul\":856:883   */\n      slt\n        /* \"#utility.yul\":846:901   */\n      tag_409\n      jumpi\n        /* \"#utility.yul\":897:898   */\n      0x00\n        /* \"#utility.yul\":894:895   */\n      dup1\n        /* \"#utility.yul\":887:899   */\n      revert\n        /* \"#utility.yul\":846:901   */\n    tag_409:\n      pop\n        /* \"#utility.yul\":920:940   */\n      dup2\n      calldataload\n        /* \"#utility.yul\":963:981   */\n      0xffffffffffffffff\n        /* \"#utility.yul\":952:982   */\n      dup2\n      gt\n        /* \"#utility.yul\":949:999   */\n      iszero\n      tag_410\n      jumpi\n        /* \"#utility.yul\":995:996   */\n      0x00\n        /* \"#utility.yul\":992:993   */\n      dup1\n        /* \"#utility.yul\":985:997   */\n      revert\n        /* \"#utility.yul\":949:999   */\n    tag_410:\n        /* \"#utility.yul\":1032:1036   */\n      0x20\n        /* \"#utility.yul\":1024:1030   */\n      dup4\n        /* \"#utility.yul\":1020:1037   */\n      add\n        /* \"#utility.yul\":1008:1037   */\n      swap2\n      pop\n        /* \"#utility.yul\":1084:1087   */\n      dup4\n        /* \"#utility.yul\":1077:1081   */\n      0x20\n        /* \"#utility.yul\":1068:1074   */\n      dup3\n        /* \"#utility.yul\":1060:1066   */\n      dup6\n        /* \"#utility.yul\":1056:1075   */\n      add\n        /* \"#utility.yul\":1052:1082   */\n      add\n        /* \"#utility.yul\":1049:1088   */\n      gt\n        /* \"#utility.yul\":1046:1105   */\n      iszero\n      tag_411\n      jumpi\n        /* \"#utility.yul\":1101:1102   */\n      0x00\n        /* \"#utility.yul\":1098:1099   */\n      dup1\n        /* \"#utility.yul\":1091:1103   */\n      revert\n        /* \"#utility.yul\":1046:1105   */\n    tag_411:\n        /* \"#utility.yul\":763:1111   */\n      swap3\n      pop\n      swap3\n      swap1\n      pop\n      jump\t// out\n        /* \"#utility.yul\":1116:1491   */\n    tag_388:\n        /* \"#utility.yul\":1187:1195   */\n      0x00\n        /* \"#utility.yul\":1197:1203   */\n      dup1\n        /* \"#utility.yul\":1251:1254   */\n      dup4\n        /* \"#utility.yul\":1244:1248   */\n      0x1f\n        /* \"#utility.yul\":1236:1242   */\n      dup5\n        /* \"#utility.yul\":1232:1249   */\n      add\n        /* \"#utility.yul\":1228:1255   */\n      slt\n        /* \"#utility.yul\":1218:1273   */\n      tag_413\n      jumpi\n        /* \"#utility.yul\":1269:1270   */\n      0x00\n        /* \"#utility.yul\":1266:1267   */\n      dup1\n        /* \"#utility.yul\":1259:1271   */\n      revert\n        /* \"#utility.yul\":1218:1273   */\n    tag_413:\n      pop\n        /* \"#utility.yul\":1292:1312   */\n      dup2\n      calldataload\n        /* \"#utility.yul\":1335:1353   */\n      0xffffffffffffffff\n        /* \"#utility.yul\":1324:1354   */\n      dup2\n      gt\n        /* \"#utility.yul\":1321:1371   */\n      iszero\n      tag_414\n      jumpi\n        /* \"#utility.yul\":1367:1368   */\n      0x00\n        /* \"#utility.yul\":1364:1365   */\n      dup1\n        /* \"#utility.yul\":1357:1369   */\n      revert\n        /* \"#utility.yul\":1321:1371   */\n    tag_414:\n        /* \"#utility.yul\":1404:1408   */\n      0x20\n        /* \"#utility.yul\":1396:1402   */\n      dup4\n        /* \"#utility.yul\":1392:1409   */\n      add\n        /* \"#utility.yul\":1380:1409   */\n      swap2\n      pop\n        /* \"#utility.yul\":1464:1467   */\n      dup4\n        /* \"#utility.yul\":1457:1461   */\n      0x20\n        /* \"#utility.yul\":1447:1453   */\n      dup3\n        /* \"#utility.yul\":1444:1445   */\n      0x05\n        /* \"#utility.yul\":1440:1454   */\n      shl\n        /* \"#utility.yul\":1432:1438   */\n      dup6\n        /* \"#utility.yul\":1428:1455   */\n      add\n        /* \"#utility.yul\":1424:1462   */\n      add\n        /* \"#utility.yul\":1421:1468   */\n      gt\n        /* \"#utility.yul\":1418:1485   */\n      iszero\n      tag_411\n      jumpi\n        /* \"#utility.yul\":1481:1482   */\n      0x00\n        /* \"#utility.yul\":1478:1479   */\n      dup1\n        /* \"#utility.yul\":1471:1483   */\n      revert\n        /* \"#utility.yul\":1496:2851   */\n    tag_24:\n        /* \"#utility.yul\":1693:1699   */\n      0x00\n        /* \"#utility.yul\":1701:1707   */\n      dup1\n        /* \"#utility.yul\":1709:1715   */\n      0x00\n        /* \"#utility.yul\":1717:1723   */\n      dup1\n        /* \"#utility.yul\":1725:1731   */\n      0x00\n        /* \"#utility.yul\":1733:1739   */\n      dup1\n        /* \"#utility.yul\":1741:1747   */\n      0x00\n        /* \"#utility.yul\":1749:1755   */\n      dup1\n        /* \"#utility.yul\":1757:1763   */\n      0x00\n        /* \"#utility.yul\":1801:1810   */\n      dup10\n        /* \"#utility.yul\":1792:1799   */\n      dup12\n        /* \"#utility.yul\":1788:1811   */\n      sub\n        /* \"#utility.yul\":1831:1834   */\n      0x0100\n        /* \"#utility.yul\":1827:1829   */\n      dup2\n        /* \"#utility.yul\":1823:1835   */\n      slt\n        /* \"#utility.yul\":1820:1852   */\n      iszero\n      tag_417\n      jumpi\n        /* \"#utility.yul\":1848:1849   */\n      0x00\n        /* \"#utility.yul\":1845:1846   */\n      dup1\n        /* \"#utility.yul\":1838:1850   */\n      revert\n        /* \"#utility.yul\":1820:1852   */\n    tag_417:\n        /* \"#utility.yul\":1888:1897   */\n      dup11\n        /* \"#utility.yul\":1875:1898   */\n      calldataload\n        /* \"#utility.yul\":1917:1935   */\n      0xffffffffffffffff\n        /* \"#utility.yul\":1958:1960   */\n      dup1\n        /* \"#utility.yul\":1950:1956   */\n      dup3\n        /* \"#utility.yul\":1947:1961   */\n      gt\n        /* \"#utility.yul\":1944:1978   */\n      iszero\n      tag_418\n      jumpi\n        /* \"#utility.yul\":1974:1975   */\n      0x00\n        /* \"#utility.yul\":1971:1972   */\n      dup1\n        /* \"#utility.yul\":1964:1976   */\n      revert\n        /* \"#utility.yul\":1944:1978   */\n    tag_418:\n        /* \"#utility.yul\":2013:2072   */\n      tag_419\n        /* \"#utility.yul\":2064:2071   */\n      dup15\n        /* \"#utility.yul\":2055:2061   */\n      dup4\n        /* \"#utility.yul\":2044:2053   */\n      dup16\n        /* \"#utility.yul\":2040:2062   */\n      add\n        /* \"#utility.yul\":2013:2072   */\n      tag_387\n      jump\t// in\n    tag_419:\n        /* \"#utility.yul\":2091:2099   */\n      swap1\n      swap13\n      pop\n        /* \"#utility.yul\":1987:2072   */\n      swap11\n      pop\n        /* \"#utility.yul\":2179:2181   */\n      0x20\n        /* \"#utility.yul\":2164:2182   */\n      dup14\n      add\n        /* \"#utility.yul\":2151:2183   */\n      calldataload\n      swap2\n      pop\n        /* \"#utility.yul\":2195:2211   */\n      dup1\n      dup3\n      gt\n        /* \"#utility.yul\":2192:2228   */\n      iszero\n      tag_420\n      jumpi\n        /* \"#utility.yul\":2224:2225   */\n      0x00\n        /* \"#utility.yul\":2221:2222   */\n      dup1\n        /* \"#utility.yul\":2214:2226   */\n      revert\n        /* \"#utility.yul\":2192:2228   */\n    tag_420:\n        /* \"#utility.yul\":2263:2324   */\n      tag_421\n        /* \"#utility.yul\":2316:2323   */\n      dup15\n        /* \"#utility.yul\":2305:2313   */\n      dup4\n        /* \"#utility.yul\":2294:2303   */\n      dup16\n        /* \"#utility.yul\":2290:2314   */\n      add\n        /* \"#utility.yul\":2263:2324   */\n      tag_387\n      jump\t// in\n    tag_421:\n        /* \"#utility.yul\":2343:2351   */\n      swap1\n      swap11\n      pop\n        /* \"#utility.yul\":2237:2324   */\n      swap9\n      pop\n        /* \"#utility.yul\":2425:2427   */\n      0x40\n        /* \"#utility.yul\":2410:2428   */\n      dup14\n      add\n        /* \"#utility.yul\":2397:2429   */\n      calldataload\n      swap8\n      pop\n        /* \"#utility.yul\":2476:2478   */\n      0x60\n        /* \"#utility.yul\":2461:2479   */\n      dup14\n      add\n        /* \"#utility.yul\":2448:2480   */\n      calldataload\n      swap7\n      pop\n        /* \"#utility.yul\":2533:2536   */\n      0x80\n        /* \"#utility.yul\":2518:2537   */\n      dup14\n      add\n        /* \"#utility.yul\":2505:2538   */\n      calldataload\n      swap2\n      pop\n        /* \"#utility.yul\":2550:2566   */\n      dup1\n      dup3\n      gt\n        /* \"#utility.yul\":2547:2583   */\n      iszero\n      tag_422\n      jumpi\n        /* \"#utility.yul\":2579:2580   */\n      0x00\n        /* \"#utility.yul\":2576:2577   */\n      dup1\n        /* \"#utility.yul\":2569:2581   */\n      revert\n        /* \"#utility.yul\":2547:2583   */\n    tag_422:\n      pop\n        /* \"#utility.yul\":2618:2698   */\n      tag_423\n        /* \"#utility.yul\":2690:2697   */\n      dup14\n        /* \"#utility.yul\":2679:2687   */\n      dup3\n        /* \"#utility.yul\":2668:2677   */\n      dup15\n        /* \"#utility.yul\":2664:2688   */\n      add\n        /* \"#utility.yul\":2618:2698   */\n      tag_388\n      jump\t// in\n    tag_423:\n        /* \"#utility.yul\":2717:2725   */\n      swap1\n      swap6\n      pop\n        /* \"#utility.yul\":2592:2698   */\n      swap4\n      pop\n      pop\n        /* \"#utility.yul\":2787:2789   */\n      0x60\n      not(0x9f)\n        /* \"#utility.yul\":2768:2785   */\n      dup3\n      add\n        /* \"#utility.yul\":2764:2790   */\n      slt\n        /* \"#utility.yul\":2761:2807   */\n      iszero\n      tag_424\n      jumpi\n        /* \"#utility.yul\":2803:2804   */\n      0x00\n        /* \"#utility.yul\":2800:2801   */\n      dup1\n        /* \"#utility.yul\":2793:2805   */\n      revert\n        /* \"#utility.yul\":2761:2807   */\n    tag_424:\n      pop\n        /* \"#utility.yul\":2841:2844   */\n      0xa0\n        /* \"#utility.yul\":2830:2839   */\n      dup11\n        /* \"#utility.yul\":2826:2845   */\n      add\n        /* \"#utility.yul\":2816:2845   */\n      swap1\n      pop\n        /* \"#utility.yul\":1496:2851   */\n      swap3\n      swap6\n      swap9\n      pop\n      swap3\n      swap6\n      swap9\n      pop\n      swap3\n      swap6\n      swap9\n      jump\t// out\n        /* \"#utility.yul\":2988:3277   */\n    tag_390:\n        /* \"#utility.yul\":3030:3033   */\n      0x00\n        /* \"#utility.yul\":3068:3073   */\n      dup2\n        /* \"#utility.yul\":3062:3074   */\n      mload\n        /* \"#utility.yul\":3095:3101   */\n      dup1\n        /* \"#utility.yul\":3090:3093   */\n      dup5\n        /* \"#utility.yul\":3083:3102   */\n      mstore\n        /* \"#utility.yul\":3151:3157   */\n      dup1\n        /* \"#utility.yul\":3144:3148   */\n      0x20\n        /* \"#utility.yul\":3137:3142   */\n      dup5\n        /* \"#utility.yul\":3133:3149   */\n      add\n        /* \"#utility.yul\":3126:3130   */\n      0x20\n        /* \"#utility.yul\":3121:3124   */\n      dup7\n        /* \"#utility.yul\":3117:3131   */\n      add\n        /* \"#utility.yul\":3111:3158   */\n      mcopy\n        /* \"#utility.yul\":3203:3204   */\n      0x00\n        /* \"#utility.yul\":3196:3200   */\n      0x20\n        /* \"#utility.yul\":3187:3193   */\n      dup3\n        /* \"#utility.yul\":3182:3185   */\n      dup7\n        /* \"#utility.yul\":3178:3194   */\n      add\n        /* \"#utility.yul\":3174:3201   */\n      add\n        /* \"#utility.yul\":3167:3205   */\n      mstore\n        /* \"#utility.yul\":3266:3270   */\n      0x20\n        /* \"#utility.yul\":3259:3261   */\n      0x1f\n        /* \"#utility.yul\":3255:3262   */\n      not\n        /* \"#utility.yul\":3250:3252   */\n      0x1f\n        /* \"#utility.yul\":3242:3248   */\n      dup4\n        /* \"#utility.yul\":3238:3253   */\n      add\n        /* \"#utility.yul\":3234:3263   */\n      and\n        /* \"#utility.yul\":3229:3232   */\n      dup6\n        /* \"#utility.yul\":3225:3264   */\n      add\n        /* \"#utility.yul\":3221:3271   */\n      add\n        /* \"#utility.yul\":3214:3271   */\n      swap2\n      pop\n      pop\n        /* \"#utility.yul\":2988:3277   */\n      swap3\n      swap2\n      pop\n      pop\n      jump\t// out\n        /* \"#utility.yul\":3282:4116   */\n    tag_391:\n        /* \"#utility.yul\":3347:3350   */\n      0x00\n        /* \"#utility.yul\":3378:3381   */\n      dup3\n        /* \"#utility.yul\":3410:3415   */\n      dup3\n        /* \"#utility.yul\":3404:3416   */\n      mload\n        /* \"#utility.yul\":3437:3443   */\n      dup1\n        /* \"#utility.yul\":3432:3435   */\n      dup6\n        /* \"#utility.yul\":3425:3444   */\n      mstore\n        /* \"#utility.yul\":3463:3467   */\n      0x20\n        /* \"#utility.yul\":3492:3494   */\n      dup1\n        /* \"#utility.yul\":3487:3490   */\n      dup7\n        /* \"#utility.yul\":3483:3495   */\n      add\n        /* \"#utility.yul\":3476:3495   */\n      swap6\n      pop\n        /* \"#utility.yul\":3548:3550   */\n      dup1\n        /* \"#utility.yul\":3538:3544   */\n      dup3\n        /* \"#utility.yul\":3535:3536   */\n      0x05\n        /* \"#utility.yul\":3531:3545   */\n      shl\n        /* \"#utility.yul\":3524:3529   */\n      dup5\n        /* \"#utility.yul\":3520:3546   */\n      add\n        /* \"#utility.yul\":3516:3551   */\n      add\n        /* \"#utility.yul\":3585:3587   */\n      dup2\n        /* \"#utility.yul\":3578:3583   */\n      dup7\n        /* \"#utility.yul\":3574:3588   */\n      add\n        /* \"#utility.yul\":3606:3607   */\n      0x00\n        /* \"#utility.yul\":3616:4090   */\n    tag_428:\n        /* \"#utility.yul\":3630:3636   */\n      dup5\n        /* \"#utility.yul\":3627:3628   */\n      dup2\n        /* \"#utility.yul\":3624:3637   */\n      lt\n        /* \"#utility.yul\":3616:4090   */\n      iszero\n      tag_430\n      jumpi\n        /* \"#utility.yul\":3717:3719   */\n      0x1f\n        /* \"#utility.yul\":3713:3720   */\n      not\n        /* \"#utility.yul\":3705:3710   */\n      dup7\n        /* \"#utility.yul\":3699:3703   */\n      dup5\n        /* \"#utility.yul\":3695:3711   */\n      sub\n        /* \"#utility.yul\":3691:3721   */\n      add\n        /* \"#utility.yul\":3686:3689   */\n      dup10\n        /* \"#utility.yul\":3679:3722   */\n      mstore\n        /* \"#utility.yul\":3751:3757   */\n      dup2\n        /* \"#utility.yul\":3745:3758   */\n      mload\n        /* \"#utility.yul\":3781:3785   */\n      0x40\n        /* \"#utility.yul\":3824:3826   */\n      dup2\n        /* \"#utility.yul\":3818:3827   */\n      mload\n        /* \"#utility.yul\":3853:3855   */\n      dup2\n        /* \"#utility.yul\":3847:3851   */\n      dup7\n        /* \"#utility.yul\":3840:3856   */\n      mstore\n        /* \"#utility.yul\":3883:3929   */\n      tag_431\n        /* \"#utility.yul\":3925:3927   */\n      dup3\n        /* \"#utility.yul\":3919:3923   */\n      dup8\n        /* \"#utility.yul\":3915:3928   */\n      add\n        /* \"#utility.yul\":3901:3913   */\n      dup3\n        /* \"#utility.yul\":3883:3929   */\n      tag_390\n      jump\t// in\n    tag_431:\n        /* \"#utility.yul\":3970:3981   */\n      swap3\n      dup8\n      add\n        /* \"#utility.yul\":3964:3982   */\n      mload\n        /* \"#utility.yul\":3949:3962   */\n      swap6\n      dup8\n      add\n        /* \"#utility.yul\":3942:3983   */\n      swap6\n      swap1\n      swap6\n      mstore\n      pop\n        /* \"#utility.yul\":4068:4080   */\n      swap9\n      dup5\n      add\n      swap9\n        /* \"#utility.yul\":3869:3929   */\n      swap3\n      pop\n        /* \"#utility.yul\":4033:4048   */\n      swap1\n      dup4\n      add\n      swap1\n        /* \"#utility.yul\":3652:3653   */\n      0x01\n        /* \"#utility.yul\":3645:3654   */\n      add\n        /* \"#utility.yul\":3616:4090   */\n      jump(tag_428)\n    tag_430:\n      pop\n        /* \"#utility.yul\":4106:4110   */\n      swap1\n      swap8\n        /* \"#utility.yul\":3282:4116   */\n      swap7\n      pop\n      pop\n      pop\n      pop\n      pop\n      pop\n      pop\n      jump\t// out\n        /* \"#utility.yul\":4217:4344   */\n    tag_56:\n        /* \"#utility.yul\":4278:4288   */\n      0x4e487b71\n        /* \"#utility.yul\":4273:4276   */\n      0xe0\n        /* \"#utility.yul\":4269:4289   */\n      shl\n        /* \"#utility.yul\":4266:4267   */\n      0x00\n        /* \"#utility.yul\":4259:4290   */\n      mstore\n        /* \"#utility.yul\":4309:4313   */\n      0x21\n        /* \"#utility.yul\":4306:4307   */\n      0x04\n        /* \"#utility.yul\":4299:4314   */\n      mstore\n        /* \"#utility.yul\":4333:4337   */\n      0x24\n        /* \"#utility.yul\":4330:4331   */\n      0x00\n        /* \"#utility.yul\":4323:4338   */\n      revert\n        /* \"#utility.yul\":4349:4571   */\n    tag_393:\n        /* \"#utility.yul\":4442:4443   */\n      0x04\n        /* \"#utility.yul\":4435:4440   */\n      dup2\n        /* \"#utility.yul\":4432:4444   */\n      lt\n        /* \"#utility.yul\":4422:4565   */\n      tag_359\n      jumpi\n        /* \"#utility.yul\":4487:4497   */\n      0x4e487b71\n        /* \"#utility.yul\":4482:4485   */\n      0xe0\n        /* \"#utility.yul\":4478:4498   */\n      shl\n        /* \"#utility.yul\":4475:4476   */\n      0x00\n        /* \"#utility.yul\":4468:4499   */\n      mstore\n        /* \"#utility.yul\":4522:4526   */\n      0x21\n        /* \"#utility.yul\":4519:4520   */\n      0x04\n        /* \"#utility.yul\":4512:4527   */\n      mstore\n        /* \"#utility.yul\":4550:4554   */\n      0x24\n        /* \"#utility.yul\":4547:4548   */\n      0x00\n        /* \"#utility.yul\":4540:4555   */\n      revert\n        /* \"#utility.yul\":4576:4923   */\n    tag_394:\n        /* \"#utility.yul\":4674:4679   */\n      dup1\n        /* \"#utility.yul\":4668:4680   */\n      mload\n        /* \"#utility.yul\":4661:4681   */\n      iszero\n        /* \"#utility.yul\":4654:4682   */\n      iszero\n        /* \"#utility.yul\":4649:4652   */\n      dup3\n        /* \"#utility.yul\":4642:4683   */\n      mstore\n        /* \"#utility.yul\":4746:4750   */\n      0x20\n        /* \"#utility.yul\":4739:4744   */\n      dup2\n        /* \"#utility.yul\":4735:4751   */\n      add\n        /* \"#utility.yul\":4729:4752   */\n      mload\n        /* \"#utility.yul\":4722:4753   */\n      iszero\n        /* \"#utility.yul\":4715:4754   */\n      iszero\n        /* \"#utility.yul\":4708:4712   */\n      0x20\n        /* \"#utility.yul\":4703:4706   */\n      dup4\n        /* \"#utility.yul\":4699:4713   */\n      add\n        /* \"#utility.yul\":4692:4755   */\n      mstore\n        /* \"#utility.yul\":4801:4805   */\n      0x40\n        /* \"#utility.yul\":4794:4799   */\n      dup2\n        /* \"#utility.yul\":4790:4806   */\n      add\n        /* \"#utility.yul\":4784:4807   */\n      mload\n        /* \"#utility.yul\":4816:4872   */\n      tag_437\n        /* \"#utility.yul\":4859:4871   */\n      dup2\n        /* \"#utility.yul\":4816:4872   */\n      tag_393\n      jump\t// in\n    tag_437:\n        /* \"#utility.yul\":4904:4916   */\n      dup1\n        /* \"#utility.yul\":4897:4901   */\n      0x40\n        /* \"#utility.yul\":4892:4895   */\n      dup5\n        /* \"#utility.yul\":4888:4902   */\n      add\n        /* \"#utility.yul\":4881:4917   */\n      mstore\n      pop\n        /* \"#utility.yul\":4576:4923   */\n      pop\n      pop\n      jump\t// out\n        /* \"#utility.yul\":4928:5367   */\n    tag_395:\n        /* \"#utility.yul\":4981:4984   */\n      0x00\n        /* \"#utility.yul\":5019:5024   */\n      dup2\n        /* \"#utility.yul\":5013:5025   */\n      mload\n        /* \"#utility.yul\":5046:5052   */\n      dup1\n        /* \"#utility.yul\":5041:5044   */\n      dup5\n        /* \"#utility.yul\":5034:5053   */\n      mstore\n        /* \"#utility.yul\":5072:5076   */\n      0x20\n        /* \"#utility.yul\":5101:5105   */\n      dup1\n        /* \"#utility.yul\":5096:5099   */\n      dup6\n        /* \"#utility.yul\":5092:5106   */\n      add\n        /* \"#utility.yul\":5085:5106   */\n      swap5\n      pop\n        /* \"#utility.yul\":5140:5144   */\n      0x20\n        /* \"#utility.yul\":5133:5138   */\n      dup5\n        /* \"#utility.yul\":5129:5145   */\n      add\n        /* \"#utility.yul\":5163:5164   */\n      0x00\n        /* \"#utility.yul\":5173:5342   */\n    tag_439:\n        /* \"#utility.yul\":5187:5193   */\n      dup4\n        /* \"#utility.yul\":5184:5185   */\n      dup2\n        /* \"#utility.yul\":5181:5194   */\n      lt\n        /* \"#utility.yul\":5173:5342   */\n      iszero\n      tag_441\n      jumpi\n        /* \"#utility.yul\":5248:5261   */\n      dup2\n      mload\n        /* \"#utility.yul\":5236:5262   */\n      dup8\n      mstore\n        /* \"#utility.yul\":5282:5294   */\n      swap6\n      dup3\n      add\n      swap6\n        /* \"#utility.yul\":5317:5332   */\n      swap1\n      dup3\n      add\n      swap1\n        /* \"#utility.yul\":5209:5210   */\n      0x01\n        /* \"#utility.yul\":5202:5211   */\n      add\n        /* \"#utility.yul\":5173:5342   */\n      jump(tag_439)\n    tag_441:\n      pop\n        /* \"#utility.yul\":5358:5361   */\n      swap5\n      swap6\n        /* \"#utility.yul\":4928:5367   */\n      swap5\n      pop\n      pop\n      pop\n      pop\n      pop\n      jump\t// out\n        /* \"#utility.yul\":5372:6971   */\n    tag_34:\n        /* \"#utility.yul\":5555:5557   */\n      0x20\n        /* \"#utility.yul\":5544:5553   */\n      dup2\n        /* \"#utility.yul\":5537:5558   */\n      mstore\n        /* \"#utility.yul\":5567:5620   */\n      tag_443\n        /* \"#utility.yul\":5616:5618   */\n      0x20\n        /* \"#utility.yul\":5605:5614   */\n      dup3\n        /* \"#utility.yul\":5601:5619   */\n      add\n        /* \"#utility.yul\":5592:5598   */\n      dup4\n        /* \"#utility.yul\":5586:5599   */\n      mload\n      sub(shl(0xa0, 0x01), 0x01)\n        /* \"#utility.yul\":2922:2976   */\n      and\n        /* \"#utility.yul\":2910:2977   */\n      swap1\n      mstore\n        /* \"#utility.yul\":2856:2983   */\n      jump\n        /* \"#utility.yul\":5567:5620   */\n    tag_443:\n        /* \"#utility.yul\":5518:5522   */\n      0x00\n        /* \"#utility.yul\":5667:5669   */\n      0x20\n        /* \"#utility.yul\":5659:5665   */\n      dup4\n        /* \"#utility.yul\":5655:5670   */\n      add\n        /* \"#utility.yul\":5649:5671   */\n      mload\n        /* \"#utility.yul\":5690:5696   */\n      0x01a0\n        /* \"#utility.yul\":5732:5734   */\n      dup1\n        /* \"#utility.yul\":5727:5729   */\n      0x40\n        /* \"#utility.yul\":5716:5725   */\n      dup6\n        /* \"#utility.yul\":5712:5730   */\n      add\n        /* \"#utility.yul\":5705:5735   */\n      mstore\n        /* \"#utility.yul\":5758:5810   */\n      tag_444\n        /* \"#utility.yul\":5805:5808   */\n      0x01c0\n        /* \"#utility.yul\":5794:5803   */\n      dup6\n        /* \"#utility.yul\":5790:5809   */\n      add\n        /* \"#utility.yul\":5776:5788   */\n      dup4\n        /* \"#utility.yul\":5758:5810   */\n      tag_390\n      jump\t// in\n    tag_444:\n        /* \"#utility.yul\":5744:5810   */\n      swap2\n      pop\n        /* \"#utility.yul\":5859:5861   */\n      0x40\n        /* \"#utility.yul\":5851:5857   */\n      dup6\n        /* \"#utility.yul\":5847:5862   */\n      add\n        /* \"#utility.yul\":5841:5863   */\n      mload\n        /* \"#utility.yul\":5886:5888   */\n      0x1f\n        /* \"#utility.yul\":5882:5889   */\n      not\n        /* \"#utility.yul\":5953:5955   */\n      dup1\n        /* \"#utility.yul\":5941:5950   */\n      dup7\n        /* \"#utility.yul\":5933:5939   */\n      dup6\n        /* \"#utility.yul\":5929:5951   */\n      sub\n        /* \"#utility.yul\":5925:5956   */\n      add\n        /* \"#utility.yul\":5920:5922   */\n      0x60\n        /* \"#utility.yul\":5909:5918   */\n      dup8\n        /* \"#utility.yul\":5905:5923   */\n      add\n        /* \"#utility.yul\":5898:5957   */\n      mstore\n        /* \"#utility.yul\":5980:6021   */\n      tag_445\n        /* \"#utility.yul\":6014:6020   */\n      dup5\n        /* \"#utility.yul\":5998:6012   */\n      dup4\n        /* \"#utility.yul\":5980:6021   */\n      tag_390\n      jump\t// in\n    tag_445:\n        /* \"#utility.yul\":5966:6021   */\n      swap4\n      pop\n        /* \"#utility.yul\":6076:6078   */\n      0x60\n        /* \"#utility.yul\":6068:6074   */\n      dup8\n        /* \"#utility.yul\":6064:6079   */\n      add\n        /* \"#utility.yul\":6058:6080   */\n      mload\n        /* \"#utility.yul\":6052:6055   */\n      0x80\n        /* \"#utility.yul\":6041:6050   */\n      dup8\n        /* \"#utility.yul\":6037:6056   */\n      add\n        /* \"#utility.yul\":6030:6081   */\n      mstore\n        /* \"#utility.yul\":6136:6139   */\n      0x80\n        /* \"#utility.yul\":6128:6134   */\n      dup8\n        /* \"#utility.yul\":6124:6140   */\n      add\n        /* \"#utility.yul\":6118:6141   */\n      mload\n        /* \"#utility.yul\":6112:6115   */\n      0xa0\n        /* \"#utility.yul\":6101:6110   */\n      dup8\n        /* \"#utility.yul\":6097:6116   */\n      add\n        /* \"#utility.yul\":6090:6142   */\n      mstore\n        /* \"#utility.yul\":6191:6194   */\n      0xa0\n        /* \"#utility.yul\":6183:6189   */\n      dup8\n        /* \"#utility.yul\":6179:6195   */\n      add\n        /* \"#utility.yul\":6173:6196   */\n      mload\n        /* \"#utility.yul\":6151:6196   */\n      swap2\n      pop\n        /* \"#utility.yul\":6261:6263   */\n      dup1\n        /* \"#utility.yul\":6249:6258   */\n      dup7\n        /* \"#utility.yul\":6241:6247   */\n      dup6\n        /* \"#utility.yul\":6237:6259   */\n      sub\n        /* \"#utility.yul\":6233:6264   */\n      add\n        /* \"#utility.yul\":6227:6230   */\n      0xc0\n        /* \"#utility.yul\":6216:6225   */\n      dup8\n        /* \"#utility.yul\":6212:6231   */\n      add\n        /* \"#utility.yul\":6205:6265   */\n      mstore\n        /* \"#utility.yul\":6288:6352   */\n      tag_446\n        /* \"#utility.yul\":6345:6351   */\n      dup5\n        /* \"#utility.yul\":6329:6343   */\n      dup4\n        /* \"#utility.yul\":6288:6352   */\n      tag_391\n      jump\t// in\n    tag_446:\n        /* \"#utility.yul\":6274:6352   */\n      swap4\n      pop\n        /* \"#utility.yul\":6407:6410   */\n      0xc0\n        /* \"#utility.yul\":6399:6405   */\n      dup8\n        /* \"#utility.yul\":6395:6411   */\n      add\n        /* \"#utility.yul\":6389:6412   */\n      mload\n        /* \"#utility.yul\":6383:6386   */\n      0xe0\n        /* \"#utility.yul\":6372:6381   */\n      dup8\n        /* \"#utility.yul\":6368:6387   */\n      add\n        /* \"#utility.yul\":6361:6413   */\n      mstore\n        /* \"#utility.yul\":6462:6465   */\n      0xe0\n        /* \"#utility.yul\":6454:6460   */\n      dup8\n        /* \"#utility.yul\":6450:6466   */\n      add\n        /* \"#utility.yul\":6444:6467   */\n      mload\n        /* \"#utility.yul\":6422:6467   */\n      swap2\n      pop\n        /* \"#utility.yul\":6486:6489   */\n      0x0100\n        /* \"#utility.yul\":6498:6564   */\n      tag_447\n        /* \"#utility.yul\":6560:6562   */\n      dup2\n        /* \"#utility.yul\":6549:6558   */\n      dup9\n        /* \"#utility.yul\":6545:6563   */\n      add\n        /* \"#utility.yul\":6529:6543   */\n      dup5\n        /* \"#utility.yul\":6498:6564   */\n      tag_394\n      jump\t// in\n    tag_447:\n        /* \"#utility.yul\":6601:6616   */\n      dup8\n      add\n        /* \"#utility.yul\":6595:6617   */\n      mload\n        /* \"#utility.yul\":4191:4204   */\n      iszero\n        /* \"#utility.yul\":4184:4205   */\n      iszero\n        /* \"#utility.yul\":6673:6676   */\n      0x0160\n        /* \"#utility.yul\":6658:6677   */\n      dup8\n      add\n        /* \"#utility.yul\":4172:4206   */\n      mstore\n        /* \"#utility.yul\":6727:6733   */\n      0x0120\n        /* \"#utility.yul\":6715:6734   */\n      dup8\n      add\n        /* \"#utility.yul\":6709:6735   */\n      mload\n        /* \"#utility.yul\":6776:6798   */\n      dup7\n      dup6\n      sub\n        /* \"#utility.yul\":6772:6803   */\n      swap1\n      swap2\n      add\n        /* \"#utility.yul\":6766:6769   */\n      0x0180\n        /* \"#utility.yul\":6751:6770   */\n      dup8\n      add\n        /* \"#utility.yul\":6744:6804   */\n      mstore\n        /* \"#utility.yul\":6709:6735   */\n      swap1\n      pop\n        /* \"#utility.yul\":6827:6879   */\n      tag_449\n        /* \"#utility.yul\":6780:6786   */\n      dup4\n        /* \"#utility.yul\":6709:6735   */\n      dup3\n        /* \"#utility.yul\":6827:6879   */\n      tag_395\n      jump\t// in\n    tag_449:\n        /* \"#utility.yul\":6813:6879   */\n      swap3\n      pop\n      pop\n        /* \"#utility.yul\":6933:6939   */\n      0x0140\n        /* \"#utility.yul\":6925:6931   */\n      dup6\n        /* \"#utility.yul\":6921:6940   */\n      add\n        /* \"#utility.yul\":6915:6941   */\n      mload\n        /* \"#utility.yul\":6910:6912   */\n      dup2\n        /* \"#utility.yul\":6899:6908   */\n      dup6\n        /* \"#utility.yul\":6895:6913   */\n      add\n        /* \"#utility.yul\":6888:6942   */\n      mstore\n      pop\n        /* \"#utility.yul\":6959:6965   */\n      dup1\n        /* \"#utility.yul\":6951:6965   */\n      swap2\n      pop\n      pop\n        /* \"#utility.yul\":5372:6971   */\n      swap3\n      swap2\n      pop\n      pop\n      jump\t// out\n        /* \"#utility.yul\":6976:8094   */\n    tag_39:\n        /* \"#utility.yul\":7410:7414   */\n      0x00\n        /* \"#utility.yul\":7439:7442   */\n      0x0180\n      sub(shl(0xa0, 0x01), 0x01)\n        /* \"#utility.yul\":7473:7479   */\n      dup14\n        /* \"#utility.yul\":7469:7524   */\n      and\n        /* \"#utility.yul\":7458:7467   */\n      dup4\n        /* \"#utility.yul\":7451:7525   */\n      mstore\n        /* \"#utility.yul\":7561:7567   */\n      dup12\n        /* \"#utility.yul\":7556:7558   */\n      0x20\n        /* \"#utility.yul\":7545:7554   */\n      dup5\n        /* \"#utility.yul\":7541:7559   */\n      add\n        /* \"#utility.yul\":7534:7568   */\n      mstore\n        /* \"#utility.yul\":7604:7606   */\n      dup1\n        /* \"#utility.yul\":7599:7601   */\n      0x40\n        /* \"#utility.yul\":7588:7597   */\n      dup5\n        /* \"#utility.yul\":7584:7602   */\n      add\n        /* \"#utility.yul\":7577:7607   */\n      mstore\n        /* \"#utility.yul\":7630:7675   */\n      tag_451\n        /* \"#utility.yul\":7671:7673   */\n      dup2\n        /* \"#utility.yul\":7660:7669   */\n      dup5\n        /* \"#utility.yul\":7656:7674   */\n      add\n        /* \"#utility.yul\":7648:7654   */\n      dup13\n        /* \"#utility.yul\":7630:7675   */\n      tag_390\n      jump\t// in\n    tag_451:\n        /* \"#utility.yul\":7616:7675   */\n      swap1\n      pop\n        /* \"#utility.yul\":7723:7732   */\n      dup3\n        /* \"#utility.yul\":7715:7721   */\n      dup2\n        /* \"#utility.yul\":7711:7733   */\n      sub\n        /* \"#utility.yul\":7706:7708   */\n      0x60\n        /* \"#utility.yul\":7695:7704   */\n      dup5\n        /* \"#utility.yul\":7691:7709   */\n      add\n        /* \"#utility.yul\":7684:7734   */\n      mstore\n        /* \"#utility.yul\":7751:7784   */\n      tag_452\n        /* \"#utility.yul\":7777:7783   */\n      dup2\n        /* \"#utility.yul\":7769:7775   */\n      dup12\n        /* \"#utility.yul\":7751:7784   */\n      tag_390\n      jump\t// in\n    tag_452:\n        /* \"#utility.yul\":7743:7784   */\n      swap2\n      pop\n      pop\n        /* \"#utility.yul\":7821:7827   */\n      dup8\n        /* \"#utility.yul\":7815:7818   */\n      0x80\n        /* \"#utility.yul\":7804:7813   */\n      dup4\n        /* \"#utility.yul\":7800:7819   */\n      add\n        /* \"#utility.yul\":7793:7828   */\n      mstore\n        /* \"#utility.yul\":7865:7871   */\n      dup7\n        /* \"#utility.yul\":7859:7862   */\n      0xa0\n        /* \"#utility.yul\":7848:7857   */\n      dup4\n        /* \"#utility.yul\":7844:7863   */\n      add\n        /* \"#utility.yul\":7837:7872   */\n      mstore\n        /* \"#utility.yul\":7909:7915   */\n      dup6\n        /* \"#utility.yul\":7903:7906   */\n      0xc0\n        /* \"#utility.yul\":7892:7901   */\n      dup4\n        /* \"#utility.yul\":7888:7907   */\n      add\n        /* \"#utility.yul\":7881:7916   */\n      mstore\n        /* \"#utility.yul\":7925:7984   */\n      tag_453\n        /* \"#utility.yul\":7979:7982   */\n      0xe0\n        /* \"#utility.yul\":7968:7977   */\n      dup4\n        /* \"#utility.yul\":7964:7983   */\n      add\n        /* \"#utility.yul\":7956:7962   */\n      dup7\n        /* \"#utility.yul\":7925:7984   */\n      tag_394\n      jump\t// in\n    tag_453:\n        /* \"#utility.yul\":8021:8027   */\n      dup4\n        /* \"#utility.yul\":8015:8018   */\n      0x0140\n        /* \"#utility.yul\":8004:8013   */\n      dup4\n        /* \"#utility.yul\":8000:8019   */\n      add\n        /* \"#utility.yul\":7993:8028   */\n      mstore\n        /* \"#utility.yul\":8079:8085   */\n      dup3\n        /* \"#utility.yul\":8072:8086   */\n      iszero\n        /* \"#utility.yul\":8065:8087   */\n      iszero\n        /* \"#utility.yul\":8059:8062   */\n      0x0160\n        /* \"#utility.yul\":8048:8057   */\n      dup4\n        /* \"#utility.yul\":8044:8063   */\n      add\n        /* \"#utility.yul\":8037:8088   */\n      mstore\n        /* \"#utility.yul\":6976:8094   */\n      swap12\n      swap11\n      pop\n      pop\n      pop\n      pop\n      pop\n      pop\n      pop\n      pop\n      pop\n      pop\n      pop\n      jump\t// out\n        /* \"#utility.yul\":8099:8612   */\n    tag_42:\n        /* \"#utility.yul\":8194:8200   */\n      0x00\n        /* \"#utility.yul\":8202:8208   */\n      dup1\n        /* \"#utility.yul\":8210:8216   */\n      0x00\n        /* \"#utility.yul\":8263:8265   */\n      0x40\n        /* \"#utility.yul\":8251:8260   */\n      dup5\n        /* \"#utility.yul\":8242:8249   */\n      dup7\n        /* \"#utility.yul\":8238:8261   */\n      sub\n        /* \"#utility.yul\":8234:8266   */\n      slt\n        /* \"#utility.yul\":8231:8283   */\n      iszero\n      tag_455\n      jumpi\n        /* \"#utility.yul\":8279:8280   */\n      0x00\n        /* \"#utility.yul\":8276:8277   */\n      dup1\n        /* \"#utility.yul\":8269:8281   */\n      revert\n        /* \"#utility.yul\":8231:8283   */\n    tag_455:\n        /* \"#utility.yul\":8315:8324   */\n      dup4\n        /* \"#utility.yul\":8302:8325   */\n      calldataload\n        /* \"#utility.yul\":8292:8325   */\n      swap3\n      pop\n        /* \"#utility.yul\":8376:8378   */\n      0x20\n        /* \"#utility.yul\":8365:8374   */\n      dup5\n        /* \"#utility.yul\":8361:8379   */\n      add\n        /* \"#utility.yul\":8348:8380   */\n      calldataload\n        /* \"#utility.yul\":8403:8421   */\n      0xffffffffffffffff\n        /* \"#utility.yul\":8395:8401   */\n      dup2\n        /* \"#utility.yul\":8392:8422   */\n      gt\n        /* \"#utility.yul\":8389:8439   */\n      iszero\n      tag_456\n      jumpi\n        /* \"#utility.yul\":8435:8436   */\n      0x00\n        /* \"#utility.yul\":8432:8433   */\n      dup1\n        /* \"#utility.yul\":8425:8437   */\n      revert\n        /* \"#utility.yul\":8389:8439   */\n    tag_456:\n        /* \"#utility.yul\":8474:8552   */\n      tag_457\n        /* \"#utility.yul\":8544:8551   */\n      dup7\n        /* \"#utility.yul\":8535:8541   */\n      dup3\n        /* \"#utility.yul\":8524:8533   */\n      dup8\n        /* \"#utility.yul\":8520:8542   */\n      add\n        /* \"#utility.yul\":8474:8552   */\n      tag_388\n      jump\t// in\n    tag_457:\n        /* \"#utility.yul\":8099:8612   */\n      swap5\n      swap8\n        /* \"#utility.yul\":8571:8579   */\n      swap1\n      swap7\n      pop\n        /* \"#utility.yul\":8448:8552   */\n      swap4\n      swap5\n      pop\n      pop\n      pop\n      pop\n        /* \"#utility.yul\":8099:8612   */\n      jump\t// out\n        /* \"#utility.yul\":8617:10350   */\n    tag_47:\n        /* \"#utility.yul\":8813:8817   */\n      0x00\n        /* \"#utility.yul\":8842:8844   */\n      0x20\n        /* \"#utility.yul\":8882:8884   */\n      dup1\n        /* \"#utility.yul\":8871:8880   */\n      dup4\n        /* \"#utility.yul\":8867:8885   */\n      add\n        /* \"#utility.yul\":8912:8914   */\n      dup2\n        /* \"#utility.yul\":8901:8910   */\n      dup5\n        /* \"#utility.yul\":8894:8915   */\n      mstore\n        /* \"#utility.yul\":8935:8941   */\n      dup1\n        /* \"#utility.yul\":8970:8976   */\n      dup6\n        /* \"#utility.yul\":8964:8977   */\n      mload\n        /* \"#utility.yul\":9001:9007   */\n      dup1\n        /* \"#utility.yul\":8993:8999   */\n      dup4\n        /* \"#utility.yul\":8986:9008   */\n      mstore\n        /* \"#utility.yul\":9027:9029   */\n      0x40\n        /* \"#utility.yul\":9017:9029   */\n      swap3\n      pop\n        /* \"#utility.yul\":9060:9062   */\n      0x40\n        /* \"#utility.yul\":9049:9058   */\n      dup7\n        /* \"#utility.yul\":9045:9063   */\n      add\n        /* \"#utility.yul\":9038:9063   */\n      swap2\n      pop\n        /* \"#utility.yul\":9122:9124   */\n      0x40\n        /* \"#utility.yul\":9112:9118   */\n      dup2\n        /* \"#utility.yul\":9109:9110   */\n      0x05\n        /* \"#utility.yul\":9105:9119   */\n      shl\n        /* \"#utility.yul\":9094:9103   */\n      dup8\n        /* \"#utility.yul\":9090:9120   */\n      add\n        /* \"#utility.yul\":9086:9125   */\n      add\n        /* \"#utility.yul\":9160:9162   */\n      dup5\n        /* \"#utility.yul\":9152:9158   */\n      dup9\n        /* \"#utility.yul\":9148:9163   */\n      add\n        /* \"#utility.yul\":9181:9182   */\n      0x00\n        /* \"#utility.yul\":9191:10321   */\n    tag_459:\n        /* \"#utility.yul\":9205:9211   */\n      dup4\n        /* \"#utility.yul\":9202:9203   */\n      dup2\n        /* \"#utility.yul\":9199:9212   */\n      lt\n        /* \"#utility.yul\":9191:10321   */\n      iszero\n      tag_461\n      jumpi\n        /* \"#utility.yul\":9298:9300   */\n      0x3f\n        /* \"#utility.yul\":9294:9301   */\n      not\n        /* \"#utility.yul\":9282:9291   */\n      dup10\n        /* \"#utility.yul\":9274:9280   */\n      dup5\n        /* \"#utility.yul\":9270:9292   */\n      sub\n        /* \"#utility.yul\":9266:9302   */\n      add\n        /* \"#utility.yul\":9261:9264   */\n      dup6\n        /* \"#utility.yul\":9254:9303   */\n      mstore\n        /* \"#utility.yul\":9332:9338   */\n      dup2\n        /* \"#utility.yul\":9326:9339   */\n      mload\n        /* \"#utility.yul\":9362:9368   */\n      0x0100\n      sub(shl(0xa0, 0x01), 0x01)\n        /* \"#utility.yul\":9406:9408   */\n      dup3\n        /* \"#utility.yul\":9400:9409   */\n      mload\n        /* \"#utility.yul\":9396:9454   */\n      and\n        /* \"#utility.yul\":9388:9394   */\n      dup6\n        /* \"#utility.yul\":9381:9455   */\n      mstore\n        /* \"#utility.yul\":9506:9508   */\n      dup9\n        /* \"#utility.yul\":9502:9504   */\n      dup3\n        /* \"#utility.yul\":9498:9509   */\n      add\n        /* \"#utility.yul\":9492:9510   */\n      mload\n        /* \"#utility.yul\":9487:9489   */\n      dup10\n        /* \"#utility.yul\":9479:9485   */\n      dup7\n        /* \"#utility.yul\":9475:9490   */\n      add\n        /* \"#utility.yul\":9468:9511   */\n      mstore\n        /* \"#utility.yul\":9558:9560   */\n      dup8\n        /* \"#utility.yul\":9554:9556   */\n      dup3\n        /* \"#utility.yul\":9550:9561   */\n      add\n        /* \"#utility.yul\":9544:9562   */\n      mload\n        /* \"#utility.yul\":9599:9601   */\n      dup2\n        /* \"#utility.yul\":9594:9596   */\n      dup10\n        /* \"#utility.yul\":9586:9592   */\n      dup8\n        /* \"#utility.yul\":9582:9597   */\n      add\n        /* \"#utility.yul\":9575:9602   */\n      mstore\n        /* \"#utility.yul\":9629:9677   */\n      tag_462\n        /* \"#utility.yul\":9673:9675   */\n      dup3\n        /* \"#utility.yul\":9665:9671   */\n      dup8\n        /* \"#utility.yul\":9661:9676   */\n      add\n        /* \"#utility.yul\":9647:9659   */\n      dup3\n        /* \"#utility.yul\":9629:9677   */\n      tag_390\n      jump\t// in\n    tag_462:\n        /* \"#utility.yul\":9615:9677   */\n      swap2\n      pop\n      pop\n        /* \"#utility.yul\":9700:9704   */\n      0x60\n        /* \"#utility.yul\":9755:9757   */\n      dup1\n        /* \"#utility.yul\":9751:9753   */\n      dup4\n        /* \"#utility.yul\":9747:9758   */\n      add\n        /* \"#utility.yul\":9741:9759   */\n      mload\n        /* \"#utility.yul\":9736:9738   */\n      dup2\n        /* \"#utility.yul\":9728:9734   */\n      dup8\n        /* \"#utility.yul\":9724:9739   */\n      add\n        /* \"#utility.yul\":9717:9760   */\n      mstore\n      pop\n        /* \"#utility.yul\":9783:9787   */\n      0x80\n        /* \"#utility.yul\":9836:9838   */\n      dup1\n        /* \"#utility.yul\":9832:9834   */\n      dup4\n        /* \"#utility.yul\":9828:9839   */\n      add\n        /* \"#utility.yul\":9822:9840   */\n      mload\n        /* \"#utility.yul\":9853:9911   */\n      tag_463\n        /* \"#utility.yul\":9896:9910   */\n      dup2\n        /* \"#utility.yul\":9853:9911   */\n      tag_393\n      jump\t// in\n    tag_463:\n        /* \"#utility.yul\":9931:9946   */\n      swap1\n      dup7\n      add\n        /* \"#utility.yul\":9924:9963   */\n      mstore\n        /* \"#utility.yul\":9986:9990   */\n      0xa0\n        /* \"#utility.yul\":10033:10044   */\n      dup3\n      dup2\n      add\n        /* \"#utility.yul\":10027:10045   */\n      mload\n        /* \"#utility.yul\":10010:10025   */\n      swap1\n      dup7\n      add\n        /* \"#utility.yul\":10003:10046   */\n      mstore\n        /* \"#utility.yul\":10069:10073   */\n      0xc0\n        /* \"#utility.yul\":10116:10127   */\n      dup1\n      dup4\n      add\n        /* \"#utility.yul\":10110:10128   */\n      mload\n        /* \"#utility.yul\":10093:10108   */\n      swap1\n      dup7\n      add\n        /* \"#utility.yul\":10086:10129   */\n      mstore\n        /* \"#utility.yul\":10152:10156   */\n      0xe0\n        /* \"#utility.yul\":10199:10210   */\n      swap2\n      dup3\n      add\n        /* \"#utility.yul\":10193:10211   */\n      mload\n        /* \"#utility.yul\":10176:10191   */\n      swap2\n      swap1\n      swap5\n      add\n        /* \"#utility.yul\":10169:10212   */\n      mstore\n        /* \"#utility.yul\":10299:10311   */\n      swap4\n      dup7\n      add\n      swap4\n        /* \"#utility.yul\":10264:10279   */\n      swap1\n      dup7\n      add\n      swap1\n        /* \"#utility.yul\":9227:9228   */\n      0x01\n        /* \"#utility.yul\":9220:9229   */\n      add\n        /* \"#utility.yul\":9191:10321   */\n      jump(tag_459)\n    tag_461:\n      pop\n        /* \"#utility.yul\":10338:10344   */\n      swap1\n      swap9\n        /* \"#utility.yul\":8617:10350   */\n      swap8\n      pop\n      pop\n      pop\n      pop\n      pop\n      pop\n      pop\n      pop\n      jump\t// out\n        /* \"#utility.yul\":10355:10735   */\n    tag_59:\n        /* \"#utility.yul\":10434:10435   */\n      0x01\n        /* \"#utility.yul\":10430:10442   */\n      dup2\n      dup2\n      shr\n      swap1\n        /* \"#utility.yul\":10477:10489   */\n      dup3\n      and\n      dup1\n        /* \"#utility.yul\":10498:10559   */\n      tag_465\n      jumpi\n        /* \"#utility.yul\":10552:10556   */\n      0x7f\n        /* \"#utility.yul\":10544:10550   */\n      dup3\n        /* \"#utility.yul\":10540:10557   */\n      and\n        /* \"#utility.yul\":10530:10557   */\n      swap2\n      pop\n        /* \"#utility.yul\":10498:10559   */\n    tag_465:\n        /* \"#utility.yul\":10605:10607   */\n      0x20\n        /* \"#utility.yul\":10597:10603   */\n      dup3\n        /* \"#utility.yul\":10594:10608   */\n      lt\n        /* \"#utility.yul\":10574:10592   */\n      dup2\n        /* \"#utility.yul\":10571:10609   */\n      sub\n        /* \"#utility.yul\":10568:10729   */\n      tag_466\n      jumpi\n        /* \"#utility.yul\":10651:10661   */\n      0x4e487b71\n        /* \"#utility.yul\":10646:10649   */\n      0xe0\n        /* \"#utility.yul\":10642:10662   */\n      shl\n        /* \"#utility.yul\":10639:10640   */\n      0x00\n        /* \"#utility.yul\":10632:10663   */\n      mstore\n        /* \"#utility.yul\":10686:10690   */\n      0x22\n        /* \"#utility.yul\":10683:10684   */\n      0x04\n        /* \"#utility.yul\":10676:10691   */\n      mstore\n        /* \"#utility.yul\":10714:10718   */\n      0x24\n        /* \"#utility.yul\":10711:10712   */\n      0x00\n        /* \"#utility.yul\":10704:10719   */\n      revert\n        /* \"#utility.yul\":10568:10729   */\n    tag_466:\n      pop\n        /* \"#utility.yul\":10355:10735   */\n      swap2\n      swap1\n      pop\n      jump\t// out\n        /* \"#utility.yul\":10740:10867   */\n    tag_267:\n        /* \"#utility.yul\":10801:10811   */\n      0x4e487b71\n        /* \"#utility.yul\":10796:10799   */\n      0xe0\n        /* \"#utility.yul\":10792:10812   */\n      shl\n        /* \"#utility.yul\":10789:10790   */\n      0x00\n        /* \"#utility.yul\":10782:10813   */\n      mstore\n        /* \"#utility.yul\":10832:10836   */\n      0x41\n        /* \"#utility.yul\":10829:10830   */\n      0x04\n        /* \"#utility.yul\":10822:10837   */\n      mstore\n        /* \"#utility.yul\":10856:10860   */\n      0x24\n        /* \"#utility.yul\":10853:10854   */\n      0x00\n        /* \"#utility.yul\":10846:10861   */\n      revert\n        /* \"#utility.yul\":10998:11516   */\n    tag_397:\n        /* \"#utility.yul\":11100:11102   */\n      0x1f\n        /* \"#utility.yul\":11095:11098   */\n      dup3\n        /* \"#utility.yul\":11092:11103   */\n      gt\n        /* \"#utility.yul\":11089:11510   */\n      iszero\n      tag_329\n      jumpi\n        /* \"#utility.yul\":11136:11141   */\n      dup1\n        /* \"#utility.yul\":11133:11134   */\n      0x00\n        /* \"#utility.yul\":11126:11142   */\n      mstore\n        /* \"#utility.yul\":11180:11184   */\n      0x20\n        /* \"#utility.yul\":11177:11178   */\n      0x00\n        /* \"#utility.yul\":11167:11185   */\n      keccak256\n        /* \"#utility.yul\":11250:11252   */\n      0x1f\n        /* \"#utility.yul\":11238:11248   */\n      dup5\n        /* \"#utility.yul\":11234:11253   */\n      add\n        /* \"#utility.yul\":11231:11232   */\n      0x05\n        /* \"#utility.yul\":11227:11254   */\n      shr\n        /* \"#utility.yul\":11221:11225   */\n      dup2\n        /* \"#utility.yul\":11217:11255   */\n      add\n        /* \"#utility.yul\":11286:11290   */\n      0x20\n        /* \"#utility.yul\":11274:11284   */\n      dup6\n        /* \"#utility.yul\":11271:11291   */\n      lt\n        /* \"#utility.yul\":11268:11315   */\n      iszero\n      tag_471\n      jumpi\n      pop\n        /* \"#utility.yul\":11309:11313   */\n      dup1\n        /* \"#utility.yul\":11268:11315   */\n    tag_471:\n        /* \"#utility.yul\":11364:11366   */\n      0x1f\n        /* \"#utility.yul\":11359:11362   */\n      dup5\n        /* \"#utility.yul\":11355:11367   */\n      add\n        /* \"#utility.yul\":11352:11353   */\n      0x05\n        /* \"#utility.yul\":11348:11368   */\n      shr\n        /* \"#utility.yul\":11342:11346   */\n      dup3\n        /* \"#utility.yul\":11338:11369   */\n      add\n        /* \"#utility.yul\":11328:11369   */\n      swap2\n      pop\n        /* \"#utility.yul\":11419:11500   */\n    tag_472:\n        /* \"#utility.yul\":11437:11439   */\n      dup2\n        /* \"#utility.yul\":11430:11435   */\n      dup2\n        /* \"#utility.yul\":11427:11440   */\n      lt\n        /* \"#utility.yul\":11419:11500   */\n      iszero\n      tag_474\n      jumpi\n        /* \"#utility.yul\":11496:11497   */\n      0x00\n        /* \"#utility.yul\":11482:11498   */\n      dup2\n      sstore\n        /* \"#utility.yul\":11463:11464   */\n      0x01\n        /* \"#utility.yul\":11452:11465   */\n      add\n        /* \"#utility.yul\":11419:11500   */\n      jump(tag_472)\n    tag_474:\n        /* \"#utility.yul\":11423:11426   */\n      pop\n      pop\n        /* \"#utility.yul\":10998:11516   */\n      pop\n      pop\n      pop\n      jump\t// out\n        /* \"#utility.yul\":11692:12890   */\n    tag_98:\n        /* \"#utility.yul\":11816:11834   */\n      0xffffffffffffffff\n        /* \"#utility.yul\":11811:11814   */\n      dup4\n        /* \"#utility.yul\":11808:11835   */\n      gt\n        /* \"#utility.yul\":11805:11858   */\n      iszero\n      tag_478\n      jumpi\n        /* \"#utility.yul\":11838:11856   */\n      tag_478\n      tag_267\n      jump\t// in\n    tag_478:\n        /* \"#utility.yul\":11867:11961   */\n      tag_479\n        /* \"#utility.yul\":11957:11960   */\n      dup4\n        /* \"#utility.yul\":11917:11955   */\n      tag_480\n        /* \"#utility.yul\":11949:11953   */\n      dup4\n        /* \"#utility.yul\":11943:11954   */\n      sload\n        /* \"#utility.yul\":11917:11955   */\n      tag_59\n      jump\t// in\n    tag_480:\n        /* \"#utility.yul\":11911:11915   */\n      dup4\n        /* \"#utility.yul\":11867:11961   */\n      tag_397\n      jump\t// in\n    tag_479:\n        /* \"#utility.yul\":11987:11988   */\n      0x00\n        /* \"#utility.yul\":12012:12014   */\n      0x1f\n        /* \"#utility.yul\":12007:12010   */\n      dup5\n        /* \"#utility.yul\":12004:12015   */\n      gt\n        /* \"#utility.yul\":12029:12030   */\n      0x01\n        /* \"#utility.yul\":12024:12632   */\n      dup2\n      eq\n      tag_482\n      jumpi\n        /* \"#utility.yul\":12676:12677   */\n      0x00\n        /* \"#utility.yul\":12693:12696   */\n      dup6\n        /* \"#utility.yul\":12690:12783   */\n      iszero\n      tag_483\n      jumpi\n      pop\n        /* \"#utility.yul\":12749:12768   */\n      dup4\n      dup3\n      add\n        /* \"#utility.yul\":12736:12769   */\n      calldataload\n        /* \"#utility.yul\":12690:12783   */\n    tag_483:\n      not(0x00)\n        /* \"#utility.yul\":11649:11650   */\n      0x03\n        /* \"#utility.yul\":11645:11656   */\n      dup8\n      swap1\n      shl\n        /* \"#utility.yul\":11641:11665   */\n      shr\n        /* \"#utility.yul\":11637:11666   */\n      not\n        /* \"#utility.yul\":11627:11667   */\n      and\n        /* \"#utility.yul\":11673:11674   */\n      0x01\n        /* \"#utility.yul\":11669:11680   */\n      dup7\n      swap1\n      shl\n        /* \"#utility.yul\":11624:11681   */\n      or\n        /* \"#utility.yul\":12796:12874   */\n      dup4\n      sstore\n        /* \"#utility.yul\":11997:12884   */\n      jump(tag_474)\n        /* \"#utility.yul\":12024:12632   */\n    tag_482:\n        /* \"#utility.yul\":10945:10946   */\n      0x00\n        /* \"#utility.yul\":10938:10952   */\n      dup4\n      dup2\n      mstore\n        /* \"#utility.yul\":10982:10986   */\n      0x20\n        /* \"#utility.yul\":10969:10987   */\n      dup2\n      keccak256\n      not(0x1f)\n        /* \"#utility.yul\":12060:12077   */\n      dup8\n      and\n      swap2\n        /* \"#utility.yul\":12175:12404   */\n    tag_486:\n        /* \"#utility.yul\":12189:12196   */\n      dup3\n        /* \"#utility.yul\":12186:12187   */\n      dup2\n        /* \"#utility.yul\":12183:12197   */\n      lt\n        /* \"#utility.yul\":12175:12404   */\n      iszero\n      tag_488\n      jumpi\n        /* \"#utility.yul\":12278:12297   */\n      dup7\n      dup6\n      add\n        /* \"#utility.yul\":12265:12298   */\n      calldataload\n        /* \"#utility.yul\":12250:12299   */\n      dup3\n      sstore\n        /* \"#utility.yul\":12385:12389   */\n      0x20\n        /* \"#utility.yul\":12370:12390   */\n      swap5\n      dup6\n      add\n      swap5\n        /* \"#utility.yul\":12338:12339   */\n      0x01\n        /* \"#utility.yul\":12326:12340   */\n      swap1\n      swap3\n      add\n      swap2\n        /* \"#utility.yul\":12205:12217   */\n      add\n        /* \"#utility.yul\":12175:12404   */\n      jump(tag_486)\n    tag_488:\n        /* \"#utility.yul\":12179:12182   */\n      pop\n        /* \"#utility.yul\":12432:12435   */\n      dup7\n        /* \"#utility.yul\":12423:12430   */\n      dup3\n        /* \"#utility.yul\":12420:12436   */\n      lt\n        /* \"#utility.yul\":12417:12576   */\n      iszero\n      tag_489\n      jumpi\n        /* \"#utility.yul\":12556:12557   */\n      0x00\n        /* \"#utility.yul\":12552:12558   */\n      not\n        /* \"#utility.yul\":12546:12549   */\n      0xf8\n        /* \"#utility.yul\":12540:12543   */\n      dup9\n        /* \"#utility.yul\":12537:12538   */\n      0x03\n        /* \"#utility.yul\":12533:12544   */\n      shl\n        /* \"#utility.yul\":12529:12550   */\n      and\n        /* \"#utility.yul\":12525:12559   */\n      shr\n        /* \"#utility.yul\":12521:12560   */\n      not\n        /* \"#utility.yul\":12508:12517   */\n      dup5\n        /* \"#utility.yul\":12503:12506   */\n      dup8\n        /* \"#utility.yul\":12499:12518   */\n      add\n        /* \"#utility.yul\":12486:12519   */\n      calldataload\n        /* \"#utility.yul\":12482:12561   */\n      and\n        /* \"#utility.yul\":12474:12480   */\n      dup2\n        /* \"#utility.yul\":12467:12562   */\n      sstore\n        /* \"#utility.yul\":12417:12576   */\n    tag_489:\n      pop\n      pop\n        /* \"#utility.yul\":12619:12620   */\n      0x01\n        /* \"#utility.yul\":12613:12616   */\n      dup6\n        /* \"#utility.yul\":12610:12611   */\n      0x01\n        /* \"#utility.yul\":12606:12617   */\n      shl\n        /* \"#utility.yul\":12602:12621   */\n      add\n        /* \"#utility.yul\":12596:12600   */\n      dup4\n        /* \"#utility.yul\":12589:12622   */\n      sstore\n        /* \"#utility.yul\":11997:12884   */\n      pop\n      pop\n        /* \"#utility.yul\":11692:12890   */\n      pop\n      pop\n      pop\n      jump\t// out\n        /* \"#utility.yul\":12895:13013   */\n    tag_399:\n        /* \"#utility.yul\":12981:12986   */\n      dup1\n        /* \"#utility.yul\":12974:12987   */\n      iszero\n        /* \"#utility.yul\":12967:12988   */\n      iszero\n        /* \"#utility.yul\":12960:12965   */\n      dup2\n        /* \"#utility.yul\":12957:12989   */\n      eq\n        /* \"#utility.yul\":12947:13007   */\n      tag_359\n      jumpi\n        /* \"#utility.yul\":13003:13004   */\n      0x00\n        /* \"#utility.yul\":13000:13001   */\n      dup1\n        /* \"#utility.yul\":12993:13005   */\n      revert\n        /* \"#utility.yul\":13018:13259   */\n    tag_101:\n        /* \"#utility.yul\":13074:13080   */\n      0x00\n        /* \"#utility.yul\":13127:13129   */\n      0x20\n        /* \"#utility.yul\":13115:13124   */\n      dup3\n        /* \"#utility.yul\":13106:13113   */\n      dup5\n        /* \"#utility.yul\":13102:13125   */\n      sub\n        /* \"#utility.yul\":13098:13130   */\n      slt\n        /* \"#utility.yul\":13095:13147   */\n      iszero\n      tag_493\n      jumpi\n        /* \"#utility.yul\":13143:13144   */\n      0x00\n        /* \"#utility.yul\":13140:13141   */\n      dup1\n        /* \"#utility.yul\":13133:13145   */\n      revert\n        /* \"#utility.yul\":13095:13147   */\n    tag_493:\n        /* \"#utility.yul\":13182:13191   */\n      dup2\n        /* \"#utility.yul\":13169:13192   */\n      calldataload\n        /* \"#utility.yul\":13201:13229   */\n      tag_494\n        /* \"#utility.yul\":13223:13228   */\n      dup2\n        /* \"#utility.yul\":13201:13229   */\n      tag_399\n      jump\t// in\n    tag_494:\n        /* \"#utility.yul\":13248:13253   */\n      swap4\n        /* \"#utility.yul\":13018:13259   */\n      swap3\n      pop\n      pop\n      pop\n      jump\t// out\n        /* \"#utility.yul\":13264:13391   */\n    tag_109:\n        /* \"#utility.yul\":13325:13335   */\n      0x4e487b71\n        /* \"#utility.yul\":13320:13323   */\n      0xe0\n        /* \"#utility.yul\":13316:13336   */\n      shl\n        /* \"#utility.yul\":13313:13314   */\n      0x00\n        /* \"#utility.yul\":13306:13337   */\n      mstore\n        /* \"#utility.yul\":13356:13360   */\n      0x32\n        /* \"#utility.yul\":13353:13354   */\n      0x04\n        /* \"#utility.yul\":13346:13361   */\n      mstore\n        /* \"#utility.yul\":13380:13384   */\n      0x24\n        /* \"#utility.yul\":13377:13378   */\n      0x00\n        /* \"#utility.yul\":13370:13385   */\n      revert\n        /* \"#utility.yul\":13396:13918   */\n    tag_111:\n        /* \"#utility.yul\":13474:13478   */\n      0x00\n        /* \"#utility.yul\":13480:13486   */\n      dup1\n        /* \"#utility.yul\":13540:13551   */\n      dup4\n        /* \"#utility.yul\":13527:13552   */\n      calldataload\n        /* \"#utility.yul\":13634:13636   */\n      0x1e\n        /* \"#utility.yul\":13630:13637   */\n      not\n        /* \"#utility.yul\":13619:13627   */\n      dup5\n        /* \"#utility.yul\":13603:13617   */\n      calldatasize\n        /* \"#utility.yul\":13599:13628   */\n      sub\n        /* \"#utility.yul\":13595:13638   */\n      add\n        /* \"#utility.yul\":13575:13593   */\n      dup2\n        /* \"#utility.yul\":13571:13639   */\n      slt\n        /* \"#utility.yul\":13561:13657   */\n      tag_497\n      jumpi\n        /* \"#utility.yul\":13653:13654   */\n      0x00\n        /* \"#utility.yul\":13650:13651   */\n      dup1\n        /* \"#utility.yul\":13643:13655   */\n      revert\n        /* \"#utility.yul\":13561:13657   */\n    tag_497:\n        /* \"#utility.yul\":13680:13713   */\n      dup4\n      add\n        /* \"#utility.yul\":13732:13752   */\n      dup1\n      calldataload\n      swap2\n      pop\n        /* \"#utility.yul\":13775:13793   */\n      0xffffffffffffffff\n        /* \"#utility.yul\":13764:13794   */\n      dup3\n      gt\n        /* \"#utility.yul\":13761:13811   */\n      iszero\n      tag_498\n      jumpi\n        /* \"#utility.yul\":13807:13808   */\n      0x00\n        /* \"#utility.yul\":13804:13805   */\n      dup1\n        /* \"#utility.yul\":13797:13809   */\n      revert\n        /* \"#utility.yul\":13761:13811   */\n    tag_498:\n        /* \"#utility.yul\":13840:13844   */\n      0x20\n        /* \"#utility.yul\":13828:13845   */\n      add\n      swap2\n      pop\n        /* \"#utility.yul\":13871:13885   */\n      calldatasize\n        /* \"#utility.yul\":13867:13894   */\n      dup2\n      swap1\n      sub\n        /* \"#utility.yul\":13857:13895   */\n      dup3\n      sgt\n        /* \"#utility.yul\":13854:13912   */\n      iszero\n      tag_411\n      jumpi\n        /* \"#utility.yul\":13908:13909   */\n      0x00\n        /* \"#utility.yul\":13905:13906   */\n      dup1\n        /* \"#utility.yul\":13898:13910   */\n      revert\n        /* \"#utility.yul\":13923:14042   */\n    tag_400:\n        /* \"#utility.yul\":14016:14017   */\n      0x04\n        /* \"#utility.yul\":14009:14014   */\n      dup2\n        /* \"#utility.yul\":14006:14018   */\n      lt\n        /* \"#utility.yul\":13996:14036   */\n      tag_359\n      jumpi\n        /* \"#utility.yul\":14032:14033   */\n      0x00\n        /* \"#utility.yul\":14029:14030   */\n      dup1\n        /* \"#utility.yul\":14022:14034   */\n      revert\n        /* \"#utility.yul\":14047:14880   */\n    tag_115:\n        /* \"#utility.yul\":14218:14223   */\n      dup2\n        /* \"#utility.yul\":14205:14224   */\n      calldataload\n        /* \"#utility.yul\":14233:14263   */\n      tag_503\n        /* \"#utility.yul\":14255:14262   */\n      dup2\n        /* \"#utility.yul\":14233:14263   */\n      tag_399\n      jump\t// in\n    tag_503:\n        /* \"#utility.yul\":14282:14293   */\n      dup2\n      sload\n      not(0xff)\n        /* \"#utility.yul\":14370:14387   */\n      dup2\n      and\n        /* \"#utility.yul\":14323:14338   */\n      swap2\n      iszero\n        /* \"#utility.yul\":14316:14339   */\n      iszero\n        /* \"#utility.yul\":14341:14344   */\n      0xff\n        /* \"#utility.yul\":14312:14345   */\n      and\n        /* \"#utility.yul\":14367:14392   */\n      swap2\n      dup3\n      or\n        /* \"#utility.yul\":14354:14393   */\n      dup4\n      sstore\n        /* \"#utility.yul\":14441:14443   */\n      0x20\n        /* \"#utility.yul\":14430:14444   */\n      dup5\n      add\n        /* \"#utility.yul\":14417:14445   */\n      calldataload\n        /* \"#utility.yul\":14454:14484   */\n      tag_504\n        /* \"#utility.yul\":14417:14445   */\n      dup2\n        /* \"#utility.yul\":14454:14484   */\n      tag_399\n      jump\t// in\n    tag_504:\n        /* \"#utility.yul\":14540:14545   */\n      0xff00\n        /* \"#utility.yul\":14521:14536   */\n      swap1\n      iszero\n        /* \"#utility.yul\":14514:14537   */\n      iszero\n        /* \"#utility.yul\":14511:14512   */\n      0x08\n        /* \"#utility.yul\":14507:14538   */\n      shl\n        /* \"#utility.yul\":14503:14546   */\n      and\n      not(0xffff)\n        /* \"#utility.yul\":14574:14593   */\n      dup3\n      and\n        /* \"#utility.yul\":14571:14598   */\n      dup4\n      or\n        /* \"#utility.yul\":14568:14603   */\n      dup2\n      or\n        /* \"#utility.yul\":14555:14604   */\n      dup5\n      sstore\n        /* \"#utility.yul\":14652:14654   */\n      0x40\n        /* \"#utility.yul\":14641:14655   */\n      dup6\n      add\n        /* \"#utility.yul\":14628:14656   */\n      calldataload\n        /* \"#utility.yul\":14665:14716   */\n      tag_505\n        /* \"#utility.yul\":14628:14656   */\n      dup2\n        /* \"#utility.yul\":14665:14716   */\n      tag_400\n      jump\t// in\n    tag_505:\n        /* \"#utility.yul\":14725:14776   */\n      tag_506\n        /* \"#utility.yul\":14768:14775   */\n      dup2\n        /* \"#utility.yul\":14725:14776   */\n      tag_393\n      jump\t// in\n    tag_506:\n        /* \"#utility.yul\":14863:14871   */\n      0xff0000\n        /* \"#utility.yul\":14853:14860   */\n      dup2\n        /* \"#utility.yul\":14849:14851   */\n      0x10\n        /* \"#utility.yul\":14845:14861   */\n      shl\n        /* \"#utility.yul\":14841:14872   */\n      and\n        /* \"#utility.yul\":14835:14837   */\n      dup5\n        /* \"#utility.yul\":14823:14831   */\n      0xffffff\n        /* \"#utility.yul\":14819:14832   */\n      not\n        /* \"#utility.yul\":14815:14817   */\n      dup6\n        /* \"#utility.yul\":14811:14833   */\n      and\n        /* \"#utility.yul\":14808:14838   */\n      or\n        /* \"#utility.yul\":14804:14806   */\n      dup4\n        /* \"#utility.yul\":14801:14839   */\n      or\n        /* \"#utility.yul\":14798:14873   */\n      or\n        /* \"#utility.yul\":14792:14796   */\n      dup6\n        /* \"#utility.yul\":14785:14874   */\n      sstore\n      pop\n      pop\n      pop\n      pop\n        /* \"#utility.yul\":14047:14880   */\n      pop\n      pop\n      jump\t// out\n        /* \"#utility.yul\":14885:15117   */\n    tag_257:\n        /* \"#utility.yul\":14924:14927   */\n      0x00\n        /* \"#utility.yul\":14945:14962   */\n      0x01\n      dup3\n      add\n        /* \"#utility.yul\":14942:15082   */\n      tag_508\n      jumpi\n        /* \"#utility.yul\":15004:15014   */\n      0x4e487b71\n        /* \"#utility.yul\":14999:15002   */\n      0xe0\n        /* \"#utility.yul\":14995:15015   */\n      shl\n        /* \"#utility.yul\":14992:14993   */\n      0x00\n        /* \"#utility.yul\":14985:15016   */\n      mstore\n        /* \"#utility.yul\":15039:15043   */\n      0x11\n        /* \"#utility.yul\":15036:15037   */\n      0x04\n        /* \"#utility.yul\":15029:15044   */\n      mstore\n        /* \"#utility.yul\":15067:15071   */\n      0x24\n        /* \"#utility.yul\":15064:15065   */\n      0x00\n        /* \"#utility.yul\":15057:15072   */\n      revert\n        /* \"#utility.yul\":14942:15082   */\n    tag_508:\n      pop\n        /* \"#utility.yul\":15109:15110   */\n      0x01\n        /* \"#utility.yul\":15098:15111   */\n      add\n      swap1\n        /* \"#utility.yul\":14885:15117   */\n      jump\t// out\n        /* \"#utility.yul\":15122:15683   */\n    tag_263:\n        /* \"#utility.yul\":15339:15345   */\n      dup4\n        /* \"#utility.yul\":15328:15337   */\n      dup2\n        /* \"#utility.yul\":15321:15346   */\n      mstore\n        /* \"#utility.yul\":15382:15384   */\n      0x40\n        /* \"#utility.yul\":15377:15379   */\n      0x20\n        /* \"#utility.yul\":15366:15375   */\n      dup3\n        /* \"#utility.yul\":15362:15380   */\n      add\n        /* \"#utility.yul\":15355:15385   */\n      mstore\n        /* \"#utility.yul\":15421:15427   */\n      dup2\n        /* \"#utility.yul\":15416:15418   */\n      0x40\n        /* \"#utility.yul\":15405:15414   */\n      dup3\n        /* \"#utility.yul\":15401:15419   */\n      add\n        /* \"#utility.yul\":15394:15428   */\n      mstore\n        /* \"#utility.yul\":15302:15306   */\n      0x00\n        /* \"#utility.yul\":15451:15517   */\n      0x07ffffffffffffffffffffffffffffffffffffffffffffffffffffffffffffff\n        /* \"#utility.yul\":15443:15449   */\n      dup4\n        /* \"#utility.yul\":15440:15518   */\n      gt\n        /* \"#utility.yul\":15437:15535   */\n      iszero\n      tag_510\n      jumpi\n        /* \"#utility.yul\":15531:15532   */\n      0x00\n        /* \"#utility.yul\":15528:15529   */\n      dup1\n        /* \"#utility.yul\":15521:15533   */\n      revert\n        /* \"#utility.yul\":15437:15535   */\n    tag_510:\n        /* \"#utility.yul\":15565:15571   */\n      dup3\n        /* \"#utility.yul\":15562:15563   */\n      0x05\n        /* \"#utility.yul\":15558:15572   */\n      shl\n        /* \"#utility.yul\":15622:15628   */\n      dup1\n        /* \"#utility.yul\":15614:15620   */\n      dup6\n        /* \"#utility.yul\":15609:15611   */\n      0x60\n        /* \"#utility.yul\":15598:15607   */\n      dup6\n        /* \"#utility.yul\":15594:15612   */\n      add\n        /* \"#utility.yul\":15581:15629   */\n      calldatacopy\n        /* \"#utility.yul\":15650:15672   */\n      swap2\n      swap1\n      swap2\n      add\n        /* \"#utility.yul\":15674:15676   */\n      0x60\n        /* \"#utility.yul\":15646:15677   */\n      add\n      swap5\n        /* \"#utility.yul\":15122:15683   */\n      swap4\n      pop\n      pop\n      pop\n      pop\n      jump\t// out\n        /* \"#utility.yul\":15688:15976   */\n    tag_356:\n        /* \"#utility.yul\":15770:15776   */\n      0x00\n        /* \"#utility.yul\":15823:15825   */\n      0x20\n        /* \"#utility.yul\":15811:15820   */\n      dup3\n        /* \"#utility.yul\":15802:15809   */\n      dup5\n        /* \"#utility.yul\":15798:15821   */\n      sub\n        /* \"#utility.yul\":15794:15826   */\n      slt\n        /* \"#utility.yul\":15791:15843   */\n      iszero\n      tag_512\n      jumpi\n        /* \"#utility.yul\":15839:15840   */\n      0x00\n        /* \"#utility.yul\":15836:15837   */\n      dup1\n        /* \"#utility.yul\":15829:15841   */\n      revert\n        /* \"#utility.yul\":15791:15843   */\n    tag_512:\n        /* \"#utility.yul\":15878:15887   */\n      dup2\n        /* \"#utility.yul\":15865:15888   */\n      calldataload\n        /* \"#utility.yul\":15897:15946   */\n      tag_494\n        /* \"#utility.yul\":15940:15945   */\n      dup2\n        /* \"#utility.yul\":15897:15946   */\n      tag_400\n      jump\t// in\n\n    auxdata: 0xa2646970667358221220dee9349c2da8d8c0b09cfc61436d193f631001d6c06cb54850a3f64e4ec2192e64736f6c63430008190033\n}\n",
    "bytecode": {
      "linkReferences": {},
      "object": "6080604052348015600e575f80fd5b506126bc8061001c5f395ff3fe608060405234801561000f575f80fd5b5060043610610085575f3560e01c80639a0040e4116100585780639a0040e4146100ea578063ac2f00741461010a578063acbcf3bd14610133578063dfcaab8814610146575f80fd5b80631994a615146100895780631f35b51d146100af57806321b91db5146100c45780639534e637146100d7575b5f80fd5b61009c610097366004611e63565b61015b565b6040519081526020015b60405180910390f35b6100c26100bd366004611e98565b610186565b005b61009c6100d2366004611f35565b6104c1565b6100c26100e5366004611e98565b6106b8565b6100fd6100f8366004611e98565b610982565b6040516100a69190612123565b61011d610118366004611e98565b610ed1565b6040516100a69a9998979695949392919061220c565b6100c2610141366004612289565b6110a2565b61014e61153a565b6040516100a691906122d1565b6001602052815f5260405f208181548110610174575f80fd5b905f5260205f20015f91509150505481565b5f6101908261196a565b80549091506001600160a01b031633146101bd57604051634ca8886760e01b815260040160405180910390fd5b6003604080516101608101825283546001600160a01b0316815260018401546020820152600284018054610481938692908401916101fa90612396565b80601f016020809104026020016040519081016040528092919081815260200182805461022690612396565b80156102715780601f1061024857610100808354040283529160200191610271565b820191905f5260205f20905b81548152906001019060200180831161025457829003601f168201915b5050505050815260200160038201805461028a90612396565b80601f01602080910402602001604051908101604052809291908181526020018280546102b690612396565b80156103015780601f106102d857610100808354040283529160200191610301565b820191905f5260205f20905b8154815290600101906020018083116102e457829003601f168201915b50505050508152602001600482015481526020016005820154815260200160068201805480602002602001604051908101604052809291908181526020015f905b828210156103ea578382905f5260205f2001805461035f90612396565b80601f016020809104026020016040519081016040528092919081815260200182805461038b90612396565b80156103d65780601f106103ad576101008083540402835291602001916103d6565b820191905f5260205f20905b8154815290600101906020018083116103b957829003601f168201915b505050505081526020019060010190610342565b5050509082525060078201546020808301919091526040805160608101825260088501805460ff8082161515845261010082048116151595840195909552948301949193909284019162010000900416600381111561044b5761044b61208e565b600381111561045c5761045c61208e565b905250815260098201546020820152600a9091015460ff1615156040909101526119e8565b60038111156104925761049261208e565b146104b0576040516387da8e5f60e01b815260040160405180910390fd5b600a01805460ff1916600117905550565b5f6104cc8a8a611a3d565b6104d68888611a87565b6104e08686611ad8565b6104ea8484611b1d565b6104f382611bed565b5f8054600181018255908052600b81027f290decd9548b62a8d60345a988386fc84ba6bc95484008f6362f93160ef3e563810180547fffffffffffffffffffffffff000000000000000000000000000000000000000016331781557f290decd9548b62a8d60345a988386fc84ba6bc95484008f6362f93160ef3e5648201839055907f290decd9548b62a8d60345a988386fc84ba6bc95484008f6362f93160ef3e565016105a28c8e8361242d565b50600381016105b28a8c8361242d565b50600481018890556105ca60408501602086016124f4565b6105d457866105d6565b5f5b60058201555f5b8581101561063557816006018787838181106105fb576105fb612516565b905060200281019061060d919061252a565b82546001810184555f93845260209093209092019161062c918361242d565b506001016105dd565b505f6007820155836008820161064b8282612579565b5050426009820155600a8101805460ff19169055335f818152600160208181526040808420805493840181558452908320909101859055518492917f253458ed40d765e300ef79d87f8b5a901191fbfc27d54b1ea052a6752908953c91a3509a9950505050505050505050565b5f6106c28261196a565b80549091506001600160a01b031633146106ef57604051634ca8886760e01b815260040160405180910390fd5b6003604080516101608101825283546001600160a01b031681526001840154602082015260028401805461091c9386929084019161072c90612396565b80601f016020809104026020016040519081016040528092919081815260200182805461075890612396565b80156107a35780601f1061077a576101008083540402835291602001916107a3565b820191905f5260205f20905b81548152906001019060200180831161078657829003601f168201915b505050505081526020016003820180546107bc90612396565b80601f01602080910402602001604051908101604052809291908181526020018280546107e890612396565b80156108335780601f1061080a57610100808354040283529160200191610833565b820191905f5260205f20905b81548152906001019060200180831161081657829003601f168201915b50505050508152602001600482015481526020016005820154815260200160068201805480602002602001604051908101604052809291908181526020015f905b828210156103ea578382905f5260205f2001805461089190612396565b80601f01602080910402602001604051908101604052809291908181526020018280546108bd90612396565b80156109085780601f106108df57610100808354040283529160200191610908565b820191905f5260205f20905b8154815290600101906020018083116108eb57829003601f168201915b505050505081526020019060010190610874565b600381111561092d5761092d61208e565b0361094b57604051639b22ddeb60e01b815260040160405180910390fd5b60016005820155604051829033907f563a96cebb2dd00c04fe16ab3f34901e3749b13da3040e6cae0b5a55ea4daee2905f90a35050565b61098a611d31565b5f6109948361196a565b60408051610160810190915281546001600160a01b0316815260028201805492935090916020830191906109c790612396565b80601f01602080910402602001604051908101604052809291908181526020018280546109f390612396565b8015610a3e5780601f10610a1557610100808354040283529160200191610a3e565b820191905f5260205f20905b815481529060010190602001808311610a2157829003601f168201915b50505050508152602001826003018054610a5790612396565b80601f0160208091040260200160405190810160405280929190818152602001828054610a8390612396565b8015610ace5780601f10610aa557610100808354040283529160200191610ace565b820191905f5260205f20905b815481529060010190602001808311610ab157829003601f168201915b505050505081526020018260040154815260200182600501548152602001610dca83604051806101600160405290815f82015f9054906101000a90046001600160a01b03166001600160a01b03166001600160a01b0316815260200160018201548152602001600282018054610b4390612396565b80601f0160208091040260200160405190810160405280929190818152602001828054610b6f90612396565b8015610bba5780601f10610b9157610100808354040283529160200191610bba565b820191905f5260205f20905b815481529060010190602001808311610b9d57829003601f168201915b50505050508152602001600382018054610bd390612396565b80601f0160208091040260200160405190810160405280929190818152602001828054610bff90612396565b8015610c4a5780601f10610c2157610100808354040283529160200191610c4a565b820191905f5260205f20905b815481529060010190602001808311610c2d57829003601f168201915b50505050508152602001600482015481526020016005820154815260200160068201805480602002602001604051908101604052809291908181526020015f905b82821015610d33578382905f5260205f20018054610ca890612396565b80601f0160208091040260200160405190810160405280929190818152602001828054610cd490612396565b8015610d1f5780601f10610cf657610100808354040283529160200191610d1f565b820191905f5260205f20905b815481529060010190602001808311610d0257829003601f168201915b505050505081526020019060010190610c8b565b5050509082525060078201546020808301919091526040805160608101825260088501805460ff80821615158452610100820481161515958401959095529483019491939092840191620100009004166003811115610d9457610d9461208e565b6003811115610da557610da561208e565b905250815260098201546020820152600a9091015460ff161515604090910152611c4a565b815260078301546020808301919091526040805160608101825260088601805460ff80821615158452610100820481161515958401959095529483019491939092840191620100009004166003811115610e2657610e2661208e565b6003811115610e3757610e3761208e565b90525081525f858152600260209081526040808320338085529083528184205460ff16151583860152888452600583528184209084528252918290208054835181840281018401855281815293909401939091830182828015610eb757602002820191905f5260205f20905b815481526020019060010190808311610ea3575b505050505081526020018260090154815250915050919050565b5f8181548110610edf575f80fd5b5f9182526020909120600b90910201805460018201546002830180546001600160a01b039093169450909291610f1490612396565b80601f0160208091040260200160405190810160405280929190818152602001828054610f4090612396565b8015610f8b5780601f10610f6257610100808354040283529160200191610f8b565b820191905f5260205f20905b815481529060010190602001808311610f6e57829003601f168201915b505050505090806003018054610fa090612396565b80601f0160208091040260200160405190810160405280929190818152602001828054610fcc90612396565b80156110175780601f10610fee57610100808354040283529160200191611017565b820191905f5260205f20905b815481529060010190602001808311610ffa57829003601f168201915b5050506004840154600585015460078601546040805160608101825260088901805460ff808216151584526101008204811615156020850152999a9699959850939650909390929184019162010000900416600381111561107a5761107a61208e565b600381111561108b5761108b61208e565b9052506009820154600a9092015490919060ff168a565b5f6110ac8461196a565b90506001604080516101608101825283546001600160a01b03168152600184015460208201526002840180546112db938692908401916110eb90612396565b80601f016020809104026020016040519081016040528092919081815260200182805461111790612396565b80156111625780601f1061113957610100808354040283529160200191611162565b820191905f5260205f20905b81548152906001019060200180831161114557829003601f168201915b5050505050815260200160038201805461117b90612396565b80601f01602080910402602001604051908101604052809291908181526020018280546111a790612396565b80156111f25780601f106111c9576101008083540402835291602001916111f2565b820191905f5260205f20905b8154815290600101906020018083116111d557829003601f168201915b50505050508152602001600482015481526020016005820154815260200160068201805480602002602001604051908101604052809291908181526020015f905b828210156103ea578382905f5260205f2001805461125090612396565b80601f016020809104026020016040519081016040528092919081815260200182805461127c90612396565b80156112c75780601f1061129e576101008083540402835291602001916112c7565b820191905f5260205f20905b8154815290600101906020018083116112aa57829003601f168201915b505050505081526020019060010190611233565b60038111156112ec576112ec61208e565b1461130a5760405163b4f0e2d960e01b815260040160405180910390fd5b5f84815260026020908152604080832033845290915290205460ff161561134457604051637c9a1cf960e01b815260040160405180910390fd5b815f8190036113665760405163be5a2acd60e01b815260040160405180910390fd5b600882015460ff1615801561137b5750600181115b156113995760405163baabd10760e01b815260040160405180910390fd5b5f5b8181101561147b575f8585838181106113b6576113b6612516565b905060200201359050836006018054905081106113e6576040516370039a2560e01b815260040160405180910390fd5b5f5b828110156114485786868281811061140257611402612516565b9050602002013587878581811061141b5761141b612516565b905060200201350361144057604051630fe3ee1360e11b815260040160405180910390fd5b6001016113e8565b505f878152600460209081526040808320848452909152812080549161146d836125f0565b90915550505060010161139b565b50600782018054905f61148d836125f0565b90915550505f85815260026020908152604080832033808552908352818420805460ff19166001908117909155808452828520805491820181558552838520018990558884526005835281842090845290915290206114ed908585611dae565b50336001600160a01b03167f871b62f932d6ef8afa59aed962334ae3a32efd388f7ec8932a67b7e47ae7795a86868660405161152b93929190612614565b60405180910390a25050505050565b335f90815260016020526040812080546060928167ffffffffffffffff811115611566576115666123ce565b60405190808252806020026020018201604052801561159f57816020015b61158c611df7565b8152602001906001900390816115845790505b5090505f5b82811015611962575f8482815481106115bf576115bf612516565b905f5260205f20015490505f8082815481106115dd576115dd612516565b5f9182526020909120600b90910201600a81015490915060ff161561160357505061195a565b604080516101008101825282546001600160a01b0316815260208101849052600283018054919283019161163690612396565b80601f016020809104026020016040519081016040528092919081815260200182805461166290612396565b80156116ad5780601f10611684576101008083540402835291602001916116ad565b820191905f5260205f20905b81548152906001019060200180831161169057829003601f168201915b505050505081526020018260070154815260200161190883604051806101600160405290815f82015f9054906101000a90046001600160a01b03166001600160a01b03166001600160a01b031681526020016001820154815260200160028201805461171890612396565b80601f016020809104026020016040519081016040528092919081815260200182805461174490612396565b801561178f5780601f106117665761010080835404028352916020019161178f565b820191905f5260205f20905b81548152906001019060200180831161177257829003601f168201915b505050505081526020016003820180546117a890612396565b80601f01602080910402602001604051908101604052809291908181526020018280546117d490612396565b801561181f5780601f106117f65761010080835404028352916020019161181f565b820191905f5260205f20905b81548152906001019060200180831161180257829003601f168201915b50505050508152602001600482015481526020016005820154815260200160068201805480602002602001604051908101604052809291908181526020015f905b828210156103ea578382905f5260205f2001805461187d90612396565b80601f01602080910402602001604051908101604052809291908181526020018280546118a990612396565b80156118f45780601f106118cb576101008083540402835291602001916118f4565b820191905f5260205f20905b8154815290600101906020018083116118d757829003601f168201915b505050505081526020019060010190611860565b60038111156119195761191961208e565b81526020018260040154815260200182600501548152602001826009015481525084848151811061194c5761194c612516565b602002602001018190525050505b6001016115a4565b509392505050565b5f80548210611994576040516302708a4d60e21b8152600481018390526024015b60405180910390fd5b5f8083815481106119a7576119a7612516565b5f9182526020909120600b90910201600a81015490915060ff16156119e2576040516302708a4d60e21b81526004810184905260240161198b565b92915050565b5f42826080015111156119fc57505f919050565b8160a00151600103611a1057506003919050565b60018260a00151118015611a285750428260a0015111155b15611a3557506002919050565b506001919050565b806003811015611a60576040516324ace35560e01b815260040160405180910390fd5b6064811115611a8257604051632b5df40f60e21b815260040160405180910390fd5b505050565b808015801590611a975750600a81105b15611ab557604051631b0bf73560e21b815260040160405180910390fd5b6103e8811115611a8257604051631b0fce8360e01b815260040160405180910390fd5b42821015611af957604051633eb2d8c560e01b815260040160405180910390fd5b818111611b19576040516371f3286160e11b815260040160405180910390fd5b5050565b806002811015611b4057604051638ee5f57d60e01b815260040160405180910390fd5b600a811115611b625760405163701d39f160e11b815260040160405180910390fd5b5f5b81811015611be7575f848483818110611b7f57611b7f612516565b9050602002810190611b91919061252a565b9150506001811015611bb9576040516323bae5c560e11b81526004810183905260240161198b565b6064811115611bde57604051631e8a182560e21b81526004810183905260240161198b565b50600101611b64565b50505050565b611bfd60408201602083016124f4565b8015611c2957506002611c16606083016040840161266b565b6003811115611c2757611c2761208e565b145b15611c475760405163dc2ca70160e01b815260040160405180910390fd5b50565b60c0810151516060905f8167ffffffffffffffff811115611c6d57611c6d6123ce565b604051908082528060200260200182016040528015611cb257816020015b60408051808201909152606081525f6020820152815260200190600190039081611c8b5790505b5090505f5b828110156119625760405180604001604052808660c001518381518110611ce057611ce0612516565b6020908102919091018101518252878101515f90815260048252604080822086835283529020549101528251839083908110611d1e57611d1e612516565b6020908102919091010152600101611cb7565b6040518061016001604052805f6001600160a01b0316815260200160608152602001606081526020015f81526020015f8152602001606081526020015f8152602001611d93604080516060810182525f80825260208201819052909182015290565b81526020015f15158152602001606081526020015f81525090565b828054828255905f5260205f20908101928215611de7579160200282015b82811115611de7578235825591602001919060010190611dcc565b50611df3929150611e4f565b5090565b6040518061010001604052805f6001600160a01b031681526020015f8152602001606081526020015f81526020015f6003811115611e3757611e3761208e565b81526020015f81526020015f81526020015f81525090565b5b80821115611df3575f8155600101611e50565b5f8060408385031215611e74575f80fd5b82356001600160a01b0381168114611e8a575f80fd5b946020939093013593505050565b5f60208284031215611ea8575f80fd5b5035919050565b5f8083601f840112611ebf575f80fd5b50813567ffffffffffffffff811115611ed6575f80fd5b602083019150836020828501011115611eed575f80fd5b9250929050565b5f8083601f840112611f04575f80fd5b50813567ffffffffffffffff811115611f1b575f80fd5b6020830191508360208260051b8501011115611eed575f80fd5b5f805f805f805f805f898b03610100811215611f4f575f80fd5b8a3567ffffffffffffffff80821115611f66575f80fd5b611f728e838f01611eaf565b909c509a5060208d0135915080821115611f8a575f80fd5b611f968e838f01611eaf565b909a50985060408d0135975060608d0135965060808d0135915080821115611fbc575f80fd5b50611fc98d828e01611ef4565b9095509350506060609f1982011215611fe0575f80fd5b5060a08a0190509295985092959850929598565b5f81518084528060208401602086015e5f602082860101526020601f19601f83011685010191505092915050565b5f82825180855260208086019550808260051b8401018186015f5b8481101561208157601f1986840301895281516040815181865261206382870182611ff4565b9287015195870195909552509884019892509083019060010161203d565b5090979650505050505050565b634e487b7160e01b5f52602160045260245ffd5b60048110611c4757634e487b7160e01b5f52602160045260245ffd5b80511515825260208101511515602083015260408101516120de816120a2565b806040840152505050565b5f815180845260208085019450602084015f5b83811015612118578151875295820195908201906001016120fc565b509495945050505050565b6020815261213d6020820183516001600160a01b03169052565b5f60208301516101a080604085015261215a6101c0850183611ff4565b91506040850151601f19808685030160608701526121788483611ff4565b935060608701516080870152608087015160a087015260a08701519150808685030160c08701526121a98483612022565b935060c087015160e087015260e087015191506101006121cb818801846120be565b870151151561016087015261012087015186850390910161018087015290506121f483826120e9565b92505061014085015181850152508091505092915050565b5f6101806001600160a01b038d1683528b60208401528060408401526122348184018c611ff4565b90508281036060840152612248818b611ff4565b9150508760808301528660a08301528560c083015261226a60e08301866120be565b836101408301528215156101608301529b9a5050505050505050505050565b5f805f6040848603121561229b575f80fd5b83359250602084013567ffffffffffffffff8111156122b8575f80fd5b6122c486828701611ef4565b9497909650939450505050565b5f60208083018184528085518083526040925060408601915060408160051b8701018488015f5b8381101561238857603f1989840301855281516101006001600160a01b038251168552888201518986015287820151818987015261233882870182611ff4565b9150506060808301518187015250608080830151612355816120a2565b9086015260a0828101519086015260c0808301519086015260e091820151919094015293860193908601906001016122f8565b509098975050505050505050565b600181811c908216806123aa57607f821691505b6020821081036123c857634e487b7160e01b5f52602260045260245ffd5b50919050565b634e487b7160e01b5f52604160045260245ffd5b601f821115611a8257805f5260205f20601f840160051c810160208510156124075750805b601f840160051c820191505b81811015612426575f8155600101612413565b5050505050565b67ffffffffffffffff831115612445576124456123ce565b612459836124538354612396565b836123e2565b5f601f84116001811461248a575f85156124735750838201355b5f19600387901b1c1916600186901b178355612426565b5f83815260208120601f198716915b828110156124b95786850135825560209485019460019092019101612499565b50868210156124d5575f1960f88860031b161c19848701351681555b505060018560011b0183555050505050565b8015158114611c47575f80fd5b5f60208284031215612504575f80fd5b813561250f816124e7565b9392505050565b634e487b7160e01b5f52603260045260245ffd5b5f808335601e1984360301811261253f575f80fd5b83018035915067ffffffffffffffff821115612559575f80fd5b602001915036819003821315611eed575f80fd5b60048110611c47575f80fd5b8135612584816124e7565b815460ff19811691151560ff16918217835560208401356125a4816124e7565b61ff0090151560081b1661ffff19821683178117845560408501356125c88161256d565b6125d1816120a2565b62ff00008160101b168462ffffff198516178317178555505050505050565b5f6001820161260d57634e487b7160e01b5f52601160045260245ffd5b5060010190565b838152604060208201528160408201525f7f07ffffffffffffffffffffffffffffffffffffffffffffffffffffffffffffff831115612651575f80fd5b8260051b8085606085013791909101606001949350505050565b5f6020828403121561267b575f80fd5b813561250f8161256d56fea2646970667358221220dee9349c2da8d8c0b09cfc61436d193f631001d6c06cb54850a3f64e4ec2192e64736f6c63430008190033",
      "opcodes": "PUSH1 0x80 PUSH1 0x40 MSTORE CALLVALUE DUP1 ISZERO PUSH1 0xE JUMPI PUSH0 DUP1 REVERT JUMPDEST POP PUSH2 0x26BC DUP1 PUSH2 0x1C PUSH0 CODECOPY PUSH0 RETURN INVALID PUSH1 0x80 PUSH1 0x40 MSTORE CALLVALUE DUP1 ISZERO PUSH2 0xF JUMPI PUSH0 DUP1 REVERT JUMPDEST POP PUSH1 0x4 CALLDATASIZE LT PUSH2 0x85 JUMPI PUSH0 CALLDATALOAD PUSH1 0xE0 SHR DUP1 PUSH4 0x9A0040E4 GT PUSH2 0x58 JUMPI DUP1 PUSH4 0x9A0040E4 EQ PUSH2 0xEA JUMPI DUP1 PUSH4 0xAC2F0074 EQ PUSH2 0x10A JUMPI DUP1 PUSH4 0xACBCF3BD EQ PUSH2 0x133 JUMPI DUP1 PUSH4 0xDFCAAB88 EQ PUSH2 0x146 JUMPI PUSH0 DUP1 REVERT JUMPDEST DUP1 PUSH4 0x1994A615 EQ PUSH2 0x89 JUMPI DUP1 PUSH4 0x1F35B51D EQ PUSH2 0xAF JUMPI DUP1 PUSH4 0x21B91DB5 EQ PUSH2 0xC4 JUMPI DUP1 PUSH4 0x9534E637 EQ PUSH2 0xD7 JUMPI JUMPDEST PUSH0 DUP1 REVERT JUMPDEST PUSH2 0x9C PUSH2 0x97 CALLDATASIZE PUSH1 0x4 PUSH2 0x1E63 JUMP JUMPDEST PUSH2 0x15B JUMP JUMPDEST PUSH1 0x40 MLOAD SWAP1 DUP2 MSTORE PUSH1 0x20 ADD JUMPDEST PUSH1 0x40 MLOAD DUP1 SWAP2 SUB SWAP1 RETURN JUMPDEST PUSH2 0xC2 PUSH2 0xBD CALLDATASIZE PUSH1 0x4 PUSH2 0x1E98 JUMP JUMPDEST PUSH2 0x186 JUMP JUMPDEST STOP JUMPDEST PUSH2 0x9C PUSH2 0xD2 CALLDATASIZE PUSH1 0x4 PUSH2 0x1F35 JUMP JUMPDEST PUSH2 0x4C1 JUMP JUMPDEST PUSH2 0xC2 PUSH2 0xE5 CALLDATASIZE PUSH1 0x4 PUSH2 0x1E98 JUMP JUMPDEST PUSH2 0x6B8 JUMP JUMPDEST PUSH2 0xFD PUSH2 0xF8 CALLDATASIZE PUSH1 0x4 PUSH2 0x1E98 JUMP JUMPDEST PUSH2 0x982 JUMP JUMPDEST PUSH1 0x40 MLOAD PUSH2 0xA6 SWAP2 SWAP1 PUSH2 0x2123 JUMP JUMPDEST PUSH2 0x11D PUSH2 0x118 CALLDATASIZE PUSH1 0x4 PUSH2 0x1E98 JUMP JUMPDEST PUSH2 0xED1 JUMP JUMPDEST PUSH1 0x40 MLOAD PUSH2 0xA6 SWAP11 SWAP10 SWAP9 SWAP8 SWAP7 SWAP6 SWAP5 SWAP4 SWAP3 SWAP2 SWAP1 PUSH2 0x220C JUMP JUMPDEST PUSH2 0xC2 PUSH2 0x141 CALLDATASIZE PUSH1 0x4 PUSH2 0x2289 JUMP JUMPDEST PUSH2 0x10A2 JUMP JUMPDEST PUSH2 0x14E PUSH2 0x153A JUMP JUMPDEST PUSH1 0x40 MLOAD PUSH2 0xA6 SWAP2 SWAP1 PUSH2 0x22D1 JUMP JUMPDEST PUSH1 0x1 PUSH1 0x20 MSTORE DUP2 PUSH0 MSTORE PUSH1 0x40 PUSH0 KECCAK256 DUP2 DUP2 SLOAD DUP2 LT PUSH2 0x174 JUMPI PUSH0 DUP1 REVERT JUMPDEST SWAP1 PUSH0 MSTORE PUSH1 0x20 PUSH0 KECCAK256 ADD PUSH0 SWAP2 POP SWAP2 POP POP SLOAD DUP2 JUMP JUMPDEST PUSH0 PUSH2 0x190 DUP3 PUSH2 0x196A JUMP JUMPDEST DUP1 SLOAD SWAP1 SWAP2 POP PUSH1 0x1 PUSH1 0x1 PUSH1 0xA0 SHL SUB AND CALLER EQ PUSH2 0x1BD JUMPI PUSH1 0x40 MLOAD PUSH4 0x4CA88867 PUSH1 0xE0 SHL DUP2 MSTORE PUSH1 0x4 ADD PUSH1 0x40 MLOAD DUP1 SWAP2 SUB SWAP1 REVERT JUMPDEST PUSH1 0x3 PUSH1 0x40 DUP1 MLOAD PUSH2 0x160 DUP2 ADD DUP3 MSTORE DUP4 SLOAD PUSH1 0x1 PUSH1 0x1 PUSH1 0xA0 SHL SUB AND DUP2 MSTORE PUSH1 0x1 DUP5 ADD SLOAD PUSH1 0x20 DUP3 ADD MSTORE PUSH1 0x2 DUP5 ADD DUP1 SLOAD PUSH2 0x481 SWAP4 DUP7 SWAP3 SWAP1 DUP5 ADD SWAP2 PUSH2 0x1FA SWAP1 PUSH2 0x2396 JUMP JUMPDEST DUP1 PUSH1 0x1F ADD PUSH1 0x20 DUP1 SWAP2 DIV MUL PUSH1 0x20 ADD PUSH1 0x40 MLOAD SWAP1 DUP2 ADD PUSH1 0x40 MSTORE DUP1 SWAP3 SWAP2 SWAP1 DUP2 DUP2 MSTORE PUSH1 0x20 ADD DUP3 DUP1 SLOAD PUSH2 0x226 SWAP1 PUSH2 0x2396 JUMP JUMPDEST DUP1 ISZERO PUSH2 0x271 JUMPI DUP1 PUSH1 0x1F LT PUSH2 0x248 JUMPI PUSH2 0x100 DUP1 DUP4 SLOAD DIV MUL DUP4 MSTORE SWAP2 PUSH1 0x20 ADD SWAP2 PUSH2 0x271 JUMP JUMPDEST DUP3 ADD SWAP2 SWAP1 PUSH0 MSTORE PUSH1 0x20 PUSH0 KECCAK256 SWAP1 JUMPDEST DUP2 SLOAD DUP2 MSTORE SWAP1 PUSH1 0x1 ADD SWAP1 PUSH1 0x20 ADD DUP1 DUP4 GT PUSH2 0x254 JUMPI DUP3 SWAP1 SUB PUSH1 0x1F AND DUP3 ADD SWAP2 JUMPDEST POP POP POP POP POP DUP2 MSTORE PUSH1 0x20 ADD PUSH1 0x3 DUP3 ADD DUP1 SLOAD PUSH2 0x28A SWAP1 PUSH2 0x2396 JUMP JUMPDEST DUP1 PUSH1 0x1F ADD PUSH1 0x20 DUP1 SWAP2 DIV MUL PUSH1 0x20 ADD PUSH1 0x40 MLOAD SWAP1 DUP2 ADD PUSH1 0x40 MSTORE DUP1 SWAP3 SWAP2 SWAP1 DUP2 DUP2 MSTORE PUSH1 0x20 ADD DUP3 DUP1 SLOAD PUSH2 0x2B6 SWAP1 PUSH2 0x2396 JUMP JUMPDEST DUP1 ISZERO PUSH2 0x301 JUMPI DUP1 PUSH1 0x1F LT PUSH2 0x2D8 JUMPI PUSH2 0x100 DUP1 DUP4 SLOAD DIV MUL DUP4 MSTORE SWAP2 PUSH1 0x20 ADD SWAP2 PUSH2 0x301 JUMP JUMPDEST DUP3 ADD SWAP2 SWAP1 PUSH0 MSTORE PUSH1 0x20 PUSH0 KECCAK256 SWAP1 JUMPDEST DUP2 SLOAD DUP2 MSTORE SWAP1 PUSH1 0x1 ADD SWAP1 PUSH1 0x20 ADD DUP1 DUP4 GT PUSH2 0x2E4 JUMPI DUP3 SWAP1 SUB PUSH1 0x1F AND DUP3 ADD SWAP2 JUMPDEST POP POP POP POP POP DUP2 MSTORE PUSH1 0x20 ADD PUSH1 0x4 DUP3 ADD SLOAD DUP2 MSTORE PUSH1 0x20 ADD PUSH1 0x5 DUP3 ADD SLOAD DUP2 MSTORE PUSH1 0x20 ADD PUSH1 0x6 DUP3 ADD DUP1 SLOAD DUP1 PUSH1 0x20 MUL PUSH1 0x20 ADD PUSH1 0x40 MLOAD SWAP1 DUP2 ADD PUSH1 0x40 MSTORE DUP1 SWAP3 SWAP2 SWAP1 DUP2 DUP2 MSTORE PUSH1 0x20 ADD PUSH0 SWAP1 JUMPDEST DUP3 DUP3 LT ISZERO PUSH2 0x3EA JUMPI DUP4 DUP3 SWAP1 PUSH0 MSTORE PUSH1 0x20 PUSH0 KECCAK256 ADD DUP1 SLOAD PUSH2 0x35F SWAP1 PUSH2 0x2396 JUMP JUMPDEST DUP1 PUSH1 0x1F ADD PUSH1 0x20 DUP1 SWAP2 DIV MUL PUSH1 0x20 ADD PUSH1 0x40 MLOAD SWAP1 DUP2 ADD PUSH1 0x40 MSTORE DUP1 SWAP3 SWAP2 SWAP1 DUP2 DUP2 MSTORE PUSH1 0x20 ADD DUP3 DUP1 SLOAD PUSH2 0x38B SWAP1 PUSH2 0x2396 JUMP JUMPDEST DUP1 ISZERO PUSH2 0x3D6 JUMPI DUP1 PUSH1 0x1F LT PUSH2 0x3AD JUMPI PUSH2 0x100 DUP1 DUP4 SLOAD DIV MUL DUP4 MSTORE SWAP2 PUSH1 0x20 ADD SWAP2 PUSH2 0x3D6 JUMP JUMPDEST DUP3 ADD SWAP2 SWAP1 PUSH0 MSTORE PUSH1 0x20 PUSH0 KECCAK256 SWAP1 JUMPDEST DUP2 SLOAD DUP2 MSTORE SWAP1 PUSH1 0x1 ADD SWAP1 PUSH1 0x20 ADD DUP1 DUP4 GT PUSH2 0x3B9 JUMPI DUP3 SWAP1 SUB PUSH1 0x1F AND DUP3 ADD SWAP2 JUMPDEST POP POP POP POP POP DUP2 MSTORE PUSH1 0x20 ADD SWAP1 PUSH1 0x1 ADD SWAP1 PUSH2 0x342 JUMP JUMPDEST POP POP POP SWAP1 DUP3 MSTORE POP PUSH1 0x7 DUP3 ADD SLOAD PUSH1 0x20 DUP1 DUP4 ADD SWAP2 SWAP1 SWAP2 MSTORE PUSH1 0x40 DUP1 MLOAD PUSH1 0x60 DUP2 ADD DUP3 MSTORE PUSH1 0x8 DUP6 ADD DUP1 SLOAD PUSH1 0xFF DUP1 DUP3 AND ISZERO ISZERO DUP5 MSTORE PUSH2 0x100 DUP3 DIV DUP2 AND ISZERO ISZERO SWAP6 DUP5 ADD SWAP6 SWAP1 SWAP6 MSTORE SWAP5 DUP4 ADD SWAP5 SWAP2 SWAP4 SWAP1 SWAP3 DUP5 ADD SWAP2 PUSH3 0x10000 SWAP1 DIV AND PUSH1 0x3 DUP2 GT ISZERO PUSH2 0x44B JUMPI PUSH2 0x44B PUSH2 0x208E JUMP JUMPDEST PUSH1 0x3 DUP2 GT ISZERO PUSH2 0x45C JUMPI PUSH2 0x45C PUSH2 0x208E JUMP JUMPDEST SWAP1 MSTORE POP DUP2 MSTORE PUSH1 0x9 DUP3 ADD SLOAD PUSH1 0x20 DUP3 ADD MSTORE PUSH1 0xA SWAP1 SWAP2 ADD SLOAD PUSH1 0xFF AND ISZERO ISZERO PUSH1 0x40 SWAP1 SWAP2 ADD MSTORE PUSH2 0x19E8 JUMP JUMPDEST PUSH1 0x3 DUP2 GT ISZERO PUSH2 0x492 JUMPI PUSH2 0x492 PUSH2 0x208E JUMP JUMPDEST EQ PUSH2 0x4B0 JUMPI PUSH1 0x40 MLOAD PUSH4 0x87DA8E5F PUSH1 0xE0 SHL DUP2 MSTORE PUSH1 0x4 ADD PUSH1 0x40 MLOAD DUP1 SWAP2 SUB SWAP1 REVERT JUMPDEST PUSH1 0xA ADD DUP1 SLOAD PUSH1 0xFF NOT AND PUSH1 0x1 OR SWAP1 SSTORE POP JUMP JUMPDEST PUSH0 PUSH2 0x4CC DUP11 DUP11 PUSH2 0x1A3D JUMP JUMPDEST PUSH2 0x4D6 DUP9 DUP9 PUSH2 0x1A87 JUMP JUMPDEST PUSH2 0x4E0 DUP7 DUP7 PUSH2 0x1AD8 JUMP JUMPDEST PUSH2 0x4EA DUP5 DUP5 PUSH2 0x1B1D JUMP JUMPDEST PUSH2 0x4F3 DUP3 PUSH2 0x1BED JUMP JUMPDEST PUSH0 DUP1 SLOAD PUSH1 0x1 DUP2 ADD DUP3 SSTORE SWAP1 DUP1 MSTORE PUSH1 0xB DUP2 MUL PUSH32 0x290DECD9548B62A8D60345A988386FC84BA6BC95484008F6362F93160EF3E563 DUP2 ADD DUP1 SLOAD PUSH32 0xFFFFFFFFFFFFFFFFFFFFFFFF0000000000000000000000000000000000000000 AND CALLER OR DUP2 SSTORE PUSH32 0x290DECD9548B62A8D60345A988386FC84BA6BC95484008F6362F93160EF3E564 DUP3 ADD DUP4 SWAP1 SSTORE SWAP1 PUSH32 0x290DECD9548B62A8D60345A988386FC84BA6BC95484008F6362F93160EF3E565 ADD PUSH2 0x5A2 DUP13 DUP15 DUP4 PUSH2 0x242D JUMP JUMPDEST POP PUSH1 0x3 DUP2 ADD PUSH2 0x5B2 DUP11 DUP13 DUP4 PUSH2 0x242D JUMP JUMPDEST POP PUSH1 0x4 DUP2 ADD DUP9 SWAP1 SSTORE PUSH2 0x5CA PUSH1 0x40 DUP6 ADD PUSH1 0x20 DUP7 ADD PUSH2 0x24F4 JUMP JUMPDEST PUSH2 0x5D4 JUMPI DUP7 PUSH2 0x5D6 JUMP JUMPDEST PUSH0 JUMPDEST PUSH1 0x5 DUP3 ADD SSTORE PUSH0 JUMPDEST DUP6 DUP2 LT ISZERO PUSH2 0x635 JUMPI DUP2 PUSH1 0x6 ADD DUP8 DUP8 DUP4 DUP2 DUP2 LT PUSH2 0x5FB JUMPI PUSH2 0x5FB PUSH2 0x2516 JUMP JUMPDEST SWAP1 POP PUSH1 0x20 MUL DUP2 ADD SWAP1 PUSH2 0x60D SWAP2 SWAP1 PUSH2 0x252A JUMP JUMPDEST DUP3 SLOAD PUSH1 0x1 DUP2 ADD DUP5 SSTORE PUSH0 SWAP4 DUP5 MSTORE PUSH1 0x20 SWAP1 SWAP4 KECCAK256 SWAP1 SWAP3 ADD SWAP2 PUSH2 0x62C SWAP2 DUP4 PUSH2 0x242D JUMP JUMPDEST POP PUSH1 0x1 ADD PUSH2 0x5DD JUMP JUMPDEST POP PUSH0 PUSH1 0x7 DUP3 ADD SSTORE DUP4 PUSH1 0x8 DUP3 ADD PUSH2 0x64B DUP3 DUP3 PUSH2 0x2579 JUMP JUMPDEST POP POP TIMESTAMP PUSH1 0x9 DUP3 ADD SSTORE PUSH1 0xA DUP2 ADD DUP1 SLOAD PUSH1 0xFF NOT AND SWAP1 SSTORE CALLER PUSH0 DUP2 DUP2 MSTORE PUSH1 0x1 PUSH1 0x20 DUP2 DUP2 MSTORE PUSH1 0x40 DUP1 DUP5 KECCAK256 DUP1 SLOAD SWAP4 DUP5 ADD DUP2 SSTORE DUP5 MSTORE SWAP1 DUP4 KECCAK256 SWAP1 SWAP2 ADD DUP6 SWAP1 SSTORE MLOAD DUP5 SWAP3 SWAP2 PUSH32 0x253458ED40D765E300EF79D87F8B5A901191FBFC27D54B1EA052A6752908953C SWAP2 LOG3 POP SWAP11 SWAP10 POP POP POP POP POP POP POP POP POP POP JUMP JUMPDEST PUSH0 PUSH2 0x6C2 DUP3 PUSH2 0x196A JUMP JUMPDEST DUP1 SLOAD SWAP1 SWAP2 POP PUSH1 0x1 PUSH1 0x1 PUSH1 0xA0 SHL SUB AND CALLER EQ PUSH2 0x6EF JUMPI PUSH1 0x40 MLOAD PUSH4 0x4CA88867 PUSH1 0xE0 SHL DUP2 MSTORE PUSH1 0x4 ADD PUSH1 0x40 MLOAD DUP1 SWAP2 SUB SWAP1 REVERT JUMPDEST PUSH1 0x3 PUSH1 0x40 DUP1 MLOAD PUSH2 0x160 DUP2 ADD DUP3 MSTORE DUP4 SLOAD PUSH1 0x1 PUSH1 0x1 PUSH1 0xA0 SHL SUB AND DUP2 MSTORE PUSH1 0x1 DUP5 ADD SLOAD PUSH1 0x20 DUP3 ADD MSTORE PUSH1 0x2 DUP5 ADD DUP1 SLOAD PUSH2 0x91C SWAP4 DUP7 SWAP3 SWAP1 DUP5 ADD SWAP2 PUSH2 0x72C SWAP1 PUSH2 0x2396 JUMP JUMPDEST DUP1 PUSH1 0x1F ADD PUSH1 0x20 DUP1 SWAP2 DIV MUL PUSH1 0x20 ADD PUSH1 0x40 MLOAD SWAP1 DUP2 ADD PUSH1 0x40 MSTORE DUP1 SWAP3 SWAP2 SWAP1 DUP2 DUP2 MSTORE PUSH1 0x20 ADD DUP3 DUP1 SLOAD PUSH2 0x758 SWAP1 PUSH2 0x2396 JUMP JUMPDEST DUP1 ISZERO PUSH2 0x7A3 JUMPI DUP1 PUSH1 0x1F LT PUSH2 0x77A JUMPI PUSH2 0x100 DUP1 DUP4 SLOAD DIV MUL DUP4 MSTORE SWAP2 PUSH1 0x20 ADD SWAP2 PUSH2 0x7A3 JUMP JUMPDEST DUP3 ADD SWAP2 SWAP1 PUSH0 MSTORE PUSH1 0x20 PUSH0 KECCAK256 SWAP1 JUMPDEST DUP2 SLOAD DUP2 MSTORE SWAP1 PUSH1 0x1 ADD SWAP1 PUSH1 0x20 ADD DUP1 DUP4 GT PUSH2 0x786 JUMPI DUP3 SWAP1 SUB PUSH1 0x1F AND DUP3 ADD SWAP2 JUMPDEST POP POP POP POP POP DUP2 MSTORE PUSH1 0x20 ADD PUSH1 0x3 DUP3 ADD DUP1 SLOAD PUSH2 0x7BC SWAP1 PUSH2 0x2396 JUMP JUMPDEST DUP1 PUSH1 0x1F ADD PUSH1 0x20 DUP1 SWAP2 DIV MUL PUSH1 0x20 ADD PUSH1 0x40 MLOAD SWAP1 DUP2 ADD PUSH1 0x40 MSTORE DUP1 SWAP3 SWAP2 SWAP1 DUP2 DUP2 MSTORE PUSH1 0x20 ADD DUP3 DUP1 SLOAD PUSH2 0x7E8 SWAP1 PUSH2 0x2396 JUMP JUMPDEST DUP1 ISZERO PUSH2 0x833 JUMPI DUP1 PUSH1 0x1F LT PUSH2 0x80A JUMPI PUSH2 0x100 DUP1 DUP4 SLOAD DIV MUL DUP4 MSTORE SWAP2 PUSH1 0x20 ADD SWAP2 PUSH2 0x833 JUMP JUMPDEST DUP3 ADD SWAP2 SWAP1 PUSH0 MSTORE PUSH1 0x20 PUSH0 KECCAK256 SWAP1 JUMPDEST DUP2 SLOAD DUP2 MSTORE SWAP1 PUSH1 0x1 ADD SWAP1 PUSH1 0x20 ADD DUP1 DUP4 GT PUSH2 0x816 JUMPI DUP3 SWAP1 SUB PUSH1 0x1F AND DUP3 ADD SWAP2 JUMPDEST POP POP POP POP POP DUP2 MSTORE PUSH1 0x20 ADD PUSH1 0x4 DUP3 ADD SLOAD DUP2 MSTORE PUSH1 0x20 ADD PUSH1 0x5 DUP3 ADD SLOAD DUP2 MSTORE PUSH1 0x20 ADD PUSH1 0x6 DUP3 ADD DUP1 SLOAD DUP1 PUSH1 0x20 MUL PUSH1 0x20 ADD PUSH1 0x40 MLOAD SWAP1 DUP2 ADD PUSH1 0x40 MSTORE DUP1 SWAP3 SWAP2 SWAP1 DUP2 DUP2 MSTORE PUSH1 0x20 ADD PUSH0 SWAP1 JUMPDEST DUP3 DUP3 LT ISZERO PUSH2 0x3EA JUMPI DUP4 DUP3 SWAP1 PUSH0 MSTORE PUSH1 0x20 PUSH0 KECCAK256 ADD DUP1 SLOAD PUSH2 0x891 SWAP1 PUSH2 0x2396 JUMP JUMPDEST DUP1 PUSH1 0x1F ADD PUSH1 0x20 DUP1 SWAP2 DIV MUL PUSH1 0x20 ADD PUSH1 0x40 MLOAD SWAP1 DUP2 ADD PUSH1 0x40 MSTORE DUP1 SWAP3 SWAP2 SWAP1 DUP2 DUP2 MSTORE PUSH1 0x20 ADD DUP3 DUP1 SLOAD PUSH2 0x8BD SWAP1 PUSH2 0x2396 JUMP JUMPDEST DUP1 ISZERO PUSH2 0x908 JUMPI DUP1 PUSH1 0x1F LT PUSH2 0x8DF JUMPI PUSH2 0x100 DUP1 DUP4 SLOAD DIV MUL DUP4 MSTORE SWAP2 PUSH1 0x20 ADD SWAP2 PUSH2 0x908 JUMP JUMPDEST DUP3 ADD SWAP2 SWAP1 PUSH0 MSTORE PUSH1 0x20 PUSH0 KECCAK256 SWAP1 JUMPDEST DUP2 SLOAD DUP2 MSTORE SWAP1 PUSH1 0x1 ADD SWAP1 PUSH1 0x20 ADD DUP1 DUP4 GT PUSH2 0x8EB JUMPI DUP3 SWAP1 SUB PUSH1 0x1F AND DUP3 ADD SWAP2 JUMPDEST POP POP POP POP POP DUP2 MSTORE PUSH1 0x20 ADD SWAP1 PUSH1 0x1 ADD SWAP1 PUSH2 0x874 JUMP JUMPDEST PUSH1 0x3 DUP2 GT ISZERO PUSH2 0x92D JUMPI PUSH2 0x92D PUSH2 0x208E JUMP JUMPDEST SUB PUSH2 0x94B JUMPI PUSH1 0x40 MLOAD PUSH4 0x9B22DDEB PUSH1 0xE0 SHL DUP2 MSTORE PUSH1 0x4 ADD PUSH1 0x40 MLOAD DUP1 SWAP2 SUB SWAP1 REVERT JUMPDEST PUSH1 0x1 PUSH1 0x5 DUP3 ADD SSTORE PUSH1 0x40 MLOAD DUP3 SWAP1 CALLER SWAP1 PUSH32 0x563A96CEBB2DD00C04FE16AB3F34901E3749B13DA3040E6CAE0B5A55EA4DAEE2 SWAP1 PUSH0 SWAP1 LOG3 POP POP JUMP JUMPDEST PUSH2 0x98A PUSH2 0x1D31 JUMP JUMPDEST PUSH0 PUSH2 0x994 DUP4 PUSH2 0x196A JUMP JUMPDEST PUSH1 0x40 DUP1 MLOAD PUSH2 0x160 DUP2 ADD SWAP1 SWAP2 MSTORE DUP2 SLOAD PUSH1 0x1 PUSH1 0x1 PUSH1 0xA0 SHL SUB AND DUP2 MSTORE PUSH1 0x2 DUP3 ADD DUP1 SLOAD SWAP3 SWAP4 POP SWAP1 SWAP2 PUSH1 0x20 DUP4 ADD SWAP2 SWAP1 PUSH2 0x9C7 SWAP1 PUSH2 0x2396 JUMP JUMPDEST DUP1 PUSH1 0x1F ADD PUSH1 0x20 DUP1 SWAP2 DIV MUL PUSH1 0x20 ADD PUSH1 0x40 MLOAD SWAP1 DUP2 ADD PUSH1 0x40 MSTORE DUP1 SWAP3 SWAP2 SWAP1 DUP2 DUP2 MSTORE PUSH1 0x20 ADD DUP3 DUP1 SLOAD PUSH2 0x9F3 SWAP1 PUSH2 0x2396 JUMP JUMPDEST DUP1 ISZERO PUSH2 0xA3E JUMPI DUP1 PUSH1 0x1F LT PUSH2 0xA15 JUMPI PUSH2 0x100 DUP1 DUP4 SLOAD DIV MUL DUP4 MSTORE SWAP2 PUSH1 0x20 ADD SWAP2 PUSH2 0xA3E JUMP JUMPDEST DUP3 ADD SWAP2 SWAP1 PUSH0 MSTORE PUSH1 0x20 PUSH0 KECCAK256 SWAP1 JUMPDEST DUP2 SLOAD DUP2 MSTORE SWAP1 PUSH1 0x1 ADD SWAP1 PUSH1 0x20 ADD DUP1 DUP4 GT PUSH2 0xA21 JUMPI DUP3 SWAP1 SUB PUSH1 0x1F AND DUP3 ADD SWAP2 JUMPDEST POP POP POP POP POP DUP2 MSTORE PUSH1 0x20 ADD DUP3 PUSH1 0x3 ADD DUP1 SLOAD PUSH2 0xA57 SWAP1 PUSH2 0x2396 JUMP JUMPDEST DUP1 PUSH1 0x1F ADD PUSH1 0x20 DUP1 SWAP2 DIV MUL PUSH1 0x20 ADD PUSH1 0x40 MLOAD SWAP1 DUP2 ADD PUSH1 0x40 MSTORE DUP1 SWAP3 SWAP2 SWAP1 DUP2 DUP2 MSTORE PUSH1 0x20 ADD DUP3 DUP1 SLOAD PUSH2 0xA83 SWAP1 PUSH2 0x2396 JUMP JUMPDEST DUP1 ISZERO PUSH2 0xACE JUMPI DUP1 PUSH1 0x1F LT PUSH2 0xAA5 JUMPI PUSH2 0x100 DUP1 DUP4 SLOAD DIV MUL DUP4 MSTORE SWAP2 PUSH1 0x20 ADD SWAP2 PUSH2 0xACE JUMP JUMPDEST DUP3 ADD SWAP2 SWAP1 PUSH0 MSTORE PUSH1 0x20 PUSH0 KECCAK256 SWAP1 JUMPDEST DUP2 SLOAD DUP2 MSTORE SWAP1 PUSH1 0x1 ADD SWAP1 PUSH1 0x20 ADD DUP1 DUP4 GT PUSH2 0xAB1 JUMPI DUP3 SWAP1 SUB PUSH1 0x1F AND DUP3 ADD SWAP2 JUMPDEST POP POP POP POP POP DUP2 MSTORE PUSH1 0x20 ADD DUP3 PUSH1 0x4 ADD SLOAD DUP2 MSTORE PUSH1 0x20 ADD DUP3 PUSH1 0x5 ADD SLOAD DUP2 MSTORE PUSH1 0x20 ADD PUSH2 0xDCA DUP4 PUSH1 0x40 MLOAD DUP1 PUSH2 0x160 ADD PUSH1 0x40 MSTORE SWAP1 DUP2 PUSH0 DUP3 ADD PUSH0 SWAP1 SLOAD SWAP1 PUSH2 0x100 EXP SWAP1 DIV PUSH1 0x1 PUSH1 0x1 PUSH1 0xA0 SHL SUB AND PUSH1 0x1 PUSH1 0x1 PUSH1 0xA0 SHL SUB AND PUSH1 0x1 PUSH1 0x1 PUSH1 0xA0 SHL SUB AND DUP2 MSTORE PUSH1 0x20 ADD PUSH1 0x1 DUP3 ADD SLOAD DUP2 MSTORE PUSH1 0x20 ADD PUSH1 0x2 DUP3 ADD DUP1 SLOAD PUSH2 0xB43 SWAP1 PUSH2 0x2396 JUMP JUMPDEST DUP1 PUSH1 0x1F ADD PUSH1 0x20 DUP1 SWAP2 DIV MUL PUSH1 0x20 ADD PUSH1 0x40 MLOAD SWAP1 DUP2 ADD PUSH1 0x40 MSTORE DUP1 SWAP3 SWAP2 SWAP1 DUP2 DUP2 MSTORE PUSH1 0x20 ADD DUP3 DUP1 SLOAD PUSH2 0xB6F SWAP1 PUSH2 0x2396 JUMP JUMPDEST DUP1 ISZERO PUSH2 0xBBA JUMPI DUP1 PUSH1 0x1F LT PUSH2 0xB91 JUMPI PUSH2 0x100 DUP1 DUP4 SLOAD DIV MUL DUP4 MSTORE SWAP2 PUSH1 0x20 ADD SWAP2 PUSH2 0xBBA JUMP JUMPDEST DUP3 ADD SWAP2 SWAP1 PUSH0 MSTORE PUSH1 0x20 PUSH0 KECCAK256 SWAP1 JUMPDEST DUP2 SLOAD DUP2 MSTORE SWAP1 PUSH1 0x1 ADD SWAP1 PUSH1 0x20 ADD DUP1 DUP4 GT PUSH2 0xB9D JUMPI DUP3 SWAP1 SUB PUSH1 0x1F AND DUP3 ADD SWAP2 JUMPDEST POP POP POP POP POP DUP2 MSTORE PUSH1 0x20 ADD PUSH1 0x3 DUP3 ADD DUP1 SLOAD PUSH2 0xBD3 SWAP1 PUSH2 0x2396 JUMP JUMPDEST DUP1 PUSH1 0x1F ADD PUSH1 0x20 DUP1 SWAP2 DIV MUL PUSH1 0x20 ADD PUSH1 0x40 MLOAD SWAP1 DUP2 ADD PUSH1 0x40 MSTORE DUP1 SWAP3 SWAP2 SWAP1 DUP2 DUP2 MSTORE PUSH1 0x20 ADD DUP3 DUP1 SLOAD PUSH2 0xBFF SWAP1 PUSH2 0x2396 JUMP JUMPDEST DUP1 ISZERO PUSH2 0xC4A JUMPI DUP1 PUSH1 0x1F LT PUSH2 0xC21 JUMPI PUSH2 0x100 DUP1 DUP4 SLOAD DIV MUL DUP4 MSTORE SWAP2 PUSH1 0x20 ADD SWAP2 PUSH2 0xC4A JUMP JUMPDEST DUP3 ADD SWAP2 SWAP1 PUSH0 MSTORE PUSH1 0x20 PUSH0 KECCAK256 SWAP1 JUMPDEST DUP2 SLOAD DUP2 MSTORE SWAP1 PUSH1 0x1 ADD SWAP1 PUSH1 0x20 ADD DUP1 DUP4 GT PUSH2 0xC2D JUMPI DUP3 SWAP1 SUB PUSH1 0x1F AND DUP3 ADD SWAP2 JUMPDEST POP POP POP POP POP DUP2 MSTORE PUSH1 0x20 ADD PUSH1 0x4 DUP3 ADD SLOAD DUP2 MSTORE PUSH1 0x20 ADD PUSH1 0x5 DUP3 ADD SLOAD DUP2 MSTORE PUSH1 0x20 ADD PUSH1 0x6 DUP3 ADD DUP1 SLOAD DUP1 PUSH1 0x20 MUL PUSH1 0x20 ADD PUSH1 0x40 MLOAD SWAP1 DUP2 ADD PUSH1 0x40 MSTORE DUP1 SWAP3 SWAP2 SWAP1 DUP2 DUP2 MSTORE PUSH1 0x20 ADD PUSH0 SWAP1 JUMPDEST DUP3 DUP3 LT ISZERO PUSH2 0xD33 JUMPI DUP4 DUP3 SWAP1 PUSH0 MSTORE PUSH1 0x20 PUSH0 KECCAK256 ADD DUP1 SLOAD PUSH2 0xCA8 SWAP1 PUSH2 0x2396 JUMP JUMPDEST DUP1 PUSH1 0x1F ADD PUSH1 0x20 DUP1 SWAP2 DIV MUL PUSH1 0x20 ADD PUSH1 0x40 MLOAD SWAP1 DUP2 ADD PUSH1 0x40 MSTORE DUP1 SWAP3 SWAP2 SWAP1 DUP2 DUP2 MSTORE PUSH1 0x20 ADD DUP3 DUP1 SLOAD PUSH2 0xCD4 SWAP1 PUSH2 0x2396 JUMP JUMPDEST DUP1 ISZERO PUSH2 0xD1F JUMPI DUP1 PUSH1 0x1F LT PUSH2 0xCF6 JUMPI PUSH2 0x100 DUP1 DUP4 SLOAD DIV MUL DUP4 MSTORE SWAP2 PUSH1 0x20 ADD SWAP2 PUSH2 0xD1F JUMP JUMPDEST DUP3 ADD SWAP2 SWAP1 PUSH0 MSTORE PUSH1 0x20 PUSH0 KECCAK256 SWAP1 JUMPDEST DUP2 SLOAD DUP2 MSTORE SWAP1 PUSH1 0x1 ADD SWAP1 PUSH1 0x20 ADD DUP1 DUP4 GT PUSH2 0xD02 JUMPI DUP3 SWAP1 SUB PUSH1 0x1F AND DUP3 ADD SWAP2 JUMPDEST POP POP POP POP POP DUP2 MSTORE PUSH1 0x20 ADD SWAP1 PUSH1 0x1 ADD SWAP1 PUSH2 0xC8B JUMP JUMPDEST POP POP POP SWAP1 DUP3 MSTORE POP PUSH1 0x7 DUP3 ADD SLOAD PUSH1 0x20 DUP1 DUP4 ADD SWAP2 SWAP1 SWAP2 MSTORE PUSH1 0x40 DUP1 MLOAD PUSH1 0x60 DUP2 ADD DUP3 MSTORE PUSH1 0x8 DUP6 ADD DUP1 SLOAD PUSH1 0xFF DUP1 DUP3 AND ISZERO ISZERO DUP5 MSTORE PUSH2 0x100 DUP3 DIV DUP2 AND ISZERO ISZERO SWAP6 DUP5 ADD SWAP6 SWAP1 SWAP6 MSTORE SWAP5 DUP4 ADD SWAP5 SWAP2 SWAP4 SWAP1 SWAP3 DUP5 ADD SWAP2 PUSH3 0x10000 SWAP1 DIV AND PUSH1 0x3 DUP2 GT ISZERO PUSH2 0xD94 JUMPI PUSH2 0xD94 PUSH2 0x208E JUMP JUMPDEST PUSH1 0x3 DUP2 GT ISZERO PUSH2 0xDA5 JUMPI PUSH2 0xDA5 PUSH2 0x208E JUMP JUMPDEST SWAP1 MSTORE POP DUP2 MSTORE PUSH1 0x9 DUP3 ADD SLOAD PUSH1 0x20 DUP3 ADD MSTORE PUSH1 0xA SWAP1 SWAP2 ADD SLOAD PUSH1 0xFF AND ISZERO ISZERO PUSH1 0x40 SWAP1 SWAP2 ADD MSTORE PUSH2 0x1C4A JUMP JUMPDEST DUP2 MSTORE PUSH1 0x7 DUP4 ADD SLOAD PUSH1 0x20 DUP1 DUP4 ADD SWAP2 SWAP1 SWAP2 MSTORE PUSH1 0x40 DUP1 MLOAD PUSH1 0x60 DUP2 ADD DUP3 MSTORE PUSH1 0x8 DUP7 ADD DUP1 SLOAD PUSH1 0xFF DUP1 DUP3 AND ISZERO ISZERO DUP5 MSTORE PUSH2 0x100 DUP3 DIV DUP2 AND ISZERO ISZERO SWAP6 DUP5 ADD SWAP6 SWAP1 SWAP6 MSTORE SWAP5 DUP4 ADD SWAP5 SWAP2 SWAP4 SWAP1 SWAP3 DUP5 ADD SWAP2 PUSH3 0x10000 SWAP1 DIV AND PUSH1 0x3 DUP2 GT ISZERO PUSH2 0xE26 JUMPI PUSH2 0xE26 PUSH2 0x208E JUMP JUMPDEST PUSH1 0x3 DUP2 GT ISZERO PUSH2 0xE37 JUMPI PUSH2 0xE37 PUSH2 0x208E JUMP JUMPDEST SWAP1 MSTORE POP DUP2 MSTORE PUSH0 DUP6 DUP2 MSTORE PUSH1 0x2 PUSH1 0x20 SWAP1 DUP2 MSTORE PUSH1 0x40 DUP1 DUP4 KECCAK256 CALLER DUP1 DUP6 MSTORE SWAP1 DUP4 MSTORE DUP2 DUP5 KECCAK256 SLOAD PUSH1 0xFF AND ISZERO ISZERO DUP4 DUP7 ADD MSTORE DUP9 DUP5 MSTORE PUSH1 0x5 DUP4 MSTORE DUP2 DUP5 KECCAK256 SWAP1 DUP5 MSTORE DUP3 MSTORE SWAP2 DUP3 SWAP1 KECCAK256 DUP1 SLOAD DUP4 MLOAD DUP2 DUP5 MUL DUP2 ADD DUP5 ADD DUP6 MSTORE DUP2 DUP2 MSTORE SWAP4 SWAP1 SWAP5 ADD SWAP4 SWAP1 SWAP2 DUP4 ADD DUP3 DUP3 DUP1 ISZERO PUSH2 0xEB7 JUMPI PUSH1 0x20 MUL DUP3 ADD SWAP2 SWAP1 PUSH0 MSTORE PUSH1 0x20 PUSH0 KECCAK256 SWAP1 JUMPDEST DUP2 SLOAD DUP2 MSTORE PUSH1 0x20 ADD SWAP1 PUSH1 0x1 ADD SWAP1 DUP1 DUP4 GT PUSH2 0xEA3 JUMPI JUMPDEST POP POP POP POP POP DUP2 MSTORE PUSH1 0x20 ADD DUP3 PUSH1 0x9 ADD SLOAD DUP2 MSTORE POP SWAP2 POP POP SWAP2 SWAP1 POP JUMP JUMPDEST PUSH0 DUP2 DUP2 SLOAD DUP2 LT PUSH2 0xEDF JUMPI PUSH0 DUP1 REVERT JUMPDEST PUSH0 SWAP2 DUP3 MSTORE PUSH1 0x20 SWAP1 SWAP2 KECCAK256 PUSH1 0xB SWAP1 SWAP2 MUL ADD DUP1 SLOAD PUSH1 0x1 DUP3 ADD SLOAD PUSH1 0x2 DUP4 ADD DUP1 SLOAD PUSH1 0x1 PUSH1 0x1 PUSH1 0xA0 SHL SUB SWAP1 SWAP4 AND SWAP5 POP SWAP1 SWAP3 SWAP2 PUSH2 0xF14 SWAP1 PUSH2 0x2396 JUMP JUMPDEST DUP1 PUSH1 0x1F ADD PUSH1 0x20 DUP1 SWAP2 DIV MUL PUSH1 0x20 ADD PUSH1 0x40 MLOAD SWAP1 DUP2 ADD PUSH1 0x40 MSTORE DUP1 SWAP3 SWAP2 SWAP1 DUP2 DUP2 MSTORE PUSH1 0x20 ADD DUP3 DUP1 SLOAD PUSH2 0xF40 SWAP1 PUSH2 0x2396 JUMP JUMPDEST DUP1 ISZERO PUSH2 0xF8B JUMPI DUP1 PUSH1 0x1F LT PUSH2 0xF62 JUMPI PUSH2 0x100 DUP1 DUP4 SLOAD DIV MUL DUP4 MSTORE SWAP2 PUSH1 0x20 ADD SWAP2 PUSH2 0xF8B JUMP JUMPDEST DUP3 ADD SWAP2 SWAP1 PUSH0 MSTORE PUSH1 0x20 PUSH0 KECCAK256 SWAP1 JUMPDEST DUP2 SLOAD DUP2 MSTORE SWAP1 PUSH1 0x1 ADD SWAP1 PUSH1 0x20 ADD DUP1 DUP4 GT PUSH2 0xF6E JUMPI DUP3 SWAP1 SUB PUSH1 0x1F AND DUP3 ADD SWAP2 JUMPDEST POP POP POP POP POP SWAP1 DUP1 PUSH1 0x3 ADD DUP1 SLOAD PUSH2 0xFA0 SWAP1 PUSH2 0x2396 JUMP JUMPDEST DUP1 PUSH1 0x1F ADD PUSH1 0x20 DUP1 SWAP2 DIV MUL PUSH1 0x20 ADD PUSH1 0x40 MLOAD SWAP1 DUP2 ADD PUSH1 0x40 MSTORE DUP1 SWAP3 SWAP2 SWAP1 DUP2 DUP2 MSTORE PUSH1 0x20 ADD DUP3 DUP1 SLOAD PUSH2 0xFCC SWAP1 PUSH2 0x2396 JUMP JUMPDEST DUP1 ISZERO PUSH2 0x1017 JUMPI DUP1 PUSH1 0x1F LT PUSH2 0xFEE JUMPI PUSH2 0x100 DUP1 DUP4 SLOAD DIV MUL DUP4 MSTORE SWAP2 PUSH1 0x20 ADD SWAP2 PUSH2 0x1017 JUMP JUMPDEST DUP3 ADD SWAP2 SWAP1 PUSH0 MSTORE PUSH1 0x20 PUSH0 KECCAK256 SWAP1 JUMPDEST DUP2 SLOAD DUP2 MSTORE SWAP1 PUSH1 0x1 ADD SWAP1 PUSH1 0x20 ADD DUP1 DUP4 GT PUSH2 0xFFA JUMPI DUP3 SWAP1 SUB PUSH1 0x1F AND DUP3 ADD SWAP2 JUMPDEST POP POP POP PUSH1 0x4 DUP5 ADD SLOAD PUSH1 0x5 DUP6 ADD SLOAD PUSH1 0x7 DUP7 ADD SLOAD PUSH1 0x40 DUP1 MLOAD PUSH1 0x60 DUP2 ADD DUP3 MSTORE PUSH1 0x8 DUP10 ADD DUP1 SLOAD PUSH1 0xFF DUP1 DUP3 AND ISZERO ISZERO DUP5 MSTORE PUSH2 0x100 DUP3 DIV DUP2 AND ISZERO ISZERO PUSH1 0x20 DUP6 ADD MSTORE SWAP10 SWAP11 SWAP7 SWAP10 SWAP6 SWAP9 POP SWAP4 SWAP7 POP SWAP1 SWAP4 SWAP1 SWAP3 SWAP2 DUP5 ADD SWAP2 PUSH3 0x10000 SWAP1 DIV AND PUSH1 0x3 DUP2 GT ISZERO PUSH2 0x107A JUMPI PUSH2 0x107A PUSH2 0x208E JUMP JUMPDEST PUSH1 0x3 DUP2 GT ISZERO PUSH2 0x108B JUMPI PUSH2 0x108B PUSH2 0x208E JUMP JUMPDEST SWAP1 MSTORE POP PUSH1 0x9 DUP3 ADD SLOAD PUSH1 0xA SWAP1 SWAP3 ADD SLOAD SWAP1 SWAP2 SWAP1 PUSH1 0xFF AND DUP11 JUMP JUMPDEST PUSH0 PUSH2 0x10AC DUP5 PUSH2 0x196A JUMP JUMPDEST SWAP1 POP PUSH1 0x1 PUSH1 0x40 DUP1 MLOAD PUSH2 0x160 DUP2 ADD DUP3 MSTORE DUP4 SLOAD PUSH1 0x1 PUSH1 0x1 PUSH1 0xA0 SHL SUB AND DUP2 MSTORE PUSH1 0x1 DUP5 ADD SLOAD PUSH1 0x20 DUP3 ADD MSTORE PUSH1 0x2 DUP5 ADD DUP1 SLOAD PUSH2 0x12DB SWAP4 DUP7 SWAP3 SWAP1 DUP5 ADD SWAP2 PUSH2 0x10EB SWAP1 PUSH2 0x2396 JUMP JUMPDEST DUP1 PUSH1 0x1F ADD PUSH1 0x20 DUP1 SWAP2 DIV MUL PUSH1 0x20 ADD PUSH1 0x40 MLOAD SWAP1 DUP2 ADD PUSH1 0x40 MSTORE DUP1 SWAP3 SWAP2 SWAP1 DUP2 DUP2 MSTORE PUSH1 0x20 ADD DUP3 DUP1 SLOAD PUSH2 0x1117 SWAP1 PUSH2 0x2396 JUMP JUMPDEST DUP1 ISZERO PUSH2 0x1162 JUMPI DUP1 PUSH1 0x1F LT PUSH2 0x1139 JUMPI PUSH2 0x100 DUP1 DUP4 SLOAD DIV MUL DUP4 MSTORE SWAP2 PUSH1 0x20 ADD SWAP2 PUSH2 0x1162 JUMP JUMPDEST DUP3 ADD SWAP2 SWAP1 PUSH0 MSTORE PUSH1 0x20 PUSH0 KECCAK256 SWAP1 JUMPDEST DUP2 SLOAD DUP2 MSTORE SWAP1 PUSH1 0x1 ADD SWAP1 PUSH1 0x20 ADD DUP1 DUP4 GT PUSH2 0x1145 JUMPI DUP3 SWAP1 SUB PUSH1 0x1F AND DUP3 ADD SWAP2 JUMPDEST POP POP POP POP POP DUP2 MSTORE PUSH1 0x20 ADD PUSH1 0x3 DUP3 ADD DUP1 SLOAD PUSH2 0x117B SWAP1 PUSH2 0x2396 JUMP JUMPDEST DUP1 PUSH1 0x1F ADD PUSH1 0x20 DUP1 SWAP2 DIV MUL PUSH1 0x20 ADD PUSH1 0x40 MLOAD SWAP1 DUP2 ADD PUSH1 0x40 MSTORE DUP1 SWAP3 SWAP2 SWAP1 DUP2 DUP2 MSTORE PUSH1 0x20 ADD DUP3 DUP1 SLOAD PUSH2 0x11A7 SWAP1 PUSH2 0x2396 JUMP JUMPDEST DUP1 ISZERO PUSH2 0x11F2 JUMPI DUP1 PUSH1 0x1F LT PUSH2 0x11C9 JUMPI PUSH2 0x100 DUP1 DUP4 SLOAD DIV MUL DUP4 MSTORE SWAP2 PUSH1 0x20 ADD SWAP2 PUSH2 0x11F2 JUMP JUMPDEST DUP3 ADD SWAP2 SWAP1 PUSH0 MSTORE PUSH1 0x20 PUSH0 KECCAK256 SWAP1 JUMPDEST DUP2 SLOAD DUP2 MSTORE SWAP1 PUSH1 0x1 ADD SWAP1 PUSH1 0x20 ADD DUP1 DUP4 GT PUSH2 0x11D5 JUMPI DUP3 SWAP1 SUB PUSH1 0x1F AND DUP3 ADD SWAP2 JUMPDEST POP POP POP POP POP DUP2 MSTORE PUSH1 0x20 ADD PUSH1 0x4 DUP3 ADD SLOAD DUP2 MSTORE PUSH1 0x20 ADD PUSH1 0x5 DUP3 ADD SLOAD DUP2 MSTORE PUSH1 0x20 ADD PUSH1 0x6 DUP3 ADD DUP1 SLOAD DUP1 PUSH1 0x20 MUL PUSH1 0x20 ADD PUSH1 0x40 MLOAD SWAP1 DUP2 ADD PUSH1 0x40 MSTORE DUP1 SWAP3 SWAP2 SWAP1 DUP2 DUP2 MSTORE PUSH1 0x20 ADD PUSH0 SWAP1 JUMPDEST DUP3 DUP3 LT ISZERO PUSH2 0x3EA JUMPI DUP4 DUP3 SWAP1 PUSH0 MSTORE PUSH1 0x20 PUSH0 KECCAK256 ADD DUP1 SLOAD PUSH2 0x1250 SWAP1 PUSH2 0x2396 JUMP JUMPDEST DUP1 PUSH1 0x1F ADD PUSH1 0x20 DUP1 SWAP2 DIV MUL PUSH1 0x20 ADD PUSH1 0x40 MLOAD SWAP1 DUP2 ADD PUSH1 0x40 MSTORE DUP1 SWAP3 SWAP2 SWAP1 DUP2 DUP2 MSTORE PUSH1 0x20 ADD DUP3 DUP1 SLOAD PUSH2 0x127C SWAP1 PUSH2 0x2396 JUMP JUMPDEST DUP1 ISZERO PUSH2 0x12C7 JUMPI DUP1 PUSH1 0x1F LT PUSH2 0x129E JUMPI PUSH2 0x100 DUP1 DUP4 SLOAD DIV MUL DUP4 MSTORE SWAP2 PUSH1 0x20 ADD SWAP2 PUSH2 0x12C7 JUMP JUMPDEST DUP3 ADD SWAP2 SWAP1 PUSH0 MSTORE PUSH1 0x20 PUSH0 KECCAK256 SWAP1 JUMPDEST DUP2 SLOAD DUP2 MSTORE SWAP1 PUSH1 0x1 ADD SWAP1 PUSH1 0x20 ADD DUP1 DUP4 GT PUSH2 0x12AA JUMPI DUP3 SWAP1 SUB PUSH1 0x1F AND DUP3 ADD SWAP2 JUMPDEST POP POP POP POP POP DUP2 MSTORE PUSH1 0x20 ADD SWAP1 PUSH1 0x1 ADD SWAP1 PUSH2 0x1233 JUMP JUMPDEST PUSH1 0x3 DUP2 GT ISZERO PUSH2 0x12EC JUMPI PUSH2 0x12EC PUSH2 0x208E JUMP JUMPDEST EQ PUSH2 0x130A JUMPI PUSH1 0x40 MLOAD PUSH4 0xB4F0E2D9 PUSH1 0xE0 SHL DUP2 MSTORE PUSH1 0x4 ADD PUSH1 0x40 MLOAD DUP1 SWAP2 SUB SWAP1 REVERT JUMPDEST PUSH0 DUP5 DUP2 MSTORE PUSH1 0x2 PUSH1 0x20 SWAP1 DUP2 MSTORE PUSH1 0x40 DUP1 DUP4 KECCAK256 CALLER DUP5 MSTORE SWAP1 SWAP2 MSTORE SWAP1 KECCAK256 SLOAD PUSH1 0xFF AND ISZERO PUSH2 0x1344 JUMPI PUSH1 0x40 MLOAD PUSH4 0x7C9A1CF9 PUSH1 0xE0 SHL DUP2 MSTORE PUSH1 0x4 ADD PUSH1 0x40 MLOAD DUP1 SWAP2 SUB SWAP1 REVERT JUMPDEST DUP2 PUSH0 DUP2 SWAP1 SUB PUSH2 0x1366 JUMPI PUSH1 0x40 MLOAD PUSH4 0xBE5A2ACD PUSH1 0xE0 SHL DUP2 MSTORE PUSH1 0x4 ADD PUSH1 0x40 MLOAD DUP1 SWAP2 SUB SWAP1 REVERT JUMPDEST PUSH1 0x8 DUP3 ADD SLOAD PUSH1 0xFF AND ISZERO DUP1 ISZERO PUSH2 0x137B JUMPI POP PUSH1 0x1 DUP2 GT JUMPDEST ISZERO PUSH2 0x1399 JUMPI PUSH1 0x40 MLOAD PUSH4 0xBAABD107 PUSH1 0xE0 SHL DUP2 MSTORE PUSH1 0x4 ADD PUSH1 0x40 MLOAD DUP1 SWAP2 SUB SWAP1 REVERT JUMPDEST PUSH0 JUMPDEST DUP2 DUP2 LT ISZERO PUSH2 0x147B JUMPI PUSH0 DUP6 DUP6 DUP4 DUP2 DUP2 LT PUSH2 0x13B6 JUMPI PUSH2 0x13B6 PUSH2 0x2516 JUMP JUMPDEST SWAP1 POP PUSH1 0x20 MUL ADD CALLDATALOAD SWAP1 POP DUP4 PUSH1 0x6 ADD DUP1 SLOAD SWAP1 POP DUP2 LT PUSH2 0x13E6 JUMPI PUSH1 0x40 MLOAD PUSH4 0x70039A25 PUSH1 0xE0 SHL DUP2 MSTORE PUSH1 0x4 ADD PUSH1 0x40 MLOAD DUP1 SWAP2 SUB SWAP1 REVERT JUMPDEST PUSH0 JUMPDEST DUP3 DUP2 LT ISZERO PUSH2 0x1448 JUMPI DUP7 DUP7 DUP3 DUP2 DUP2 LT PUSH2 0x1402 JUMPI PUSH2 0x1402 PUSH2 0x2516 JUMP JUMPDEST SWAP1 POP PUSH1 0x20 MUL ADD CALLDATALOAD DUP8 DUP8 DUP6 DUP2 DUP2 LT PUSH2 0x141B JUMPI PUSH2 0x141B PUSH2 0x2516 JUMP JUMPDEST SWAP1 POP PUSH1 0x20 MUL ADD CALLDATALOAD SUB PUSH2 0x1440 JUMPI PUSH1 0x40 MLOAD PUSH4 0xFE3EE13 PUSH1 0xE1 SHL DUP2 MSTORE PUSH1 0x4 ADD PUSH1 0x40 MLOAD DUP1 SWAP2 SUB SWAP1 REVERT JUMPDEST PUSH1 0x1 ADD PUSH2 0x13E8 JUMP JUMPDEST POP PUSH0 DUP8 DUP2 MSTORE PUSH1 0x4 PUSH1 0x20 SWAP1 DUP2 MSTORE PUSH1 0x40 DUP1 DUP4 KECCAK256 DUP5 DUP5 MSTORE SWAP1 SWAP2 MSTORE DUP2 KECCAK256 DUP1 SLOAD SWAP2 PUSH2 0x146D DUP4 PUSH2 0x25F0 JUMP JUMPDEST SWAP1 SWAP2 SSTORE POP POP POP PUSH1 0x1 ADD PUSH2 0x139B JUMP JUMPDEST POP PUSH1 0x7 DUP3 ADD DUP1 SLOAD SWAP1 PUSH0 PUSH2 0x148D DUP4 PUSH2 0x25F0 JUMP JUMPDEST SWAP1 SWAP2 SSTORE POP POP PUSH0 DUP6 DUP2 MSTORE PUSH1 0x2 PUSH1 0x20 SWAP1 DUP2 MSTORE PUSH1 0x40 DUP1 DUP4 KECCAK256 CALLER DUP1 DUP6 MSTORE SWAP1 DUP4 MSTORE DUP2 DUP5 KECCAK256 DUP1 SLOAD PUSH1 0xFF NOT AND PUSH1 0x1 SWAP1 DUP2 OR SWAP1 SWAP2 SSTORE DUP1 DUP5 MSTORE DUP3 DUP6 KECCAK256 DUP1 SLOAD SWAP2 DUP3 ADD DUP2 SSTORE DUP6 MSTORE DUP4 DUP6 KECCAK256 ADD DUP10 SWAP1 SSTORE DUP9 DUP5 MSTORE PUSH1 0x5 DUP4 MSTORE DUP2 DUP5 KECCAK256 SWAP1 DUP5 MSTORE SWAP1 SWAP2 MSTORE SWAP1 KECCAK256 PUSH2 0x14ED SWAP1 DUP6 DUP6 PUSH2 0x1DAE JUMP JUMPDEST POP CALLER PUSH1 0x1 PUSH1 0x1 PUSH1 0xA0 SHL SUB AND PUSH32 0x871B62F932D6EF8AFA59AED962334AE3A32EFD388F7EC8932A67B7E47AE7795A DUP7 DUP7 DUP7 PUSH1 0x40 MLOAD PUSH2 0x152B SWAP4 SWAP3 SWAP2 SWAP1 PUSH2 0x2614 JUMP JUMPDEST PUSH1 0x40 MLOAD DUP1 SWAP2 SUB SWAP1 LOG2 POP POP POP POP POP JUMP JUMPDEST CALLER PUSH0 SWAP1 DUP2 MSTORE PUSH1 0x1 PUSH1 0x20 MSTORE PUSH1 0x40 DUP2 KECCAK256 DUP1 SLOAD PUSH1 0x60 SWAP3 DUP2 PUSH8 0xFFFFFFFFFFFFFFFF DUP2 GT ISZERO PUSH2 0x1566 JUMPI PUSH2 0x1566 PUSH2 0x23CE JUMP JUMPDEST PUSH1 0x40 MLOAD SWAP1 DUP1 DUP3 MSTORE DUP1 PUSH1 0x20 MUL PUSH1 0x20 ADD DUP3 ADD PUSH1 0x40 MSTORE DUP1 ISZERO PUSH2 0x159F JUMPI DUP2 PUSH1 0x20 ADD JUMPDEST PUSH2 0x158C PUSH2 0x1DF7 JUMP JUMPDEST DUP2 MSTORE PUSH1 0x20 ADD SWAP1 PUSH1 0x1 SWAP1 SUB SWAP1 DUP2 PUSH2 0x1584 JUMPI SWAP1 POP JUMPDEST POP SWAP1 POP PUSH0 JUMPDEST DUP3 DUP2 LT ISZERO PUSH2 0x1962 JUMPI PUSH0 DUP5 DUP3 DUP2 SLOAD DUP2 LT PUSH2 0x15BF JUMPI PUSH2 0x15BF PUSH2 0x2516 JUMP JUMPDEST SWAP1 PUSH0 MSTORE PUSH1 0x20 PUSH0 KECCAK256 ADD SLOAD SWAP1 POP PUSH0 DUP1 DUP3 DUP2 SLOAD DUP2 LT PUSH2 0x15DD JUMPI PUSH2 0x15DD PUSH2 0x2516 JUMP JUMPDEST PUSH0 SWAP2 DUP3 MSTORE PUSH1 0x20 SWAP1 SWAP2 KECCAK256 PUSH1 0xB SWAP1 SWAP2 MUL ADD PUSH1 0xA DUP2 ADD SLOAD SWAP1 SWAP2 POP PUSH1 0xFF AND ISZERO PUSH2 0x1603 JUMPI POP POP PUSH2 0x195A JUMP JUMPDEST PUSH1 0x40 DUP1 MLOAD PUSH2 0x100 DUP2 ADD DUP3 MSTORE DUP3 SLOAD PUSH1 0x1 PUSH1 0x1 PUSH1 0xA0 SHL SUB AND DUP2 MSTORE PUSH1 0x20 DUP2 ADD DUP5 SWAP1 MSTORE PUSH1 0x2 DUP4 ADD DUP1 SLOAD SWAP2 SWAP3 DUP4 ADD SWAP2 PUSH2 0x1636 SWAP1 PUSH2 0x2396 JUMP JUMPDEST DUP1 PUSH1 0x1F ADD PUSH1 0x20 DUP1 SWAP2 DIV MUL PUSH1 0x20 ADD PUSH1 0x40 MLOAD SWAP1 DUP2 ADD PUSH1 0x40 MSTORE DUP1 SWAP3 SWAP2 SWAP1 DUP2 DUP2 MSTORE PUSH1 0x20 ADD DUP3 DUP1 SLOAD PUSH2 0x1662 SWAP1 PUSH2 0x2396 JUMP JUMPDEST DUP1 ISZERO PUSH2 0x16AD JUMPI DUP1 PUSH1 0x1F LT PUSH2 0x1684 JUMPI PUSH2 0x100 DUP1 DUP4 SLOAD DIV MUL DUP4 MSTORE SWAP2 PUSH1 0x20 ADD SWAP2 PUSH2 0x16AD JUMP JUMPDEST DUP3 ADD SWAP2 SWAP1 PUSH0 MSTORE PUSH1 0x20 PUSH0 KECCAK256 SWAP1 JUMPDEST DUP2 SLOAD DUP2 MSTORE SWAP1 PUSH1 0x1 ADD SWAP1 PUSH1 0x20 ADD DUP1 DUP4 GT PUSH2 0x1690 JUMPI DUP3 SWAP1 SUB PUSH1 0x1F AND DUP3 ADD SWAP2 JUMPDEST POP POP POP POP POP DUP2 MSTORE PUSH1 0x20 ADD DUP3 PUSH1 0x7 ADD SLOAD DUP2 MSTORE PUSH1 0x20 ADD PUSH2 0x1908 DUP4 PUSH1 0x40 MLOAD DUP1 PUSH2 0x160 ADD PUSH1 0x40 MSTORE SWAP1 DUP2 PUSH0 DUP3 ADD PUSH0 SWAP1 SLOAD SWAP1 PUSH2 0x100 EXP SWAP1 DIV PUSH1 0x1 PUSH1 0x1 PUSH1 0xA0 SHL SUB AND PUSH1 0x1 PUSH1 0x1 PUSH1 0xA0 SHL SUB AND PUSH1 0x1 PUSH1 0x1 PUSH1 0xA0 SHL SUB AND DUP2 MSTORE PUSH1 0x20 ADD PUSH1 0x1 DUP3 ADD SLOAD DUP2 MSTORE PUSH1 0x20 ADD PUSH1 0x2 DUP3 ADD DUP1 SLOAD PUSH2 0x1718 SWAP1 PUSH2 0x2396 JUMP JUMPDEST DUP1 PUSH1 0x1F ADD PUSH1 0x20 DUP1 SWAP2 DIV MUL PUSH1 0x20 ADD PUSH1 0x40 MLOAD SWAP1 DUP2 ADD PUSH1 0x40 MSTORE DUP1 SWAP3 SWAP2 SWAP1 DUP2 DUP2 MSTORE PUSH1 0x20 ADD DUP3 DUP1 SLOAD PUSH2 0x1744 SWAP1 PUSH2 0x2396 JUMP JUMPDEST DUP1 ISZERO PUSH2 0x178F JUMPI DUP1 PUSH1 0x1F LT PUSH2 0x1766 JUMPI PUSH2 0x100 DUP1 DUP4 SLOAD DIV MUL DUP4 MSTORE SWAP2 PUSH1 0x20 ADD SWAP2 PUSH2 0x178F JUMP JUMPDEST DUP3 ADD SWAP2 SWAP1 PUSH0 MSTORE PUSH1 0x20 PUSH0 KECCAK256 SWAP1 JUMPDEST DUP2 SLOAD DUP2 MSTORE SWAP1 PUSH1 0x1 ADD SWAP1 PUSH1 0x20 ADD DUP1 DUP4 GT PUSH2 0x1772 JUMPI DUP3 SWAP1 SUB PUSH1 0x1F AND DUP3 ADD SWAP2 JUMPDEST POP POP POP POP POP DUP2 MSTORE PUSH1 0x20 ADD PUSH1 0x3 DUP3 ADD DUP1 SLOAD PUSH2 0x17A8 SWAP1 PUSH2 0x2396 JUMP JUMPDEST DUP1 PUSH1 0x1F ADD PUSH1 0x20 DUP1 SWAP2 DIV MUL PUSH1 0x20 ADD PUSH1 0x40 MLOAD SWAP1 DUP2 ADD PUSH1 0x40 MSTORE DUP1 SWAP3 SWAP2 SWAP1 DUP2 DUP2 MSTORE PUSH1 0x20 ADD DUP3 DUP1 SLOAD PUSH2 0x17D4 SWAP1 PUSH2 0x2396 JUMP JUMPDEST DUP1 ISZERO PUSH2 0x181F JUMPI DUP1 PUSH1 0x1F LT PUSH2 0x17F6 JUMPI PUSH2 0x100 DUP1 DUP4 SLOAD DIV MUL DUP4 MSTORE SWAP2 PUSH1 0x20 ADD SWAP2 PUSH2 0x181F JUMP JUMPDEST DUP3 ADD SWAP2 SWAP1 PUSH0 MSTORE PUSH1 0x20 PUSH0 KECCAK256 SWAP1 JUMPDEST DUP2 SLOAD DUP2 MSTORE SWAP1 PUSH1 0x1 ADD SWAP1 PUSH1 0x20 ADD DUP1 DUP4 GT PUSH2 0x1802 JUMPI DUP3 SWAP1 SUB PUSH1 0x1F AND DUP3 ADD SWAP2 JUMPDEST POP POP POP POP POP DUP2 MSTORE PUSH1 0x20 ADD PUSH1 0x4 DUP3 ADD SLOAD DUP2 MSTORE PUSH1 0x20 ADD PUSH1 0x5 DUP3 ADD SLOAD DUP2 MSTORE PUSH1 0x20 ADD PUSH1 0x6 DUP3 ADD DUP1 SLOAD DUP1 PUSH1 0x20 MUL PUSH1 0x20 ADD PUSH1 0x40 MLOAD SWAP1 DUP2 ADD PUSH1 0x40 MSTORE DUP1 SWAP3 SWAP2 SWAP1 DUP2 DUP2 MSTORE PUSH1 0x20 ADD PUSH0 SWAP1 JUMPDEST DUP3 DUP3 LT ISZERO PUSH2 0x3EA JUMPI DUP4 DUP3 SWAP1 PUSH0 MSTORE PUSH1 0x20 PUSH0 KECCAK256 ADD DUP1 SLOAD PUSH2 0x187D SWAP1 PUSH2 0x2396 JUMP JUMPDEST DUP1 PUSH1 0x1F ADD PUSH1 0x20 DUP1 SWAP2 DIV MUL PUSH1 0x20 ADD PUSH1 0x40 MLOAD SWAP1 DUP2 ADD PUSH1 0x40 MSTORE DUP1 SWAP3 SWAP2 SWAP1 DUP2 DUP2 MSTORE PUSH1 0x20 ADD DUP3 DUP1 SLOAD PUSH2 0x18A9 SWAP1 PUSH2 0x2396 JUMP JUMPDEST DUP1 ISZERO PUSH2 0x18F4 JUMPI DUP1 PUSH1 0x1F LT PUSH2 0x18CB JUMPI PUSH2 0x100 DUP1 DUP4 SLOAD DIV MUL DUP4 MSTORE SWAP2 PUSH1 0x20 ADD SWAP2 PUSH2 0x18F4 JUMP JUMPDEST DUP3 ADD SWAP2 SWAP1 PUSH0 MSTORE PUSH1 0x20 PUSH0 KECCAK256 SWAP1 JUMPDEST DUP2 SLOAD DUP2 MSTORE SWAP1 PUSH1 0x1 ADD SWAP1 PUSH1 0x20 ADD DUP1 DUP4 GT PUSH2 0x18D7 JUMPI DUP3 SWAP1 SUB PUSH1 0x1F AND DUP3 ADD SWAP2 JUMPDEST POP POP POP POP POP DUP2 MSTORE PUSH1 0x20 ADD SWAP1 PUSH1 0x1 ADD SWAP1 PUSH2 0x1860 JUMP JUMPDEST PUSH1 0x3 DUP2 GT ISZERO PUSH2 0x1919 JUMPI PUSH2 0x1919 PUSH2 0x208E JUMP JUMPDEST DUP2 MSTORE PUSH1 0x20 ADD DUP3 PUSH1 0x4 ADD SLOAD DUP2 MSTORE PUSH1 0x20 ADD DUP3 PUSH1 0x5 ADD SLOAD DUP2 MSTORE PUSH1 0x20 ADD DUP3 PUSH1 0x9 ADD SLOAD DUP2 MSTORE POP DUP5 DUP5 DUP2 MLOAD DUP2 LT PUSH2 0x194C JUMPI PUSH2 0x194C PUSH2 0x2516 JUMP JUMPDEST PUSH1 0x20 MUL PUSH1 0x20 ADD ADD DUP2 SWAP1 MSTORE POP POP POP JUMPDEST PUSH1 0x1 ADD PUSH2 0x15A4 JUMP JUMPDEST POP SWAP4 SWAP3 POP POP POP JUMP JUMPDEST PUSH0 DUP1 SLOAD DUP3 LT PUSH2 0x1994 JUMPI PUSH1 0x40 MLOAD PUSH4 0x2708A4D PUSH1 0xE2 SHL DUP2 MSTORE PUSH1 0x4 DUP2 ADD DUP4 SWAP1 MSTORE PUSH1 0x24 ADD JUMPDEST PUSH1 0x40 MLOAD DUP1 SWAP2 SUB SWAP1 REVERT JUMPDEST PUSH0 DUP1 DUP4 DUP2 SLOAD DUP2 LT PUSH2 0x19A7 JUMPI PUSH2 0x19A7 PUSH2 0x2516 JUMP JUMPDEST PUSH0 SWAP2 DUP3 MSTORE PUSH1 0x20 SWAP1 SWAP2 KECCAK256 PUSH1 0xB SWAP1 SWAP2 MUL ADD PUSH1 0xA DUP2 ADD SLOAD SWAP1 SWAP2 POP PUSH1 0xFF AND ISZERO PUSH2 0x19E2 JUMPI PUSH1 0x40 MLOAD PUSH4 0x2708A4D PUSH1 0xE2 SHL DUP2 MSTORE PUSH1 0x4 DUP2 ADD DUP5 SWAP1 MSTORE PUSH1 0x24 ADD PUSH2 0x198B JUMP JUMPDEST SWAP3 SWAP2 POP POP JUMP JUMPDEST PUSH0 TIMESTAMP DUP3 PUSH1 0x80 ADD MLOAD GT ISZERO PUSH2 0x19FC JUMPI POP PUSH0 SWAP2 SWAP1 POP JUMP JUMPDEST DUP2 PUSH1 0xA0 ADD MLOAD PUSH1 0x1 SUB PUSH2 0x1A10 JUMPI POP PUSH1 0x3 SWAP2 SWAP1 POP JUMP JUMPDEST PUSH1 0x1 DUP3 PUSH1 0xA0 ADD MLOAD GT DUP1 ISZERO PUSH2 0x1A28 JUMPI POP TIMESTAMP DUP3 PUSH1 0xA0 ADD MLOAD GT ISZERO JUMPDEST ISZERO PUSH2 0x1A35 JUMPI POP PUSH1 0x2 SWAP2 SWAP1 POP JUMP JUMPDEST POP PUSH1 0x1 SWAP2 SWAP1 POP JUMP JUMPDEST DUP1 PUSH1 0x3 DUP2 LT ISZERO PUSH2 0x1A60 JUMPI PUSH1 0x40 MLOAD PUSH4 0x24ACE355 PUSH1 0xE0 SHL DUP2 MSTORE PUSH1 0x4 ADD PUSH1 0x40 MLOAD DUP1 SWAP2 SUB SWAP1 REVERT JUMPDEST PUSH1 0x64 DUP2 GT ISZERO PUSH2 0x1A82 JUMPI PUSH1 0x40 MLOAD PUSH4 0x2B5DF40F PUSH1 0xE2 SHL DUP2 MSTORE PUSH1 0x4 ADD PUSH1 0x40 MLOAD DUP1 SWAP2 SUB SWAP1 REVERT JUMPDEST POP POP POP JUMP JUMPDEST DUP1 DUP1 ISZERO DUP1 ISZERO SWAP1 PUSH2 0x1A97 JUMPI POP PUSH1 0xA DUP2 LT JUMPDEST ISZERO PUSH2 0x1AB5 JUMPI PUSH1 0x40 MLOAD PUSH4 0x1B0BF735 PUSH1 0xE2 SHL DUP2 MSTORE PUSH1 0x4 ADD PUSH1 0x40 MLOAD DUP1 SWAP2 SUB SWAP1 REVERT JUMPDEST PUSH2 0x3E8 DUP2 GT ISZERO PUSH2 0x1A82 JUMPI PUSH1 0x40 MLOAD PUSH4 0x1B0FCE83 PUSH1 0xE0 SHL DUP2 MSTORE PUSH1 0x4 ADD PUSH1 0x40 MLOAD DUP1 SWAP2 SUB SWAP1 REVERT JUMPDEST TIMESTAMP DUP3 LT ISZERO PUSH2 0x1AF9 JUMPI PUSH1 0x40 MLOAD PUSH4 0x3EB2D8C5 PUSH1 0xE0 SHL DUP2 MSTORE PUSH1 0x4 ADD PUSH1 0x40 MLOAD DUP1 SWAP2 SUB SWAP1 REVERT JUMPDEST DUP2 DUP2 GT PUSH2 0x1B19 JUMPI PUSH1 0x40 MLOAD PUSH4 0x71F32861 PUSH1 0xE1 SHL DUP2 MSTORE PUSH1 0x4 ADD PUSH1 0x40 MLOAD DUP1 SWAP2 SUB SWAP1 REVERT JUMPDEST POP POP JUMP JUMPDEST DUP1 PUSH1 0x2 DUP2 LT ISZERO PUSH2 0x1B40 JUMPI PUSH1 0x40 MLOAD PUSH4 0x8EE5F57D PUSH1 0xE0 SHL DUP2 MSTORE PUSH1 0x4 ADD PUSH1 0x40 MLOAD DUP1 SWAP2 SUB SWAP1 REVERT JUMPDEST PUSH1 0xA DUP2 GT ISZERO PUSH2 0x1B62 JUMPI PUSH1 0x40 MLOAD PUSH4 0x701D39F1 PUSH1 0xE1 SHL DUP2 MSTORE PUSH1 0x4 ADD PUSH1 0x40 MLOAD DUP1 SWAP2 SUB SWAP1 REVERT JUMPDEST PUSH0 JUMPDEST DUP2 DUP2 LT ISZERO PUSH2 0x1BE7 JUMPI PUSH0 DUP5 DUP5 DUP4 DUP2 DUP2 LT PUSH2 0x1B7F JUMPI PUSH2 0x1B7F PUSH2 0x2516 JUMP JUMPDEST SWAP1 POP PUSH1 0x20 MUL DUP2 ADD SWAP1 PUSH2 0x1B91 SWAP2 SWAP1 PUSH2 0x252A JUMP JUMPDEST SWAP2 POP POP PUSH1 0x1 DUP2 LT ISZERO PUSH2 0x1BB9 JUMPI PUSH1 0x40 MLOAD PUSH4 0x23BAE5C5 PUSH1 0xE1 SHL DUP2 MSTORE PUSH1 0x4 DUP2 ADD DUP4 SWAP1 MSTORE PUSH1 0x24 ADD PUSH2 0x198B JUMP JUMPDEST PUSH1 0x64 DUP2 GT ISZERO PUSH2 0x1BDE JUMPI PUSH1 0x40 MLOAD PUSH4 0x1E8A1825 PUSH1 0xE2 SHL DUP2 MSTORE PUSH1 0x4 DUP2 ADD DUP4 SWAP1 MSTORE PUSH1 0x24 ADD PUSH2 0x198B JUMP JUMPDEST POP PUSH1 0x1 ADD PUSH2 0x1B64 JUMP JUMPDEST POP POP POP POP JUMP JUMPDEST PUSH2 0x1BFD PUSH1 0x40 DUP3 ADD PUSH1 0x20 DUP4 ADD PUSH2 0x24F4 JUMP JUMPDEST DUP1 ISZERO PUSH2 0x1C29 JUMPI POP PUSH1 0x2 PUSH2 0x1C16 PUSH1 0x60 DUP4 ADD PUSH1 0x40 DUP5 ADD PUSH2 0x266B JUMP JUMPDEST PUSH1 0x3 DUP2 GT ISZERO PUSH2 0x1C27 JUMPI PUSH2 0x1C27 PUSH2 0x208E JUMP JUMPDEST EQ JUMPDEST ISZERO PUSH2 0x1C47 JUMPI PUSH1 0x40 MLOAD PUSH4 0xDC2CA701 PUSH1 0xE0 SHL DUP2 MSTORE PUSH1 0x4 ADD PUSH1 0x40 MLOAD DUP1 SWAP2 SUB SWAP1 REVERT JUMPDEST POP JUMP JUMPDEST PUSH1 0xC0 DUP2 ADD MLOAD MLOAD PUSH1 0x60 SWAP1 PUSH0 DUP2 PUSH8 0xFFFFFFFFFFFFFFFF DUP2 GT ISZERO PUSH2 0x1C6D JUMPI PUSH2 0x1C6D PUSH2 0x23CE JUMP JUMPDEST PUSH1 0x40 MLOAD SWAP1 DUP1 DUP3 MSTORE DUP1 PUSH1 0x20 MUL PUSH1 0x20 ADD DUP3 ADD PUSH1 0x40 MSTORE DUP1 ISZERO PUSH2 0x1CB2 JUMPI DUP2 PUSH1 0x20 ADD JUMPDEST PUSH1 0x40 DUP1 MLOAD DUP1 DUP3 ADD SWAP1 SWAP2 MSTORE PUSH1 0x60 DUP2 MSTORE PUSH0 PUSH1 0x20 DUP3 ADD MSTORE DUP2 MSTORE PUSH1 0x20 ADD SWAP1 PUSH1 0x1 SWAP1 SUB SWAP1 DUP2 PUSH2 0x1C8B JUMPI SWAP1 POP JUMPDEST POP SWAP1 POP PUSH0 JUMPDEST DUP3 DUP2 LT ISZERO PUSH2 0x1962 JUMPI PUSH1 0x40 MLOAD DUP1 PUSH1 0x40 ADD PUSH1 0x40 MSTORE DUP1 DUP7 PUSH1 0xC0 ADD MLOAD DUP4 DUP2 MLOAD DUP2 LT PUSH2 0x1CE0 JUMPI PUSH2 0x1CE0 PUSH2 0x2516 JUMP JUMPDEST PUSH1 0x20 SWAP1 DUP2 MUL SWAP2 SWAP1 SWAP2 ADD DUP2 ADD MLOAD DUP3 MSTORE DUP8 DUP2 ADD MLOAD PUSH0 SWAP1 DUP2 MSTORE PUSH1 0x4 DUP3 MSTORE PUSH1 0x40 DUP1 DUP3 KECCAK256 DUP7 DUP4 MSTORE DUP4 MSTORE SWAP1 KECCAK256 SLOAD SWAP2 ADD MSTORE DUP3 MLOAD DUP4 SWAP1 DUP4 SWAP1 DUP2 LT PUSH2 0x1D1E JUMPI PUSH2 0x1D1E PUSH2 0x2516 JUMP JUMPDEST PUSH1 0x20 SWAP1 DUP2 MUL SWAP2 SWAP1 SWAP2 ADD ADD MSTORE PUSH1 0x1 ADD PUSH2 0x1CB7 JUMP JUMPDEST PUSH1 0x40 MLOAD DUP1 PUSH2 0x160 ADD PUSH1 0x40 MSTORE DUP1 PUSH0 PUSH1 0x1 PUSH1 0x1 PUSH1 0xA0 SHL SUB AND DUP2 MSTORE PUSH1 0x20 ADD PUSH1 0x60 DUP2 MSTORE PUSH1 0x20 ADD PUSH1 0x60 DUP2 MSTORE PUSH1 0x20 ADD PUSH0 DUP2 MSTORE PUSH1 0x20 ADD PUSH0 DUP2 MSTORE PUSH1 0x20 ADD PUSH1 0x60 DUP2 MSTORE PUSH1 0x20 ADD PUSH0 DUP2 MSTORE PUSH1 0x20 ADD PUSH2 0x1D93 PUSH1 0x40 DUP1 MLOAD PUSH1 0x60 DUP2 ADD DUP3 MSTORE PUSH0 DUP1 DUP3 MSTORE PUSH1 0x20 DUP3 ADD DUP2 SWAP1 MSTORE SWAP1 SWAP2 DUP3 ADD MSTORE SWAP1 JUMP JUMPDEST DUP2 MSTORE PUSH1 0x20 ADD PUSH0 ISZERO ISZERO DUP2 MSTORE PUSH1 0x20 ADD PUSH1 0x60 DUP2 MSTORE PUSH1 0x20 ADD PUSH0 DUP2 MSTORE POP SWAP1 JUMP JUMPDEST DUP3 DUP1 SLOAD DUP3 DUP3 SSTORE SWAP1 PUSH0 MSTORE PUSH1 0x20 PUSH0 KECCAK256 SWAP1 DUP2 ADD SWAP3 DUP3 ISZERO PUSH2 0x1DE7 JUMPI SWAP2 PUSH1 0x20 MUL DUP3 ADD JUMPDEST DUP3 DUP2 GT ISZERO PUSH2 0x1DE7 JUMPI DUP3 CALLDATALOAD DUP3 SSTORE SWAP2 PUSH1 0x20 ADD SWAP2 SWAP1 PUSH1 0x1 ADD SWAP1 PUSH2 0x1DCC JUMP JUMPDEST POP PUSH2 0x1DF3 SWAP3 SWAP2 POP PUSH2 0x1E4F JUMP JUMPDEST POP SWAP1 JUMP JUMPDEST PUSH1 0x40 MLOAD DUP1 PUSH2 0x100 ADD PUSH1 0x40 MSTORE DUP1 PUSH0 PUSH1 0x1 PUSH1 0x1 PUSH1 0xA0 SHL SUB AND DUP2 MSTORE PUSH1 0x20 ADD PUSH0 DUP2 MSTORE PUSH1 0x20 ADD PUSH1 0x60 DUP2 MSTORE PUSH1 0x20 ADD PUSH0 DUP2 MSTORE PUSH1 0x20 ADD PUSH0 PUSH1 0x3 DUP2 GT ISZERO PUSH2 0x1E37 JUMPI PUSH2 0x1E37 PUSH2 0x208E JUMP JUMPDEST DUP2 MSTORE PUSH1 0x20 ADD PUSH0 DUP2 MSTORE PUSH1 0x20 ADD PUSH0 DUP2 MSTORE PUSH1 0x20 ADD PUSH0 DUP2 MSTORE POP SWAP1 JUMP JUMPDEST JUMPDEST DUP1 DUP3 GT ISZERO PUSH2 0x1DF3 JUMPI PUSH0 DUP2 SSTORE PUSH1 0x1 ADD PUSH2 0x1E50 JUMP JUMPDEST PUSH0 DUP1 PUSH1 0x40 DUP4 DUP6 SUB SLT ISZERO PUSH2 0x1E74 JUMPI PUSH0 DUP1 REVERT JUMPDEST DUP3 CALLDATALOAD PUSH1 0x1 PUSH1 0x1 PUSH1 0xA0 SHL SUB DUP2 AND DUP2 EQ PUSH2 0x1E8A JUMPI PUSH0 DUP1 REVERT JUMPDEST SWAP5 PUSH1 0x20 SWAP4 SWAP1 SWAP4 ADD CALLDATALOAD SWAP4 POP POP POP JUMP JUMPDEST PUSH0 PUSH1 0x20 DUP3 DUP5 SUB SLT ISZERO PUSH2 0x1EA8 JUMPI PUSH0 DUP1 REVERT JUMPDEST POP CALLDATALOAD SWAP2 SWAP1 POP JUMP JUMPDEST PUSH0 DUP1 DUP4 PUSH1 0x1F DUP5 ADD SLT PUSH2 0x1EBF JUMPI PUSH0 DUP1 REVERT JUMPDEST POP DUP2 CALLDATALOAD PUSH8 0xFFFFFFFFFFFFFFFF DUP2 GT ISZERO PUSH2 0x1ED6 JUMPI PUSH0 DUP1 REVERT JUMPDEST PUSH1 0x20 DUP4 ADD SWAP2 POP DUP4 PUSH1 0x20 DUP3 DUP6 ADD ADD GT ISZERO PUSH2 0x1EED JUMPI PUSH0 DUP1 REVERT JUMPDEST SWAP3 POP SWAP3 SWAP1 POP JUMP JUMPDEST PUSH0 DUP1 DUP4 PUSH1 0x1F DUP5 ADD SLT PUSH2 0x1F04 JUMPI PUSH0 DUP1 REVERT JUMPDEST POP DUP2 CALLDATALOAD PUSH8 0xFFFFFFFFFFFFFFFF DUP2 GT ISZERO PUSH2 0x1F1B JUMPI PUSH0 DUP1 REVERT JUMPDEST PUSH1 0x20 DUP4 ADD SWAP2 POP DUP4 PUSH1 0x20 DUP3 PUSH1 0x5 SHL DUP6 ADD ADD GT ISZERO PUSH2 0x1EED JUMPI PUSH0 DUP1 REVERT JUMPDEST PUSH0 DUP1 PUSH0 DUP1 PUSH0 DUP1 PUSH0 DUP1 PUSH0 DUP10 DUP12 SUB PUSH2 0x100 DUP2 SLT ISZERO PUSH2 0x1F4F JUMPI PUSH0 DUP1 REVERT JUMPDEST DUP11 CALLDATALOAD PUSH8 0xFFFFFFFFFFFFFFFF DUP1 DUP3 GT ISZERO PUSH2 0x1F66 JUMPI PUSH0 DUP1 REVERT JUMPDEST PUSH2 0x1F72 DUP15 DUP4 DUP16 ADD PUSH2 0x1EAF JUMP JUMPDEST SWAP1 SWAP13 POP SWAP11 POP PUSH1 0x20 DUP14 ADD CALLDATALOAD SWAP2 POP DUP1 DUP3 GT ISZERO PUSH2 0x1F8A JUMPI PUSH0 DUP1 REVERT JUMPDEST PUSH2 0x1F96 DUP15 DUP4 DUP16 ADD PUSH2 0x1EAF JUMP JUMPDEST SWAP1 SWAP11 POP SWAP9 POP PUSH1 0x40 DUP14 ADD CALLDATALOAD SWAP8 POP PUSH1 0x60 DUP14 ADD CALLDATALOAD SWAP7 POP PUSH1 0x80 DUP14 ADD CALLDATALOAD SWAP2 POP DUP1 DUP3 GT ISZERO PUSH2 0x1FBC JUMPI PUSH0 DUP1 REVERT JUMPDEST POP PUSH2 0x1FC9 DUP14 DUP3 DUP15 ADD PUSH2 0x1EF4 JUMP JUMPDEST SWAP1 SWAP6 POP SWAP4 POP POP PUSH1 0x60 PUSH1 0x9F NOT DUP3 ADD SLT ISZERO PUSH2 0x1FE0 JUMPI PUSH0 DUP1 REVERT JUMPDEST POP PUSH1 0xA0 DUP11 ADD SWAP1 POP SWAP3 SWAP6 SWAP9 POP SWAP3 SWAP6 SWAP9 POP SWAP3 SWAP6 SWAP9 JUMP JUMPDEST PUSH0 DUP2 MLOAD DUP1 DUP5 MSTORE DUP1 PUSH1 0x20 DUP5 ADD PUSH1 0x20 DUP7 ADD MCOPY PUSH0 PUSH1 0x20 DUP3 DUP7 ADD ADD MSTORE PUSH1 0x20 PUSH1 0x1F NOT PUSH1 0x1F DUP4 ADD AND DUP6 ADD ADD SWAP2 POP POP SWAP3 SWAP2 POP POP JUMP JUMPDEST PUSH0 DUP3 DUP3 MLOAD DUP1 DUP6 MSTORE PUSH1 0x20 DUP1 DUP7 ADD SWAP6 POP DUP1 DUP3 PUSH1 0x5 SHL DUP5 ADD ADD DUP2 DUP7 ADD PUSH0 JUMPDEST DUP5 DUP2 LT ISZERO PUSH2 0x2081 JUMPI PUSH1 0x1F NOT DUP7 DUP5 SUB ADD DUP10 MSTORE DUP2 MLOAD PUSH1 0x40 DUP2 MLOAD DUP2 DUP7 MSTORE PUSH2 0x2063 DUP3 DUP8 ADD DUP3 PUSH2 0x1FF4 JUMP JUMPDEST SWAP3 DUP8 ADD MLOAD SWAP6 DUP8 ADD SWAP6 SWAP1 SWAP6 MSTORE POP SWAP9 DUP5 ADD SWAP9 SWAP3 POP SWAP1 DUP4 ADD SWAP1 PUSH1 0x1 ADD PUSH2 0x203D JUMP JUMPDEST POP SWAP1 SWAP8 SWAP7 POP POP POP POP POP POP POP JUMP JUMPDEST PUSH4 0x4E487B71 PUSH1 0xE0 SHL PUSH0 MSTORE PUSH1 0x21 PUSH1 0x4 MSTORE PUSH1 0x24 PUSH0 REVERT JUMPDEST PUSH1 0x4 DUP2 LT PUSH2 0x1C47 JUMPI PUSH4 0x4E487B71 PUSH1 0xE0 SHL PUSH0 MSTORE PUSH1 0x21 PUSH1 0x4 MSTORE PUSH1 0x24 PUSH0 REVERT JUMPDEST DUP1 MLOAD ISZERO ISZERO DUP3 MSTORE PUSH1 0x20 DUP2 ADD MLOAD ISZERO ISZERO PUSH1 0x20 DUP4 ADD MSTORE PUSH1 0x40 DUP2 ADD MLOAD PUSH2 0x20DE DUP2 PUSH2 0x20A2 JUMP JUMPDEST DUP1 PUSH1 0x40 DUP5 ADD MSTORE POP POP POP JUMP JUMPDEST PUSH0 DUP2 MLOAD DUP1 DUP5 MSTORE PUSH1 0x20 DUP1 DUP6 ADD SWAP5 POP PUSH1 0x20 DUP5 ADD PUSH0 JUMPDEST DUP4 DUP2 LT ISZERO PUSH2 0x2118 JUMPI DUP2 MLOAD DUP8 MSTORE SWAP6 DUP3 ADD SWAP6 SWAP1 DUP3 ADD SWAP1 PUSH1 0x1 ADD PUSH2 0x20FC JUMP JUMPDEST POP SWAP5 SWAP6 SWAP5 POP POP POP POP POP JUMP JUMPDEST PUSH1 0x20 DUP2 MSTORE PUSH2 0x213D PUSH1 0x20 DUP3 ADD DUP4 MLOAD PUSH1 0x1 PUSH1 0x1 PUSH1 0xA0 SHL SUB AND SWAP1 MSTORE JUMP JUMPDEST PUSH0 PUSH1 0x20 DUP4 ADD MLOAD PUSH2 0x1A0 DUP1 PUSH1 0x40 DUP6 ADD MSTORE PUSH2 0x215A PUSH2 0x1C0 DUP6 ADD DUP4 PUSH2 0x1FF4 JUMP JUMPDEST SWAP2 POP PUSH1 0x40 DUP6 ADD MLOAD PUSH1 0x1F NOT DUP1 DUP7 DUP6 SUB ADD PUSH1 0x60 DUP8 ADD MSTORE PUSH2 0x2178 DUP5 DUP4 PUSH2 0x1FF4 JUMP JUMPDEST SWAP4 POP PUSH1 0x60 DUP8 ADD MLOAD PUSH1 0x80 DUP8 ADD MSTORE PUSH1 0x80 DUP8 ADD MLOAD PUSH1 0xA0 DUP8 ADD MSTORE PUSH1 0xA0 DUP8 ADD MLOAD SWAP2 POP DUP1 DUP7 DUP6 SUB ADD PUSH1 0xC0 DUP8 ADD MSTORE PUSH2 0x21A9 DUP5 DUP4 PUSH2 0x2022 JUMP JUMPDEST SWAP4 POP PUSH1 0xC0 DUP8 ADD MLOAD PUSH1 0xE0 DUP8 ADD MSTORE PUSH1 0xE0 DUP8 ADD MLOAD SWAP2 POP PUSH2 0x100 PUSH2 0x21CB DUP2 DUP9 ADD DUP5 PUSH2 0x20BE JUMP JUMPDEST DUP8 ADD MLOAD ISZERO ISZERO PUSH2 0x160 DUP8 ADD MSTORE PUSH2 0x120 DUP8 ADD MLOAD DUP7 DUP6 SUB SWAP1 SWAP2 ADD PUSH2 0x180 DUP8 ADD MSTORE SWAP1 POP PUSH2 0x21F4 DUP4 DUP3 PUSH2 0x20E9 JUMP JUMPDEST SWAP3 POP POP PUSH2 0x140 DUP6 ADD MLOAD DUP2 DUP6 ADD MSTORE POP DUP1 SWAP2 POP POP SWAP3 SWAP2 POP POP JUMP JUMPDEST PUSH0 PUSH2 0x180 PUSH1 0x1 PUSH1 0x1 PUSH1 0xA0 SHL SUB DUP14 AND DUP4 MSTORE DUP12 PUSH1 0x20 DUP5 ADD MSTORE DUP1 PUSH1 0x40 DUP5 ADD MSTORE PUSH2 0x2234 DUP2 DUP5 ADD DUP13 PUSH2 0x1FF4 JUMP JUMPDEST SWAP1 POP DUP3 DUP2 SUB PUSH1 0x60 DUP5 ADD MSTORE PUSH2 0x2248 DUP2 DUP12 PUSH2 0x1FF4 JUMP JUMPDEST SWAP2 POP POP DUP8 PUSH1 0x80 DUP4 ADD MSTORE DUP7 PUSH1 0xA0 DUP4 ADD MSTORE DUP6 PUSH1 0xC0 DUP4 ADD MSTORE PUSH2 0x226A PUSH1 0xE0 DUP4 ADD DUP7 PUSH2 0x20BE JUMP JUMPDEST DUP4 PUSH2 0x140 DUP4 ADD MSTORE DUP3 ISZERO ISZERO PUSH2 0x160 DUP4 ADD MSTORE SWAP12 SWAP11 POP POP POP POP POP POP POP POP POP POP POP JUMP JUMPDEST PUSH0 DUP1 PUSH0 PUSH1 0x40 DUP5 DUP7 SUB SLT ISZERO PUSH2 0x229B JUMPI PUSH0 DUP1 REVERT JUMPDEST DUP4 CALLDATALOAD SWAP3 POP PUSH1 0x20 DUP5 ADD CALLDATALOAD PUSH8 0xFFFFFFFFFFFFFFFF DUP2 GT ISZERO PUSH2 0x22B8 JUMPI PUSH0 DUP1 REVERT JUMPDEST PUSH2 0x22C4 DUP7 DUP3 DUP8 ADD PUSH2 0x1EF4 JUMP JUMPDEST SWAP5 SWAP8 SWAP1 SWAP7 POP SWAP4 SWAP5 POP POP POP POP JUMP JUMPDEST PUSH0 PUSH1 0x20 DUP1 DUP4 ADD DUP2 DUP5 MSTORE DUP1 DUP6 MLOAD DUP1 DUP4 MSTORE PUSH1 0x40 SWAP3 POP PUSH1 0x40 DUP7 ADD SWAP2 POP PUSH1 0x40 DUP2 PUSH1 0x5 SHL DUP8 ADD ADD DUP5 DUP9 ADD PUSH0 JUMPDEST DUP4 DUP2 LT ISZERO PUSH2 0x2388 JUMPI PUSH1 0x3F NOT DUP10 DUP5 SUB ADD DUP6 MSTORE DUP2 MLOAD PUSH2 0x100 PUSH1 0x1 PUSH1 0x1 PUSH1 0xA0 SHL SUB DUP3 MLOAD AND DUP6 MSTORE DUP9 DUP3 ADD MLOAD DUP10 DUP7 ADD MSTORE DUP8 DUP3 ADD MLOAD DUP2 DUP10 DUP8 ADD MSTORE PUSH2 0x2338 DUP3 DUP8 ADD DUP3 PUSH2 0x1FF4 JUMP JUMPDEST SWAP2 POP POP PUSH1 0x60 DUP1 DUP4 ADD MLOAD DUP2 DUP8 ADD MSTORE POP PUSH1 0x80 DUP1 DUP4 ADD MLOAD PUSH2 0x2355 DUP2 PUSH2 0x20A2 JUMP JUMPDEST SWAP1 DUP7 ADD MSTORE PUSH1 0xA0 DUP3 DUP2 ADD MLOAD SWAP1 DUP7 ADD MSTORE PUSH1 0xC0 DUP1 DUP4 ADD MLOAD SWAP1 DUP7 ADD MSTORE PUSH1 0xE0 SWAP2 DUP3 ADD MLOAD SWAP2 SWAP1 SWAP5 ADD MSTORE SWAP4 DUP7 ADD SWAP4 SWAP1 DUP7 ADD SWAP1 PUSH1 0x1 ADD PUSH2 0x22F8 JUMP JUMPDEST POP SWAP1 SWAP9 SWAP8 POP POP POP POP POP POP POP POP JUMP JUMPDEST PUSH1 0x1 DUP2 DUP2 SHR SWAP1 DUP3 AND DUP1 PUSH2 0x23AA JUMPI PUSH1 0x7F DUP3 AND SWAP2 POP JUMPDEST PUSH1 0x20 DUP3 LT DUP2 SUB PUSH2 0x23C8 JUMPI PUSH4 0x4E487B71 PUSH1 0xE0 SHL PUSH0 MSTORE PUSH1 0x22 PUSH1 0x4 MSTORE PUSH1 0x24 PUSH0 REVERT JUMPDEST POP SWAP2 SWAP1 POP JUMP JUMPDEST PUSH4 0x4E487B71 PUSH1 0xE0 SHL PUSH0 MSTORE PUSH1 0x41 PUSH1 0x4 MSTORE PUSH1 0x24 PUSH0 REVERT JUMPDEST PUSH1 0x1F DUP3 GT ISZERO PUSH2 0x1A82 JUMPI DUP1 PUSH0 MSTORE PUSH1 0x20 PUSH0 KECCAK256 PUSH1 0x1F DUP5 ADD PUSH1 0x5 SHR DUP2 ADD PUSH1 0x20 DUP6 LT ISZERO PUSH2 0x2407 JUMPI POP DUP1 JUMPDEST PUSH1 0x1F DUP5 ADD PUSH1 0x5 SHR DUP3 ADD SWAP2 POP JUMPDEST DUP2 DUP2 LT ISZERO PUSH2 0x2426 JUMPI PUSH0 DUP2 SSTORE PUSH1 0x1 ADD PUSH2 0x2413 JUMP JUMPDEST POP POP POP POP POP JUMP JUMPDEST PUSH8 0xFFFFFFFFFFFFFFFF DUP4 GT ISZERO PUSH2 0x2445 JUMPI PUSH2 0x2445 PUSH2 0x23CE JUMP JUMPDEST PUSH2 0x2459 DUP4 PUSH2 0x2453 DUP4 SLOAD PUSH2 0x2396 JUMP JUMPDEST DUP4 PUSH2 0x23E2 JUMP JUMPDEST PUSH0 PUSH1 0x1F DUP5 GT PUSH1 0x1 DUP2 EQ PUSH2 0x248A JUMPI PUSH0 DUP6 ISZERO PUSH2 0x2473 JUMPI POP DUP4 DUP3 ADD CALLDATALOAD JUMPDEST PUSH0 NOT PUSH1 0x3 DUP8 SWAP1 SHL SHR NOT AND PUSH1 0x1 DUP7 SWAP1 SHL OR DUP4 SSTORE PUSH2 0x2426 JUMP JUMPDEST PUSH0 DUP4 DUP2 MSTORE PUSH1 0x20 DUP2 KECCAK256 PUSH1 0x1F NOT DUP8 AND SWAP2 JUMPDEST DUP3 DUP2 LT ISZERO PUSH2 0x24B9 JUMPI DUP7 DUP6 ADD CALLDATALOAD DUP3 SSTORE PUSH1 0x20 SWAP5 DUP6 ADD SWAP5 PUSH1 0x1 SWAP1 SWAP3 ADD SWAP2 ADD PUSH2 0x2499 JUMP JUMPDEST POP DUP7 DUP3 LT ISZERO PUSH2 0x24D5 JUMPI PUSH0 NOT PUSH1 0xF8 DUP9 PUSH1 0x3 SHL AND SHR NOT DUP5 DUP8 ADD CALLDATALOAD AND DUP2 SSTORE JUMPDEST POP POP PUSH1 0x1 DUP6 PUSH1 0x1 SHL ADD DUP4 SSTORE POP POP POP POP POP JUMP JUMPDEST DUP1 ISZERO ISZERO DUP2 EQ PUSH2 0x1C47 JUMPI PUSH0 DUP1 REVERT JUMPDEST PUSH0 PUSH1 0x20 DUP3 DUP5 SUB SLT ISZERO PUSH2 0x2504 JUMPI PUSH0 DUP1 REVERT JUMPDEST DUP2 CALLDATALOAD PUSH2 0x250F DUP2 PUSH2 0x24E7 JUMP JUMPDEST SWAP4 SWAP3 POP POP POP JUMP JUMPDEST PUSH4 0x4E487B71 PUSH1 0xE0 SHL PUSH0 MSTORE PUSH1 0x32 PUSH1 0x4 MSTORE PUSH1 0x24 PUSH0 REVERT JUMPDEST PUSH0 DUP1 DUP4 CALLDATALOAD PUSH1 0x1E NOT DUP5 CALLDATASIZE SUB ADD DUP2 SLT PUSH2 0x253F JUMPI PUSH0 DUP1 REVERT JUMPDEST DUP4 ADD DUP1 CALLDATALOAD SWAP2 POP PUSH8 0xFFFFFFFFFFFFFFFF DUP3 GT ISZERO PUSH2 0x2559 JUMPI PUSH0 DUP1 REVERT JUMPDEST PUSH1 0x20 ADD SWAP2 POP CALLDATASIZE DUP2 SWAP1 SUB DUP3 SGT ISZERO PUSH2 0x1EED JUMPI PUSH0 DUP1 REVERT JUMPDEST PUSH1 0x4 DUP2 LT PUSH2 0x1C47 JUMPI PUSH0 DUP1 REVERT JUMPDEST DUP2 CALLDATALOAD PUSH2 0x2584 DUP2 PUSH2 0x24E7 JUMP JUMPDEST DUP2 SLOAD PUSH1 0xFF NOT DUP2 AND SWAP2 ISZERO ISZERO PUSH1 0xFF AND SWAP2 DUP3 OR DUP4 SSTORE PUSH1 0x20 DUP5 ADD CALLDATALOAD PUSH2 0x25A4 DUP2 PUSH2 0x24E7 JUMP JUMPDEST PUSH2 0xFF00 SWAP1 ISZERO ISZERO PUSH1 0x8 SHL AND PUSH2 0xFFFF NOT DUP3 AND DUP4 OR DUP2 OR DUP5 SSTORE PUSH1 0x40 DUP6 ADD CALLDATALOAD PUSH2 0x25C8 DUP2 PUSH2 0x256D JUMP JUMPDEST PUSH2 0x25D1 DUP2 PUSH2 0x20A2 JUMP JUMPDEST PUSH3 0xFF0000 DUP2 PUSH1 0x10 SHL AND DUP5 PUSH3 0xFFFFFF NOT DUP6 AND OR DUP4 OR OR DUP6 SSTORE POP POP POP POP POP POP JUMP JUMPDEST PUSH0 PUSH1 0x1 DUP3 ADD PUSH2 0x260D JUMPI PUSH4 0x4E487B71 PUSH1 0xE0 SHL PUSH0 MSTORE PUSH1 0x11 PUSH1 0x4 MSTORE PUSH1 0x24 PUSH0 REVERT JUMPDEST POP PUSH1 0x1 ADD SWAP1 JUMP JUMPDEST DUP4 DUP2 MSTORE PUSH1 0x40 PUSH1 0x20 DUP3 ADD MSTORE DUP2 PUSH1 0x40 DUP3 ADD MSTORE PUSH0 PUSH32 0x7FFFFFFFFFFFFFFFFFFFFFFFFFFFFFFFFFFFFFFFFFFFFFFFFFFFFFFFFFFFFFF DUP4 GT ISZERO PUSH2 0x2651 JUMPI PUSH0 DUP1 REVERT JUMPDEST DUP3 PUSH1 0x5 SHL DUP1 DUP6 PUSH1 0x60 DUP6 ADD CALLDATACOPY SWAP2 SWAP1 SWAP2 ADD PUSH1 0x60 ADD SWAP5 SWAP4 POP POP POP POP JUMP JUMPDEST PUSH0 PUSH1 0x20 DUP3 DUP5 SUB SLT ISZERO PUSH2 0x267B JUMPI PUSH0 DUP1 REVERT JUMPDEST DUP2 CALLDATALOAD PUSH2 0x250F DUP2 PUSH2 0x256D JUMP INVALID LOG2 PUSH5 0x6970667358 0x22 SLT KECCAK256 0xDE 0xE9 CALLVALUE SWAP13 0x2D 0xA8 0xD8 0xC0 0xB0 SWAP13 0xFC PUSH2 0x436D NOT EXTCODEHASH PUSH4 0x1001D6C0 PUSH13 0xB54850A3F64E4EC2192E64736F PUSH13 0x63430008190033000000000000 "
    },
    "gasEstimates": {
      "creation": {
        "codeDepositCost": "1983200",
        "executionCost": "2096",
        "totalCost": "1985296"
      },
      "external": {
        "UserPolls(address,uint256)": "4692",
        "caseVote(uint256,uint256[])": "infinite",
        "closePoll(uint256)": "infinite",
        "createPoll(string,string,uint256,uint256,string[],(bool,bool,uint8))": "infinite",
        "deletePoll(uint256)": "infinite",
        "getPollDetails(uint256)": "infinite",
        "getPollSummaries()": "infinite",
        "polls(uint256)": "infinite"
      },
      "internal": {
        "getOptionsResult(struct Polls.Poll memory)": "infinite",
        "getPoll(uint256)": "infinite",
        "getStatus(struct Polls.Poll memory)": "infinite",
        "validateDesc(string calldata)": "infinite",
        "validateOptions(string calldata[] calldata)": "infinite",
        "validateSettings(struct Polls.PollSettings calldata)": "infinite",
        "validateTimes(uint256,uint256)": "infinite",
        "validateTitle(string calldata)": "infinite"
      }
    },
    "methodIdentifiers": {
      "UserPolls(address,uint256)": "1994a615",
      "caseVote(uint256,uint256[])": "acbcf3bd",
      "closePoll(uint256)": "9534e637",
      "createPoll(string,string,uint256,uint256,string[],(bool,bool,uint8))": "21b91db5",
      "deletePoll(uint256)": "1f35b51d",
      "getPollDetails(uint256)": "9a0040e4",
      "getPollSummaries()": "dfcaab88",
      "polls(uint256)": "ac2f0074"
    }
  },
  "storageLayout": {
    "storage": [
      {
        "astId": 98,
        "contract": "Polls.sol:Polls",
        "label": "polls",
        "offset": 0,
        "slot": "0",
        "type": "t_array(t_struct(Poll)44_storage)dyn_storage"
      },
      {
        "astId": 103,
        "contract": "Polls.sol:Polls",
        "label": "UserPolls",
        "offset": 0,
        "slot": "1",
        "type": "t_mapping(t_address,t_array(t_uint256)dyn_storage)"
      },
      {
        "astId": 109,
        "contract": "Polls.sol:Polls",
        "label": "hasVoted",
        "offset": 0,
        "slot": "2",
        "type": "t_mapping(t_uint256,t_mapping(t_address,t_bool))"
      },
      {
        "astId": 113,
        "contract": "Polls.sol:Polls",
        "label": "pollVotes",
        "offset": 0,
        "slot": "3",
        "type": "t_mapping(t_uint256,t_uint256)"
      },
      {
        "astId": 119,
        "contract": "Polls.sol:Polls",
        "label": "optionVotes",
        "offset": 0,
        "slot": "4",
        "type": "t_mapping(t_uint256,t_mapping(t_uint256,t_uint256))"
      },
      {
        "astId": 126,
        "contract": "Polls.sol:Polls",
        "label": "votedIndices",
        "offset": 0,
        "slot": "5",
        "type": "t_mapping(t_uint256,t_mapping(t_address,t_array(t_uint256)dyn_storage))"
      }
    ],
    "types": {
      "t_address": {
        "encoding": "inplace",
        "label": "address",
        "numberOfBytes": "20"
      },
      "t_array(t_string_storage)dyn_storage": {
        "base": "t_string_storage",
        "encoding": "dynamic_array",
        "label": "string[]",
        "numberOfBytes": "32"
      },
      "t_array(t_struct(Poll)44_storage)dyn_storage": {
        "base": "t_struct(Poll)44_storage",
        "encoding": "dynamic_array",
        "label": "struct Polls.Poll[]",
        "numberOfBytes": "32"
      },
      "t_array(t_uint256)dyn_storage": {
        "base": "t_uint256",
        "encoding": "dynamic_array",
        "label": "uint256[]",
        "numberOfBytes": "32"
      },
      "t_bool": {
        "encoding": "inplace",
        "label": "bool",
        "numberOfBytes": "1"
      },
      "t_enum(PollResultVisibility)11": {
        "encoding": "inplace",
        "label": "enum Polls.PollResultVisibility",
        "numberOfBytes": "1"
      },
      "t_mapping(t_address,t_array(t_uint256)dyn_storage)": {
        "encoding": "mapping",
        "key": "t_address",
        "label": "mapping(address => uint256[])",
        "numberOfBytes": "32",
        "value": "t_array(t_uint256)dyn_storage"
      },
      "t_mapping(t_address,t_bool)": {
        "encoding": "mapping",
        "key": "t_address",
        "label": "mapping(address => bool)",
        "numberOfBytes": "32",
        "value": "t_bool"
      },
      "t_mapping(t_uint256,t_mapping(t_address,t_array(t_uint256)dyn_storage))": {
        "encoding": "mapping",
        "key": "t_uint256",
        "label": "mapping(uint256 => mapping(address => uint256[]))",
        "numberOfBytes": "32",
        "value": "t_mapping(t_address,t_array(t_uint256)dyn_storage)"
      },
      "t_mapping(t_uint256,t_mapping(t_address,t_bool))": {
        "encoding": "mapping",
        "key": "t_uint256",
        "label": "mapping(uint256 => mapping(address => bool))",
        "numberOfBytes": "32",
        "value": "t_mapping(t_address,t_bool)"
      },
      "t_mapping(t_uint256,t_mapping(t_uint256,t_uint256))": {
        "encoding": "mapping",
        "key": "t_uint256",
        "label": "mapping(uint256 => mapping(uint256 => uint256))",
        "numberOfBytes": "32",
        "value": "t_mapping(t_uint256,t_uint256)"
      },
      "t_mapping(t_uint256,t_uint256)": {
        "encoding": "mapping",
        "key": "t_uint256",
        "label": "mapping(uint256 => uint256)",
        "numberOfBytes": "32",
        "value": "t_uint256"
      },
      "t_string_storage": {
        "encoding": "bytes",
        "label": "string",
        "numberOfBytes": "32"
      },
      "t_struct(Poll)44_storage": {
        "encoding": "inplace",
        "label": "struct Polls.Poll",
        "members": [
          {
            "astId": 21,
            "contract": "Polls.sol:Polls",
            "label": "creator",
            "offset": 0,
            "slot": "0",
            "type": "t_address"
          },
          {
            "astId": 23,
            "contract": "Polls.sol:Polls",
            "label": "id",
            "offset": 0,
            "slot": "1",
            "type": "t_uint256"
          },
          {
            "astId": 25,
            "contract": "Polls.sol:Polls",
            "label": "title",
            "offset": 0,
            "slot": "2",
            "type": "t_string_storage"
          },
          {
            "astId": 27,
            "contract": "Polls.sol:Polls",
            "label": "description",
            "offset": 0,
            "slot": "3",
            "type": "t_string_storage"
          },
          {
            "astId": 29,
            "contract": "Polls.sol:Polls",
            "label": "startsAt",
            "offset": 0,
            "slot": "4",
            "type": "t_uint256"
          },
          {
            "astId": 31,
            "contract": "Polls.sol:Polls",
            "label": "endsAt",
            "offset": 0,
            "slot": "5",
            "type": "t_uint256"
          },
          {
            "astId": 34,
            "contract": "Polls.sol:Polls",
            "label": "options",
            "offset": 0,
            "slot": "6",
            "type": "t_array(t_string_storage)dyn_storage"
          },
          {
            "astId": 36,
            "contract": "Polls.sol:Polls",
            "label": "pollVotes",
            "offset": 0,
            "slot": "7",
            "type": "t_uint256"
          },
          {
            "astId": 39,
            "contract": "Polls.sol:Polls",
            "label": "settings",
            "offset": 0,
            "slot": "8",
            "type": "t_struct(PollSettings)19_storage"
          },
          {
            "astId": 41,
            "contract": "Polls.sol:Polls",
            "label": "createdAt",
            "offset": 0,
            "slot": "9",
            "type": "t_uint256"
          },
          {
            "astId": 43,
            "contract": "Polls.sol:Polls",
            "label": "isDeleted",
            "offset": 0,
            "slot": "10",
            "type": "t_bool"
          }
        ],
        "numberOfBytes": "352"
      },
      "t_struct(PollSettings)19_storage": {
        "encoding": "inplace",
        "label": "struct Polls.PollSettings",
        "members": [
          {
            "astId": 13,
            "contract": "Polls.sol:Polls",
            "label": "multiChoice",
            "offset": 0,
            "slot": "0",
            "type": "t_bool"
          },
          {
            "astId": 15,
            "contract": "Polls.sol:Polls",
            "label": "noDeadline",
            "offset": 1,
            "slot": "0",
            "type": "t_bool"
          },
          {
            "astId": 18,
            "contract": "Polls.sol:Polls",
            "label": "resultVisibility",
            "offset": 2,
            "slot": "0",
            "type": "t_enum(PollResultVisibility)11"
          }
        ],
        "numberOfBytes": "32"
      },
      "t_uint256": {
        "encoding": "inplace",
        "label": "uint256",
        "numberOfBytes": "32"
      }
    }
  },
  "userdoc": {
    "kind": "user",
    "methods": {},
    "version": 1
  }
}