{
  "abi": [
    {
      "inputs": [],
      "name": "AccessDenied",
      "type": "error"
    },
    {
      "inputs": [],
      "name": "AlreadyVoted",
      "type": "error"
    },
    {
      "inputs": [],
      "name": "DescriptionTooLarge",
      "type": "error"
    },
    {
      "inputs": [],
      "name": "DescriptionTooShort",
      "type": "error"
    },
    {
      "inputs": [],
      "name": "DuplicateOptionSelected",
      "type": "error"
    },
    {
      "inputs": [],
      "name": "IncorrectPassword",
      "type": "error"
    },
    {
      "inputs": [],
      "name": "InvalidPollOption",
      "type": "error"
    },
    {
      "inputs": [],
      "name": "MultiChoiceNotAllowed",
      "type": "error"
    },
    {
      "inputs": [],
      "name": "NoOptionSelected",
      "type": "error"
    },
    {
      "inputs": [
        {
          "internalType": "uint256",
          "name": "index",
          "type": "uint256"
        }
      ],
      "name": "OptionTooLarge",
      "type": "error"
    },
    {
      "inputs": [
        {
          "internalType": "uint256",
          "name": "index",
          "type": "uint256"
        }
      ],
      "name": "OptionTooShort",
      "type": "error"
    },
    {
      "inputs": [],
      "name": "PollAlreadyClosed",
      "type": "error"
    },
    {
      "inputs": [],
      "name": "PollMustEndAfterStart",
      "type": "error"
    },
    {
      "inputs": [],
      "name": "PollMustHaveAtLeastTwoOptions",
      "type": "error"
    },
    {
      "inputs": [],
      "name": "PollMustHaveAtMostTenOptions",
      "type": "error"
    },
    {
      "inputs": [],
      "name": "PollMustHavePassword",
      "type": "error"
    },
    {
      "inputs": [],
      "name": "PollMustStartInTheFuture",
      "type": "error"
    },
    {
      "inputs": [],
      "name": "PollNotClosed",
      "type": "error"
    },
    {
      "inputs": [
        {
          "internalType": "uint256",
          "name": "pollId",
          "type": "uint256"
        }
      ],
      "name": "PollNotFound",
      "type": "error"
    },
    {
      "inputs": [],
      "name": "PollNotOpen",
      "type": "error"
    },
    {
      "inputs": [],
      "name": "PollResultVisibilitySettingInvalid",
      "type": "error"
    },
    {
      "inputs": [],
      "name": "TitleTooLarge",
      "type": "error"
    },
    {
      "inputs": [],
      "name": "TitleTooShort",
      "type": "error"
    },
    {
      "anonymous": false,
      "inputs": [
        {
          "indexed": true,
          "internalType": "address",
          "name": "creator",
          "type": "address"
        },
        {
          "indexed": true,
          "internalType": "uint256",
          "name": "pollId",
          "type": "uint256"
        }
      ],
      "name": "PollClosed",
      "type": "event"
    },
    {
      "anonymous": false,
      "inputs": [
        {
          "indexed": true,
          "internalType": "address",
          "name": "creator",
          "type": "address"
        },
        {
          "indexed": true,
          "internalType": "uint256",
          "name": "pollId",
          "type": "uint256"
        }
      ],
      "name": "PollCreated",
      "type": "event"
    },
    {
      "anonymous": false,
      "inputs": [
        {
          "indexed": true,
          "internalType": "address",
          "name": "voter",
          "type": "address"
        },
        {
          "indexed": false,
          "internalType": "uint256",
          "name": "pollId",
          "type": "uint256"
        },
        {
          "indexed": false,
          "internalType": "uint256[]",
          "name": "optionIndices",
          "type": "uint256[]"
        }
      ],
      "name": "VoteCast",
      "type": "event"
    },
    {
      "inputs": [
        {
          "internalType": "address",
          "name": "",
          "type": "address"
        },
        {
          "internalType": "uint256",
          "name": "",
          "type": "uint256"
        }
      ],
      "name": "UserPolls",
      "outputs": [
        {
          "internalType": "uint256",
          "name": "",
          "type": "uint256"
        }
      ],
      "stateMutability": "view",
      "type": "function"
    },
    {
      "inputs": [
        {
          "internalType": "uint256",
          "name": "_pollId",
          "type": "uint256"
        },
        {
          "internalType": "uint256[]",
          "name": "_optionIndices",
          "type": "uint256[]"
        }
      ],
      "name": "castVote",
      "outputs": [],
      "stateMutability": "nonpayable",
      "type": "function"
    },
    {
      "inputs": [
        {
          "internalType": "uint256",
          "name": "_pollId",
          "type": "uint256"
        }
      ],
      "name": "closePoll",
      "outputs": [],
      "stateMutability": "nonpayable",
      "type": "function"
    },
    {
      "inputs": [
        {
          "internalType": "string",
          "name": "_title",
          "type": "string"
        },
        {
          "internalType": "string",
          "name": "_desc",
          "type": "string"
        },
        {
          "internalType": "uint256",
          "name": "_startsAt",
          "type": "uint256"
        },
        {
          "internalType": "uint256",
          "name": "_endsAt",
          "type": "uint256"
        },
        {
          "internalType": "string[]",
          "name": "_options",
          "type": "string[]"
        },
        {
          "components": [
            {
              "internalType": "bool",
              "name": "multiChoice",
              "type": "bool"
            },
            {
              "internalType": "bool",
              "name": "noDeadline",
              "type": "bool"
            },
            {
              "internalType": "enum Polls.PollResultVisibility",
              "name": "resultVisibility",
              "type": "uint8"
            }
          ],
          "internalType": "struct Polls.PollSettings",
          "name": "_settings",
          "type": "tuple"
        }
      ],
      "name": "createPoll",
      "outputs": [
        {
          "internalType": "uint256",
          "name": "",
          "type": "uint256"
        }
      ],
      "stateMutability": "nonpayable",
      "type": "function"
    },
    {
      "inputs": [
        {
          "internalType": "uint256",
          "name": "_pollId",
          "type": "uint256"
        }
      ],
      "name": "deletePoll",
      "outputs": [],
      "stateMutability": "nonpayable",
      "type": "function"
    },
    {
      "inputs": [
        {
          "internalType": "address",
          "name": "_voter",
          "type": "address"
        },
        {
          "internalType": "uint256",
          "name": "_pollId",
          "type": "uint256"
        }
      ],
      "name": "getPollDetails",
      "outputs": [
        {
          "components": [
            {
              "internalType": "address",
              "name": "creator",
              "type": "address"
            },
            {
              "internalType": "string",
              "name": "title",
              "type": "string"
            },
            {
              "internalType": "string",
              "name": "description",
              "type": "string"
            },
            {
              "internalType": "uint256",
              "name": "startsAt",
              "type": "uint256"
            },
            {
              "internalType": "uint256",
              "name": "endsAt",
              "type": "uint256"
            },
            {
              "internalType": "string[]",
              "name": "options",
              "type": "string[]"
            },
            {
              "internalType": "uint256",
              "name": "pollVotes",
              "type": "uint256"
            },
            {
              "internalType": "enum Polls.PollStatus",
              "name": "status",
              "type": "uint8"
            },
            {
              "components": [
                {
                  "internalType": "bool",
                  "name": "multiChoice",
                  "type": "bool"
                },
                {
                  "internalType": "bool",
                  "name": "noDeadline",
                  "type": "bool"
                },
                {
                  "internalType": "enum Polls.PollResultVisibility",
                  "name": "resultVisibility",
                  "type": "uint8"
                }
              ],
              "internalType": "struct Polls.PollSettings",
              "name": "settings",
              "type": "tuple"
            },
            {
              "internalType": "bool",
              "name": "hasVoted",
              "type": "bool"
            },
            {
              "internalType": "uint256[]",
              "name": "votedIndices",
              "type": "uint256[]"
            },
            {
              "internalType": "uint256",
              "name": "createdAt",
              "type": "uint256"
            }
          ],
          "internalType": "struct Polls.PollDetails",
          "name": "",
          "type": "tuple"
        }
      ],
      "stateMutability": "view",
      "type": "function"
    },
    {
      "inputs": [
        {
          "internalType": "uint256",
          "name": "_pollId",
          "type": "uint256"
        },
        {
          "internalType": "address",
          "name": "_voter",
          "type": "address"
        }
      ],
      "name": "getPollResults",
      "outputs": [
        {
          "components": [
            {
              "internalType": "uint256",
              "name": "pollVotes",
              "type": "uint256"
            },
            {
              "components": [
                {
                  "internalType": "string",
                  "name": "text",
                  "type": "string"
                },
                {
                  "internalType": "uint256",
                  "name": "votes",
                  "type": "uint256"
                }
              ],
              "internalType": "struct Polls.OptionResult[]",
              "name": "optionsResult",
              "type": "tuple[]"
            }
          ],
          "internalType": "struct Polls.PollResults",
          "name": "",
          "type": "tuple"
        }
      ],
      "stateMutability": "view",
      "type": "function"
    },
    {
      "inputs": [
        {
          "internalType": "address",
          "name": "_user",
          "type": "address"
        }
      ],
      "name": "getPollSummaries",
      "outputs": [
        {
          "components": [
            {
              "internalType": "address",
              "name": "creator",
              "type": "address"
            },
            {
              "internalType": "uint256",
              "name": "id",
              "type": "uint256"
            },
            {
              "internalType": "string",
              "name": "title",
              "type": "string"
            },
            {
              "internalType": "uint256",
              "name": "pollVotes",
              "type": "uint256"
            },
            {
              "internalType": "enum Polls.PollStatus",
              "name": "status",
              "type": "uint8"
            },
            {
              "internalType": "uint256",
              "name": "startsAt",
              "type": "uint256"
            },
            {
              "internalType": "uint256",
              "name": "endsAt",
              "type": "uint256"
            },
            {
              "internalType": "uint256",
              "name": "createdAt",
              "type": "uint256"
            }
          ],
          "internalType": "struct Polls.PollSummary[]",
          "name": "",
          "type": "tuple[]"
        }
      ],
      "stateMutability": "view",
      "type": "function"
    },
    {
      "inputs": [
        {
          "internalType": "uint256",
          "name": "",
          "type": "uint256"
        }
      ],
      "name": "polls",
      "outputs": [
        {
          "internalType": "address",
          "name": "creator",
          "type": "address"
        },
        {
          "internalType": "uint256",
          "name": "id",
          "type": "uint256"
        },
        {
          "internalType": "string",
          "name": "title",
          "type": "string"
        },
        {
          "internalType": "string",
          "name": "description",
          "type": "string"
        },
        {
          "internalType": "uint256",
          "name": "startsAt",
          "type": "uint256"
        },
        {
          "internalType": "uint256",
          "name": "endsAt",
          "type": "uint256"
        },
        {
          "internalType": "uint256",
          "name": "pollVotes",
          "type": "uint256"
        },
        {
          "components": [
            {
              "internalType": "bool",
              "name": "multiChoice",
              "type": "bool"
            },
            {
              "internalType": "bool",
              "name": "noDeadline",
              "type": "bool"
            },
            {
              "internalType": "enum Polls.PollResultVisibility",
              "name": "resultVisibility",
              "type": "uint8"
            }
          ],
          "internalType": "struct Polls.PollSettings",
          "name": "settings",
          "type": "tuple"
        },
        {
          "internalType": "uint256",
          "name": "createdAt",
          "type": "uint256"
        },
        {
          "internalType": "bool",
          "name": "isDeleted",
          "type": "bool"
        }
      ],
      "stateMutability": "view",
      "type": "function"
    }
  ],
  "devdoc": {
    "kind": "dev",
    "methods": {},
    "version": 1
  },
  "evm": {
    "assembly": "    /* \"Polls.sol\":72:11685  contract Polls {... */\n  mstore(0x40, 0x80)\n  callvalue\n  dup1\n  iszero\n  tag_1\n  jumpi\n  0x00\n  dup1\n  revert\ntag_1:\n  pop\n  dataSize(sub_0)\n  dup1\n  dataOffset(sub_0)\n  0x00\n  codecopy\n  0x00\n  return\nstop\n\nsub_0: assembly {\n        /* \"Polls.sol\":72:11685  contract Polls {... */\n      mstore(0x40, 0x80)\n      callvalue\n      dup1\n      iszero\n      tag_1\n      jumpi\n      0x00\n      dup1\n      revert\n    tag_1:\n      pop\n      jumpi(tag_2, lt(calldatasize, 0x04))\n      shr(0xe0, calldataload(0x00))\n      dup1\n      0x21b91db5\n      gt\n      tag_12\n      jumpi\n      dup1\n      0x9137b2e9\n      gt\n      tag_13\n      jumpi\n      dup1\n      0x9137b2e9\n      eq\n      tag_9\n      jumpi\n      dup1\n      0x9534e637\n      eq\n      tag_10\n      jumpi\n      dup1\n      0xac2f0074\n      eq\n      tag_11\n      jumpi\n      0x00\n      dup1\n      revert\n    tag_13:\n      dup1\n      0x21b91db5\n      eq\n      tag_7\n      jumpi\n      dup1\n      0x2fa48e9e\n      eq\n      tag_8\n      jumpi\n      0x00\n      dup1\n      revert\n    tag_12:\n      dup1\n      0x14956b6f\n      eq\n      tag_3\n      jumpi\n      dup1\n      0x1994a615\n      eq\n      tag_4\n      jumpi\n      dup1\n      0x1e25e730\n      eq\n      tag_5\n      jumpi\n      dup1\n      0x1f35b51d\n      eq\n      tag_6\n      jumpi\n    tag_2:\n      0x00\n      dup1\n      revert\n        /* \"Polls.sol\":5872:6349  function getPollResults(... */\n    tag_3:\n      tag_14\n      tag_15\n      calldatasize\n      0x04\n      tag_16\n      jump\t// in\n    tag_15:\n      tag_17\n      jump\t// in\n    tag_14:\n      mload(0x40)\n      tag_18\n      swap2\n      swap1\n      tag_19\n      jump\t// in\n    tag_18:\n      mload(0x40)\n      dup1\n      swap2\n      sub\n      swap1\n      return\n        /* \"Polls.sol\":1621:1667  mapping(address => uint256[]) public UserPolls */\n    tag_4:\n      tag_20\n      tag_21\n      calldatasize\n      0x04\n      tag_22\n      jump\t// in\n    tag_21:\n      tag_23\n      jump\t// in\n    tag_20:\n      mload(0x40)\n        /* \"#utility.yul\":2357:2382   */\n      swap1\n      dup2\n      mstore\n        /* \"#utility.yul\":2345:2347   */\n      0x20\n        /* \"#utility.yul\":2330:2348   */\n      add\n        /* \"Polls.sol\":1621:1667  mapping(address => uint256[]) public UserPolls */\n      tag_18\n        /* \"#utility.yul\":2211:2388   */\n      jump\n        /* \"Polls.sol\":5091:5864  function getPollDetails(... */\n    tag_5:\n      tag_26\n      tag_27\n      calldatasize\n      0x04\n      tag_22\n      jump\t// in\n    tag_27:\n      tag_28\n      jump\t// in\n    tag_26:\n      mload(0x40)\n      tag_18\n      swap2\n      swap1\n      tag_30\n      jump\t// in\n        /* \"Polls.sol\":8697:8971  function deletePoll(uint256 _pollId) external {... */\n    tag_6:\n      tag_31\n      tag_32\n      calldatasize\n      0x04\n      tag_33\n      jump\t// in\n    tag_32:\n      tag_34\n      jump\t// in\n    tag_31:\n      stop\n        /* \"Polls.sol\":3077:4230  function createPoll(... */\n    tag_7:\n      tag_20\n      tag_36\n      calldatasize\n      0x04\n      tag_37\n      jump\t// in\n    tag_36:\n      tag_38\n      jump\t// in\n        /* \"Polls.sol\":7065:8363  function castVote(... */\n    tag_8:\n      tag_31\n      tag_41\n      calldatasize\n      0x04\n      tag_42\n      jump\t// in\n    tag_41:\n      tag_43\n      jump\t// in\n        /* \"Polls.sol\":4238:5083  function getPollSummaries(... */\n    tag_9:\n      tag_44\n      tag_45\n      calldatasize\n      0x04\n      tag_46\n      jump\t// in\n    tag_45:\n      tag_47\n      jump\t// in\n    tag_44:\n      mload(0x40)\n      tag_18\n      swap2\n      swap1\n      tag_49\n      jump\t// in\n        /* \"Polls.sol\":8371:8689  function closePoll(uint256 _pollId) external {... */\n    tag_10:\n      tag_31\n      tag_51\n      calldatasize\n      0x04\n      tag_33\n      jump\t// in\n    tag_51:\n      tag_52\n      jump\t// in\n        /* \"Polls.sol\":1595:1614  Poll[] public polls */\n    tag_11:\n      tag_53\n      tag_54\n      calldatasize\n      0x04\n      tag_33\n      jump\t// in\n    tag_54:\n      tag_55\n      jump\t// in\n    tag_53:\n      mload(0x40)\n      tag_18\n      swap11\n      swap10\n      swap9\n      swap8\n      swap7\n      swap6\n      swap5\n      swap4\n      swap3\n      swap2\n      swap1\n      tag_57\n      jump\t// in\n        /* \"Polls.sol\":5872:6349  function getPollResults(... */\n    tag_17:\n      0x40\n      dup1\n      mload\n      dup1\n      dup3\n      add\n      swap1\n      swap2\n      mstore\n      0x00\n      dup2\n      mstore\n      0x60\n      0x20\n      dup3\n      add\n      mstore\n        /* \"Polls.sol\":6008:6025  Poll storage poll */\n      0x00\n        /* \"Polls.sol\":6028:6044  getPoll(_pollId) */\n      tag_61\n        /* \"Polls.sol\":6036:6043  _pollId */\n      dup5\n        /* \"Polls.sol\":6028:6035  getPoll */\n      tag_62\n        /* \"Polls.sol\":6028:6044  getPoll(_pollId) */\n      jump\t// in\n    tag_61:\n        /* \"Polls.sol\":6062:6093  shouldShowResults(poll, _voter) */\n      0x40\n      dup1\n      mload\n      0x0160\n      dup2\n      add\n      dup3\n      mstore\n      dup3\n      sload\n      sub(shl(0xa0, 0x01), 0x01)\n      and\n      dup2\n      mstore\n      0x01\n      dup4\n      add\n      sload\n      0x20\n      dup3\n      add\n      mstore\n      0x02\n      dup4\n      add\n      dup1\n      sload\n        /* \"Polls.sol\":6008:6044  Poll storage poll = getPoll(_pollId) */\n      swap4\n      swap5\n      pop\n        /* \"Polls.sol\":6062:6093  shouldShowResults(poll, _voter) */\n      tag_63\n      swap4\n      swap2\n      swap3\n        /* \"Polls.sol\":6008:6044  Poll storage poll = getPoll(_pollId) */\n      dup6\n      swap3\n        /* \"Polls.sol\":6062:6093  shouldShowResults(poll, _voter) */\n      swap1\n      dup5\n      add\n      swap2\n      swap1\n      tag_64\n      swap1\n      tag_65\n      jump\t// in\n    tag_64:\n      dup1\n      0x1f\n      add\n      0x20\n      dup1\n      swap2\n      div\n      mul\n      0x20\n      add\n      mload(0x40)\n      swap1\n      dup2\n      add\n      0x40\n      mstore\n      dup1\n      swap3\n      swap2\n      swap1\n      dup2\n      dup2\n      mstore\n      0x20\n      add\n      dup3\n      dup1\n      sload\n      tag_66\n      swap1\n      tag_65\n      jump\t// in\n    tag_66:\n      dup1\n      iszero\n      tag_67\n      jumpi\n      dup1\n      0x1f\n      lt\n      tag_68\n      jumpi\n      0x0100\n      dup1\n      dup4\n      sload\n      div\n      mul\n      dup4\n      mstore\n      swap2\n      0x20\n      add\n      swap2\n      jump(tag_67)\n    tag_68:\n      dup3\n      add\n      swap2\n      swap1\n      0x00\n      mstore\n      keccak256(0x00, 0x20)\n      swap1\n    tag_69:\n      dup2\n      sload\n      dup2\n      mstore\n      swap1\n      0x01\n      add\n      swap1\n      0x20\n      add\n      dup1\n      dup4\n      gt\n      tag_69\n      jumpi\n      dup3\n      swap1\n      sub\n      0x1f\n      and\n      dup3\n      add\n      swap2\n    tag_67:\n      pop\n      pop\n      pop\n      pop\n      pop\n      dup2\n      mstore\n      0x20\n      add\n      0x03\n      dup3\n      add\n      dup1\n      sload\n      tag_70\n      swap1\n      tag_65\n      jump\t// in\n    tag_70:\n      dup1\n      0x1f\n      add\n      0x20\n      dup1\n      swap2\n      div\n      mul\n      0x20\n      add\n      mload(0x40)\n      swap1\n      dup2\n      add\n      0x40\n      mstore\n      dup1\n      swap3\n      swap2\n      swap1\n      dup2\n      dup2\n      mstore\n      0x20\n      add\n      dup3\n      dup1\n      sload\n      tag_71\n      swap1\n      tag_65\n      jump\t// in\n    tag_71:\n      dup1\n      iszero\n      tag_72\n      jumpi\n      dup1\n      0x1f\n      lt\n      tag_73\n      jumpi\n      0x0100\n      dup1\n      dup4\n      sload\n      div\n      mul\n      dup4\n      mstore\n      swap2\n      0x20\n      add\n      swap2\n      jump(tag_72)\n    tag_73:\n      dup3\n      add\n      swap2\n      swap1\n      0x00\n      mstore\n      keccak256(0x00, 0x20)\n      swap1\n    tag_74:\n      dup2\n      sload\n      dup2\n      mstore\n      swap1\n      0x01\n      add\n      swap1\n      0x20\n      add\n      dup1\n      dup4\n      gt\n      tag_74\n      jumpi\n      dup3\n      swap1\n      sub\n      0x1f\n      and\n      dup3\n      add\n      swap2\n    tag_72:\n      pop\n      pop\n      pop\n      pop\n      pop\n      dup2\n      mstore\n      0x20\n      add\n      0x04\n      dup3\n      add\n      sload\n      dup2\n      mstore\n      0x20\n      add\n      0x05\n      dup3\n      add\n      sload\n      dup2\n      mstore\n      0x20\n      add\n      0x06\n      dup3\n      add\n      dup1\n      sload\n      dup1\n      0x20\n      mul\n      0x20\n      add\n      mload(0x40)\n      swap1\n      dup2\n      add\n      0x40\n      mstore\n      dup1\n      swap3\n      swap2\n      swap1\n      dup2\n      dup2\n      mstore\n      0x20\n      add\n      0x00\n      swap1\n    tag_75:\n      dup3\n      dup3\n      lt\n      iszero\n      tag_76\n      jumpi\n      dup4\n      dup3\n      swap1\n      0x00\n      mstore\n      keccak256(0x00, 0x20)\n      add\n      dup1\n      sload\n      tag_78\n      swap1\n      tag_65\n      jump\t// in\n    tag_78:\n      dup1\n      0x1f\n      add\n      0x20\n      dup1\n      swap2\n      div\n      mul\n      0x20\n      add\n      mload(0x40)\n      swap1\n      dup2\n      add\n      0x40\n      mstore\n      dup1\n      swap3\n      swap2\n      swap1\n      dup2\n      dup2\n      mstore\n      0x20\n      add\n      dup3\n      dup1\n      sload\n      tag_79\n      swap1\n      tag_65\n      jump\t// in\n    tag_79:\n      dup1\n      iszero\n      tag_80\n      jumpi\n      dup1\n      0x1f\n      lt\n      tag_81\n      jumpi\n      0x0100\n      dup1\n      dup4\n      sload\n      div\n      mul\n      dup4\n      mstore\n      swap2\n      0x20\n      add\n      swap2\n      jump(tag_80)\n    tag_81:\n      dup3\n      add\n      swap2\n      swap1\n      0x00\n      mstore\n      keccak256(0x00, 0x20)\n      swap1\n    tag_82:\n      dup2\n      sload\n      dup2\n      mstore\n      swap1\n      0x01\n      add\n      swap1\n      0x20\n      add\n      dup1\n      dup4\n      gt\n      tag_82\n      jumpi\n      dup3\n      swap1\n      sub\n      0x1f\n      and\n      dup3\n      add\n      swap2\n    tag_80:\n      pop\n      pop\n      pop\n      pop\n      pop\n      dup2\n      mstore\n      0x20\n      add\n      swap1\n      0x01\n      add\n      swap1\n      jump(tag_75)\n    tag_76:\n      pop\n      pop\n      pop\n      swap1\n      dup3\n      mstore\n      pop\n      0x07\n      dup3\n      add\n      sload\n      0x20\n      dup1\n      dup4\n      add\n      swap2\n      swap1\n      swap2\n      mstore\n      0x40\n      dup1\n      mload\n      0x60\n      dup2\n      add\n      dup3\n      mstore\n      0x08\n      dup6\n      add\n      dup1\n      sload\n      0xff\n      dup1\n      dup3\n      and\n      iszero\n      iszero\n      dup5\n      mstore\n      0x0100\n      dup3\n      div\n      dup2\n      and\n      iszero\n      iszero\n      swap6\n      dup5\n      add\n      swap6\n      swap1\n      swap6\n      mstore\n      swap5\n      dup4\n      add\n      swap5\n      swap2\n      swap4\n      swap1\n      swap3\n      dup5\n      add\n      swap2\n      0x010000\n      swap1\n      div\n      and\n      0x03\n      dup2\n      gt\n      iszero\n      tag_84\n      jumpi\n      tag_84\n      tag_85\n      jump\t// in\n    tag_84:\n      0x03\n      dup2\n      gt\n      iszero\n      tag_87\n      jumpi\n      tag_87\n      tag_85\n      jump\t// in\n    tag_87:\n      swap1\n      mstore\n      pop\n      dup2\n      mstore\n      0x09\n      dup3\n      add\n      sload\n      0x20\n      dup3\n      add\n      mstore\n      0x0a\n      swap1\n      swap2\n      add\n      sload\n      0xff\n      and\n      iszero\n      iszero\n      0x40\n      swap1\n      swap2\n      add\n      mstore\n        /* \"Polls.sol\":6086:6092  _voter */\n      dup5\n        /* \"Polls.sol\":6062:6079  shouldShowResults */\n      tag_88\n        /* \"Polls.sol\":6062:6093  shouldShowResults(poll, _voter) */\n      jump\t// in\n    tag_63:\n        /* \"Polls.sol\":6057:6116  if (!shouldShowResults(poll, _voter)) revert AccessDenied() */\n      tag_89\n      jumpi\n        /* \"Polls.sol\":6102:6116  AccessDenied() */\n      mload(0x40)\n      shl(0xe0, 0x4ca88867)\n      dup2\n      mstore\n      0x04\n      add\n      mload(0x40)\n      dup1\n      swap2\n      sub\n      swap1\n      revert\n        /* \"Polls.sol\":6057:6116  if (!shouldShowResults(poll, _voter)) revert AccessDenied() */\n    tag_89:\n        /* \"Polls.sol\":6167:6189  getOptionsResult(poll) */\n      0x40\n      dup1\n      mload\n      0x0160\n      dup2\n      add\n      dup3\n      mstore\n      dup3\n      sload\n      sub(shl(0xa0, 0x01), 0x01)\n      and\n      dup2\n      mstore\n      0x01\n      dup4\n      add\n      sload\n      0x20\n      dup3\n      add\n      mstore\n      0x02\n      dup4\n      add\n      dup1\n      sload\n        /* \"Polls.sol\":6129:6164  OptionResult[] memory optionsResult */\n      0x00\n      swap4\n        /* \"Polls.sol\":6167:6189  getOptionsResult(poll) */\n      tag_90\n      swap4\n      swap3\n        /* \"Polls.sol\":6184:6188  poll */\n      dup7\n      swap3\n        /* \"Polls.sol\":6167:6189  getOptionsResult(poll) */\n      swap2\n      dup5\n      add\n      swap2\n      tag_91\n      swap1\n      tag_65\n      jump\t// in\n    tag_91:\n      dup1\n      0x1f\n      add\n      0x20\n      dup1\n      swap2\n      div\n      mul\n      0x20\n      add\n      mload(0x40)\n      swap1\n      dup2\n      add\n      0x40\n      mstore\n      dup1\n      swap3\n      swap2\n      swap1\n      dup2\n      dup2\n      mstore\n      0x20\n      add\n      dup3\n      dup1\n      sload\n      tag_92\n      swap1\n      tag_65\n      jump\t// in\n    tag_92:\n      dup1\n      iszero\n      tag_93\n      jumpi\n      dup1\n      0x1f\n      lt\n      tag_94\n      jumpi\n      0x0100\n      dup1\n      dup4\n      sload\n      div\n      mul\n      dup4\n      mstore\n      swap2\n      0x20\n      add\n      swap2\n      jump(tag_93)\n    tag_94:\n      dup3\n      add\n      swap2\n      swap1\n      0x00\n      mstore\n      keccak256(0x00, 0x20)\n      swap1\n    tag_95:\n      dup2\n      sload\n      dup2\n      mstore\n      swap1\n      0x01\n      add\n      swap1\n      0x20\n      add\n      dup1\n      dup4\n      gt\n      tag_95\n      jumpi\n      dup3\n      swap1\n      sub\n      0x1f\n      and\n      dup3\n      add\n      swap2\n    tag_93:\n      pop\n      pop\n      pop\n      pop\n      pop\n      dup2\n      mstore\n      0x20\n      add\n      0x03\n      dup3\n      add\n      dup1\n      sload\n      tag_96\n      swap1\n      tag_65\n      jump\t// in\n    tag_96:\n      dup1\n      0x1f\n      add\n      0x20\n      dup1\n      swap2\n      div\n      mul\n      0x20\n      add\n      mload(0x40)\n      swap1\n      dup2\n      add\n      0x40\n      mstore\n      dup1\n      swap3\n      swap2\n      swap1\n      dup2\n      dup2\n      mstore\n      0x20\n      add\n      dup3\n      dup1\n      sload\n      tag_97\n      swap1\n      tag_65\n      jump\t// in\n    tag_97:\n      dup1\n      iszero\n      tag_98\n      jumpi\n      dup1\n      0x1f\n      lt\n      tag_99\n      jumpi\n      0x0100\n      dup1\n      dup4\n      sload\n      div\n      mul\n      dup4\n      mstore\n      swap2\n      0x20\n      add\n      swap2\n      jump(tag_98)\n    tag_99:\n      dup3\n      add\n      swap2\n      swap1\n      0x00\n      mstore\n      keccak256(0x00, 0x20)\n      swap1\n    tag_100:\n      dup2\n      sload\n      dup2\n      mstore\n      swap1\n      0x01\n      add\n      swap1\n      0x20\n      add\n      dup1\n      dup4\n      gt\n      tag_100\n      jumpi\n      dup3\n      swap1\n      sub\n      0x1f\n      and\n      dup3\n      add\n      swap2\n    tag_98:\n      pop\n      pop\n      pop\n      pop\n      pop\n      dup2\n      mstore\n      0x20\n      add\n      0x04\n      dup3\n      add\n      sload\n      dup2\n      mstore\n      0x20\n      add\n      0x05\n      dup3\n      add\n      sload\n      dup2\n      mstore\n      0x20\n      add\n      0x06\n      dup3\n      add\n      dup1\n      sload\n      dup1\n      0x20\n      mul\n      0x20\n      add\n      mload(0x40)\n      swap1\n      dup2\n      add\n      0x40\n      mstore\n      dup1\n      swap3\n      swap2\n      swap1\n      dup2\n      dup2\n      mstore\n      0x20\n      add\n      0x00\n      swap1\n    tag_101:\n      dup3\n      dup3\n      lt\n      iszero\n      tag_102\n      jumpi\n      dup4\n      dup3\n      swap1\n      0x00\n      mstore\n      keccak256(0x00, 0x20)\n      add\n      dup1\n      sload\n      tag_104\n      swap1\n      tag_65\n      jump\t// in\n    tag_104:\n      dup1\n      0x1f\n      add\n      0x20\n      dup1\n      swap2\n      div\n      mul\n      0x20\n      add\n      mload(0x40)\n      swap1\n      dup2\n      add\n      0x40\n      mstore\n      dup1\n      swap3\n      swap2\n      swap1\n      dup2\n      dup2\n      mstore\n      0x20\n      add\n      dup3\n      dup1\n      sload\n      tag_105\n      swap1\n      tag_65\n      jump\t// in\n    tag_105:\n      dup1\n      iszero\n      tag_106\n      jumpi\n      dup1\n      0x1f\n      lt\n      tag_107\n      jumpi\n      0x0100\n      dup1\n      dup4\n      sload\n      div\n      mul\n      dup4\n      mstore\n      swap2\n      0x20\n      add\n      swap2\n      jump(tag_106)\n    tag_107:\n      dup3\n      add\n      swap2\n      swap1\n      0x00\n      mstore\n      keccak256(0x00, 0x20)\n      swap1\n    tag_108:\n      dup2\n      sload\n      dup2\n      mstore\n      swap1\n      0x01\n      add\n      swap1\n      0x20\n      add\n      dup1\n      dup4\n      gt\n      tag_108\n      jumpi\n      dup3\n      swap1\n      sub\n      0x1f\n      and\n      dup3\n      add\n      swap2\n    tag_106:\n      pop\n      pop\n      pop\n      pop\n      pop\n      dup2\n      mstore\n      0x20\n      add\n      swap1\n      0x01\n      add\n      swap1\n      jump(tag_101)\n    tag_102:\n      pop\n      pop\n      pop\n      swap1\n      dup3\n      mstore\n      pop\n      0x07\n      dup3\n      add\n      sload\n      0x20\n      dup1\n      dup4\n      add\n      swap2\n      swap1\n      swap2\n      mstore\n      0x40\n      dup1\n      mload\n      0x60\n      dup2\n      add\n      dup3\n      mstore\n      0x08\n      dup6\n      add\n      dup1\n      sload\n      0xff\n      dup1\n      dup3\n      and\n      iszero\n      iszero\n      dup5\n      mstore\n      0x0100\n      dup3\n      div\n      dup2\n      and\n      iszero\n      iszero\n      swap6\n      dup5\n      add\n      swap6\n      swap1\n      swap6\n      mstore\n      swap5\n      dup4\n      add\n      swap5\n      swap2\n      swap4\n      swap1\n      swap3\n      dup5\n      add\n      swap2\n      0x010000\n      swap1\n      div\n      and\n      0x03\n      dup2\n      gt\n      iszero\n      tag_110\n      jumpi\n      tag_110\n      tag_85\n      jump\t// in\n    tag_110:\n      0x03\n      dup2\n      gt\n      iszero\n      tag_112\n      jumpi\n      tag_112\n      tag_85\n      jump\t// in\n    tag_112:\n      swap1\n      mstore\n      pop\n      dup2\n      mstore\n      0x09\n      dup3\n      add\n      sload\n      0x20\n      dup3\n      add\n      mstore\n      0x0a\n      swap1\n      swap2\n      add\n      sload\n      0xff\n      and\n      iszero\n      iszero\n      0x40\n      swap1\n      swap2\n      add\n      mstore\n        /* \"Polls.sol\":6167:6183  getOptionsResult */\n      tag_113\n        /* \"Polls.sol\":6167:6189  getOptionsResult(poll) */\n      jump\t// in\n    tag_90:\n        /* \"Polls.sol\":6222:6341  PollResults({... */\n      0x40\n      dup1\n      mload\n      dup1\n      dup3\n      add\n      swap1\n      swap2\n      mstore\n        /* \"Polls.sol\":6311:6325  poll.pollVotes */\n      0x07\n      swap1\n      swap4\n      add\n      sload\n        /* \"Polls.sol\":6222:6341  PollResults({... */\n      dup4\n      mstore\n      0x20\n      dup4\n      add\n      mstore\n      pop\n      swap1\n      pop\n        /* \"Polls.sol\":5872:6349  function getPollResults(... */\n    tag_60:\n      swap3\n      swap2\n      pop\n      pop\n      jump\t// out\n        /* \"Polls.sol\":1621:1667  mapping(address => uint256[]) public UserPolls */\n    tag_23:\n      mstore(0x20, 0x01)\n      dup2\n      0x00\n      mstore\n      keccak256(0x00, 0x40)\n      dup2\n      dup2\n      sload\n      dup2\n      lt\n      tag_114\n      jumpi\n      0x00\n      dup1\n      revert\n    tag_114:\n      swap1\n      0x00\n      mstore\n      keccak256(0x00, 0x20)\n      add\n      0x00\n      swap2\n      pop\n      swap2\n      pop\n      pop\n      sload\n      dup2\n      jump\t// out\n        /* \"Polls.sol\":5091:5864  function getPollDetails(... */\n    tag_28:\n        /* \"Polls.sol\":5196:5214  PollDetails memory */\n      tag_116\n      tag_117\n      jump\t// in\n    tag_116:\n        /* \"Polls.sol\":5227:5244  Poll storage poll */\n      0x00\n        /* \"Polls.sol\":5247:5263  getPoll(_pollId) */\n      tag_119\n        /* \"Polls.sol\":5255:5262  _pollId */\n      dup4\n        /* \"Polls.sol\":5247:5254  getPoll */\n      tag_62\n        /* \"Polls.sol\":5247:5263  getPoll(_pollId) */\n      jump\t// in\n    tag_119:\n        /* \"Polls.sol\":5296:5856  PollDetails({... */\n      0x40\n      dup1\n      mload\n      0x0180\n      dup2\n      add\n      swap1\n      swap2\n      mstore\n        /* \"Polls.sol\":5336:5348  poll.creator */\n      dup2\n      sload\n      sub(shl(0xa0, 0x01), 0x01)\n      and\n        /* \"Polls.sol\":5296:5856  PollDetails({... */\n      dup2\n      mstore\n        /* \"Polls.sol\":5374:5384  poll.title */\n      0x02\n      dup3\n      add\n        /* \"Polls.sol\":5296:5856  PollDetails({... */\n      dup1\n      sload\n        /* \"Polls.sol\":5227:5263  Poll storage poll = getPoll(_pollId) */\n      swap3\n      swap4\n      pop\n        /* \"Polls.sol\":5296:5856  PollDetails({... */\n      swap1\n      swap2\n      0x20\n      dup4\n      add\n      swap2\n        /* \"Polls.sol\":5374:5384  poll.title */\n      swap1\n        /* \"Polls.sol\":5296:5856  PollDetails({... */\n      tag_120\n      swap1\n      tag_65\n      jump\t// in\n    tag_120:\n      dup1\n      0x1f\n      add\n      0x20\n      dup1\n      swap2\n      div\n      mul\n      0x20\n      add\n      mload(0x40)\n      swap1\n      dup2\n      add\n      0x40\n      mstore\n      dup1\n      swap3\n      swap2\n      swap1\n      dup2\n      dup2\n      mstore\n      0x20\n      add\n      dup3\n      dup1\n      sload\n      tag_121\n      swap1\n      tag_65\n      jump\t// in\n    tag_121:\n      dup1\n      iszero\n      tag_122\n      jumpi\n      dup1\n      0x1f\n      lt\n      tag_123\n      jumpi\n      0x0100\n      dup1\n      dup4\n      sload\n      div\n      mul\n      dup4\n      mstore\n      swap2\n      0x20\n      add\n      swap2\n      jump(tag_122)\n    tag_123:\n      dup3\n      add\n      swap2\n      swap1\n      0x00\n      mstore\n      keccak256(0x00, 0x20)\n      swap1\n    tag_124:\n      dup2\n      sload\n      dup2\n      mstore\n      swap1\n      0x01\n      add\n      swap1\n      0x20\n      add\n      dup1\n      dup4\n      gt\n      tag_124\n      jumpi\n      dup3\n      swap1\n      sub\n      0x1f\n      and\n      dup3\n      add\n      swap2\n    tag_122:\n      pop\n      pop\n      pop\n      pop\n      pop\n      dup2\n      mstore\n      0x20\n      add\n        /* \"Polls.sol\":5416:5420  poll */\n      dup3\n        /* \"Polls.sol\":5416:5432  poll.description */\n      0x03\n      add\n        /* \"Polls.sol\":5296:5856  PollDetails({... */\n      dup1\n      sload\n      tag_125\n      swap1\n      tag_65\n      jump\t// in\n    tag_125:\n      dup1\n      0x1f\n      add\n      0x20\n      dup1\n      swap2\n      div\n      mul\n      0x20\n      add\n      mload(0x40)\n      swap1\n      dup2\n      add\n      0x40\n      mstore\n      dup1\n      swap3\n      swap2\n      swap1\n      dup2\n      dup2\n      mstore\n      0x20\n      add\n      dup3\n      dup1\n      sload\n      tag_126\n      swap1\n      tag_65\n      jump\t// in\n    tag_126:\n      dup1\n      iszero\n      tag_127\n      jumpi\n      dup1\n      0x1f\n      lt\n      tag_128\n      jumpi\n      0x0100\n      dup1\n      dup4\n      sload\n      div\n      mul\n      dup4\n      mstore\n      swap2\n      0x20\n      add\n      swap2\n      jump(tag_127)\n    tag_128:\n      dup3\n      add\n      swap2\n      swap1\n      0x00\n      mstore\n      keccak256(0x00, 0x20)\n      swap1\n    tag_129:\n      dup2\n      sload\n      dup2\n      mstore\n      swap1\n      0x01\n      add\n      swap1\n      0x20\n      add\n      dup1\n      dup4\n      gt\n      tag_129\n      jumpi\n      dup3\n      swap1\n      sub\n      0x1f\n      and\n      dup3\n      add\n      swap2\n    tag_127:\n      pop\n      pop\n      pop\n      pop\n      pop\n      dup2\n      mstore\n      0x20\n      add\n        /* \"Polls.sol\":5461:5465  poll */\n      dup3\n        /* \"Polls.sol\":5461:5474  poll.startsAt */\n      0x04\n      add\n      sload\n        /* \"Polls.sol\":5296:5856  PollDetails({... */\n      dup2\n      mstore\n      0x20\n      add\n        /* \"Polls.sol\":5501:5505  poll */\n      dup3\n        /* \"Polls.sol\":5501:5512  poll.endsAt */\n      0x05\n      add\n      sload\n        /* \"Polls.sol\":5296:5856  PollDetails({... */\n      dup2\n      mstore\n      0x20\n      add\n        /* \"Polls.sol\":5540:5544  poll */\n      dup3\n        /* \"Polls.sol\":5540:5552  poll.options */\n      0x06\n      add\n        /* \"Polls.sol\":5296:5856  PollDetails({... */\n      dup1\n      sload\n      dup1\n      0x20\n      mul\n      0x20\n      add\n      mload(0x40)\n      swap1\n      dup2\n      add\n      0x40\n      mstore\n      dup1\n      swap3\n      swap2\n      swap1\n      dup2\n      dup2\n      mstore\n      0x20\n      add\n      0x00\n      swap1\n    tag_130:\n      dup3\n      dup3\n      lt\n      iszero\n      tag_131\n      jumpi\n      dup4\n      dup3\n      swap1\n      0x00\n      mstore\n      keccak256(0x00, 0x20)\n      add\n      dup1\n      sload\n      tag_133\n      swap1\n      tag_65\n      jump\t// in\n    tag_133:\n      dup1\n      0x1f\n      add\n      0x20\n      dup1\n      swap2\n      div\n      mul\n      0x20\n      add\n      mload(0x40)\n      swap1\n      dup2\n      add\n      0x40\n      mstore\n      dup1\n      swap3\n      swap2\n      swap1\n      dup2\n      dup2\n      mstore\n      0x20\n      add\n      dup3\n      dup1\n      sload\n      tag_134\n      swap1\n      tag_65\n      jump\t// in\n    tag_134:\n      dup1\n      iszero\n      tag_135\n      jumpi\n      dup1\n      0x1f\n      lt\n      tag_136\n      jumpi\n      0x0100\n      dup1\n      dup4\n      sload\n      div\n      mul\n      dup4\n      mstore\n      swap2\n      0x20\n      add\n      swap2\n      jump(tag_135)\n    tag_136:\n      dup3\n      add\n      swap2\n      swap1\n      0x00\n      mstore\n      keccak256(0x00, 0x20)\n      swap1\n    tag_137:\n      dup2\n      sload\n      dup2\n      mstore\n      swap1\n      0x01\n      add\n      swap1\n      0x20\n      add\n      dup1\n      dup4\n      gt\n      tag_137\n      jumpi\n      dup3\n      swap1\n      sub\n      0x1f\n      and\n      dup3\n      add\n      swap2\n    tag_135:\n      pop\n      pop\n      pop\n      pop\n      pop\n      dup2\n      mstore\n      0x20\n      add\n      swap1\n      0x01\n      add\n      swap1\n      jump(tag_130)\n    tag_131:\n      pop\n      pop\n      pop\n      pop\n      dup2\n      mstore\n      0x20\n      add\n        /* \"Polls.sol\":5582:5586  poll */\n      dup3\n        /* \"Polls.sol\":5582:5596  poll.pollVotes */\n      0x07\n      add\n      sload\n        /* \"Polls.sol\":5296:5856  PollDetails({... */\n      dup2\n      mstore\n      0x20\n      add\n        /* \"Polls.sol\":5825:5840  getStatus(poll) */\n      tag_138\n        /* \"Polls.sol\":5835:5839  poll */\n      dup4\n        /* \"Polls.sol\":5825:5840  getStatus(poll) */\n      mload(0x40)\n      dup1\n      0x0160\n      add\n      0x40\n      mstore\n      swap1\n      dup2\n      0x00\n      dup3\n      add\n      0x00\n      swap1\n      sload\n      swap1\n      0x0100\n      exp\n      swap1\n      div\n      sub(shl(0xa0, 0x01), 0x01)\n      and\n      sub(shl(0xa0, 0x01), 0x01)\n      and\n      sub(shl(0xa0, 0x01), 0x01)\n      and\n      dup2\n      mstore\n      0x20\n      add\n      0x01\n      dup3\n      add\n      sload\n      dup2\n      mstore\n      0x20\n      add\n      0x02\n      dup3\n      add\n      dup1\n      sload\n      tag_139\n      swap1\n      tag_65\n      jump\t// in\n    tag_139:\n      dup1\n      0x1f\n      add\n      0x20\n      dup1\n      swap2\n      div\n      mul\n      0x20\n      add\n      mload(0x40)\n      swap1\n      dup2\n      add\n      0x40\n      mstore\n      dup1\n      swap3\n      swap2\n      swap1\n      dup2\n      dup2\n      mstore\n      0x20\n      add\n      dup3\n      dup1\n      sload\n      tag_140\n      swap1\n      tag_65\n      jump\t// in\n    tag_140:\n      dup1\n      iszero\n      tag_141\n      jumpi\n      dup1\n      0x1f\n      lt\n      tag_142\n      jumpi\n      0x0100\n      dup1\n      dup4\n      sload\n      div\n      mul\n      dup4\n      mstore\n      swap2\n      0x20\n      add\n      swap2\n      jump(tag_141)\n    tag_142:\n      dup3\n      add\n      swap2\n      swap1\n      0x00\n      mstore\n      keccak256(0x00, 0x20)\n      swap1\n    tag_143:\n      dup2\n      sload\n      dup2\n      mstore\n      swap1\n      0x01\n      add\n      swap1\n      0x20\n      add\n      dup1\n      dup4\n      gt\n      tag_143\n      jumpi\n      dup3\n      swap1\n      sub\n      0x1f\n      and\n      dup3\n      add\n      swap2\n    tag_141:\n      pop\n      pop\n      pop\n      pop\n      pop\n      dup2\n      mstore\n      0x20\n      add\n      0x03\n      dup3\n      add\n      dup1\n      sload\n      tag_144\n      swap1\n      tag_65\n      jump\t// in\n    tag_144:\n      dup1\n      0x1f\n      add\n      0x20\n      dup1\n      swap2\n      div\n      mul\n      0x20\n      add\n      mload(0x40)\n      swap1\n      dup2\n      add\n      0x40\n      mstore\n      dup1\n      swap3\n      swap2\n      swap1\n      dup2\n      dup2\n      mstore\n      0x20\n      add\n      dup3\n      dup1\n      sload\n      tag_145\n      swap1\n      tag_65\n      jump\t// in\n    tag_145:\n      dup1\n      iszero\n      tag_146\n      jumpi\n      dup1\n      0x1f\n      lt\n      tag_147\n      jumpi\n      0x0100\n      dup1\n      dup4\n      sload\n      div\n      mul\n      dup4\n      mstore\n      swap2\n      0x20\n      add\n      swap2\n      jump(tag_146)\n    tag_147:\n      dup3\n      add\n      swap2\n      swap1\n      0x00\n      mstore\n      keccak256(0x00, 0x20)\n      swap1\n    tag_148:\n      dup2\n      sload\n      dup2\n      mstore\n      swap1\n      0x01\n      add\n      swap1\n      0x20\n      add\n      dup1\n      dup4\n      gt\n      tag_148\n      jumpi\n      dup3\n      swap1\n      sub\n      0x1f\n      and\n      dup3\n      add\n      swap2\n    tag_146:\n      pop\n      pop\n      pop\n      pop\n      pop\n      dup2\n      mstore\n      0x20\n      add\n      0x04\n      dup3\n      add\n      sload\n      dup2\n      mstore\n      0x20\n      add\n      0x05\n      dup3\n      add\n      sload\n      dup2\n      mstore\n      0x20\n      add\n      0x06\n      dup3\n      add\n      dup1\n      sload\n      dup1\n      0x20\n      mul\n      0x20\n      add\n      mload(0x40)\n      swap1\n      dup2\n      add\n      0x40\n      mstore\n      dup1\n      swap3\n      swap2\n      swap1\n      dup2\n      dup2\n      mstore\n      0x20\n      add\n      0x00\n      swap1\n    tag_149:\n      dup3\n      dup3\n      lt\n      iszero\n      tag_150\n      jumpi\n      dup4\n      dup3\n      swap1\n      0x00\n      mstore\n      keccak256(0x00, 0x20)\n      add\n      dup1\n      sload\n      tag_152\n      swap1\n      tag_65\n      jump\t// in\n    tag_152:\n      dup1\n      0x1f\n      add\n      0x20\n      dup1\n      swap2\n      div\n      mul\n      0x20\n      add\n      mload(0x40)\n      swap1\n      dup2\n      add\n      0x40\n      mstore\n      dup1\n      swap3\n      swap2\n      swap1\n      dup2\n      dup2\n      mstore\n      0x20\n      add\n      dup3\n      dup1\n      sload\n      tag_153\n      swap1\n      tag_65\n      jump\t// in\n    tag_153:\n      dup1\n      iszero\n      tag_154\n      jumpi\n      dup1\n      0x1f\n      lt\n      tag_155\n      jumpi\n      0x0100\n      dup1\n      dup4\n      sload\n      div\n      mul\n      dup4\n      mstore\n      swap2\n      0x20\n      add\n      swap2\n      jump(tag_154)\n    tag_155:\n      dup3\n      add\n      swap2\n      swap1\n      0x00\n      mstore\n      keccak256(0x00, 0x20)\n      swap1\n    tag_156:\n      dup2\n      sload\n      dup2\n      mstore\n      swap1\n      0x01\n      add\n      swap1\n      0x20\n      add\n      dup1\n      dup4\n      gt\n      tag_156\n      jumpi\n      dup3\n      swap1\n      sub\n      0x1f\n      and\n      dup3\n      add\n      swap2\n    tag_154:\n      pop\n      pop\n      pop\n      pop\n      pop\n      dup2\n      mstore\n      0x20\n      add\n      swap1\n      0x01\n      add\n      swap1\n      jump(tag_149)\n    tag_150:\n      pop\n      pop\n      pop\n      swap1\n      dup3\n      mstore\n      pop\n      0x07\n      dup3\n      add\n      sload\n      0x20\n      dup1\n      dup4\n      add\n      swap2\n      swap1\n      swap2\n      mstore\n      0x40\n      dup1\n      mload\n      0x60\n      dup2\n      add\n      dup3\n      mstore\n      0x08\n      dup6\n      add\n      dup1\n      sload\n      0xff\n      dup1\n      dup3\n      and\n      iszero\n      iszero\n      dup5\n      mstore\n      0x0100\n      dup3\n      div\n      dup2\n      and\n      iszero\n      iszero\n      swap6\n      dup5\n      add\n      swap6\n      swap1\n      swap6\n      mstore\n      swap5\n      dup4\n      add\n      swap5\n      swap2\n      swap4\n      swap1\n      swap3\n      dup5\n      add\n      swap2\n      0x010000\n      swap1\n      div\n      and\n      0x03\n      dup2\n      gt\n      iszero\n      tag_158\n      jumpi\n      tag_158\n      tag_85\n      jump\t// in\n    tag_158:\n      0x03\n      dup2\n      gt\n      iszero\n      tag_160\n      jumpi\n      tag_160\n      tag_85\n      jump\t// in\n    tag_160:\n      swap1\n      mstore\n      pop\n      dup2\n      mstore\n      0x09\n      dup3\n      add\n      sload\n      0x20\n      dup3\n      add\n      mstore\n      0x0a\n      swap1\n      swap2\n      add\n      sload\n      0xff\n      and\n      iszero\n      iszero\n      0x40\n      swap1\n      swap2\n      add\n      mstore\n        /* \"Polls.sol\":5825:5834  getStatus */\n      tag_161\n        /* \"Polls.sol\":5825:5840  getStatus(poll) */\n      jump\t// in\n    tag_138:\n        /* \"Polls.sol\":5296:5856  PollDetails({... */\n      0x03\n      dup2\n      gt\n      iszero\n      tag_163\n      jumpi\n      tag_163\n      tag_85\n      jump\t// in\n    tag_163:\n      dup2\n      mstore\n      0x40\n      dup1\n      mload\n      0x60\n      dup2\n      add\n      dup3\n      mstore\n        /* \"Polls.sol\":5625:5638  poll.settings */\n      0x08\n      dup6\n      add\n        /* \"Polls.sol\":5296:5856  PollDetails({... */\n      dup1\n      sload\n      0xff\n      dup1\n      dup3\n      and\n      iszero\n      iszero\n      dup5\n      mstore\n      0x0100\n      dup3\n      div\n      dup2\n      and\n      iszero\n      iszero\n      0x20\n      dup6\n      dup2\n      add\n      swap2\n      swap1\n      swap2\n      mstore\n      swap1\n      swap6\n      add\n      swap5\n      swap3\n      swap4\n        /* \"Polls.sol\":5625:5638  poll.settings */\n      swap2\n      swap3\n        /* \"Polls.sol\":5296:5856  PollDetails({... */\n      swap2\n      dup5\n      add\n      swap2\n      0x010000\n      swap1\n      swap2\n      div\n      and\n      0x03\n      dup2\n      gt\n      iszero\n      tag_165\n      jumpi\n      tag_165\n      tag_85\n      jump\t// in\n    tag_165:\n      0x03\n      dup2\n      gt\n      iszero\n      tag_167\n      jumpi\n      tag_167\n      tag_85\n      jump\t// in\n    tag_167:\n      swap1\n      mstore\n      pop\n      dup2\n      mstore\n        /* \"Polls.sol\":5667:5684  hasVoted[_pollId] */\n      0x00\n      dup6\n      dup2\n      mstore\n        /* \"Polls.sol\":5667:5675  hasVoted */\n      0x02\n        /* \"Polls.sol\":5296:5856  PollDetails({... */\n      0x20\n        /* \"Polls.sol\":5667:5684  hasVoted[_pollId] */\n      swap1\n      dup2\n      mstore\n      0x40\n      dup1\n      dup4\n      keccak256\n      sub(shl(0xa0, 0x01), 0x01)\n        /* \"Polls.sol\":5667:5692  hasVoted[_pollId][_voter] */\n      dup11\n      and\n      dup1\n      dup6\n      mstore\n      swap1\n      dup4\n      mstore\n      dup2\n      dup5\n      keccak256\n      sload\n      0xff\n      and\n        /* \"Polls.sol\":5296:5856  PollDetails({... */\n      iszero\n      iszero\n      dup4\n      dup7\n      add\n      mstore\n        /* \"Polls.sol\":5725:5746  votedIndices[_pollId] */\n      dup9\n      dup5\n      mstore\n        /* \"Polls.sol\":5725:5737  votedIndices */\n      0x05\n        /* \"Polls.sol\":5725:5746  votedIndices[_pollId] */\n      dup4\n      mstore\n      dup2\n      dup5\n      keccak256\n        /* \"Polls.sol\":5725:5754  votedIndices[_pollId][_voter] */\n      swap1\n      dup5\n      mstore\n      dup3\n      mstore\n      swap2\n      dup3\n      swap1\n      keccak256\n        /* \"Polls.sol\":5296:5856  PollDetails({... */\n      dup1\n      sload\n      dup4\n      mload\n      dup2\n      dup5\n      mul\n      dup2\n      add\n      dup5\n      add\n      dup6\n      mstore\n      dup2\n      dup2\n      mstore\n      swap4\n      swap1\n      swap5\n      add\n      swap4\n        /* \"Polls.sol\":5725:5754  votedIndices[_pollId][_voter] */\n      swap1\n      swap2\n        /* \"Polls.sol\":5296:5856  PollDetails({... */\n      dup4\n      add\n        /* \"Polls.sol\":5725:5754  votedIndices[_pollId][_voter] */\n      dup3\n        /* \"Polls.sol\":5296:5856  PollDetails({... */\n      dup3\n      dup1\n      iszero\n      tag_168\n      jumpi\n      0x20\n      mul\n      dup3\n      add\n      swap2\n      swap1\n      0x00\n      mstore\n      keccak256(0x00, 0x20)\n      swap1\n    tag_169:\n      dup2\n      sload\n      dup2\n      mstore\n      0x20\n      add\n      swap1\n      0x01\n      add\n      swap1\n      dup1\n      dup4\n      gt\n      tag_169\n      jumpi\n    tag_168:\n      pop\n      pop\n      pop\n      pop\n      pop\n      dup2\n      mstore\n      0x20\n      add\n        /* \"Polls.sol\":5784:5788  poll */\n      dup3\n        /* \"Polls.sol\":5784:5798  poll.createdAt */\n      0x09\n      add\n      sload\n        /* \"Polls.sol\":5296:5856  PollDetails({... */\n      dup2\n      mstore\n      pop\n        /* \"Polls.sol\":5276:5856  return... */\n      swap2\n      pop\n      pop\n        /* \"Polls.sol\":5091:5864  function getPollDetails(... */\n      swap3\n      swap2\n      pop\n      pop\n      jump\t// out\n        /* \"Polls.sol\":8697:8971  function deletePoll(uint256 _pollId) external {... */\n    tag_34:\n        /* \"Polls.sol\":8754:8771  Poll storage poll */\n      0x00\n        /* \"Polls.sol\":8774:8790  getPoll(_pollId) */\n      tag_171\n        /* \"Polls.sol\":8782:8789  _pollId */\n      dup3\n        /* \"Polls.sol\":8774:8781  getPoll */\n      tag_62\n        /* \"Polls.sol\":8774:8790  getPoll(_pollId) */\n      jump\t// in\n    tag_171:\n        /* \"Polls.sol\":8805:8817  poll.creator */\n      dup1\n      sload\n        /* \"Polls.sol\":8754:8790  Poll storage poll = getPoll(_pollId) */\n      swap1\n      swap2\n      pop\n      sub(shl(0xa0, 0x01), 0x01)\n        /* \"Polls.sol\":8805:8817  poll.creator */\n      and\n        /* \"Polls.sol\":8821:8831  msg.sender */\n      caller\n        /* \"Polls.sol\":8805:8831  poll.creator != msg.sender */\n      eq\n        /* \"Polls.sol\":8801:8854  if (poll.creator != msg.sender) revert AccessDenied() */\n      tag_172\n      jumpi\n        /* \"Polls.sol\":8840:8854  AccessDenied() */\n      mload(0x40)\n      shl(0xe0, 0x4ca88867)\n      dup2\n      mstore\n      0x04\n      add\n      mload(0x40)\n      dup1\n      swap2\n      sub\n      swap1\n      revert\n        /* \"Polls.sol\":8801:8854  if (poll.creator != msg.sender) revert AccessDenied() */\n    tag_172:\n        /* \"Polls.sol\":8888:8905  PollStatus.Closed */\n      0x03\n        /* \"Polls.sol\":8869:8884  getStatus(poll) */\n      0x40\n      dup1\n      mload\n      0x0160\n      dup2\n      add\n      dup3\n      mstore\n      dup4\n      sload\n      sub(shl(0xa0, 0x01), 0x01)\n      and\n      dup2\n      mstore\n      0x01\n      dup5\n      add\n      sload\n      0x20\n      dup3\n      add\n      mstore\n      0x02\n      dup5\n      add\n      dup1\n      sload\n      tag_175\n      swap4\n        /* \"Polls.sol\":8879:8883  poll */\n      dup7\n      swap3\n        /* \"Polls.sol\":8869:8884  getStatus(poll) */\n      swap1\n      dup5\n      add\n      swap2\n      tag_176\n      swap1\n      tag_65\n      jump\t// in\n    tag_176:\n      dup1\n      0x1f\n      add\n      0x20\n      dup1\n      swap2\n      div\n      mul\n      0x20\n      add\n      mload(0x40)\n      swap1\n      dup2\n      add\n      0x40\n      mstore\n      dup1\n      swap3\n      swap2\n      swap1\n      dup2\n      dup2\n      mstore\n      0x20\n      add\n      dup3\n      dup1\n      sload\n      tag_177\n      swap1\n      tag_65\n      jump\t// in\n    tag_177:\n      dup1\n      iszero\n      tag_178\n      jumpi\n      dup1\n      0x1f\n      lt\n      tag_179\n      jumpi\n      0x0100\n      dup1\n      dup4\n      sload\n      div\n      mul\n      dup4\n      mstore\n      swap2\n      0x20\n      add\n      swap2\n      jump(tag_178)\n    tag_179:\n      dup3\n      add\n      swap2\n      swap1\n      0x00\n      mstore\n      keccak256(0x00, 0x20)\n      swap1\n    tag_180:\n      dup2\n      sload\n      dup2\n      mstore\n      swap1\n      0x01\n      add\n      swap1\n      0x20\n      add\n      dup1\n      dup4\n      gt\n      tag_180\n      jumpi\n      dup3\n      swap1\n      sub\n      0x1f\n      and\n      dup3\n      add\n      swap2\n    tag_178:\n      pop\n      pop\n      pop\n      pop\n      pop\n      dup2\n      mstore\n      0x20\n      add\n      0x03\n      dup3\n      add\n      dup1\n      sload\n      tag_181\n      swap1\n      tag_65\n      jump\t// in\n    tag_181:\n      dup1\n      0x1f\n      add\n      0x20\n      dup1\n      swap2\n      div\n      mul\n      0x20\n      add\n      mload(0x40)\n      swap1\n      dup2\n      add\n      0x40\n      mstore\n      dup1\n      swap3\n      swap2\n      swap1\n      dup2\n      dup2\n      mstore\n      0x20\n      add\n      dup3\n      dup1\n      sload\n      tag_182\n      swap1\n      tag_65\n      jump\t// in\n    tag_182:\n      dup1\n      iszero\n      tag_183\n      jumpi\n      dup1\n      0x1f\n      lt\n      tag_184\n      jumpi\n      0x0100\n      dup1\n      dup4\n      sload\n      div\n      mul\n      dup4\n      mstore\n      swap2\n      0x20\n      add\n      swap2\n      jump(tag_183)\n    tag_184:\n      dup3\n      add\n      swap2\n      swap1\n      0x00\n      mstore\n      keccak256(0x00, 0x20)\n      swap1\n    tag_185:\n      dup2\n      sload\n      dup2\n      mstore\n      swap1\n      0x01\n      add\n      swap1\n      0x20\n      add\n      dup1\n      dup4\n      gt\n      tag_185\n      jumpi\n      dup3\n      swap1\n      sub\n      0x1f\n      and\n      dup3\n      add\n      swap2\n    tag_183:\n      pop\n      pop\n      pop\n      pop\n      pop\n      dup2\n      mstore\n      0x20\n      add\n      0x04\n      dup3\n      add\n      sload\n      dup2\n      mstore\n      0x20\n      add\n      0x05\n      dup3\n      add\n      sload\n      dup2\n      mstore\n      0x20\n      add\n      0x06\n      dup3\n      add\n      dup1\n      sload\n      dup1\n      0x20\n      mul\n      0x20\n      add\n      mload(0x40)\n      swap1\n      dup2\n      add\n      0x40\n      mstore\n      dup1\n      swap3\n      swap2\n      swap1\n      dup2\n      dup2\n      mstore\n      0x20\n      add\n      0x00\n      swap1\n    tag_186:\n      dup3\n      dup3\n      lt\n      iszero\n      tag_150\n      jumpi\n      dup4\n      dup3\n      swap1\n      0x00\n      mstore\n      keccak256(0x00, 0x20)\n      add\n      dup1\n      sload\n      tag_189\n      swap1\n      tag_65\n      jump\t// in\n    tag_189:\n      dup1\n      0x1f\n      add\n      0x20\n      dup1\n      swap2\n      div\n      mul\n      0x20\n      add\n      mload(0x40)\n      swap1\n      dup2\n      add\n      0x40\n      mstore\n      dup1\n      swap3\n      swap2\n      swap1\n      dup2\n      dup2\n      mstore\n      0x20\n      add\n      dup3\n      dup1\n      sload\n      tag_190\n      swap1\n      tag_65\n      jump\t// in\n    tag_190:\n      dup1\n      iszero\n      tag_191\n      jumpi\n      dup1\n      0x1f\n      lt\n      tag_192\n      jumpi\n      0x0100\n      dup1\n      dup4\n      sload\n      div\n      mul\n      dup4\n      mstore\n      swap2\n      0x20\n      add\n      swap2\n      jump(tag_191)\n    tag_192:\n      dup3\n      add\n      swap2\n      swap1\n      0x00\n      mstore\n      keccak256(0x00, 0x20)\n      swap1\n    tag_193:\n      dup2\n      sload\n      dup2\n      mstore\n      swap1\n      0x01\n      add\n      swap1\n      0x20\n      add\n      dup1\n      dup4\n      gt\n      tag_193\n      jumpi\n      dup3\n      swap1\n      sub\n      0x1f\n      and\n      dup3\n      add\n      swap2\n    tag_191:\n      pop\n      pop\n      pop\n      pop\n      pop\n      dup2\n      mstore\n      0x20\n      add\n      swap1\n      0x01\n      add\n      swap1\n      jump(tag_186)\n    tag_175:\n        /* \"Polls.sol\":8869:8905  getStatus(poll) != PollStatus.Closed */\n      0x03\n      dup2\n      gt\n      iszero\n      tag_199\n      jumpi\n      tag_199\n      tag_85\n      jump\t// in\n    tag_199:\n      eq\n        /* \"Polls.sol\":8865:8929  if (getStatus(poll) != PollStatus.Closed) revert PollNotClosed() */\n      tag_200\n      jumpi\n        /* \"Polls.sol\":8914:8929  PollNotClosed() */\n      mload(0x40)\n      shl(0xe0, 0x87da8e5f)\n      dup2\n      mstore\n      0x04\n      add\n      mload(0x40)\n      dup1\n      swap2\n      sub\n      swap1\n      revert\n        /* \"Polls.sol\":8865:8929  if (getStatus(poll) != PollStatus.Closed) revert PollNotClosed() */\n    tag_200:\n        /* \"Polls.sol\":8942:8956  poll.isDeleted */\n      0x0a\n      add\n        /* \"Polls.sol\":8942:8963  poll.isDeleted = true */\n      dup1\n      sload\n      not(0xff)\n      and\n        /* \"Polls.sol\":8959:8963  true */\n      0x01\n        /* \"Polls.sol\":8942:8963  poll.isDeleted = true */\n      or\n      swap1\n      sstore\n      pop\n        /* \"Polls.sol\":8697:8971  function deletePoll(uint256 _pollId) external {... */\n      jump\t// out\n        /* \"Polls.sol\":3077:4230  function createPoll(... */\n    tag_38:\n        /* \"Polls.sol\":3320:3327  uint256 */\n      0x00\n        /* \"Polls.sol\":3340:3361  validateTitle(_title) */\n      tag_202\n        /* \"Polls.sol\":3354:3360  _title */\n      dup11\n      dup11\n        /* \"Polls.sol\":3340:3353  validateTitle */\n      tag_203\n        /* \"Polls.sol\":3340:3361  validateTitle(_title) */\n      jump\t// in\n    tag_202:\n        /* \"Polls.sol\":3372:3391  validateDesc(_desc) */\n      tag_204\n        /* \"Polls.sol\":3385:3390  _desc */\n      dup9\n      dup9\n        /* \"Polls.sol\":3372:3384  validateDesc */\n      tag_205\n        /* \"Polls.sol\":3372:3391  validateDesc(_desc) */\n      jump\t// in\n    tag_204:\n        /* \"Polls.sol\":3402:3435  validateTimes(_startsAt, _endsAt) */\n      tag_206\n        /* \"Polls.sol\":3416:3425  _startsAt */\n      dup7\n        /* \"Polls.sol\":3427:3434  _endsAt */\n      dup7\n        /* \"Polls.sol\":3402:3415  validateTimes */\n      tag_207\n        /* \"Polls.sol\":3402:3435  validateTimes(_startsAt, _endsAt) */\n      jump\t// in\n    tag_206:\n        /* \"Polls.sol\":3446:3471  validateOptions(_options) */\n      tag_208\n        /* \"Polls.sol\":3462:3470  _options */\n      dup5\n      dup5\n        /* \"Polls.sol\":3446:3461  validateOptions */\n      tag_209\n        /* \"Polls.sol\":3446:3471  validateOptions(_options) */\n      jump\t// in\n    tag_208:\n        /* \"Polls.sol\":3482:3509  validateSettings(_settings) */\n      tag_210\n        /* \"Polls.sol\":3499:3508  _settings */\n      dup3\n        /* \"Polls.sol\":3482:3498  validateSettings */\n      tag_211\n        /* \"Polls.sol\":3482:3509  validateSettings(_settings) */\n      jump\t// in\n    tag_210:\n        /* \"Polls.sol\":3522:3536  uint256 pollId */\n      0x00\n        /* \"Polls.sol\":3539:3551  polls.length */\n      dup1\n      sload\n        /* \"Polls.sol\":3585:3597  polls.push() */\n      0x01\n      dup2\n      add\n      dup3\n      sstore\n      swap1\n      dup1\n      mstore\n      0x0b\n      dup2\n      mul\n      0x290decd9548b62a8d60345a988386fc84ba6bc95484008f6362f93160ef3e563\n      dup2\n      add\n        /* \"Polls.sol\":3608:3636  newPoll.creator = msg.sender */\n      dup1\n      sload\n      0xffffffffffffffffffffffff0000000000000000000000000000000000000000\n      and\n        /* \"Polls.sol\":3626:3636  msg.sender */\n      caller\n        /* \"Polls.sol\":3608:3636  newPoll.creator = msg.sender */\n      or\n      dup2\n      sstore\n        /* \"Polls.sol\":3647:3657  newPoll.id */\n      0x290decd9548b62a8d60345a988386fc84ba6bc95484008f6362f93160ef3e564\n      dup3\n      add\n        /* \"Polls.sol\":3647:3666  newPoll.id = pollId */\n      dup4\n      swap1\n      sstore\n        /* \"Polls.sol\":3585:3597  polls.push() */\n      swap1\n        /* \"Polls.sol\":3677:3690  newPoll.title */\n      0x290decd9548b62a8d60345a988386fc84ba6bc95484008f6362f93160ef3e565\n      add\n        /* \"Polls.sol\":3677:3699  newPoll.title = _title */\n      tag_213\n        /* \"Polls.sol\":3693:3699  _title */\n      dup13\n      dup15\n        /* \"Polls.sol\":3677:3690  newPoll.title */\n      dup4\n        /* \"Polls.sol\":3677:3699  newPoll.title = _title */\n      tag_214\n      jump\t// in\n    tag_213:\n      pop\n        /* \"Polls.sol\":3710:3729  newPoll.description */\n      0x03\n      dup2\n      add\n        /* \"Polls.sol\":3710:3737  newPoll.description = _desc */\n      tag_215\n        /* \"Polls.sol\":3732:3737  _desc */\n      dup11\n      dup13\n        /* \"Polls.sol\":3710:3729  newPoll.description */\n      dup4\n        /* \"Polls.sol\":3710:3737  newPoll.description = _desc */\n      tag_214\n      jump\t// in\n    tag_215:\n      pop\n        /* \"Polls.sol\":3748:3764  newPoll.startsAt */\n      0x04\n      dup2\n      add\n        /* \"Polls.sol\":3748:3776  newPoll.startsAt = _startsAt */\n      dup9\n      swap1\n      sstore\n        /* \"Polls.sol\":3804:3824  _settings.noDeadline */\n      tag_216\n      0x40\n      dup6\n      add\n      0x20\n      dup7\n      add\n      tag_217\n      jump\t// in\n    tag_216:\n        /* \"Polls.sol\":3804:3838  _settings.noDeadline ? 0 : _endsAt */\n      tag_218\n      jumpi\n        /* \"Polls.sol\":3831:3838  _endsAt */\n      dup7\n        /* \"Polls.sol\":3804:3838  _settings.noDeadline ? 0 : _endsAt */\n      jump(tag_219)\n    tag_218:\n        /* \"Polls.sol\":3827:3828  0 */\n      0x00\n        /* \"Polls.sol\":3804:3838  _settings.noDeadline ? 0 : _endsAt */\n    tag_219:\n        /* \"Polls.sol\":3787:3801  newPoll.endsAt */\n      0x05\n      dup3\n      add\n        /* \"Polls.sol\":3787:3838  newPoll.endsAt = _settings.noDeadline ? 0 : _endsAt */\n      sstore\n        /* \"Polls.sol\":3869:3870  0 */\n      0x00\n        /* \"Polls.sol\":3849:3866  newPoll.pollVotes */\n      0x07\n      dup3\n      add\n        /* \"Polls.sol\":3849:3870  newPoll.pollVotes = 0 */\n      sstore\n        /* \"Polls.sol\":3900:3909  _settings */\n      dup4\n        /* \"Polls.sol\":3881:3897  newPoll.settings */\n      0x08\n      dup3\n      add\n        /* \"Polls.sol\":3881:3909  newPoll.settings = _settings */\n      tag_220\n        /* \"Polls.sol\":3900:3909  _settings */\n      dup3\n        /* \"Polls.sol\":3881:3897  newPoll.settings */\n      dup3\n        /* \"Polls.sol\":3881:3909  newPoll.settings = _settings */\n      tag_221\n      jump\t// in\n    tag_220:\n      pop\n      pop\n        /* \"Polls.sol\":3940:3955  block.timestamp */\n      timestamp\n        /* \"Polls.sol\":3920:3937  newPoll.createdAt */\n      0x09\n      dup3\n      add\n        /* \"Polls.sol\":3920:3955  newPoll.createdAt = block.timestamp */\n      sstore\n        /* \"Polls.sol\":3966:3983  newPoll.isDeleted */\n      0x0a\n      dup2\n      add\n        /* \"Polls.sol\":3966:3991  newPoll.isDeleted = false */\n      dup1\n      sload\n      not(0xff)\n      and\n      swap1\n      sstore\n        /* \"Polls.sol\":3986:3991  false */\n      0x00\n        /* \"Polls.sol\":4002:4105  for (uint i = 0; i < _options.length; i++) {... */\n    tag_222:\n        /* \"Polls.sol\":4019:4038  i < _options.length */\n      dup6\n      dup2\n      lt\n        /* \"Polls.sol\":4002:4105  for (uint i = 0; i < _options.length; i++) {... */\n      iszero\n      tag_223\n      jumpi\n        /* \"Polls.sol\":4060:4067  newPoll */\n      dup2\n        /* \"Polls.sol\":4060:4075  newPoll.options */\n      0x06\n      add\n        /* \"Polls.sol\":4081:4089  _options */\n      dup8\n      dup8\n        /* \"Polls.sol\":4090:4091  i */\n      dup4\n        /* \"Polls.sol\":4081:4092  _options[i] */\n      dup2\n      dup2\n      lt\n      tag_226\n      jumpi\n      tag_226\n      tag_227\n      jump\t// in\n    tag_226:\n      swap1\n      pop\n      0x20\n      mul\n      dup2\n      add\n      swap1\n      tag_228\n      swap2\n      swap1\n      tag_229\n      jump\t// in\n    tag_228:\n        /* \"Polls.sol\":4060:4093  newPoll.options.push(_options[i]) */\n      dup3\n      sload\n      0x01\n      dup2\n      add\n      dup5\n      sstore\n      0x00\n      swap4\n      dup5\n      mstore\n      0x20\n      swap1\n      swap4\n      keccak256\n      swap1\n      swap3\n      add\n      swap2\n      tag_231\n      swap2\n      dup4\n      tag_214\n      jump\t// in\n    tag_231:\n      pop\n        /* \"Polls.sol\":4040:4043  i++ */\n      0x01\n      add\n        /* \"Polls.sol\":4002:4105  for (uint i = 0; i < _options.length; i++) {... */\n      jump(tag_222)\n    tag_223:\n      pop\n        /* \"Polls.sol\":4127:4137  msg.sender */\n      caller\n        /* \"Polls.sol\":4117:4138  UserPolls[msg.sender] */\n      0x00\n      dup2\n      dup2\n      mstore\n        /* \"Polls.sol\":4117:4126  UserPolls */\n      0x01\n        /* \"Polls.sol\":4117:4138  UserPolls[msg.sender] */\n      0x20\n      dup2\n      dup2\n      mstore\n      0x40\n      dup1\n      dup5\n      keccak256\n        /* \"Polls.sol\":4117:4151  UserPolls[msg.sender].push(pollId) */\n      dup1\n      sload\n      swap4\n      dup5\n      add\n      dup2\n      sstore\n      dup5\n      mstore\n      swap1\n      dup4\n      keccak256\n      swap1\n      swap2\n      add\n      dup6\n      swap1\n      sstore\n        /* \"Polls.sol\":4167:4198  PollCreated(msg.sender, pollId) */\n      mload\n        /* \"Polls.sol\":4144:4150  pollId */\n      dup5\n      swap3\n        /* \"Polls.sol\":4127:4137  msg.sender */\n      swap2\n        /* \"Polls.sol\":4167:4198  PollCreated(msg.sender, pollId) */\n      0x253458ed40d765e300ef79d87f8b5a901191fbfc27d54b1ea052a6752908953c\n      swap2\n      log3\n      pop\n        /* \"Polls.sol\":4216:4222  pollId */\n      swap11\n        /* \"Polls.sol\":3077:4230  function createPoll(... */\n      swap10\n      pop\n      pop\n      pop\n      pop\n      pop\n      pop\n      pop\n      pop\n      pop\n      pop\n      jump\t// out\n        /* \"Polls.sol\":7065:8363  function castVote(... */\n    tag_43:\n        /* \"Polls.sol\":7180:7197  Poll storage poll */\n      0x00\n        /* \"Polls.sol\":7200:7216  getPoll(_pollId) */\n      tag_234\n        /* \"Polls.sol\":7208:7215  _pollId */\n      dup5\n        /* \"Polls.sol\":7200:7207  getPoll */\n      tag_62\n        /* \"Polls.sol\":7200:7216  getPoll(_pollId) */\n      jump\t// in\n    tag_234:\n        /* \"Polls.sol\":7180:7216  Poll storage poll = getPoll(_pollId) */\n      swap1\n      pop\n        /* \"Polls.sol\":7252:7267  PollStatus.Open */\n      0x01\n        /* \"Polls.sol\":7233:7248  getStatus(poll) */\n      0x40\n      dup1\n      mload\n      0x0160\n      dup2\n      add\n      dup3\n      mstore\n      dup4\n      sload\n      sub(shl(0xa0, 0x01), 0x01)\n      and\n      dup2\n      mstore\n      0x01\n      dup5\n      add\n      sload\n      0x20\n      dup3\n      add\n      mstore\n      0x02\n      dup5\n      add\n      dup1\n      sload\n      tag_237\n      swap4\n        /* \"Polls.sol\":7243:7247  poll */\n      dup7\n      swap3\n        /* \"Polls.sol\":7233:7248  getStatus(poll) */\n      swap1\n      dup5\n      add\n      swap2\n      tag_238\n      swap1\n      tag_65\n      jump\t// in\n    tag_238:\n      dup1\n      0x1f\n      add\n      0x20\n      dup1\n      swap2\n      div\n      mul\n      0x20\n      add\n      mload(0x40)\n      swap1\n      dup2\n      add\n      0x40\n      mstore\n      dup1\n      swap3\n      swap2\n      swap1\n      dup2\n      dup2\n      mstore\n      0x20\n      add\n      dup3\n      dup1\n      sload\n      tag_239\n      swap1\n      tag_65\n      jump\t// in\n    tag_239:\n      dup1\n      iszero\n      tag_240\n      jumpi\n      dup1\n      0x1f\n      lt\n      tag_241\n      jumpi\n      0x0100\n      dup1\n      dup4\n      sload\n      div\n      mul\n      dup4\n      mstore\n      swap2\n      0x20\n      add\n      swap2\n      jump(tag_240)\n    tag_241:\n      dup3\n      add\n      swap2\n      swap1\n      0x00\n      mstore\n      keccak256(0x00, 0x20)\n      swap1\n    tag_242:\n      dup2\n      sload\n      dup2\n      mstore\n      swap1\n      0x01\n      add\n      swap1\n      0x20\n      add\n      dup1\n      dup4\n      gt\n      tag_242\n      jumpi\n      dup3\n      swap1\n      sub\n      0x1f\n      and\n      dup3\n      add\n      swap2\n    tag_240:\n      pop\n      pop\n      pop\n      pop\n      pop\n      dup2\n      mstore\n      0x20\n      add\n      0x03\n      dup3\n      add\n      dup1\n      sload\n      tag_243\n      swap1\n      tag_65\n      jump\t// in\n    tag_243:\n      dup1\n      0x1f\n      add\n      0x20\n      dup1\n      swap2\n      div\n      mul\n      0x20\n      add\n      mload(0x40)\n      swap1\n      dup2\n      add\n      0x40\n      mstore\n      dup1\n      swap3\n      swap2\n      swap1\n      dup2\n      dup2\n      mstore\n      0x20\n      add\n      dup3\n      dup1\n      sload\n      tag_244\n      swap1\n      tag_65\n      jump\t// in\n    tag_244:\n      dup1\n      iszero\n      tag_245\n      jumpi\n      dup1\n      0x1f\n      lt\n      tag_246\n      jumpi\n      0x0100\n      dup1\n      dup4\n      sload\n      div\n      mul\n      dup4\n      mstore\n      swap2\n      0x20\n      add\n      swap2\n      jump(tag_245)\n    tag_246:\n      dup3\n      add\n      swap2\n      swap1\n      0x00\n      mstore\n      keccak256(0x00, 0x20)\n      swap1\n    tag_247:\n      dup2\n      sload\n      dup2\n      mstore\n      swap1\n      0x01\n      add\n      swap1\n      0x20\n      add\n      dup1\n      dup4\n      gt\n      tag_247\n      jumpi\n      dup3\n      swap1\n      sub\n      0x1f\n      and\n      dup3\n      add\n      swap2\n    tag_245:\n      pop\n      pop\n      pop\n      pop\n      pop\n      dup2\n      mstore\n      0x20\n      add\n      0x04\n      dup3\n      add\n      sload\n      dup2\n      mstore\n      0x20\n      add\n      0x05\n      dup3\n      add\n      sload\n      dup2\n      mstore\n      0x20\n      add\n      0x06\n      dup3\n      add\n      dup1\n      sload\n      dup1\n      0x20\n      mul\n      0x20\n      add\n      mload(0x40)\n      swap1\n      dup2\n      add\n      0x40\n      mstore\n      dup1\n      swap3\n      swap2\n      swap1\n      dup2\n      dup2\n      mstore\n      0x20\n      add\n      0x00\n      swap1\n    tag_248:\n      dup3\n      dup3\n      lt\n      iszero\n      tag_150\n      jumpi\n      dup4\n      dup3\n      swap1\n      0x00\n      mstore\n      keccak256(0x00, 0x20)\n      add\n      dup1\n      sload\n      tag_251\n      swap1\n      tag_65\n      jump\t// in\n    tag_251:\n      dup1\n      0x1f\n      add\n      0x20\n      dup1\n      swap2\n      div\n      mul\n      0x20\n      add\n      mload(0x40)\n      swap1\n      dup2\n      add\n      0x40\n      mstore\n      dup1\n      swap3\n      swap2\n      swap1\n      dup2\n      dup2\n      mstore\n      0x20\n      add\n      dup3\n      dup1\n      sload\n      tag_252\n      swap1\n      tag_65\n      jump\t// in\n    tag_252:\n      dup1\n      iszero\n      tag_253\n      jumpi\n      dup1\n      0x1f\n      lt\n      tag_254\n      jumpi\n      0x0100\n      dup1\n      dup4\n      sload\n      div\n      mul\n      dup4\n      mstore\n      swap2\n      0x20\n      add\n      swap2\n      jump(tag_253)\n    tag_254:\n      dup3\n      add\n      swap2\n      swap1\n      0x00\n      mstore\n      keccak256(0x00, 0x20)\n      swap1\n    tag_255:\n      dup2\n      sload\n      dup2\n      mstore\n      swap1\n      0x01\n      add\n      swap1\n      0x20\n      add\n      dup1\n      dup4\n      gt\n      tag_255\n      jumpi\n      dup3\n      swap1\n      sub\n      0x1f\n      and\n      dup3\n      add\n      swap2\n    tag_253:\n      pop\n      pop\n      pop\n      pop\n      pop\n      dup2\n      mstore\n      0x20\n      add\n      swap1\n      0x01\n      add\n      swap1\n      jump(tag_248)\n    tag_237:\n        /* \"Polls.sol\":7233:7267  getStatus(poll) != PollStatus.Open */\n      0x03\n      dup2\n      gt\n      iszero\n      tag_261\n      jumpi\n      tag_261\n      tag_85\n      jump\t// in\n    tag_261:\n      eq\n        /* \"Polls.sol\":7229:7289  if (getStatus(poll) != PollStatus.Open) revert PollNotOpen() */\n      tag_262\n      jumpi\n        /* \"Polls.sol\":7276:7289  PollNotOpen() */\n      mload(0x40)\n      shl(0xe0, 0xb4f0e2d9)\n      dup2\n      mstore\n      0x04\n      add\n      mload(0x40)\n      dup1\n      swap2\n      sub\n      swap1\n      revert\n        /* \"Polls.sol\":7229:7289  if (getStatus(poll) != PollStatus.Open) revert PollNotOpen() */\n    tag_262:\n        /* \"Polls.sol\":7304:7321  hasVoted[_pollId] */\n      0x00\n      dup5\n      dup2\n      mstore\n        /* \"Polls.sol\":7304:7312  hasVoted */\n      0x02\n        /* \"Polls.sol\":7304:7321  hasVoted[_pollId] */\n      0x20\n      swap1\n      dup2\n      mstore\n      0x40\n      dup1\n      dup4\n      keccak256\n        /* \"Polls.sol\":7322:7332  msg.sender */\n      caller\n        /* \"Polls.sol\":7304:7333  hasVoted[_pollId][msg.sender] */\n      dup5\n      mstore\n      swap1\n      swap2\n      mstore\n      swap1\n      keccak256\n      sload\n      0xff\n      and\n        /* \"Polls.sol\":7300:7356  if (hasVoted[_pollId][msg.sender]) revert AlreadyVoted() */\n      iszero\n      tag_263\n      jumpi\n        /* \"Polls.sol\":7342:7356  AlreadyVoted() */\n      mload(0x40)\n      shl(0xe0, 0x7c9a1cf9)\n      dup2\n      mstore\n      0x04\n      add\n      mload(0x40)\n      dup1\n      swap2\n      sub\n      swap1\n      revert\n        /* \"Polls.sol\":7300:7356  if (hasVoted[_pollId][msg.sender]) revert AlreadyVoted() */\n    tag_263:\n        /* \"Polls.sol\":7390:7404  _optionIndices */\n      dup2\n        /* \"Polls.sol\":7369:7387  uint256 numChoices */\n      0x00\n        /* \"Polls.sol\":7426:7441  numChoices == 0 */\n      dup2\n      swap1\n      sub\n        /* \"Polls.sol\":7422:7468  if (numChoices == 0) revert NoOptionSelected() */\n      tag_264\n      jumpi\n        /* \"Polls.sol\":7450:7468  NoOptionSelected() */\n      mload(0x40)\n      shl(0xe0, 0xbe5a2acd)\n      dup2\n      mstore\n      0x04\n      add\n      mload(0x40)\n      dup1\n      swap2\n      sub\n      swap1\n      revert\n        /* \"Polls.sol\":7422:7468  if (numChoices == 0) revert NoOptionSelected() */\n    tag_264:\n        /* \"Polls.sol\":7486:7499  poll.settings */\n      0x08\n      dup3\n      add\n        /* \"Polls.sol\":7486:7511  poll.settings.multiChoice */\n      sload\n      0xff\n      and\n        /* \"Polls.sol\":7485:7511  !poll.settings.multiChoice */\n      iszero\n        /* \"Polls.sol\":7485:7529  !poll.settings.multiChoice && numChoices > 1 */\n      dup1\n      iszero\n      tag_265\n      jumpi\n      pop\n        /* \"Polls.sol\":7528:7529  1 */\n      0x01\n        /* \"Polls.sol\":7515:7525  numChoices */\n      dup2\n        /* \"Polls.sol\":7515:7529  numChoices > 1 */\n      gt\n        /* \"Polls.sol\":7485:7529  !poll.settings.multiChoice && numChoices > 1 */\n    tag_265:\n        /* \"Polls.sol\":7481:7588  if (!poll.settings.multiChoice && numChoices > 1) {... */\n      iszero\n      tag_266\n      jumpi\n        /* \"Polls.sol\":7553:7576  MultiChoiceNotAllowed() */\n      mload(0x40)\n      shl(0xe0, 0xbaabd107)\n      dup2\n      mstore\n      0x04\n      add\n      mload(0x40)\n      dup1\n      swap2\n      sub\n      swap1\n      revert\n        /* \"Polls.sol\":7481:7588  if (!poll.settings.multiChoice && numChoices > 1) {... */\n    tag_266:\n        /* \"Polls.sol\":7605:7614  uint256 i */\n      0x00\n        /* \"Polls.sol\":7600:8022  for (uint256 i = 0; i < numChoices; i++) {... */\n    tag_267:\n        /* \"Polls.sol\":7624:7634  numChoices */\n      dup2\n        /* \"Polls.sol\":7620:7621  i */\n      dup2\n        /* \"Polls.sol\":7620:7634  i < numChoices */\n      lt\n        /* \"Polls.sol\":7600:8022  for (uint256 i = 0; i < numChoices; i++) {... */\n      iszero\n      tag_268\n      jumpi\n        /* \"Polls.sol\":7656:7670  uint256 optInx */\n      0x00\n        /* \"Polls.sol\":7673:7687  _optionIndices */\n      dup6\n      dup6\n        /* \"Polls.sol\":7688:7689  i */\n      dup4\n        /* \"Polls.sol\":7673:7690  _optionIndices[i] */\n      dup2\n      dup2\n      lt\n      tag_271\n      jumpi\n      tag_271\n      tag_227\n      jump\t// in\n    tag_271:\n      swap1\n      pop\n      0x20\n      mul\n      add\n      calldataload\n        /* \"Polls.sol\":7656:7690  uint256 optInx = _optionIndices[i] */\n      swap1\n      pop\n        /* \"Polls.sol\":7719:7723  poll */\n      dup4\n        /* \"Polls.sol\":7719:7731  poll.options */\n      0x06\n      add\n        /* \"Polls.sol\":7719:7738  poll.options.length */\n      dup1\n      sload\n      swap1\n      pop\n        /* \"Polls.sol\":7709:7715  optInx */\n      dup2\n        /* \"Polls.sol\":7709:7738  optInx >= poll.options.length */\n      lt\n        /* \"Polls.sol\":7705:7766  if (optInx >= poll.options.length) revert InvalidPollOption() */\n      tag_272\n      jumpi\n        /* \"Polls.sol\":7747:7766  InvalidPollOption() */\n      mload(0x40)\n      shl(0xe0, 0x70039a25)\n      dup2\n      mstore\n      0x04\n      add\n      mload(0x40)\n      dup1\n      swap2\n      sub\n      swap1\n      revert\n        /* \"Polls.sol\":7705:7766  if (optInx >= poll.options.length) revert InvalidPollOption() */\n    tag_272:\n        /* \"Polls.sol\":7786:7795  uint256 j */\n      0x00\n        /* \"Polls.sol\":7781:7966  for (uint256 j = 0; j < i; j++) {... */\n    tag_273:\n        /* \"Polls.sol\":7805:7806  i */\n      dup3\n        /* \"Polls.sol\":7801:7802  j */\n      dup2\n        /* \"Polls.sol\":7801:7806  j < i */\n      lt\n        /* \"Polls.sol\":7781:7966  for (uint256 j = 0; j < i; j++) {... */\n      iszero\n      tag_274\n      jumpi\n        /* \"Polls.sol\":7857:7871  _optionIndices */\n      dup7\n      dup7\n        /* \"Polls.sol\":7872:7873  j */\n      dup3\n        /* \"Polls.sol\":7857:7874  _optionIndices[j] */\n      dup2\n      dup2\n      lt\n      tag_277\n      jumpi\n      tag_277\n      tag_227\n      jump\t// in\n    tag_277:\n      swap1\n      pop\n      0x20\n      mul\n      add\n      calldataload\n        /* \"Polls.sol\":7836:7850  _optionIndices */\n      dup8\n      dup8\n        /* \"Polls.sol\":7851:7852  i */\n      dup6\n        /* \"Polls.sol\":7836:7853  _optionIndices[i] */\n      dup2\n      dup2\n      lt\n      tag_279\n      jumpi\n      tag_279\n      tag_227\n      jump\t// in\n    tag_279:\n      swap1\n      pop\n      0x20\n      mul\n      add\n      calldataload\n        /* \"Polls.sol\":7836:7874  _optionIndices[i] == _optionIndices[j] */\n      sub\n        /* \"Polls.sol\":7832:7951  if (_optionIndices[i] == _optionIndices[j]) {... */\n      tag_280\n      jumpi\n        /* \"Polls.sol\":7906:7931  DuplicateOptionSelected() */\n      mload(0x40)\n      shl(0xe1, 0x0fe3ee13)\n      dup2\n      mstore\n      0x04\n      add\n      mload(0x40)\n      dup1\n      swap2\n      sub\n      swap1\n      revert\n        /* \"Polls.sol\":7832:7951  if (_optionIndices[i] == _optionIndices[j]) {... */\n    tag_280:\n        /* \"Polls.sol\":7808:7811  j++ */\n      0x01\n      add\n        /* \"Polls.sol\":7781:7966  for (uint256 j = 0; j < i; j++) {... */\n      jump(tag_273)\n    tag_274:\n      pop\n        /* \"Polls.sol\":7980:8000  optionVotes[_pollId] */\n      0x00\n      dup8\n      dup2\n      mstore\n        /* \"Polls.sol\":7980:7991  optionVotes */\n      0x04\n        /* \"Polls.sol\":7980:8000  optionVotes[_pollId] */\n      0x20\n      swap1\n      dup2\n      mstore\n      0x40\n      dup1\n      dup4\n      keccak256\n        /* \"Polls.sol\":7980:8008  optionVotes[_pollId][optInx] */\n      dup5\n      dup5\n      mstore\n      swap1\n      swap2\n      mstore\n      dup2\n      keccak256\n        /* \"Polls.sol\":7980:8010  optionVotes[_pollId][optInx]++ */\n      dup1\n      sload\n      swap2\n      tag_281\n      dup4\n      tag_282\n      jump\t// in\n    tag_281:\n      swap1\n      swap2\n      sstore\n      pop\n      pop\n      pop\n        /* \"Polls.sol\":7636:7639  i++ */\n      0x01\n      add\n        /* \"Polls.sol\":7600:8022  for (uint256 i = 0; i < numChoices; i++) {... */\n      jump(tag_267)\n    tag_268:\n      pop\n        /* \"Polls.sol\":8034:8048  poll.pollVotes */\n      0x07\n      dup3\n      add\n        /* \"Polls.sol\":8034:8050  poll.pollVotes++ */\n      dup1\n      sload\n      swap1\n        /* \"Polls.sol\":8034:8048  poll.pollVotes */\n      0x00\n        /* \"Polls.sol\":8034:8050  poll.pollVotes++ */\n      tag_283\n      dup4\n      tag_282\n      jump\t// in\n    tag_283:\n      swap1\n      swap2\n      sstore\n      pop\n      pop\n        /* \"Polls.sol\":8061:8078  hasVoted[_pollId] */\n      0x00\n      dup6\n      dup2\n      mstore\n        /* \"Polls.sol\":8061:8069  hasVoted */\n      0x02\n        /* \"Polls.sol\":8061:8078  hasVoted[_pollId] */\n      0x20\n      swap1\n      dup2\n      mstore\n      0x40\n      dup1\n      dup4\n      keccak256\n        /* \"Polls.sol\":8079:8089  msg.sender */\n      caller\n        /* \"Polls.sol\":8061:8090  hasVoted[_pollId][msg.sender] */\n      dup1\n      dup6\n      mstore\n      swap1\n      dup4\n      mstore\n      dup2\n      dup5\n      keccak256\n        /* \"Polls.sol\":8061:8097  hasVoted[_pollId][msg.sender] = true */\n      dup1\n      sload\n      not(0xff)\n      and\n        /* \"Polls.sol\":8093:8097  true */\n      0x01\n        /* \"Polls.sol\":8061:8097  hasVoted[_pollId][msg.sender] = true */\n      swap1\n      dup2\n      or\n      swap1\n      swap2\n      sstore\n        /* \"Polls.sol\":8108:8129  UserPolls[msg.sender] */\n      dup1\n      dup5\n      mstore\n      dup3\n      dup6\n      keccak256\n        /* \"Polls.sol\":8108:8143  UserPolls[msg.sender].push(_pollId) */\n      dup1\n      sload\n      swap2\n      dup3\n      add\n      dup2\n      sstore\n      dup6\n      mstore\n      dup4\n      dup6\n      keccak256\n      add\n      dup10\n      swap1\n      sstore\n        /* \"Polls.sol\":8188:8209  votedIndices[_pollId] */\n      dup9\n      dup5\n      mstore\n        /* \"Polls.sol\":8188:8200  votedIndices */\n      0x05\n        /* \"Polls.sol\":8188:8209  votedIndices[_pollId] */\n      dup4\n      mstore\n      dup2\n      dup5\n      keccak256\n        /* \"Polls.sol\":8188:8221  votedIndices[_pollId][msg.sender] */\n      swap1\n      dup5\n      mstore\n      swap1\n      swap2\n      mstore\n      swap1\n      keccak256\n        /* \"Polls.sol\":8188:8238  votedIndices[_pollId][msg.sender] = _optionIndices */\n      tag_285\n      swap1\n        /* \"Polls.sol\":8224:8238  _optionIndices */\n      dup6\n      dup6\n        /* \"Polls.sol\":8188:8238  votedIndices[_pollId][msg.sender] = _optionIndices */\n      tag_286\n      jump\t// in\n    tag_285:\n      pop\n        /* \"Polls.sol\":8319:8329  msg.sender */\n      caller\n      sub(shl(0xa0, 0x01), 0x01)\n        /* \"Polls.sol\":8310:8355  VoteCast(msg.sender, _pollId, _optionIndices) */\n      and\n      0xcf413025c8b450134dae85561cfe55bd5a20cd0d8912db984431e553b31d4c09\n        /* \"Polls.sol\":8331:8338  _pollId */\n      dup7\n        /* \"Polls.sol\":8340:8354  _optionIndices */\n      dup7\n      dup7\n        /* \"Polls.sol\":8310:8355  VoteCast(msg.sender, _pollId, _optionIndices) */\n      mload(0x40)\n      tag_287\n      swap4\n      swap3\n      swap2\n      swap1\n      tag_288\n      jump\t// in\n    tag_287:\n      mload(0x40)\n      dup1\n      swap2\n      sub\n      swap1\n      log2\n        /* \"Polls.sol\":7169:8363  {... */\n      pop\n      pop\n        /* \"Polls.sol\":7065:8363  function castVote(... */\n      pop\n      pop\n      pop\n      jump\t// out\n        /* \"Polls.sol\":4238:5083  function getPollSummaries(... */\n    tag_47:\n      sub(shl(0xa0, 0x01), 0x01)\n        /* \"Polls.sol\":4373:4389  UserPolls[_user] */\n      dup2\n      and\n        /* \"Polls.sol\":4349:4370  uint256[] storage ids */\n      0x00\n        /* \"Polls.sol\":4373:4389  UserPolls[_user] */\n      swap1\n      dup2\n      mstore\n        /* \"Polls.sol\":4373:4382  UserPolls */\n      0x01\n        /* \"Polls.sol\":4373:4389  UserPolls[_user] */\n      0x20\n      mstore\n      0x40\n      dup2\n      keccak256\n        /* \"Polls.sol\":4416:4426  ids.length */\n      dup1\n      sload\n        /* \"Polls.sol\":4316:4336  PollSummary[] memory */\n      0x60\n      swap3\n        /* \"Polls.sol\":4416:4426  ids.length */\n      dup2\n        /* \"Polls.sol\":4472:4496  new PollSummary[](count) */\n      0xffffffffffffffff\n      dup2\n      gt\n      iszero\n      tag_291\n      jumpi\n      tag_291\n      tag_292\n      jump\t// in\n    tag_291:\n      mload(0x40)\n      swap1\n      dup1\n      dup3\n      mstore\n      dup1\n      0x20\n      mul\n      0x20\n      add\n      dup3\n      add\n      0x40\n      mstore\n      dup1\n      iszero\n      tag_293\n      jumpi\n      dup2\n      0x20\n      add\n    tag_294:\n      tag_295\n      tag_296\n      jump\t// in\n    tag_295:\n      dup2\n      mstore\n      0x20\n      add\n      swap1\n      0x01\n      swap1\n      sub\n      swap1\n      dup2\n      tag_294\n      jumpi\n      swap1\n      pop\n    tag_293:\n      pop\n        /* \"Polls.sol\":4439:4496  PollSummary[] memory summaries = new PollSummary[](count) */\n      swap1\n      pop\n        /* \"Polls.sol\":4514:4523  uint256 i */\n      0x00\n        /* \"Polls.sol\":4509:5047  for (uint256 i = 0; i < count; i++) {... */\n    tag_297:\n        /* \"Polls.sol\":4533:4538  count */\n      dup3\n        /* \"Polls.sol\":4529:4530  i */\n      dup2\n        /* \"Polls.sol\":4529:4538  i < count */\n      lt\n        /* \"Polls.sol\":4509:5047  for (uint256 i = 0; i < count; i++) {... */\n      iszero\n      tag_298\n      jumpi\n        /* \"Polls.sol\":4560:4570  uint256 id */\n      0x00\n        /* \"Polls.sol\":4573:4576  ids */\n      dup5\n        /* \"Polls.sol\":4577:4578  i */\n      dup3\n        /* \"Polls.sol\":4573:4579  ids[i] */\n      dup2\n      sload\n      dup2\n      lt\n      tag_301\n      jumpi\n      tag_301\n      tag_227\n      jump\t// in\n    tag_301:\n      swap1\n      0x00\n      mstore\n      keccak256(0x00, 0x20)\n      add\n      sload\n        /* \"Polls.sol\":4560:4579  uint256 id = ids[i] */\n      swap1\n      pop\n        /* \"Polls.sol\":4594:4611  Poll storage poll */\n      0x00\n        /* \"Polls.sol\":4614:4619  polls */\n      dup1\n        /* \"Polls.sol\":4620:4622  id */\n      dup3\n        /* \"Polls.sol\":4614:4623  polls[id] */\n      dup2\n      sload\n      dup2\n      lt\n      tag_304\n      jumpi\n      tag_304\n      tag_227\n      jump\t// in\n    tag_304:\n      0x00\n      swap2\n      dup3\n      mstore\n      0x20\n      swap1\n      swap2\n      keccak256\n      0x0b\n      swap1\n      swap2\n      mul\n      add\n        /* \"Polls.sol\":4642:4656  poll.isDeleted */\n      0x0a\n      dup2\n      add\n      sload\n        /* \"Polls.sol\":4614:4623  polls[id] */\n      swap1\n      swap2\n      pop\n        /* \"Polls.sol\":4642:4656  poll.isDeleted */\n      0xff\n      and\n        /* \"Polls.sol\":4638:4666  if (poll.isDeleted) continue */\n      iszero\n      tag_306\n      jumpi\n        /* \"Polls.sol\":4658:4666  continue */\n      pop\n      pop\n      jump(tag_299)\n        /* \"Polls.sol\":4638:4666  if (poll.isDeleted) continue */\n    tag_306:\n        /* \"Polls.sol\":4696:5035  PollSummary({... */\n      0x40\n      dup1\n      mload\n      0x0100\n      dup2\n      add\n      dup3\n      mstore\n        /* \"Polls.sol\":4736:4748  poll.creator */\n      dup3\n      sload\n      sub(shl(0xa0, 0x01), 0x01)\n      and\n        /* \"Polls.sol\":4696:5035  PollSummary({... */\n      dup2\n      mstore\n      0x20\n      dup2\n      add\n      dup5\n      swap1\n      mstore\n        /* \"Polls.sol\":4799:4809  poll.title */\n      0x02\n      dup4\n      add\n        /* \"Polls.sol\":4696:5035  PollSummary({... */\n      dup1\n      sload\n      swap2\n      swap3\n      dup4\n      add\n      swap2\n      tag_307\n      swap1\n      tag_65\n      jump\t// in\n    tag_307:\n      dup1\n      0x1f\n      add\n      0x20\n      dup1\n      swap2\n      div\n      mul\n      0x20\n      add\n      mload(0x40)\n      swap1\n      dup2\n      add\n      0x40\n      mstore\n      dup1\n      swap3\n      swap2\n      swap1\n      dup2\n      dup2\n      mstore\n      0x20\n      add\n      dup3\n      dup1\n      sload\n      tag_308\n      swap1\n      tag_65\n      jump\t// in\n    tag_308:\n      dup1\n      iszero\n      tag_309\n      jumpi\n      dup1\n      0x1f\n      lt\n      tag_310\n      jumpi\n      0x0100\n      dup1\n      dup4\n      sload\n      div\n      mul\n      dup4\n      mstore\n      swap2\n      0x20\n      add\n      swap2\n      jump(tag_309)\n    tag_310:\n      dup3\n      add\n      swap2\n      swap1\n      0x00\n      mstore\n      keccak256(0x00, 0x20)\n      swap1\n    tag_311:\n      dup2\n      sload\n      dup2\n      mstore\n      swap1\n      0x01\n      add\n      swap1\n      0x20\n      add\n      dup1\n      dup4\n      gt\n      tag_311\n      jumpi\n      dup3\n      swap1\n      sub\n      0x1f\n      and\n      dup3\n      add\n      swap2\n    tag_309:\n      pop\n      pop\n      pop\n      pop\n      pop\n      dup2\n      mstore\n      0x20\n      add\n        /* \"Polls.sol\":4839:4843  poll */\n      dup3\n        /* \"Polls.sol\":4839:4853  poll.pollVotes */\n      0x07\n      add\n      sload\n        /* \"Polls.sol\":4696:5035  PollSummary({... */\n      dup2\n      mstore\n      0x20\n      add\n        /* \"Polls.sol\":4880:4895  getStatus(poll) */\n      tag_312\n        /* \"Polls.sol\":4890:4894  poll */\n      dup4\n        /* \"Polls.sol\":4880:4895  getStatus(poll) */\n      mload(0x40)\n      dup1\n      0x0160\n      add\n      0x40\n      mstore\n      swap1\n      dup2\n      0x00\n      dup3\n      add\n      0x00\n      swap1\n      sload\n      swap1\n      0x0100\n      exp\n      swap1\n      div\n      sub(shl(0xa0, 0x01), 0x01)\n      and\n      sub(shl(0xa0, 0x01), 0x01)\n      and\n      sub(shl(0xa0, 0x01), 0x01)\n      and\n      dup2\n      mstore\n      0x20\n      add\n      0x01\n      dup3\n      add\n      sload\n      dup2\n      mstore\n      0x20\n      add\n      0x02\n      dup3\n      add\n      dup1\n      sload\n      tag_313\n      swap1\n      tag_65\n      jump\t// in\n    tag_313:\n      dup1\n      0x1f\n      add\n      0x20\n      dup1\n      swap2\n      div\n      mul\n      0x20\n      add\n      mload(0x40)\n      swap1\n      dup2\n      add\n      0x40\n      mstore\n      dup1\n      swap3\n      swap2\n      swap1\n      dup2\n      dup2\n      mstore\n      0x20\n      add\n      dup3\n      dup1\n      sload\n      tag_314\n      swap1\n      tag_65\n      jump\t// in\n    tag_314:\n      dup1\n      iszero\n      tag_315\n      jumpi\n      dup1\n      0x1f\n      lt\n      tag_316\n      jumpi\n      0x0100\n      dup1\n      dup4\n      sload\n      div\n      mul\n      dup4\n      mstore\n      swap2\n      0x20\n      add\n      swap2\n      jump(tag_315)\n    tag_316:\n      dup3\n      add\n      swap2\n      swap1\n      0x00\n      mstore\n      keccak256(0x00, 0x20)\n      swap1\n    tag_317:\n      dup2\n      sload\n      dup2\n      mstore\n      swap1\n      0x01\n      add\n      swap1\n      0x20\n      add\n      dup1\n      dup4\n      gt\n      tag_317\n      jumpi\n      dup3\n      swap1\n      sub\n      0x1f\n      and\n      dup3\n      add\n      swap2\n    tag_315:\n      pop\n      pop\n      pop\n      pop\n      pop\n      dup2\n      mstore\n      0x20\n      add\n      0x03\n      dup3\n      add\n      dup1\n      sload\n      tag_318\n      swap1\n      tag_65\n      jump\t// in\n    tag_318:\n      dup1\n      0x1f\n      add\n      0x20\n      dup1\n      swap2\n      div\n      mul\n      0x20\n      add\n      mload(0x40)\n      swap1\n      dup2\n      add\n      0x40\n      mstore\n      dup1\n      swap3\n      swap2\n      swap1\n      dup2\n      dup2\n      mstore\n      0x20\n      add\n      dup3\n      dup1\n      sload\n      tag_319\n      swap1\n      tag_65\n      jump\t// in\n    tag_319:\n      dup1\n      iszero\n      tag_320\n      jumpi\n      dup1\n      0x1f\n      lt\n      tag_321\n      jumpi\n      0x0100\n      dup1\n      dup4\n      sload\n      div\n      mul\n      dup4\n      mstore\n      swap2\n      0x20\n      add\n      swap2\n      jump(tag_320)\n    tag_321:\n      dup3\n      add\n      swap2\n      swap1\n      0x00\n      mstore\n      keccak256(0x00, 0x20)\n      swap1\n    tag_322:\n      dup2\n      sload\n      dup2\n      mstore\n      swap1\n      0x01\n      add\n      swap1\n      0x20\n      add\n      dup1\n      dup4\n      gt\n      tag_322\n      jumpi\n      dup3\n      swap1\n      sub\n      0x1f\n      and\n      dup3\n      add\n      swap2\n    tag_320:\n      pop\n      pop\n      pop\n      pop\n      pop\n      dup2\n      mstore\n      0x20\n      add\n      0x04\n      dup3\n      add\n      sload\n      dup2\n      mstore\n      0x20\n      add\n      0x05\n      dup3\n      add\n      sload\n      dup2\n      mstore\n      0x20\n      add\n      0x06\n      dup3\n      add\n      dup1\n      sload\n      dup1\n      0x20\n      mul\n      0x20\n      add\n      mload(0x40)\n      swap1\n      dup2\n      add\n      0x40\n      mstore\n      dup1\n      swap3\n      swap2\n      swap1\n      dup2\n      dup2\n      mstore\n      0x20\n      add\n      0x00\n      swap1\n    tag_323:\n      dup3\n      dup3\n      lt\n      iszero\n      tag_150\n      jumpi\n      dup4\n      dup3\n      swap1\n      0x00\n      mstore\n      keccak256(0x00, 0x20)\n      add\n      dup1\n      sload\n      tag_326\n      swap1\n      tag_65\n      jump\t// in\n    tag_326:\n      dup1\n      0x1f\n      add\n      0x20\n      dup1\n      swap2\n      div\n      mul\n      0x20\n      add\n      mload(0x40)\n      swap1\n      dup2\n      add\n      0x40\n      mstore\n      dup1\n      swap3\n      swap2\n      swap1\n      dup2\n      dup2\n      mstore\n      0x20\n      add\n      dup3\n      dup1\n      sload\n      tag_327\n      swap1\n      tag_65\n      jump\t// in\n    tag_327:\n      dup1\n      iszero\n      tag_328\n      jumpi\n      dup1\n      0x1f\n      lt\n      tag_329\n      jumpi\n      0x0100\n      dup1\n      dup4\n      sload\n      div\n      mul\n      dup4\n      mstore\n      swap2\n      0x20\n      add\n      swap2\n      jump(tag_328)\n    tag_329:\n      dup3\n      add\n      swap2\n      swap1\n      0x00\n      mstore\n      keccak256(0x00, 0x20)\n      swap1\n    tag_330:\n      dup2\n      sload\n      dup2\n      mstore\n      swap1\n      0x01\n      add\n      swap1\n      0x20\n      add\n      dup1\n      dup4\n      gt\n      tag_330\n      jumpi\n      dup3\n      swap1\n      sub\n      0x1f\n      and\n      dup3\n      add\n      swap2\n    tag_328:\n      pop\n      pop\n      pop\n      pop\n      pop\n      dup2\n      mstore\n      0x20\n      add\n      swap1\n      0x01\n      add\n      swap1\n      jump(tag_323)\n    tag_312:\n        /* \"Polls.sol\":4696:5035  PollSummary({... */\n      0x03\n      dup2\n      gt\n      iszero\n      tag_336\n      jumpi\n      tag_336\n      tag_85\n      jump\t// in\n    tag_336:\n      dup2\n      mstore\n      0x20\n      add\n        /* \"Polls.sol\":4924:4928  poll */\n      dup3\n        /* \"Polls.sol\":4924:4937  poll.startsAt */\n      0x04\n      add\n      sload\n        /* \"Polls.sol\":4696:5035  PollSummary({... */\n      dup2\n      mstore\n      0x20\n      add\n        /* \"Polls.sol\":4964:4968  poll */\n      dup3\n        /* \"Polls.sol\":4964:4975  poll.endsAt */\n      0x05\n      add\n      sload\n        /* \"Polls.sol\":4696:5035  PollSummary({... */\n      dup2\n      mstore\n      0x20\n      add\n        /* \"Polls.sol\":5005:5009  poll */\n      dup3\n        /* \"Polls.sol\":5005:5019  poll.createdAt */\n      0x09\n      add\n      sload\n        /* \"Polls.sol\":4696:5035  PollSummary({... */\n      dup2\n      mstore\n      pop\n        /* \"Polls.sol\":4681:4690  summaries */\n      dup5\n        /* \"Polls.sol\":4691:4692  i */\n      dup5\n        /* \"Polls.sol\":4681:4693  summaries[i] */\n      dup2\n      mload\n      dup2\n      lt\n      tag_338\n      jumpi\n      tag_338\n      tag_227\n      jump\t// in\n    tag_338:\n      0x20\n      mul\n      0x20\n      add\n      add\n        /* \"Polls.sol\":4681:5035  summaries[i] = PollSummary({... */\n      dup2\n      swap1\n      mstore\n      pop\n        /* \"Polls.sol\":4545:5047  {... */\n      pop\n      pop\n        /* \"Polls.sol\":4509:5047  for (uint256 i = 0; i < count; i++) {... */\n    tag_299:\n        /* \"Polls.sol\":4540:4543  i++ */\n      0x01\n      add\n        /* \"Polls.sol\":4509:5047  for (uint256 i = 0; i < count; i++) {... */\n      jump(tag_297)\n    tag_298:\n      pop\n        /* \"Polls.sol\":5066:5075  summaries */\n      swap5\n        /* \"Polls.sol\":4238:5083  function getPollSummaries(... */\n      swap4\n      pop\n      pop\n      pop\n      pop\n      jump\t// out\n        /* \"Polls.sol\":8371:8689  function closePoll(uint256 _pollId) external {... */\n    tag_52:\n        /* \"Polls.sol\":8427:8444  Poll storage poll */\n      0x00\n        /* \"Polls.sol\":8447:8463  getPoll(_pollId) */\n      tag_340\n        /* \"Polls.sol\":8455:8462  _pollId */\n      dup3\n        /* \"Polls.sol\":8447:8454  getPoll */\n      tag_62\n        /* \"Polls.sol\":8447:8463  getPoll(_pollId) */\n      jump\t// in\n    tag_340:\n        /* \"Polls.sol\":8478:8490  poll.creator */\n      dup1\n      sload\n        /* \"Polls.sol\":8427:8463  Poll storage poll = getPoll(_pollId) */\n      swap1\n      swap2\n      pop\n      sub(shl(0xa0, 0x01), 0x01)\n        /* \"Polls.sol\":8478:8490  poll.creator */\n      and\n        /* \"Polls.sol\":8494:8504  msg.sender */\n      caller\n        /* \"Polls.sol\":8478:8504  poll.creator != msg.sender */\n      eq\n        /* \"Polls.sol\":8474:8527  if (poll.creator != msg.sender) revert AccessDenied() */\n      tag_341\n      jumpi\n        /* \"Polls.sol\":8513:8527  AccessDenied() */\n      mload(0x40)\n      shl(0xe0, 0x4ca88867)\n      dup2\n      mstore\n      0x04\n      add\n      mload(0x40)\n      dup1\n      swap2\n      sub\n      swap1\n      revert\n        /* \"Polls.sol\":8474:8527  if (poll.creator != msg.sender) revert AccessDenied() */\n    tag_341:\n        /* \"Polls.sol\":8561:8578  PollStatus.Closed */\n      0x03\n        /* \"Polls.sol\":8542:8557  getStatus(poll) */\n      0x40\n      dup1\n      mload\n      0x0160\n      dup2\n      add\n      dup3\n      mstore\n      dup4\n      sload\n      sub(shl(0xa0, 0x01), 0x01)\n      and\n      dup2\n      mstore\n      0x01\n      dup5\n      add\n      sload\n      0x20\n      dup3\n      add\n      mstore\n      0x02\n      dup5\n      add\n      dup1\n      sload\n      tag_344\n      swap4\n        /* \"Polls.sol\":8552:8556  poll */\n      dup7\n      swap3\n        /* \"Polls.sol\":8542:8557  getStatus(poll) */\n      swap1\n      dup5\n      add\n      swap2\n      tag_345\n      swap1\n      tag_65\n      jump\t// in\n    tag_345:\n      dup1\n      0x1f\n      add\n      0x20\n      dup1\n      swap2\n      div\n      mul\n      0x20\n      add\n      mload(0x40)\n      swap1\n      dup2\n      add\n      0x40\n      mstore\n      dup1\n      swap3\n      swap2\n      swap1\n      dup2\n      dup2\n      mstore\n      0x20\n      add\n      dup3\n      dup1\n      sload\n      tag_346\n      swap1\n      tag_65\n      jump\t// in\n    tag_346:\n      dup1\n      iszero\n      tag_347\n      jumpi\n      dup1\n      0x1f\n      lt\n      tag_348\n      jumpi\n      0x0100\n      dup1\n      dup4\n      sload\n      div\n      mul\n      dup4\n      mstore\n      swap2\n      0x20\n      add\n      swap2\n      jump(tag_347)\n    tag_348:\n      dup3\n      add\n      swap2\n      swap1\n      0x00\n      mstore\n      keccak256(0x00, 0x20)\n      swap1\n    tag_349:\n      dup2\n      sload\n      dup2\n      mstore\n      swap1\n      0x01\n      add\n      swap1\n      0x20\n      add\n      dup1\n      dup4\n      gt\n      tag_349\n      jumpi\n      dup3\n      swap1\n      sub\n      0x1f\n      and\n      dup3\n      add\n      swap2\n    tag_347:\n      pop\n      pop\n      pop\n      pop\n      pop\n      dup2\n      mstore\n      0x20\n      add\n      0x03\n      dup3\n      add\n      dup1\n      sload\n      tag_350\n      swap1\n      tag_65\n      jump\t// in\n    tag_350:\n      dup1\n      0x1f\n      add\n      0x20\n      dup1\n      swap2\n      div\n      mul\n      0x20\n      add\n      mload(0x40)\n      swap1\n      dup2\n      add\n      0x40\n      mstore\n      dup1\n      swap3\n      swap2\n      swap1\n      dup2\n      dup2\n      mstore\n      0x20\n      add\n      dup3\n      dup1\n      sload\n      tag_351\n      swap1\n      tag_65\n      jump\t// in\n    tag_351:\n      dup1\n      iszero\n      tag_352\n      jumpi\n      dup1\n      0x1f\n      lt\n      tag_353\n      jumpi\n      0x0100\n      dup1\n      dup4\n      sload\n      div\n      mul\n      dup4\n      mstore\n      swap2\n      0x20\n      add\n      swap2\n      jump(tag_352)\n    tag_353:\n      dup3\n      add\n      swap2\n      swap1\n      0x00\n      mstore\n      keccak256(0x00, 0x20)\n      swap1\n    tag_354:\n      dup2\n      sload\n      dup2\n      mstore\n      swap1\n      0x01\n      add\n      swap1\n      0x20\n      add\n      dup1\n      dup4\n      gt\n      tag_354\n      jumpi\n      dup3\n      swap1\n      sub\n      0x1f\n      and\n      dup3\n      add\n      swap2\n    tag_352:\n      pop\n      pop\n      pop\n      pop\n      pop\n      dup2\n      mstore\n      0x20\n      add\n      0x04\n      dup3\n      add\n      sload\n      dup2\n      mstore\n      0x20\n      add\n      0x05\n      dup3\n      add\n      sload\n      dup2\n      mstore\n      0x20\n      add\n      0x06\n      dup3\n      add\n      dup1\n      sload\n      dup1\n      0x20\n      mul\n      0x20\n      add\n      mload(0x40)\n      swap1\n      dup2\n      add\n      0x40\n      mstore\n      dup1\n      swap3\n      swap2\n      swap1\n      dup2\n      dup2\n      mstore\n      0x20\n      add\n      0x00\n      swap1\n    tag_355:\n      dup3\n      dup3\n      lt\n      iszero\n      tag_150\n      jumpi\n      dup4\n      dup3\n      swap1\n      0x00\n      mstore\n      keccak256(0x00, 0x20)\n      add\n      dup1\n      sload\n      tag_358\n      swap1\n      tag_65\n      jump\t// in\n    tag_358:\n      dup1\n      0x1f\n      add\n      0x20\n      dup1\n      swap2\n      div\n      mul\n      0x20\n      add\n      mload(0x40)\n      swap1\n      dup2\n      add\n      0x40\n      mstore\n      dup1\n      swap3\n      swap2\n      swap1\n      dup2\n      dup2\n      mstore\n      0x20\n      add\n      dup3\n      dup1\n      sload\n      tag_359\n      swap1\n      tag_65\n      jump\t// in\n    tag_359:\n      dup1\n      iszero\n      tag_360\n      jumpi\n      dup1\n      0x1f\n      lt\n      tag_361\n      jumpi\n      0x0100\n      dup1\n      dup4\n      sload\n      div\n      mul\n      dup4\n      mstore\n      swap2\n      0x20\n      add\n      swap2\n      jump(tag_360)\n    tag_361:\n      dup3\n      add\n      swap2\n      swap1\n      0x00\n      mstore\n      keccak256(0x00, 0x20)\n      swap1\n    tag_362:\n      dup2\n      sload\n      dup2\n      mstore\n      swap1\n      0x01\n      add\n      swap1\n      0x20\n      add\n      dup1\n      dup4\n      gt\n      tag_362\n      jumpi\n      dup3\n      swap1\n      sub\n      0x1f\n      and\n      dup3\n      add\n      swap2\n    tag_360:\n      pop\n      pop\n      pop\n      pop\n      pop\n      dup2\n      mstore\n      0x20\n      add\n      swap1\n      0x01\n      add\n      swap1\n      jump(tag_355)\n    tag_344:\n        /* \"Polls.sol\":8542:8578  getStatus(poll) == PollStatus.Closed */\n      0x03\n      dup2\n      gt\n      iszero\n      tag_368\n      jumpi\n      tag_368\n      tag_85\n      jump\t// in\n    tag_368:\n      sub\n        /* \"Polls.sol\":8538:8606  if (getStatus(poll) == PollStatus.Closed) revert PollAlreadyClosed() */\n      tag_369\n      jumpi\n        /* \"Polls.sol\":8587:8606  PollAlreadyClosed() */\n      mload(0x40)\n      shl(0xe0, 0x9b22ddeb)\n      dup2\n      mstore\n      0x04\n      add\n      mload(0x40)\n      dup1\n      swap2\n      sub\n      swap1\n      revert\n        /* \"Polls.sol\":8538:8606  if (getStatus(poll) == PollStatus.Closed) revert PollAlreadyClosed() */\n    tag_369:\n        /* \"Polls.sol\":8631:8632  1 */\n      0x01\n        /* \"Polls.sol\":8617:8628  poll.endsAt */\n      0x05\n      dup3\n      add\n        /* \"Polls.sol\":8617:8632  poll.endsAt = 1 */\n      sstore\n        /* \"Polls.sol\":8650:8681  PollClosed(msg.sender, _pollId) */\n      mload(0x40)\n        /* \"Polls.sol\":8673:8680  _pollId */\n      dup3\n      swap1\n        /* \"Polls.sol\":8661:8671  msg.sender */\n      caller\n      swap1\n        /* \"Polls.sol\":8650:8681  PollClosed(msg.sender, _pollId) */\n      0x563a96cebb2dd00c04fe16ab3f34901e3749b13da3040e6cae0b5a55ea4daee2\n      swap1\n      0x00\n      swap1\n      log3\n        /* \"Polls.sol\":8416:8689  {... */\n      pop\n        /* \"Polls.sol\":8371:8689  function closePoll(uint256 _pollId) external {... */\n      pop\n      jump\t// out\n        /* \"Polls.sol\":1595:1614  Poll[] public polls */\n    tag_55:\n      0x00\n      dup2\n      dup2\n      sload\n      dup2\n      lt\n      tag_370\n      jumpi\n      0x00\n      dup1\n      revert\n    tag_370:\n      0x00\n      swap2\n      dup3\n      mstore\n      0x20\n      swap1\n      swap2\n      keccak256\n      0x0b\n      swap1\n      swap2\n      mul\n      add\n      dup1\n      sload\n      0x01\n      dup3\n      add\n      sload\n      0x02\n      dup4\n      add\n      dup1\n      sload\n      sub(shl(0xa0, 0x01), 0x01)\n      swap1\n      swap4\n      and\n      swap5\n      pop\n      swap1\n      swap3\n      swap2\n      tag_372\n      swap1\n      tag_65\n      jump\t// in\n    tag_372:\n      dup1\n      0x1f\n      add\n      0x20\n      dup1\n      swap2\n      div\n      mul\n      0x20\n      add\n      mload(0x40)\n      swap1\n      dup2\n      add\n      0x40\n      mstore\n      dup1\n      swap3\n      swap2\n      swap1\n      dup2\n      dup2\n      mstore\n      0x20\n      add\n      dup3\n      dup1\n      sload\n      tag_373\n      swap1\n      tag_65\n      jump\t// in\n    tag_373:\n      dup1\n      iszero\n      tag_374\n      jumpi\n      dup1\n      0x1f\n      lt\n      tag_375\n      jumpi\n      0x0100\n      dup1\n      dup4\n      sload\n      div\n      mul\n      dup4\n      mstore\n      swap2\n      0x20\n      add\n      swap2\n      jump(tag_374)\n    tag_375:\n      dup3\n      add\n      swap2\n      swap1\n      0x00\n      mstore\n      keccak256(0x00, 0x20)\n      swap1\n    tag_376:\n      dup2\n      sload\n      dup2\n      mstore\n      swap1\n      0x01\n      add\n      swap1\n      0x20\n      add\n      dup1\n      dup4\n      gt\n      tag_376\n      jumpi\n      dup3\n      swap1\n      sub\n      0x1f\n      and\n      dup3\n      add\n      swap2\n    tag_374:\n      pop\n      pop\n      pop\n      pop\n      pop\n      swap1\n      dup1\n      0x03\n      add\n      dup1\n      sload\n      tag_377\n      swap1\n      tag_65\n      jump\t// in\n    tag_377:\n      dup1\n      0x1f\n      add\n      0x20\n      dup1\n      swap2\n      div\n      mul\n      0x20\n      add\n      mload(0x40)\n      swap1\n      dup2\n      add\n      0x40\n      mstore\n      dup1\n      swap3\n      swap2\n      swap1\n      dup2\n      dup2\n      mstore\n      0x20\n      add\n      dup3\n      dup1\n      sload\n      tag_378\n      swap1\n      tag_65\n      jump\t// in\n    tag_378:\n      dup1\n      iszero\n      tag_379\n      jumpi\n      dup1\n      0x1f\n      lt\n      tag_380\n      jumpi\n      0x0100\n      dup1\n      dup4\n      sload\n      div\n      mul\n      dup4\n      mstore\n      swap2\n      0x20\n      add\n      swap2\n      jump(tag_379)\n    tag_380:\n      dup3\n      add\n      swap2\n      swap1\n      0x00\n      mstore\n      keccak256(0x00, 0x20)\n      swap1\n    tag_381:\n      dup2\n      sload\n      dup2\n      mstore\n      swap1\n      0x01\n      add\n      swap1\n      0x20\n      add\n      dup1\n      dup4\n      gt\n      tag_381\n      jumpi\n      dup3\n      swap1\n      sub\n      0x1f\n      and\n      dup3\n      add\n      swap2\n    tag_379:\n      pop\n      pop\n      pop\n      0x04\n      dup5\n      add\n      sload\n      0x05\n      dup6\n      add\n      sload\n      0x07\n      dup7\n      add\n      sload\n      0x40\n      dup1\n      mload\n      0x60\n      dup2\n      add\n      dup3\n      mstore\n      0x08\n      dup10\n      add\n      dup1\n      sload\n      0xff\n      dup1\n      dup3\n      and\n      iszero\n      iszero\n      dup5\n      mstore\n      0x0100\n      dup3\n      div\n      dup2\n      and\n      iszero\n      iszero\n      0x20\n      dup6\n      add\n      mstore\n      swap10\n      swap11\n      swap7\n      swap10\n      swap6\n      swap9\n      pop\n      swap4\n      swap7\n      pop\n      swap1\n      swap4\n      swap1\n      swap3\n      swap2\n      dup5\n      add\n      swap2\n      0x010000\n      swap1\n      div\n      and\n      0x03\n      dup2\n      gt\n      iszero\n      tag_383\n      jumpi\n      tag_383\n      tag_85\n      jump\t// in\n    tag_383:\n      0x03\n      dup2\n      gt\n      iszero\n      tag_385\n      jumpi\n      tag_385\n      tag_85\n      jump\t// in\n    tag_385:\n      swap1\n      mstore\n      pop\n      0x09\n      dup3\n      add\n      sload\n      0x0a\n      swap1\n      swap3\n      add\n      sload\n      swap1\n      swap2\n      swap1\n      0xff\n      and\n      dup11\n      jump\t// out\n        /* \"Polls.sol\":9444:9717  function getPoll(uint256 _pollId) internal view returns (Poll storage) {... */\n    tag_62:\n        /* \"Polls.sol\":9501:9513  Poll storage */\n      0x00\n        /* \"Polls.sol\":9541:9553  polls.length */\n      dup1\n      sload\n        /* \"Polls.sol\":9530:9553  _pollId >= polls.length */\n      dup3\n      lt\n        /* \"Polls.sol\":9526:9583  if (_pollId >= polls.length) revert PollNotFound(_pollId) */\n      tag_387\n      jumpi\n        /* \"Polls.sol\":9562:9583  PollNotFound(_pollId) */\n      mload(0x40)\n      shl(0xe2, 0x02708a4d)\n      dup2\n      mstore\n      0x04\n      dup2\n      add\n        /* \"#utility.yul\":2357:2382   */\n      dup4\n      swap1\n      mstore\n        /* \"#utility.yul\":2330:2348   */\n      0x24\n      add\n        /* \"Polls.sol\":9562:9583  PollNotFound(_pollId) */\n    tag_388:\n      mload(0x40)\n      dup1\n      swap2\n      sub\n      swap1\n      revert\n        /* \"Polls.sol\":9526:9583  if (_pollId >= polls.length) revert PollNotFound(_pollId) */\n    tag_387:\n        /* \"Polls.sol\":9594:9611  Poll storage poll */\n      0x00\n        /* \"Polls.sol\":9614:9619  polls */\n      dup1\n        /* \"Polls.sol\":9620:9627  _pollId */\n      dup4\n        /* \"Polls.sol\":9614:9628  polls[_pollId] */\n      dup2\n      sload\n      dup2\n      lt\n      tag_390\n      jumpi\n      tag_390\n      tag_227\n      jump\t// in\n    tag_390:\n      0x00\n      swap2\n      dup3\n      mstore\n      0x20\n      swap1\n      swap2\n      keccak256\n      0x0b\n      swap1\n      swap2\n      mul\n      add\n        /* \"Polls.sol\":9643:9657  poll.isDeleted */\n      0x0a\n      dup2\n      add\n      sload\n        /* \"Polls.sol\":9614:9628  polls[_pollId] */\n      swap1\n      swap2\n      pop\n        /* \"Polls.sol\":9643:9657  poll.isDeleted */\n      0xff\n      and\n        /* \"Polls.sol\":9639:9687  if (poll.isDeleted) revert PollNotFound(_pollId) */\n      iszero\n      tag_60\n      jumpi\n        /* \"Polls.sol\":9666:9687  PollNotFound(_pollId) */\n      mload(0x40)\n      shl(0xe2, 0x02708a4d)\n      dup2\n      mstore\n      0x04\n      dup2\n      add\n        /* \"#utility.yul\":2357:2382   */\n      dup5\n      swap1\n      mstore\n        /* \"#utility.yul\":2330:2348   */\n      0x24\n      add\n        /* \"Polls.sol\":9666:9687  PollNotFound(_pollId) */\n      tag_388\n        /* \"#utility.yul\":2211:2388   */\n      jump\n        /* \"Polls.sol\":6357:7057  function shouldShowResults(... */\n    tag_88:\n        /* \"Polls.sol\":6467:6471  bool */\n      0x00\n        /* \"Polls.sol\":6523:6549  PollResultVisibility.Never */\n      0x03\n        /* \"Polls.sol\":6488:6493  _poll */\n      dup4\n        /* \"Polls.sol\":6488:6502  _poll.settings */\n      0x0100\n      add\n      mload\n        /* \"Polls.sol\":6488:6519  _poll.settings.resultVisibility */\n      0x40\n      add\n      mload\n        /* \"Polls.sol\":6488:6549  _poll.settings.resultVisibility == PollResultVisibility.Never */\n      0x03\n      dup2\n      gt\n      iszero\n      tag_398\n      jumpi\n      tag_398\n      tag_85\n      jump\t// in\n    tag_398:\n      sub\n        /* \"Polls.sol\":6484:6590  if (_poll.settings.resultVisibility == PollResultVisibility.Never) {... */\n      tag_399\n      jumpi\n      pop\n        /* \"Polls.sol\":6573:6578  false */\n      0x00\n        /* \"Polls.sol\":6566:6578  return false */\n      jump(tag_60)\n        /* \"Polls.sol\":6484:6590  if (_poll.settings.resultVisibility == PollResultVisibility.Never) {... */\n    tag_399:\n        /* \"Polls.sol\":6653:6683  PollResultVisibility.AfterVote */\n      0x01\n        /* \"Polls.sol\":6618:6623  _poll */\n      dup4\n        /* \"Polls.sol\":6618:6632  _poll.settings */\n      0x0100\n      add\n      mload\n        /* \"Polls.sol\":6618:6649  _poll.settings.resultVisibility */\n      0x40\n      add\n      mload\n        /* \"Polls.sol\":6618:6683  _poll.settings.resultVisibility == PollResultVisibility.AfterVote */\n      0x03\n      dup2\n      gt\n      iszero\n      tag_403\n      jumpi\n      tag_403\n      tag_85\n      jump\t// in\n    tag_403:\n      eq\n        /* \"Polls.sol\":6618:6727  _poll.settings.resultVisibility == PollResultVisibility.AfterVote &&... */\n      dup1\n      iszero\n      tag_404\n      jumpi\n      pop\n        /* \"Polls.sol\":6710:6718  _poll.id */\n      0x20\n      dup1\n      dup5\n      add\n      mload\n        /* \"Polls.sol\":6701:6719  hasVoted[_poll.id] */\n      0x00\n      swap1\n      dup2\n      mstore\n        /* \"Polls.sol\":6701:6709  hasVoted */\n      0x02\n        /* \"Polls.sol\":6701:6719  hasVoted[_poll.id] */\n      dup3\n      mstore\n      0x40\n      dup1\n      dup3\n      keccak256\n      sub(shl(0xa0, 0x01), 0x01)\n        /* \"Polls.sol\":6701:6727  hasVoted[_poll.id][_voter] */\n      dup7\n      and\n      dup4\n      mstore\n      swap1\n      swap3\n      mstore\n      keccak256\n      sload\n      0xff\n      and\n        /* \"Polls.sol\":6700:6727  !hasVoted[_poll.id][_voter] */\n      iszero\n        /* \"Polls.sol\":6618:6727  _poll.settings.resultVisibility == PollResultVisibility.AfterVote &&... */\n    tag_404:\n        /* \"Polls.sol\":6600:6778  if (... */\n      iszero\n      tag_405\n      jumpi\n      pop\n        /* \"Polls.sol\":6761:6766  false */\n      0x00\n        /* \"Polls.sol\":6754:6766  return false */\n      jump(tag_60)\n        /* \"Polls.sol\":6600:6778  if (... */\n    tag_405:\n        /* \"Polls.sol\":6841:6870  PollResultVisibility.AfterEnd */\n      0x02\n        /* \"Polls.sol\":6806:6811  _poll */\n      dup4\n        /* \"Polls.sol\":6806:6820  _poll.settings */\n      0x0100\n      add\n      mload\n        /* \"Polls.sol\":6806:6837  _poll.settings.resultVisibility */\n      0x40\n      add\n      mload\n        /* \"Polls.sol\":6806:6870  _poll.settings.resultVisibility == PollResultVisibility.AfterEnd */\n      0x03\n      dup2\n      gt\n      iszero\n      tag_409\n      jumpi\n      tag_409\n      tag_85\n      jump\t// in\n    tag_409:\n      eq\n        /* \"Polls.sol\":6806:6923  _poll.settings.resultVisibility == PollResultVisibility.AfterEnd &&... */\n      dup1\n      iszero\n      tag_410\n      jumpi\n      pop\n        /* \"Polls.sol\":6907:6923  PollStatus.Ended */\n      0x02\n        /* \"Polls.sol\":6887:6903  getStatus(_poll) */\n      tag_413\n        /* \"Polls.sol\":6897:6902  _poll */\n      dup5\n        /* \"Polls.sol\":6887:6896  getStatus */\n      tag_161\n        /* \"Polls.sol\":6887:6903  getStatus(_poll) */\n      jump\t// in\n    tag_413:\n        /* \"Polls.sol\":6887:6923  getStatus(_poll) != PollStatus.Ended */\n      0x03\n      dup2\n      gt\n      iszero\n      tag_415\n      jumpi\n      tag_415\n      tag_85\n      jump\t// in\n    tag_415:\n      eq\n      iszero\n        /* \"Polls.sol\":6806:6923  _poll.settings.resultVisibility == PollResultVisibility.AfterEnd &&... */\n    tag_410:\n        /* \"Polls.sol\":6806:6977  _poll.settings.resultVisibility == PollResultVisibility.AfterEnd &&... */\n      dup1\n      iszero\n      tag_416\n      jumpi\n      pop\n        /* \"Polls.sol\":6960:6977  PollStatus.Closed */\n      0x03\n        /* \"Polls.sol\":6940:6956  getStatus(_poll) */\n      tag_419\n        /* \"Polls.sol\":6950:6955  _poll */\n      dup5\n        /* \"Polls.sol\":6940:6949  getStatus */\n      tag_161\n        /* \"Polls.sol\":6940:6956  getStatus(_poll) */\n      jump\t// in\n    tag_419:\n        /* \"Polls.sol\":6940:6977  getStatus(_poll) != PollStatus.Closed */\n      0x03\n      dup2\n      gt\n      iszero\n      tag_421\n      jumpi\n      tag_421\n      tag_85\n      jump\t// in\n    tag_421:\n      eq\n      iszero\n        /* \"Polls.sol\":6806:6977  _poll.settings.resultVisibility == PollResultVisibility.AfterEnd &&... */\n    tag_416:\n        /* \"Polls.sol\":6788:7028  if (... */\n      iszero\n      tag_422\n      jumpi\n      pop\n        /* \"Polls.sol\":7011:7016  false */\n      0x00\n        /* \"Polls.sol\":7004:7016  return false */\n      jump(tag_60)\n        /* \"Polls.sol\":6788:7028  if (... */\n    tag_422:\n      pop\n        /* \"Polls.sol\":7045:7049  true */\n      0x01\n        /* \"Polls.sol\":6357:7057  function shouldShowResults(... */\n      swap3\n      swap2\n      pop\n      pop\n      jump\t// out\n        /* \"Polls.sol\":8979:9436  function getOptionsResult(... */\n    tag_113:\n        /* \"Polls.sol\":9111:9124  _poll.options */\n      0xc0\n      dup2\n      add\n      mload\n        /* \"Polls.sol\":9111:9131  _poll.options.length */\n      mload\n        /* \"Polls.sol\":9063:9084  OptionResult[] memory */\n      0x60\n      swap1\n        /* \"Polls.sol\":9097:9108  uint256 len */\n      0x00\n        /* \"Polls.sol\":9111:9131  _poll.options.length */\n      dup2\n        /* \"Polls.sol\":9174:9197  new OptionResult[](len) */\n      0xffffffffffffffff\n      dup2\n      gt\n      iszero\n      tag_425\n      jumpi\n      tag_425\n      tag_292\n      jump\t// in\n    tag_425:\n      mload(0x40)\n      swap1\n      dup1\n      dup3\n      mstore\n      dup1\n      0x20\n      mul\n      0x20\n      add\n      dup3\n      add\n      0x40\n      mstore\n      dup1\n      iszero\n      tag_426\n      jumpi\n      dup2\n      0x20\n      add\n    tag_427:\n      0x40\n      dup1\n      mload\n      dup1\n      dup3\n      add\n      swap1\n      swap2\n      mstore\n      0x60\n      dup2\n      mstore\n      0x00\n      0x20\n      dup3\n      add\n      mstore\n      dup2\n      mstore\n      0x20\n      add\n      swap1\n      0x01\n      swap1\n      sub\n      swap1\n      dup2\n      tag_427\n      jumpi\n      swap1\n      pop\n    tag_426:\n      pop\n        /* \"Polls.sol\":9142:9197  OptionResult[] memory results = new OptionResult[](len) */\n      swap1\n      pop\n        /* \"Polls.sol\":9215:9224  uint256 i */\n      0x00\n        /* \"Polls.sol\":9210:9404  for (uint256 i = 0; i < len; i++) {... */\n    tag_430:\n        /* \"Polls.sol\":9234:9237  len */\n      dup3\n        /* \"Polls.sol\":9230:9231  i */\n      dup2\n        /* \"Polls.sol\":9230:9237  i < len */\n      lt\n        /* \"Polls.sol\":9210:9404  for (uint256 i = 0; i < len; i++) {... */\n      iszero\n      tag_431\n      jumpi\n        /* \"Polls.sol\":9272:9392  OptionResult({... */\n      mload(0x40)\n      dup1\n      0x40\n      add\n      0x40\n      mstore\n      dup1\n        /* \"Polls.sol\":9310:9315  _poll */\n      dup7\n        /* \"Polls.sol\":9310:9323  _poll.options */\n      0xc0\n      add\n      mload\n        /* \"Polls.sol\":9324:9325  i */\n      dup4\n        /* \"Polls.sol\":9310:9326  _poll.options[i] */\n      dup2\n      mload\n      dup2\n      lt\n      tag_434\n      jumpi\n      tag_434\n      tag_227\n      jump\t// in\n    tag_434:\n      0x20\n      swap1\n      dup2\n      mul\n      swap2\n      swap1\n      swap2\n      add\n      dup2\n      add\n      mload\n        /* \"Polls.sol\":9272:9392  OptionResult({... */\n      dup3\n      mstore\n        /* \"Polls.sol\":9364:9372  _poll.id */\n      dup8\n      dup2\n      add\n      mload\n        /* \"Polls.sol\":9352:9373  optionVotes[_poll.id] */\n      0x00\n      swap1\n      dup2\n      mstore\n        /* \"Polls.sol\":9352:9363  optionVotes */\n      0x04\n        /* \"Polls.sol\":9352:9373  optionVotes[_poll.id] */\n      dup3\n      mstore\n      0x40\n      dup1\n      dup3\n      keccak256\n        /* \"Polls.sol\":9352:9376  optionVotes[_poll.id][i] */\n      dup7\n      dup4\n      mstore\n      dup4\n      mstore\n      swap1\n      keccak256\n      sload\n        /* \"Polls.sol\":9272:9392  OptionResult({... */\n      swap2\n      add\n      mstore\n        /* \"Polls.sol\":9259:9269  results[i] */\n      dup3\n      mload\n        /* \"Polls.sol\":9259:9266  results */\n      dup4\n      swap1\n        /* \"Polls.sol\":9374:9375  i */\n      dup4\n      swap1\n        /* \"Polls.sol\":9259:9269  results[i] */\n      dup2\n      lt\n      tag_436\n      jumpi\n      tag_436\n      tag_227\n      jump\t// in\n    tag_436:\n      0x20\n      swap1\n      dup2\n      mul\n      swap2\n      swap1\n      swap2\n      add\n      add\n        /* \"Polls.sol\":9259:9392  results[i] = OptionResult({... */\n      mstore\n        /* \"Polls.sol\":9239:9242  i++ */\n      0x01\n      add\n        /* \"Polls.sol\":9210:9404  for (uint256 i = 0; i < len; i++) {... */\n      jump(tag_430)\n    tag_431:\n      pop\n        /* \"Polls.sol\":9421:9428  results */\n      swap4\n        /* \"Polls.sol\":8979:9436  function getOptionsResult(... */\n      swap3\n      pop\n      pop\n      pop\n      jump\t// out\n        /* \"Polls.sol\":9725:10147  function getStatus(Poll memory _poll) internal view returns (PollStatus) {... */\n    tag_161:\n        /* \"Polls.sol\":9786:9796  PollStatus */\n      0x00\n        /* \"Polls.sol\":9830:9845  block.timestamp */\n      timestamp\n        /* \"Polls.sol\":9813:9818  _poll */\n      dup3\n        /* \"Polls.sol\":9813:9827  _poll.startsAt */\n      0x80\n      add\n      mload\n        /* \"Polls.sol\":9813:9845  _poll.startsAt > block.timestamp */\n      gt\n        /* \"Polls.sol\":9809:9900  if (_poll.startsAt > block.timestamp) {... */\n      iszero\n      tag_438\n      jumpi\n      pop\n        /* \"Polls.sol\":9869:9888  PollStatus.Upcoming */\n      0x00\n      swap2\n        /* \"Polls.sol\":9725:10147  function getStatus(Poll memory _poll) internal view returns (PollStatus) {... */\n      swap1\n      pop\n      jump\t// out\n        /* \"Polls.sol\":9809:9900  if (_poll.startsAt > block.timestamp) {... */\n    tag_438:\n        /* \"Polls.sol\":9916:9921  _poll */\n      dup2\n        /* \"Polls.sol\":9916:9928  _poll.endsAt */\n      0xa0\n      add\n      mload\n        /* \"Polls.sol\":9932:9933  1 */\n      0x01\n        /* \"Polls.sol\":9916:9933  _poll.endsAt == 1 */\n      sub\n        /* \"Polls.sol\":9912:9986  if (_poll.endsAt == 1) {... */\n      tag_439\n      jumpi\n      pop\n        /* \"Polls.sol\":9957:9974  PollStatus.Closed */\n      0x03\n      swap2\n        /* \"Polls.sol\":9725:10147  function getStatus(Poll memory _poll) internal view returns (PollStatus) {... */\n      swap1\n      pop\n      jump\t// out\n        /* \"Polls.sol\":9912:9986  if (_poll.endsAt == 1) {... */\n    tag_439:\n        /* \"Polls.sol\":10017:10018  1 */\n      0x01\n        /* \"Polls.sol\":10002:10007  _poll */\n      dup3\n        /* \"Polls.sol\":10002:10014  _poll.endsAt */\n      0xa0\n      add\n      mload\n        /* \"Polls.sol\":10002:10018  _poll.endsAt > 1 */\n      gt\n        /* \"Polls.sol\":10002:10053  _poll.endsAt > 1 && _poll.endsAt <= block.timestamp */\n      dup1\n      iszero\n      tag_440\n      jumpi\n      pop\n        /* \"Polls.sol\":10038:10053  block.timestamp */\n      timestamp\n        /* \"Polls.sol\":10022:10027  _poll */\n      dup3\n        /* \"Polls.sol\":10022:10034  _poll.endsAt */\n      0xa0\n      add\n      mload\n        /* \"Polls.sol\":10022:10053  _poll.endsAt <= block.timestamp */\n      gt\n      iszero\n        /* \"Polls.sol\":10002:10053  _poll.endsAt > 1 && _poll.endsAt <= block.timestamp */\n    tag_440:\n        /* \"Polls.sol\":9998:10105  if (_poll.endsAt > 1 && _poll.endsAt <= block.timestamp) {... */\n      iszero\n      tag_441\n      jumpi\n      pop\n        /* \"Polls.sol\":10077:10093  PollStatus.Ended */\n      0x02\n      swap2\n        /* \"Polls.sol\":9725:10147  function getStatus(Poll memory _poll) internal view returns (PollStatus) {... */\n      swap1\n      pop\n      jump\t// out\n        /* \"Polls.sol\":9998:10105  if (_poll.endsAt > 1 && _poll.endsAt <= block.timestamp) {... */\n    tag_441:\n      pop\n        /* \"Polls.sol\":10124:10139  PollStatus.Open */\n      0x01\n      swap2\n        /* \"Polls.sol\":9725:10147  function getStatus(Poll memory _poll) internal view returns (PollStatus) {... */\n      swap1\n      pop\n      jump\t// out\n        /* \"Polls.sol\":10155:10372  function validateTitle(string calldata _title) internal pure {... */\n    tag_203:\n        /* \"Polls.sol\":10250:10256  _title */\n      dup1\n        /* \"Polls.sol\":10288:10289  3 */\n      0x03\n        /* \"Polls.sol\":10279:10289  length < 3 */\n      dup2\n      lt\n        /* \"Polls.sol\":10275:10313  if (length < 3) revert TitleTooShort() */\n      iszero\n      tag_443\n      jumpi\n        /* \"Polls.sol\":10298:10313  TitleTooShort() */\n      mload(0x40)\n      shl(0xe0, 0x24ace355)\n      dup2\n      mstore\n      0x04\n      add\n      mload(0x40)\n      dup1\n      swap2\n      sub\n      swap1\n      revert\n        /* \"Polls.sol\":10275:10313  if (length < 3) revert TitleTooShort() */\n    tag_443:\n        /* \"Polls.sol\":10337:10340  100 */\n      0x64\n        /* \"Polls.sol\":10328:10334  length */\n      dup2\n        /* \"Polls.sol\":10328:10340  length > 100 */\n      gt\n        /* \"Polls.sol\":10324:10364  if (length > 100) revert TitleTooLarge() */\n      iszero\n      tag_444\n      jumpi\n        /* \"Polls.sol\":10349:10364  TitleTooLarge() */\n      mload(0x40)\n      shl(0xe2, 0x2b5df40f)\n      dup2\n      mstore\n      0x04\n      add\n      mload(0x40)\n      dup1\n      swap2\n      sub\n      swap1\n      revert\n        /* \"Polls.sol\":10324:10364  if (length > 100) revert TitleTooLarge() */\n    tag_444:\n        /* \"Polls.sol\":10216:10372  {... */\n      pop\n        /* \"Polls.sol\":10155:10372  function validateTitle(string calldata _title) internal pure {... */\n      pop\n      pop\n      jump\t// out\n        /* \"Polls.sol\":10380:10622  function validateDesc(string calldata _desc) internal pure {... */\n    tag_205:\n        /* \"Polls.sol\":10473:10478  _desc */\n      dup1\n        /* \"Polls.sol\":10501:10511  length > 0 */\n      dup1\n      iszero\n      dup1\n      iszero\n      swap1\n        /* \"Polls.sol\":10501:10526  length > 0 && length < 10 */\n      tag_446\n      jumpi\n      pop\n        /* \"Polls.sol\":10524:10526  10 */\n      0x0a\n        /* \"Polls.sol\":10515:10521  length */\n      dup2\n        /* \"Polls.sol\":10515:10526  length < 10 */\n      lt\n        /* \"Polls.sol\":10501:10526  length > 0 && length < 10 */\n    tag_446:\n        /* \"Polls.sol\":10497:10556  if (length > 0 && length < 10) revert DescriptionTooShort() */\n      iszero\n      tag_447\n      jumpi\n        /* \"Polls.sol\":10535:10556  DescriptionTooShort() */\n      mload(0x40)\n      shl(0xe2, 0x1b0bf735)\n      dup2\n      mstore\n      0x04\n      add\n      mload(0x40)\n      dup1\n      swap2\n      sub\n      swap1\n      revert\n        /* \"Polls.sol\":10497:10556  if (length > 0 && length < 10) revert DescriptionTooShort() */\n    tag_447:\n        /* \"Polls.sol\":10580:10584  1000 */\n      0x03e8\n        /* \"Polls.sol\":10571:10577  length */\n      dup2\n        /* \"Polls.sol\":10571:10584  length > 1000 */\n      gt\n        /* \"Polls.sol\":10567:10614  if (length > 1000) revert DescriptionTooLarge() */\n      iszero\n      tag_444\n      jumpi\n        /* \"Polls.sol\":10593:10614  DescriptionTooLarge() */\n      mload(0x40)\n      shl(0xe0, 0x1b0fce83)\n      dup2\n      mstore\n      0x04\n      add\n      mload(0x40)\n      dup1\n      swap2\n      sub\n      swap1\n      revert\n        /* \"Polls.sol\":10630:10855  function validateTimes(uint256 _startsAt, uint256 _endsAt) internal view {... */\n    tag_207:\n        /* \"Polls.sol\":10730:10745  block.timestamp */\n      timestamp\n        /* \"Polls.sol\":10718:10727  _startsAt */\n      dup3\n        /* \"Polls.sol\":10718:10745  _startsAt < block.timestamp */\n      lt\n        /* \"Polls.sol\":10714:10780  if (_startsAt < block.timestamp) revert PollMustStartInTheFuture() */\n      iszero\n      tag_450\n      jumpi\n        /* \"Polls.sol\":10754:10780  PollMustStartInTheFuture() */\n      mload(0x40)\n      shl(0xe0, 0x3eb2d8c5)\n      dup2\n      mstore\n      0x04\n      add\n      mload(0x40)\n      dup1\n      swap2\n      sub\n      swap1\n      revert\n        /* \"Polls.sol\":10714:10780  if (_startsAt < block.timestamp) revert PollMustStartInTheFuture() */\n    tag_450:\n        /* \"Polls.sol\":10806:10815  _startsAt */\n      dup2\n        /* \"Polls.sol\":10795:10802  _endsAt */\n      dup2\n        /* \"Polls.sol\":10795:10815  _endsAt <= _startsAt */\n      gt\n        /* \"Polls.sol\":10791:10847  if (_endsAt <= _startsAt) revert PollMustEndAfterStart() */\n      tag_451\n      jumpi\n        /* \"Polls.sol\":10824:10847  PollMustEndAfterStart() */\n      mload(0x40)\n      shl(0xe1, 0x71f32861)\n      dup2\n      mstore\n      0x04\n      add\n      mload(0x40)\n      dup1\n      swap2\n      sub\n      swap1\n      revert\n        /* \"Polls.sol\":10791:10847  if (_endsAt <= _startsAt) revert PollMustEndAfterStart() */\n    tag_451:\n        /* \"Polls.sol\":10630:10855  function validateTimes(uint256 _startsAt, uint256 _endsAt) internal view {... */\n      pop\n      pop\n      jump\t// out\n        /* \"Polls.sol\":10863:11387  function validateOptions(string[] calldata _options) internal pure {... */\n    tag_209:\n        /* \"Polls.sol\":10965:10973  _options */\n      dup1\n        /* \"Polls.sol\":11011:11012  2 */\n      0x02\n        /* \"Polls.sol\":10995:11012  optionsLength < 2 */\n      dup2\n      lt\n        /* \"Polls.sol\":10991:11052  if (optionsLength < 2) revert PollMustHaveAtLeastTwoOptions() */\n      iszero\n      tag_453\n      jumpi\n        /* \"Polls.sol\":11021:11052  PollMustHaveAtLeastTwoOptions() */\n      mload(0x40)\n      shl(0xe0, 0x8ee5f57d)\n      dup2\n      mstore\n      0x04\n      add\n      mload(0x40)\n      dup1\n      swap2\n      sub\n      swap1\n      revert\n        /* \"Polls.sol\":10991:11052  if (optionsLength < 2) revert PollMustHaveAtLeastTwoOptions() */\n    tag_453:\n        /* \"Polls.sol\":11083:11085  10 */\n      0x0a\n        /* \"Polls.sol\":11067:11080  optionsLength */\n      dup2\n        /* \"Polls.sol\":11067:11085  optionsLength > 10 */\n      gt\n        /* \"Polls.sol\":11063:11124  if (optionsLength > 10) revert PollMustHaveAtMostTenOptions() */\n      iszero\n      tag_454\n      jumpi\n        /* \"Polls.sol\":11094:11124  PollMustHaveAtMostTenOptions() */\n      mload(0x40)\n      shl(0xe1, 0x701d39f1)\n      dup2\n      mstore\n      0x04\n      add\n      mload(0x40)\n      dup1\n      swap2\n      sub\n      swap1\n      revert\n        /* \"Polls.sol\":11063:11124  if (optionsLength > 10) revert PollMustHaveAtMostTenOptions() */\n    tag_454:\n        /* \"Polls.sol\":11142:11151  uint256 i */\n      0x00\n        /* \"Polls.sol\":11137:11380  for (uint256 i = 0; i < optionsLength; ++i) {... */\n    tag_455:\n        /* \"Polls.sol\":11161:11174  optionsLength */\n      dup2\n        /* \"Polls.sol\":11157:11158  i */\n      dup2\n        /* \"Polls.sol\":11157:11174  i < optionsLength */\n      lt\n        /* \"Polls.sol\":11137:11380  for (uint256 i = 0; i < optionsLength; ++i) {... */\n      iszero\n      tag_456\n      jumpi\n        /* \"Polls.sol\":11196:11216  uint256 optionLength */\n      0x00\n        /* \"Polls.sol\":11225:11233  _options */\n      dup5\n      dup5\n        /* \"Polls.sol\":11234:11235  i */\n      dup4\n        /* \"Polls.sol\":11225:11236  _options[i] */\n      dup2\n      dup2\n      lt\n      tag_459\n      jumpi\n      tag_459\n      tag_227\n      jump\t// in\n    tag_459:\n      swap1\n      pop\n      0x20\n      mul\n      dup2\n      add\n      swap1\n      tag_460\n      swap2\n      swap1\n      tag_229\n      jump\t// in\n    tag_460:\n        /* \"Polls.sol\":11219:11244  bytes(_options[i]).length */\n      swap2\n      pop\n      pop\n        /* \"Polls.sol\":11278:11279  1 */\n      0x01\n        /* \"Polls.sol\":11263:11279  optionLength < 1 */\n      dup2\n      lt\n        /* \"Polls.sol\":11259:11305  if (optionLength < 1) revert OptionTooShort(i) */\n      iszero\n      tag_461\n      jumpi\n        /* \"Polls.sol\":11288:11305  OptionTooShort(i) */\n      mload(0x40)\n      shl(0xe1, 0x23bae5c5)\n      dup2\n      mstore\n      0x04\n      dup2\n      add\n        /* \"#utility.yul\":2357:2382   */\n      dup4\n      swap1\n      mstore\n        /* \"#utility.yul\":2330:2348   */\n      0x24\n      add\n        /* \"Polls.sol\":11288:11305  OptionTooShort(i) */\n      tag_388\n        /* \"#utility.yul\":2211:2388   */\n      jump\n        /* \"Polls.sol\":11259:11305  if (optionLength < 1) revert OptionTooShort(i) */\n    tag_461:\n        /* \"Polls.sol\":11339:11342  100 */\n      0x64\n        /* \"Polls.sol\":11324:11336  optionLength */\n      dup2\n        /* \"Polls.sol\":11324:11342  optionLength > 100 */\n      gt\n        /* \"Polls.sol\":11320:11368  if (optionLength > 100) revert OptionTooLarge(i) */\n      iszero\n      tag_463\n      jumpi\n        /* \"Polls.sol\":11351:11368  OptionTooLarge(i) */\n      mload(0x40)\n      shl(0xe2, 0x1e8a1825)\n      dup2\n      mstore\n      0x04\n      dup2\n      add\n        /* \"#utility.yul\":2357:2382   */\n      dup4\n      swap1\n      mstore\n        /* \"#utility.yul\":2330:2348   */\n      0x24\n      add\n        /* \"Polls.sol\":11351:11368  OptionTooLarge(i) */\n      tag_388\n        /* \"#utility.yul\":2211:2388   */\n      jump\n        /* \"Polls.sol\":11320:11368  if (optionLength > 100) revert OptionTooLarge(i) */\n    tag_463:\n      pop\n        /* \"Polls.sol\":11176:11179  ++i */\n      0x01\n      add\n        /* \"Polls.sol\":11137:11380  for (uint256 i = 0; i < optionsLength; ++i) {... */\n      jump(tag_455)\n    tag_456:\n      pop\n        /* \"Polls.sol\":10930:11387  {... */\n      pop\n        /* \"Polls.sol\":10863:11387  function validateOptions(string[] calldata _options) internal pure {... */\n      pop\n      pop\n      jump\t// out\n        /* \"Polls.sol\":11395:11682  function validateSettings(PollSettings calldata _settings) internal pure {... */\n    tag_211:\n        /* \"Polls.sol\":11497:11517  _settings.noDeadline */\n      tag_466\n      0x40\n      dup3\n      add\n      0x20\n      dup4\n      add\n      tag_217\n      jump\t// in\n    tag_466:\n        /* \"Polls.sol\":11497:11593  _settings.noDeadline &&... */\n      dup1\n      iszero\n      tag_467\n      jumpi\n      pop\n        /* \"Polls.sol\":11564:11593  PollResultVisibility.AfterEnd */\n      0x02\n        /* \"Polls.sol\":11534:11560  _settings.resultVisibility */\n      tag_470\n      0x60\n      dup4\n      add\n      0x40\n      dup5\n      add\n      tag_471\n      jump\t// in\n    tag_470:\n        /* \"Polls.sol\":11534:11593  _settings.resultVisibility == PollResultVisibility.AfterEnd */\n      0x03\n      dup2\n      gt\n      iszero\n      tag_473\n      jumpi\n      tag_473\n      tag_85\n      jump\t// in\n    tag_473:\n      eq\n        /* \"Polls.sol\":11497:11593  _settings.noDeadline &&... */\n    tag_467:\n        /* \"Polls.sol\":11479:11675  if (... */\n      iszero\n      tag_474\n      jumpi\n        /* \"Polls.sol\":11627:11663  PollResultVisibilitySettingInvalid() */\n      mload(0x40)\n      shl(0xe0, 0xdc2ca701)\n      dup2\n      mstore\n      0x04\n      add\n      mload(0x40)\n      dup1\n      swap2\n      sub\n      swap1\n      revert\n        /* \"Polls.sol\":11479:11675  if (... */\n    tag_474:\n        /* \"Polls.sol\":11395:11682  function validateSettings(PollSettings calldata _settings) internal pure {... */\n      pop\n      jump\t// out\n    tag_117:\n      mload(0x40)\n      dup1\n      0x0180\n      add\n      0x40\n      mstore\n      dup1\n      and(sub(shl(0xa0, 0x01), 0x01), 0x00)\n      dup2\n      mstore\n      0x20\n      add\n      0x60\n      dup2\n      mstore\n      0x20\n      add\n      0x60\n      dup2\n      mstore\n      0x20\n      add\n      0x00\n      dup2\n      mstore\n      0x20\n      add\n      0x00\n      dup2\n      mstore\n      0x20\n      add\n      0x60\n      dup2\n      mstore\n      0x20\n      add\n      0x00\n      dup2\n      mstore\n      0x20\n      add\n      0x00\n      0x03\n      dup2\n      gt\n      iszero\n      tag_476\n      jumpi\n      tag_476\n      tag_85\n      jump\t// in\n    tag_476:\n      dup2\n      mstore\n      0x20\n      add\n      tag_477\n      0x40\n      dup1\n      mload\n      0x60\n      dup2\n      add\n      dup3\n      mstore\n      0x00\n      dup1\n      dup3\n      mstore\n      0x20\n      dup3\n      add\n      dup2\n      swap1\n      mstore\n      swap1\n      swap2\n      dup3\n      add\n      mstore\n      swap1\n      jump\n    tag_477:\n      dup2\n      mstore\n      0x20\n      add\n      iszero(iszero(0x00))\n      dup2\n      mstore\n      0x20\n      add\n      0x60\n      dup2\n      mstore\n      0x20\n      add\n      0x00\n      dup2\n      mstore\n      pop\n      swap1\n      jump\t// out\n    tag_286:\n      dup3\n      dup1\n      sload\n      dup3\n      dup3\n      sstore\n      swap1\n      0x00\n      mstore\n      keccak256(0x00, 0x20)\n      swap1\n      dup2\n      add\n      swap3\n      dup3\n      iszero\n      tag_481\n      jumpi\n      swap2\n      0x20\n      mul\n      dup3\n      add\n    tag_480:\n      dup3\n      dup2\n      gt\n      iszero\n      tag_481\n      jumpi\n      dup3\n      calldataload\n      dup3\n      sstore\n      swap2\n      0x20\n      add\n      swap2\n      swap1\n      0x01\n      add\n      swap1\n      jump(tag_480)\n    tag_481:\n      pop\n      tag_482\n      swap3\n      swap2\n      pop\n      tag_483\n      jump\t// in\n    tag_482:\n      pop\n      swap1\n      jump\t// out\n    tag_296:\n      mload(0x40)\n      dup1\n      0x0100\n      add\n      0x40\n      mstore\n      dup1\n      and(sub(shl(0xa0, 0x01), 0x01), 0x00)\n      dup2\n      mstore\n      0x20\n      add\n      0x00\n      dup2\n      mstore\n      0x20\n      add\n      0x60\n      dup2\n      mstore\n      0x20\n      add\n      0x00\n      dup2\n      mstore\n      0x20\n      add\n      0x00\n      0x03\n      dup2\n      gt\n      iszero\n      tag_485\n      jumpi\n      tag_485\n      tag_85\n      jump\t// in\n    tag_485:\n      dup2\n      mstore\n      0x20\n      add\n      0x00\n      dup2\n      mstore\n      0x20\n      add\n      0x00\n      dup2\n      mstore\n      0x20\n      add\n      0x00\n      dup2\n      mstore\n      pop\n      swap1\n      jump\t// out\n    tag_483:\n    tag_488:\n      dup1\n      dup3\n      gt\n      iszero\n      tag_482\n      jumpi\n      0x00\n      dup2\n      sstore\n      0x01\n      add\n      jump(tag_488)\n        /* \"#utility.yul\":14:210   */\n    tag_490:\n        /* \"#utility.yul\":82:102   */\n      dup1\n      calldataload\n      sub(shl(0xa0, 0x01), 0x01)\n        /* \"#utility.yul\":131:185   */\n      dup2\n      and\n        /* \"#utility.yul\":121:186   */\n      dup2\n      eq\n        /* \"#utility.yul\":111:204   */\n      tag_508\n      jumpi\n        /* \"#utility.yul\":200:201   */\n      0x00\n        /* \"#utility.yul\":197:198   */\n      dup1\n        /* \"#utility.yul\":190:202   */\n      revert\n        /* \"#utility.yul\":111:204   */\n    tag_508:\n        /* \"#utility.yul\":14:210   */\n      swap2\n      swap1\n      pop\n      jump\t// out\n        /* \"#utility.yul\":215:469   */\n    tag_16:\n        /* \"#utility.yul\":283:289   */\n      0x00\n        /* \"#utility.yul\":291:297   */\n      dup1\n        /* \"#utility.yul\":344:346   */\n      0x40\n        /* \"#utility.yul\":332:341   */\n      dup4\n        /* \"#utility.yul\":323:330   */\n      dup6\n        /* \"#utility.yul\":319:342   */\n      sub\n        /* \"#utility.yul\":315:347   */\n      slt\n        /* \"#utility.yul\":312:364   */\n      iszero\n      tag_510\n      jumpi\n        /* \"#utility.yul\":360:361   */\n      0x00\n        /* \"#utility.yul\":357:358   */\n      dup1\n        /* \"#utility.yul\":350:362   */\n      revert\n        /* \"#utility.yul\":312:364   */\n    tag_510:\n        /* \"#utility.yul\":396:405   */\n      dup3\n        /* \"#utility.yul\":383:406   */\n      calldataload\n        /* \"#utility.yul\":373:406   */\n      swap2\n      pop\n        /* \"#utility.yul\":425:463   */\n      tag_511\n        /* \"#utility.yul\":459:461   */\n      0x20\n        /* \"#utility.yul\":448:457   */\n      dup5\n        /* \"#utility.yul\":444:462   */\n      add\n        /* \"#utility.yul\":425:463   */\n      tag_490\n      jump\t// in\n    tag_511:\n        /* \"#utility.yul\":415:463   */\n      swap1\n      pop\n        /* \"#utility.yul\":215:469   */\n      swap3\n      pop\n      swap3\n      swap1\n      pop\n      jump\t// out\n        /* \"#utility.yul\":474:763   */\n    tag_491:\n        /* \"#utility.yul\":516:519   */\n      0x00\n        /* \"#utility.yul\":554:559   */\n      dup2\n        /* \"#utility.yul\":548:560   */\n      mload\n        /* \"#utility.yul\":581:587   */\n      dup1\n        /* \"#utility.yul\":576:579   */\n      dup5\n        /* \"#utility.yul\":569:588   */\n      mstore\n        /* \"#utility.yul\":637:643   */\n      dup1\n        /* \"#utility.yul\":630:634   */\n      0x20\n        /* \"#utility.yul\":623:628   */\n      dup5\n        /* \"#utility.yul\":619:635   */\n      add\n        /* \"#utility.yul\":612:616   */\n      0x20\n        /* \"#utility.yul\":607:610   */\n      dup7\n        /* \"#utility.yul\":603:617   */\n      add\n        /* \"#utility.yul\":597:644   */\n      mcopy\n        /* \"#utility.yul\":689:690   */\n      0x00\n        /* \"#utility.yul\":682:686   */\n      0x20\n        /* \"#utility.yul\":673:679   */\n      dup3\n        /* \"#utility.yul\":668:671   */\n      dup7\n        /* \"#utility.yul\":664:680   */\n      add\n        /* \"#utility.yul\":660:687   */\n      add\n        /* \"#utility.yul\":653:691   */\n      mstore\n        /* \"#utility.yul\":752:756   */\n      0x20\n        /* \"#utility.yul\":745:747   */\n      0x1f\n        /* \"#utility.yul\":741:748   */\n      not\n        /* \"#utility.yul\":736:738   */\n      0x1f\n        /* \"#utility.yul\":728:734   */\n      dup4\n        /* \"#utility.yul\":724:739   */\n      add\n        /* \"#utility.yul\":720:749   */\n      and\n        /* \"#utility.yul\":715:718   */\n      dup6\n        /* \"#utility.yul\":711:750   */\n      add\n        /* \"#utility.yul\":707:757   */\n      add\n        /* \"#utility.yul\":700:757   */\n      swap2\n      pop\n      pop\n        /* \"#utility.yul\":474:763   */\n      swap3\n      swap2\n      pop\n      pop\n      jump\t// out\n        /* \"#utility.yul\":768:1947   */\n    tag_19:\n        /* \"#utility.yul\":914:918   */\n      0x00\n        /* \"#utility.yul\":943:945   */\n      0x20\n        /* \"#utility.yul\":972:974   */\n      dup1\n        /* \"#utility.yul\":961:970   */\n      dup4\n        /* \"#utility.yul\":954:975   */\n      mstore\n        /* \"#utility.yul\":1013:1015   */\n      0x60\n        /* \"#utility.yul\":1002:1011   */\n      dup4\n        /* \"#utility.yul\":998:1016   */\n      add\n        /* \"#utility.yul\":1058:1064   */\n      dup5\n        /* \"#utility.yul\":1052:1065   */\n      mload\n        /* \"#utility.yul\":1047:1049   */\n      dup3\n        /* \"#utility.yul\":1036:1045   */\n      dup6\n        /* \"#utility.yul\":1032:1050   */\n      add\n        /* \"#utility.yul\":1025:1066   */\n      mstore\n        /* \"#utility.yul\":1113:1115   */\n      dup2\n        /* \"#utility.yul\":1105:1111   */\n      dup6\n        /* \"#utility.yul\":1101:1116   */\n      add\n        /* \"#utility.yul\":1095:1117   */\n      mload\n        /* \"#utility.yul\":1136:1140   */\n      0x40\n        /* \"#utility.yul\":1178:1182   */\n      dup1\n        /* \"#utility.yul\":1171:1175   */\n      0x40\n        /* \"#utility.yul\":1160:1169   */\n      dup8\n        /* \"#utility.yul\":1156:1176   */\n      add\n        /* \"#utility.yul\":1149:1183   */\n      mstore\n        /* \"#utility.yul\":1203:1209   */\n      dup3\n        /* \"#utility.yul\":1238:1250   */\n      dup3\n        /* \"#utility.yul\":1232:1251   */\n      mload\n        /* \"#utility.yul\":1275:1281   */\n      dup1\n        /* \"#utility.yul\":1267:1273   */\n      dup6\n        /* \"#utility.yul\":1260:1282   */\n      mstore\n        /* \"#utility.yul\":1313:1316   */\n      0x80\n        /* \"#utility.yul\":1302:1311   */\n      dup9\n        /* \"#utility.yul\":1298:1317   */\n      add\n        /* \"#utility.yul\":1291:1317   */\n      swap2\n      pop\n        /* \"#utility.yul\":1376:1379   */\n      0x80\n        /* \"#utility.yul\":1366:1372   */\n      dup2\n        /* \"#utility.yul\":1363:1364   */\n      0x05\n        /* \"#utility.yul\":1359:1373   */\n      shl\n        /* \"#utility.yul\":1348:1357   */\n      dup10\n        /* \"#utility.yul\":1344:1374   */\n      add\n        /* \"#utility.yul\":1340:1380   */\n      add\n        /* \"#utility.yul\":1326:1380   */\n      swap5\n      pop\n        /* \"#utility.yul\":1421:1423   */\n      dup6\n        /* \"#utility.yul\":1407:1419   */\n      dup5\n        /* \"#utility.yul\":1403:1424   */\n      add\n        /* \"#utility.yul\":1389:1424   */\n      swap4\n      pop\n        /* \"#utility.yul\":1442:1443   */\n      0x00\n        /* \"#utility.yul\":1452:1918   */\n    tag_514:\n        /* \"#utility.yul\":1466:1472   */\n      dup2\n        /* \"#utility.yul\":1463:1464   */\n      dup2\n        /* \"#utility.yul\":1460:1473   */\n      lt\n        /* \"#utility.yul\":1452:1918   */\n      iszero\n      tag_516\n      jumpi\n        /* \"#utility.yul\":1531:1553   */\n      dup9\n      dup7\n      sub\n      not(0x7f)\n        /* \"#utility.yul\":1527:1564   */\n      add\n        /* \"#utility.yul\":1515:1565   */\n      dup4\n      mstore\n        /* \"#utility.yul\":1588:1601   */\n      dup5\n      mload\n        /* \"#utility.yul\":1636:1645   */\n      dup1\n      mload\n        /* \"#utility.yul\":1658:1676   */\n      dup6\n      dup9\n      mstore\n        /* \"#utility.yul\":1703:1753   */\n      tag_517\n        /* \"#utility.yul\":1737:1752   */\n      dup7\n      dup10\n      add\n        /* \"#utility.yul\":1636:1645   */\n      dup3\n        /* \"#utility.yul\":1703:1753   */\n      tag_491\n      jump\t// in\n    tag_517:\n        /* \"#utility.yul\":1796:1807   */\n      swap2\n      dup10\n      add\n        /* \"#utility.yul\":1790:1808   */\n      mload\n        /* \"#utility.yul\":1773:1788   */\n      swap8\n      dup10\n      add\n        /* \"#utility.yul\":1766:1809   */\n      swap8\n      swap1\n      swap8\n      mstore\n        /* \"#utility.yul\":1689:1753   */\n      swap6\n      pop\n        /* \"#utility.yul\":1861:1876   */\n      swap4\n      dup7\n      add\n      swap4\n        /* \"#utility.yul\":1896:1908   */\n      swap2\n      dup7\n      add\n      swap2\n        /* \"#utility.yul\":1488:1489   */\n      0x01\n        /* \"#utility.yul\":1481:1490   */\n      add\n        /* \"#utility.yul\":1452:1918   */\n      jump(tag_514)\n    tag_516:\n      pop\n        /* \"#utility.yul\":1935:1941   */\n      swap4\n      swap9\n        /* \"#utility.yul\":768:1947   */\n      swap8\n      pop\n      pop\n      pop\n      pop\n      pop\n      pop\n      pop\n      pop\n      jump\t// out\n        /* \"#utility.yul\":1952:2206   */\n    tag_22:\n        /* \"#utility.yul\":2020:2026   */\n      0x00\n        /* \"#utility.yul\":2028:2034   */\n      dup1\n        /* \"#utility.yul\":2081:2083   */\n      0x40\n        /* \"#utility.yul\":2069:2078   */\n      dup4\n        /* \"#utility.yul\":2060:2067   */\n      dup6\n        /* \"#utility.yul\":2056:2079   */\n      sub\n        /* \"#utility.yul\":2052:2084   */\n      slt\n        /* \"#utility.yul\":2049:2101   */\n      iszero\n      tag_519\n      jumpi\n        /* \"#utility.yul\":2097:2098   */\n      0x00\n        /* \"#utility.yul\":2094:2095   */\n      dup1\n        /* \"#utility.yul\":2087:2099   */\n      revert\n        /* \"#utility.yul\":2049:2101   */\n    tag_519:\n        /* \"#utility.yul\":2120:2149   */\n      tag_520\n        /* \"#utility.yul\":2139:2148   */\n      dup4\n        /* \"#utility.yul\":2120:2149   */\n      tag_490\n      jump\t// in\n    tag_520:\n        /* \"#utility.yul\":2110:2149   */\n      swap5\n        /* \"#utility.yul\":2196:2198   */\n      0x20\n        /* \"#utility.yul\":2181:2199   */\n      swap4\n      swap1\n      swap4\n      add\n        /* \"#utility.yul\":2168:2200   */\n      calldataload\n      swap4\n      pop\n      pop\n      pop\n        /* \"#utility.yul\":1952:2206   */\n      jump\t// out\n        /* \"#utility.yul\":2525:3123   */\n    tag_493:\n        /* \"#utility.yul\":2577:2580   */\n      0x00\n        /* \"#utility.yul\":2608:2611   */\n      dup3\n        /* \"#utility.yul\":2640:2645   */\n      dup3\n        /* \"#utility.yul\":2634:2646   */\n      mload\n        /* \"#utility.yul\":2667:2673   */\n      dup1\n        /* \"#utility.yul\":2662:2665   */\n      dup6\n        /* \"#utility.yul\":2655:2674   */\n      mstore\n        /* \"#utility.yul\":2693:2697   */\n      0x20\n        /* \"#utility.yul\":2722:2726   */\n      dup1\n        /* \"#utility.yul\":2717:2720   */\n      dup7\n        /* \"#utility.yul\":2713:2727   */\n      add\n        /* \"#utility.yul\":2706:2727   */\n      swap6\n      pop\n        /* \"#utility.yul\":2780:2784   */\n      0x20\n        /* \"#utility.yul\":2770:2776   */\n      dup3\n        /* \"#utility.yul\":2767:2768   */\n      0x05\n        /* \"#utility.yul\":2763:2777   */\n      shl\n        /* \"#utility.yul\":2756:2761   */\n      dup5\n        /* \"#utility.yul\":2752:2778   */\n      add\n        /* \"#utility.yul\":2748:2785   */\n      add\n        /* \"#utility.yul\":2819:2823   */\n      0x20\n        /* \"#utility.yul\":2812:2817   */\n      dup7\n        /* \"#utility.yul\":2808:2824   */\n      add\n        /* \"#utility.yul\":2842:2843   */\n      0x00\n        /* \"#utility.yul\":2852:3097   */\n    tag_524:\n        /* \"#utility.yul\":2866:2872   */\n      dup5\n        /* \"#utility.yul\":2863:2864   */\n      dup2\n        /* \"#utility.yul\":2860:2873   */\n      lt\n        /* \"#utility.yul\":2852:3097   */\n      iszero\n      tag_526\n      jumpi\n        /* \"#utility.yul\":2953:2955   */\n      0x1f\n        /* \"#utility.yul\":2949:2956   */\n      not\n        /* \"#utility.yul\":2941:2946   */\n      dup7\n        /* \"#utility.yul\":2935:2939   */\n      dup5\n        /* \"#utility.yul\":2931:2947   */\n      sub\n        /* \"#utility.yul\":2927:2957   */\n      add\n        /* \"#utility.yul\":2922:2925   */\n      dup10\n        /* \"#utility.yul\":2915:2958   */\n      mstore\n        /* \"#utility.yul\":2979:3017   */\n      tag_527\n        /* \"#utility.yul\":3012:3016   */\n      dup4\n        /* \"#utility.yul\":3003:3009   */\n      dup4\n        /* \"#utility.yul\":2997:3010   */\n      mload\n        /* \"#utility.yul\":2979:3017   */\n      tag_491\n      jump\t// in\n    tag_527:\n        /* \"#utility.yul\":3075:3087   */\n      swap9\n      dup5\n      add\n      swap9\n        /* \"#utility.yul\":2971:3017   */\n      swap3\n      pop\n        /* \"#utility.yul\":3040:3055   */\n      swap1\n      dup4\n      add\n      swap1\n        /* \"#utility.yul\":2888:2889   */\n      0x01\n        /* \"#utility.yul\":2881:2890   */\n      add\n        /* \"#utility.yul\":2852:3097   */\n      jump(tag_524)\n    tag_526:\n      pop\n        /* \"#utility.yul\":3113:3117   */\n      swap1\n      swap8\n        /* \"#utility.yul\":2525:3123   */\n      swap7\n      pop\n      pop\n      pop\n      pop\n      pop\n      pop\n      pop\n      jump\t// out\n        /* \"#utility.yul\":3128:3255   */\n    tag_85:\n        /* \"#utility.yul\":3189:3199   */\n      0x4e487b71\n        /* \"#utility.yul\":3184:3187   */\n      0xe0\n        /* \"#utility.yul\":3180:3200   */\n      shl\n        /* \"#utility.yul\":3177:3178   */\n      0x00\n        /* \"#utility.yul\":3170:3201   */\n      mstore\n        /* \"#utility.yul\":3220:3224   */\n      0x21\n        /* \"#utility.yul\":3217:3218   */\n      0x04\n        /* \"#utility.yul\":3210:3225   */\n      mstore\n        /* \"#utility.yul\":3244:3248   */\n      0x24\n        /* \"#utility.yul\":3241:3242   */\n      0x00\n        /* \"#utility.yul\":3234:3249   */\n      revert\n        /* \"#utility.yul\":3260:3472   */\n    tag_494:\n        /* \"#utility.yul\":3343:3344   */\n      0x04\n        /* \"#utility.yul\":3336:3341   */\n      dup2\n        /* \"#utility.yul\":3333:3345   */\n      lt\n        /* \"#utility.yul\":3323:3466   */\n      tag_474\n      jumpi\n        /* \"#utility.yul\":3388:3398   */\n      0x4e487b71\n        /* \"#utility.yul\":3383:3386   */\n      0xe0\n        /* \"#utility.yul\":3379:3399   */\n      shl\n        /* \"#utility.yul\":3376:3377   */\n      0x00\n        /* \"#utility.yul\":3369:3400   */\n      mstore\n        /* \"#utility.yul\":3423:3427   */\n      0x21\n        /* \"#utility.yul\":3420:3421   */\n      0x04\n        /* \"#utility.yul\":3413:3428   */\n      mstore\n        /* \"#utility.yul\":3451:3455   */\n      0x24\n        /* \"#utility.yul\":3448:3449   */\n      0x00\n        /* \"#utility.yul\":3441:3456   */\n      revert\n        /* \"#utility.yul\":3477:3611   */\n    tag_495:\n        /* \"#utility.yul\":3539:3578   */\n      tag_532\n        /* \"#utility.yul\":3572:3577   */\n      dup2\n        /* \"#utility.yul\":3539:3578   */\n      tag_494\n      jump\t// in\n    tag_532:\n        /* \"#utility.yul\":3587:3605   */\n      swap1\n      mstore\n        /* \"#utility.yul\":3477:3611   */\n      jump\t// out\n        /* \"#utility.yul\":3712:4049   */\n    tag_497:\n        /* \"#utility.yul\":3810:3815   */\n      dup1\n        /* \"#utility.yul\":3804:3816   */\n      mload\n        /* \"#utility.yul\":3797:3817   */\n      iszero\n        /* \"#utility.yul\":3790:3818   */\n      iszero\n        /* \"#utility.yul\":3785:3788   */\n      dup3\n        /* \"#utility.yul\":3778:3819   */\n      mstore\n        /* \"#utility.yul\":3882:3886   */\n      0x20\n        /* \"#utility.yul\":3875:3880   */\n      dup2\n        /* \"#utility.yul\":3871:3887   */\n      add\n        /* \"#utility.yul\":3865:3888   */\n      mload\n        /* \"#utility.yul\":3858:3889   */\n      iszero\n        /* \"#utility.yul\":3851:3890   */\n      iszero\n        /* \"#utility.yul\":3844:3848   */\n      0x20\n        /* \"#utility.yul\":3839:3842   */\n      dup4\n        /* \"#utility.yul\":3835:3849   */\n      add\n        /* \"#utility.yul\":3828:3891   */\n      mstore\n        /* \"#utility.yul\":3937:3941   */\n      0x40\n        /* \"#utility.yul\":3930:3935   */\n      dup2\n        /* \"#utility.yul\":3926:3942   */\n      add\n        /* \"#utility.yul\":3920:3943   */\n      mload\n        /* \"#utility.yul\":3952:3998   */\n      tag_535\n        /* \"#utility.yul\":3985:3997   */\n      dup2\n        /* \"#utility.yul\":3952:3998   */\n      tag_494\n      jump\t// in\n    tag_535:\n        /* \"#utility.yul\":4030:4042   */\n      dup1\n        /* \"#utility.yul\":4023:4027   */\n      0x40\n        /* \"#utility.yul\":4018:4021   */\n      dup5\n        /* \"#utility.yul\":4014:4028   */\n      add\n        /* \"#utility.yul\":4007:4043   */\n      mstore\n      pop\n        /* \"#utility.yul\":3712:4049   */\n      pop\n      pop\n      jump\t// out\n        /* \"#utility.yul\":4054:4493   */\n    tag_498:\n        /* \"#utility.yul\":4107:4110   */\n      0x00\n        /* \"#utility.yul\":4145:4150   */\n      dup2\n        /* \"#utility.yul\":4139:4151   */\n      mload\n        /* \"#utility.yul\":4172:4178   */\n      dup1\n        /* \"#utility.yul\":4167:4170   */\n      dup5\n        /* \"#utility.yul\":4160:4179   */\n      mstore\n        /* \"#utility.yul\":4198:4202   */\n      0x20\n        /* \"#utility.yul\":4227:4231   */\n      dup1\n        /* \"#utility.yul\":4222:4225   */\n      dup6\n        /* \"#utility.yul\":4218:4232   */\n      add\n        /* \"#utility.yul\":4211:4232   */\n      swap5\n      pop\n        /* \"#utility.yul\":4266:4270   */\n      0x20\n        /* \"#utility.yul\":4259:4264   */\n      dup5\n        /* \"#utility.yul\":4255:4271   */\n      add\n        /* \"#utility.yul\":4289:4290   */\n      0x00\n        /* \"#utility.yul\":4299:4468   */\n    tag_537:\n        /* \"#utility.yul\":4313:4319   */\n      dup4\n        /* \"#utility.yul\":4310:4311   */\n      dup2\n        /* \"#utility.yul\":4307:4320   */\n      lt\n        /* \"#utility.yul\":4299:4468   */\n      iszero\n      tag_539\n      jumpi\n        /* \"#utility.yul\":4374:4387   */\n      dup2\n      mload\n        /* \"#utility.yul\":4362:4388   */\n      dup8\n      mstore\n        /* \"#utility.yul\":4408:4420   */\n      swap6\n      dup3\n      add\n      swap6\n        /* \"#utility.yul\":4443:4458   */\n      swap1\n      dup3\n      add\n      swap1\n        /* \"#utility.yul\":4335:4336   */\n      0x01\n        /* \"#utility.yul\":4328:4337   */\n      add\n        /* \"#utility.yul\":4299:4468   */\n      jump(tag_537)\n    tag_539:\n      pop\n        /* \"#utility.yul\":4484:4487   */\n      swap5\n      swap6\n        /* \"#utility.yul\":4054:4493   */\n      swap5\n      pop\n      pop\n      pop\n      pop\n      pop\n      jump\t// out\n        /* \"#utility.yul\":4498:6230   */\n    tag_30:\n        /* \"#utility.yul\":4681:4683   */\n      0x20\n        /* \"#utility.yul\":4670:4679   */\n      dup2\n        /* \"#utility.yul\":4663:4684   */\n      mstore\n        /* \"#utility.yul\":4693:4746   */\n      tag_541\n        /* \"#utility.yul\":4742:4744   */\n      0x20\n        /* \"#utility.yul\":4731:4740   */\n      dup3\n        /* \"#utility.yul\":4727:4745   */\n      add\n        /* \"#utility.yul\":4718:4724   */\n      dup4\n        /* \"#utility.yul\":4712:4725   */\n      mload\n      sub(shl(0xa0, 0x01), 0x01)\n        /* \"#utility.yul\":2459:2513   */\n      and\n        /* \"#utility.yul\":2447:2514   */\n      swap1\n      mstore\n        /* \"#utility.yul\":2393:2520   */\n      jump\n        /* \"#utility.yul\":4693:4746   */\n    tag_541:\n        /* \"#utility.yul\":4644:4648   */\n      0x00\n        /* \"#utility.yul\":4793:4795   */\n      0x20\n        /* \"#utility.yul\":4785:4791   */\n      dup4\n        /* \"#utility.yul\":4781:4796   */\n      add\n        /* \"#utility.yul\":4775:4797   */\n      mload\n        /* \"#utility.yul\":4816:4822   */\n      0x01c0\n        /* \"#utility.yul\":4858:4860   */\n      dup1\n        /* \"#utility.yul\":4853:4855   */\n      0x40\n        /* \"#utility.yul\":4842:4851   */\n      dup6\n        /* \"#utility.yul\":4838:4856   */\n      add\n        /* \"#utility.yul\":4831:4861   */\n      mstore\n        /* \"#utility.yul\":4884:4936   */\n      tag_542\n        /* \"#utility.yul\":4931:4934   */\n      0x01e0\n        /* \"#utility.yul\":4920:4929   */\n      dup6\n        /* \"#utility.yul\":4916:4935   */\n      add\n        /* \"#utility.yul\":4902:4914   */\n      dup4\n        /* \"#utility.yul\":4884:4936   */\n      tag_491\n      jump\t// in\n    tag_542:\n        /* \"#utility.yul\":4870:4936   */\n      swap2\n      pop\n        /* \"#utility.yul\":4985:4987   */\n      0x40\n        /* \"#utility.yul\":4977:4983   */\n      dup6\n        /* \"#utility.yul\":4973:4988   */\n      add\n        /* \"#utility.yul\":4967:4989   */\n      mload\n        /* \"#utility.yul\":5012:5014   */\n      0x1f\n        /* \"#utility.yul\":5008:5015   */\n      not\n        /* \"#utility.yul\":5079:5081   */\n      dup1\n        /* \"#utility.yul\":5067:5076   */\n      dup7\n        /* \"#utility.yul\":5059:5065   */\n      dup6\n        /* \"#utility.yul\":5055:5077   */\n      sub\n        /* \"#utility.yul\":5051:5082   */\n      add\n        /* \"#utility.yul\":5046:5048   */\n      0x60\n        /* \"#utility.yul\":5035:5044   */\n      dup8\n        /* \"#utility.yul\":5031:5049   */\n      add\n        /* \"#utility.yul\":5024:5083   */\n      mstore\n        /* \"#utility.yul\":5106:5147   */\n      tag_543\n        /* \"#utility.yul\":5140:5146   */\n      dup5\n        /* \"#utility.yul\":5124:5138   */\n      dup4\n        /* \"#utility.yul\":5106:5147   */\n      tag_491\n      jump\t// in\n    tag_543:\n        /* \"#utility.yul\":5092:5147   */\n      swap4\n      pop\n        /* \"#utility.yul\":5202:5204   */\n      0x60\n        /* \"#utility.yul\":5194:5200   */\n      dup8\n        /* \"#utility.yul\":5190:5205   */\n      add\n        /* \"#utility.yul\":5184:5206   */\n      mload\n        /* \"#utility.yul\":5178:5181   */\n      0x80\n        /* \"#utility.yul\":5167:5176   */\n      dup8\n        /* \"#utility.yul\":5163:5182   */\n      add\n        /* \"#utility.yul\":5156:5207   */\n      mstore\n        /* \"#utility.yul\":5262:5265   */\n      0x80\n        /* \"#utility.yul\":5254:5260   */\n      dup8\n        /* \"#utility.yul\":5250:5266   */\n      add\n        /* \"#utility.yul\":5244:5267   */\n      mload\n        /* \"#utility.yul\":5238:5241   */\n      0xa0\n        /* \"#utility.yul\":5227:5236   */\n      dup8\n        /* \"#utility.yul\":5223:5242   */\n      add\n        /* \"#utility.yul\":5216:5268   */\n      mstore\n        /* \"#utility.yul\":5317:5320   */\n      0xa0\n        /* \"#utility.yul\":5309:5315   */\n      dup8\n        /* \"#utility.yul\":5305:5321   */\n      add\n        /* \"#utility.yul\":5299:5322   */\n      mload\n        /* \"#utility.yul\":5277:5322   */\n      swap2\n      pop\n        /* \"#utility.yul\":5387:5389   */\n      dup1\n        /* \"#utility.yul\":5375:5384   */\n      dup7\n        /* \"#utility.yul\":5367:5373   */\n      dup6\n        /* \"#utility.yul\":5363:5385   */\n      sub\n        /* \"#utility.yul\":5359:5390   */\n      add\n        /* \"#utility.yul\":5353:5356   */\n      0xc0\n        /* \"#utility.yul\":5342:5351   */\n      dup8\n        /* \"#utility.yul\":5338:5357   */\n      add\n        /* \"#utility.yul\":5331:5391   */\n      mstore\n        /* \"#utility.yul\":5414:5465   */\n      tag_544\n        /* \"#utility.yul\":5458:5464   */\n      dup5\n        /* \"#utility.yul\":5442:5456   */\n      dup4\n        /* \"#utility.yul\":5414:5465   */\n      tag_493\n      jump\t// in\n    tag_544:\n        /* \"#utility.yul\":5400:5465   */\n      swap4\n      pop\n        /* \"#utility.yul\":5520:5523   */\n      0xc0\n        /* \"#utility.yul\":5512:5518   */\n      dup8\n        /* \"#utility.yul\":5508:5524   */\n      add\n        /* \"#utility.yul\":5502:5525   */\n      mload\n        /* \"#utility.yul\":5496:5499   */\n      0xe0\n        /* \"#utility.yul\":5485:5494   */\n      dup8\n        /* \"#utility.yul\":5481:5500   */\n      add\n        /* \"#utility.yul\":5474:5526   */\n      mstore\n        /* \"#utility.yul\":5575:5578   */\n      0xe0\n        /* \"#utility.yul\":5567:5573   */\n      dup8\n        /* \"#utility.yul\":5563:5579   */\n      add\n        /* \"#utility.yul\":5557:5580   */\n      mload\n        /* \"#utility.yul\":5535:5580   */\n      swap2\n      pop\n        /* \"#utility.yul\":5599:5602   */\n      0x0100\n        /* \"#utility.yul\":5611:5673   */\n      tag_545\n        /* \"#utility.yul\":5669:5671   */\n      dup2\n        /* \"#utility.yul\":5658:5667   */\n      dup9\n        /* \"#utility.yul\":5654:5672   */\n      add\n        /* \"#utility.yul\":5638:5652   */\n      dup5\n        /* \"#utility.yul\":5611:5673   */\n      tag_495\n      jump\t// in\n    tag_545:\n        /* \"#utility.yul\":5710:5725   */\n      dup8\n      add\n        /* \"#utility.yul\":5704:5726   */\n      mload\n      swap2\n      pop\n        /* \"#utility.yul\":5745:5748   */\n      0x0120\n        /* \"#utility.yul\":5757:5823   */\n      tag_546\n        /* \"#utility.yul\":5804:5822   */\n      dup8\n      dup3\n      add\n        /* \"#utility.yul\":5704:5726   */\n      dup5\n        /* \"#utility.yul\":5757:5823   */\n      tag_497\n      jump\t// in\n    tag_546:\n        /* \"#utility.yul\":5860:5875   */\n      dup8\n      add\n        /* \"#utility.yul\":5854:5876   */\n      mload\n        /* \"#utility.yul\":3686:3699   */\n      iszero\n        /* \"#utility.yul\":3679:3700   */\n      iszero\n        /* \"#utility.yul\":5932:5935   */\n      0x0180\n        /* \"#utility.yul\":5917:5936   */\n      dup8\n      add\n        /* \"#utility.yul\":3667:3701   */\n      mstore\n        /* \"#utility.yul\":5986:5992   */\n      0x0140\n        /* \"#utility.yul\":5974:5993   */\n      dup8\n      add\n        /* \"#utility.yul\":5968:5994   */\n      mload\n        /* \"#utility.yul\":6035:6057   */\n      dup7\n      dup6\n      sub\n        /* \"#utility.yul\":6031:6062   */\n      swap1\n      swap2\n      add\n        /* \"#utility.yul\":6025:6028   */\n      0x01a0\n        /* \"#utility.yul\":6010:6029   */\n      dup8\n      add\n        /* \"#utility.yul\":6003:6063   */\n      mstore\n        /* \"#utility.yul\":5968:5994   */\n      swap1\n      pop\n        /* \"#utility.yul\":6086:6138   */\n      tag_548\n        /* \"#utility.yul\":6039:6045   */\n      dup4\n        /* \"#utility.yul\":5968:5994   */\n      dup3\n        /* \"#utility.yul\":6086:6138   */\n      tag_498\n      jump\t// in\n    tag_548:\n        /* \"#utility.yul\":6072:6138   */\n      swap3\n      pop\n      pop\n        /* \"#utility.yul\":6192:6198   */\n      0x0160\n        /* \"#utility.yul\":6184:6190   */\n      dup6\n        /* \"#utility.yul\":6180:6199   */\n      add\n        /* \"#utility.yul\":6174:6200   */\n      mload\n        /* \"#utility.yul\":6169:6171   */\n      dup2\n        /* \"#utility.yul\":6158:6167   */\n      dup6\n        /* \"#utility.yul\":6154:6172   */\n      add\n        /* \"#utility.yul\":6147:6201   */\n      mstore\n      pop\n        /* \"#utility.yul\":6218:6224   */\n      dup1\n        /* \"#utility.yul\":6210:6224   */\n      swap2\n      pop\n      pop\n        /* \"#utility.yul\":4498:6230   */\n      swap3\n      swap2\n      pop\n      pop\n      jump\t// out\n        /* \"#utility.yul\":6235:6415   */\n    tag_33:\n        /* \"#utility.yul\":6294:6300   */\n      0x00\n        /* \"#utility.yul\":6347:6349   */\n      0x20\n        /* \"#utility.yul\":6335:6344   */\n      dup3\n        /* \"#utility.yul\":6326:6333   */\n      dup5\n        /* \"#utility.yul\":6322:6345   */\n      sub\n        /* \"#utility.yul\":6318:6350   */\n      slt\n        /* \"#utility.yul\":6315:6367   */\n      iszero\n      tag_550\n      jumpi\n        /* \"#utility.yul\":6363:6364   */\n      0x00\n        /* \"#utility.yul\":6360:6361   */\n      dup1\n        /* \"#utility.yul\":6353:6365   */\n      revert\n        /* \"#utility.yul\":6315:6367   */\n    tag_550:\n      pop\n        /* \"#utility.yul\":6386:6409   */\n      calldataload\n      swap2\n        /* \"#utility.yul\":6235:6415   */\n      swap1\n      pop\n      jump\t// out\n        /* \"#utility.yul\":6420:6768   */\n    tag_499:\n        /* \"#utility.yul\":6472:6480   */\n      0x00\n        /* \"#utility.yul\":6482:6488   */\n      dup1\n        /* \"#utility.yul\":6536:6539   */\n      dup4\n        /* \"#utility.yul\":6529:6533   */\n      0x1f\n        /* \"#utility.yul\":6521:6527   */\n      dup5\n        /* \"#utility.yul\":6517:6534   */\n      add\n        /* \"#utility.yul\":6513:6540   */\n      slt\n        /* \"#utility.yul\":6503:6558   */\n      tag_552\n      jumpi\n        /* \"#utility.yul\":6554:6555   */\n      0x00\n        /* \"#utility.yul\":6551:6552   */\n      dup1\n        /* \"#utility.yul\":6544:6556   */\n      revert\n        /* \"#utility.yul\":6503:6558   */\n    tag_552:\n      pop\n        /* \"#utility.yul\":6577:6597   */\n      dup2\n      calldataload\n        /* \"#utility.yul\":6620:6638   */\n      0xffffffffffffffff\n        /* \"#utility.yul\":6609:6639   */\n      dup2\n      gt\n        /* \"#utility.yul\":6606:6656   */\n      iszero\n      tag_553\n      jumpi\n        /* \"#utility.yul\":6652:6653   */\n      0x00\n        /* \"#utility.yul\":6649:6650   */\n      dup1\n        /* \"#utility.yul\":6642:6654   */\n      revert\n        /* \"#utility.yul\":6606:6656   */\n    tag_553:\n        /* \"#utility.yul\":6689:6693   */\n      0x20\n        /* \"#utility.yul\":6681:6687   */\n      dup4\n        /* \"#utility.yul\":6677:6694   */\n      add\n        /* \"#utility.yul\":6665:6694   */\n      swap2\n      pop\n        /* \"#utility.yul\":6741:6744   */\n      dup4\n        /* \"#utility.yul\":6734:6738   */\n      0x20\n        /* \"#utility.yul\":6725:6731   */\n      dup3\n        /* \"#utility.yul\":6717:6723   */\n      dup6\n        /* \"#utility.yul\":6713:6732   */\n      add\n        /* \"#utility.yul\":6709:6739   */\n      add\n        /* \"#utility.yul\":6706:6745   */\n      gt\n        /* \"#utility.yul\":6703:6762   */\n      iszero\n      tag_554\n      jumpi\n        /* \"#utility.yul\":6758:6759   */\n      0x00\n        /* \"#utility.yul\":6755:6756   */\n      dup1\n        /* \"#utility.yul\":6748:6760   */\n      revert\n        /* \"#utility.yul\":6703:6762   */\n    tag_554:\n        /* \"#utility.yul\":6420:6768   */\n      swap3\n      pop\n      swap3\n      swap1\n      pop\n      jump\t// out\n        /* \"#utility.yul\":6773:7148   */\n    tag_500:\n        /* \"#utility.yul\":6844:6852   */\n      0x00\n        /* \"#utility.yul\":6854:6860   */\n      dup1\n        /* \"#utility.yul\":6908:6911   */\n      dup4\n        /* \"#utility.yul\":6901:6905   */\n      0x1f\n        /* \"#utility.yul\":6893:6899   */\n      dup5\n        /* \"#utility.yul\":6889:6906   */\n      add\n        /* \"#utility.yul\":6885:6912   */\n      slt\n        /* \"#utility.yul\":6875:6930   */\n      tag_556\n      jumpi\n        /* \"#utility.yul\":6926:6927   */\n      0x00\n        /* \"#utility.yul\":6923:6924   */\n      dup1\n        /* \"#utility.yul\":6916:6928   */\n      revert\n        /* \"#utility.yul\":6875:6930   */\n    tag_556:\n      pop\n        /* \"#utility.yul\":6949:6969   */\n      dup2\n      calldataload\n        /* \"#utility.yul\":6992:7010   */\n      0xffffffffffffffff\n        /* \"#utility.yul\":6981:7011   */\n      dup2\n      gt\n        /* \"#utility.yul\":6978:7028   */\n      iszero\n      tag_557\n      jumpi\n        /* \"#utility.yul\":7024:7025   */\n      0x00\n        /* \"#utility.yul\":7021:7022   */\n      dup1\n        /* \"#utility.yul\":7014:7026   */\n      revert\n        /* \"#utility.yul\":6978:7028   */\n    tag_557:\n        /* \"#utility.yul\":7061:7065   */\n      0x20\n        /* \"#utility.yul\":7053:7059   */\n      dup4\n        /* \"#utility.yul\":7049:7066   */\n      add\n        /* \"#utility.yul\":7037:7066   */\n      swap2\n      pop\n        /* \"#utility.yul\":7121:7124   */\n      dup4\n        /* \"#utility.yul\":7114:7118   */\n      0x20\n        /* \"#utility.yul\":7104:7110   */\n      dup3\n        /* \"#utility.yul\":7101:7102   */\n      0x05\n        /* \"#utility.yul\":7097:7111   */\n      shl\n        /* \"#utility.yul\":7089:7095   */\n      dup6\n        /* \"#utility.yul\":7085:7112   */\n      add\n        /* \"#utility.yul\":7081:7119   */\n      add\n        /* \"#utility.yul\":7078:7125   */\n      gt\n        /* \"#utility.yul\":7075:7142   */\n      iszero\n      tag_554\n      jumpi\n        /* \"#utility.yul\":7138:7139   */\n      0x00\n        /* \"#utility.yul\":7135:7136   */\n      dup1\n        /* \"#utility.yul\":7128:7140   */\n      revert\n        /* \"#utility.yul\":7153:8508   */\n    tag_37:\n        /* \"#utility.yul\":7350:7356   */\n      0x00\n        /* \"#utility.yul\":7358:7364   */\n      dup1\n        /* \"#utility.yul\":7366:7372   */\n      0x00\n        /* \"#utility.yul\":7374:7380   */\n      dup1\n        /* \"#utility.yul\":7382:7388   */\n      0x00\n        /* \"#utility.yul\":7390:7396   */\n      dup1\n        /* \"#utility.yul\":7398:7404   */\n      0x00\n        /* \"#utility.yul\":7406:7412   */\n      dup1\n        /* \"#utility.yul\":7414:7420   */\n      0x00\n        /* \"#utility.yul\":7458:7467   */\n      dup10\n        /* \"#utility.yul\":7449:7456   */\n      dup12\n        /* \"#utility.yul\":7445:7468   */\n      sub\n        /* \"#utility.yul\":7488:7491   */\n      0x0100\n        /* \"#utility.yul\":7484:7486   */\n      dup2\n        /* \"#utility.yul\":7480:7492   */\n      slt\n        /* \"#utility.yul\":7477:7509   */\n      iszero\n      tag_560\n      jumpi\n        /* \"#utility.yul\":7505:7506   */\n      0x00\n        /* \"#utility.yul\":7502:7503   */\n      dup1\n        /* \"#utility.yul\":7495:7507   */\n      revert\n        /* \"#utility.yul\":7477:7509   */\n    tag_560:\n        /* \"#utility.yul\":7545:7554   */\n      dup11\n        /* \"#utility.yul\":7532:7555   */\n      calldataload\n        /* \"#utility.yul\":7574:7592   */\n      0xffffffffffffffff\n        /* \"#utility.yul\":7615:7617   */\n      dup1\n        /* \"#utility.yul\":7607:7613   */\n      dup3\n        /* \"#utility.yul\":7604:7618   */\n      gt\n        /* \"#utility.yul\":7601:7635   */\n      iszero\n      tag_561\n      jumpi\n        /* \"#utility.yul\":7631:7632   */\n      0x00\n        /* \"#utility.yul\":7628:7629   */\n      dup1\n        /* \"#utility.yul\":7621:7633   */\n      revert\n        /* \"#utility.yul\":7601:7635   */\n    tag_561:\n        /* \"#utility.yul\":7670:7729   */\n      tag_562\n        /* \"#utility.yul\":7721:7728   */\n      dup15\n        /* \"#utility.yul\":7712:7718   */\n      dup4\n        /* \"#utility.yul\":7701:7710   */\n      dup16\n        /* \"#utility.yul\":7697:7719   */\n      add\n        /* \"#utility.yul\":7670:7729   */\n      tag_499\n      jump\t// in\n    tag_562:\n        /* \"#utility.yul\":7748:7756   */\n      swap1\n      swap13\n      pop\n        /* \"#utility.yul\":7644:7729   */\n      swap11\n      pop\n        /* \"#utility.yul\":7836:7838   */\n      0x20\n        /* \"#utility.yul\":7821:7839   */\n      dup14\n      add\n        /* \"#utility.yul\":7808:7840   */\n      calldataload\n      swap2\n      pop\n        /* \"#utility.yul\":7852:7868   */\n      dup1\n      dup3\n      gt\n        /* \"#utility.yul\":7849:7885   */\n      iszero\n      tag_563\n      jumpi\n        /* \"#utility.yul\":7881:7882   */\n      0x00\n        /* \"#utility.yul\":7878:7879   */\n      dup1\n        /* \"#utility.yul\":7871:7883   */\n      revert\n        /* \"#utility.yul\":7849:7885   */\n    tag_563:\n        /* \"#utility.yul\":7920:7981   */\n      tag_564\n        /* \"#utility.yul\":7973:7980   */\n      dup15\n        /* \"#utility.yul\":7962:7970   */\n      dup4\n        /* \"#utility.yul\":7951:7960   */\n      dup16\n        /* \"#utility.yul\":7947:7971   */\n      add\n        /* \"#utility.yul\":7920:7981   */\n      tag_499\n      jump\t// in\n    tag_564:\n        /* \"#utility.yul\":8000:8008   */\n      swap1\n      swap11\n      pop\n        /* \"#utility.yul\":7894:7981   */\n      swap9\n      pop\n        /* \"#utility.yul\":8082:8084   */\n      0x40\n        /* \"#utility.yul\":8067:8085   */\n      dup14\n      add\n        /* \"#utility.yul\":8054:8086   */\n      calldataload\n      swap8\n      pop\n        /* \"#utility.yul\":8133:8135   */\n      0x60\n        /* \"#utility.yul\":8118:8136   */\n      dup14\n      add\n        /* \"#utility.yul\":8105:8137   */\n      calldataload\n      swap7\n      pop\n        /* \"#utility.yul\":8190:8193   */\n      0x80\n        /* \"#utility.yul\":8175:8194   */\n      dup14\n      add\n        /* \"#utility.yul\":8162:8195   */\n      calldataload\n      swap2\n      pop\n        /* \"#utility.yul\":8207:8223   */\n      dup1\n      dup3\n      gt\n        /* \"#utility.yul\":8204:8240   */\n      iszero\n      tag_565\n      jumpi\n        /* \"#utility.yul\":8236:8237   */\n      0x00\n        /* \"#utility.yul\":8233:8234   */\n      dup1\n        /* \"#utility.yul\":8226:8238   */\n      revert\n        /* \"#utility.yul\":8204:8240   */\n    tag_565:\n      pop\n        /* \"#utility.yul\":8275:8355   */\n      tag_566\n        /* \"#utility.yul\":8347:8354   */\n      dup14\n        /* \"#utility.yul\":8336:8344   */\n      dup3\n        /* \"#utility.yul\":8325:8334   */\n      dup15\n        /* \"#utility.yul\":8321:8345   */\n      add\n        /* \"#utility.yul\":8275:8355   */\n      tag_500\n      jump\t// in\n    tag_566:\n        /* \"#utility.yul\":8374:8382   */\n      swap1\n      swap6\n      pop\n        /* \"#utility.yul\":8249:8355   */\n      swap4\n      pop\n      pop\n        /* \"#utility.yul\":8444:8446   */\n      0x60\n      not(0x9f)\n        /* \"#utility.yul\":8425:8442   */\n      dup3\n      add\n        /* \"#utility.yul\":8421:8447   */\n      slt\n        /* \"#utility.yul\":8418:8464   */\n      iszero\n      tag_567\n      jumpi\n        /* \"#utility.yul\":8460:8461   */\n      0x00\n        /* \"#utility.yul\":8457:8458   */\n      dup1\n        /* \"#utility.yul\":8450:8462   */\n      revert\n        /* \"#utility.yul\":8418:8464   */\n    tag_567:\n      pop\n        /* \"#utility.yul\":8498:8501   */\n      0xa0\n        /* \"#utility.yul\":8487:8496   */\n      dup11\n        /* \"#utility.yul\":8483:8502   */\n      add\n        /* \"#utility.yul\":8473:8502   */\n      swap1\n      pop\n        /* \"#utility.yul\":7153:8508   */\n      swap3\n      swap6\n      swap9\n      pop\n      swap3\n      swap6\n      swap9\n      pop\n      swap3\n      swap6\n      swap9\n      jump\t// out\n        /* \"#utility.yul\":8513:9026   */\n    tag_42:\n        /* \"#utility.yul\":8608:8614   */\n      0x00\n        /* \"#utility.yul\":8616:8622   */\n      dup1\n        /* \"#utility.yul\":8624:8630   */\n      0x00\n        /* \"#utility.yul\":8677:8679   */\n      0x40\n        /* \"#utility.yul\":8665:8674   */\n      dup5\n        /* \"#utility.yul\":8656:8663   */\n      dup7\n        /* \"#utility.yul\":8652:8675   */\n      sub\n        /* \"#utility.yul\":8648:8680   */\n      slt\n        /* \"#utility.yul\":8645:8697   */\n      iszero\n      tag_569\n      jumpi\n        /* \"#utility.yul\":8693:8694   */\n      0x00\n        /* \"#utility.yul\":8690:8691   */\n      dup1\n        /* \"#utility.yul\":8683:8695   */\n      revert\n        /* \"#utility.yul\":8645:8697   */\n    tag_569:\n        /* \"#utility.yul\":8729:8738   */\n      dup4\n        /* \"#utility.yul\":8716:8739   */\n      calldataload\n        /* \"#utility.yul\":8706:8739   */\n      swap3\n      pop\n        /* \"#utility.yul\":8790:8792   */\n      0x20\n        /* \"#utility.yul\":8779:8788   */\n      dup5\n        /* \"#utility.yul\":8775:8793   */\n      add\n        /* \"#utility.yul\":8762:8794   */\n      calldataload\n        /* \"#utility.yul\":8817:8835   */\n      0xffffffffffffffff\n        /* \"#utility.yul\":8809:8815   */\n      dup2\n        /* \"#utility.yul\":8806:8836   */\n      gt\n        /* \"#utility.yul\":8803:8853   */\n      iszero\n      tag_570\n      jumpi\n        /* \"#utility.yul\":8849:8850   */\n      0x00\n        /* \"#utility.yul\":8846:8847   */\n      dup1\n        /* \"#utility.yul\":8839:8851   */\n      revert\n        /* \"#utility.yul\":8803:8853   */\n    tag_570:\n        /* \"#utility.yul\":8888:8966   */\n      tag_571\n        /* \"#utility.yul\":8958:8965   */\n      dup7\n        /* \"#utility.yul\":8949:8955   */\n      dup3\n        /* \"#utility.yul\":8938:8947   */\n      dup8\n        /* \"#utility.yul\":8934:8956   */\n      add\n        /* \"#utility.yul\":8888:8966   */\n      tag_500\n      jump\t// in\n    tag_571:\n        /* \"#utility.yul\":8513:9026   */\n      swap5\n      swap8\n        /* \"#utility.yul\":8985:8993   */\n      swap1\n      swap7\n      pop\n        /* \"#utility.yul\":8862:8966   */\n      swap4\n      swap5\n      pop\n      pop\n      pop\n      pop\n        /* \"#utility.yul\":8513:9026   */\n      jump\t// out\n        /* \"#utility.yul\":9031:9217   */\n    tag_46:\n        /* \"#utility.yul\":9090:9096   */\n      0x00\n        /* \"#utility.yul\":9143:9145   */\n      0x20\n        /* \"#utility.yul\":9131:9140   */\n      dup3\n        /* \"#utility.yul\":9122:9129   */\n      dup5\n        /* \"#utility.yul\":9118:9141   */\n      sub\n        /* \"#utility.yul\":9114:9146   */\n      slt\n        /* \"#utility.yul\":9111:9163   */\n      iszero\n      tag_573\n      jumpi\n        /* \"#utility.yul\":9159:9160   */\n      0x00\n        /* \"#utility.yul\":9156:9157   */\n      dup1\n        /* \"#utility.yul\":9149:9161   */\n      revert\n        /* \"#utility.yul\":9111:9163   */\n    tag_573:\n        /* \"#utility.yul\":9182:9211   */\n      tag_574\n        /* \"#utility.yul\":9201:9210   */\n      dup3\n        /* \"#utility.yul\":9182:9211   */\n      tag_490\n      jump\t// in\n    tag_574:\n        /* \"#utility.yul\":9172:9211   */\n      swap4\n        /* \"#utility.yul\":9031:9217   */\n      swap3\n      pop\n      pop\n      pop\n      jump\t// out\n        /* \"#utility.yul\":9222:10945   */\n    tag_49:\n        /* \"#utility.yul\":9418:9422   */\n      0x00\n        /* \"#utility.yul\":9447:9449   */\n      0x20\n        /* \"#utility.yul\":9487:9489   */\n      dup1\n        /* \"#utility.yul\":9476:9485   */\n      dup4\n        /* \"#utility.yul\":9472:9490   */\n      add\n        /* \"#utility.yul\":9517:9519   */\n      dup2\n        /* \"#utility.yul\":9506:9515   */\n      dup5\n        /* \"#utility.yul\":9499:9520   */\n      mstore\n        /* \"#utility.yul\":9540:9546   */\n      dup1\n        /* \"#utility.yul\":9575:9581   */\n      dup6\n        /* \"#utility.yul\":9569:9582   */\n      mload\n        /* \"#utility.yul\":9606:9612   */\n      dup1\n        /* \"#utility.yul\":9598:9604   */\n      dup4\n        /* \"#utility.yul\":9591:9613   */\n      mstore\n        /* \"#utility.yul\":9632:9634   */\n      0x40\n        /* \"#utility.yul\":9622:9634   */\n      swap3\n      pop\n        /* \"#utility.yul\":9665:9667   */\n      0x40\n        /* \"#utility.yul\":9654:9663   */\n      dup7\n        /* \"#utility.yul\":9650:9668   */\n      add\n        /* \"#utility.yul\":9643:9668   */\n      swap2\n      pop\n        /* \"#utility.yul\":9727:9729   */\n      0x40\n        /* \"#utility.yul\":9717:9723   */\n      dup2\n        /* \"#utility.yul\":9714:9715   */\n      0x05\n        /* \"#utility.yul\":9710:9724   */\n      shl\n        /* \"#utility.yul\":9699:9708   */\n      dup8\n        /* \"#utility.yul\":9695:9725   */\n      add\n        /* \"#utility.yul\":9691:9730   */\n      add\n        /* \"#utility.yul\":9765:9767   */\n      dup5\n        /* \"#utility.yul\":9757:9763   */\n      dup9\n        /* \"#utility.yul\":9753:9768   */\n      add\n        /* \"#utility.yul\":9786:9787   */\n      0x00\n        /* \"#utility.yul\":9796:10916   */\n    tag_576:\n        /* \"#utility.yul\":9810:9816   */\n      dup4\n        /* \"#utility.yul\":9807:9808   */\n      dup2\n        /* \"#utility.yul\":9804:9817   */\n      lt\n        /* \"#utility.yul\":9796:10916   */\n      iszero\n      tag_578\n      jumpi\n        /* \"#utility.yul\":9903:9905   */\n      0x3f\n        /* \"#utility.yul\":9899:9906   */\n      not\n        /* \"#utility.yul\":9887:9896   */\n      dup10\n        /* \"#utility.yul\":9879:9885   */\n      dup5\n        /* \"#utility.yul\":9875:9897   */\n      sub\n        /* \"#utility.yul\":9871:9907   */\n      add\n        /* \"#utility.yul\":9866:9869   */\n      dup6\n        /* \"#utility.yul\":9859:9908   */\n      mstore\n        /* \"#utility.yul\":9937:9943   */\n      dup2\n        /* \"#utility.yul\":9931:9944   */\n      mload\n        /* \"#utility.yul\":9967:9973   */\n      0x0100\n      sub(shl(0xa0, 0x01), 0x01)\n        /* \"#utility.yul\":10011:10013   */\n      dup3\n        /* \"#utility.yul\":10005:10014   */\n      mload\n        /* \"#utility.yul\":10001:10059   */\n      and\n        /* \"#utility.yul\":9993:9999   */\n      dup6\n        /* \"#utility.yul\":9986:10060   */\n      mstore\n        /* \"#utility.yul\":10111:10113   */\n      dup9\n        /* \"#utility.yul\":10107:10109   */\n      dup3\n        /* \"#utility.yul\":10103:10114   */\n      add\n        /* \"#utility.yul\":10097:10115   */\n      mload\n        /* \"#utility.yul\":10092:10094   */\n      dup10\n        /* \"#utility.yul\":10084:10090   */\n      dup7\n        /* \"#utility.yul\":10080:10095   */\n      add\n        /* \"#utility.yul\":10073:10116   */\n      mstore\n        /* \"#utility.yul\":10163:10165   */\n      dup8\n        /* \"#utility.yul\":10159:10161   */\n      dup3\n        /* \"#utility.yul\":10155:10166   */\n      add\n        /* \"#utility.yul\":10149:10167   */\n      mload\n        /* \"#utility.yul\":10204:10206   */\n      dup2\n        /* \"#utility.yul\":10199:10201   */\n      dup10\n        /* \"#utility.yul\":10191:10197   */\n      dup8\n        /* \"#utility.yul\":10187:10202   */\n      add\n        /* \"#utility.yul\":10180:10207   */\n      mstore\n        /* \"#utility.yul\":10234:10282   */\n      tag_579\n        /* \"#utility.yul\":10278:10280   */\n      dup3\n        /* \"#utility.yul\":10270:10276   */\n      dup8\n        /* \"#utility.yul\":10266:10281   */\n      add\n        /* \"#utility.yul\":10252:10264   */\n      dup3\n        /* \"#utility.yul\":10234:10282   */\n      tag_491\n      jump\t// in\n    tag_579:\n        /* \"#utility.yul\":10220:10282   */\n      swap2\n      pop\n      pop\n        /* \"#utility.yul\":10305:10309   */\n      0x60\n        /* \"#utility.yul\":10360:10362   */\n      dup1\n        /* \"#utility.yul\":10356:10358   */\n      dup4\n        /* \"#utility.yul\":10352:10363   */\n      add\n        /* \"#utility.yul\":10346:10364   */\n      mload\n        /* \"#utility.yul\":10341:10343   */\n      dup2\n        /* \"#utility.yul\":10333:10339   */\n      dup8\n        /* \"#utility.yul\":10329:10344   */\n      add\n        /* \"#utility.yul\":10322:10365   */\n      mstore\n      pop\n        /* \"#utility.yul\":10388:10392   */\n      0x80\n        /* \"#utility.yul\":10441:10443   */\n      dup1\n        /* \"#utility.yul\":10437:10439   */\n      dup4\n        /* \"#utility.yul\":10433:10444   */\n      add\n        /* \"#utility.yul\":10427:10445   */\n      mload\n        /* \"#utility.yul\":10458:10506   */\n      tag_580\n        /* \"#utility.yul\":10491:10505   */\n      dup2\n        /* \"#utility.yul\":10458:10506   */\n      tag_494\n      jump\t// in\n    tag_580:\n        /* \"#utility.yul\":10526:10541   */\n      swap1\n      dup7\n      add\n        /* \"#utility.yul\":10519:10558   */\n      mstore\n        /* \"#utility.yul\":10581:10585   */\n      0xa0\n        /* \"#utility.yul\":10628:10639   */\n      dup3\n      dup2\n      add\n        /* \"#utility.yul\":10622:10640   */\n      mload\n        /* \"#utility.yul\":10605:10620   */\n      swap1\n      dup7\n      add\n        /* \"#utility.yul\":10598:10641   */\n      mstore\n        /* \"#utility.yul\":10664:10668   */\n      0xc0\n        /* \"#utility.yul\":10711:10722   */\n      dup1\n      dup4\n      add\n        /* \"#utility.yul\":10705:10723   */\n      mload\n        /* \"#utility.yul\":10688:10703   */\n      swap1\n      dup7\n      add\n        /* \"#utility.yul\":10681:10724   */\n      mstore\n        /* \"#utility.yul\":10747:10751   */\n      0xe0\n        /* \"#utility.yul\":10794:10805   */\n      swap2\n      dup3\n      add\n        /* \"#utility.yul\":10788:10806   */\n      mload\n        /* \"#utility.yul\":10771:10786   */\n      swap2\n      swap1\n      swap5\n      add\n        /* \"#utility.yul\":10764:10807   */\n      mstore\n        /* \"#utility.yul\":10894:10906   */\n      swap4\n      dup7\n      add\n      swap4\n        /* \"#utility.yul\":10859:10874   */\n      swap1\n      dup7\n      add\n      swap1\n        /* \"#utility.yul\":9832:9833   */\n      0x01\n        /* \"#utility.yul\":9825:9834   */\n      add\n        /* \"#utility.yul\":9796:10916   */\n      jump(tag_576)\n    tag_578:\n      pop\n        /* \"#utility.yul\":10933:10939   */\n      swap1\n      swap9\n        /* \"#utility.yul\":9222:10945   */\n      swap8\n      pop\n      pop\n      pop\n      pop\n      pop\n      pop\n      pop\n      pop\n      jump\t// out\n        /* \"#utility.yul\":10950:12068   */\n    tag_57:\n        /* \"#utility.yul\":11384:11388   */\n      0x00\n        /* \"#utility.yul\":11413:11416   */\n      0x0180\n      sub(shl(0xa0, 0x01), 0x01)\n        /* \"#utility.yul\":11447:11453   */\n      dup14\n        /* \"#utility.yul\":11443:11498   */\n      and\n        /* \"#utility.yul\":11432:11441   */\n      dup4\n        /* \"#utility.yul\":11425:11499   */\n      mstore\n        /* \"#utility.yul\":11535:11541   */\n      dup12\n        /* \"#utility.yul\":11530:11532   */\n      0x20\n        /* \"#utility.yul\":11519:11528   */\n      dup5\n        /* \"#utility.yul\":11515:11533   */\n      add\n        /* \"#utility.yul\":11508:11542   */\n      mstore\n        /* \"#utility.yul\":11578:11580   */\n      dup1\n        /* \"#utility.yul\":11573:11575   */\n      0x40\n        /* \"#utility.yul\":11562:11571   */\n      dup5\n        /* \"#utility.yul\":11558:11576   */\n      add\n        /* \"#utility.yul\":11551:11581   */\n      mstore\n        /* \"#utility.yul\":11604:11649   */\n      tag_582\n        /* \"#utility.yul\":11645:11647   */\n      dup2\n        /* \"#utility.yul\":11634:11643   */\n      dup5\n        /* \"#utility.yul\":11630:11648   */\n      add\n        /* \"#utility.yul\":11622:11628   */\n      dup13\n        /* \"#utility.yul\":11604:11649   */\n      tag_491\n      jump\t// in\n    tag_582:\n        /* \"#utility.yul\":11590:11649   */\n      swap1\n      pop\n        /* \"#utility.yul\":11697:11706   */\n      dup3\n        /* \"#utility.yul\":11689:11695   */\n      dup2\n        /* \"#utility.yul\":11685:11707   */\n      sub\n        /* \"#utility.yul\":11680:11682   */\n      0x60\n        /* \"#utility.yul\":11669:11678   */\n      dup5\n        /* \"#utility.yul\":11665:11683   */\n      add\n        /* \"#utility.yul\":11658:11708   */\n      mstore\n        /* \"#utility.yul\":11725:11758   */\n      tag_583\n        /* \"#utility.yul\":11751:11757   */\n      dup2\n        /* \"#utility.yul\":11743:11749   */\n      dup12\n        /* \"#utility.yul\":11725:11758   */\n      tag_491\n      jump\t// in\n    tag_583:\n        /* \"#utility.yul\":11717:11758   */\n      swap2\n      pop\n      pop\n        /* \"#utility.yul\":11795:11801   */\n      dup8\n        /* \"#utility.yul\":11789:11792   */\n      0x80\n        /* \"#utility.yul\":11778:11787   */\n      dup4\n        /* \"#utility.yul\":11774:11793   */\n      add\n        /* \"#utility.yul\":11767:11802   */\n      mstore\n        /* \"#utility.yul\":11839:11845   */\n      dup7\n        /* \"#utility.yul\":11833:11836   */\n      0xa0\n        /* \"#utility.yul\":11822:11831   */\n      dup4\n        /* \"#utility.yul\":11818:11837   */\n      add\n        /* \"#utility.yul\":11811:11846   */\n      mstore\n        /* \"#utility.yul\":11883:11889   */\n      dup6\n        /* \"#utility.yul\":11877:11880   */\n      0xc0\n        /* \"#utility.yul\":11866:11875   */\n      dup4\n        /* \"#utility.yul\":11862:11881   */\n      add\n        /* \"#utility.yul\":11855:11890   */\n      mstore\n        /* \"#utility.yul\":11899:11958   */\n      tag_584\n        /* \"#utility.yul\":11953:11956   */\n      0xe0\n        /* \"#utility.yul\":11942:11951   */\n      dup4\n        /* \"#utility.yul\":11938:11957   */\n      add\n        /* \"#utility.yul\":11930:11936   */\n      dup7\n        /* \"#utility.yul\":11899:11958   */\n      tag_497\n      jump\t// in\n    tag_584:\n        /* \"#utility.yul\":11995:12001   */\n      dup4\n        /* \"#utility.yul\":11989:11992   */\n      0x0140\n        /* \"#utility.yul\":11978:11987   */\n      dup4\n        /* \"#utility.yul\":11974:11993   */\n      add\n        /* \"#utility.yul\":11967:12002   */\n      mstore\n        /* \"#utility.yul\":12053:12059   */\n      dup3\n        /* \"#utility.yul\":12046:12060   */\n      iszero\n        /* \"#utility.yul\":12039:12061   */\n      iszero\n        /* \"#utility.yul\":12033:12036   */\n      0x0160\n        /* \"#utility.yul\":12022:12031   */\n      dup4\n        /* \"#utility.yul\":12018:12037   */\n      add\n        /* \"#utility.yul\":12011:12062   */\n      mstore\n        /* \"#utility.yul\":10950:12068   */\n      swap12\n      swap11\n      pop\n      pop\n      pop\n      pop\n      pop\n      pop\n      pop\n      pop\n      pop\n      pop\n      pop\n      jump\t// out\n        /* \"#utility.yul\":12073:12453   */\n    tag_65:\n        /* \"#utility.yul\":12152:12153   */\n      0x01\n        /* \"#utility.yul\":12148:12160   */\n      dup2\n      dup2\n      shr\n      swap1\n        /* \"#utility.yul\":12195:12207   */\n      dup3\n      and\n      dup1\n        /* \"#utility.yul\":12216:12277   */\n      tag_586\n      jumpi\n        /* \"#utility.yul\":12270:12274   */\n      0x7f\n        /* \"#utility.yul\":12262:12268   */\n      dup3\n        /* \"#utility.yul\":12258:12275   */\n      and\n        /* \"#utility.yul\":12248:12275   */\n      swap2\n      pop\n        /* \"#utility.yul\":12216:12277   */\n    tag_586:\n        /* \"#utility.yul\":12323:12325   */\n      0x20\n        /* \"#utility.yul\":12315:12321   */\n      dup3\n        /* \"#utility.yul\":12312:12326   */\n      lt\n        /* \"#utility.yul\":12292:12310   */\n      dup2\n        /* \"#utility.yul\":12289:12327   */\n      sub\n        /* \"#utility.yul\":12286:12447   */\n      tag_587\n      jumpi\n        /* \"#utility.yul\":12369:12379   */\n      0x4e487b71\n        /* \"#utility.yul\":12364:12367   */\n      0xe0\n        /* \"#utility.yul\":12360:12380   */\n      shl\n        /* \"#utility.yul\":12357:12358   */\n      0x00\n        /* \"#utility.yul\":12350:12381   */\n      mstore\n        /* \"#utility.yul\":12404:12408   */\n      0x22\n        /* \"#utility.yul\":12401:12402   */\n      0x04\n        /* \"#utility.yul\":12394:12409   */\n      mstore\n        /* \"#utility.yul\":12432:12436   */\n      0x24\n        /* \"#utility.yul\":12429:12430   */\n      0x00\n        /* \"#utility.yul\":12422:12437   */\n      revert\n        /* \"#utility.yul\":12286:12447   */\n    tag_587:\n      pop\n        /* \"#utility.yul\":12073:12453   */\n      swap2\n      swap1\n      pop\n      jump\t// out\n        /* \"#utility.yul\":12458:12585   */\n    tag_292:\n        /* \"#utility.yul\":12519:12529   */\n      0x4e487b71\n        /* \"#utility.yul\":12514:12517   */\n      0xe0\n        /* \"#utility.yul\":12510:12530   */\n      shl\n        /* \"#utility.yul\":12507:12508   */\n      0x00\n        /* \"#utility.yul\":12500:12531   */\n      mstore\n        /* \"#utility.yul\":12550:12554   */\n      0x41\n        /* \"#utility.yul\":12547:12548   */\n      0x04\n        /* \"#utility.yul\":12540:12555   */\n      mstore\n        /* \"#utility.yul\":12574:12578   */\n      0x24\n        /* \"#utility.yul\":12571:12572   */\n      0x00\n        /* \"#utility.yul\":12564:12579   */\n      revert\n        /* \"#utility.yul\":12716:13234   */\n    tag_502:\n        /* \"#utility.yul\":12818:12820   */\n      0x1f\n        /* \"#utility.yul\":12813:12816   */\n      dup3\n        /* \"#utility.yul\":12810:12821   */\n      gt\n        /* \"#utility.yul\":12807:13228   */\n      iszero\n      tag_444\n      jumpi\n        /* \"#utility.yul\":12854:12859   */\n      dup1\n        /* \"#utility.yul\":12851:12852   */\n      0x00\n        /* \"#utility.yul\":12844:12860   */\n      mstore\n        /* \"#utility.yul\":12898:12902   */\n      0x20\n        /* \"#utility.yul\":12895:12896   */\n      0x00\n        /* \"#utility.yul\":12885:12903   */\n      keccak256\n        /* \"#utility.yul\":12968:12970   */\n      0x1f\n        /* \"#utility.yul\":12956:12966   */\n      dup5\n        /* \"#utility.yul\":12952:12971   */\n      add\n        /* \"#utility.yul\":12949:12950   */\n      0x05\n        /* \"#utility.yul\":12945:12972   */\n      shr\n        /* \"#utility.yul\":12939:12943   */\n      dup2\n        /* \"#utility.yul\":12935:12973   */\n      add\n        /* \"#utility.yul\":13004:13008   */\n      0x20\n        /* \"#utility.yul\":12992:13002   */\n      dup6\n        /* \"#utility.yul\":12989:13009   */\n      lt\n        /* \"#utility.yul\":12986:13033   */\n      iszero\n      tag_592\n      jumpi\n      pop\n        /* \"#utility.yul\":13027:13031   */\n      dup1\n        /* \"#utility.yul\":12986:13033   */\n    tag_592:\n        /* \"#utility.yul\":13082:13084   */\n      0x1f\n        /* \"#utility.yul\":13077:13080   */\n      dup5\n        /* \"#utility.yul\":13073:13085   */\n      add\n        /* \"#utility.yul\":13070:13071   */\n      0x05\n        /* \"#utility.yul\":13066:13086   */\n      shr\n        /* \"#utility.yul\":13060:13064   */\n      dup3\n        /* \"#utility.yul\":13056:13087   */\n      add\n        /* \"#utility.yul\":13046:13087   */\n      swap2\n      pop\n        /* \"#utility.yul\":13137:13218   */\n    tag_593:\n        /* \"#utility.yul\":13155:13157   */\n      dup2\n        /* \"#utility.yul\":13148:13153   */\n      dup2\n        /* \"#utility.yul\":13145:13158   */\n      lt\n        /* \"#utility.yul\":13137:13218   */\n      iszero\n      tag_595\n      jumpi\n        /* \"#utility.yul\":13214:13215   */\n      0x00\n        /* \"#utility.yul\":13200:13216   */\n      dup2\n      sstore\n        /* \"#utility.yul\":13181:13182   */\n      0x01\n        /* \"#utility.yul\":13170:13183   */\n      add\n        /* \"#utility.yul\":13137:13218   */\n      jump(tag_593)\n    tag_595:\n        /* \"#utility.yul\":13141:13144   */\n      pop\n      pop\n        /* \"#utility.yul\":12716:13234   */\n      pop\n      pop\n      pop\n      jump\t// out\n        /* \"#utility.yul\":13410:14608   */\n    tag_214:\n        /* \"#utility.yul\":13534:13552   */\n      0xffffffffffffffff\n        /* \"#utility.yul\":13529:13532   */\n      dup4\n        /* \"#utility.yul\":13526:13553   */\n      gt\n        /* \"#utility.yul\":13523:13576   */\n      iszero\n      tag_599\n      jumpi\n        /* \"#utility.yul\":13556:13574   */\n      tag_599\n      tag_292\n      jump\t// in\n    tag_599:\n        /* \"#utility.yul\":13585:13679   */\n      tag_600\n        /* \"#utility.yul\":13675:13678   */\n      dup4\n        /* \"#utility.yul\":13635:13673   */\n      tag_601\n        /* \"#utility.yul\":13667:13671   */\n      dup4\n        /* \"#utility.yul\":13661:13672   */\n      sload\n        /* \"#utility.yul\":13635:13673   */\n      tag_65\n      jump\t// in\n    tag_601:\n        /* \"#utility.yul\":13629:13633   */\n      dup4\n        /* \"#utility.yul\":13585:13679   */\n      tag_502\n      jump\t// in\n    tag_600:\n        /* \"#utility.yul\":13705:13706   */\n      0x00\n        /* \"#utility.yul\":13730:13732   */\n      0x1f\n        /* \"#utility.yul\":13725:13728   */\n      dup5\n        /* \"#utility.yul\":13722:13733   */\n      gt\n        /* \"#utility.yul\":13747:13748   */\n      0x01\n        /* \"#utility.yul\":13742:14350   */\n      dup2\n      eq\n      tag_603\n      jumpi\n        /* \"#utility.yul\":14394:14395   */\n      0x00\n        /* \"#utility.yul\":14411:14414   */\n      dup6\n        /* \"#utility.yul\":14408:14501   */\n      iszero\n      tag_604\n      jumpi\n      pop\n        /* \"#utility.yul\":14467:14486   */\n      dup4\n      dup3\n      add\n        /* \"#utility.yul\":14454:14487   */\n      calldataload\n        /* \"#utility.yul\":14408:14501   */\n    tag_604:\n      not(0x00)\n        /* \"#utility.yul\":13367:13368   */\n      0x03\n        /* \"#utility.yul\":13363:13374   */\n      dup8\n      swap1\n      shl\n        /* \"#utility.yul\":13359:13383   */\n      shr\n        /* \"#utility.yul\":13355:13384   */\n      not\n        /* \"#utility.yul\":13345:13385   */\n      and\n        /* \"#utility.yul\":13391:13392   */\n      0x01\n        /* \"#utility.yul\":13387:13398   */\n      dup7\n      swap1\n      shl\n        /* \"#utility.yul\":13342:13399   */\n      or\n        /* \"#utility.yul\":14514:14592   */\n      dup4\n      sstore\n        /* \"#utility.yul\":13715:14602   */\n      jump(tag_595)\n        /* \"#utility.yul\":13742:14350   */\n    tag_603:\n        /* \"#utility.yul\":12663:12664   */\n      0x00\n        /* \"#utility.yul\":12656:12670   */\n      dup4\n      dup2\n      mstore\n        /* \"#utility.yul\":12700:12704   */\n      0x20\n        /* \"#utility.yul\":12687:12705   */\n      dup2\n      keccak256\n      not(0x1f)\n        /* \"#utility.yul\":13778:13795   */\n      dup8\n      and\n      swap2\n        /* \"#utility.yul\":13893:14122   */\n    tag_607:\n        /* \"#utility.yul\":13907:13914   */\n      dup3\n        /* \"#utility.yul\":13904:13905   */\n      dup2\n        /* \"#utility.yul\":13901:13915   */\n      lt\n        /* \"#utility.yul\":13893:14122   */\n      iszero\n      tag_609\n      jumpi\n        /* \"#utility.yul\":13996:14015   */\n      dup7\n      dup6\n      add\n        /* \"#utility.yul\":13983:14016   */\n      calldataload\n        /* \"#utility.yul\":13968:14017   */\n      dup3\n      sstore\n        /* \"#utility.yul\":14103:14107   */\n      0x20\n        /* \"#utility.yul\":14088:14108   */\n      swap5\n      dup6\n      add\n      swap5\n        /* \"#utility.yul\":14056:14057   */\n      0x01\n        /* \"#utility.yul\":14044:14058   */\n      swap1\n      swap3\n      add\n      swap2\n        /* \"#utility.yul\":13923:13935   */\n      add\n        /* \"#utility.yul\":13893:14122   */\n      jump(tag_607)\n    tag_609:\n        /* \"#utility.yul\":13897:13900   */\n      pop\n        /* \"#utility.yul\":14150:14153   */\n      dup7\n        /* \"#utility.yul\":14141:14148   */\n      dup3\n        /* \"#utility.yul\":14138:14154   */\n      lt\n        /* \"#utility.yul\":14135:14294   */\n      iszero\n      tag_610\n      jumpi\n        /* \"#utility.yul\":14274:14275   */\n      0x00\n        /* \"#utility.yul\":14270:14276   */\n      not\n        /* \"#utility.yul\":14264:14267   */\n      0xf8\n        /* \"#utility.yul\":14258:14261   */\n      dup9\n        /* \"#utility.yul\":14255:14256   */\n      0x03\n        /* \"#utility.yul\":14251:14262   */\n      shl\n        /* \"#utility.yul\":14247:14268   */\n      and\n        /* \"#utility.yul\":14243:14277   */\n      shr\n        /* \"#utility.yul\":14239:14278   */\n      not\n        /* \"#utility.yul\":14226:14235   */\n      dup5\n        /* \"#utility.yul\":14221:14224   */\n      dup8\n        /* \"#utility.yul\":14217:14236   */\n      add\n        /* \"#utility.yul\":14204:14237   */\n      calldataload\n        /* \"#utility.yul\":14200:14279   */\n      and\n        /* \"#utility.yul\":14192:14198   */\n      dup2\n        /* \"#utility.yul\":14185:14280   */\n      sstore\n        /* \"#utility.yul\":14135:14294   */\n    tag_610:\n      pop\n      pop\n        /* \"#utility.yul\":14337:14338   */\n      0x01\n        /* \"#utility.yul\":14331:14334   */\n      dup6\n        /* \"#utility.yul\":14328:14329   */\n      0x01\n        /* \"#utility.yul\":14324:14335   */\n      shl\n        /* \"#utility.yul\":14320:14339   */\n      add\n        /* \"#utility.yul\":14314:14318   */\n      dup4\n        /* \"#utility.yul\":14307:14340   */\n      sstore\n        /* \"#utility.yul\":13715:14602   */\n      pop\n      pop\n        /* \"#utility.yul\":13410:14608   */\n      pop\n      pop\n      pop\n      jump\t// out\n        /* \"#utility.yul\":14613:14731   */\n    tag_504:\n        /* \"#utility.yul\":14699:14704   */\n      dup1\n        /* \"#utility.yul\":14692:14705   */\n      iszero\n        /* \"#utility.yul\":14685:14706   */\n      iszero\n        /* \"#utility.yul\":14678:14683   */\n      dup2\n        /* \"#utility.yul\":14675:14707   */\n      eq\n        /* \"#utility.yul\":14665:14725   */\n      tag_474\n      jumpi\n        /* \"#utility.yul\":14721:14722   */\n      0x00\n        /* \"#utility.yul\":14718:14719   */\n      dup1\n        /* \"#utility.yul\":14711:14723   */\n      revert\n        /* \"#utility.yul\":14736:14977   */\n    tag_217:\n        /* \"#utility.yul\":14792:14798   */\n      0x00\n        /* \"#utility.yul\":14845:14847   */\n      0x20\n        /* \"#utility.yul\":14833:14842   */\n      dup3\n        /* \"#utility.yul\":14824:14831   */\n      dup5\n        /* \"#utility.yul\":14820:14843   */\n      sub\n        /* \"#utility.yul\":14816:14848   */\n      slt\n        /* \"#utility.yul\":14813:14865   */\n      iszero\n      tag_614\n      jumpi\n        /* \"#utility.yul\":14861:14862   */\n      0x00\n        /* \"#utility.yul\":14858:14859   */\n      dup1\n        /* \"#utility.yul\":14851:14863   */\n      revert\n        /* \"#utility.yul\":14813:14865   */\n    tag_614:\n        /* \"#utility.yul\":14900:14909   */\n      dup2\n        /* \"#utility.yul\":14887:14910   */\n      calldataload\n        /* \"#utility.yul\":14919:14947   */\n      tag_574\n        /* \"#utility.yul\":14941:14946   */\n      dup2\n        /* \"#utility.yul\":14919:14947   */\n      tag_504\n      jump\t// in\n        /* \"#utility.yul\":14982:15101   */\n    tag_505:\n        /* \"#utility.yul\":15075:15076   */\n      0x04\n        /* \"#utility.yul\":15068:15073   */\n      dup2\n        /* \"#utility.yul\":15065:15077   */\n      lt\n        /* \"#utility.yul\":15055:15095   */\n      tag_474\n      jumpi\n        /* \"#utility.yul\":15091:15092   */\n      0x00\n        /* \"#utility.yul\":15088:15089   */\n      dup1\n        /* \"#utility.yul\":15081:15093   */\n      revert\n        /* \"#utility.yul\":15106:15929   */\n    tag_221:\n        /* \"#utility.yul\":15277:15282   */\n      dup2\n        /* \"#utility.yul\":15264:15283   */\n      calldataload\n        /* \"#utility.yul\":15292:15322   */\n      tag_619\n        /* \"#utility.yul\":15314:15321   */\n      dup2\n        /* \"#utility.yul\":15292:15322   */\n      tag_504\n      jump\t// in\n    tag_619:\n        /* \"#utility.yul\":15341:15352   */\n      dup2\n      sload\n      not(0xff)\n        /* \"#utility.yul\":15429:15446   */\n      dup2\n      and\n        /* \"#utility.yul\":15382:15397   */\n      swap2\n      iszero\n        /* \"#utility.yul\":15375:15398   */\n      iszero\n        /* \"#utility.yul\":15400:15403   */\n      0xff\n        /* \"#utility.yul\":15371:15404   */\n      and\n        /* \"#utility.yul\":15426:15451   */\n      swap2\n      dup3\n      or\n        /* \"#utility.yul\":15413:15452   */\n      dup4\n      sstore\n        /* \"#utility.yul\":15500:15502   */\n      0x20\n        /* \"#utility.yul\":15489:15503   */\n      dup5\n      add\n        /* \"#utility.yul\":15476:15504   */\n      calldataload\n        /* \"#utility.yul\":15513:15543   */\n      tag_620\n        /* \"#utility.yul\":15476:15504   */\n      dup2\n        /* \"#utility.yul\":15513:15543   */\n      tag_504\n      jump\t// in\n    tag_620:\n        /* \"#utility.yul\":15599:15604   */\n      0xff00\n        /* \"#utility.yul\":15580:15595   */\n      swap1\n      iszero\n        /* \"#utility.yul\":15573:15596   */\n      iszero\n        /* \"#utility.yul\":15570:15571   */\n      0x08\n        /* \"#utility.yul\":15566:15597   */\n      shl\n        /* \"#utility.yul\":15562:15605   */\n      and\n      not(0xffff)\n        /* \"#utility.yul\":15633:15652   */\n      dup3\n      and\n        /* \"#utility.yul\":15630:15657   */\n      dup4\n      or\n        /* \"#utility.yul\":15627:15662   */\n      dup2\n      or\n        /* \"#utility.yul\":15614:15663   */\n      dup5\n      sstore\n        /* \"#utility.yul\":15711:15713   */\n      0x40\n        /* \"#utility.yul\":15700:15714   */\n      dup6\n      add\n        /* \"#utility.yul\":15687:15715   */\n      calldataload\n        /* \"#utility.yul\":15724:15775   */\n      tag_621\n        /* \"#utility.yul\":15687:15715   */\n      dup2\n        /* \"#utility.yul\":15724:15775   */\n      tag_505\n      jump\t// in\n    tag_621:\n        /* \"#utility.yul\":15784:15825   */\n      tag_622\n        /* \"#utility.yul\":15817:15824   */\n      dup2\n        /* \"#utility.yul\":15784:15825   */\n      tag_494\n      jump\t// in\n    tag_622:\n        /* \"#utility.yul\":15912:15920   */\n      0xff0000\n        /* \"#utility.yul\":15902:15909   */\n      dup2\n        /* \"#utility.yul\":15898:15900   */\n      0x10\n        /* \"#utility.yul\":15894:15910   */\n      shl\n        /* \"#utility.yul\":15890:15921   */\n      and\n        /* \"#utility.yul\":15884:15886   */\n      dup5\n        /* \"#utility.yul\":15872:15880   */\n      0xffffff\n        /* \"#utility.yul\":15868:15881   */\n      not\n        /* \"#utility.yul\":15864:15866   */\n      dup6\n        /* \"#utility.yul\":15860:15882   */\n      and\n        /* \"#utility.yul\":15857:15887   */\n      or\n        /* \"#utility.yul\":15853:15855   */\n      dup4\n        /* \"#utility.yul\":15850:15888   */\n      or\n        /* \"#utility.yul\":15847:15922   */\n      or\n        /* \"#utility.yul\":15841:15845   */\n      dup6\n        /* \"#utility.yul\":15834:15923   */\n      sstore\n      pop\n      pop\n      pop\n      pop\n        /* \"#utility.yul\":15106:15929   */\n      pop\n      pop\n      jump\t// out\n        /* \"#utility.yul\":15934:16061   */\n    tag_227:\n        /* \"#utility.yul\":15995:16005   */\n      0x4e487b71\n        /* \"#utility.yul\":15990:15993   */\n      0xe0\n        /* \"#utility.yul\":15986:16006   */\n      shl\n        /* \"#utility.yul\":15983:15984   */\n      0x00\n        /* \"#utility.yul\":15976:16007   */\n      mstore\n        /* \"#utility.yul\":16026:16030   */\n      0x32\n        /* \"#utility.yul\":16023:16024   */\n      0x04\n        /* \"#utility.yul\":16016:16031   */\n      mstore\n        /* \"#utility.yul\":16050:16054   */\n      0x24\n        /* \"#utility.yul\":16047:16048   */\n      0x00\n        /* \"#utility.yul\":16040:16055   */\n      revert\n        /* \"#utility.yul\":16066:16588   */\n    tag_229:\n        /* \"#utility.yul\":16144:16148   */\n      0x00\n        /* \"#utility.yul\":16150:16156   */\n      dup1\n        /* \"#utility.yul\":16210:16221   */\n      dup4\n        /* \"#utility.yul\":16197:16222   */\n      calldataload\n        /* \"#utility.yul\":16304:16306   */\n      0x1e\n        /* \"#utility.yul\":16300:16307   */\n      not\n        /* \"#utility.yul\":16289:16297   */\n      dup5\n        /* \"#utility.yul\":16273:16287   */\n      calldatasize\n        /* \"#utility.yul\":16269:16298   */\n      sub\n        /* \"#utility.yul\":16265:16308   */\n      add\n        /* \"#utility.yul\":16245:16263   */\n      dup2\n        /* \"#utility.yul\":16241:16309   */\n      slt\n        /* \"#utility.yul\":16231:16327   */\n      tag_625\n      jumpi\n        /* \"#utility.yul\":16323:16324   */\n      0x00\n        /* \"#utility.yul\":16320:16321   */\n      dup1\n        /* \"#utility.yul\":16313:16325   */\n      revert\n        /* \"#utility.yul\":16231:16327   */\n    tag_625:\n        /* \"#utility.yul\":16350:16383   */\n      dup4\n      add\n        /* \"#utility.yul\":16402:16422   */\n      dup1\n      calldataload\n      swap2\n      pop\n        /* \"#utility.yul\":16445:16463   */\n      0xffffffffffffffff\n        /* \"#utility.yul\":16434:16464   */\n      dup3\n      gt\n        /* \"#utility.yul\":16431:16481   */\n      iszero\n      tag_626\n      jumpi\n        /* \"#utility.yul\":16477:16478   */\n      0x00\n        /* \"#utility.yul\":16474:16475   */\n      dup1\n        /* \"#utility.yul\":16467:16479   */\n      revert\n        /* \"#utility.yul\":16431:16481   */\n    tag_626:\n        /* \"#utility.yul\":16510:16514   */\n      0x20\n        /* \"#utility.yul\":16498:16515   */\n      add\n      swap2\n      pop\n        /* \"#utility.yul\":16541:16555   */\n      calldatasize\n        /* \"#utility.yul\":16537:16564   */\n      dup2\n      swap1\n      sub\n        /* \"#utility.yul\":16527:16565   */\n      dup3\n      sgt\n        /* \"#utility.yul\":16524:16582   */\n      iszero\n      tag_554\n      jumpi\n        /* \"#utility.yul\":16578:16579   */\n      0x00\n        /* \"#utility.yul\":16575:16576   */\n      dup1\n        /* \"#utility.yul\":16568:16580   */\n      revert\n        /* \"#utility.yul\":16593:16825   */\n    tag_282:\n        /* \"#utility.yul\":16632:16635   */\n      0x00\n        /* \"#utility.yul\":16653:16670   */\n      0x01\n      dup3\n      add\n        /* \"#utility.yul\":16650:16790   */\n      tag_629\n      jumpi\n        /* \"#utility.yul\":16712:16722   */\n      0x4e487b71\n        /* \"#utility.yul\":16707:16710   */\n      0xe0\n        /* \"#utility.yul\":16703:16723   */\n      shl\n        /* \"#utility.yul\":16700:16701   */\n      0x00\n        /* \"#utility.yul\":16693:16724   */\n      mstore\n        /* \"#utility.yul\":16747:16751   */\n      0x11\n        /* \"#utility.yul\":16744:16745   */\n      0x04\n        /* \"#utility.yul\":16737:16752   */\n      mstore\n        /* \"#utility.yul\":16775:16779   */\n      0x24\n        /* \"#utility.yul\":16772:16773   */\n      0x00\n        /* \"#utility.yul\":16765:16780   */\n      revert\n        /* \"#utility.yul\":16650:16790   */\n    tag_629:\n      pop\n        /* \"#utility.yul\":16817:16818   */\n      0x01\n        /* \"#utility.yul\":16806:16819   */\n      add\n      swap1\n        /* \"#utility.yul\":16593:16825   */\n      jump\t// out\n        /* \"#utility.yul\":16830:17391   */\n    tag_288:\n        /* \"#utility.yul\":17047:17053   */\n      dup4\n        /* \"#utility.yul\":17036:17045   */\n      dup2\n        /* \"#utility.yul\":17029:17054   */\n      mstore\n        /* \"#utility.yul\":17090:17092   */\n      0x40\n        /* \"#utility.yul\":17085:17087   */\n      0x20\n        /* \"#utility.yul\":17074:17083   */\n      dup3\n        /* \"#utility.yul\":17070:17088   */\n      add\n        /* \"#utility.yul\":17063:17093   */\n      mstore\n        /* \"#utility.yul\":17129:17135   */\n      dup2\n        /* \"#utility.yul\":17124:17126   */\n      0x40\n        /* \"#utility.yul\":17113:17122   */\n      dup3\n        /* \"#utility.yul\":17109:17127   */\n      add\n        /* \"#utility.yul\":17102:17136   */\n      mstore\n        /* \"#utility.yul\":17010:17014   */\n      0x00\n        /* \"#utility.yul\":17159:17225   */\n      0x07ffffffffffffffffffffffffffffffffffffffffffffffffffffffffffffff\n        /* \"#utility.yul\":17151:17157   */\n      dup4\n        /* \"#utility.yul\":17148:17226   */\n      gt\n        /* \"#utility.yul\":17145:17243   */\n      iszero\n      tag_631\n      jumpi\n        /* \"#utility.yul\":17239:17240   */\n      0x00\n        /* \"#utility.yul\":17236:17237   */\n      dup1\n        /* \"#utility.yul\":17229:17241   */\n      revert\n        /* \"#utility.yul\":17145:17243   */\n    tag_631:\n        /* \"#utility.yul\":17273:17279   */\n      dup3\n        /* \"#utility.yul\":17270:17271   */\n      0x05\n        /* \"#utility.yul\":17266:17280   */\n      shl\n        /* \"#utility.yul\":17330:17336   */\n      dup1\n        /* \"#utility.yul\":17322:17328   */\n      dup6\n        /* \"#utility.yul\":17317:17319   */\n      0x60\n        /* \"#utility.yul\":17306:17315   */\n      dup6\n        /* \"#utility.yul\":17302:17320   */\n      add\n        /* \"#utility.yul\":17289:17337   */\n      calldatacopy\n        /* \"#utility.yul\":17358:17380   */\n      swap2\n      swap1\n      swap2\n      add\n        /* \"#utility.yul\":17382:17384   */\n      0x60\n        /* \"#utility.yul\":17354:17385   */\n      add\n      swap5\n        /* \"#utility.yul\":16830:17391   */\n      swap4\n      pop\n      pop\n      pop\n      pop\n      jump\t// out\n        /* \"#utility.yul\":17396:17684   */\n    tag_471:\n        /* \"#utility.yul\":17478:17484   */\n      0x00\n        /* \"#utility.yul\":17531:17533   */\n      0x20\n        /* \"#utility.yul\":17519:17528   */\n      dup3\n        /* \"#utility.yul\":17510:17517   */\n      dup5\n        /* \"#utility.yul\":17506:17529   */\n      sub\n        /* \"#utility.yul\":17502:17534   */\n      slt\n        /* \"#utility.yul\":17499:17551   */\n      iszero\n      tag_633\n      jumpi\n        /* \"#utility.yul\":17547:17548   */\n      0x00\n        /* \"#utility.yul\":17544:17545   */\n      dup1\n        /* \"#utility.yul\":17537:17549   */\n      revert\n        /* \"#utility.yul\":17499:17551   */\n    tag_633:\n        /* \"#utility.yul\":17586:17595   */\n      dup2\n        /* \"#utility.yul\":17573:17596   */\n      calldataload\n        /* \"#utility.yul\":17605:17654   */\n      tag_574\n        /* \"#utility.yul\":17648:17653   */\n      dup2\n        /* \"#utility.yul\":17605:17654   */\n      tag_505\n      jump\t// in\n\n    auxdata: 0xa264697066735822122053aa18014b0701c5bfc9a021e9946de404510ec47129e444d9446e28494b5f4964736f6c63430008190033\n}\n",
    "bytecode": {
      "linkReferences": {},
      "object": "6080604052348015600e575f80fd5b50612f548061001c5f395ff3fe608060405234801561000f575f80fd5b506004361061009f575f3560e01c806321b91db5116100725780639137b2e9116100585780639137b2e9146101485780639534e63714610168578063ac2f00741461017b575f80fd5b806321b91db5146101225780632fa48e9e14610135575f80fd5b806314956b6f146100a35780631994a615146100cc5780631e25e730146100ed5780631f35b51d1461010d575b5f80fd5b6100b66100b136600461262f565b6101a4565b6040516100c39190612687565b60405180910390f35b6100df6100da366004612710565b61078e565b6040519081526020016100c3565b6101006100fb366004612710565b6107b9565b6040516100c39190612832565b61012061011b36600461292f565b610df7565b005b6100df6101303660046129cc565b61109b565b610120610143366004612a8b565b611292565b61015b610156366004612ad3565b61172a565b6040516100c39190612af3565b61012061017636600461292f565b611b64565b61018e61018936600461292f565b611e2e565b6040516100c39a99989796959493929190612bb8565b604080518082019091525f8152606060208201525f6101c284611fff565b604080516101608101825282546001600160a01b031681526001830154602082015260028301805493945061048b9391928592908401919061020390612c35565b80601f016020809104026020016040519081016040528092919081815260200182805461022f90612c35565b801561027a5780601f106102515761010080835404028352916020019161027a565b820191905f5260205f20905b81548152906001019060200180831161025d57829003601f168201915b5050505050815260200160038201805461029390612c35565b80601f01602080910402602001604051908101604052809291908181526020018280546102bf90612c35565b801561030a5780601f106102e15761010080835404028352916020019161030a565b820191905f5260205f20905b8154815290600101906020018083116102ed57829003601f168201915b50505050508152602001600482015481526020016005820154815260200160068201805480602002602001604051908101604052809291908181526020015f905b828210156103f3578382905f5260205f2001805461036890612c35565b80601f016020809104026020016040519081016040528092919081815260200182805461039490612c35565b80156103df5780601f106103b6576101008083540402835291602001916103df565b820191905f5260205f20905b8154815290600101906020018083116103c257829003601f168201915b50505050508152602001906001019061034b565b5050509082525060078201546020808301919091526040805160608101825260088501805460ff8082161515845261010082048116151595840195909552948301949193909284019162010000900416600381111561045457610454612790565b600381111561046557610465612790565b905250815260098201546020820152600a9091015460ff16151560409091015284612077565b6104a857604051634ca8886760e01b815260040160405180910390fd5b604080516101608101825282546001600160a01b03168152600183015460208201526002830180545f9361076d93928692918401916104e690612c35565b80601f016020809104026020016040519081016040528092919081815260200182805461051290612c35565b801561055d5780601f106105345761010080835404028352916020019161055d565b820191905f5260205f20905b81548152906001019060200180831161054057829003601f168201915b5050505050815260200160038201805461057690612c35565b80601f01602080910402602001604051908101604052809291908181526020018280546105a290612c35565b80156105ed5780601f106105c4576101008083540402835291602001916105ed565b820191905f5260205f20905b8154815290600101906020018083116105d057829003601f168201915b50505050508152602001600482015481526020016005820154815260200160068201805480602002602001604051908101604052809291908181526020015f905b828210156106d6578382905f5260205f2001805461064b90612c35565b80601f016020809104026020016040519081016040528092919081815260200182805461067790612c35565b80156106c25780601f10610699576101008083540402835291602001916106c2565b820191905f5260205f20905b8154815290600101906020018083116106a557829003601f168201915b50505050508152602001906001019061062e565b5050509082525060078201546020808301919091526040805160608101825260088501805460ff8082161515845261010082048116151595840195909552948301949193909284019162010000900416600381111561073757610737612790565b600381111561074857610748612790565b905250815260098201546020820152600a9091015460ff16151560409091015261217a565b60408051808201909152600790930154835260208301525090505b92915050565b6001602052815f5260405f2081815481106107a7575f80fd5b905f5260205f20015f91509150505481565b6107c16124cb565b5f6107cb83611fff565b60408051610180810190915281546001600160a01b0316815260028201805492935090916020830191906107fe90612c35565b80601f016020809104026020016040519081016040528092919081815260200182805461082a90612c35565b80156108755780601f1061084c57610100808354040283529160200191610875565b820191905f5260205f20905b81548152906001019060200180831161085857829003601f168201915b5050505050815260200182600301805461088e90612c35565b80601f01602080910402602001604051908101604052809291908181526020018280546108ba90612c35565b80156109055780601f106108dc57610100808354040283529160200191610905565b820191905f5260205f20905b8154815290600101906020018083116108e857829003601f168201915b50505050508152602001826004015481526020018260050154815260200182600601805480602002602001604051908101604052809291908181526020015f905b828210156109ee578382905f5260205f2001805461096390612c35565b80601f016020809104026020016040519081016040528092919081815260200182805461098f90612c35565b80156109da5780601f106109b1576101008083540402835291602001916109da565b820191905f5260205f20905b8154815290600101906020018083116109bd57829003601f168201915b505050505081526020019060010190610946565b50505050815260200182600701548152602001610cdf83604051806101600160405290815f82015f9054906101000a90046001600160a01b03166001600160a01b03166001600160a01b0316815260200160018201548152602001600282018054610a5890612c35565b80601f0160208091040260200160405190810160405280929190818152602001828054610a8490612c35565b8015610acf5780601f10610aa657610100808354040283529160200191610acf565b820191905f5260205f20905b815481529060010190602001808311610ab257829003601f168201915b50505050508152602001600382018054610ae890612c35565b80601f0160208091040260200160405190810160405280929190818152602001828054610b1490612c35565b8015610b5f5780601f10610b3657610100808354040283529160200191610b5f565b820191905f5260205f20905b815481529060010190602001808311610b4257829003601f168201915b50505050508152602001600482015481526020016005820154815260200160068201805480602002602001604051908101604052809291908181526020015f905b82821015610c48578382905f5260205f20018054610bbd90612c35565b80601f0160208091040260200160405190810160405280929190818152602001828054610be990612c35565b8015610c345780601f10610c0b57610100808354040283529160200191610c34565b820191905f5260205f20905b815481529060010190602001808311610c1757829003601f168201915b505050505081526020019060010190610ba0565b5050509082525060078201546020808301919091526040805160608101825260088501805460ff80821615158452610100820481161515958401959095529483019491939092840191620100009004166003811115610ca957610ca9612790565b6003811115610cba57610cba612790565b905250815260098201546020820152600a9091015460ff161515604090910152612269565b6003811115610cf057610cf0612790565b81526040805160608101825260088501805460ff8082161515845261010082048116151560208581019190915290950194929391929184019162010000909104166003811115610d4257610d42612790565b6003811115610d5357610d53612790565b90525081525f8581526002602090815260408083206001600160a01b038a168085529083528184205460ff16151583860152888452600583528184209084528252918290208054835181840281018401855281815293909401939091830182828015610ddc57602002820191905f5260205f20905b815481526020019060010190808311610dc8575b50505050508152602001826009015481525091505092915050565b5f610e0182611fff565b80549091506001600160a01b03163314610e2e57604051634ca8886760e01b815260040160405180910390fd5b6003604080516101608101825283546001600160a01b031681526001840154602082015260028401805461105b93869290840191610e6b90612c35565b80601f0160208091040260200160405190810160405280929190818152602001828054610e9790612c35565b8015610ee25780601f10610eb957610100808354040283529160200191610ee2565b820191905f5260205f20905b815481529060010190602001808311610ec557829003601f168201915b50505050508152602001600382018054610efb90612c35565b80601f0160208091040260200160405190810160405280929190818152602001828054610f2790612c35565b8015610f725780601f10610f4957610100808354040283529160200191610f72565b820191905f5260205f20905b815481529060010190602001808311610f5557829003601f168201915b50505050508152602001600482015481526020016005820154815260200160068201805480602002602001604051908101604052809291908181526020015f905b82821015610c48578382905f5260205f20018054610fd090612c35565b80601f0160208091040260200160405190810160405280929190818152602001828054610ffc90612c35565b80156110475780601f1061101e57610100808354040283529160200191611047565b820191905f5260205f20905b81548152906001019060200180831161102a57829003601f168201915b505050505081526020019060010190610fb3565b600381111561106c5761106c612790565b1461108a576040516387da8e5f60e01b815260040160405180910390fd5b600a01805460ff1916600117905550565b5f6110a68a8a6122be565b6110b08888612308565b6110ba8686612359565b6110c4848461239e565b6110cd8261246e565b5f8054600181018255908052600b81027f290decd9548b62a8d60345a988386fc84ba6bc95484008f6362f93160ef3e563810180547fffffffffffffffffffffffff000000000000000000000000000000000000000016331781557f290decd9548b62a8d60345a988386fc84ba6bc95484008f6362f93160ef3e5648201839055907f290decd9548b62a8d60345a988386fc84ba6bc95484008f6362f93160ef3e5650161117c8c8e83612ccc565b506003810161118c8a8c83612ccc565b50600481018890556111a46040850160208601612d93565b6111ae57866111b0565b5f5b60058201555f600782015583600882016111ca8282612dba565b5050426009820155600a8101805460ff191690555f5b8581101561123857816006018787838181106111fe576111fe612e31565b90506020028101906112109190612e45565b82546001810184555f93845260209093209092019161122f9183612ccc565b506001016111e0565b50335f818152600160208181526040808420805493840181558452908320909101859055518492917f253458ed40d765e300ef79d87f8b5a901191fbfc27d54b1ea052a6752908953c91a3509a9950505050505050505050565b5f61129c84611fff565b90506001604080516101608101825283546001600160a01b03168152600184015460208201526002840180546114cb938692908401916112db90612c35565b80601f016020809104026020016040519081016040528092919081815260200182805461130790612c35565b80156113525780601f1061132957610100808354040283529160200191611352565b820191905f5260205f20905b81548152906001019060200180831161133557829003601f168201915b5050505050815260200160038201805461136b90612c35565b80601f016020809104026020016040519081016040528092919081815260200182805461139790612c35565b80156113e25780601f106113b9576101008083540402835291602001916113e2565b820191905f5260205f20905b8154815290600101906020018083116113c557829003601f168201915b50505050508152602001600482015481526020016005820154815260200160068201805480602002602001604051908101604052809291908181526020015f905b82821015610c48578382905f5260205f2001805461144090612c35565b80601f016020809104026020016040519081016040528092919081815260200182805461146c90612c35565b80156114b75780601f1061148e576101008083540402835291602001916114b7565b820191905f5260205f20905b81548152906001019060200180831161149a57829003601f168201915b505050505081526020019060010190611423565b60038111156114dc576114dc612790565b146114fa5760405163b4f0e2d960e01b815260040160405180910390fd5b5f84815260026020908152604080832033845290915290205460ff161561153457604051637c9a1cf960e01b815260040160405180910390fd5b815f8190036115565760405163be5a2acd60e01b815260040160405180910390fd5b600882015460ff1615801561156b5750600181115b156115895760405163baabd10760e01b815260040160405180910390fd5b5f5b8181101561166b575f8585838181106115a6576115a6612e31565b905060200201359050836006018054905081106115d6576040516370039a2560e01b815260040160405180910390fd5b5f5b82811015611638578686828181106115f2576115f2612e31565b9050602002013587878581811061160b5761160b612e31565b905060200201350361163057604051630fe3ee1360e11b815260040160405180910390fd5b6001016115d8565b505f878152600460209081526040808320848452909152812080549161165d83612e88565b90915550505060010161158b565b50600782018054905f61167d83612e88565b90915550505f85815260026020908152604080832033808552908352818420805460ff19166001908117909155808452828520805491820181558552838520018990558884526005835281842090845290915290206116dd90858561255f565b50336001600160a01b03167fcf413025c8b450134dae85561cfe55bd5a20cd0d8912db984431e553b31d4c0986868660405161171b93929190612eac565b60405180910390a25050505050565b6001600160a01b0381165f90815260016020526040812080546060928167ffffffffffffffff81111561175f5761175f612c6d565b60405190808252806020026020018201604052801561179857816020015b6117856125a8565b81526020019060019003908161177d5790505b5090505f5b82811015611b5b575f8482815481106117b8576117b8612e31565b905f5260205f20015490505f8082815481106117d6576117d6612e31565b5f9182526020909120600b90910201600a81015490915060ff16156117fc575050611b53565b604080516101008101825282546001600160a01b0316815260208101849052600283018054919283019161182f90612c35565b80601f016020809104026020016040519081016040528092919081815260200182805461185b90612c35565b80156118a65780601f1061187d576101008083540402835291602001916118a6565b820191905f5260205f20905b81548152906001019060200180831161188957829003601f168201915b5050505050815260200182600701548152602001611b0183604051806101600160405290815f82015f9054906101000a90046001600160a01b03166001600160a01b03166001600160a01b031681526020016001820154815260200160028201805461191190612c35565b80601f016020809104026020016040519081016040528092919081815260200182805461193d90612c35565b80156119885780601f1061195f57610100808354040283529160200191611988565b820191905f5260205f20905b81548152906001019060200180831161196b57829003601f168201915b505050505081526020016003820180546119a190612c35565b80601f01602080910402602001604051908101604052809291908181526020018280546119cd90612c35565b8015611a185780601f106119ef57610100808354040283529160200191611a18565b820191905f5260205f20905b8154815290600101906020018083116119fb57829003601f168201915b50505050508152602001600482015481526020016005820154815260200160068201805480602002602001604051908101604052809291908181526020015f905b82821015610c48578382905f5260205f20018054611a7690612c35565b80601f0160208091040260200160405190810160405280929190818152602001828054611aa290612c35565b8015611aed5780601f10611ac457610100808354040283529160200191611aed565b820191905f5260205f20905b815481529060010190602001808311611ad057829003601f168201915b505050505081526020019060010190611a59565b6003811115611b1257611b12612790565b815260200182600401548152602001826005015481526020018260090154815250848481518110611b4557611b45612e31565b602002602001018190525050505b60010161179d565b50949350505050565b5f611b6e82611fff565b80549091506001600160a01b03163314611b9b57604051634ca8886760e01b815260040160405180910390fd5b6003604080516101608101825283546001600160a01b0316815260018401546020820152600284018054611dc893869290840191611bd890612c35565b80601f0160208091040260200160405190810160405280929190818152602001828054611c0490612c35565b8015611c4f5780601f10611c2657610100808354040283529160200191611c4f565b820191905f5260205f20905b815481529060010190602001808311611c3257829003601f168201915b50505050508152602001600382018054611c6890612c35565b80601f0160208091040260200160405190810160405280929190818152602001828054611c9490612c35565b8015611cdf5780601f10611cb657610100808354040283529160200191611cdf565b820191905f5260205f20905b815481529060010190602001808311611cc257829003601f168201915b50505050508152602001600482015481526020016005820154815260200160068201805480602002602001604051908101604052809291908181526020015f905b82821015610c48578382905f5260205f20018054611d3d90612c35565b80601f0160208091040260200160405190810160405280929190818152602001828054611d6990612c35565b8015611db45780601f10611d8b57610100808354040283529160200191611db4565b820191905f5260205f20905b815481529060010190602001808311611d9757829003601f168201915b505050505081526020019060010190611d20565b6003811115611dd957611dd9612790565b03611df757604051639b22ddeb60e01b815260040160405180910390fd5b60016005820155604051829033907f563a96cebb2dd00c04fe16ab3f34901e3749b13da3040e6cae0b5a55ea4daee2905f90a35050565b5f8181548110611e3c575f80fd5b5f9182526020909120600b90910201805460018201546002830180546001600160a01b039093169450909291611e7190612c35565b80601f0160208091040260200160405190810160405280929190818152602001828054611e9d90612c35565b8015611ee85780601f10611ebf57610100808354040283529160200191611ee8565b820191905f5260205f20905b815481529060010190602001808311611ecb57829003601f168201915b505050505090806003018054611efd90612c35565b80601f0160208091040260200160405190810160405280929190818152602001828054611f2990612c35565b8015611f745780601f10611f4b57610100808354040283529160200191611f74565b820191905f5260205f20905b815481529060010190602001808311611f5757829003601f168201915b5050506004840154600585015460078601546040805160608101825260088901805460ff808216151584526101008204811615156020850152999a96999598509396509093909291840191620100009004166003811115611fd757611fd7612790565b6003811115611fe857611fe8612790565b9052506009820154600a9092015490919060ff168a565b5f80548210612029576040516302708a4d60e21b8152600481018390526024015b60405180910390fd5b5f80838154811061203c5761203c612e31565b5f9182526020909120600b90910201600a81015490915060ff1615610788576040516302708a4d60e21b815260048101849052602401612020565b5f600383610100015160400151600381111561209557612095612790565b036120a157505f610788565b60018361010001516040015160038111156120be576120be612790565b1480156120ef57506020808401515f9081526002825260408082206001600160a01b0386168352909252205460ff16155b156120fb57505f610788565b600283610100015160400151600381111561211857612118612790565b14801561213f5750600261212b84612269565b600381111561213c5761213c612790565b14155b80156121655750600361215184612269565b600381111561216257612162612790565b14155b1561217157505f610788565b50600192915050565b60c0810151516060905f8167ffffffffffffffff81111561219d5761219d612c6d565b6040519080825280602002602001820160405280156121e257816020015b60408051808201909152606081525f60208201528152602001906001900390816121bb5790505b5090505f5b828110156122615760405180604001604052808660c00151838151811061221057612210612e31565b6020908102919091018101518252878101515f9081526004825260408082208683528352902054910152825183908390811061224e5761224e612e31565b60209081029190910101526001016121e7565b509392505050565b5f428260800151111561227d57505f919050565b8160a0015160010361229157506003919050565b60018260a001511180156122a95750428260a0015111155b156122b657506002919050565b506001919050565b8060038110156122e1576040516324ace35560e01b815260040160405180910390fd5b606481111561230357604051632b5df40f60e21b815260040160405180910390fd5b505050565b8080158015906123185750600a81105b1561233657604051631b0bf73560e21b815260040160405180910390fd5b6103e881111561230357604051631b0fce8360e01b815260040160405180910390fd5b4282101561237a57604051633eb2d8c560e01b815260040160405180910390fd5b81811161239a576040516371f3286160e11b815260040160405180910390fd5b5050565b8060028110156123c157604051638ee5f57d60e01b815260040160405180910390fd5b600a8111156123e35760405163701d39f160e11b815260040160405180910390fd5b5f5b81811015612468575f84848381811061240057612400612e31565b90506020028101906124129190612e45565b915050600181101561243a576040516323bae5c560e11b815260048101839052602401612020565b606481111561245f57604051631e8a182560e21b815260048101839052602401612020565b506001016123e5565b50505050565b61247e6040820160208301612d93565b80156124aa575060026124976060830160408401612f03565b60038111156124a8576124a8612790565b145b156124c85760405163dc2ca70160e01b815260040160405180910390fd5b50565b6040518061018001604052805f6001600160a01b0316815260200160608152602001606081526020015f81526020015f8152602001606081526020015f81526020015f600381111561251f5761251f612790565b8152602001612544604080516060810182525f80825260208201819052909182015290565b81526020015f15158152602001606081526020015f81525090565b828054828255905f5260205f20908101928215612598579160200282015b8281111561259857823582559160200191906001019061257d565b506125a4929150612600565b5090565b6040518061010001604052805f6001600160a01b031681526020015f8152602001606081526020015f81526020015f60038111156125e8576125e8612790565b81526020015f81526020015f81526020015f81525090565b5b808211156125a4575f8155600101612601565b80356001600160a01b038116811461262a575f80fd5b919050565b5f8060408385031215612640575f80fd5b8235915061265060208401612614565b90509250929050565b5f81518084528060208401602086015e5f602082860101526020601f19601f83011685010191505092915050565b5f60208083526060830184518285015281850151604080604087015282825180855260808801915060808160051b890101945085840193505f5b8181101561270257888603607f19018352845180518588526126e586890182612659565b9189015197890197909752955093860193918601916001016126c1565b509398975050505050505050565b5f8060408385031215612721575f80fd5b61272a83612614565b946020939093013593505050565b5f8282518085526020808601955060208260051b840101602086015f5b8481101561278357601f19868403018952612771838351612659565b98840198925090830190600101612755565b5090979650505050505050565b634e487b7160e01b5f52602160045260245ffd5b600481106124c857634e487b7160e01b5f52602160045260245ffd5b6127c9816127a4565b9052565b80511515825260208101511515602083015260408101516127ed816127a4565b806040840152505050565b5f815180845260208085019450602084015f5b838110156128275781518752958201959082019060010161280b565b509495945050505050565b6020815261284c6020820183516001600160a01b03169052565b5f60208301516101c08060408501526128696101e0850183612659565b91506040850151601f19808685030160608701526128878483612659565b935060608701516080870152608087015160a087015260a08701519150808685030160c08701526128b88483612738565b935060c087015160e087015260e087015191506101006128da818801846127c0565b87015191506101206128ee878201846127cd565b87015115156101808701526101408701518685039091016101a0870152905061291783826127f8565b92505061016085015181850152508091505092915050565b5f6020828403121561293f575f80fd5b5035919050565b5f8083601f840112612956575f80fd5b50813567ffffffffffffffff81111561296d575f80fd5b602083019150836020828501011115612984575f80fd5b9250929050565b5f8083601f84011261299b575f80fd5b50813567ffffffffffffffff8111156129b2575f80fd5b6020830191508360208260051b8501011115612984575f80fd5b5f805f805f805f805f898b036101008112156129e6575f80fd5b8a3567ffffffffffffffff808211156129fd575f80fd5b612a098e838f01612946565b909c509a5060208d0135915080821115612a21575f80fd5b612a2d8e838f01612946565b909a50985060408d0135975060608d0135965060808d0135915080821115612a53575f80fd5b50612a608d828e0161298b565b9095509350506060609f1982011215612a77575f80fd5b5060a08a0190509295985092959850929598565b5f805f60408486031215612a9d575f80fd5b83359250602084013567ffffffffffffffff811115612aba575f80fd5b612ac68682870161298b565b9497909650939450505050565b5f60208284031215612ae3575f80fd5b612aec82612614565b9392505050565b5f60208083018184528085518083526040925060408601915060408160051b8701018488015f5b83811015612baa57603f1989840301855281516101006001600160a01b0382511685528882015189860152878201518189870152612b5a82870182612659565b9150506060808301518187015250608080830151612b77816127a4565b9086015260a0828101519086015260c0808301519086015260e09182015191909401529386019390860190600101612b1a565b509098975050505050505050565b5f6101806001600160a01b038d1683528b6020840152806040840152612be08184018c612659565b90508281036060840152612bf4818b612659565b9150508760808301528660a08301528560c0830152612c1660e08301866127cd565b836101408301528215156101608301529b9a5050505050505050505050565b600181811c90821680612c4957607f821691505b602082108103612c6757634e487b7160e01b5f52602260045260245ffd5b50919050565b634e487b7160e01b5f52604160045260245ffd5b601f82111561230357805f5260205f20601f840160051c81016020851015612ca65750805b601f840160051c820191505b81811015612cc5575f8155600101612cb2565b5050505050565b67ffffffffffffffff831115612ce457612ce4612c6d565b612cf883612cf28354612c35565b83612c81565b5f601f841160018114612d29575f8515612d125750838201355b5f19600387901b1c1916600186901b178355612cc5565b5f83815260208120601f198716915b82811015612d585786850135825560209485019460019092019101612d38565b5086821015612d74575f1960f88860031b161c19848701351681555b505060018560011b0183555050505050565b80151581146124c8575f80fd5b5f60208284031215612da3575f80fd5b8135612aec81612d86565b600481106124c8575f80fd5b8135612dc581612d86565b815460ff19811691151560ff1691821783556020840135612de581612d86565b61ff0090151560081b1661ffff1982168317811784556040850135612e0981612dae565b612e12816127a4565b62ff00008160101b168462ffffff198516178317178555505050505050565b634e487b7160e01b5f52603260045260245ffd5b5f808335601e19843603018112612e5a575f80fd5b83018035915067ffffffffffffffff821115612e74575f80fd5b602001915036819003821315612984575f80fd5b5f60018201612ea557634e487b7160e01b5f52601160045260245ffd5b5060010190565b838152604060208201528160408201525f7f07ffffffffffffffffffffffffffffffffffffffffffffffffffffffffffffff831115612ee9575f80fd5b8260051b8085606085013791909101606001949350505050565b5f60208284031215612f13575f80fd5b8135612aec81612dae56fea264697066735822122053aa18014b0701c5bfc9a021e9946de404510ec47129e444d9446e28494b5f4964736f6c63430008190033",
      "opcodes": "PUSH1 0x80 PUSH1 0x40 MSTORE CALLVALUE DUP1 ISZERO PUSH1 0xE JUMPI PUSH0 DUP1 REVERT JUMPDEST POP PUSH2 0x2F54 DUP1 PUSH2 0x1C PUSH0 CODECOPY PUSH0 RETURN INVALID PUSH1 0x80 PUSH1 0x40 MSTORE CALLVALUE DUP1 ISZERO PUSH2 0xF JUMPI PUSH0 DUP1 REVERT JUMPDEST POP PUSH1 0x4 CALLDATASIZE LT PUSH2 0x9F JUMPI PUSH0 CALLDATALOAD PUSH1 0xE0 SHR DUP1 PUSH4 0x21B91DB5 GT PUSH2 0x72 JUMPI DUP1 PUSH4 0x9137B2E9 GT PUSH2 0x58 JUMPI DUP1 PUSH4 0x9137B2E9 EQ PUSH2 0x148 JUMPI DUP1 PUSH4 0x9534E637 EQ PUSH2 0x168 JUMPI DUP1 PUSH4 0xAC2F0074 EQ PUSH2 0x17B JUMPI PUSH0 DUP1 REVERT JUMPDEST DUP1 PUSH4 0x21B91DB5 EQ PUSH2 0x122 JUMPI DUP1 PUSH4 0x2FA48E9E EQ PUSH2 0x135 JUMPI PUSH0 DUP1 REVERT JUMPDEST DUP1 PUSH4 0x14956B6F EQ PUSH2 0xA3 JUMPI DUP1 PUSH4 0x1994A615 EQ PUSH2 0xCC JUMPI DUP1 PUSH4 0x1E25E730 EQ PUSH2 0xED JUMPI DUP1 PUSH4 0x1F35B51D EQ PUSH2 0x10D JUMPI JUMPDEST PUSH0 DUP1 REVERT JUMPDEST PUSH2 0xB6 PUSH2 0xB1 CALLDATASIZE PUSH1 0x4 PUSH2 0x262F JUMP JUMPDEST PUSH2 0x1A4 JUMP JUMPDEST PUSH1 0x40 MLOAD PUSH2 0xC3 SWAP2 SWAP1 PUSH2 0x2687 JUMP JUMPDEST PUSH1 0x40 MLOAD DUP1 SWAP2 SUB SWAP1 RETURN JUMPDEST PUSH2 0xDF PUSH2 0xDA CALLDATASIZE PUSH1 0x4 PUSH2 0x2710 JUMP JUMPDEST PUSH2 0x78E JUMP JUMPDEST PUSH1 0x40 MLOAD SWAP1 DUP2 MSTORE PUSH1 0x20 ADD PUSH2 0xC3 JUMP JUMPDEST PUSH2 0x100 PUSH2 0xFB CALLDATASIZE PUSH1 0x4 PUSH2 0x2710 JUMP JUMPDEST PUSH2 0x7B9 JUMP JUMPDEST PUSH1 0x40 MLOAD PUSH2 0xC3 SWAP2 SWAP1 PUSH2 0x2832 JUMP JUMPDEST PUSH2 0x120 PUSH2 0x11B CALLDATASIZE PUSH1 0x4 PUSH2 0x292F JUMP JUMPDEST PUSH2 0xDF7 JUMP JUMPDEST STOP JUMPDEST PUSH2 0xDF PUSH2 0x130 CALLDATASIZE PUSH1 0x4 PUSH2 0x29CC JUMP JUMPDEST PUSH2 0x109B JUMP JUMPDEST PUSH2 0x120 PUSH2 0x143 CALLDATASIZE PUSH1 0x4 PUSH2 0x2A8B JUMP JUMPDEST PUSH2 0x1292 JUMP JUMPDEST PUSH2 0x15B PUSH2 0x156 CALLDATASIZE PUSH1 0x4 PUSH2 0x2AD3 JUMP JUMPDEST PUSH2 0x172A JUMP JUMPDEST PUSH1 0x40 MLOAD PUSH2 0xC3 SWAP2 SWAP1 PUSH2 0x2AF3 JUMP JUMPDEST PUSH2 0x120 PUSH2 0x176 CALLDATASIZE PUSH1 0x4 PUSH2 0x292F JUMP JUMPDEST PUSH2 0x1B64 JUMP JUMPDEST PUSH2 0x18E PUSH2 0x189 CALLDATASIZE PUSH1 0x4 PUSH2 0x292F JUMP JUMPDEST PUSH2 0x1E2E JUMP JUMPDEST PUSH1 0x40 MLOAD PUSH2 0xC3 SWAP11 SWAP10 SWAP9 SWAP8 SWAP7 SWAP6 SWAP5 SWAP4 SWAP3 SWAP2 SWAP1 PUSH2 0x2BB8 JUMP JUMPDEST PUSH1 0x40 DUP1 MLOAD DUP1 DUP3 ADD SWAP1 SWAP2 MSTORE PUSH0 DUP2 MSTORE PUSH1 0x60 PUSH1 0x20 DUP3 ADD MSTORE PUSH0 PUSH2 0x1C2 DUP5 PUSH2 0x1FFF JUMP JUMPDEST PUSH1 0x40 DUP1 MLOAD PUSH2 0x160 DUP2 ADD DUP3 MSTORE DUP3 SLOAD PUSH1 0x1 PUSH1 0x1 PUSH1 0xA0 SHL SUB AND DUP2 MSTORE PUSH1 0x1 DUP4 ADD SLOAD PUSH1 0x20 DUP3 ADD MSTORE PUSH1 0x2 DUP4 ADD DUP1 SLOAD SWAP4 SWAP5 POP PUSH2 0x48B SWAP4 SWAP2 SWAP3 DUP6 SWAP3 SWAP1 DUP5 ADD SWAP2 SWAP1 PUSH2 0x203 SWAP1 PUSH2 0x2C35 JUMP JUMPDEST DUP1 PUSH1 0x1F ADD PUSH1 0x20 DUP1 SWAP2 DIV MUL PUSH1 0x20 ADD PUSH1 0x40 MLOAD SWAP1 DUP2 ADD PUSH1 0x40 MSTORE DUP1 SWAP3 SWAP2 SWAP1 DUP2 DUP2 MSTORE PUSH1 0x20 ADD DUP3 DUP1 SLOAD PUSH2 0x22F SWAP1 PUSH2 0x2C35 JUMP JUMPDEST DUP1 ISZERO PUSH2 0x27A JUMPI DUP1 PUSH1 0x1F LT PUSH2 0x251 JUMPI PUSH2 0x100 DUP1 DUP4 SLOAD DIV MUL DUP4 MSTORE SWAP2 PUSH1 0x20 ADD SWAP2 PUSH2 0x27A JUMP JUMPDEST DUP3 ADD SWAP2 SWAP1 PUSH0 MSTORE PUSH1 0x20 PUSH0 KECCAK256 SWAP1 JUMPDEST DUP2 SLOAD DUP2 MSTORE SWAP1 PUSH1 0x1 ADD SWAP1 PUSH1 0x20 ADD DUP1 DUP4 GT PUSH2 0x25D JUMPI DUP3 SWAP1 SUB PUSH1 0x1F AND DUP3 ADD SWAP2 JUMPDEST POP POP POP POP POP DUP2 MSTORE PUSH1 0x20 ADD PUSH1 0x3 DUP3 ADD DUP1 SLOAD PUSH2 0x293 SWAP1 PUSH2 0x2C35 JUMP JUMPDEST DUP1 PUSH1 0x1F ADD PUSH1 0x20 DUP1 SWAP2 DIV MUL PUSH1 0x20 ADD PUSH1 0x40 MLOAD SWAP1 DUP2 ADD PUSH1 0x40 MSTORE DUP1 SWAP3 SWAP2 SWAP1 DUP2 DUP2 MSTORE PUSH1 0x20 ADD DUP3 DUP1 SLOAD PUSH2 0x2BF SWAP1 PUSH2 0x2C35 JUMP JUMPDEST DUP1 ISZERO PUSH2 0x30A JUMPI DUP1 PUSH1 0x1F LT PUSH2 0x2E1 JUMPI PUSH2 0x100 DUP1 DUP4 SLOAD DIV MUL DUP4 MSTORE SWAP2 PUSH1 0x20 ADD SWAP2 PUSH2 0x30A JUMP JUMPDEST DUP3 ADD SWAP2 SWAP1 PUSH0 MSTORE PUSH1 0x20 PUSH0 KECCAK256 SWAP1 JUMPDEST DUP2 SLOAD DUP2 MSTORE SWAP1 PUSH1 0x1 ADD SWAP1 PUSH1 0x20 ADD DUP1 DUP4 GT PUSH2 0x2ED JUMPI DUP3 SWAP1 SUB PUSH1 0x1F AND DUP3 ADD SWAP2 JUMPDEST POP POP POP POP POP DUP2 MSTORE PUSH1 0x20 ADD PUSH1 0x4 DUP3 ADD SLOAD DUP2 MSTORE PUSH1 0x20 ADD PUSH1 0x5 DUP3 ADD SLOAD DUP2 MSTORE PUSH1 0x20 ADD PUSH1 0x6 DUP3 ADD DUP1 SLOAD DUP1 PUSH1 0x20 MUL PUSH1 0x20 ADD PUSH1 0x40 MLOAD SWAP1 DUP2 ADD PUSH1 0x40 MSTORE DUP1 SWAP3 SWAP2 SWAP1 DUP2 DUP2 MSTORE PUSH1 0x20 ADD PUSH0 SWAP1 JUMPDEST DUP3 DUP3 LT ISZERO PUSH2 0x3F3 JUMPI DUP4 DUP3 SWAP1 PUSH0 MSTORE PUSH1 0x20 PUSH0 KECCAK256 ADD DUP1 SLOAD PUSH2 0x368 SWAP1 PUSH2 0x2C35 JUMP JUMPDEST DUP1 PUSH1 0x1F ADD PUSH1 0x20 DUP1 SWAP2 DIV MUL PUSH1 0x20 ADD PUSH1 0x40 MLOAD SWAP1 DUP2 ADD PUSH1 0x40 MSTORE DUP1 SWAP3 SWAP2 SWAP1 DUP2 DUP2 MSTORE PUSH1 0x20 ADD DUP3 DUP1 SLOAD PUSH2 0x394 SWAP1 PUSH2 0x2C35 JUMP JUMPDEST DUP1 ISZERO PUSH2 0x3DF JUMPI DUP1 PUSH1 0x1F LT PUSH2 0x3B6 JUMPI PUSH2 0x100 DUP1 DUP4 SLOAD DIV MUL DUP4 MSTORE SWAP2 PUSH1 0x20 ADD SWAP2 PUSH2 0x3DF JUMP JUMPDEST DUP3 ADD SWAP2 SWAP1 PUSH0 MSTORE PUSH1 0x20 PUSH0 KECCAK256 SWAP1 JUMPDEST DUP2 SLOAD DUP2 MSTORE SWAP1 PUSH1 0x1 ADD SWAP1 PUSH1 0x20 ADD DUP1 DUP4 GT PUSH2 0x3C2 JUMPI DUP3 SWAP1 SUB PUSH1 0x1F AND DUP3 ADD SWAP2 JUMPDEST POP POP POP POP POP DUP2 MSTORE PUSH1 0x20 ADD SWAP1 PUSH1 0x1 ADD SWAP1 PUSH2 0x34B JUMP JUMPDEST POP POP POP SWAP1 DUP3 MSTORE POP PUSH1 0x7 DUP3 ADD SLOAD PUSH1 0x20 DUP1 DUP4 ADD SWAP2 SWAP1 SWAP2 MSTORE PUSH1 0x40 DUP1 MLOAD PUSH1 0x60 DUP2 ADD DUP3 MSTORE PUSH1 0x8 DUP6 ADD DUP1 SLOAD PUSH1 0xFF DUP1 DUP3 AND ISZERO ISZERO DUP5 MSTORE PUSH2 0x100 DUP3 DIV DUP2 AND ISZERO ISZERO SWAP6 DUP5 ADD SWAP6 SWAP1 SWAP6 MSTORE SWAP5 DUP4 ADD SWAP5 SWAP2 SWAP4 SWAP1 SWAP3 DUP5 ADD SWAP2 PUSH3 0x10000 SWAP1 DIV AND PUSH1 0x3 DUP2 GT ISZERO PUSH2 0x454 JUMPI PUSH2 0x454 PUSH2 0x2790 JUMP JUMPDEST PUSH1 0x3 DUP2 GT ISZERO PUSH2 0x465 JUMPI PUSH2 0x465 PUSH2 0x2790 JUMP JUMPDEST SWAP1 MSTORE POP DUP2 MSTORE PUSH1 0x9 DUP3 ADD SLOAD PUSH1 0x20 DUP3 ADD MSTORE PUSH1 0xA SWAP1 SWAP2 ADD SLOAD PUSH1 0xFF AND ISZERO ISZERO PUSH1 0x40 SWAP1 SWAP2 ADD MSTORE DUP5 PUSH2 0x2077 JUMP JUMPDEST PUSH2 0x4A8 JUMPI PUSH1 0x40 MLOAD PUSH4 0x4CA88867 PUSH1 0xE0 SHL DUP2 MSTORE PUSH1 0x4 ADD PUSH1 0x40 MLOAD DUP1 SWAP2 SUB SWAP1 REVERT JUMPDEST PUSH1 0x40 DUP1 MLOAD PUSH2 0x160 DUP2 ADD DUP3 MSTORE DUP3 SLOAD PUSH1 0x1 PUSH1 0x1 PUSH1 0xA0 SHL SUB AND DUP2 MSTORE PUSH1 0x1 DUP4 ADD SLOAD PUSH1 0x20 DUP3 ADD MSTORE PUSH1 0x2 DUP4 ADD DUP1 SLOAD PUSH0 SWAP4 PUSH2 0x76D SWAP4 SWAP3 DUP7 SWAP3 SWAP2 DUP5 ADD SWAP2 PUSH2 0x4E6 SWAP1 PUSH2 0x2C35 JUMP JUMPDEST DUP1 PUSH1 0x1F ADD PUSH1 0x20 DUP1 SWAP2 DIV MUL PUSH1 0x20 ADD PUSH1 0x40 MLOAD SWAP1 DUP2 ADD PUSH1 0x40 MSTORE DUP1 SWAP3 SWAP2 SWAP1 DUP2 DUP2 MSTORE PUSH1 0x20 ADD DUP3 DUP1 SLOAD PUSH2 0x512 SWAP1 PUSH2 0x2C35 JUMP JUMPDEST DUP1 ISZERO PUSH2 0x55D JUMPI DUP1 PUSH1 0x1F LT PUSH2 0x534 JUMPI PUSH2 0x100 DUP1 DUP4 SLOAD DIV MUL DUP4 MSTORE SWAP2 PUSH1 0x20 ADD SWAP2 PUSH2 0x55D JUMP JUMPDEST DUP3 ADD SWAP2 SWAP1 PUSH0 MSTORE PUSH1 0x20 PUSH0 KECCAK256 SWAP1 JUMPDEST DUP2 SLOAD DUP2 MSTORE SWAP1 PUSH1 0x1 ADD SWAP1 PUSH1 0x20 ADD DUP1 DUP4 GT PUSH2 0x540 JUMPI DUP3 SWAP1 SUB PUSH1 0x1F AND DUP3 ADD SWAP2 JUMPDEST POP POP POP POP POP DUP2 MSTORE PUSH1 0x20 ADD PUSH1 0x3 DUP3 ADD DUP1 SLOAD PUSH2 0x576 SWAP1 PUSH2 0x2C35 JUMP JUMPDEST DUP1 PUSH1 0x1F ADD PUSH1 0x20 DUP1 SWAP2 DIV MUL PUSH1 0x20 ADD PUSH1 0x40 MLOAD SWAP1 DUP2 ADD PUSH1 0x40 MSTORE DUP1 SWAP3 SWAP2 SWAP1 DUP2 DUP2 MSTORE PUSH1 0x20 ADD DUP3 DUP1 SLOAD PUSH2 0x5A2 SWAP1 PUSH2 0x2C35 JUMP JUMPDEST DUP1 ISZERO PUSH2 0x5ED JUMPI DUP1 PUSH1 0x1F LT PUSH2 0x5C4 JUMPI PUSH2 0x100 DUP1 DUP4 SLOAD DIV MUL DUP4 MSTORE SWAP2 PUSH1 0x20 ADD SWAP2 PUSH2 0x5ED JUMP JUMPDEST DUP3 ADD SWAP2 SWAP1 PUSH0 MSTORE PUSH1 0x20 PUSH0 KECCAK256 SWAP1 JUMPDEST DUP2 SLOAD DUP2 MSTORE SWAP1 PUSH1 0x1 ADD SWAP1 PUSH1 0x20 ADD DUP1 DUP4 GT PUSH2 0x5D0 JUMPI DUP3 SWAP1 SUB PUSH1 0x1F AND DUP3 ADD SWAP2 JUMPDEST POP POP POP POP POP DUP2 MSTORE PUSH1 0x20 ADD PUSH1 0x4 DUP3 ADD SLOAD DUP2 MSTORE PUSH1 0x20 ADD PUSH1 0x5 DUP3 ADD SLOAD DUP2 MSTORE PUSH1 0x20 ADD PUSH1 0x6 DUP3 ADD DUP1 SLOAD DUP1 PUSH1 0x20 MUL PUSH1 0x20 ADD PUSH1 0x40 MLOAD SWAP1 DUP2 ADD PUSH1 0x40 MSTORE DUP1 SWAP3 SWAP2 SWAP1 DUP2 DUP2 MSTORE PUSH1 0x20 ADD PUSH0 SWAP1 JUMPDEST DUP3 DUP3 LT ISZERO PUSH2 0x6D6 JUMPI DUP4 DUP3 SWAP1 PUSH0 MSTORE PUSH1 0x20 PUSH0 KECCAK256 ADD DUP1 SLOAD PUSH2 0x64B SWAP1 PUSH2 0x2C35 JUMP JUMPDEST DUP1 PUSH1 0x1F ADD PUSH1 0x20 DUP1 SWAP2 DIV MUL PUSH1 0x20 ADD PUSH1 0x40 MLOAD SWAP1 DUP2 ADD PUSH1 0x40 MSTORE DUP1 SWAP3 SWAP2 SWAP1 DUP2 DUP2 MSTORE PUSH1 0x20 ADD DUP3 DUP1 SLOAD PUSH2 0x677 SWAP1 PUSH2 0x2C35 JUMP JUMPDEST DUP1 ISZERO PUSH2 0x6C2 JUMPI DUP1 PUSH1 0x1F LT PUSH2 0x699 JUMPI PUSH2 0x100 DUP1 DUP4 SLOAD DIV MUL DUP4 MSTORE SWAP2 PUSH1 0x20 ADD SWAP2 PUSH2 0x6C2 JUMP JUMPDEST DUP3 ADD SWAP2 SWAP1 PUSH0 MSTORE PUSH1 0x20 PUSH0 KECCAK256 SWAP1 JUMPDEST DUP2 SLOAD DUP2 MSTORE SWAP1 PUSH1 0x1 ADD SWAP1 PUSH1 0x20 ADD DUP1 DUP4 GT PUSH2 0x6A5 JUMPI DUP3 SWAP1 SUB PUSH1 0x1F AND DUP3 ADD SWAP2 JUMPDEST POP POP POP POP POP DUP2 MSTORE PUSH1 0x20 ADD SWAP1 PUSH1 0x1 ADD SWAP1 PUSH2 0x62E JUMP JUMPDEST POP POP POP SWAP1 DUP3 MSTORE POP PUSH1 0x7 DUP3 ADD SLOAD PUSH1 0x20 DUP1 DUP4 ADD SWAP2 SWAP1 SWAP2 MSTORE PUSH1 0x40 DUP1 MLOAD PUSH1 0x60 DUP2 ADD DUP3 MSTORE PUSH1 0x8 DUP6 ADD DUP1 SLOAD PUSH1 0xFF DUP1 DUP3 AND ISZERO ISZERO DUP5 MSTORE PUSH2 0x100 DUP3 DIV DUP2 AND ISZERO ISZERO SWAP6 DUP5 ADD SWAP6 SWAP1 SWAP6 MSTORE SWAP5 DUP4 ADD SWAP5 SWAP2 SWAP4 SWAP1 SWAP3 DUP5 ADD SWAP2 PUSH3 0x10000 SWAP1 DIV AND PUSH1 0x3 DUP2 GT ISZERO PUSH2 0x737 JUMPI PUSH2 0x737 PUSH2 0x2790 JUMP JUMPDEST PUSH1 0x3 DUP2 GT ISZERO PUSH2 0x748 JUMPI PUSH2 0x748 PUSH2 0x2790 JUMP JUMPDEST SWAP1 MSTORE POP DUP2 MSTORE PUSH1 0x9 DUP3 ADD SLOAD PUSH1 0x20 DUP3 ADD MSTORE PUSH1 0xA SWAP1 SWAP2 ADD SLOAD PUSH1 0xFF AND ISZERO ISZERO PUSH1 0x40 SWAP1 SWAP2 ADD MSTORE PUSH2 0x217A JUMP JUMPDEST PUSH1 0x40 DUP1 MLOAD DUP1 DUP3 ADD SWAP1 SWAP2 MSTORE PUSH1 0x7 SWAP1 SWAP4 ADD SLOAD DUP4 MSTORE PUSH1 0x20 DUP4 ADD MSTORE POP SWAP1 POP JUMPDEST SWAP3 SWAP2 POP POP JUMP JUMPDEST PUSH1 0x1 PUSH1 0x20 MSTORE DUP2 PUSH0 MSTORE PUSH1 0x40 PUSH0 KECCAK256 DUP2 DUP2 SLOAD DUP2 LT PUSH2 0x7A7 JUMPI PUSH0 DUP1 REVERT JUMPDEST SWAP1 PUSH0 MSTORE PUSH1 0x20 PUSH0 KECCAK256 ADD PUSH0 SWAP2 POP SWAP2 POP POP SLOAD DUP2 JUMP JUMPDEST PUSH2 0x7C1 PUSH2 0x24CB JUMP JUMPDEST PUSH0 PUSH2 0x7CB DUP4 PUSH2 0x1FFF JUMP JUMPDEST PUSH1 0x40 DUP1 MLOAD PUSH2 0x180 DUP2 ADD SWAP1 SWAP2 MSTORE DUP2 SLOAD PUSH1 0x1 PUSH1 0x1 PUSH1 0xA0 SHL SUB AND DUP2 MSTORE PUSH1 0x2 DUP3 ADD DUP1 SLOAD SWAP3 SWAP4 POP SWAP1 SWAP2 PUSH1 0x20 DUP4 ADD SWAP2 SWAP1 PUSH2 0x7FE SWAP1 PUSH2 0x2C35 JUMP JUMPDEST DUP1 PUSH1 0x1F ADD PUSH1 0x20 DUP1 SWAP2 DIV MUL PUSH1 0x20 ADD PUSH1 0x40 MLOAD SWAP1 DUP2 ADD PUSH1 0x40 MSTORE DUP1 SWAP3 SWAP2 SWAP1 DUP2 DUP2 MSTORE PUSH1 0x20 ADD DUP3 DUP1 SLOAD PUSH2 0x82A SWAP1 PUSH2 0x2C35 JUMP JUMPDEST DUP1 ISZERO PUSH2 0x875 JUMPI DUP1 PUSH1 0x1F LT PUSH2 0x84C JUMPI PUSH2 0x100 DUP1 DUP4 SLOAD DIV MUL DUP4 MSTORE SWAP2 PUSH1 0x20 ADD SWAP2 PUSH2 0x875 JUMP JUMPDEST DUP3 ADD SWAP2 SWAP1 PUSH0 MSTORE PUSH1 0x20 PUSH0 KECCAK256 SWAP1 JUMPDEST DUP2 SLOAD DUP2 MSTORE SWAP1 PUSH1 0x1 ADD SWAP1 PUSH1 0x20 ADD DUP1 DUP4 GT PUSH2 0x858 JUMPI DUP3 SWAP1 SUB PUSH1 0x1F AND DUP3 ADD SWAP2 JUMPDEST POP POP POP POP POP DUP2 MSTORE PUSH1 0x20 ADD DUP3 PUSH1 0x3 ADD DUP1 SLOAD PUSH2 0x88E SWAP1 PUSH2 0x2C35 JUMP JUMPDEST DUP1 PUSH1 0x1F ADD PUSH1 0x20 DUP1 SWAP2 DIV MUL PUSH1 0x20 ADD PUSH1 0x40 MLOAD SWAP1 DUP2 ADD PUSH1 0x40 MSTORE DUP1 SWAP3 SWAP2 SWAP1 DUP2 DUP2 MSTORE PUSH1 0x20 ADD DUP3 DUP1 SLOAD PUSH2 0x8BA SWAP1 PUSH2 0x2C35 JUMP JUMPDEST DUP1 ISZERO PUSH2 0x905 JUMPI DUP1 PUSH1 0x1F LT PUSH2 0x8DC JUMPI PUSH2 0x100 DUP1 DUP4 SLOAD DIV MUL DUP4 MSTORE SWAP2 PUSH1 0x20 ADD SWAP2 PUSH2 0x905 JUMP JUMPDEST DUP3 ADD SWAP2 SWAP1 PUSH0 MSTORE PUSH1 0x20 PUSH0 KECCAK256 SWAP1 JUMPDEST DUP2 SLOAD DUP2 MSTORE SWAP1 PUSH1 0x1 ADD SWAP1 PUSH1 0x20 ADD DUP1 DUP4 GT PUSH2 0x8E8 JUMPI DUP3 SWAP1 SUB PUSH1 0x1F AND DUP3 ADD SWAP2 JUMPDEST POP POP POP POP POP DUP2 MSTORE PUSH1 0x20 ADD DUP3 PUSH1 0x4 ADD SLOAD DUP2 MSTORE PUSH1 0x20 ADD DUP3 PUSH1 0x5 ADD SLOAD DUP2 MSTORE PUSH1 0x20 ADD DUP3 PUSH1 0x6 ADD DUP1 SLOAD DUP1 PUSH1 0x20 MUL PUSH1 0x20 ADD PUSH1 0x40 MLOAD SWAP1 DUP2 ADD PUSH1 0x40 MSTORE DUP1 SWAP3 SWAP2 SWAP1 DUP2 DUP2 MSTORE PUSH1 0x20 ADD PUSH0 SWAP1 JUMPDEST DUP3 DUP3 LT ISZERO PUSH2 0x9EE JUMPI DUP4 DUP3 SWAP1 PUSH0 MSTORE PUSH1 0x20 PUSH0 KECCAK256 ADD DUP1 SLOAD PUSH2 0x963 SWAP1 PUSH2 0x2C35 JUMP JUMPDEST DUP1 PUSH1 0x1F ADD PUSH1 0x20 DUP1 SWAP2 DIV MUL PUSH1 0x20 ADD PUSH1 0x40 MLOAD SWAP1 DUP2 ADD PUSH1 0x40 MSTORE DUP1 SWAP3 SWAP2 SWAP1 DUP2 DUP2 MSTORE PUSH1 0x20 ADD DUP3 DUP1 SLOAD PUSH2 0x98F SWAP1 PUSH2 0x2C35 JUMP JUMPDEST DUP1 ISZERO PUSH2 0x9DA JUMPI DUP1 PUSH1 0x1F LT PUSH2 0x9B1 JUMPI PUSH2 0x100 DUP1 DUP4 SLOAD DIV MUL DUP4 MSTORE SWAP2 PUSH1 0x20 ADD SWAP2 PUSH2 0x9DA JUMP JUMPDEST DUP3 ADD SWAP2 SWAP1 PUSH0 MSTORE PUSH1 0x20 PUSH0 KECCAK256 SWAP1 JUMPDEST DUP2 SLOAD DUP2 MSTORE SWAP1 PUSH1 0x1 ADD SWAP1 PUSH1 0x20 ADD DUP1 DUP4 GT PUSH2 0x9BD JUMPI DUP3 SWAP1 SUB PUSH1 0x1F AND DUP3 ADD SWAP2 JUMPDEST POP POP POP POP POP DUP2 MSTORE PUSH1 0x20 ADD SWAP1 PUSH1 0x1 ADD SWAP1 PUSH2 0x946 JUMP JUMPDEST POP POP POP POP DUP2 MSTORE PUSH1 0x20 ADD DUP3 PUSH1 0x7 ADD SLOAD DUP2 MSTORE PUSH1 0x20 ADD PUSH2 0xCDF DUP4 PUSH1 0x40 MLOAD DUP1 PUSH2 0x160 ADD PUSH1 0x40 MSTORE SWAP1 DUP2 PUSH0 DUP3 ADD PUSH0 SWAP1 SLOAD SWAP1 PUSH2 0x100 EXP SWAP1 DIV PUSH1 0x1 PUSH1 0x1 PUSH1 0xA0 SHL SUB AND PUSH1 0x1 PUSH1 0x1 PUSH1 0xA0 SHL SUB AND PUSH1 0x1 PUSH1 0x1 PUSH1 0xA0 SHL SUB AND DUP2 MSTORE PUSH1 0x20 ADD PUSH1 0x1 DUP3 ADD SLOAD DUP2 MSTORE PUSH1 0x20 ADD PUSH1 0x2 DUP3 ADD DUP1 SLOAD PUSH2 0xA58 SWAP1 PUSH2 0x2C35 JUMP JUMPDEST DUP1 PUSH1 0x1F ADD PUSH1 0x20 DUP1 SWAP2 DIV MUL PUSH1 0x20 ADD PUSH1 0x40 MLOAD SWAP1 DUP2 ADD PUSH1 0x40 MSTORE DUP1 SWAP3 SWAP2 SWAP1 DUP2 DUP2 MSTORE PUSH1 0x20 ADD DUP3 DUP1 SLOAD PUSH2 0xA84 SWAP1 PUSH2 0x2C35 JUMP JUMPDEST DUP1 ISZERO PUSH2 0xACF JUMPI DUP1 PUSH1 0x1F LT PUSH2 0xAA6 JUMPI PUSH2 0x100 DUP1 DUP4 SLOAD DIV MUL DUP4 MSTORE SWAP2 PUSH1 0x20 ADD SWAP2 PUSH2 0xACF JUMP JUMPDEST DUP3 ADD SWAP2 SWAP1 PUSH0 MSTORE PUSH1 0x20 PUSH0 KECCAK256 SWAP1 JUMPDEST DUP2 SLOAD DUP2 MSTORE SWAP1 PUSH1 0x1 ADD SWAP1 PUSH1 0x20 ADD DUP1 DUP4 GT PUSH2 0xAB2 JUMPI DUP3 SWAP1 SUB PUSH1 0x1F AND DUP3 ADD SWAP2 JUMPDEST POP POP POP POP POP DUP2 MSTORE PUSH1 0x20 ADD PUSH1 0x3 DUP3 ADD DUP1 SLOAD PUSH2 0xAE8 SWAP1 PUSH2 0x2C35 JUMP JUMPDEST DUP1 PUSH1 0x1F ADD PUSH1 0x20 DUP1 SWAP2 DIV MUL PUSH1 0x20 ADD PUSH1 0x40 MLOAD SWAP1 DUP2 ADD PUSH1 0x40 MSTORE DUP1 SWAP3 SWAP2 SWAP1 DUP2 DUP2 MSTORE PUSH1 0x20 ADD DUP3 DUP1 SLOAD PUSH2 0xB14 SWAP1 PUSH2 0x2C35 JUMP JUMPDEST DUP1 ISZERO PUSH2 0xB5F JUMPI DUP1 PUSH1 0x1F LT PUSH2 0xB36 JUMPI PUSH2 0x100 DUP1 DUP4 SLOAD DIV MUL DUP4 MSTORE SWAP2 PUSH1 0x20 ADD SWAP2 PUSH2 0xB5F JUMP JUMPDEST DUP3 ADD SWAP2 SWAP1 PUSH0 MSTORE PUSH1 0x20 PUSH0 KECCAK256 SWAP1 JUMPDEST DUP2 SLOAD DUP2 MSTORE SWAP1 PUSH1 0x1 ADD SWAP1 PUSH1 0x20 ADD DUP1 DUP4 GT PUSH2 0xB42 JUMPI DUP3 SWAP1 SUB PUSH1 0x1F AND DUP3 ADD SWAP2 JUMPDEST POP POP POP POP POP DUP2 MSTORE PUSH1 0x20 ADD PUSH1 0x4 DUP3 ADD SLOAD DUP2 MSTORE PUSH1 0x20 ADD PUSH1 0x5 DUP3 ADD SLOAD DUP2 MSTORE PUSH1 0x20 ADD PUSH1 0x6 DUP3 ADD DUP1 SLOAD DUP1 PUSH1 0x20 MUL PUSH1 0x20 ADD PUSH1 0x40 MLOAD SWAP1 DUP2 ADD PUSH1 0x40 MSTORE DUP1 SWAP3 SWAP2 SWAP1 DUP2 DUP2 MSTORE PUSH1 0x20 ADD PUSH0 SWAP1 JUMPDEST DUP3 DUP3 LT ISZERO PUSH2 0xC48 JUMPI DUP4 DUP3 SWAP1 PUSH0 MSTORE PUSH1 0x20 PUSH0 KECCAK256 ADD DUP1 SLOAD PUSH2 0xBBD SWAP1 PUSH2 0x2C35 JUMP JUMPDEST DUP1 PUSH1 0x1F ADD PUSH1 0x20 DUP1 SWAP2 DIV MUL PUSH1 0x20 ADD PUSH1 0x40 MLOAD SWAP1 DUP2 ADD PUSH1 0x40 MSTORE DUP1 SWAP3 SWAP2 SWAP1 DUP2 DUP2 MSTORE PUSH1 0x20 ADD DUP3 DUP1 SLOAD PUSH2 0xBE9 SWAP1 PUSH2 0x2C35 JUMP JUMPDEST DUP1 ISZERO PUSH2 0xC34 JUMPI DUP1 PUSH1 0x1F LT PUSH2 0xC0B JUMPI PUSH2 0x100 DUP1 DUP4 SLOAD DIV MUL DUP4 MSTORE SWAP2 PUSH1 0x20 ADD SWAP2 PUSH2 0xC34 JUMP JUMPDEST DUP3 ADD SWAP2 SWAP1 PUSH0 MSTORE PUSH1 0x20 PUSH0 KECCAK256 SWAP1 JUMPDEST DUP2 SLOAD DUP2 MSTORE SWAP1 PUSH1 0x1 ADD SWAP1 PUSH1 0x20 ADD DUP1 DUP4 GT PUSH2 0xC17 JUMPI DUP3 SWAP1 SUB PUSH1 0x1F AND DUP3 ADD SWAP2 JUMPDEST POP POP POP POP POP DUP2 MSTORE PUSH1 0x20 ADD SWAP1 PUSH1 0x1 ADD SWAP1 PUSH2 0xBA0 JUMP JUMPDEST POP POP POP SWAP1 DUP3 MSTORE POP PUSH1 0x7 DUP3 ADD SLOAD PUSH1 0x20 DUP1 DUP4 ADD SWAP2 SWAP1 SWAP2 MSTORE PUSH1 0x40 DUP1 MLOAD PUSH1 0x60 DUP2 ADD DUP3 MSTORE PUSH1 0x8 DUP6 ADD DUP1 SLOAD PUSH1 0xFF DUP1 DUP3 AND ISZERO ISZERO DUP5 MSTORE PUSH2 0x100 DUP3 DIV DUP2 AND ISZERO ISZERO SWAP6 DUP5 ADD SWAP6 SWAP1 SWAP6 MSTORE SWAP5 DUP4 ADD SWAP5 SWAP2 SWAP4 SWAP1 SWAP3 DUP5 ADD SWAP2 PUSH3 0x10000 SWAP1 DIV AND PUSH1 0x3 DUP2 GT ISZERO PUSH2 0xCA9 JUMPI PUSH2 0xCA9 PUSH2 0x2790 JUMP JUMPDEST PUSH1 0x3 DUP2 GT ISZERO PUSH2 0xCBA JUMPI PUSH2 0xCBA PUSH2 0x2790 JUMP JUMPDEST SWAP1 MSTORE POP DUP2 MSTORE PUSH1 0x9 DUP3 ADD SLOAD PUSH1 0x20 DUP3 ADD MSTORE PUSH1 0xA SWAP1 SWAP2 ADD SLOAD PUSH1 0xFF AND ISZERO ISZERO PUSH1 0x40 SWAP1 SWAP2 ADD MSTORE PUSH2 0x2269 JUMP JUMPDEST PUSH1 0x3 DUP2 GT ISZERO PUSH2 0xCF0 JUMPI PUSH2 0xCF0 PUSH2 0x2790 JUMP JUMPDEST DUP2 MSTORE PUSH1 0x40 DUP1 MLOAD PUSH1 0x60 DUP2 ADD DUP3 MSTORE PUSH1 0x8 DUP6 ADD DUP1 SLOAD PUSH1 0xFF DUP1 DUP3 AND ISZERO ISZERO DUP5 MSTORE PUSH2 0x100 DUP3 DIV DUP2 AND ISZERO ISZERO PUSH1 0x20 DUP6 DUP2 ADD SWAP2 SWAP1 SWAP2 MSTORE SWAP1 SWAP6 ADD SWAP5 SWAP3 SWAP4 SWAP2 SWAP3 SWAP2 DUP5 ADD SWAP2 PUSH3 0x10000 SWAP1 SWAP2 DIV AND PUSH1 0x3 DUP2 GT ISZERO PUSH2 0xD42 JUMPI PUSH2 0xD42 PUSH2 0x2790 JUMP JUMPDEST PUSH1 0x3 DUP2 GT ISZERO PUSH2 0xD53 JUMPI PUSH2 0xD53 PUSH2 0x2790 JUMP JUMPDEST SWAP1 MSTORE POP DUP2 MSTORE PUSH0 DUP6 DUP2 MSTORE PUSH1 0x2 PUSH1 0x20 SWAP1 DUP2 MSTORE PUSH1 0x40 DUP1 DUP4 KECCAK256 PUSH1 0x1 PUSH1 0x1 PUSH1 0xA0 SHL SUB DUP11 AND DUP1 DUP6 MSTORE SWAP1 DUP4 MSTORE DUP2 DUP5 KECCAK256 SLOAD PUSH1 0xFF AND ISZERO ISZERO DUP4 DUP7 ADD MSTORE DUP9 DUP5 MSTORE PUSH1 0x5 DUP4 MSTORE DUP2 DUP5 KECCAK256 SWAP1 DUP5 MSTORE DUP3 MSTORE SWAP2 DUP3 SWAP1 KECCAK256 DUP1 SLOAD DUP4 MLOAD DUP2 DUP5 MUL DUP2 ADD DUP5 ADD DUP6 MSTORE DUP2 DUP2 MSTORE SWAP4 SWAP1 SWAP5 ADD SWAP4 SWAP1 SWAP2 DUP4 ADD DUP3 DUP3 DUP1 ISZERO PUSH2 0xDDC JUMPI PUSH1 0x20 MUL DUP3 ADD SWAP2 SWAP1 PUSH0 MSTORE PUSH1 0x20 PUSH0 KECCAK256 SWAP1 JUMPDEST DUP2 SLOAD DUP2 MSTORE PUSH1 0x20 ADD SWAP1 PUSH1 0x1 ADD SWAP1 DUP1 DUP4 GT PUSH2 0xDC8 JUMPI JUMPDEST POP POP POP POP POP DUP2 MSTORE PUSH1 0x20 ADD DUP3 PUSH1 0x9 ADD SLOAD DUP2 MSTORE POP SWAP2 POP POP SWAP3 SWAP2 POP POP JUMP JUMPDEST PUSH0 PUSH2 0xE01 DUP3 PUSH2 0x1FFF JUMP JUMPDEST DUP1 SLOAD SWAP1 SWAP2 POP PUSH1 0x1 PUSH1 0x1 PUSH1 0xA0 SHL SUB AND CALLER EQ PUSH2 0xE2E JUMPI PUSH1 0x40 MLOAD PUSH4 0x4CA88867 PUSH1 0xE0 SHL DUP2 MSTORE PUSH1 0x4 ADD PUSH1 0x40 MLOAD DUP1 SWAP2 SUB SWAP1 REVERT JUMPDEST PUSH1 0x3 PUSH1 0x40 DUP1 MLOAD PUSH2 0x160 DUP2 ADD DUP3 MSTORE DUP4 SLOAD PUSH1 0x1 PUSH1 0x1 PUSH1 0xA0 SHL SUB AND DUP2 MSTORE PUSH1 0x1 DUP5 ADD SLOAD PUSH1 0x20 DUP3 ADD MSTORE PUSH1 0x2 DUP5 ADD DUP1 SLOAD PUSH2 0x105B SWAP4 DUP7 SWAP3 SWAP1 DUP5 ADD SWAP2 PUSH2 0xE6B SWAP1 PUSH2 0x2C35 JUMP JUMPDEST DUP1 PUSH1 0x1F ADD PUSH1 0x20 DUP1 SWAP2 DIV MUL PUSH1 0x20 ADD PUSH1 0x40 MLOAD SWAP1 DUP2 ADD PUSH1 0x40 MSTORE DUP1 SWAP3 SWAP2 SWAP1 DUP2 DUP2 MSTORE PUSH1 0x20 ADD DUP3 DUP1 SLOAD PUSH2 0xE97 SWAP1 PUSH2 0x2C35 JUMP JUMPDEST DUP1 ISZERO PUSH2 0xEE2 JUMPI DUP1 PUSH1 0x1F LT PUSH2 0xEB9 JUMPI PUSH2 0x100 DUP1 DUP4 SLOAD DIV MUL DUP4 MSTORE SWAP2 PUSH1 0x20 ADD SWAP2 PUSH2 0xEE2 JUMP JUMPDEST DUP3 ADD SWAP2 SWAP1 PUSH0 MSTORE PUSH1 0x20 PUSH0 KECCAK256 SWAP1 JUMPDEST DUP2 SLOAD DUP2 MSTORE SWAP1 PUSH1 0x1 ADD SWAP1 PUSH1 0x20 ADD DUP1 DUP4 GT PUSH2 0xEC5 JUMPI DUP3 SWAP1 SUB PUSH1 0x1F AND DUP3 ADD SWAP2 JUMPDEST POP POP POP POP POP DUP2 MSTORE PUSH1 0x20 ADD PUSH1 0x3 DUP3 ADD DUP1 SLOAD PUSH2 0xEFB SWAP1 PUSH2 0x2C35 JUMP JUMPDEST DUP1 PUSH1 0x1F ADD PUSH1 0x20 DUP1 SWAP2 DIV MUL PUSH1 0x20 ADD PUSH1 0x40 MLOAD SWAP1 DUP2 ADD PUSH1 0x40 MSTORE DUP1 SWAP3 SWAP2 SWAP1 DUP2 DUP2 MSTORE PUSH1 0x20 ADD DUP3 DUP1 SLOAD PUSH2 0xF27 SWAP1 PUSH2 0x2C35 JUMP JUMPDEST DUP1 ISZERO PUSH2 0xF72 JUMPI DUP1 PUSH1 0x1F LT PUSH2 0xF49 JUMPI PUSH2 0x100 DUP1 DUP4 SLOAD DIV MUL DUP4 MSTORE SWAP2 PUSH1 0x20 ADD SWAP2 PUSH2 0xF72 JUMP JUMPDEST DUP3 ADD SWAP2 SWAP1 PUSH0 MSTORE PUSH1 0x20 PUSH0 KECCAK256 SWAP1 JUMPDEST DUP2 SLOAD DUP2 MSTORE SWAP1 PUSH1 0x1 ADD SWAP1 PUSH1 0x20 ADD DUP1 DUP4 GT PUSH2 0xF55 JUMPI DUP3 SWAP1 SUB PUSH1 0x1F AND DUP3 ADD SWAP2 JUMPDEST POP POP POP POP POP DUP2 MSTORE PUSH1 0x20 ADD PUSH1 0x4 DUP3 ADD SLOAD DUP2 MSTORE PUSH1 0x20 ADD PUSH1 0x5 DUP3 ADD SLOAD DUP2 MSTORE PUSH1 0x20 ADD PUSH1 0x6 DUP3 ADD DUP1 SLOAD DUP1 PUSH1 0x20 MUL PUSH1 0x20 ADD PUSH1 0x40 MLOAD SWAP1 DUP2 ADD PUSH1 0x40 MSTORE DUP1 SWAP3 SWAP2 SWAP1 DUP2 DUP2 MSTORE PUSH1 0x20 ADD PUSH0 SWAP1 JUMPDEST DUP3 DUP3 LT ISZERO PUSH2 0xC48 JUMPI DUP4 DUP3 SWAP1 PUSH0 MSTORE PUSH1 0x20 PUSH0 KECCAK256 ADD DUP1 SLOAD PUSH2 0xFD0 SWAP1 PUSH2 0x2C35 JUMP JUMPDEST DUP1 PUSH1 0x1F ADD PUSH1 0x20 DUP1 SWAP2 DIV MUL PUSH1 0x20 ADD PUSH1 0x40 MLOAD SWAP1 DUP2 ADD PUSH1 0x40 MSTORE DUP1 SWAP3 SWAP2 SWAP1 DUP2 DUP2 MSTORE PUSH1 0x20 ADD DUP3 DUP1 SLOAD PUSH2 0xFFC SWAP1 PUSH2 0x2C35 JUMP JUMPDEST DUP1 ISZERO PUSH2 0x1047 JUMPI DUP1 PUSH1 0x1F LT PUSH2 0x101E JUMPI PUSH2 0x100 DUP1 DUP4 SLOAD DIV MUL DUP4 MSTORE SWAP2 PUSH1 0x20 ADD SWAP2 PUSH2 0x1047 JUMP JUMPDEST DUP3 ADD SWAP2 SWAP1 PUSH0 MSTORE PUSH1 0x20 PUSH0 KECCAK256 SWAP1 JUMPDEST DUP2 SLOAD DUP2 MSTORE SWAP1 PUSH1 0x1 ADD SWAP1 PUSH1 0x20 ADD DUP1 DUP4 GT PUSH2 0x102A JUMPI DUP3 SWAP1 SUB PUSH1 0x1F AND DUP3 ADD SWAP2 JUMPDEST POP POP POP POP POP DUP2 MSTORE PUSH1 0x20 ADD SWAP1 PUSH1 0x1 ADD SWAP1 PUSH2 0xFB3 JUMP JUMPDEST PUSH1 0x3 DUP2 GT ISZERO PUSH2 0x106C JUMPI PUSH2 0x106C PUSH2 0x2790 JUMP JUMPDEST EQ PUSH2 0x108A JUMPI PUSH1 0x40 MLOAD PUSH4 0x87DA8E5F PUSH1 0xE0 SHL DUP2 MSTORE PUSH1 0x4 ADD PUSH1 0x40 MLOAD DUP1 SWAP2 SUB SWAP1 REVERT JUMPDEST PUSH1 0xA ADD DUP1 SLOAD PUSH1 0xFF NOT AND PUSH1 0x1 OR SWAP1 SSTORE POP JUMP JUMPDEST PUSH0 PUSH2 0x10A6 DUP11 DUP11 PUSH2 0x22BE JUMP JUMPDEST PUSH2 0x10B0 DUP9 DUP9 PUSH2 0x2308 JUMP JUMPDEST PUSH2 0x10BA DUP7 DUP7 PUSH2 0x2359 JUMP JUMPDEST PUSH2 0x10C4 DUP5 DUP5 PUSH2 0x239E JUMP JUMPDEST PUSH2 0x10CD DUP3 PUSH2 0x246E JUMP JUMPDEST PUSH0 DUP1 SLOAD PUSH1 0x1 DUP2 ADD DUP3 SSTORE SWAP1 DUP1 MSTORE PUSH1 0xB DUP2 MUL PUSH32 0x290DECD9548B62A8D60345A988386FC84BA6BC95484008F6362F93160EF3E563 DUP2 ADD DUP1 SLOAD PUSH32 0xFFFFFFFFFFFFFFFFFFFFFFFF0000000000000000000000000000000000000000 AND CALLER OR DUP2 SSTORE PUSH32 0x290DECD9548B62A8D60345A988386FC84BA6BC95484008F6362F93160EF3E564 DUP3 ADD DUP4 SWAP1 SSTORE SWAP1 PUSH32 0x290DECD9548B62A8D60345A988386FC84BA6BC95484008F6362F93160EF3E565 ADD PUSH2 0x117C DUP13 DUP15 DUP4 PUSH2 0x2CCC JUMP JUMPDEST POP PUSH1 0x3 DUP2 ADD PUSH2 0x118C DUP11 DUP13 DUP4 PUSH2 0x2CCC JUMP JUMPDEST POP PUSH1 0x4 DUP2 ADD DUP9 SWAP1 SSTORE PUSH2 0x11A4 PUSH1 0x40 DUP6 ADD PUSH1 0x20 DUP7 ADD PUSH2 0x2D93 JUMP JUMPDEST PUSH2 0x11AE JUMPI DUP7 PUSH2 0x11B0 JUMP JUMPDEST PUSH0 JUMPDEST PUSH1 0x5 DUP3 ADD SSTORE PUSH0 PUSH1 0x7 DUP3 ADD SSTORE DUP4 PUSH1 0x8 DUP3 ADD PUSH2 0x11CA DUP3 DUP3 PUSH2 0x2DBA JUMP JUMPDEST POP POP TIMESTAMP PUSH1 0x9 DUP3 ADD SSTORE PUSH1 0xA DUP2 ADD DUP1 SLOAD PUSH1 0xFF NOT AND SWAP1 SSTORE PUSH0 JUMPDEST DUP6 DUP2 LT ISZERO PUSH2 0x1238 JUMPI DUP2 PUSH1 0x6 ADD DUP8 DUP8 DUP4 DUP2 DUP2 LT PUSH2 0x11FE JUMPI PUSH2 0x11FE PUSH2 0x2E31 JUMP JUMPDEST SWAP1 POP PUSH1 0x20 MUL DUP2 ADD SWAP1 PUSH2 0x1210 SWAP2 SWAP1 PUSH2 0x2E45 JUMP JUMPDEST DUP3 SLOAD PUSH1 0x1 DUP2 ADD DUP5 SSTORE PUSH0 SWAP4 DUP5 MSTORE PUSH1 0x20 SWAP1 SWAP4 KECCAK256 SWAP1 SWAP3 ADD SWAP2 PUSH2 0x122F SWAP2 DUP4 PUSH2 0x2CCC JUMP JUMPDEST POP PUSH1 0x1 ADD PUSH2 0x11E0 JUMP JUMPDEST POP CALLER PUSH0 DUP2 DUP2 MSTORE PUSH1 0x1 PUSH1 0x20 DUP2 DUP2 MSTORE PUSH1 0x40 DUP1 DUP5 KECCAK256 DUP1 SLOAD SWAP4 DUP5 ADD DUP2 SSTORE DUP5 MSTORE SWAP1 DUP4 KECCAK256 SWAP1 SWAP2 ADD DUP6 SWAP1 SSTORE MLOAD DUP5 SWAP3 SWAP2 PUSH32 0x253458ED40D765E300EF79D87F8B5A901191FBFC27D54B1EA052A6752908953C SWAP2 LOG3 POP SWAP11 SWAP10 POP POP POP POP POP POP POP POP POP POP JUMP JUMPDEST PUSH0 PUSH2 0x129C DUP5 PUSH2 0x1FFF JUMP JUMPDEST SWAP1 POP PUSH1 0x1 PUSH1 0x40 DUP1 MLOAD PUSH2 0x160 DUP2 ADD DUP3 MSTORE DUP4 SLOAD PUSH1 0x1 PUSH1 0x1 PUSH1 0xA0 SHL SUB AND DUP2 MSTORE PUSH1 0x1 DUP5 ADD SLOAD PUSH1 0x20 DUP3 ADD MSTORE PUSH1 0x2 DUP5 ADD DUP1 SLOAD PUSH2 0x14CB SWAP4 DUP7 SWAP3 SWAP1 DUP5 ADD SWAP2 PUSH2 0x12DB SWAP1 PUSH2 0x2C35 JUMP JUMPDEST DUP1 PUSH1 0x1F ADD PUSH1 0x20 DUP1 SWAP2 DIV MUL PUSH1 0x20 ADD PUSH1 0x40 MLOAD SWAP1 DUP2 ADD PUSH1 0x40 MSTORE DUP1 SWAP3 SWAP2 SWAP1 DUP2 DUP2 MSTORE PUSH1 0x20 ADD DUP3 DUP1 SLOAD PUSH2 0x1307 SWAP1 PUSH2 0x2C35 JUMP JUMPDEST DUP1 ISZERO PUSH2 0x1352 JUMPI DUP1 PUSH1 0x1F LT PUSH2 0x1329 JUMPI PUSH2 0x100 DUP1 DUP4 SLOAD DIV MUL DUP4 MSTORE SWAP2 PUSH1 0x20 ADD SWAP2 PUSH2 0x1352 JUMP JUMPDEST DUP3 ADD SWAP2 SWAP1 PUSH0 MSTORE PUSH1 0x20 PUSH0 KECCAK256 SWAP1 JUMPDEST DUP2 SLOAD DUP2 MSTORE SWAP1 PUSH1 0x1 ADD SWAP1 PUSH1 0x20 ADD DUP1 DUP4 GT PUSH2 0x1335 JUMPI DUP3 SWAP1 SUB PUSH1 0x1F AND DUP3 ADD SWAP2 JUMPDEST POP POP POP POP POP DUP2 MSTORE PUSH1 0x20 ADD PUSH1 0x3 DUP3 ADD DUP1 SLOAD PUSH2 0x136B SWAP1 PUSH2 0x2C35 JUMP JUMPDEST DUP1 PUSH1 0x1F ADD PUSH1 0x20 DUP1 SWAP2 DIV MUL PUSH1 0x20 ADD PUSH1 0x40 MLOAD SWAP1 DUP2 ADD PUSH1 0x40 MSTORE DUP1 SWAP3 SWAP2 SWAP1 DUP2 DUP2 MSTORE PUSH1 0x20 ADD DUP3 DUP1 SLOAD PUSH2 0x1397 SWAP1 PUSH2 0x2C35 JUMP JUMPDEST DUP1 ISZERO PUSH2 0x13E2 JUMPI DUP1 PUSH1 0x1F LT PUSH2 0x13B9 JUMPI PUSH2 0x100 DUP1 DUP4 SLOAD DIV MUL DUP4 MSTORE SWAP2 PUSH1 0x20 ADD SWAP2 PUSH2 0x13E2 JUMP JUMPDEST DUP3 ADD SWAP2 SWAP1 PUSH0 MSTORE PUSH1 0x20 PUSH0 KECCAK256 SWAP1 JUMPDEST DUP2 SLOAD DUP2 MSTORE SWAP1 PUSH1 0x1 ADD SWAP1 PUSH1 0x20 ADD DUP1 DUP4 GT PUSH2 0x13C5 JUMPI DUP3 SWAP1 SUB PUSH1 0x1F AND DUP3 ADD SWAP2 JUMPDEST POP POP POP POP POP DUP2 MSTORE PUSH1 0x20 ADD PUSH1 0x4 DUP3 ADD SLOAD DUP2 MSTORE PUSH1 0x20 ADD PUSH1 0x5 DUP3 ADD SLOAD DUP2 MSTORE PUSH1 0x20 ADD PUSH1 0x6 DUP3 ADD DUP1 SLOAD DUP1 PUSH1 0x20 MUL PUSH1 0x20 ADD PUSH1 0x40 MLOAD SWAP1 DUP2 ADD PUSH1 0x40 MSTORE DUP1 SWAP3 SWAP2 SWAP1 DUP2 DUP2 MSTORE PUSH1 0x20 ADD PUSH0 SWAP1 JUMPDEST DUP3 DUP3 LT ISZERO PUSH2 0xC48 JUMPI DUP4 DUP3 SWAP1 PUSH0 MSTORE PUSH1 0x20 PUSH0 KECCAK256 ADD DUP1 SLOAD PUSH2 0x1440 SWAP1 PUSH2 0x2C35 JUMP JUMPDEST DUP1 PUSH1 0x1F ADD PUSH1 0x20 DUP1 SWAP2 DIV MUL PUSH1 0x20 ADD PUSH1 0x40 MLOAD SWAP1 DUP2 ADD PUSH1 0x40 MSTORE DUP1 SWAP3 SWAP2 SWAP1 DUP2 DUP2 MSTORE PUSH1 0x20 ADD DUP3 DUP1 SLOAD PUSH2 0x146C SWAP1 PUSH2 0x2C35 JUMP JUMPDEST DUP1 ISZERO PUSH2 0x14B7 JUMPI DUP1 PUSH1 0x1F LT PUSH2 0x148E JUMPI PUSH2 0x100 DUP1 DUP4 SLOAD DIV MUL DUP4 MSTORE SWAP2 PUSH1 0x20 ADD SWAP2 PUSH2 0x14B7 JUMP JUMPDEST DUP3 ADD SWAP2 SWAP1 PUSH0 MSTORE PUSH1 0x20 PUSH0 KECCAK256 SWAP1 JUMPDEST DUP2 SLOAD DUP2 MSTORE SWAP1 PUSH1 0x1 ADD SWAP1 PUSH1 0x20 ADD DUP1 DUP4 GT PUSH2 0x149A JUMPI DUP3 SWAP1 SUB PUSH1 0x1F AND DUP3 ADD SWAP2 JUMPDEST POP POP POP POP POP DUP2 MSTORE PUSH1 0x20 ADD SWAP1 PUSH1 0x1 ADD SWAP1 PUSH2 0x1423 JUMP JUMPDEST PUSH1 0x3 DUP2 GT ISZERO PUSH2 0x14DC JUMPI PUSH2 0x14DC PUSH2 0x2790 JUMP JUMPDEST EQ PUSH2 0x14FA JUMPI PUSH1 0x40 MLOAD PUSH4 0xB4F0E2D9 PUSH1 0xE0 SHL DUP2 MSTORE PUSH1 0x4 ADD PUSH1 0x40 MLOAD DUP1 SWAP2 SUB SWAP1 REVERT JUMPDEST PUSH0 DUP5 DUP2 MSTORE PUSH1 0x2 PUSH1 0x20 SWAP1 DUP2 MSTORE PUSH1 0x40 DUP1 DUP4 KECCAK256 CALLER DUP5 MSTORE SWAP1 SWAP2 MSTORE SWAP1 KECCAK256 SLOAD PUSH1 0xFF AND ISZERO PUSH2 0x1534 JUMPI PUSH1 0x40 MLOAD PUSH4 0x7C9A1CF9 PUSH1 0xE0 SHL DUP2 MSTORE PUSH1 0x4 ADD PUSH1 0x40 MLOAD DUP1 SWAP2 SUB SWAP1 REVERT JUMPDEST DUP2 PUSH0 DUP2 SWAP1 SUB PUSH2 0x1556 JUMPI PUSH1 0x40 MLOAD PUSH4 0xBE5A2ACD PUSH1 0xE0 SHL DUP2 MSTORE PUSH1 0x4 ADD PUSH1 0x40 MLOAD DUP1 SWAP2 SUB SWAP1 REVERT JUMPDEST PUSH1 0x8 DUP3 ADD SLOAD PUSH1 0xFF AND ISZERO DUP1 ISZERO PUSH2 0x156B JUMPI POP PUSH1 0x1 DUP2 GT JUMPDEST ISZERO PUSH2 0x1589 JUMPI PUSH1 0x40 MLOAD PUSH4 0xBAABD107 PUSH1 0xE0 SHL DUP2 MSTORE PUSH1 0x4 ADD PUSH1 0x40 MLOAD DUP1 SWAP2 SUB SWAP1 REVERT JUMPDEST PUSH0 JUMPDEST DUP2 DUP2 LT ISZERO PUSH2 0x166B JUMPI PUSH0 DUP6 DUP6 DUP4 DUP2 DUP2 LT PUSH2 0x15A6 JUMPI PUSH2 0x15A6 PUSH2 0x2E31 JUMP JUMPDEST SWAP1 POP PUSH1 0x20 MUL ADD CALLDATALOAD SWAP1 POP DUP4 PUSH1 0x6 ADD DUP1 SLOAD SWAP1 POP DUP2 LT PUSH2 0x15D6 JUMPI PUSH1 0x40 MLOAD PUSH4 0x70039A25 PUSH1 0xE0 SHL DUP2 MSTORE PUSH1 0x4 ADD PUSH1 0x40 MLOAD DUP1 SWAP2 SUB SWAP1 REVERT JUMPDEST PUSH0 JUMPDEST DUP3 DUP2 LT ISZERO PUSH2 0x1638 JUMPI DUP7 DUP7 DUP3 DUP2 DUP2 LT PUSH2 0x15F2 JUMPI PUSH2 0x15F2 PUSH2 0x2E31 JUMP JUMPDEST SWAP1 POP PUSH1 0x20 MUL ADD CALLDATALOAD DUP8 DUP8 DUP6 DUP2 DUP2 LT PUSH2 0x160B JUMPI PUSH2 0x160B PUSH2 0x2E31 JUMP JUMPDEST SWAP1 POP PUSH1 0x20 MUL ADD CALLDATALOAD SUB PUSH2 0x1630 JUMPI PUSH1 0x40 MLOAD PUSH4 0xFE3EE13 PUSH1 0xE1 SHL DUP2 MSTORE PUSH1 0x4 ADD PUSH1 0x40 MLOAD DUP1 SWAP2 SUB SWAP1 REVERT JUMPDEST PUSH1 0x1 ADD PUSH2 0x15D8 JUMP JUMPDEST POP PUSH0 DUP8 DUP2 MSTORE PUSH1 0x4 PUSH1 0x20 SWAP1 DUP2 MSTORE PUSH1 0x40 DUP1 DUP4 KECCAK256 DUP5 DUP5 MSTORE SWAP1 SWAP2 MSTORE DUP2 KECCAK256 DUP1 SLOAD SWAP2 PUSH2 0x165D DUP4 PUSH2 0x2E88 JUMP JUMPDEST SWAP1 SWAP2 SSTORE POP POP POP PUSH1 0x1 ADD PUSH2 0x158B JUMP JUMPDEST POP PUSH1 0x7 DUP3 ADD DUP1 SLOAD SWAP1 PUSH0 PUSH2 0x167D DUP4 PUSH2 0x2E88 JUMP JUMPDEST SWAP1 SWAP2 SSTORE POP POP PUSH0 DUP6 DUP2 MSTORE PUSH1 0x2 PUSH1 0x20 SWAP1 DUP2 MSTORE PUSH1 0x40 DUP1 DUP4 KECCAK256 CALLER DUP1 DUP6 MSTORE SWAP1 DUP4 MSTORE DUP2 DUP5 KECCAK256 DUP1 SLOAD PUSH1 0xFF NOT AND PUSH1 0x1 SWAP1 DUP2 OR SWAP1 SWAP2 SSTORE DUP1 DUP5 MSTORE DUP3 DUP6 KECCAK256 DUP1 SLOAD SWAP2 DUP3 ADD DUP2 SSTORE DUP6 MSTORE DUP4 DUP6 KECCAK256 ADD DUP10 SWAP1 SSTORE DUP9 DUP5 MSTORE PUSH1 0x5 DUP4 MSTORE DUP2 DUP5 KECCAK256 SWAP1 DUP5 MSTORE SWAP1 SWAP2 MSTORE SWAP1 KECCAK256 PUSH2 0x16DD SWAP1 DUP6 DUP6 PUSH2 0x255F JUMP JUMPDEST POP CALLER PUSH1 0x1 PUSH1 0x1 PUSH1 0xA0 SHL SUB AND PUSH32 0xCF413025C8B450134DAE85561CFE55BD5A20CD0D8912DB984431E553B31D4C09 DUP7 DUP7 DUP7 PUSH1 0x40 MLOAD PUSH2 0x171B SWAP4 SWAP3 SWAP2 SWAP1 PUSH2 0x2EAC JUMP JUMPDEST PUSH1 0x40 MLOAD DUP1 SWAP2 SUB SWAP1 LOG2 POP POP POP POP POP JUMP JUMPDEST PUSH1 0x1 PUSH1 0x1 PUSH1 0xA0 SHL SUB DUP2 AND PUSH0 SWAP1 DUP2 MSTORE PUSH1 0x1 PUSH1 0x20 MSTORE PUSH1 0x40 DUP2 KECCAK256 DUP1 SLOAD PUSH1 0x60 SWAP3 DUP2 PUSH8 0xFFFFFFFFFFFFFFFF DUP2 GT ISZERO PUSH2 0x175F JUMPI PUSH2 0x175F PUSH2 0x2C6D JUMP JUMPDEST PUSH1 0x40 MLOAD SWAP1 DUP1 DUP3 MSTORE DUP1 PUSH1 0x20 MUL PUSH1 0x20 ADD DUP3 ADD PUSH1 0x40 MSTORE DUP1 ISZERO PUSH2 0x1798 JUMPI DUP2 PUSH1 0x20 ADD JUMPDEST PUSH2 0x1785 PUSH2 0x25A8 JUMP JUMPDEST DUP2 MSTORE PUSH1 0x20 ADD SWAP1 PUSH1 0x1 SWAP1 SUB SWAP1 DUP2 PUSH2 0x177D JUMPI SWAP1 POP JUMPDEST POP SWAP1 POP PUSH0 JUMPDEST DUP3 DUP2 LT ISZERO PUSH2 0x1B5B JUMPI PUSH0 DUP5 DUP3 DUP2 SLOAD DUP2 LT PUSH2 0x17B8 JUMPI PUSH2 0x17B8 PUSH2 0x2E31 JUMP JUMPDEST SWAP1 PUSH0 MSTORE PUSH1 0x20 PUSH0 KECCAK256 ADD SLOAD SWAP1 POP PUSH0 DUP1 DUP3 DUP2 SLOAD DUP2 LT PUSH2 0x17D6 JUMPI PUSH2 0x17D6 PUSH2 0x2E31 JUMP JUMPDEST PUSH0 SWAP2 DUP3 MSTORE PUSH1 0x20 SWAP1 SWAP2 KECCAK256 PUSH1 0xB SWAP1 SWAP2 MUL ADD PUSH1 0xA DUP2 ADD SLOAD SWAP1 SWAP2 POP PUSH1 0xFF AND ISZERO PUSH2 0x17FC JUMPI POP POP PUSH2 0x1B53 JUMP JUMPDEST PUSH1 0x40 DUP1 MLOAD PUSH2 0x100 DUP2 ADD DUP3 MSTORE DUP3 SLOAD PUSH1 0x1 PUSH1 0x1 PUSH1 0xA0 SHL SUB AND DUP2 MSTORE PUSH1 0x20 DUP2 ADD DUP5 SWAP1 MSTORE PUSH1 0x2 DUP4 ADD DUP1 SLOAD SWAP2 SWAP3 DUP4 ADD SWAP2 PUSH2 0x182F SWAP1 PUSH2 0x2C35 JUMP JUMPDEST DUP1 PUSH1 0x1F ADD PUSH1 0x20 DUP1 SWAP2 DIV MUL PUSH1 0x20 ADD PUSH1 0x40 MLOAD SWAP1 DUP2 ADD PUSH1 0x40 MSTORE DUP1 SWAP3 SWAP2 SWAP1 DUP2 DUP2 MSTORE PUSH1 0x20 ADD DUP3 DUP1 SLOAD PUSH2 0x185B SWAP1 PUSH2 0x2C35 JUMP JUMPDEST DUP1 ISZERO PUSH2 0x18A6 JUMPI DUP1 PUSH1 0x1F LT PUSH2 0x187D JUMPI PUSH2 0x100 DUP1 DUP4 SLOAD DIV MUL DUP4 MSTORE SWAP2 PUSH1 0x20 ADD SWAP2 PUSH2 0x18A6 JUMP JUMPDEST DUP3 ADD SWAP2 SWAP1 PUSH0 MSTORE PUSH1 0x20 PUSH0 KECCAK256 SWAP1 JUMPDEST DUP2 SLOAD DUP2 MSTORE SWAP1 PUSH1 0x1 ADD SWAP1 PUSH1 0x20 ADD DUP1 DUP4 GT PUSH2 0x1889 JUMPI DUP3 SWAP1 SUB PUSH1 0x1F AND DUP3 ADD SWAP2 JUMPDEST POP POP POP POP POP DUP2 MSTORE PUSH1 0x20 ADD DUP3 PUSH1 0x7 ADD SLOAD DUP2 MSTORE PUSH1 0x20 ADD PUSH2 0x1B01 DUP4 PUSH1 0x40 MLOAD DUP1 PUSH2 0x160 ADD PUSH1 0x40 MSTORE SWAP1 DUP2 PUSH0 DUP3 ADD PUSH0 SWAP1 SLOAD SWAP1 PUSH2 0x100 EXP SWAP1 DIV PUSH1 0x1 PUSH1 0x1 PUSH1 0xA0 SHL SUB AND PUSH1 0x1 PUSH1 0x1 PUSH1 0xA0 SHL SUB AND PUSH1 0x1 PUSH1 0x1 PUSH1 0xA0 SHL SUB AND DUP2 MSTORE PUSH1 0x20 ADD PUSH1 0x1 DUP3 ADD SLOAD DUP2 MSTORE PUSH1 0x20 ADD PUSH1 0x2 DUP3 ADD DUP1 SLOAD PUSH2 0x1911 SWAP1 PUSH2 0x2C35 JUMP JUMPDEST DUP1 PUSH1 0x1F ADD PUSH1 0x20 DUP1 SWAP2 DIV MUL PUSH1 0x20 ADD PUSH1 0x40 MLOAD SWAP1 DUP2 ADD PUSH1 0x40 MSTORE DUP1 SWAP3 SWAP2 SWAP1 DUP2 DUP2 MSTORE PUSH1 0x20 ADD DUP3 DUP1 SLOAD PUSH2 0x193D SWAP1 PUSH2 0x2C35 JUMP JUMPDEST DUP1 ISZERO PUSH2 0x1988 JUMPI DUP1 PUSH1 0x1F LT PUSH2 0x195F JUMPI PUSH2 0x100 DUP1 DUP4 SLOAD DIV MUL DUP4 MSTORE SWAP2 PUSH1 0x20 ADD SWAP2 PUSH2 0x1988 JUMP JUMPDEST DUP3 ADD SWAP2 SWAP1 PUSH0 MSTORE PUSH1 0x20 PUSH0 KECCAK256 SWAP1 JUMPDEST DUP2 SLOAD DUP2 MSTORE SWAP1 PUSH1 0x1 ADD SWAP1 PUSH1 0x20 ADD DUP1 DUP4 GT PUSH2 0x196B JUMPI DUP3 SWAP1 SUB PUSH1 0x1F AND DUP3 ADD SWAP2 JUMPDEST POP POP POP POP POP DUP2 MSTORE PUSH1 0x20 ADD PUSH1 0x3 DUP3 ADD DUP1 SLOAD PUSH2 0x19A1 SWAP1 PUSH2 0x2C35 JUMP JUMPDEST DUP1 PUSH1 0x1F ADD PUSH1 0x20 DUP1 SWAP2 DIV MUL PUSH1 0x20 ADD PUSH1 0x40 MLOAD SWAP1 DUP2 ADD PUSH1 0x40 MSTORE DUP1 SWAP3 SWAP2 SWAP1 DUP2 DUP2 MSTORE PUSH1 0x20 ADD DUP3 DUP1 SLOAD PUSH2 0x19CD SWAP1 PUSH2 0x2C35 JUMP JUMPDEST DUP1 ISZERO PUSH2 0x1A18 JUMPI DUP1 PUSH1 0x1F LT PUSH2 0x19EF JUMPI PUSH2 0x100 DUP1 DUP4 SLOAD DIV MUL DUP4 MSTORE SWAP2 PUSH1 0x20 ADD SWAP2 PUSH2 0x1A18 JUMP JUMPDEST DUP3 ADD SWAP2 SWAP1 PUSH0 MSTORE PUSH1 0x20 PUSH0 KECCAK256 SWAP1 JUMPDEST DUP2 SLOAD DUP2 MSTORE SWAP1 PUSH1 0x1 ADD SWAP1 PUSH1 0x20 ADD DUP1 DUP4 GT PUSH2 0x19FB JUMPI DUP3 SWAP1 SUB PUSH1 0x1F AND DUP3 ADD SWAP2 JUMPDEST POP POP POP POP POP DUP2 MSTORE PUSH1 0x20 ADD PUSH1 0x4 DUP3 ADD SLOAD DUP2 MSTORE PUSH1 0x20 ADD PUSH1 0x5 DUP3 ADD SLOAD DUP2 MSTORE PUSH1 0x20 ADD PUSH1 0x6 DUP3 ADD DUP1 SLOAD DUP1 PUSH1 0x20 MUL PUSH1 0x20 ADD PUSH1 0x40 MLOAD SWAP1 DUP2 ADD PUSH1 0x40 MSTORE DUP1 SWAP3 SWAP2 SWAP1 DUP2 DUP2 MSTORE PUSH1 0x20 ADD PUSH0 SWAP1 JUMPDEST DUP3 DUP3 LT ISZERO PUSH2 0xC48 JUMPI DUP4 DUP3 SWAP1 PUSH0 MSTORE PUSH1 0x20 PUSH0 KECCAK256 ADD DUP1 SLOAD PUSH2 0x1A76 SWAP1 PUSH2 0x2C35 JUMP JUMPDEST DUP1 PUSH1 0x1F ADD PUSH1 0x20 DUP1 SWAP2 DIV MUL PUSH1 0x20 ADD PUSH1 0x40 MLOAD SWAP1 DUP2 ADD PUSH1 0x40 MSTORE DUP1 SWAP3 SWAP2 SWAP1 DUP2 DUP2 MSTORE PUSH1 0x20 ADD DUP3 DUP1 SLOAD PUSH2 0x1AA2 SWAP1 PUSH2 0x2C35 JUMP JUMPDEST DUP1 ISZERO PUSH2 0x1AED JUMPI DUP1 PUSH1 0x1F LT PUSH2 0x1AC4 JUMPI PUSH2 0x100 DUP1 DUP4 SLOAD DIV MUL DUP4 MSTORE SWAP2 PUSH1 0x20 ADD SWAP2 PUSH2 0x1AED JUMP JUMPDEST DUP3 ADD SWAP2 SWAP1 PUSH0 MSTORE PUSH1 0x20 PUSH0 KECCAK256 SWAP1 JUMPDEST DUP2 SLOAD DUP2 MSTORE SWAP1 PUSH1 0x1 ADD SWAP1 PUSH1 0x20 ADD DUP1 DUP4 GT PUSH2 0x1AD0 JUMPI DUP3 SWAP1 SUB PUSH1 0x1F AND DUP3 ADD SWAP2 JUMPDEST POP POP POP POP POP DUP2 MSTORE PUSH1 0x20 ADD SWAP1 PUSH1 0x1 ADD SWAP1 PUSH2 0x1A59 JUMP JUMPDEST PUSH1 0x3 DUP2 GT ISZERO PUSH2 0x1B12 JUMPI PUSH2 0x1B12 PUSH2 0x2790 JUMP JUMPDEST DUP2 MSTORE PUSH1 0x20 ADD DUP3 PUSH1 0x4 ADD SLOAD DUP2 MSTORE PUSH1 0x20 ADD DUP3 PUSH1 0x5 ADD SLOAD DUP2 MSTORE PUSH1 0x20 ADD DUP3 PUSH1 0x9 ADD SLOAD DUP2 MSTORE POP DUP5 DUP5 DUP2 MLOAD DUP2 LT PUSH2 0x1B45 JUMPI PUSH2 0x1B45 PUSH2 0x2E31 JUMP JUMPDEST PUSH1 0x20 MUL PUSH1 0x20 ADD ADD DUP2 SWAP1 MSTORE POP POP POP JUMPDEST PUSH1 0x1 ADD PUSH2 0x179D JUMP JUMPDEST POP SWAP5 SWAP4 POP POP POP POP JUMP JUMPDEST PUSH0 PUSH2 0x1B6E DUP3 PUSH2 0x1FFF JUMP JUMPDEST DUP1 SLOAD SWAP1 SWAP2 POP PUSH1 0x1 PUSH1 0x1 PUSH1 0xA0 SHL SUB AND CALLER EQ PUSH2 0x1B9B JUMPI PUSH1 0x40 MLOAD PUSH4 0x4CA88867 PUSH1 0xE0 SHL DUP2 MSTORE PUSH1 0x4 ADD PUSH1 0x40 MLOAD DUP1 SWAP2 SUB SWAP1 REVERT JUMPDEST PUSH1 0x3 PUSH1 0x40 DUP1 MLOAD PUSH2 0x160 DUP2 ADD DUP3 MSTORE DUP4 SLOAD PUSH1 0x1 PUSH1 0x1 PUSH1 0xA0 SHL SUB AND DUP2 MSTORE PUSH1 0x1 DUP5 ADD SLOAD PUSH1 0x20 DUP3 ADD MSTORE PUSH1 0x2 DUP5 ADD DUP1 SLOAD PUSH2 0x1DC8 SWAP4 DUP7 SWAP3 SWAP1 DUP5 ADD SWAP2 PUSH2 0x1BD8 SWAP1 PUSH2 0x2C35 JUMP JUMPDEST DUP1 PUSH1 0x1F ADD PUSH1 0x20 DUP1 SWAP2 DIV MUL PUSH1 0x20 ADD PUSH1 0x40 MLOAD SWAP1 DUP2 ADD PUSH1 0x40 MSTORE DUP1 SWAP3 SWAP2 SWAP1 DUP2 DUP2 MSTORE PUSH1 0x20 ADD DUP3 DUP1 SLOAD PUSH2 0x1C04 SWAP1 PUSH2 0x2C35 JUMP JUMPDEST DUP1 ISZERO PUSH2 0x1C4F JUMPI DUP1 PUSH1 0x1F LT PUSH2 0x1C26 JUMPI PUSH2 0x100 DUP1 DUP4 SLOAD DIV MUL DUP4 MSTORE SWAP2 PUSH1 0x20 ADD SWAP2 PUSH2 0x1C4F JUMP JUMPDEST DUP3 ADD SWAP2 SWAP1 PUSH0 MSTORE PUSH1 0x20 PUSH0 KECCAK256 SWAP1 JUMPDEST DUP2 SLOAD DUP2 MSTORE SWAP1 PUSH1 0x1 ADD SWAP1 PUSH1 0x20 ADD DUP1 DUP4 GT PUSH2 0x1C32 JUMPI DUP3 SWAP1 SUB PUSH1 0x1F AND DUP3 ADD SWAP2 JUMPDEST POP POP POP POP POP DUP2 MSTORE PUSH1 0x20 ADD PUSH1 0x3 DUP3 ADD DUP1 SLOAD PUSH2 0x1C68 SWAP1 PUSH2 0x2C35 JUMP JUMPDEST DUP1 PUSH1 0x1F ADD PUSH1 0x20 DUP1 SWAP2 DIV MUL PUSH1 0x20 ADD PUSH1 0x40 MLOAD SWAP1 DUP2 ADD PUSH1 0x40 MSTORE DUP1 SWAP3 SWAP2 SWAP1 DUP2 DUP2 MSTORE PUSH1 0x20 ADD DUP3 DUP1 SLOAD PUSH2 0x1C94 SWAP1 PUSH2 0x2C35 JUMP JUMPDEST DUP1 ISZERO PUSH2 0x1CDF JUMPI DUP1 PUSH1 0x1F LT PUSH2 0x1CB6 JUMPI PUSH2 0x100 DUP1 DUP4 SLOAD DIV MUL DUP4 MSTORE SWAP2 PUSH1 0x20 ADD SWAP2 PUSH2 0x1CDF JUMP JUMPDEST DUP3 ADD SWAP2 SWAP1 PUSH0 MSTORE PUSH1 0x20 PUSH0 KECCAK256 SWAP1 JUMPDEST DUP2 SLOAD DUP2 MSTORE SWAP1 PUSH1 0x1 ADD SWAP1 PUSH1 0x20 ADD DUP1 DUP4 GT PUSH2 0x1CC2 JUMPI DUP3 SWAP1 SUB PUSH1 0x1F AND DUP3 ADD SWAP2 JUMPDEST POP POP POP POP POP DUP2 MSTORE PUSH1 0x20 ADD PUSH1 0x4 DUP3 ADD SLOAD DUP2 MSTORE PUSH1 0x20 ADD PUSH1 0x5 DUP3 ADD SLOAD DUP2 MSTORE PUSH1 0x20 ADD PUSH1 0x6 DUP3 ADD DUP1 SLOAD DUP1 PUSH1 0x20 MUL PUSH1 0x20 ADD PUSH1 0x40 MLOAD SWAP1 DUP2 ADD PUSH1 0x40 MSTORE DUP1 SWAP3 SWAP2 SWAP1 DUP2 DUP2 MSTORE PUSH1 0x20 ADD PUSH0 SWAP1 JUMPDEST DUP3 DUP3 LT ISZERO PUSH2 0xC48 JUMPI DUP4 DUP3 SWAP1 PUSH0 MSTORE PUSH1 0x20 PUSH0 KECCAK256 ADD DUP1 SLOAD PUSH2 0x1D3D SWAP1 PUSH2 0x2C35 JUMP JUMPDEST DUP1 PUSH1 0x1F ADD PUSH1 0x20 DUP1 SWAP2 DIV MUL PUSH1 0x20 ADD PUSH1 0x40 MLOAD SWAP1 DUP2 ADD PUSH1 0x40 MSTORE DUP1 SWAP3 SWAP2 SWAP1 DUP2 DUP2 MSTORE PUSH1 0x20 ADD DUP3 DUP1 SLOAD PUSH2 0x1D69 SWAP1 PUSH2 0x2C35 JUMP JUMPDEST DUP1 ISZERO PUSH2 0x1DB4 JUMPI DUP1 PUSH1 0x1F LT PUSH2 0x1D8B JUMPI PUSH2 0x100 DUP1 DUP4 SLOAD DIV MUL DUP4 MSTORE SWAP2 PUSH1 0x20 ADD SWAP2 PUSH2 0x1DB4 JUMP JUMPDEST DUP3 ADD SWAP2 SWAP1 PUSH0 MSTORE PUSH1 0x20 PUSH0 KECCAK256 SWAP1 JUMPDEST DUP2 SLOAD DUP2 MSTORE SWAP1 PUSH1 0x1 ADD SWAP1 PUSH1 0x20 ADD DUP1 DUP4 GT PUSH2 0x1D97 JUMPI DUP3 SWAP1 SUB PUSH1 0x1F AND DUP3 ADD SWAP2 JUMPDEST POP POP POP POP POP DUP2 MSTORE PUSH1 0x20 ADD SWAP1 PUSH1 0x1 ADD SWAP1 PUSH2 0x1D20 JUMP JUMPDEST PUSH1 0x3 DUP2 GT ISZERO PUSH2 0x1DD9 JUMPI PUSH2 0x1DD9 PUSH2 0x2790 JUMP JUMPDEST SUB PUSH2 0x1DF7 JUMPI PUSH1 0x40 MLOAD PUSH4 0x9B22DDEB PUSH1 0xE0 SHL DUP2 MSTORE PUSH1 0x4 ADD PUSH1 0x40 MLOAD DUP1 SWAP2 SUB SWAP1 REVERT JUMPDEST PUSH1 0x1 PUSH1 0x5 DUP3 ADD SSTORE PUSH1 0x40 MLOAD DUP3 SWAP1 CALLER SWAP1 PUSH32 0x563A96CEBB2DD00C04FE16AB3F34901E3749B13DA3040E6CAE0B5A55EA4DAEE2 SWAP1 PUSH0 SWAP1 LOG3 POP POP JUMP JUMPDEST PUSH0 DUP2 DUP2 SLOAD DUP2 LT PUSH2 0x1E3C JUMPI PUSH0 DUP1 REVERT JUMPDEST PUSH0 SWAP2 DUP3 MSTORE PUSH1 0x20 SWAP1 SWAP2 KECCAK256 PUSH1 0xB SWAP1 SWAP2 MUL ADD DUP1 SLOAD PUSH1 0x1 DUP3 ADD SLOAD PUSH1 0x2 DUP4 ADD DUP1 SLOAD PUSH1 0x1 PUSH1 0x1 PUSH1 0xA0 SHL SUB SWAP1 SWAP4 AND SWAP5 POP SWAP1 SWAP3 SWAP2 PUSH2 0x1E71 SWAP1 PUSH2 0x2C35 JUMP JUMPDEST DUP1 PUSH1 0x1F ADD PUSH1 0x20 DUP1 SWAP2 DIV MUL PUSH1 0x20 ADD PUSH1 0x40 MLOAD SWAP1 DUP2 ADD PUSH1 0x40 MSTORE DUP1 SWAP3 SWAP2 SWAP1 DUP2 DUP2 MSTORE PUSH1 0x20 ADD DUP3 DUP1 SLOAD PUSH2 0x1E9D SWAP1 PUSH2 0x2C35 JUMP JUMPDEST DUP1 ISZERO PUSH2 0x1EE8 JUMPI DUP1 PUSH1 0x1F LT PUSH2 0x1EBF JUMPI PUSH2 0x100 DUP1 DUP4 SLOAD DIV MUL DUP4 MSTORE SWAP2 PUSH1 0x20 ADD SWAP2 PUSH2 0x1EE8 JUMP JUMPDEST DUP3 ADD SWAP2 SWAP1 PUSH0 MSTORE PUSH1 0x20 PUSH0 KECCAK256 SWAP1 JUMPDEST DUP2 SLOAD DUP2 MSTORE SWAP1 PUSH1 0x1 ADD SWAP1 PUSH1 0x20 ADD DUP1 DUP4 GT PUSH2 0x1ECB JUMPI DUP3 SWAP1 SUB PUSH1 0x1F AND DUP3 ADD SWAP2 JUMPDEST POP POP POP POP POP SWAP1 DUP1 PUSH1 0x3 ADD DUP1 SLOAD PUSH2 0x1EFD SWAP1 PUSH2 0x2C35 JUMP JUMPDEST DUP1 PUSH1 0x1F ADD PUSH1 0x20 DUP1 SWAP2 DIV MUL PUSH1 0x20 ADD PUSH1 0x40 MLOAD SWAP1 DUP2 ADD PUSH1 0x40 MSTORE DUP1 SWAP3 SWAP2 SWAP1 DUP2 DUP2 MSTORE PUSH1 0x20 ADD DUP3 DUP1 SLOAD PUSH2 0x1F29 SWAP1 PUSH2 0x2C35 JUMP JUMPDEST DUP1 ISZERO PUSH2 0x1F74 JUMPI DUP1 PUSH1 0x1F LT PUSH2 0x1F4B JUMPI PUSH2 0x100 DUP1 DUP4 SLOAD DIV MUL DUP4 MSTORE SWAP2 PUSH1 0x20 ADD SWAP2 PUSH2 0x1F74 JUMP JUMPDEST DUP3 ADD SWAP2 SWAP1 PUSH0 MSTORE PUSH1 0x20 PUSH0 KECCAK256 SWAP1 JUMPDEST DUP2 SLOAD DUP2 MSTORE SWAP1 PUSH1 0x1 ADD SWAP1 PUSH1 0x20 ADD DUP1 DUP4 GT PUSH2 0x1F57 JUMPI DUP3 SWAP1 SUB PUSH1 0x1F AND DUP3 ADD SWAP2 JUMPDEST POP POP POP PUSH1 0x4 DUP5 ADD SLOAD PUSH1 0x5 DUP6 ADD SLOAD PUSH1 0x7 DUP7 ADD SLOAD PUSH1 0x40 DUP1 MLOAD PUSH1 0x60 DUP2 ADD DUP3 MSTORE PUSH1 0x8 DUP10 ADD DUP1 SLOAD PUSH1 0xFF DUP1 DUP3 AND ISZERO ISZERO DUP5 MSTORE PUSH2 0x100 DUP3 DIV DUP2 AND ISZERO ISZERO PUSH1 0x20 DUP6 ADD MSTORE SWAP10 SWAP11 SWAP7 SWAP10 SWAP6 SWAP9 POP SWAP4 SWAP7 POP SWAP1 SWAP4 SWAP1 SWAP3 SWAP2 DUP5 ADD SWAP2 PUSH3 0x10000 SWAP1 DIV AND PUSH1 0x3 DUP2 GT ISZERO PUSH2 0x1FD7 JUMPI PUSH2 0x1FD7 PUSH2 0x2790 JUMP JUMPDEST PUSH1 0x3 DUP2 GT ISZERO PUSH2 0x1FE8 JUMPI PUSH2 0x1FE8 PUSH2 0x2790 JUMP JUMPDEST SWAP1 MSTORE POP PUSH1 0x9 DUP3 ADD SLOAD PUSH1 0xA SWAP1 SWAP3 ADD SLOAD SWAP1 SWAP2 SWAP1 PUSH1 0xFF AND DUP11 JUMP JUMPDEST PUSH0 DUP1 SLOAD DUP3 LT PUSH2 0x2029 JUMPI PUSH1 0x40 MLOAD PUSH4 0x2708A4D PUSH1 0xE2 SHL DUP2 MSTORE PUSH1 0x4 DUP2 ADD DUP4 SWAP1 MSTORE PUSH1 0x24 ADD JUMPDEST PUSH1 0x40 MLOAD DUP1 SWAP2 SUB SWAP1 REVERT JUMPDEST PUSH0 DUP1 DUP4 DUP2 SLOAD DUP2 LT PUSH2 0x203C JUMPI PUSH2 0x203C PUSH2 0x2E31 JUMP JUMPDEST PUSH0 SWAP2 DUP3 MSTORE PUSH1 0x20 SWAP1 SWAP2 KECCAK256 PUSH1 0xB SWAP1 SWAP2 MUL ADD PUSH1 0xA DUP2 ADD SLOAD SWAP1 SWAP2 POP PUSH1 0xFF AND ISZERO PUSH2 0x788 JUMPI PUSH1 0x40 MLOAD PUSH4 0x2708A4D PUSH1 0xE2 SHL DUP2 MSTORE PUSH1 0x4 DUP2 ADD DUP5 SWAP1 MSTORE PUSH1 0x24 ADD PUSH2 0x2020 JUMP JUMPDEST PUSH0 PUSH1 0x3 DUP4 PUSH2 0x100 ADD MLOAD PUSH1 0x40 ADD MLOAD PUSH1 0x3 DUP2 GT ISZERO PUSH2 0x2095 JUMPI PUSH2 0x2095 PUSH2 0x2790 JUMP JUMPDEST SUB PUSH2 0x20A1 JUMPI POP PUSH0 PUSH2 0x788 JUMP JUMPDEST PUSH1 0x1 DUP4 PUSH2 0x100 ADD MLOAD PUSH1 0x40 ADD MLOAD PUSH1 0x3 DUP2 GT ISZERO PUSH2 0x20BE JUMPI PUSH2 0x20BE PUSH2 0x2790 JUMP JUMPDEST EQ DUP1 ISZERO PUSH2 0x20EF JUMPI POP PUSH1 0x20 DUP1 DUP5 ADD MLOAD PUSH0 SWAP1 DUP2 MSTORE PUSH1 0x2 DUP3 MSTORE PUSH1 0x40 DUP1 DUP3 KECCAK256 PUSH1 0x1 PUSH1 0x1 PUSH1 0xA0 SHL SUB DUP7 AND DUP4 MSTORE SWAP1 SWAP3 MSTORE KECCAK256 SLOAD PUSH1 0xFF AND ISZERO JUMPDEST ISZERO PUSH2 0x20FB JUMPI POP PUSH0 PUSH2 0x788 JUMP JUMPDEST PUSH1 0x2 DUP4 PUSH2 0x100 ADD MLOAD PUSH1 0x40 ADD MLOAD PUSH1 0x3 DUP2 GT ISZERO PUSH2 0x2118 JUMPI PUSH2 0x2118 PUSH2 0x2790 JUMP JUMPDEST EQ DUP1 ISZERO PUSH2 0x213F JUMPI POP PUSH1 0x2 PUSH2 0x212B DUP5 PUSH2 0x2269 JUMP JUMPDEST PUSH1 0x3 DUP2 GT ISZERO PUSH2 0x213C JUMPI PUSH2 0x213C PUSH2 0x2790 JUMP JUMPDEST EQ ISZERO JUMPDEST DUP1 ISZERO PUSH2 0x2165 JUMPI POP PUSH1 0x3 PUSH2 0x2151 DUP5 PUSH2 0x2269 JUMP JUMPDEST PUSH1 0x3 DUP2 GT ISZERO PUSH2 0x2162 JUMPI PUSH2 0x2162 PUSH2 0x2790 JUMP JUMPDEST EQ ISZERO JUMPDEST ISZERO PUSH2 0x2171 JUMPI POP PUSH0 PUSH2 0x788 JUMP JUMPDEST POP PUSH1 0x1 SWAP3 SWAP2 POP POP JUMP JUMPDEST PUSH1 0xC0 DUP2 ADD MLOAD MLOAD PUSH1 0x60 SWAP1 PUSH0 DUP2 PUSH8 0xFFFFFFFFFFFFFFFF DUP2 GT ISZERO PUSH2 0x219D JUMPI PUSH2 0x219D PUSH2 0x2C6D JUMP JUMPDEST PUSH1 0x40 MLOAD SWAP1 DUP1 DUP3 MSTORE DUP1 PUSH1 0x20 MUL PUSH1 0x20 ADD DUP3 ADD PUSH1 0x40 MSTORE DUP1 ISZERO PUSH2 0x21E2 JUMPI DUP2 PUSH1 0x20 ADD JUMPDEST PUSH1 0x40 DUP1 MLOAD DUP1 DUP3 ADD SWAP1 SWAP2 MSTORE PUSH1 0x60 DUP2 MSTORE PUSH0 PUSH1 0x20 DUP3 ADD MSTORE DUP2 MSTORE PUSH1 0x20 ADD SWAP1 PUSH1 0x1 SWAP1 SUB SWAP1 DUP2 PUSH2 0x21BB JUMPI SWAP1 POP JUMPDEST POP SWAP1 POP PUSH0 JUMPDEST DUP3 DUP2 LT ISZERO PUSH2 0x2261 JUMPI PUSH1 0x40 MLOAD DUP1 PUSH1 0x40 ADD PUSH1 0x40 MSTORE DUP1 DUP7 PUSH1 0xC0 ADD MLOAD DUP4 DUP2 MLOAD DUP2 LT PUSH2 0x2210 JUMPI PUSH2 0x2210 PUSH2 0x2E31 JUMP JUMPDEST PUSH1 0x20 SWAP1 DUP2 MUL SWAP2 SWAP1 SWAP2 ADD DUP2 ADD MLOAD DUP3 MSTORE DUP8 DUP2 ADD MLOAD PUSH0 SWAP1 DUP2 MSTORE PUSH1 0x4 DUP3 MSTORE PUSH1 0x40 DUP1 DUP3 KECCAK256 DUP7 DUP4 MSTORE DUP4 MSTORE SWAP1 KECCAK256 SLOAD SWAP2 ADD MSTORE DUP3 MLOAD DUP4 SWAP1 DUP4 SWAP1 DUP2 LT PUSH2 0x224E JUMPI PUSH2 0x224E PUSH2 0x2E31 JUMP JUMPDEST PUSH1 0x20 SWAP1 DUP2 MUL SWAP2 SWAP1 SWAP2 ADD ADD MSTORE PUSH1 0x1 ADD PUSH2 0x21E7 JUMP JUMPDEST POP SWAP4 SWAP3 POP POP POP JUMP JUMPDEST PUSH0 TIMESTAMP DUP3 PUSH1 0x80 ADD MLOAD GT ISZERO PUSH2 0x227D JUMPI POP PUSH0 SWAP2 SWAP1 POP JUMP JUMPDEST DUP2 PUSH1 0xA0 ADD MLOAD PUSH1 0x1 SUB PUSH2 0x2291 JUMPI POP PUSH1 0x3 SWAP2 SWAP1 POP JUMP JUMPDEST PUSH1 0x1 DUP3 PUSH1 0xA0 ADD MLOAD GT DUP1 ISZERO PUSH2 0x22A9 JUMPI POP TIMESTAMP DUP3 PUSH1 0xA0 ADD MLOAD GT ISZERO JUMPDEST ISZERO PUSH2 0x22B6 JUMPI POP PUSH1 0x2 SWAP2 SWAP1 POP JUMP JUMPDEST POP PUSH1 0x1 SWAP2 SWAP1 POP JUMP JUMPDEST DUP1 PUSH1 0x3 DUP2 LT ISZERO PUSH2 0x22E1 JUMPI PUSH1 0x40 MLOAD PUSH4 0x24ACE355 PUSH1 0xE0 SHL DUP2 MSTORE PUSH1 0x4 ADD PUSH1 0x40 MLOAD DUP1 SWAP2 SUB SWAP1 REVERT JUMPDEST PUSH1 0x64 DUP2 GT ISZERO PUSH2 0x2303 JUMPI PUSH1 0x40 MLOAD PUSH4 0x2B5DF40F PUSH1 0xE2 SHL DUP2 MSTORE PUSH1 0x4 ADD PUSH1 0x40 MLOAD DUP1 SWAP2 SUB SWAP1 REVERT JUMPDEST POP POP POP JUMP JUMPDEST DUP1 DUP1 ISZERO DUP1 ISZERO SWAP1 PUSH2 0x2318 JUMPI POP PUSH1 0xA DUP2 LT JUMPDEST ISZERO PUSH2 0x2336 JUMPI PUSH1 0x40 MLOAD PUSH4 0x1B0BF735 PUSH1 0xE2 SHL DUP2 MSTORE PUSH1 0x4 ADD PUSH1 0x40 MLOAD DUP1 SWAP2 SUB SWAP1 REVERT JUMPDEST PUSH2 0x3E8 DUP2 GT ISZERO PUSH2 0x2303 JUMPI PUSH1 0x40 MLOAD PUSH4 0x1B0FCE83 PUSH1 0xE0 SHL DUP2 MSTORE PUSH1 0x4 ADD PUSH1 0x40 MLOAD DUP1 SWAP2 SUB SWAP1 REVERT JUMPDEST TIMESTAMP DUP3 LT ISZERO PUSH2 0x237A JUMPI PUSH1 0x40 MLOAD PUSH4 0x3EB2D8C5 PUSH1 0xE0 SHL DUP2 MSTORE PUSH1 0x4 ADD PUSH1 0x40 MLOAD DUP1 SWAP2 SUB SWAP1 REVERT JUMPDEST DUP2 DUP2 GT PUSH2 0x239A JUMPI PUSH1 0x40 MLOAD PUSH4 0x71F32861 PUSH1 0xE1 SHL DUP2 MSTORE PUSH1 0x4 ADD PUSH1 0x40 MLOAD DUP1 SWAP2 SUB SWAP1 REVERT JUMPDEST POP POP JUMP JUMPDEST DUP1 PUSH1 0x2 DUP2 LT ISZERO PUSH2 0x23C1 JUMPI PUSH1 0x40 MLOAD PUSH4 0x8EE5F57D PUSH1 0xE0 SHL DUP2 MSTORE PUSH1 0x4 ADD PUSH1 0x40 MLOAD DUP1 SWAP2 SUB SWAP1 REVERT JUMPDEST PUSH1 0xA DUP2 GT ISZERO PUSH2 0x23E3 JUMPI PUSH1 0x40 MLOAD PUSH4 0x701D39F1 PUSH1 0xE1 SHL DUP2 MSTORE PUSH1 0x4 ADD PUSH1 0x40 MLOAD DUP1 SWAP2 SUB SWAP1 REVERT JUMPDEST PUSH0 JUMPDEST DUP2 DUP2 LT ISZERO PUSH2 0x2468 JUMPI PUSH0 DUP5 DUP5 DUP4 DUP2 DUP2 LT PUSH2 0x2400 JUMPI PUSH2 0x2400 PUSH2 0x2E31 JUMP JUMPDEST SWAP1 POP PUSH1 0x20 MUL DUP2 ADD SWAP1 PUSH2 0x2412 SWAP2 SWAP1 PUSH2 0x2E45 JUMP JUMPDEST SWAP2 POP POP PUSH1 0x1 DUP2 LT ISZERO PUSH2 0x243A JUMPI PUSH1 0x40 MLOAD PUSH4 0x23BAE5C5 PUSH1 0xE1 SHL DUP2 MSTORE PUSH1 0x4 DUP2 ADD DUP4 SWAP1 MSTORE PUSH1 0x24 ADD PUSH2 0x2020 JUMP JUMPDEST PUSH1 0x64 DUP2 GT ISZERO PUSH2 0x245F JUMPI PUSH1 0x40 MLOAD PUSH4 0x1E8A1825 PUSH1 0xE2 SHL DUP2 MSTORE PUSH1 0x4 DUP2 ADD DUP4 SWAP1 MSTORE PUSH1 0x24 ADD PUSH2 0x2020 JUMP JUMPDEST POP PUSH1 0x1 ADD PUSH2 0x23E5 JUMP JUMPDEST POP POP POP POP JUMP JUMPDEST PUSH2 0x247E PUSH1 0x40 DUP3 ADD PUSH1 0x20 DUP4 ADD PUSH2 0x2D93 JUMP JUMPDEST DUP1 ISZERO PUSH2 0x24AA JUMPI POP PUSH1 0x2 PUSH2 0x2497 PUSH1 0x60 DUP4 ADD PUSH1 0x40 DUP5 ADD PUSH2 0x2F03 JUMP JUMPDEST PUSH1 0x3 DUP2 GT ISZERO PUSH2 0x24A8 JUMPI PUSH2 0x24A8 PUSH2 0x2790 JUMP JUMPDEST EQ JUMPDEST ISZERO PUSH2 0x24C8 JUMPI PUSH1 0x40 MLOAD PUSH4 0xDC2CA701 PUSH1 0xE0 SHL DUP2 MSTORE PUSH1 0x4 ADD PUSH1 0x40 MLOAD DUP1 SWAP2 SUB SWAP1 REVERT JUMPDEST POP JUMP JUMPDEST PUSH1 0x40 MLOAD DUP1 PUSH2 0x180 ADD PUSH1 0x40 MSTORE DUP1 PUSH0 PUSH1 0x1 PUSH1 0x1 PUSH1 0xA0 SHL SUB AND DUP2 MSTORE PUSH1 0x20 ADD PUSH1 0x60 DUP2 MSTORE PUSH1 0x20 ADD PUSH1 0x60 DUP2 MSTORE PUSH1 0x20 ADD PUSH0 DUP2 MSTORE PUSH1 0x20 ADD PUSH0 DUP2 MSTORE PUSH1 0x20 ADD PUSH1 0x60 DUP2 MSTORE PUSH1 0x20 ADD PUSH0 DUP2 MSTORE PUSH1 0x20 ADD PUSH0 PUSH1 0x3 DUP2 GT ISZERO PUSH2 0x251F JUMPI PUSH2 0x251F PUSH2 0x2790 JUMP JUMPDEST DUP2 MSTORE PUSH1 0x20 ADD PUSH2 0x2544 PUSH1 0x40 DUP1 MLOAD PUSH1 0x60 DUP2 ADD DUP3 MSTORE PUSH0 DUP1 DUP3 MSTORE PUSH1 0x20 DUP3 ADD DUP2 SWAP1 MSTORE SWAP1 SWAP2 DUP3 ADD MSTORE SWAP1 JUMP JUMPDEST DUP2 MSTORE PUSH1 0x20 ADD PUSH0 ISZERO ISZERO DUP2 MSTORE PUSH1 0x20 ADD PUSH1 0x60 DUP2 MSTORE PUSH1 0x20 ADD PUSH0 DUP2 MSTORE POP SWAP1 JUMP JUMPDEST DUP3 DUP1 SLOAD DUP3 DUP3 SSTORE SWAP1 PUSH0 MSTORE PUSH1 0x20 PUSH0 KECCAK256 SWAP1 DUP2 ADD SWAP3 DUP3 ISZERO PUSH2 0x2598 JUMPI SWAP2 PUSH1 0x20 MUL DUP3 ADD JUMPDEST DUP3 DUP2 GT ISZERO PUSH2 0x2598 JUMPI DUP3 CALLDATALOAD DUP3 SSTORE SWAP2 PUSH1 0x20 ADD SWAP2 SWAP1 PUSH1 0x1 ADD SWAP1 PUSH2 0x257D JUMP JUMPDEST POP PUSH2 0x25A4 SWAP3 SWAP2 POP PUSH2 0x2600 JUMP JUMPDEST POP SWAP1 JUMP JUMPDEST PUSH1 0x40 MLOAD DUP1 PUSH2 0x100 ADD PUSH1 0x40 MSTORE DUP1 PUSH0 PUSH1 0x1 PUSH1 0x1 PUSH1 0xA0 SHL SUB AND DUP2 MSTORE PUSH1 0x20 ADD PUSH0 DUP2 MSTORE PUSH1 0x20 ADD PUSH1 0x60 DUP2 MSTORE PUSH1 0x20 ADD PUSH0 DUP2 MSTORE PUSH1 0x20 ADD PUSH0 PUSH1 0x3 DUP2 GT ISZERO PUSH2 0x25E8 JUMPI PUSH2 0x25E8 PUSH2 0x2790 JUMP JUMPDEST DUP2 MSTORE PUSH1 0x20 ADD PUSH0 DUP2 MSTORE PUSH1 0x20 ADD PUSH0 DUP2 MSTORE PUSH1 0x20 ADD PUSH0 DUP2 MSTORE POP SWAP1 JUMP JUMPDEST JUMPDEST DUP1 DUP3 GT ISZERO PUSH2 0x25A4 JUMPI PUSH0 DUP2 SSTORE PUSH1 0x1 ADD PUSH2 0x2601 JUMP JUMPDEST DUP1 CALLDATALOAD PUSH1 0x1 PUSH1 0x1 PUSH1 0xA0 SHL SUB DUP2 AND DUP2 EQ PUSH2 0x262A JUMPI PUSH0 DUP1 REVERT JUMPDEST SWAP2 SWAP1 POP JUMP JUMPDEST PUSH0 DUP1 PUSH1 0x40 DUP4 DUP6 SUB SLT ISZERO PUSH2 0x2640 JUMPI PUSH0 DUP1 REVERT JUMPDEST DUP3 CALLDATALOAD SWAP2 POP PUSH2 0x2650 PUSH1 0x20 DUP5 ADD PUSH2 0x2614 JUMP JUMPDEST SWAP1 POP SWAP3 POP SWAP3 SWAP1 POP JUMP JUMPDEST PUSH0 DUP2 MLOAD DUP1 DUP5 MSTORE DUP1 PUSH1 0x20 DUP5 ADD PUSH1 0x20 DUP7 ADD MCOPY PUSH0 PUSH1 0x20 DUP3 DUP7 ADD ADD MSTORE PUSH1 0x20 PUSH1 0x1F NOT PUSH1 0x1F DUP4 ADD AND DUP6 ADD ADD SWAP2 POP POP SWAP3 SWAP2 POP POP JUMP JUMPDEST PUSH0 PUSH1 0x20 DUP1 DUP4 MSTORE PUSH1 0x60 DUP4 ADD DUP5 MLOAD DUP3 DUP6 ADD MSTORE DUP2 DUP6 ADD MLOAD PUSH1 0x40 DUP1 PUSH1 0x40 DUP8 ADD MSTORE DUP3 DUP3 MLOAD DUP1 DUP6 MSTORE PUSH1 0x80 DUP9 ADD SWAP2 POP PUSH1 0x80 DUP2 PUSH1 0x5 SHL DUP10 ADD ADD SWAP5 POP DUP6 DUP5 ADD SWAP4 POP PUSH0 JUMPDEST DUP2 DUP2 LT ISZERO PUSH2 0x2702 JUMPI DUP9 DUP7 SUB PUSH1 0x7F NOT ADD DUP4 MSTORE DUP5 MLOAD DUP1 MLOAD DUP6 DUP9 MSTORE PUSH2 0x26E5 DUP7 DUP10 ADD DUP3 PUSH2 0x2659 JUMP JUMPDEST SWAP2 DUP10 ADD MLOAD SWAP8 DUP10 ADD SWAP8 SWAP1 SWAP8 MSTORE SWAP6 POP SWAP4 DUP7 ADD SWAP4 SWAP2 DUP7 ADD SWAP2 PUSH1 0x1 ADD PUSH2 0x26C1 JUMP JUMPDEST POP SWAP4 SWAP9 SWAP8 POP POP POP POP POP POP POP POP JUMP JUMPDEST PUSH0 DUP1 PUSH1 0x40 DUP4 DUP6 SUB SLT ISZERO PUSH2 0x2721 JUMPI PUSH0 DUP1 REVERT JUMPDEST PUSH2 0x272A DUP4 PUSH2 0x2614 JUMP JUMPDEST SWAP5 PUSH1 0x20 SWAP4 SWAP1 SWAP4 ADD CALLDATALOAD SWAP4 POP POP POP JUMP JUMPDEST PUSH0 DUP3 DUP3 MLOAD DUP1 DUP6 MSTORE PUSH1 0x20 DUP1 DUP7 ADD SWAP6 POP PUSH1 0x20 DUP3 PUSH1 0x5 SHL DUP5 ADD ADD PUSH1 0x20 DUP7 ADD PUSH0 JUMPDEST DUP5 DUP2 LT ISZERO PUSH2 0x2783 JUMPI PUSH1 0x1F NOT DUP7 DUP5 SUB ADD DUP10 MSTORE PUSH2 0x2771 DUP4 DUP4 MLOAD PUSH2 0x2659 JUMP JUMPDEST SWAP9 DUP5 ADD SWAP9 SWAP3 POP SWAP1 DUP4 ADD SWAP1 PUSH1 0x1 ADD PUSH2 0x2755 JUMP JUMPDEST POP SWAP1 SWAP8 SWAP7 POP POP POP POP POP POP POP JUMP JUMPDEST PUSH4 0x4E487B71 PUSH1 0xE0 SHL PUSH0 MSTORE PUSH1 0x21 PUSH1 0x4 MSTORE PUSH1 0x24 PUSH0 REVERT JUMPDEST PUSH1 0x4 DUP2 LT PUSH2 0x24C8 JUMPI PUSH4 0x4E487B71 PUSH1 0xE0 SHL PUSH0 MSTORE PUSH1 0x21 PUSH1 0x4 MSTORE PUSH1 0x24 PUSH0 REVERT JUMPDEST PUSH2 0x27C9 DUP2 PUSH2 0x27A4 JUMP JUMPDEST SWAP1 MSTORE JUMP JUMPDEST DUP1 MLOAD ISZERO ISZERO DUP3 MSTORE PUSH1 0x20 DUP2 ADD MLOAD ISZERO ISZERO PUSH1 0x20 DUP4 ADD MSTORE PUSH1 0x40 DUP2 ADD MLOAD PUSH2 0x27ED DUP2 PUSH2 0x27A4 JUMP JUMPDEST DUP1 PUSH1 0x40 DUP5 ADD MSTORE POP POP POP JUMP JUMPDEST PUSH0 DUP2 MLOAD DUP1 DUP5 MSTORE PUSH1 0x20 DUP1 DUP6 ADD SWAP5 POP PUSH1 0x20 DUP5 ADD PUSH0 JUMPDEST DUP4 DUP2 LT ISZERO PUSH2 0x2827 JUMPI DUP2 MLOAD DUP8 MSTORE SWAP6 DUP3 ADD SWAP6 SWAP1 DUP3 ADD SWAP1 PUSH1 0x1 ADD PUSH2 0x280B JUMP JUMPDEST POP SWAP5 SWAP6 SWAP5 POP POP POP POP POP JUMP JUMPDEST PUSH1 0x20 DUP2 MSTORE PUSH2 0x284C PUSH1 0x20 DUP3 ADD DUP4 MLOAD PUSH1 0x1 PUSH1 0x1 PUSH1 0xA0 SHL SUB AND SWAP1 MSTORE JUMP JUMPDEST PUSH0 PUSH1 0x20 DUP4 ADD MLOAD PUSH2 0x1C0 DUP1 PUSH1 0x40 DUP6 ADD MSTORE PUSH2 0x2869 PUSH2 0x1E0 DUP6 ADD DUP4 PUSH2 0x2659 JUMP JUMPDEST SWAP2 POP PUSH1 0x40 DUP6 ADD MLOAD PUSH1 0x1F NOT DUP1 DUP7 DUP6 SUB ADD PUSH1 0x60 DUP8 ADD MSTORE PUSH2 0x2887 DUP5 DUP4 PUSH2 0x2659 JUMP JUMPDEST SWAP4 POP PUSH1 0x60 DUP8 ADD MLOAD PUSH1 0x80 DUP8 ADD MSTORE PUSH1 0x80 DUP8 ADD MLOAD PUSH1 0xA0 DUP8 ADD MSTORE PUSH1 0xA0 DUP8 ADD MLOAD SWAP2 POP DUP1 DUP7 DUP6 SUB ADD PUSH1 0xC0 DUP8 ADD MSTORE PUSH2 0x28B8 DUP5 DUP4 PUSH2 0x2738 JUMP JUMPDEST SWAP4 POP PUSH1 0xC0 DUP8 ADD MLOAD PUSH1 0xE0 DUP8 ADD MSTORE PUSH1 0xE0 DUP8 ADD MLOAD SWAP2 POP PUSH2 0x100 PUSH2 0x28DA DUP2 DUP9 ADD DUP5 PUSH2 0x27C0 JUMP JUMPDEST DUP8 ADD MLOAD SWAP2 POP PUSH2 0x120 PUSH2 0x28EE DUP8 DUP3 ADD DUP5 PUSH2 0x27CD JUMP JUMPDEST DUP8 ADD MLOAD ISZERO ISZERO PUSH2 0x180 DUP8 ADD MSTORE PUSH2 0x140 DUP8 ADD MLOAD DUP7 DUP6 SUB SWAP1 SWAP2 ADD PUSH2 0x1A0 DUP8 ADD MSTORE SWAP1 POP PUSH2 0x2917 DUP4 DUP3 PUSH2 0x27F8 JUMP JUMPDEST SWAP3 POP POP PUSH2 0x160 DUP6 ADD MLOAD DUP2 DUP6 ADD MSTORE POP DUP1 SWAP2 POP POP SWAP3 SWAP2 POP POP JUMP JUMPDEST PUSH0 PUSH1 0x20 DUP3 DUP5 SUB SLT ISZERO PUSH2 0x293F JUMPI PUSH0 DUP1 REVERT JUMPDEST POP CALLDATALOAD SWAP2 SWAP1 POP JUMP JUMPDEST PUSH0 DUP1 DUP4 PUSH1 0x1F DUP5 ADD SLT PUSH2 0x2956 JUMPI PUSH0 DUP1 REVERT JUMPDEST POP DUP2 CALLDATALOAD PUSH8 0xFFFFFFFFFFFFFFFF DUP2 GT ISZERO PUSH2 0x296D JUMPI PUSH0 DUP1 REVERT JUMPDEST PUSH1 0x20 DUP4 ADD SWAP2 POP DUP4 PUSH1 0x20 DUP3 DUP6 ADD ADD GT ISZERO PUSH2 0x2984 JUMPI PUSH0 DUP1 REVERT JUMPDEST SWAP3 POP SWAP3 SWAP1 POP JUMP JUMPDEST PUSH0 DUP1 DUP4 PUSH1 0x1F DUP5 ADD SLT PUSH2 0x299B JUMPI PUSH0 DUP1 REVERT JUMPDEST POP DUP2 CALLDATALOAD PUSH8 0xFFFFFFFFFFFFFFFF DUP2 GT ISZERO PUSH2 0x29B2 JUMPI PUSH0 DUP1 REVERT JUMPDEST PUSH1 0x20 DUP4 ADD SWAP2 POP DUP4 PUSH1 0x20 DUP3 PUSH1 0x5 SHL DUP6 ADD ADD GT ISZERO PUSH2 0x2984 JUMPI PUSH0 DUP1 REVERT JUMPDEST PUSH0 DUP1 PUSH0 DUP1 PUSH0 DUP1 PUSH0 DUP1 PUSH0 DUP10 DUP12 SUB PUSH2 0x100 DUP2 SLT ISZERO PUSH2 0x29E6 JUMPI PUSH0 DUP1 REVERT JUMPDEST DUP11 CALLDATALOAD PUSH8 0xFFFFFFFFFFFFFFFF DUP1 DUP3 GT ISZERO PUSH2 0x29FD JUMPI PUSH0 DUP1 REVERT JUMPDEST PUSH2 0x2A09 DUP15 DUP4 DUP16 ADD PUSH2 0x2946 JUMP JUMPDEST SWAP1 SWAP13 POP SWAP11 POP PUSH1 0x20 DUP14 ADD CALLDATALOAD SWAP2 POP DUP1 DUP3 GT ISZERO PUSH2 0x2A21 JUMPI PUSH0 DUP1 REVERT JUMPDEST PUSH2 0x2A2D DUP15 DUP4 DUP16 ADD PUSH2 0x2946 JUMP JUMPDEST SWAP1 SWAP11 POP SWAP9 POP PUSH1 0x40 DUP14 ADD CALLDATALOAD SWAP8 POP PUSH1 0x60 DUP14 ADD CALLDATALOAD SWAP7 POP PUSH1 0x80 DUP14 ADD CALLDATALOAD SWAP2 POP DUP1 DUP3 GT ISZERO PUSH2 0x2A53 JUMPI PUSH0 DUP1 REVERT JUMPDEST POP PUSH2 0x2A60 DUP14 DUP3 DUP15 ADD PUSH2 0x298B JUMP JUMPDEST SWAP1 SWAP6 POP SWAP4 POP POP PUSH1 0x60 PUSH1 0x9F NOT DUP3 ADD SLT ISZERO PUSH2 0x2A77 JUMPI PUSH0 DUP1 REVERT JUMPDEST POP PUSH1 0xA0 DUP11 ADD SWAP1 POP SWAP3 SWAP6 SWAP9 POP SWAP3 SWAP6 SWAP9 POP SWAP3 SWAP6 SWAP9 JUMP JUMPDEST PUSH0 DUP1 PUSH0 PUSH1 0x40 DUP5 DUP7 SUB SLT ISZERO PUSH2 0x2A9D JUMPI PUSH0 DUP1 REVERT JUMPDEST DUP4 CALLDATALOAD SWAP3 POP PUSH1 0x20 DUP5 ADD CALLDATALOAD PUSH8 0xFFFFFFFFFFFFFFFF DUP2 GT ISZERO PUSH2 0x2ABA JUMPI PUSH0 DUP1 REVERT JUMPDEST PUSH2 0x2AC6 DUP7 DUP3 DUP8 ADD PUSH2 0x298B JUMP JUMPDEST SWAP5 SWAP8 SWAP1 SWAP7 POP SWAP4 SWAP5 POP POP POP POP JUMP JUMPDEST PUSH0 PUSH1 0x20 DUP3 DUP5 SUB SLT ISZERO PUSH2 0x2AE3 JUMPI PUSH0 DUP1 REVERT JUMPDEST PUSH2 0x2AEC DUP3 PUSH2 0x2614 JUMP JUMPDEST SWAP4 SWAP3 POP POP POP JUMP JUMPDEST PUSH0 PUSH1 0x20 DUP1 DUP4 ADD DUP2 DUP5 MSTORE DUP1 DUP6 MLOAD DUP1 DUP4 MSTORE PUSH1 0x40 SWAP3 POP PUSH1 0x40 DUP7 ADD SWAP2 POP PUSH1 0x40 DUP2 PUSH1 0x5 SHL DUP8 ADD ADD DUP5 DUP9 ADD PUSH0 JUMPDEST DUP4 DUP2 LT ISZERO PUSH2 0x2BAA JUMPI PUSH1 0x3F NOT DUP10 DUP5 SUB ADD DUP6 MSTORE DUP2 MLOAD PUSH2 0x100 PUSH1 0x1 PUSH1 0x1 PUSH1 0xA0 SHL SUB DUP3 MLOAD AND DUP6 MSTORE DUP9 DUP3 ADD MLOAD DUP10 DUP7 ADD MSTORE DUP8 DUP3 ADD MLOAD DUP2 DUP10 DUP8 ADD MSTORE PUSH2 0x2B5A DUP3 DUP8 ADD DUP3 PUSH2 0x2659 JUMP JUMPDEST SWAP2 POP POP PUSH1 0x60 DUP1 DUP4 ADD MLOAD DUP2 DUP8 ADD MSTORE POP PUSH1 0x80 DUP1 DUP4 ADD MLOAD PUSH2 0x2B77 DUP2 PUSH2 0x27A4 JUMP JUMPDEST SWAP1 DUP7 ADD MSTORE PUSH1 0xA0 DUP3 DUP2 ADD MLOAD SWAP1 DUP7 ADD MSTORE PUSH1 0xC0 DUP1 DUP4 ADD MLOAD SWAP1 DUP7 ADD MSTORE PUSH1 0xE0 SWAP2 DUP3 ADD MLOAD SWAP2 SWAP1 SWAP5 ADD MSTORE SWAP4 DUP7 ADD SWAP4 SWAP1 DUP7 ADD SWAP1 PUSH1 0x1 ADD PUSH2 0x2B1A JUMP JUMPDEST POP SWAP1 SWAP9 SWAP8 POP POP POP POP POP POP POP POP JUMP JUMPDEST PUSH0 PUSH2 0x180 PUSH1 0x1 PUSH1 0x1 PUSH1 0xA0 SHL SUB DUP14 AND DUP4 MSTORE DUP12 PUSH1 0x20 DUP5 ADD MSTORE DUP1 PUSH1 0x40 DUP5 ADD MSTORE PUSH2 0x2BE0 DUP2 DUP5 ADD DUP13 PUSH2 0x2659 JUMP JUMPDEST SWAP1 POP DUP3 DUP2 SUB PUSH1 0x60 DUP5 ADD MSTORE PUSH2 0x2BF4 DUP2 DUP12 PUSH2 0x2659 JUMP JUMPDEST SWAP2 POP POP DUP8 PUSH1 0x80 DUP4 ADD MSTORE DUP7 PUSH1 0xA0 DUP4 ADD MSTORE DUP6 PUSH1 0xC0 DUP4 ADD MSTORE PUSH2 0x2C16 PUSH1 0xE0 DUP4 ADD DUP7 PUSH2 0x27CD JUMP JUMPDEST DUP4 PUSH2 0x140 DUP4 ADD MSTORE DUP3 ISZERO ISZERO PUSH2 0x160 DUP4 ADD MSTORE SWAP12 SWAP11 POP POP POP POP POP POP POP POP POP POP POP JUMP JUMPDEST PUSH1 0x1 DUP2 DUP2 SHR SWAP1 DUP3 AND DUP1 PUSH2 0x2C49 JUMPI PUSH1 0x7F DUP3 AND SWAP2 POP JUMPDEST PUSH1 0x20 DUP3 LT DUP2 SUB PUSH2 0x2C67 JUMPI PUSH4 0x4E487B71 PUSH1 0xE0 SHL PUSH0 MSTORE PUSH1 0x22 PUSH1 0x4 MSTORE PUSH1 0x24 PUSH0 REVERT JUMPDEST POP SWAP2 SWAP1 POP JUMP JUMPDEST PUSH4 0x4E487B71 PUSH1 0xE0 SHL PUSH0 MSTORE PUSH1 0x41 PUSH1 0x4 MSTORE PUSH1 0x24 PUSH0 REVERT JUMPDEST PUSH1 0x1F DUP3 GT ISZERO PUSH2 0x2303 JUMPI DUP1 PUSH0 MSTORE PUSH1 0x20 PUSH0 KECCAK256 PUSH1 0x1F DUP5 ADD PUSH1 0x5 SHR DUP2 ADD PUSH1 0x20 DUP6 LT ISZERO PUSH2 0x2CA6 JUMPI POP DUP1 JUMPDEST PUSH1 0x1F DUP5 ADD PUSH1 0x5 SHR DUP3 ADD SWAP2 POP JUMPDEST DUP2 DUP2 LT ISZERO PUSH2 0x2CC5 JUMPI PUSH0 DUP2 SSTORE PUSH1 0x1 ADD PUSH2 0x2CB2 JUMP JUMPDEST POP POP POP POP POP JUMP JUMPDEST PUSH8 0xFFFFFFFFFFFFFFFF DUP4 GT ISZERO PUSH2 0x2CE4 JUMPI PUSH2 0x2CE4 PUSH2 0x2C6D JUMP JUMPDEST PUSH2 0x2CF8 DUP4 PUSH2 0x2CF2 DUP4 SLOAD PUSH2 0x2C35 JUMP JUMPDEST DUP4 PUSH2 0x2C81 JUMP JUMPDEST PUSH0 PUSH1 0x1F DUP5 GT PUSH1 0x1 DUP2 EQ PUSH2 0x2D29 JUMPI PUSH0 DUP6 ISZERO PUSH2 0x2D12 JUMPI POP DUP4 DUP3 ADD CALLDATALOAD JUMPDEST PUSH0 NOT PUSH1 0x3 DUP8 SWAP1 SHL SHR NOT AND PUSH1 0x1 DUP7 SWAP1 SHL OR DUP4 SSTORE PUSH2 0x2CC5 JUMP JUMPDEST PUSH0 DUP4 DUP2 MSTORE PUSH1 0x20 DUP2 KECCAK256 PUSH1 0x1F NOT DUP8 AND SWAP2 JUMPDEST DUP3 DUP2 LT ISZERO PUSH2 0x2D58 JUMPI DUP7 DUP6 ADD CALLDATALOAD DUP3 SSTORE PUSH1 0x20 SWAP5 DUP6 ADD SWAP5 PUSH1 0x1 SWAP1 SWAP3 ADD SWAP2 ADD PUSH2 0x2D38 JUMP JUMPDEST POP DUP7 DUP3 LT ISZERO PUSH2 0x2D74 JUMPI PUSH0 NOT PUSH1 0xF8 DUP9 PUSH1 0x3 SHL AND SHR NOT DUP5 DUP8 ADD CALLDATALOAD AND DUP2 SSTORE JUMPDEST POP POP PUSH1 0x1 DUP6 PUSH1 0x1 SHL ADD DUP4 SSTORE POP POP POP POP POP JUMP JUMPDEST DUP1 ISZERO ISZERO DUP2 EQ PUSH2 0x24C8 JUMPI PUSH0 DUP1 REVERT JUMPDEST PUSH0 PUSH1 0x20 DUP3 DUP5 SUB SLT ISZERO PUSH2 0x2DA3 JUMPI PUSH0 DUP1 REVERT JUMPDEST DUP2 CALLDATALOAD PUSH2 0x2AEC DUP2 PUSH2 0x2D86 JUMP JUMPDEST PUSH1 0x4 DUP2 LT PUSH2 0x24C8 JUMPI PUSH0 DUP1 REVERT JUMPDEST DUP2 CALLDATALOAD PUSH2 0x2DC5 DUP2 PUSH2 0x2D86 JUMP JUMPDEST DUP2 SLOAD PUSH1 0xFF NOT DUP2 AND SWAP2 ISZERO ISZERO PUSH1 0xFF AND SWAP2 DUP3 OR DUP4 SSTORE PUSH1 0x20 DUP5 ADD CALLDATALOAD PUSH2 0x2DE5 DUP2 PUSH2 0x2D86 JUMP JUMPDEST PUSH2 0xFF00 SWAP1 ISZERO ISZERO PUSH1 0x8 SHL AND PUSH2 0xFFFF NOT DUP3 AND DUP4 OR DUP2 OR DUP5 SSTORE PUSH1 0x40 DUP6 ADD CALLDATALOAD PUSH2 0x2E09 DUP2 PUSH2 0x2DAE JUMP JUMPDEST PUSH2 0x2E12 DUP2 PUSH2 0x27A4 JUMP JUMPDEST PUSH3 0xFF0000 DUP2 PUSH1 0x10 SHL AND DUP5 PUSH3 0xFFFFFF NOT DUP6 AND OR DUP4 OR OR DUP6 SSTORE POP POP POP POP POP POP JUMP JUMPDEST PUSH4 0x4E487B71 PUSH1 0xE0 SHL PUSH0 MSTORE PUSH1 0x32 PUSH1 0x4 MSTORE PUSH1 0x24 PUSH0 REVERT JUMPDEST PUSH0 DUP1 DUP4 CALLDATALOAD PUSH1 0x1E NOT DUP5 CALLDATASIZE SUB ADD DUP2 SLT PUSH2 0x2E5A JUMPI PUSH0 DUP1 REVERT JUMPDEST DUP4 ADD DUP1 CALLDATALOAD SWAP2 POP PUSH8 0xFFFFFFFFFFFFFFFF DUP3 GT ISZERO PUSH2 0x2E74 JUMPI PUSH0 DUP1 REVERT JUMPDEST PUSH1 0x20 ADD SWAP2 POP CALLDATASIZE DUP2 SWAP1 SUB DUP3 SGT ISZERO PUSH2 0x2984 JUMPI PUSH0 DUP1 REVERT JUMPDEST PUSH0 PUSH1 0x1 DUP3 ADD PUSH2 0x2EA5 JUMPI PUSH4 0x4E487B71 PUSH1 0xE0 SHL PUSH0 MSTORE PUSH1 0x11 PUSH1 0x4 MSTORE PUSH1 0x24 PUSH0 REVERT JUMPDEST POP PUSH1 0x1 ADD SWAP1 JUMP JUMPDEST DUP4 DUP2 MSTORE PUSH1 0x40 PUSH1 0x20 DUP3 ADD MSTORE DUP2 PUSH1 0x40 DUP3 ADD MSTORE PUSH0 PUSH32 0x7FFFFFFFFFFFFFFFFFFFFFFFFFFFFFFFFFFFFFFFFFFFFFFFFFFFFFFFFFFFFFF DUP4 GT ISZERO PUSH2 0x2EE9 JUMPI PUSH0 DUP1 REVERT JUMPDEST DUP3 PUSH1 0x5 SHL DUP1 DUP6 PUSH1 0x60 DUP6 ADD CALLDATACOPY SWAP2 SWAP1 SWAP2 ADD PUSH1 0x60 ADD SWAP5 SWAP4 POP POP POP POP JUMP JUMPDEST PUSH0 PUSH1 0x20 DUP3 DUP5 SUB SLT ISZERO PUSH2 0x2F13 JUMPI PUSH0 DUP1 REVERT JUMPDEST DUP2 CALLDATALOAD PUSH2 0x2AEC DUP2 PUSH2 0x2DAE JUMP INVALID LOG2 PUSH5 0x6970667358 0x22 SLT KECCAK256 MSTORE8 0xAA XOR ADD 0x4B SMOD ADD 0xC5 0xBF 0xC9 LOG0 0x21 0xE9 SWAP5 PUSH14 0xE404510EC47129E444D9446E2849 0x4B PUSH0 BLOBHASH PUSH5 0x736F6C6343 STOP ADDMOD NOT STOP CALLER "
    },
    "gasEstimates": {
      "creation": {
        "codeDepositCost": "2423200",
        "executionCost": "2603",
        "totalCost": "2425803"
      },
      "external": {
        "UserPolls(address,uint256)": "4760",
        "castVote(uint256,uint256[])": "infinite",
        "closePoll(uint256)": "infinite",
        "createPoll(string,string,uint256,uint256,string[],(bool,bool,uint8))": "infinite",
        "deletePoll(uint256)": "infinite",
        "getPollDetails(address,uint256)": "infinite",
        "getPollResults(uint256,address)": "infinite",
        "getPollSummaries(address)": "infinite",
        "polls(uint256)": "infinite"
      },
      "internal": {
        "getOptionsResult(struct Polls.Poll memory)": "infinite",
        "getPoll(uint256)": "infinite",
        "getStatus(struct Polls.Poll memory)": "infinite",
        "shouldShowResults(struct Polls.Poll memory,address)": "infinite",
        "validateDesc(string calldata)": "infinite",
        "validateOptions(string calldata[] calldata)": "infinite",
        "validateSettings(struct Polls.PollSettings calldata)": "infinite",
        "validateTimes(uint256,uint256)": "infinite",
        "validateTitle(string calldata)": "infinite"
      }
    },
    "methodIdentifiers": {
      "UserPolls(address,uint256)": "1994a615",
      "castVote(uint256,uint256[])": "2fa48e9e",
      "closePoll(uint256)": "9534e637",
      "createPoll(string,string,uint256,uint256,string[],(bool,bool,uint8))": "21b91db5",
      "deletePoll(uint256)": "1f35b51d",
      "getPollDetails(address,uint256)": "1e25e730",
      "getPollResults(uint256,address)": "14956b6f",
      "getPollSummaries(address)": "9137b2e9",
      "polls(uint256)": "ac2f0074"
    }
  },
  "storageLayout": {
    "storage": [
      {
        "astId": 107,
        "contract": "Polls.sol:Polls",
        "label": "polls",
        "offset": 0,
        "slot": "0",
        "type": "t_array(t_struct(Poll)44_storage)dyn_storage"
      },
      {
        "astId": 112,
        "contract": "Polls.sol:Polls",
        "label": "UserPolls",
        "offset": 0,
        "slot": "1",
        "type": "t_mapping(t_address,t_array(t_uint256)dyn_storage)"
      },
      {
        "astId": 118,
        "contract": "Polls.sol:Polls",
        "label": "hasVoted",
        "offset": 0,
        "slot": "2",
        "type": "t_mapping(t_uint256,t_mapping(t_address,t_bool))"
      },
      {
        "astId": 122,
        "contract": "Polls.sol:Polls",
        "label": "pollVotes",
        "offset": 0,
        "slot": "3",
        "type": "t_mapping(t_uint256,t_uint256)"
      },
      {
        "astId": 128,
        "contract": "Polls.sol:Polls",
        "label": "optionVotes",
        "offset": 0,
        "slot": "4",
        "type": "t_mapping(t_uint256,t_mapping(t_uint256,t_uint256))"
      },
      {
        "astId": 135,
        "contract": "Polls.sol:Polls",
        "label": "votedIndices",
        "offset": 0,
        "slot": "5",
        "type": "t_mapping(t_uint256,t_mapping(t_address,t_array(t_uint256)dyn_storage))"
      }
    ],
    "types": {
      "t_address": {
        "encoding": "inplace",
        "label": "address",
        "numberOfBytes": "20"
      },
      "t_array(t_string_storage)dyn_storage": {
        "base": "t_string_storage",
        "encoding": "dynamic_array",
        "label": "string[]",
        "numberOfBytes": "32"
      },
      "t_array(t_struct(Poll)44_storage)dyn_storage": {
        "base": "t_struct(Poll)44_storage",
        "encoding": "dynamic_array",
        "label": "struct Polls.Poll[]",
        "numberOfBytes": "32"
      },
      "t_array(t_uint256)dyn_storage": {
        "base": "t_uint256",
        "encoding": "dynamic_array",
        "label": "uint256[]",
        "numberOfBytes": "32"
      },
      "t_bool": {
        "encoding": "inplace",
        "label": "bool",
        "numberOfBytes": "1"
      },
      "t_enum(PollResultVisibility)11": {
        "encoding": "inplace",
        "label": "enum Polls.PollResultVisibility",
        "numberOfBytes": "1"
      },
      "t_mapping(t_address,t_array(t_uint256)dyn_storage)": {
        "encoding": "mapping",
        "key": "t_address",
        "label": "mapping(address => uint256[])",
        "numberOfBytes": "32",
        "value": "t_array(t_uint256)dyn_storage"
      },
      "t_mapping(t_address,t_bool)": {
        "encoding": "mapping",
        "key": "t_address",
        "label": "mapping(address => bool)",
        "numberOfBytes": "32",
        "value": "t_bool"
      },
      "t_mapping(t_uint256,t_mapping(t_address,t_array(t_uint256)dyn_storage))": {
        "encoding": "mapping",
        "key": "t_uint256",
        "label": "mapping(uint256 => mapping(address => uint256[]))",
        "numberOfBytes": "32",
        "value": "t_mapping(t_address,t_array(t_uint256)dyn_storage)"
      },
      "t_mapping(t_uint256,t_mapping(t_address,t_bool))": {
        "encoding": "mapping",
        "key": "t_uint256",
        "label": "mapping(uint256 => mapping(address => bool))",
        "numberOfBytes": "32",
        "value": "t_mapping(t_address,t_bool)"
      },
      "t_mapping(t_uint256,t_mapping(t_uint256,t_uint256))": {
        "encoding": "mapping",
        "key": "t_uint256",
        "label": "mapping(uint256 => mapping(uint256 => uint256))",
        "numberOfBytes": "32",
        "value": "t_mapping(t_uint256,t_uint256)"
      },
      "t_mapping(t_uint256,t_uint256)": {
        "encoding": "mapping",
        "key": "t_uint256",
        "label": "mapping(uint256 => uint256)",
        "numberOfBytes": "32",
        "value": "t_uint256"
      },
      "t_string_storage": {
        "encoding": "bytes",
        "label": "string",
        "numberOfBytes": "32"
      },
      "t_struct(Poll)44_storage": {
        "encoding": "inplace",
        "label": "struct Polls.Poll",
        "members": [
          {
            "astId": 21,
            "contract": "Polls.sol:Polls",
            "label": "creator",
            "offset": 0,
            "slot": "0",
            "type": "t_address"
          },
          {
            "astId": 23,
            "contract": "Polls.sol:Polls",
            "label": "id",
            "offset": 0,
            "slot": "1",
            "type": "t_uint256"
          },
          {
            "astId": 25,
            "contract": "Polls.sol:Polls",
            "label": "title",
            "offset": 0,
            "slot": "2",
            "type": "t_string_storage"
          },
          {
            "astId": 27,
            "contract": "Polls.sol:Polls",
            "label": "description",
            "offset": 0,
            "slot": "3",
            "type": "t_string_storage"
          },
          {
            "astId": 29,
            "contract": "Polls.sol:Polls",
            "label": "startsAt",
            "offset": 0,
            "slot": "4",
            "type": "t_uint256"
          },
          {
            "astId": 31,
            "contract": "Polls.sol:Polls",
            "label": "endsAt",
            "offset": 0,
            "slot": "5",
            "type": "t_uint256"
          },
          {
            "astId": 34,
            "contract": "Polls.sol:Polls",
            "label": "options",
            "offset": 0,
            "slot": "6",
            "type": "t_array(t_string_storage)dyn_storage"
          },
          {
            "astId": 36,
            "contract": "Polls.sol:Polls",
            "label": "pollVotes",
            "offset": 0,
            "slot": "7",
            "type": "t_uint256"
          },
          {
            "astId": 39,
            "contract": "Polls.sol:Polls",
            "label": "settings",
            "offset": 0,
            "slot": "8",
            "type": "t_struct(PollSettings)19_storage"
          },
          {
            "astId": 41,
            "contract": "Polls.sol:Polls",
            "label": "createdAt",
            "offset": 0,
            "slot": "9",
            "type": "t_uint256"
          },
          {
            "astId": 43,
            "contract": "Polls.sol:Polls",
            "label": "isDeleted",
            "offset": 0,
            "slot": "10",
            "type": "t_bool"
          }
        ],
        "numberOfBytes": "352"
      },
      "t_struct(PollSettings)19_storage": {
        "encoding": "inplace",
        "label": "struct Polls.PollSettings",
        "members": [
          {
            "astId": 13,
            "contract": "Polls.sol:Polls",
            "label": "multiChoice",
            "offset": 0,
            "slot": "0",
            "type": "t_bool"
          },
          {
            "astId": 15,
            "contract": "Polls.sol:Polls",
            "label": "noDeadline",
            "offset": 1,
            "slot": "0",
            "type": "t_bool"
          },
          {
            "astId": 18,
            "contract": "Polls.sol:Polls",
            "label": "resultVisibility",
            "offset": 2,
            "slot": "0",
            "type": "t_enum(PollResultVisibility)11"
          }
        ],
        "numberOfBytes": "32"
      },
      "t_uint256": {
        "encoding": "inplace",
        "label": "uint256",
        "numberOfBytes": "32"
      }
    }
  },
  "userdoc": {
    "kind": "user",
    "methods": {},
    "version": 1
  }
}