{
  "abi": [
    {
      "inputs": [],
      "name": "AccessDenied",
      "type": "error"
    },
    {
      "inputs": [],
      "name": "AlreadyVoted",
      "type": "error"
    },
    {
      "inputs": [],
      "name": "DescriptionTooLarge",
      "type": "error"
    },
    {
      "inputs": [],
      "name": "DescriptionTooShort",
      "type": "error"
    },
    {
      "inputs": [],
      "name": "DuplicateOptionSelected",
      "type": "error"
    },
    {
      "inputs": [],
      "name": "IncorrectPassword",
      "type": "error"
    },
    {
      "inputs": [],
      "name": "InvalidPollOption",
      "type": "error"
    },
    {
      "inputs": [],
      "name": "MultiChoiceNotAllowed",
      "type": "error"
    },
    {
      "inputs": [],
      "name": "NoOptionSelected",
      "type": "error"
    },
    {
      "inputs": [
        {
          "internalType": "uint256",
          "name": "index",
          "type": "uint256"
        }
      ],
      "name": "OptionTooLarge",
      "type": "error"
    },
    {
      "inputs": [
        {
          "internalType": "uint256",
          "name": "index",
          "type": "uint256"
        }
      ],
      "name": "OptionTooShort",
      "type": "error"
    },
    {
      "inputs": [],
      "name": "PollAlreadyClosed",
      "type": "error"
    },
    {
      "inputs": [],
      "name": "PollMustEndAfterStart",
      "type": "error"
    },
    {
      "inputs": [],
      "name": "PollMustHaveAtLeastTwoOptions",
      "type": "error"
    },
    {
      "inputs": [],
      "name": "PollMustHaveAtMostTenOptions",
      "type": "error"
    },
    {
      "inputs": [],
      "name": "PollMustHavePassword",
      "type": "error"
    },
    {
      "inputs": [],
      "name": "PollMustStartInTheFuture",
      "type": "error"
    },
    {
      "inputs": [],
      "name": "PollNotClosed",
      "type": "error"
    },
    {
      "inputs": [
        {
          "internalType": "uint256",
          "name": "pollId",
          "type": "uint256"
        }
      ],
      "name": "PollNotFound",
      "type": "error"
    },
    {
      "inputs": [],
      "name": "PollNotOpen",
      "type": "error"
    },
    {
      "inputs": [],
      "name": "PollResultVisibilitySettingInvalid",
      "type": "error"
    },
    {
      "inputs": [],
      "name": "TitleTooLarge",
      "type": "error"
    },
    {
      "inputs": [],
      "name": "TitleTooShort",
      "type": "error"
    },
    {
      "anonymous": false,
      "inputs": [
        {
          "indexed": true,
          "internalType": "address",
          "name": "creator",
          "type": "address"
        },
        {
          "indexed": true,
          "internalType": "uint256",
          "name": "pollId",
          "type": "uint256"
        }
      ],
      "name": "PollClosed",
      "type": "event"
    },
    {
      "anonymous": false,
      "inputs": [
        {
          "indexed": true,
          "internalType": "address",
          "name": "creator",
          "type": "address"
        },
        {
          "indexed": true,
          "internalType": "uint256",
          "name": "pollId",
          "type": "uint256"
        }
      ],
      "name": "PollCreated",
      "type": "event"
    },
    {
      "anonymous": false,
      "inputs": [
        {
          "indexed": true,
          "internalType": "address",
          "name": "creator",
          "type": "address"
        },
        {
          "indexed": true,
          "internalType": "uint256",
          "name": "pollId",
          "type": "uint256"
        }
      ],
      "name": "PollDeleted",
      "type": "event"
    },
    {
      "anonymous": false,
      "inputs": [
        {
          "indexed": true,
          "internalType": "address",
          "name": "voter",
          "type": "address"
        },
        {
          "indexed": false,
          "internalType": "uint256",
          "name": "pollId",
          "type": "uint256"
        },
        {
          "indexed": false,
          "internalType": "uint256[]",
          "name": "optionIndices",
          "type": "uint256[]"
        }
      ],
      "name": "VoteCast",
      "type": "event"
    },
    {
      "inputs": [
        {
          "internalType": "uint256",
          "name": "_pollId",
          "type": "uint256"
        },
        {
          "internalType": "uint256[]",
          "name": "_optionIndices",
          "type": "uint256[]"
        }
      ],
      "name": "castVote",
      "outputs": [],
      "stateMutability": "nonpayable",
      "type": "function"
    },
    {
      "inputs": [
        {
          "internalType": "uint256",
          "name": "_pollId",
          "type": "uint256"
        }
      ],
      "name": "closePoll",
      "outputs": [],
      "stateMutability": "nonpayable",
      "type": "function"
    },
    {
      "inputs": [
        {
          "internalType": "string",
          "name": "_title",
          "type": "string"
        },
        {
          "internalType": "string",
          "name": "_desc",
          "type": "string"
        },
        {
          "internalType": "uint256",
          "name": "_startsAt",
          "type": "uint256"
        },
        {
          "internalType": "uint256",
          "name": "_endsAt",
          "type": "uint256"
        },
        {
          "internalType": "string[]",
          "name": "_options",
          "type": "string[]"
        },
        {
          "components": [
            {
              "internalType": "bool",
              "name": "multiChoice",
              "type": "bool"
            },
            {
              "internalType": "bool",
              "name": "noDeadline",
              "type": "bool"
            },
            {
              "internalType": "enum Polls.ResultVisibility",
              "name": "resultVisibility",
              "type": "uint8"
            }
          ],
          "internalType": "struct Polls.Settings",
          "name": "_settings",
          "type": "tuple"
        }
      ],
      "name": "createPoll",
      "outputs": [
        {
          "internalType": "uint256",
          "name": "",
          "type": "uint256"
        }
      ],
      "stateMutability": "nonpayable",
      "type": "function"
    },
    {
      "inputs": [
        {
          "internalType": "uint256",
          "name": "_pollId",
          "type": "uint256"
        }
      ],
      "name": "deletePoll",
      "outputs": [],
      "stateMutability": "nonpayable",
      "type": "function"
    },
    {
      "inputs": [
        {
          "internalType": "uint256",
          "name": "_pollId",
          "type": "uint256"
        }
      ],
      "name": "getPollDetails",
      "outputs": [
        {
          "components": [
            {
              "internalType": "address",
              "name": "creator",
              "type": "address"
            },
            {
              "internalType": "string",
              "name": "title",
              "type": "string"
            },
            {
              "internalType": "string",
              "name": "description",
              "type": "string"
            },
            {
              "internalType": "uint256",
              "name": "startsAt",
              "type": "uint256"
            },
            {
              "internalType": "uint256",
              "name": "endsAt",
              "type": "uint256"
            },
            {
              "internalType": "string[]",
              "name": "options",
              "type": "string[]"
            },
            {
              "internalType": "uint256",
              "name": "participants",
              "type": "uint256"
            },
            {
              "internalType": "uint256",
              "name": "totalVotes",
              "type": "uint256"
            },
            {
              "internalType": "enum Polls.Status",
              "name": "status",
              "type": "uint8"
            },
            {
              "components": [
                {
                  "internalType": "bool",
                  "name": "multiChoice",
                  "type": "bool"
                },
                {
                  "internalType": "bool",
                  "name": "noDeadline",
                  "type": "bool"
                },
                {
                  "internalType": "enum Polls.ResultVisibility",
                  "name": "resultVisibility",
                  "type": "uint8"
                }
              ],
              "internalType": "struct Polls.Settings",
              "name": "settings",
              "type": "tuple"
            },
            {
              "internalType": "bool",
              "name": "hasVoted",
              "type": "bool"
            },
            {
              "internalType": "uint256[]",
              "name": "votedIndices",
              "type": "uint256[]"
            },
            {
              "internalType": "uint256",
              "name": "createdAt",
              "type": "uint256"
            }
          ],
          "internalType": "struct Polls.Details",
          "name": "",
          "type": "tuple"
        }
      ],
      "stateMutability": "view",
      "type": "function"
    },
    {
      "inputs": [
        {
          "internalType": "uint256",
          "name": "_pollId",
          "type": "uint256"
        },
        {
          "internalType": "address",
          "name": "_voter",
          "type": "address"
        }
      ],
      "name": "getPollResults",
      "outputs": [
        {
          "components": [
            {
              "internalType": "string",
              "name": "title",
              "type": "string"
            },
            {
              "internalType": "address",
              "name": "creator",
              "type": "address"
            },
            {
              "internalType": "uint256",
              "name": "participants",
              "type": "uint256"
            },
            {
              "internalType": "uint256",
              "name": "totalVotes",
              "type": "uint256"
            },
            {
              "components": [
                {
                  "internalType": "string",
                  "name": "text",
                  "type": "string"
                },
                {
                  "internalType": "uint256",
                  "name": "totalVotes",
                  "type": "uint256"
                }
              ],
              "internalType": "struct Polls.OptionResult[]",
              "name": "optionsResult",
              "type": "tuple[]"
            },
            {
              "internalType": "uint256",
              "name": "createdAt",
              "type": "uint256"
            }
          ],
          "internalType": "struct Polls.Result",
          "name": "",
          "type": "tuple"
        }
      ],
      "stateMutability": "view",
      "type": "function"
    },
    {
      "inputs": [],
      "name": "getPollSummaries",
      "outputs": [
        {
          "components": [
            {
              "internalType": "address",
              "name": "creator",
              "type": "address"
            },
            {
              "internalType": "uint256",
              "name": "id",
              "type": "uint256"
            },
            {
              "internalType": "string",
              "name": "title",
              "type": "string"
            },
            {
              "internalType": "uint256",
              "name": "participants",
              "type": "uint256"
            },
            {
              "internalType": "uint256",
              "name": "totalVotes",
              "type": "uint256"
            },
            {
              "internalType": "enum Polls.Status",
              "name": "status",
              "type": "uint8"
            },
            {
              "internalType": "uint256",
              "name": "startsAt",
              "type": "uint256"
            },
            {
              "internalType": "uint256",
              "name": "endsAt",
              "type": "uint256"
            },
            {
              "internalType": "uint256",
              "name": "createdAt",
              "type": "uint256"
            }
          ],
          "internalType": "struct Polls.Summary[]",
          "name": "",
          "type": "tuple[]"
        }
      ],
      "stateMutability": "view",
      "type": "function"
    },
    {
      "inputs": [
        {
          "internalType": "address",
          "name": "_user",
          "type": "address"
        }
      ],
      "name": "getUserStats",
      "outputs": [
        {
          "components": [
            {
              "internalType": "uint256",
              "name": "totalPollsCreated",
              "type": "uint256"
            },
            {
              "internalType": "uint256",
              "name": "totalVotesReceived",
              "type": "uint256"
            }
          ],
          "internalType": "struct Polls.UserStats",
          "name": "",
          "type": "tuple"
        }
      ],
      "stateMutability": "view",
      "type": "function"
    }
  ],
  "devdoc": {
    "kind": "dev",
    "methods": {},
    "version": 1
  },
  "evm": {
    "assembly": "    /* \"Polls.sol\":72:13431  contract Polls {... */\n  mstore(0x40, 0x80)\n  callvalue\n  dup1\n  iszero\n  tag_1\n  jumpi\n  0x00\n  dup1\n  revert\ntag_1:\n  pop\n  dataSize(sub_0)\n  dup1\n  dataOffset(sub_0)\n  0x00\n  codecopy\n  0x00\n  return\nstop\n\nsub_0: assembly {\n        /* \"Polls.sol\":72:13431  contract Polls {... */\n      mstore(0x40, 0x80)\n      callvalue\n      dup1\n      iszero\n      tag_1\n      jumpi\n      0x00\n      dup1\n      revert\n    tag_1:\n      pop\n      jumpi(tag_2, lt(calldatasize, 0x04))\n      shr(0xe0, calldataload(0x00))\n      dup1\n      0x4e43603a\n      gt\n      tag_11\n      jumpi\n      dup1\n      0x4e43603a\n      eq\n      tag_7\n      jumpi\n      dup1\n      0x9534e637\n      eq\n      tag_8\n      jumpi\n      dup1\n      0x9a0040e4\n      eq\n      tag_9\n      jumpi\n      dup1\n      0xdfcaab88\n      eq\n      tag_10\n      jumpi\n      0x00\n      dup1\n      revert\n    tag_11:\n      dup1\n      0x14956b6f\n      eq\n      tag_3\n      jumpi\n      dup1\n      0x1f35b51d\n      eq\n      tag_4\n      jumpi\n      dup1\n      0x21b91db5\n      eq\n      tag_5\n      jumpi\n      dup1\n      0x2fa48e9e\n      eq\n      tag_6\n      jumpi\n    tag_2:\n      0x00\n      dup1\n      revert\n        /* \"Polls.sol\":6906:7543  function getPollResults(... */\n    tag_3:\n      tag_12\n      tag_13\n      calldatasize\n      0x04\n      tag_14\n      jump\t// in\n    tag_13:\n      tag_15\n      jump\t// in\n    tag_12:\n      mload(0x40)\n      tag_16\n      swap2\n      swap1\n      tag_17\n      jump\t// in\n    tag_16:\n      mload(0x40)\n      dup1\n      swap2\n      sub\n      swap1\n      return\n        /* \"Polls.sol\":9777:10056  function deletePoll(uint256 _pollId) external {... */\n    tag_4:\n      tag_18\n      tag_19\n      calldatasize\n      0x04\n      tag_20\n      jump\t// in\n    tag_19:\n      tag_21\n      jump\t// in\n    tag_18:\n      stop\n        /* \"Polls.sol\":3543:4941  function createPoll(... */\n    tag_5:\n      tag_22\n      tag_23\n      calldatasize\n      0x04\n      tag_24\n      jump\t// in\n    tag_23:\n      tag_25\n      jump\t// in\n    tag_22:\n      mload(0x40)\n        /* \"#utility.yul\":4937:4962   */\n      swap1\n      dup2\n      mstore\n        /* \"#utility.yul\":4925:4927   */\n      0x20\n        /* \"#utility.yul\":4910:4928   */\n      add\n        /* \"Polls.sol\":3543:4941  function createPoll(... */\n      tag_16\n        /* \"#utility.yul\":4791:4968   */\n      jump\n        /* \"Polls.sol\":7853:9403  function castVote(... */\n    tag_6:\n      tag_18\n      tag_29\n      calldatasize\n      0x04\n      tag_30\n      jump\t// in\n    tag_29:\n      tag_31\n      jump\t// in\n        /* \"Polls.sol\":7551:7845  function getUserStats(... */\n    tag_7:\n      tag_32\n      tag_33\n      calldatasize\n      0x04\n      tag_34\n      jump\t// in\n    tag_33:\n      0x40\n      dup1\n      mload\n      dup1\n      dup3\n      add\n      dup3\n      mstore\n      0x00\n      dup1\n      dup3\n      mstore\n      0x20\n      swap2\n      dup3\n      add\n      dup2\n      swap1\n      mstore\n      dup3\n      mload\n      dup1\n      dup5\n      add\n      dup5\n      mstore\n      dup2\n      dup2\n      mstore\n      dup1\n      dup4\n      add\n      dup3\n      dup2\n      mstore\n      sub(shl(0xa0, 0x01), 0x01)\n        /* \"Polls.sol\":7717:7745  userTotalPollsCreated[_user] */\n      swap6\n      swap1\n      swap6\n      and\n      dup1\n      dup4\n      mstore\n        /* \"Polls.sol\":7717:7738  userTotalPollsCreated */\n      0x09\n        /* \"Polls.sol\":7717:7745  userTotalPollsCreated[_user] */\n      dup5\n      mstore\n      dup5\n      dup4\n      keccak256\n      sload\n        /* \"Polls.sol\":7691:7745  stats.totalPollsCreated = userTotalPollsCreated[_user] */\n      dup3\n      mstore\n        /* \"Polls.sol\":7783:7812  userTotalVotesReceived[_user] */\n      dup3\n      mstore\n        /* \"Polls.sol\":7783:7805  userTotalVotesReceived */\n      0x08\n        /* \"Polls.sol\":7783:7812  userTotalVotesReceived[_user] */\n      swap1\n      swap3\n      mstore\n      swap2\n      swap1\n      swap2\n      keccak256\n      sload\n        /* \"Polls.sol\":7756:7812  stats.totalVotesReceived = userTotalVotesReceived[_user] */\n      swap1\n      swap2\n      mstore\n      swap1\n        /* \"Polls.sol\":7551:7845  function getUserStats(... */\n      jump\n    tag_32:\n      0x40\n      dup1\n      mload\n        /* \"#utility.yul\":5898:5911   */\n      dup3\n      mload\n        /* \"#utility.yul\":5880:5912   */\n      dup2\n      mstore\n        /* \"#utility.yul\":5968:5972   */\n      0x20\n        /* \"#utility.yul\":5956:5973   */\n      swap3\n      dup4\n      add\n        /* \"#utility.yul\":5950:5974   */\n      mload\n        /* \"#utility.yul\":5928:5948   */\n      swap3\n      dup2\n      add\n        /* \"#utility.yul\":5921:5975   */\n      swap3\n      swap1\n      swap3\n      mstore\n        /* \"#utility.yul\":5853:5871   */\n      add\n        /* \"Polls.sol\":7551:7845  function getUserStats(... */\n      tag_16\n        /* \"#utility.yul\":5682:5981   */\n      jump\n        /* \"Polls.sol\":9411:9769  function closePoll(uint256 _pollId) external {... */\n    tag_8:\n      tag_18\n      tag_39\n      calldatasize\n      0x04\n      tag_20\n      jump\t// in\n    tag_39:\n      tag_40\n      jump\t// in\n        /* \"Polls.sol\":6098:6898  function getPollDetails(... */\n    tag_9:\n      tag_41\n      tag_42\n      calldatasize\n      0x04\n      tag_20\n      jump\t// in\n    tag_42:\n      tag_43\n      jump\t// in\n    tag_41:\n      mload(0x40)\n      tag_16\n      swap2\n      swap1\n      tag_45\n      jump\t// in\n        /* \"Polls.sol\":4949:6090  function getPollSummaries() public view returns (Summary[] memory) {... */\n    tag_10:\n      tag_46\n      tag_47\n      jump\t// in\n    tag_46:\n      mload(0x40)\n      tag_16\n      swap2\n      swap1\n      tag_49\n      jump\t// in\n        /* \"Polls.sol\":6906:7543  function getPollResults(... */\n    tag_15:\n        /* \"Polls.sol\":7011:7024  Result memory */\n      tag_50\n      mload(0x40)\n      dup1\n      0xc0\n      add\n      0x40\n      mstore\n      dup1\n      0x60\n      dup2\n      mstore\n      0x20\n      add\n      and(sub(shl(0xa0, 0x01), 0x01), 0x00)\n      dup2\n      mstore\n      0x20\n      add\n      0x00\n      dup2\n      mstore\n      0x20\n      add\n      0x00\n      dup2\n      mstore\n      0x20\n      add\n      0x60\n      dup2\n      mstore\n      0x20\n      add\n      0x00\n      dup2\n      mstore\n      pop\n      swap1\n      jump\n    tag_50:\n        /* \"Polls.sol\":7037:7054  Poll storage poll */\n      0x00\n        /* \"Polls.sol\":7057:7073  getPoll(_pollId) */\n      tag_53\n        /* \"Polls.sol\":7065:7072  _pollId */\n      dup5\n        /* \"Polls.sol\":7057:7064  getPoll */\n      tag_54\n        /* \"Polls.sol\":7057:7073  getPoll(_pollId) */\n      jump\t// in\n    tag_53:\n        /* \"Polls.sol\":7091:7122  shouldShowResults(poll, _voter) */\n      0x40\n      dup1\n      mload\n      0x0180\n      dup2\n      add\n      dup3\n      mstore\n      dup3\n      sload\n      dup2\n      mstore\n      0x01\n      dup4\n      add\n      sload\n      sub(shl(0xa0, 0x01), 0x01)\n      and\n      0x20\n      dup1\n      dup4\n      add\n      swap2\n      swap1\n      swap2\n      mstore\n      0x02\n      dup5\n      add\n      sload\n      dup3\n      dup5\n      add\n      mstore\n      0x03\n      dup1\n      dup6\n      add\n      sload\n      0x60\n      dup1\n      dup6\n      add\n      swap2\n      swap1\n      swap2\n      mstore\n      0x04\n      dup7\n      add\n      sload\n      0x80\n      dup6\n      add\n      mstore\n      0x05\n      dup7\n      add\n      sload\n      0xa0\n      dup6\n      add\n      mstore\n      0x06\n      dup7\n      add\n      sload\n      0xc0\n      dup6\n      add\n      mstore\n      0x07\n      dup7\n      add\n      sload\n      0xff\n      swap1\n      dup2\n      and\n      iszero\n      iszero\n      0xe0\n      dup7\n      add\n      mstore\n      dup6\n      mload\n      swap2\n      dup3\n      add\n      dup7\n      mstore\n      0x08\n      dup8\n      add\n      dup1\n      sload\n      dup1\n      dup4\n      and\n      iszero\n      iszero\n      dup5\n      mstore\n      0x0100\n      dup1\n      dup3\n      div\n      dup5\n      and\n      iszero\n      iszero\n      swap7\n      dup6\n      add\n      swap7\n      swap1\n      swap7\n      mstore\n        /* \"Polls.sol\":7037:7073  Poll storage poll = getPoll(_pollId) */\n      swap8\n      swap9\n      pop\n        /* \"Polls.sol\":7091:7122  shouldShowResults(poll, _voter) */\n      tag_55\n      swap8\n      swap6\n      swap7\n        /* \"Polls.sol\":7037:7073  Poll storage poll = getPoll(_pollId) */\n      dup10\n      swap7\n        /* \"Polls.sol\":7091:7122  shouldShowResults(poll, _voter) */\n      swap6\n      dup9\n      add\n      swap6\n      swap4\n      swap5\n      swap2\n      swap4\n      swap1\n      dup6\n      add\n      swap3\n      0x010000\n      swap1\n      swap2\n      div\n      and\n      swap1\n      dup2\n      gt\n      iszero\n      tag_57\n      jumpi\n      tag_57\n      tag_58\n      jump\t// in\n    tag_57:\n      0x03\n      dup2\n      gt\n      iszero\n      tag_60\n      jumpi\n      tag_60\n      tag_58\n      jump\t// in\n    tag_60:\n      dup2\n      mstore\n      pop\n      pop\n      dup2\n      mstore\n      0x20\n      add\n      0x09\n      dup3\n      add\n      dup1\n      sload\n      tag_61\n      swap1\n      tag_62\n      jump\t// in\n    tag_61:\n      dup1\n      0x1f\n      add\n      0x20\n      dup1\n      swap2\n      div\n      mul\n      0x20\n      add\n      mload(0x40)\n      swap1\n      dup2\n      add\n      0x40\n      mstore\n      dup1\n      swap3\n      swap2\n      swap1\n      dup2\n      dup2\n      mstore\n      0x20\n      add\n      dup3\n      dup1\n      sload\n      tag_63\n      swap1\n      tag_62\n      jump\t// in\n    tag_63:\n      dup1\n      iszero\n      tag_64\n      jumpi\n      dup1\n      0x1f\n      lt\n      tag_65\n      jumpi\n      0x0100\n      dup1\n      dup4\n      sload\n      div\n      mul\n      dup4\n      mstore\n      swap2\n      0x20\n      add\n      swap2\n      jump(tag_64)\n    tag_65:\n      dup3\n      add\n      swap2\n      swap1\n      0x00\n      mstore\n      keccak256(0x00, 0x20)\n      swap1\n    tag_66:\n      dup2\n      sload\n      dup2\n      mstore\n      swap1\n      0x01\n      add\n      swap1\n      0x20\n      add\n      dup1\n      dup4\n      gt\n      tag_66\n      jumpi\n      dup3\n      swap1\n      sub\n      0x1f\n      and\n      dup3\n      add\n      swap2\n    tag_64:\n      pop\n      pop\n      pop\n      pop\n      pop\n      dup2\n      mstore\n      0x20\n      add\n      0x0a\n      dup3\n      add\n      dup1\n      sload\n      tag_67\n      swap1\n      tag_62\n      jump\t// in\n    tag_67:\n      dup1\n      0x1f\n      add\n      0x20\n      dup1\n      swap2\n      div\n      mul\n      0x20\n      add\n      mload(0x40)\n      swap1\n      dup2\n      add\n      0x40\n      mstore\n      dup1\n      swap3\n      swap2\n      swap1\n      dup2\n      dup2\n      mstore\n      0x20\n      add\n      dup3\n      dup1\n      sload\n      tag_68\n      swap1\n      tag_62\n      jump\t// in\n    tag_68:\n      dup1\n      iszero\n      tag_69\n      jumpi\n      dup1\n      0x1f\n      lt\n      tag_70\n      jumpi\n      0x0100\n      dup1\n      dup4\n      sload\n      div\n      mul\n      dup4\n      mstore\n      swap2\n      0x20\n      add\n      swap2\n      jump(tag_69)\n    tag_70:\n      dup3\n      add\n      swap2\n      swap1\n      0x00\n      mstore\n      keccak256(0x00, 0x20)\n      swap1\n    tag_71:\n      dup2\n      sload\n      dup2\n      mstore\n      swap1\n      0x01\n      add\n      swap1\n      0x20\n      add\n      dup1\n      dup4\n      gt\n      tag_71\n      jumpi\n      dup3\n      swap1\n      sub\n      0x1f\n      and\n      dup3\n      add\n      swap2\n    tag_69:\n      pop\n      pop\n      pop\n      pop\n      pop\n      dup2\n      mstore\n      0x20\n      add\n      0x0b\n      dup3\n      add\n      dup1\n      sload\n      dup1\n      0x20\n      mul\n      0x20\n      add\n      mload(0x40)\n      swap1\n      dup2\n      add\n      0x40\n      mstore\n      dup1\n      swap3\n      swap2\n      swap1\n      dup2\n      dup2\n      mstore\n      0x20\n      add\n      0x00\n      swap1\n    tag_72:\n      dup3\n      dup3\n      lt\n      iszero\n      tag_73\n      jumpi\n      dup4\n      dup3\n      swap1\n      0x00\n      mstore\n      keccak256(0x00, 0x20)\n      add\n      dup1\n      sload\n      tag_75\n      swap1\n      tag_62\n      jump\t// in\n    tag_75:\n      dup1\n      0x1f\n      add\n      0x20\n      dup1\n      swap2\n      div\n      mul\n      0x20\n      add\n      mload(0x40)\n      swap1\n      dup2\n      add\n      0x40\n      mstore\n      dup1\n      swap3\n      swap2\n      swap1\n      dup2\n      dup2\n      mstore\n      0x20\n      add\n      dup3\n      dup1\n      sload\n      tag_76\n      swap1\n      tag_62\n      jump\t// in\n    tag_76:\n      dup1\n      iszero\n      tag_77\n      jumpi\n      dup1\n      0x1f\n      lt\n      tag_78\n      jumpi\n      0x0100\n      dup1\n      dup4\n      sload\n      div\n      mul\n      dup4\n      mstore\n      swap2\n      0x20\n      add\n      swap2\n      jump(tag_77)\n    tag_78:\n      dup3\n      add\n      swap2\n      swap1\n      0x00\n      mstore\n      keccak256(0x00, 0x20)\n      swap1\n    tag_79:\n      dup2\n      sload\n      dup2\n      mstore\n      swap1\n      0x01\n      add\n      swap1\n      0x20\n      add\n      dup1\n      dup4\n      gt\n      tag_79\n      jumpi\n      dup3\n      swap1\n      sub\n      0x1f\n      and\n      dup3\n      add\n      swap2\n    tag_77:\n      pop\n      pop\n      pop\n      pop\n      pop\n      dup2\n      mstore\n      0x20\n      add\n      swap1\n      0x01\n      add\n      swap1\n      jump(tag_72)\n    tag_73:\n      pop\n      pop\n      pop\n      pop\n      dup2\n      mstore\n      pop\n      pop\n        /* \"Polls.sol\":7115:7121  _voter */\n      dup5\n        /* \"Polls.sol\":7091:7108  shouldShowResults */\n      tag_80\n        /* \"Polls.sol\":7091:7122  shouldShowResults(poll, _voter) */\n      jump\t// in\n    tag_55:\n        /* \"Polls.sol\":7086:7145  if (!shouldShowResults(poll, _voter)) revert AccessDenied() */\n      tag_81\n      jumpi\n        /* \"Polls.sol\":7131:7145  AccessDenied() */\n      mload(0x40)\n      shl(0xe0, 0x4ca88867)\n      dup2\n      mstore\n      0x04\n      add\n      mload(0x40)\n      dup1\n      swap2\n      sub\n      swap1\n      revert\n        /* \"Polls.sol\":7086:7145  if (!shouldShowResults(poll, _voter)) revert AccessDenied() */\n    tag_81:\n        /* \"Polls.sol\":7196:7218  getOptionsResult(poll) */\n      0x40\n      dup1\n      mload\n      0x0180\n      dup2\n      add\n      dup3\n      mstore\n      dup3\n      sload\n      dup2\n      mstore\n      0x01\n      dup4\n      add\n      sload\n      sub(shl(0xa0, 0x01), 0x01)\n      and\n      0x20\n      dup1\n      dup4\n      add\n      swap2\n      swap1\n      swap2\n      mstore\n      0x02\n      dup5\n      add\n      sload\n      dup3\n      dup5\n      add\n      mstore\n      0x03\n      dup1\n      dup6\n      add\n      sload\n      0x60\n      dup1\n      dup6\n      add\n      swap2\n      swap1\n      swap2\n      mstore\n      0x04\n      dup7\n      add\n      sload\n      0x80\n      dup6\n      add\n      mstore\n      0x05\n      dup7\n      add\n      sload\n      0xa0\n      dup6\n      add\n      mstore\n      0x06\n      dup7\n      add\n      sload\n      0xc0\n      dup6\n      add\n      mstore\n      0x07\n      dup7\n      add\n      sload\n      0xff\n      swap1\n      dup2\n      and\n      iszero\n      iszero\n      0xe0\n      dup7\n      add\n      mstore\n      dup6\n      mload\n      swap2\n      dup3\n      add\n      dup7\n      mstore\n      0x08\n      dup8\n      add\n      dup1\n      sload\n      dup1\n      dup4\n      and\n      iszero\n      iszero\n      dup5\n      mstore\n      0x0100\n      dup1\n      dup3\n      div\n      dup5\n      and\n      iszero\n      iszero\n      swap7\n      dup6\n      add\n      swap7\n      swap1\n      swap7\n      mstore\n        /* \"Polls.sol\":7158:7193  OptionResult[] memory optionsResult */\n      0x00\n      swap8\n        /* \"Polls.sol\":7196:7218  getOptionsResult(poll) */\n      tag_82\n      swap8\n      swap7\n        /* \"Polls.sol\":7213:7217  poll */\n      dup11\n      swap7\n        /* \"Polls.sol\":7196:7218  getOptionsResult(poll) */\n      swap1\n      dup9\n      add\n      swap6\n      swap5\n      swap2\n      dup6\n      add\n      swap3\n      0x010000\n      swap1\n      div\n      swap1\n      swap2\n      and\n      swap1\n      dup2\n      gt\n      iszero\n      tag_84\n      jumpi\n      tag_84\n      tag_58\n      jump\t// in\n    tag_84:\n      0x03\n      dup2\n      gt\n      iszero\n      tag_86\n      jumpi\n      tag_86\n      tag_58\n      jump\t// in\n    tag_86:\n      dup2\n      mstore\n      pop\n      pop\n      dup2\n      mstore\n      0x20\n      add\n      0x09\n      dup3\n      add\n      dup1\n      sload\n      tag_87\n      swap1\n      tag_62\n      jump\t// in\n    tag_87:\n      dup1\n      0x1f\n      add\n      0x20\n      dup1\n      swap2\n      div\n      mul\n      0x20\n      add\n      mload(0x40)\n      swap1\n      dup2\n      add\n      0x40\n      mstore\n      dup1\n      swap3\n      swap2\n      swap1\n      dup2\n      dup2\n      mstore\n      0x20\n      add\n      dup3\n      dup1\n      sload\n      tag_88\n      swap1\n      tag_62\n      jump\t// in\n    tag_88:\n      dup1\n      iszero\n      tag_89\n      jumpi\n      dup1\n      0x1f\n      lt\n      tag_90\n      jumpi\n      0x0100\n      dup1\n      dup4\n      sload\n      div\n      mul\n      dup4\n      mstore\n      swap2\n      0x20\n      add\n      swap2\n      jump(tag_89)\n    tag_90:\n      dup3\n      add\n      swap2\n      swap1\n      0x00\n      mstore\n      keccak256(0x00, 0x20)\n      swap1\n    tag_91:\n      dup2\n      sload\n      dup2\n      mstore\n      swap1\n      0x01\n      add\n      swap1\n      0x20\n      add\n      dup1\n      dup4\n      gt\n      tag_91\n      jumpi\n      dup3\n      swap1\n      sub\n      0x1f\n      and\n      dup3\n      add\n      swap2\n    tag_89:\n      pop\n      pop\n      pop\n      pop\n      pop\n      dup2\n      mstore\n      0x20\n      add\n      0x0a\n      dup3\n      add\n      dup1\n      sload\n      tag_92\n      swap1\n      tag_62\n      jump\t// in\n    tag_92:\n      dup1\n      0x1f\n      add\n      0x20\n      dup1\n      swap2\n      div\n      mul\n      0x20\n      add\n      mload(0x40)\n      swap1\n      dup2\n      add\n      0x40\n      mstore\n      dup1\n      swap3\n      swap2\n      swap1\n      dup2\n      dup2\n      mstore\n      0x20\n      add\n      dup3\n      dup1\n      sload\n      tag_93\n      swap1\n      tag_62\n      jump\t// in\n    tag_93:\n      dup1\n      iszero\n      tag_94\n      jumpi\n      dup1\n      0x1f\n      lt\n      tag_95\n      jumpi\n      0x0100\n      dup1\n      dup4\n      sload\n      div\n      mul\n      dup4\n      mstore\n      swap2\n      0x20\n      add\n      swap2\n      jump(tag_94)\n    tag_95:\n      dup3\n      add\n      swap2\n      swap1\n      0x00\n      mstore\n      keccak256(0x00, 0x20)\n      swap1\n    tag_96:\n      dup2\n      sload\n      dup2\n      mstore\n      swap1\n      0x01\n      add\n      swap1\n      0x20\n      add\n      dup1\n      dup4\n      gt\n      tag_96\n      jumpi\n      dup3\n      swap1\n      sub\n      0x1f\n      and\n      dup3\n      add\n      swap2\n    tag_94:\n      pop\n      pop\n      pop\n      pop\n      pop\n      dup2\n      mstore\n      0x20\n      add\n      0x0b\n      dup3\n      add\n      dup1\n      sload\n      dup1\n      0x20\n      mul\n      0x20\n      add\n      mload(0x40)\n      swap1\n      dup2\n      add\n      0x40\n      mstore\n      dup1\n      swap3\n      swap2\n      swap1\n      dup2\n      dup2\n      mstore\n      0x20\n      add\n      0x00\n      swap1\n    tag_97:\n      dup3\n      dup3\n      lt\n      iszero\n      tag_98\n      jumpi\n      dup4\n      dup3\n      swap1\n      0x00\n      mstore\n      keccak256(0x00, 0x20)\n      add\n      dup1\n      sload\n      tag_100\n      swap1\n      tag_62\n      jump\t// in\n    tag_100:\n      dup1\n      0x1f\n      add\n      0x20\n      dup1\n      swap2\n      div\n      mul\n      0x20\n      add\n      mload(0x40)\n      swap1\n      dup2\n      add\n      0x40\n      mstore\n      dup1\n      swap3\n      swap2\n      swap1\n      dup2\n      dup2\n      mstore\n      0x20\n      add\n      dup3\n      dup1\n      sload\n      tag_101\n      swap1\n      tag_62\n      jump\t// in\n    tag_101:\n      dup1\n      iszero\n      tag_102\n      jumpi\n      dup1\n      0x1f\n      lt\n      tag_103\n      jumpi\n      0x0100\n      dup1\n      dup4\n      sload\n      div\n      mul\n      dup4\n      mstore\n      swap2\n      0x20\n      add\n      swap2\n      jump(tag_102)\n    tag_103:\n      dup3\n      add\n      swap2\n      swap1\n      0x00\n      mstore\n      keccak256(0x00, 0x20)\n      swap1\n    tag_104:\n      dup2\n      sload\n      dup2\n      mstore\n      swap1\n      0x01\n      add\n      swap1\n      0x20\n      add\n      dup1\n      dup4\n      gt\n      tag_104\n      jumpi\n      dup3\n      swap1\n      sub\n      0x1f\n      and\n      dup3\n      add\n      swap2\n    tag_102:\n      pop\n      pop\n      pop\n      pop\n      pop\n      dup2\n      mstore\n      0x20\n      add\n      swap1\n      0x01\n      add\n      swap1\n      jump(tag_97)\n    tag_98:\n      pop\n      pop\n      pop\n      pop\n      dup2\n      mstore\n      pop\n      pop\n        /* \"Polls.sol\":7196:7212  getOptionsResult */\n      tag_105\n        /* \"Polls.sol\":7196:7218  getOptionsResult(poll) */\n      jump\t// in\n    tag_82:\n        /* \"Polls.sol\":7158:7218  OptionResult[] memory optionsResult = getOptionsResult(poll) */\n      swap1\n      pop\n        /* \"Polls.sol\":7249:7535  Result({... */\n      mload(0x40)\n      dup1\n      0xc0\n      add\n      0x40\n      mstore\n      dup1\n        /* \"Polls.sol\":7282:7286  poll */\n      dup4\n        /* \"Polls.sol\":7282:7292  poll.title */\n      0x09\n      add\n        /* \"Polls.sol\":7249:7535  Result({... */\n      dup1\n      sload\n      tag_106\n      swap1\n      tag_62\n      jump\t// in\n    tag_106:\n      dup1\n      0x1f\n      add\n      0x20\n      dup1\n      swap2\n      div\n      mul\n      0x20\n      add\n      mload(0x40)\n      swap1\n      dup2\n      add\n      0x40\n      mstore\n      dup1\n      swap3\n      swap2\n      swap1\n      dup2\n      dup2\n      mstore\n      0x20\n      add\n      dup3\n      dup1\n      sload\n      tag_107\n      swap1\n      tag_62\n      jump\t// in\n    tag_107:\n      dup1\n      iszero\n      tag_108\n      jumpi\n      dup1\n      0x1f\n      lt\n      tag_109\n      jumpi\n      0x0100\n      dup1\n      dup4\n      sload\n      div\n      mul\n      dup4\n      mstore\n      swap2\n      0x20\n      add\n      swap2\n      jump(tag_108)\n    tag_109:\n      dup3\n      add\n      swap2\n      swap1\n      0x00\n      mstore\n      keccak256(0x00, 0x20)\n      swap1\n    tag_110:\n      dup2\n      sload\n      dup2\n      mstore\n      swap1\n      0x01\n      add\n      swap1\n      0x20\n      add\n      dup1\n      dup4\n      gt\n      tag_110\n      jumpi\n      dup3\n      swap1\n      sub\n      0x1f\n      and\n      dup3\n      add\n      swap2\n    tag_108:\n      pop\n      pop\n      pop\n      swap2\n      dup4\n      mstore\n      pop\n      pop\n        /* \"Polls.sol\":7320:7332  poll.creator */\n      0x01\n      dup5\n      add\n      sload\n      sub(shl(0xa0, 0x01), 0x01)\n      and\n        /* \"Polls.sol\":7249:7535  Result({... */\n      0x20\n      dup3\n      add\n      mstore\n        /* \"Polls.sol\":7412:7429  poll.participants */\n      0x04\n      dup5\n      add\n      sload\n        /* \"Polls.sol\":7249:7535  Result({... */\n      0x40\n      dup3\n      add\n      mstore\n        /* \"Polls.sol\":7460:7475  poll.totalVotes */\n      0x05\n      dup5\n      add\n      sload\n        /* \"Polls.sol\":7249:7535  Result({... */\n      0x60\n      dup3\n      add\n      mstore\n      0x80\n      dup2\n      add\n      swap3\n      swap1\n      swap3\n      mstore\n        /* \"Polls.sol\":7505:7519  poll.createdAt */\n      0x06\n      swap1\n      swap3\n      add\n      sload\n        /* \"Polls.sol\":7249:7535  Result({... */\n      0xa0\n      swap1\n      swap2\n      add\n      mstore\n        /* \"Polls.sol\":7229:7535  return... */\n      swap1\n      pop\n        /* \"Polls.sol\":6906:7543  function getPollResults(... */\n    tag_52:\n      swap3\n      swap2\n      pop\n      pop\n      jump\t// out\n        /* \"Polls.sol\":9777:10056  function deletePoll(uint256 _pollId) external {... */\n    tag_21:\n        /* \"Polls.sol\":9834:9851  Poll storage poll */\n      0x00\n        /* \"Polls.sol\":9854:9870  getPoll(_pollId) */\n      tag_112\n        /* \"Polls.sol\":9862:9869  _pollId */\n      dup3\n        /* \"Polls.sol\":9854:9861  getPoll */\n      tag_54\n        /* \"Polls.sol\":9854:9870  getPoll(_pollId) */\n      jump\t// in\n    tag_112:\n        /* \"Polls.sol\":9885:9897  poll.creator */\n      0x01\n      dup2\n      add\n      sload\n        /* \"Polls.sol\":9834:9870  Poll storage poll = getPoll(_pollId) */\n      swap1\n      swap2\n      pop\n      sub(shl(0xa0, 0x01), 0x01)\n        /* \"Polls.sol\":9885:9897  poll.creator */\n      and\n        /* \"Polls.sol\":9901:9911  msg.sender */\n      caller\n        /* \"Polls.sol\":9885:9911  poll.creator != msg.sender */\n      eq\n        /* \"Polls.sol\":9881:9934  if (poll.creator != msg.sender) revert AccessDenied() */\n      tag_113\n      jumpi\n        /* \"Polls.sol\":9920:9934  AccessDenied() */\n      mload(0x40)\n      shl(0xe0, 0x4ca88867)\n      dup2\n      mstore\n      0x04\n      add\n      mload(0x40)\n      dup1\n      swap2\n      sub\n      swap1\n      revert\n        /* \"Polls.sol\":9881:9934  if (poll.creator != msg.sender) revert AccessDenied() */\n    tag_113:\n        /* \"Polls.sol\":9975:9989  poll.isDeleted */\n      0x07\n      dup2\n      add\n        /* \"Polls.sol\":9975:9996  poll.isDeleted = true */\n      dup1\n      sload\n      not(0xff)\n      and\n        /* \"Polls.sol\":9992:9996  true */\n      0x01\n        /* \"Polls.sol\":9975:9996  poll.isDeleted = true */\n      swap1\n      dup2\n      or\n      swap1\n      swap2\n      sstore\n        /* \"Polls.sol\":10026:10038  poll.creator */\n      dup2\n      add\n      sload\n        /* \"Polls.sol\":10014:10048  PollDeleted(poll.creator, _pollId) */\n      mload(0x40)\n        /* \"Polls.sol\":10040:10047  _pollId */\n      dup4\n      swap2\n      sub(shl(0xa0, 0x01), 0x01)\n        /* \"Polls.sol\":10026:10038  poll.creator */\n      and\n      swap1\n        /* \"Polls.sol\":10014:10048  PollDeleted(poll.creator, _pollId) */\n      0x8e6c50d6b1ccb63b8c9dbaec72e0535801412cda407271616bb03a6096d75f9d\n      swap1\n        /* \"Polls.sol\":9975:9989  poll.isDeleted */\n      0x00\n      swap1\n        /* \"Polls.sol\":10014:10048  PollDeleted(poll.creator, _pollId) */\n      log3\n        /* \"Polls.sol\":9823:10056  {... */\n      pop\n        /* \"Polls.sol\":9777:10056  function deletePoll(uint256 _pollId) external {... */\n      pop\n      jump\t// out\n        /* \"Polls.sol\":3543:4941  function createPoll(... */\n    tag_25:\n        /* \"Polls.sol\":3782:3789  uint256 */\n      0x00\n        /* \"Polls.sol\":3802:3823  validateTitle(_title) */\n      tag_115\n        /* \"Polls.sol\":3816:3822  _title */\n      dup11\n      dup11\n        /* \"Polls.sol\":3802:3815  validateTitle */\n      tag_116\n        /* \"Polls.sol\":3802:3823  validateTitle(_title) */\n      jump\t// in\n    tag_115:\n        /* \"Polls.sol\":3834:3853  validateDesc(_desc) */\n      tag_117\n        /* \"Polls.sol\":3847:3852  _desc */\n      dup9\n      dup9\n        /* \"Polls.sol\":3834:3846  validateDesc */\n      tag_118\n        /* \"Polls.sol\":3834:3853  validateDesc(_desc) */\n      jump\t// in\n    tag_117:\n        /* \"Polls.sol\":3864:3897  validateTimes(_startsAt, _endsAt) */\n      tag_119\n        /* \"Polls.sol\":3878:3887  _startsAt */\n      dup7\n        /* \"Polls.sol\":3889:3896  _endsAt */\n      dup7\n        /* \"Polls.sol\":3864:3877  validateTimes */\n      tag_120\n        /* \"Polls.sol\":3864:3897  validateTimes(_startsAt, _endsAt) */\n      jump\t// in\n    tag_119:\n        /* \"Polls.sol\":3908:3933  validateOptions(_options) */\n      tag_121\n        /* \"Polls.sol\":3924:3932  _options */\n      dup5\n      dup5\n        /* \"Polls.sol\":3908:3923  validateOptions */\n      tag_122\n        /* \"Polls.sol\":3908:3933  validateOptions(_options) */\n      jump\t// in\n    tag_121:\n        /* \"Polls.sol\":3944:3971  validateSettings(_settings) */\n      tag_123\n        /* \"Polls.sol\":3961:3970  _settings */\n      dup3\n        /* \"Polls.sol\":3944:3960  validateSettings */\n      tag_124\n        /* \"Polls.sol\":3944:3971  validateSettings(_settings) */\n      jump\t// in\n    tag_123:\n        /* \"Polls.sol\":3984:3998  uint256 pollId */\n      0x00\n        /* \"Polls.sol\":4001:4013  polls.length */\n      dup1\n      sload\n        /* \"Polls.sol\":4047:4059  polls.push() */\n      0x01\n      dup2\n      add\n      dup3\n      sstore\n      swap1\n      dup1\n      mstore\n        /* \"Polls.sol\":4070:4085  newPoll.creator */\n      0x290decd9548b62a8d60345a988386fc84ba6bc95484008f6362f93160ef3e564\n        /* \"Polls.sol\":4047:4059  polls.push() */\n      0x0c\n      dup3\n      mul\n        /* \"Polls.sol\":4070:4085  newPoll.creator */\n      swap1\n      dup2\n      add\n        /* \"Polls.sol\":4070:4098  newPoll.creator = msg.sender */\n      dup1\n      sload\n      0xffffffffffffffffffffffff0000000000000000000000000000000000000000\n      and\n        /* \"Polls.sol\":4088:4098  msg.sender */\n      caller\n        /* \"Polls.sol\":4070:4098  newPoll.creator = msg.sender */\n      or\n      swap1\n      sstore\n        /* \"Polls.sol\":4047:4059  polls.push() */\n      0x290decd9548b62a8d60345a988386fc84ba6bc95484008f6362f93160ef3e563\n      dup2\n      add\n        /* \"Polls.sol\":4109:4128  newPoll.id = pollId */\n      dup3\n      dup2\n      sstore\n        /* \"Polls.sol\":4047:4059  polls.push() */\n      swap1\n        /* \"Polls.sol\":4139:4152  newPoll.title */\n      0x290decd9548b62a8d60345a988386fc84ba6bc95484008f6362f93160ef3e56c\n      add\n        /* \"Polls.sol\":4139:4161  newPoll.title = _title */\n      tag_126\n        /* \"Polls.sol\":4155:4161  _title */\n      dup13\n      dup15\n        /* \"Polls.sol\":4139:4152  newPoll.title */\n      dup4\n        /* \"Polls.sol\":4139:4161  newPoll.title = _title */\n      tag_127\n      jump\t// in\n    tag_126:\n      pop\n        /* \"Polls.sol\":4172:4191  newPoll.description */\n      0x0a\n      dup2\n      add\n        /* \"Polls.sol\":4172:4199  newPoll.description = _desc */\n      tag_128\n        /* \"Polls.sol\":4194:4199  _desc */\n      dup11\n      dup13\n        /* \"Polls.sol\":4172:4191  newPoll.description */\n      dup4\n        /* \"Polls.sol\":4172:4199  newPoll.description = _desc */\n      tag_127\n      jump\t// in\n    tag_128:\n      pop\n        /* \"Polls.sol\":4210:4226  newPoll.startsAt */\n      0x02\n      dup2\n      add\n        /* \"Polls.sol\":4210:4238  newPoll.startsAt = _startsAt */\n      dup9\n      swap1\n      sstore\n        /* \"Polls.sol\":4266:4286  _settings.noDeadline */\n      tag_129\n      0x40\n      dup6\n      add\n      0x20\n      dup7\n      add\n      tag_130\n      jump\t// in\n    tag_129:\n        /* \"Polls.sol\":4266:4300  _settings.noDeadline ? 0 : _endsAt */\n      tag_131\n      jumpi\n        /* \"Polls.sol\":4293:4300  _endsAt */\n      dup7\n        /* \"Polls.sol\":4266:4300  _settings.noDeadline ? 0 : _endsAt */\n      jump(tag_132)\n    tag_131:\n        /* \"Polls.sol\":4289:4290  0 */\n      0x00\n        /* \"Polls.sol\":4266:4300  _settings.noDeadline ? 0 : _endsAt */\n    tag_132:\n        /* \"Polls.sol\":4249:4263  newPoll.endsAt */\n      0x03\n      dup3\n      add\n        /* \"Polls.sol\":4249:4300  newPoll.endsAt = _settings.noDeadline ? 0 : _endsAt */\n      sstore\n        /* \"Polls.sol\":4334:4335  0 */\n      0x00\n        /* \"Polls.sol\":4311:4331  newPoll.participants */\n      0x04\n      dup3\n      add\n        /* \"Polls.sol\":4311:4335  newPoll.participants = 0 */\n      dup2\n      swap1\n      sstore\n        /* \"Polls.sol\":4346:4364  newPoll.totalVotes */\n      0x05\n      dup3\n      add\n        /* \"Polls.sol\":4346:4368  newPoll.totalVotes = 0 */\n      sstore\n        /* \"Polls.sol\":4398:4407  _settings */\n      dup4\n        /* \"Polls.sol\":4379:4395  newPoll.settings */\n      0x08\n      dup3\n      add\n        /* \"Polls.sol\":4379:4407  newPoll.settings = _settings */\n      tag_133\n        /* \"Polls.sol\":4398:4407  _settings */\n      dup3\n        /* \"Polls.sol\":4379:4395  newPoll.settings */\n      dup3\n        /* \"Polls.sol\":4379:4407  newPoll.settings = _settings */\n      tag_134\n      jump\t// in\n    tag_133:\n      pop\n      pop\n        /* \"Polls.sol\":4438:4453  block.timestamp */\n      timestamp\n        /* \"Polls.sol\":4418:4435  newPoll.createdAt */\n      0x06\n      dup3\n      add\n        /* \"Polls.sol\":4418:4453  newPoll.createdAt = block.timestamp */\n      sstore\n        /* \"Polls.sol\":4464:4481  newPoll.isDeleted */\n      0x07\n      dup2\n      add\n        /* \"Polls.sol\":4464:4489  newPoll.isDeleted = false */\n      dup1\n      sload\n      not(0xff)\n      and\n      swap1\n      sstore\n        /* \"Polls.sol\":4484:4489  false */\n      0x00\n        /* \"Polls.sol\":4500:4603  for (uint i = 0; i < _options.length; i++) {... */\n    tag_135:\n        /* \"Polls.sol\":4517:4536  i < _options.length */\n      dup6\n      dup2\n      lt\n        /* \"Polls.sol\":4500:4603  for (uint i = 0; i < _options.length; i++) {... */\n      iszero\n      tag_136\n      jumpi\n        /* \"Polls.sol\":4558:4565  newPoll */\n      dup2\n        /* \"Polls.sol\":4558:4573  newPoll.options */\n      0x0b\n      add\n        /* \"Polls.sol\":4579:4587  _options */\n      dup8\n      dup8\n        /* \"Polls.sol\":4588:4589  i */\n      dup4\n        /* \"Polls.sol\":4579:4590  _options[i] */\n      dup2\n      dup2\n      lt\n      tag_139\n      jumpi\n      tag_139\n      tag_140\n      jump\t// in\n    tag_139:\n      swap1\n      pop\n      0x20\n      mul\n      dup2\n      add\n      swap1\n      tag_141\n      swap2\n      swap1\n      tag_142\n      jump\t// in\n    tag_141:\n        /* \"Polls.sol\":4558:4591  newPoll.options.push(_options[i]) */\n      dup3\n      sload\n      0x01\n      dup2\n      add\n      dup5\n      sstore\n      0x00\n      swap4\n      dup5\n      mstore\n      0x20\n      swap1\n      swap4\n      keccak256\n      swap1\n      swap3\n      add\n      swap2\n      tag_144\n      swap2\n      dup4\n      tag_127\n      jump\t// in\n    tag_144:\n      pop\n        /* \"Polls.sol\":4538:4541  i++ */\n      0x01\n      add\n        /* \"Polls.sol\":4500:4603  for (uint i = 0; i < _options.length; i++) {... */\n      jump(tag_135)\n    tag_136:\n      pop\n        /* \"Polls.sol\":4665:4675  msg.sender */\n      caller\n        /* \"Polls.sol\":4655:4676  userPolls[msg.sender] */\n      0x00\n      dup2\n      dup2\n      mstore\n        /* \"Polls.sol\":4655:4664  userPolls */\n      0x03\n        /* \"Polls.sol\":4655:4676  userPolls[msg.sender] */\n      0x20\n      swap1\n      dup2\n      mstore\n      0x40\n      dup1\n      dup4\n      keccak256\n        /* \"Polls.sol\":4655:4689  userPolls[msg.sender].push(pollId) */\n      dup1\n      sload\n      0x01\n      dup2\n      add\n      dup3\n      sstore\n      swap1\n      dup5\n      mstore\n      dup3\n      dup5\n      keccak256\n      add\n      dup7\n      swap1\n      sstore\n        /* \"Polls.sol\":4749:4782  userTotalPollsCreated[msg.sender] */\n      swap3\n      dup3\n      mstore\n        /* \"Polls.sol\":4749:4770  userTotalPollsCreated */\n      0x09\n        /* \"Polls.sol\":4749:4782  userTotalPollsCreated[msg.sender] */\n      swap1\n      mstore\n      swap1\n      dup2\n      keccak256\n        /* \"Polls.sol\":4749:4784  userTotalPollsCreated[msg.sender]++ */\n      dup1\n      sload\n      swap2\n      tag_146\n      dup4\n      tag_147\n      jump\t// in\n    tag_146:\n      swap1\n      swap2\n      sstore\n      pop\n      pop\n        /* \"Polls.sol\":4841:4858  totalPollsCreated */\n      0x01\n        /* \"Polls.sol\":4841:4860  totalPollsCreated++ */\n      dup1\n      sload\n      swap1\n        /* \"Polls.sol\":4841:4858  totalPollsCreated */\n      0x00\n        /* \"Polls.sol\":4841:4860  totalPollsCreated++ */\n      tag_148\n      dup4\n      tag_147\n      jump\t// in\n    tag_148:\n      swap1\n      swap2\n      sstore\n      pop\n      pop\n        /* \"Polls.sol\":4878:4909  PollCreated(msg.sender, pollId) */\n      mload(0x40)\n        /* \"Polls.sol\":4902:4908  pollId */\n      dup3\n      swap1\n        /* \"Polls.sol\":4890:4900  msg.sender */\n      caller\n      swap1\n        /* \"Polls.sol\":4878:4909  PollCreated(msg.sender, pollId) */\n      0x253458ed40d765e300ef79d87f8b5a901191fbfc27d54b1ea052a6752908953c\n      swap1\n      0x00\n      swap1\n      log3\n      pop\n        /* \"Polls.sol\":4927:4933  pollId */\n      swap11\n        /* \"Polls.sol\":3543:4941  function createPoll(... */\n      swap10\n      pop\n      pop\n      pop\n      pop\n      pop\n      pop\n      pop\n      pop\n      pop\n      pop\n      jump\t// out\n        /* \"Polls.sol\":7853:9403  function castVote(... */\n    tag_31:\n        /* \"Polls.sol\":7968:7985  Poll storage poll */\n      0x00\n        /* \"Polls.sol\":7988:8004  getPoll(_pollId) */\n      tag_150\n        /* \"Polls.sol\":7996:8003  _pollId */\n      dup5\n        /* \"Polls.sol\":7988:7995  getPoll */\n      tag_54\n        /* \"Polls.sol\":7988:8004  getPoll(_pollId) */\n      jump\t// in\n    tag_150:\n        /* \"Polls.sol\":7968:8004  Poll storage poll = getPoll(_pollId) */\n      swap1\n      pop\n        /* \"Polls.sol\":8040:8051  Status.Open */\n      0x01\n        /* \"Polls.sol\":8021:8036  getStatus(poll) */\n      0x40\n      dup1\n      mload\n      0x0180\n      dup2\n      add\n      dup3\n      mstore\n      dup4\n      sload\n      dup2\n      mstore\n      0x01\n      dup5\n      add\n      sload\n      sub(shl(0xa0, 0x01), 0x01)\n      and\n      0x20\n      dup1\n      dup4\n      add\n      swap2\n      swap1\n      swap2\n      mstore\n      0x02\n      dup6\n      add\n      sload\n      dup3\n      dup5\n      add\n      mstore\n      0x03\n      dup1\n      dup7\n      add\n      sload\n      0x60\n      dup1\n      dup6\n      add\n      swap2\n      swap1\n      swap2\n      mstore\n      0x04\n      dup8\n      add\n      sload\n      0x80\n      dup6\n      add\n      mstore\n      0x05\n      dup8\n      add\n      sload\n      0xa0\n      dup6\n      add\n      mstore\n      0x06\n      dup8\n      add\n      sload\n      0xc0\n      dup6\n      add\n      mstore\n      0x07\n      dup8\n      add\n      sload\n      0xff\n      swap1\n      dup2\n      and\n      iszero\n      iszero\n      0xe0\n      dup7\n      add\n      mstore\n      dup6\n      mload\n      swap2\n      dup3\n      add\n      dup7\n      mstore\n      0x08\n      dup9\n      add\n      dup1\n      sload\n      dup1\n      dup4\n      and\n      iszero\n      iszero\n      dup5\n      mstore\n      0x0100\n      dup1\n      dup3\n      div\n      dup5\n      and\n      iszero\n      iszero\n      swap7\n      dup6\n      add\n      swap7\n      swap1\n      swap7\n      mstore\n      tag_153\n      swap8\n        /* \"Polls.sol\":8031:8035  poll */\n      dup11\n      swap7\n        /* \"Polls.sol\":8021:8036  getStatus(poll) */\n      dup9\n      add\n      swap6\n      swap3\n      swap4\n      swap1\n      dup6\n      add\n      swap3\n      0x010000\n      swap1\n      swap3\n      div\n      and\n      swap1\n      dup2\n      gt\n      iszero\n      tag_155\n      jumpi\n      tag_155\n      tag_58\n      jump\t// in\n    tag_155:\n      0x03\n      dup2\n      gt\n      iszero\n      tag_157\n      jumpi\n      tag_157\n      tag_58\n      jump\t// in\n    tag_157:\n      dup2\n      mstore\n      pop\n      pop\n      dup2\n      mstore\n      0x20\n      add\n      0x09\n      dup3\n      add\n      dup1\n      sload\n      tag_158\n      swap1\n      tag_62\n      jump\t// in\n    tag_158:\n      dup1\n      0x1f\n      add\n      0x20\n      dup1\n      swap2\n      div\n      mul\n      0x20\n      add\n      mload(0x40)\n      swap1\n      dup2\n      add\n      0x40\n      mstore\n      dup1\n      swap3\n      swap2\n      swap1\n      dup2\n      dup2\n      mstore\n      0x20\n      add\n      dup3\n      dup1\n      sload\n      tag_159\n      swap1\n      tag_62\n      jump\t// in\n    tag_159:\n      dup1\n      iszero\n      tag_160\n      jumpi\n      dup1\n      0x1f\n      lt\n      tag_161\n      jumpi\n      0x0100\n      dup1\n      dup4\n      sload\n      div\n      mul\n      dup4\n      mstore\n      swap2\n      0x20\n      add\n      swap2\n      jump(tag_160)\n    tag_161:\n      dup3\n      add\n      swap2\n      swap1\n      0x00\n      mstore\n      keccak256(0x00, 0x20)\n      swap1\n    tag_162:\n      dup2\n      sload\n      dup2\n      mstore\n      swap1\n      0x01\n      add\n      swap1\n      0x20\n      add\n      dup1\n      dup4\n      gt\n      tag_162\n      jumpi\n      dup3\n      swap1\n      sub\n      0x1f\n      and\n      dup3\n      add\n      swap2\n    tag_160:\n      pop\n      pop\n      pop\n      pop\n      pop\n      dup2\n      mstore\n      0x20\n      add\n      0x0a\n      dup3\n      add\n      dup1\n      sload\n      tag_163\n      swap1\n      tag_62\n      jump\t// in\n    tag_163:\n      dup1\n      0x1f\n      add\n      0x20\n      dup1\n      swap2\n      div\n      mul\n      0x20\n      add\n      mload(0x40)\n      swap1\n      dup2\n      add\n      0x40\n      mstore\n      dup1\n      swap3\n      swap2\n      swap1\n      dup2\n      dup2\n      mstore\n      0x20\n      add\n      dup3\n      dup1\n      sload\n      tag_164\n      swap1\n      tag_62\n      jump\t// in\n    tag_164:\n      dup1\n      iszero\n      tag_165\n      jumpi\n      dup1\n      0x1f\n      lt\n      tag_166\n      jumpi\n      0x0100\n      dup1\n      dup4\n      sload\n      div\n      mul\n      dup4\n      mstore\n      swap2\n      0x20\n      add\n      swap2\n      jump(tag_165)\n    tag_166:\n      dup3\n      add\n      swap2\n      swap1\n      0x00\n      mstore\n      keccak256(0x00, 0x20)\n      swap1\n    tag_167:\n      dup2\n      sload\n      dup2\n      mstore\n      swap1\n      0x01\n      add\n      swap1\n      0x20\n      add\n      dup1\n      dup4\n      gt\n      tag_167\n      jumpi\n      dup3\n      swap1\n      sub\n      0x1f\n      and\n      dup3\n      add\n      swap2\n    tag_165:\n      pop\n      pop\n      pop\n      pop\n      pop\n      dup2\n      mstore\n      0x20\n      add\n      0x0b\n      dup3\n      add\n      dup1\n      sload\n      dup1\n      0x20\n      mul\n      0x20\n      add\n      mload(0x40)\n      swap1\n      dup2\n      add\n      0x40\n      mstore\n      dup1\n      swap3\n      swap2\n      swap1\n      dup2\n      dup2\n      mstore\n      0x20\n      add\n      0x00\n      swap1\n    tag_168:\n      dup3\n      dup3\n      lt\n      iszero\n      tag_169\n      jumpi\n      dup4\n      dup3\n      swap1\n      0x00\n      mstore\n      keccak256(0x00, 0x20)\n      add\n      dup1\n      sload\n      tag_171\n      swap1\n      tag_62\n      jump\t// in\n    tag_171:\n      dup1\n      0x1f\n      add\n      0x20\n      dup1\n      swap2\n      div\n      mul\n      0x20\n      add\n      mload(0x40)\n      swap1\n      dup2\n      add\n      0x40\n      mstore\n      dup1\n      swap3\n      swap2\n      swap1\n      dup2\n      dup2\n      mstore\n      0x20\n      add\n      dup3\n      dup1\n      sload\n      tag_172\n      swap1\n      tag_62\n      jump\t// in\n    tag_172:\n      dup1\n      iszero\n      tag_173\n      jumpi\n      dup1\n      0x1f\n      lt\n      tag_174\n      jumpi\n      0x0100\n      dup1\n      dup4\n      sload\n      div\n      mul\n      dup4\n      mstore\n      swap2\n      0x20\n      add\n      swap2\n      jump(tag_173)\n    tag_174:\n      dup3\n      add\n      swap2\n      swap1\n      0x00\n      mstore\n      keccak256(0x00, 0x20)\n      swap1\n    tag_175:\n      dup2\n      sload\n      dup2\n      mstore\n      swap1\n      0x01\n      add\n      swap1\n      0x20\n      add\n      dup1\n      dup4\n      gt\n      tag_175\n      jumpi\n      dup3\n      swap1\n      sub\n      0x1f\n      and\n      dup3\n      add\n      swap2\n    tag_173:\n      pop\n      pop\n      pop\n      pop\n      pop\n      dup2\n      mstore\n      0x20\n      add\n      swap1\n      0x01\n      add\n      swap1\n      jump(tag_168)\n    tag_169:\n      pop\n      pop\n      pop\n      pop\n      dup2\n      mstore\n      pop\n      pop\n        /* \"Polls.sol\":8021:8030  getStatus */\n      tag_176\n        /* \"Polls.sol\":8021:8036  getStatus(poll) */\n      jump\t// in\n    tag_153:\n        /* \"Polls.sol\":8021:8051  getStatus(poll) != Status.Open */\n      0x03\n      dup2\n      gt\n      iszero\n      tag_178\n      jumpi\n      tag_178\n      tag_58\n      jump\t// in\n    tag_178:\n      eq\n        /* \"Polls.sol\":8017:8073  if (getStatus(poll) != Status.Open) revert PollNotOpen() */\n      tag_179\n      jumpi\n        /* \"Polls.sol\":8060:8073  PollNotOpen() */\n      mload(0x40)\n      shl(0xe0, 0xb4f0e2d9)\n      dup2\n      mstore\n      0x04\n      add\n      mload(0x40)\n      dup1\n      swap2\n      sub\n      swap1\n      revert\n        /* \"Polls.sol\":8017:8073  if (getStatus(poll) != Status.Open) revert PollNotOpen() */\n    tag_179:\n        /* \"Polls.sol\":8088:8105  hasVoted[_pollId] */\n      0x00\n      dup5\n      dup2\n      mstore\n        /* \"Polls.sol\":8088:8096  hasVoted */\n      0x04\n        /* \"Polls.sol\":8088:8105  hasVoted[_pollId] */\n      0x20\n      swap1\n      dup2\n      mstore\n      0x40\n      dup1\n      dup4\n      keccak256\n        /* \"Polls.sol\":8106:8116  msg.sender */\n      caller\n        /* \"Polls.sol\":8088:8117  hasVoted[_pollId][msg.sender] */\n      dup5\n      mstore\n      swap1\n      swap2\n      mstore\n      swap1\n      keccak256\n      sload\n      0xff\n      and\n        /* \"Polls.sol\":8084:8140  if (hasVoted[_pollId][msg.sender]) revert AlreadyVoted() */\n      iszero\n      tag_180\n      jumpi\n        /* \"Polls.sol\":8126:8140  AlreadyVoted() */\n      mload(0x40)\n      shl(0xe0, 0x7c9a1cf9)\n      dup2\n      mstore\n      0x04\n      add\n      mload(0x40)\n      dup1\n      swap2\n      sub\n      swap1\n      revert\n        /* \"Polls.sol\":8084:8140  if (hasVoted[_pollId][msg.sender]) revert AlreadyVoted() */\n    tag_180:\n        /* \"Polls.sol\":8174:8188  _optionIndices */\n      dup2\n        /* \"Polls.sol\":8153:8171  uint256 numChoices */\n      0x00\n        /* \"Polls.sol\":8210:8225  numChoices == 0 */\n      dup2\n      swap1\n      sub\n        /* \"Polls.sol\":8206:8252  if (numChoices == 0) revert NoOptionSelected() */\n      tag_181\n      jumpi\n        /* \"Polls.sol\":8234:8252  NoOptionSelected() */\n      mload(0x40)\n      shl(0xe0, 0xbe5a2acd)\n      dup2\n      mstore\n      0x04\n      add\n      mload(0x40)\n      dup1\n      swap2\n      sub\n      swap1\n      revert\n        /* \"Polls.sol\":8206:8252  if (numChoices == 0) revert NoOptionSelected() */\n    tag_181:\n        /* \"Polls.sol\":8270:8283  poll.settings */\n      0x08\n      dup3\n      add\n        /* \"Polls.sol\":8270:8295  poll.settings.multiChoice */\n      sload\n      0xff\n      and\n        /* \"Polls.sol\":8269:8295  !poll.settings.multiChoice */\n      iszero\n        /* \"Polls.sol\":8269:8313  !poll.settings.multiChoice && numChoices > 1 */\n      dup1\n      iszero\n      tag_182\n      jumpi\n      pop\n        /* \"Polls.sol\":8312:8313  1 */\n      0x01\n        /* \"Polls.sol\":8299:8309  numChoices */\n      dup2\n        /* \"Polls.sol\":8299:8313  numChoices > 1 */\n      gt\n        /* \"Polls.sol\":8269:8313  !poll.settings.multiChoice && numChoices > 1 */\n    tag_182:\n        /* \"Polls.sol\":8265:8372  if (!poll.settings.multiChoice && numChoices > 1) {... */\n      iszero\n      tag_183\n      jumpi\n        /* \"Polls.sol\":8337:8360  MultiChoiceNotAllowed() */\n      mload(0x40)\n      shl(0xe0, 0xbaabd107)\n      dup2\n      mstore\n      0x04\n      add\n      mload(0x40)\n      dup1\n      swap2\n      sub\n      swap1\n      revert\n        /* \"Polls.sol\":8265:8372  if (!poll.settings.multiChoice && numChoices > 1) {... */\n    tag_183:\n        /* \"Polls.sol\":8389:8398  uint256 i */\n      0x00\n        /* \"Polls.sol\":8384:8996  for (uint256 i = 0; i < numChoices; i++) {... */\n    tag_184:\n        /* \"Polls.sol\":8408:8418  numChoices */\n      dup2\n        /* \"Polls.sol\":8404:8405  i */\n      dup2\n        /* \"Polls.sol\":8404:8418  i < numChoices */\n      lt\n        /* \"Polls.sol\":8384:8996  for (uint256 i = 0; i < numChoices; i++) {... */\n      iszero\n      tag_185\n      jumpi\n        /* \"Polls.sol\":8440:8454  uint256 optInx */\n      0x00\n        /* \"Polls.sol\":8457:8471  _optionIndices */\n      dup6\n      dup6\n        /* \"Polls.sol\":8472:8473  i */\n      dup4\n        /* \"Polls.sol\":8457:8474  _optionIndices[i] */\n      dup2\n      dup2\n      lt\n      tag_188\n      jumpi\n      tag_188\n      tag_140\n      jump\t// in\n    tag_188:\n      swap1\n      pop\n      0x20\n      mul\n      add\n      calldataload\n        /* \"Polls.sol\":8440:8474  uint256 optInx = _optionIndices[i] */\n      swap1\n      pop\n        /* \"Polls.sol\":8503:8507  poll */\n      dup4\n        /* \"Polls.sol\":8503:8515  poll.options */\n      0x0b\n      add\n        /* \"Polls.sol\":8503:8522  poll.options.length */\n      dup1\n      sload\n      swap1\n      pop\n        /* \"Polls.sol\":8493:8499  optInx */\n      dup2\n        /* \"Polls.sol\":8493:8522  optInx >= poll.options.length */\n      lt\n        /* \"Polls.sol\":8489:8550  if (optInx >= poll.options.length) revert InvalidPollOption() */\n      tag_189\n      jumpi\n        /* \"Polls.sol\":8531:8550  InvalidPollOption() */\n      mload(0x40)\n      shl(0xe0, 0x70039a25)\n      dup2\n      mstore\n      0x04\n      add\n      mload(0x40)\n      dup1\n      swap2\n      sub\n      swap1\n      revert\n        /* \"Polls.sol\":8489:8550  if (optInx >= poll.options.length) revert InvalidPollOption() */\n    tag_189:\n        /* \"Polls.sol\":8570:8579  uint256 j */\n      0x00\n        /* \"Polls.sol\":8565:8750  for (uint256 j = 0; j < i; j++) {... */\n    tag_190:\n        /* \"Polls.sol\":8589:8590  i */\n      dup3\n        /* \"Polls.sol\":8585:8586  j */\n      dup2\n        /* \"Polls.sol\":8585:8590  j < i */\n      lt\n        /* \"Polls.sol\":8565:8750  for (uint256 j = 0; j < i; j++) {... */\n      iszero\n      tag_191\n      jumpi\n        /* \"Polls.sol\":8641:8655  _optionIndices */\n      dup7\n      dup7\n        /* \"Polls.sol\":8656:8657  j */\n      dup3\n        /* \"Polls.sol\":8641:8658  _optionIndices[j] */\n      dup2\n      dup2\n      lt\n      tag_194\n      jumpi\n      tag_194\n      tag_140\n      jump\t// in\n    tag_194:\n      swap1\n      pop\n      0x20\n      mul\n      add\n      calldataload\n        /* \"Polls.sol\":8620:8634  _optionIndices */\n      dup8\n      dup8\n        /* \"Polls.sol\":8635:8636  i */\n      dup6\n        /* \"Polls.sol\":8620:8637  _optionIndices[i] */\n      dup2\n      dup2\n      lt\n      tag_196\n      jumpi\n      tag_196\n      tag_140\n      jump\t// in\n    tag_196:\n      swap1\n      pop\n      0x20\n      mul\n      add\n      calldataload\n        /* \"Polls.sol\":8620:8658  _optionIndices[i] == _optionIndices[j] */\n      sub\n        /* \"Polls.sol\":8616:8735  if (_optionIndices[i] == _optionIndices[j]) {... */\n      tag_197\n      jumpi\n        /* \"Polls.sol\":8690:8715  DuplicateOptionSelected() */\n      mload(0x40)\n      shl(0xe1, 0x0fe3ee13)\n      dup2\n      mstore\n      0x04\n      add\n      mload(0x40)\n      dup1\n      swap2\n      sub\n      swap1\n      revert\n        /* \"Polls.sol\":8616:8735  if (_optionIndices[i] == _optionIndices[j]) {... */\n    tag_197:\n        /* \"Polls.sol\":8592:8595  j++ */\n      0x01\n      add\n        /* \"Polls.sol\":8565:8750  for (uint256 j = 0; j < i; j++) {... */\n      jump(tag_190)\n    tag_191:\n      pop\n        /* \"Polls.sol\":8815:8830  poll.totalVotes */\n      0x05\n      dup5\n      add\n        /* \"Polls.sol\":8815:8832  poll.totalVotes++ */\n      dup1\n      sload\n      swap1\n        /* \"Polls.sol\":8815:8830  poll.totalVotes */\n      0x00\n        /* \"Polls.sol\":8815:8832  poll.totalVotes++ */\n      tag_198\n      dup4\n      tag_147\n      jump\t// in\n    tag_198:\n      swap1\n      swap2\n      sstore\n      pop\n      pop\n        /* \"Polls.sol\":8896:8921  optionTotalVotes[_pollId] */\n      0x00\n      dup8\n      dup2\n      mstore\n        /* \"Polls.sol\":8896:8912  optionTotalVotes */\n      0x06\n        /* \"Polls.sol\":8896:8921  optionTotalVotes[_pollId] */\n      0x20\n      swap1\n      dup2\n      mstore\n      0x40\n      dup1\n      dup4\n      keccak256\n        /* \"Polls.sol\":8896:8929  optionTotalVotes[_pollId][optInx] */\n      dup5\n      dup5\n      mstore\n      swap1\n      swap2\n      mstore\n      dup2\n      keccak256\n        /* \"Polls.sol\":8896:8931  optionTotalVotes[_pollId][optInx]++ */\n      dup1\n      sload\n      swap2\n      tag_199\n      dup4\n      tag_147\n      jump\t// in\n    tag_199:\n      swap1\n      swap2\n      sstore\n      pop\n      pop\n        /* \"Polls.sol\":8971:8981  msg.sender */\n      caller\n        /* \"Polls.sol\":8948:8982  userTotalVotesReceived[msg.sender] */\n      0x00\n      swap1\n      dup2\n      mstore\n        /* \"Polls.sol\":8948:8970  userTotalVotesReceived */\n      0x08\n        /* \"Polls.sol\":8948:8982  userTotalVotesReceived[msg.sender] */\n      0x20\n      mstore\n      0x40\n      dup2\n      keccak256\n        /* \"Polls.sol\":8948:8984  userTotalVotesReceived[msg.sender]++ */\n      dup1\n      sload\n      swap2\n      tag_200\n      dup4\n      tag_147\n      jump\t// in\n    tag_200:\n      swap1\n      swap2\n      sstore\n      pop\n      pop\n      pop\n        /* \"Polls.sol\":8420:8423  i++ */\n      0x01\n      add\n        /* \"Polls.sol\":8384:8996  for (uint256 i = 0; i < numChoices; i++) {... */\n      jump(tag_184)\n    tag_185:\n      pop\n        /* \"Polls.sol\":9048:9065  hasVoted[_pollId] */\n      0x00\n      dup6\n      dup2\n      mstore\n        /* \"Polls.sol\":9048:9056  hasVoted */\n      0x04\n        /* \"Polls.sol\":9048:9065  hasVoted[_pollId] */\n      0x20\n      swap1\n      dup2\n      mstore\n      0x40\n      dup1\n      dup4\n      keccak256\n        /* \"Polls.sol\":9066:9076  msg.sender */\n      caller\n        /* \"Polls.sol\":9048:9077  hasVoted[_pollId][msg.sender] */\n      dup1\n      dup6\n      mstore\n      swap1\n      dup4\n      mstore\n      dup2\n      dup5\n      keccak256\n        /* \"Polls.sol\":9048:9084  hasVoted[_pollId][msg.sender] = true */\n      dup1\n      sload\n      not(0xff)\n      and\n        /* \"Polls.sol\":9080:9084  true */\n      0x01\n        /* \"Polls.sol\":9048:9084  hasVoted[_pollId][msg.sender] = true */\n      or\n      swap1\n      sstore\n        /* \"Polls.sol\":9139:9160  votedIndices[_pollId] */\n      dup9\n      dup5\n      mstore\n        /* \"Polls.sol\":9139:9151  votedIndices */\n      0x07\n        /* \"Polls.sol\":9139:9160  votedIndices[_pollId] */\n      dup4\n      mstore\n      dup2\n      dup5\n      keccak256\n        /* \"Polls.sol\":9139:9172  votedIndices[_pollId][msg.sender] */\n      swap1\n      dup5\n      mstore\n      swap1\n      swap2\n      mstore\n      swap1\n      keccak256\n        /* \"Polls.sol\":9139:9189  votedIndices[_pollId][msg.sender] = _optionIndices */\n      tag_201\n      swap1\n        /* \"Polls.sol\":9175:9189  _optionIndices */\n      dup6\n      dup6\n        /* \"Polls.sol\":9139:9189  votedIndices[_pollId][msg.sender] = _optionIndices */\n      tag_202\n      jump\t// in\n    tag_201:\n      pop\n        /* \"Polls.sol\":9239:9257  totalVotesReceived */\n      0x02\n        /* \"Polls.sol\":9239:9259  totalVotesReceived++ */\n      dup1\n      sload\n      swap1\n        /* \"Polls.sol\":9239:9257  totalVotesReceived */\n      0x00\n        /* \"Polls.sol\":9239:9259  totalVotesReceived++ */\n      tag_203\n      dup4\n      tag_147\n      jump\t// in\n    tag_203:\n      swap1\n      swap2\n      sstore\n      pop\n      pop\n        /* \"Polls.sol\":9313:9330  poll.participants */\n      0x04\n      dup3\n      add\n        /* \"Polls.sol\":9313:9332  poll.participants++ */\n      dup1\n      sload\n      swap1\n        /* \"Polls.sol\":9313:9330  poll.participants */\n      0x00\n        /* \"Polls.sol\":9313:9332  poll.participants++ */\n      tag_204\n      dup4\n      tag_147\n      jump\t// in\n    tag_204:\n      swap2\n      swap1\n      pop\n      sstore\n      pop\n        /* \"Polls.sol\":9359:9369  msg.sender */\n      caller\n      sub(shl(0xa0, 0x01), 0x01)\n        /* \"Polls.sol\":9350:9395  VoteCast(msg.sender, _pollId, _optionIndices) */\n      and\n      0xcf413025c8b450134dae85561cfe55bd5a20cd0d8912db984431e553b31d4c09\n        /* \"Polls.sol\":9371:9378  _pollId */\n      dup7\n        /* \"Polls.sol\":9380:9394  _optionIndices */\n      dup7\n      dup7\n        /* \"Polls.sol\":9350:9395  VoteCast(msg.sender, _pollId, _optionIndices) */\n      mload(0x40)\n      tag_205\n      swap4\n      swap3\n      swap2\n      swap1\n      tag_206\n      jump\t// in\n    tag_205:\n      mload(0x40)\n      dup1\n      swap2\n      sub\n      swap1\n      log2\n        /* \"Polls.sol\":7957:9403  {... */\n      pop\n      pop\n        /* \"Polls.sol\":7853:9403  function castVote(... */\n      pop\n      pop\n      pop\n      jump\t// out\n        /* \"Polls.sol\":9411:9769  function closePoll(uint256 _pollId) external {... */\n    tag_40:\n        /* \"Polls.sol\":9467:9484  Poll storage poll */\n      0x00\n        /* \"Polls.sol\":9487:9503  getPoll(_pollId) */\n      tag_212\n        /* \"Polls.sol\":9495:9502  _pollId */\n      dup3\n        /* \"Polls.sol\":9487:9494  getPoll */\n      tag_54\n        /* \"Polls.sol\":9487:9503  getPoll(_pollId) */\n      jump\t// in\n    tag_212:\n        /* \"Polls.sol\":9518:9530  poll.creator */\n      0x01\n      dup2\n      add\n      sload\n        /* \"Polls.sol\":9467:9503  Poll storage poll = getPoll(_pollId) */\n      swap1\n      swap2\n      pop\n      sub(shl(0xa0, 0x01), 0x01)\n        /* \"Polls.sol\":9518:9530  poll.creator */\n      and\n        /* \"Polls.sol\":9534:9544  msg.sender */\n      caller\n        /* \"Polls.sol\":9518:9544  poll.creator != msg.sender */\n      eq\n        /* \"Polls.sol\":9514:9567  if (poll.creator != msg.sender) revert AccessDenied() */\n      tag_213\n      jumpi\n        /* \"Polls.sol\":9553:9567  AccessDenied() */\n      mload(0x40)\n      shl(0xe0, 0x4ca88867)\n      dup2\n      mstore\n      0x04\n      add\n      mload(0x40)\n      dup1\n      swap2\n      sub\n      swap1\n      revert\n        /* \"Polls.sol\":9514:9567  if (poll.creator != msg.sender) revert AccessDenied() */\n    tag_213:\n        /* \"Polls.sol\":9601:9614  Status.Closed */\n      0x03\n        /* \"Polls.sol\":9582:9597  getStatus(poll) */\n      0x40\n      dup1\n      mload\n      0x0180\n      dup2\n      add\n      dup3\n      mstore\n      dup4\n      sload\n      dup2\n      mstore\n      0x01\n      dup5\n      add\n      sload\n      sub(shl(0xa0, 0x01), 0x01)\n      and\n      0x20\n      dup1\n      dup4\n      add\n      swap2\n      swap1\n      swap2\n      mstore\n      0x02\n      dup6\n      add\n      sload\n      dup3\n      dup5\n      add\n      mstore\n      0x03\n      dup1\n      dup7\n      add\n      sload\n      0x60\n      dup1\n      dup6\n      add\n      swap2\n      swap1\n      swap2\n      mstore\n      0x04\n      dup8\n      add\n      sload\n      0x80\n      dup6\n      add\n      mstore\n      0x05\n      dup8\n      add\n      sload\n      0xa0\n      dup6\n      add\n      mstore\n      0x06\n      dup8\n      add\n      sload\n      0xc0\n      dup6\n      add\n      mstore\n      0x07\n      dup8\n      add\n      sload\n      0xff\n      swap1\n      dup2\n      and\n      iszero\n      iszero\n      0xe0\n      dup7\n      add\n      mstore\n      dup6\n      mload\n      swap2\n      dup3\n      add\n      dup7\n      mstore\n      0x08\n      dup9\n      add\n      dup1\n      sload\n      dup1\n      dup4\n      and\n      iszero\n      iszero\n      dup5\n      mstore\n      0x0100\n      dup1\n      dup3\n      div\n      dup5\n      and\n      iszero\n      iszero\n      swap7\n      dup6\n      add\n      swap7\n      swap1\n      swap7\n      mstore\n      tag_216\n      swap8\n        /* \"Polls.sol\":9592:9596  poll */\n      dup11\n      swap7\n        /* \"Polls.sol\":9582:9597  getStatus(poll) */\n      dup9\n      add\n      swap6\n      swap3\n      swap4\n      swap1\n      dup6\n      add\n      swap3\n      0x010000\n      swap1\n      swap3\n      div\n      and\n      swap1\n      dup2\n      gt\n      iszero\n      tag_218\n      jumpi\n      tag_218\n      tag_58\n      jump\t// in\n    tag_218:\n      0x03\n      dup2\n      gt\n      iszero\n      tag_220\n      jumpi\n      tag_220\n      tag_58\n      jump\t// in\n    tag_220:\n      dup2\n      mstore\n      pop\n      pop\n      dup2\n      mstore\n      0x20\n      add\n      0x09\n      dup3\n      add\n      dup1\n      sload\n      tag_221\n      swap1\n      tag_62\n      jump\t// in\n    tag_221:\n      dup1\n      0x1f\n      add\n      0x20\n      dup1\n      swap2\n      div\n      mul\n      0x20\n      add\n      mload(0x40)\n      swap1\n      dup2\n      add\n      0x40\n      mstore\n      dup1\n      swap3\n      swap2\n      swap1\n      dup2\n      dup2\n      mstore\n      0x20\n      add\n      dup3\n      dup1\n      sload\n      tag_222\n      swap1\n      tag_62\n      jump\t// in\n    tag_222:\n      dup1\n      iszero\n      tag_223\n      jumpi\n      dup1\n      0x1f\n      lt\n      tag_224\n      jumpi\n      0x0100\n      dup1\n      dup4\n      sload\n      div\n      mul\n      dup4\n      mstore\n      swap2\n      0x20\n      add\n      swap2\n      jump(tag_223)\n    tag_224:\n      dup3\n      add\n      swap2\n      swap1\n      0x00\n      mstore\n      keccak256(0x00, 0x20)\n      swap1\n    tag_225:\n      dup2\n      sload\n      dup2\n      mstore\n      swap1\n      0x01\n      add\n      swap1\n      0x20\n      add\n      dup1\n      dup4\n      gt\n      tag_225\n      jumpi\n      dup3\n      swap1\n      sub\n      0x1f\n      and\n      dup3\n      add\n      swap2\n    tag_223:\n      pop\n      pop\n      pop\n      pop\n      pop\n      dup2\n      mstore\n      0x20\n      add\n      0x0a\n      dup3\n      add\n      dup1\n      sload\n      tag_226\n      swap1\n      tag_62\n      jump\t// in\n    tag_226:\n      dup1\n      0x1f\n      add\n      0x20\n      dup1\n      swap2\n      div\n      mul\n      0x20\n      add\n      mload(0x40)\n      swap1\n      dup2\n      add\n      0x40\n      mstore\n      dup1\n      swap3\n      swap2\n      swap1\n      dup2\n      dup2\n      mstore\n      0x20\n      add\n      dup3\n      dup1\n      sload\n      tag_227\n      swap1\n      tag_62\n      jump\t// in\n    tag_227:\n      dup1\n      iszero\n      tag_228\n      jumpi\n      dup1\n      0x1f\n      lt\n      tag_229\n      jumpi\n      0x0100\n      dup1\n      dup4\n      sload\n      div\n      mul\n      dup4\n      mstore\n      swap2\n      0x20\n      add\n      swap2\n      jump(tag_228)\n    tag_229:\n      dup3\n      add\n      swap2\n      swap1\n      0x00\n      mstore\n      keccak256(0x00, 0x20)\n      swap1\n    tag_230:\n      dup2\n      sload\n      dup2\n      mstore\n      swap1\n      0x01\n      add\n      swap1\n      0x20\n      add\n      dup1\n      dup4\n      gt\n      tag_230\n      jumpi\n      dup3\n      swap1\n      sub\n      0x1f\n      and\n      dup3\n      add\n      swap2\n    tag_228:\n      pop\n      pop\n      pop\n      pop\n      pop\n      dup2\n      mstore\n      0x20\n      add\n      0x0b\n      dup3\n      add\n      dup1\n      sload\n      dup1\n      0x20\n      mul\n      0x20\n      add\n      mload(0x40)\n      swap1\n      dup2\n      add\n      0x40\n      mstore\n      dup1\n      swap3\n      swap2\n      swap1\n      dup2\n      dup2\n      mstore\n      0x20\n      add\n      0x00\n      swap1\n    tag_231:\n      dup3\n      dup3\n      lt\n      iszero\n      tag_169\n      jumpi\n      dup4\n      dup3\n      swap1\n      0x00\n      mstore\n      keccak256(0x00, 0x20)\n      add\n      dup1\n      sload\n      tag_234\n      swap1\n      tag_62\n      jump\t// in\n    tag_234:\n      dup1\n      0x1f\n      add\n      0x20\n      dup1\n      swap2\n      div\n      mul\n      0x20\n      add\n      mload(0x40)\n      swap1\n      dup2\n      add\n      0x40\n      mstore\n      dup1\n      swap3\n      swap2\n      swap1\n      dup2\n      dup2\n      mstore\n      0x20\n      add\n      dup3\n      dup1\n      sload\n      tag_235\n      swap1\n      tag_62\n      jump\t// in\n    tag_235:\n      dup1\n      iszero\n      tag_236\n      jumpi\n      dup1\n      0x1f\n      lt\n      tag_237\n      jumpi\n      0x0100\n      dup1\n      dup4\n      sload\n      div\n      mul\n      dup4\n      mstore\n      swap2\n      0x20\n      add\n      swap2\n      jump(tag_236)\n    tag_237:\n      dup3\n      add\n      swap2\n      swap1\n      0x00\n      mstore\n      keccak256(0x00, 0x20)\n      swap1\n    tag_238:\n      dup2\n      sload\n      dup2\n      mstore\n      swap1\n      0x01\n      add\n      swap1\n      0x20\n      add\n      dup1\n      dup4\n      gt\n      tag_238\n      jumpi\n      dup3\n      swap1\n      sub\n      0x1f\n      and\n      dup3\n      add\n      swap2\n    tag_236:\n      pop\n      pop\n      pop\n      pop\n      pop\n      dup2\n      mstore\n      0x20\n      add\n      swap1\n      0x01\n      add\n      swap1\n      jump(tag_231)\n    tag_216:\n        /* \"Polls.sol\":9582:9614  getStatus(poll) == Status.Closed */\n      0x03\n      dup2\n      gt\n      iszero\n      tag_240\n      jumpi\n      tag_240\n      tag_58\n      jump\t// in\n    tag_240:\n      sub\n        /* \"Polls.sol\":9578:9642  if (getStatus(poll) == Status.Closed) revert PollAlreadyClosed() */\n      tag_241\n      jumpi\n        /* \"Polls.sol\":9623:9642  PollAlreadyClosed() */\n      mload(0x40)\n      shl(0xe0, 0x9b22ddeb)\n      dup2\n      mstore\n      0x04\n      add\n      mload(0x40)\n      dup1\n      swap2\n      sub\n      swap1\n      revert\n        /* \"Polls.sol\":9578:9642  if (getStatus(poll) == Status.Closed) revert PollAlreadyClosed() */\n    tag_241:\n        /* \"Polls.sol\":9711:9712  1 */\n      0x01\n        /* \"Polls.sol\":9697:9708  poll.endsAt */\n      0x03\n      dup3\n      add\n        /* \"Polls.sol\":9697:9712  poll.endsAt = 1 */\n      sstore\n        /* \"Polls.sol\":9730:9761  PollClosed(msg.sender, _pollId) */\n      mload(0x40)\n        /* \"Polls.sol\":9753:9760  _pollId */\n      dup3\n      swap1\n        /* \"Polls.sol\":9741:9751  msg.sender */\n      caller\n      swap1\n        /* \"Polls.sol\":9730:9761  PollClosed(msg.sender, _pollId) */\n      0x563a96cebb2dd00c04fe16ab3f34901e3749b13da3040e6cae0b5a55ea4daee2\n      swap1\n      0x00\n      swap1\n      log3\n        /* \"Polls.sol\":9456:9769  {... */\n      pop\n        /* \"Polls.sol\":9411:9769  function closePoll(uint256 _pollId) external {... */\n      pop\n      jump\t// out\n        /* \"Polls.sol\":6098:6898  function getPollDetails(... */\n    tag_43:\n        /* \"Polls.sol\":6178:6192  Details memory */\n      tag_242\n      tag_243\n      jump\t// in\n    tag_242:\n        /* \"Polls.sol\":6205:6222  Poll storage poll */\n      0x00\n        /* \"Polls.sol\":6225:6241  getPoll(_pollId) */\n      tag_245\n        /* \"Polls.sol\":6233:6240  _pollId */\n      dup4\n        /* \"Polls.sol\":6225:6232  getPoll */\n      tag_54\n        /* \"Polls.sol\":6225:6241  getPoll(_pollId) */\n      jump\t// in\n    tag_245:\n        /* \"Polls.sol\":6274:6890  Details({... */\n      0x40\n      dup1\n      mload\n      0x01a0\n      dup2\n      add\n      swap1\n      swap2\n      mstore\n        /* \"Polls.sol\":6310:6322  poll.creator */\n      0x01\n      dup3\n      add\n      sload\n      sub(shl(0xa0, 0x01), 0x01)\n      and\n        /* \"Polls.sol\":6274:6890  Details({... */\n      dup2\n      mstore\n        /* \"Polls.sol\":6348:6358  poll.title */\n      0x09\n      dup3\n      add\n        /* \"Polls.sol\":6274:6890  Details({... */\n      dup1\n      sload\n        /* \"Polls.sol\":6205:6241  Poll storage poll = getPoll(_pollId) */\n      swap3\n      swap4\n      pop\n        /* \"Polls.sol\":6274:6890  Details({... */\n      swap1\n      swap2\n      0x20\n      dup4\n      add\n      swap2\n        /* \"Polls.sol\":6348:6358  poll.title */\n      swap1\n        /* \"Polls.sol\":6274:6890  Details({... */\n      tag_246\n      swap1\n      tag_62\n      jump\t// in\n    tag_246:\n      dup1\n      0x1f\n      add\n      0x20\n      dup1\n      swap2\n      div\n      mul\n      0x20\n      add\n      mload(0x40)\n      swap1\n      dup2\n      add\n      0x40\n      mstore\n      dup1\n      swap3\n      swap2\n      swap1\n      dup2\n      dup2\n      mstore\n      0x20\n      add\n      dup3\n      dup1\n      sload\n      tag_247\n      swap1\n      tag_62\n      jump\t// in\n    tag_247:\n      dup1\n      iszero\n      tag_248\n      jumpi\n      dup1\n      0x1f\n      lt\n      tag_249\n      jumpi\n      0x0100\n      dup1\n      dup4\n      sload\n      div\n      mul\n      dup4\n      mstore\n      swap2\n      0x20\n      add\n      swap2\n      jump(tag_248)\n    tag_249:\n      dup3\n      add\n      swap2\n      swap1\n      0x00\n      mstore\n      keccak256(0x00, 0x20)\n      swap1\n    tag_250:\n      dup2\n      sload\n      dup2\n      mstore\n      swap1\n      0x01\n      add\n      swap1\n      0x20\n      add\n      dup1\n      dup4\n      gt\n      tag_250\n      jumpi\n      dup3\n      swap1\n      sub\n      0x1f\n      and\n      dup3\n      add\n      swap2\n    tag_248:\n      pop\n      pop\n      pop\n      pop\n      pop\n      dup2\n      mstore\n      0x20\n      add\n        /* \"Polls.sol\":6390:6394  poll */\n      dup3\n        /* \"Polls.sol\":6390:6406  poll.description */\n      0x0a\n      add\n        /* \"Polls.sol\":6274:6890  Details({... */\n      dup1\n      sload\n      tag_251\n      swap1\n      tag_62\n      jump\t// in\n    tag_251:\n      dup1\n      0x1f\n      add\n      0x20\n      dup1\n      swap2\n      div\n      mul\n      0x20\n      add\n      mload(0x40)\n      swap1\n      dup2\n      add\n      0x40\n      mstore\n      dup1\n      swap3\n      swap2\n      swap1\n      dup2\n      dup2\n      mstore\n      0x20\n      add\n      dup3\n      dup1\n      sload\n      tag_252\n      swap1\n      tag_62\n      jump\t// in\n    tag_252:\n      dup1\n      iszero\n      tag_253\n      jumpi\n      dup1\n      0x1f\n      lt\n      tag_254\n      jumpi\n      0x0100\n      dup1\n      dup4\n      sload\n      div\n      mul\n      dup4\n      mstore\n      swap2\n      0x20\n      add\n      swap2\n      jump(tag_253)\n    tag_254:\n      dup3\n      add\n      swap2\n      swap1\n      0x00\n      mstore\n      keccak256(0x00, 0x20)\n      swap1\n    tag_255:\n      dup2\n      sload\n      dup2\n      mstore\n      swap1\n      0x01\n      add\n      swap1\n      0x20\n      add\n      dup1\n      dup4\n      gt\n      tag_255\n      jumpi\n      dup3\n      swap1\n      sub\n      0x1f\n      and\n      dup3\n      add\n      swap2\n    tag_253:\n      pop\n      pop\n      pop\n      pop\n      pop\n      dup2\n      mstore\n      0x20\n      add\n        /* \"Polls.sol\":6435:6439  poll */\n      dup3\n        /* \"Polls.sol\":6435:6448  poll.startsAt */\n      0x02\n      add\n      sload\n        /* \"Polls.sol\":6274:6890  Details({... */\n      dup2\n      mstore\n      0x20\n      add\n        /* \"Polls.sol\":6475:6479  poll */\n      dup3\n        /* \"Polls.sol\":6475:6486  poll.endsAt */\n      0x03\n      add\n      sload\n        /* \"Polls.sol\":6274:6890  Details({... */\n      dup2\n      mstore\n      0x20\n      add\n        /* \"Polls.sol\":6514:6518  poll */\n      dup3\n        /* \"Polls.sol\":6514:6526  poll.options */\n      0x0b\n      add\n        /* \"Polls.sol\":6274:6890  Details({... */\n      dup1\n      sload\n      dup1\n      0x20\n      mul\n      0x20\n      add\n      mload(0x40)\n      swap1\n      dup2\n      add\n      0x40\n      mstore\n      dup1\n      swap3\n      swap2\n      swap1\n      dup2\n      dup2\n      mstore\n      0x20\n      add\n      0x00\n      swap1\n    tag_256:\n      dup3\n      dup3\n      lt\n      iszero\n      tag_257\n      jumpi\n      dup4\n      dup3\n      swap1\n      0x00\n      mstore\n      keccak256(0x00, 0x20)\n      add\n      dup1\n      sload\n      tag_259\n      swap1\n      tag_62\n      jump\t// in\n    tag_259:\n      dup1\n      0x1f\n      add\n      0x20\n      dup1\n      swap2\n      div\n      mul\n      0x20\n      add\n      mload(0x40)\n      swap1\n      dup2\n      add\n      0x40\n      mstore\n      dup1\n      swap3\n      swap2\n      swap1\n      dup2\n      dup2\n      mstore\n      0x20\n      add\n      dup3\n      dup1\n      sload\n      tag_260\n      swap1\n      tag_62\n      jump\t// in\n    tag_260:\n      dup1\n      iszero\n      tag_261\n      jumpi\n      dup1\n      0x1f\n      lt\n      tag_262\n      jumpi\n      0x0100\n      dup1\n      dup4\n      sload\n      div\n      mul\n      dup4\n      mstore\n      swap2\n      0x20\n      add\n      swap2\n      jump(tag_261)\n    tag_262:\n      dup3\n      add\n      swap2\n      swap1\n      0x00\n      mstore\n      keccak256(0x00, 0x20)\n      swap1\n    tag_263:\n      dup2\n      sload\n      dup2\n      mstore\n      swap1\n      0x01\n      add\n      swap1\n      0x20\n      add\n      dup1\n      dup4\n      gt\n      tag_263\n      jumpi\n      dup3\n      swap1\n      sub\n      0x1f\n      and\n      dup3\n      add\n      swap2\n    tag_261:\n      pop\n      pop\n      pop\n      pop\n      pop\n      dup2\n      mstore\n      0x20\n      add\n      swap1\n      0x01\n      add\n      swap1\n      jump(tag_256)\n    tag_257:\n      pop\n      pop\n      pop\n      swap1\n      dup3\n      mstore\n      pop\n        /* \"Polls.sol\":6559:6576  poll.participants */\n      0x04\n      dup4\n      add\n      sload\n        /* \"Polls.sol\":6274:6890  Details({... */\n      0x20\n      dup1\n      dup4\n      add\n      dup3\n      swap1\n      mstore\n        /* \"Polls.sol\":6607:6622  poll.totalVotes */\n      0x05\n      dup6\n      add\n      sload\n        /* \"Polls.sol\":6274:6890  Details({... */\n      0x40\n      dup1\n      dup6\n      add\n      dup3\n      swap1\n      mstore\n        /* \"Polls.sol\":6859:6874  getStatus(poll) */\n      dup1\n      mload\n      0x0180\n      dup2\n      add\n      dup3\n      mstore\n      dup8\n      sload\n      dup2\n      mstore\n      0x01\n      dup9\n      add\n      sload\n      sub(shl(0xa0, 0x01), 0x01)\n      and\n      dup2\n      dup6\n      add\n      mstore\n      0x02\n      dup9\n      add\n      sload\n      dup2\n      dup4\n      add\n      mstore\n      0x03\n      dup1\n      dup10\n      add\n      sload\n        /* \"Polls.sol\":6274:6890  Details({... */\n      0x60\n        /* \"Polls.sol\":6859:6874  getStatus(poll) */\n      dup4\n      dup2\n      add\n      swap2\n      swap1\n      swap2\n      mstore\n      0x80\n      dup4\n      add\n      swap7\n      swap1\n      swap7\n      mstore\n      0xa0\n      dup3\n      add\n      swap4\n      swap1\n      swap4\n      mstore\n      0x06\n      dup9\n      add\n      sload\n      0xc0\n      dup3\n      add\n      mstore\n      0x07\n      dup9\n      add\n      sload\n      0xff\n      swap1\n      dup2\n      and\n      iszero\n      iszero\n      0xe0\n      dup4\n      add\n      mstore\n      dup3\n      mload\n      dup1\n      dup8\n      add\n      dup5\n      mstore\n      0x08\n      dup11\n      add\n      dup1\n      sload\n      dup1\n      dup5\n      and\n      iszero\n      iszero\n      dup4\n      mstore\n      0x0100\n      dup1\n      dup3\n      div\n      dup6\n      and\n      iszero\n      iszero\n      swap9\n      dup5\n      add\n      swap9\n      swap1\n      swap9\n      mstore\n        /* \"Polls.sol\":6274:6890  Details({... */\n      swap8\n      swap1\n      swap9\n      add\n      swap8\n        /* \"Polls.sol\":6859:6874  getStatus(poll) */\n      tag_264\n      swap8\n      swap4\n      swap7\n        /* \"Polls.sol\":6559:6563  poll */\n      dup12\n      swap7\n        /* \"Polls.sol\":6859:6874  getStatus(poll) */\n      swap1\n      dup9\n      add\n      swap6\n      swap3\n      swap5\n      swap2\n      swap4\n      swap3\n      dup6\n      add\n      swap3\n      0x010000\n      swap1\n      swap3\n      div\n      swap1\n      swap2\n      and\n      swap1\n      dup2\n      gt\n      iszero\n      tag_266\n      jumpi\n      tag_266\n      tag_58\n      jump\t// in\n    tag_266:\n      0x03\n      dup2\n      gt\n      iszero\n      tag_268\n      jumpi\n      tag_268\n      tag_58\n      jump\t// in\n    tag_268:\n      dup2\n      mstore\n      pop\n      pop\n      dup2\n      mstore\n      0x20\n      add\n      0x09\n      dup3\n      add\n      dup1\n      sload\n      tag_269\n      swap1\n      tag_62\n      jump\t// in\n    tag_269:\n      dup1\n      0x1f\n      add\n      0x20\n      dup1\n      swap2\n      div\n      mul\n      0x20\n      add\n      mload(0x40)\n      swap1\n      dup2\n      add\n      0x40\n      mstore\n      dup1\n      swap3\n      swap2\n      swap1\n      dup2\n      dup2\n      mstore\n      0x20\n      add\n      dup3\n      dup1\n      sload\n      tag_270\n      swap1\n      tag_62\n      jump\t// in\n    tag_270:\n      dup1\n      iszero\n      tag_271\n      jumpi\n      dup1\n      0x1f\n      lt\n      tag_272\n      jumpi\n      0x0100\n      dup1\n      dup4\n      sload\n      div\n      mul\n      dup4\n      mstore\n      swap2\n      0x20\n      add\n      swap2\n      jump(tag_271)\n    tag_272:\n      dup3\n      add\n      swap2\n      swap1\n      0x00\n      mstore\n      keccak256(0x00, 0x20)\n      swap1\n    tag_273:\n      dup2\n      sload\n      dup2\n      mstore\n      swap1\n      0x01\n      add\n      swap1\n      0x20\n      add\n      dup1\n      dup4\n      gt\n      tag_273\n      jumpi\n      dup3\n      swap1\n      sub\n      0x1f\n      and\n      dup3\n      add\n      swap2\n    tag_271:\n      pop\n      pop\n      pop\n      pop\n      pop\n      dup2\n      mstore\n      0x20\n      add\n      0x0a\n      dup3\n      add\n      dup1\n      sload\n      tag_274\n      swap1\n      tag_62\n      jump\t// in\n    tag_274:\n      dup1\n      0x1f\n      add\n      0x20\n      dup1\n      swap2\n      div\n      mul\n      0x20\n      add\n      mload(0x40)\n      swap1\n      dup2\n      add\n      0x40\n      mstore\n      dup1\n      swap3\n      swap2\n      swap1\n      dup2\n      dup2\n      mstore\n      0x20\n      add\n      dup3\n      dup1\n      sload\n      tag_275\n      swap1\n      tag_62\n      jump\t// in\n    tag_275:\n      dup1\n      iszero\n      tag_276\n      jumpi\n      dup1\n      0x1f\n      lt\n      tag_277\n      jumpi\n      0x0100\n      dup1\n      dup4\n      sload\n      div\n      mul\n      dup4\n      mstore\n      swap2\n      0x20\n      add\n      swap2\n      jump(tag_276)\n    tag_277:\n      dup3\n      add\n      swap2\n      swap1\n      0x00\n      mstore\n      keccak256(0x00, 0x20)\n      swap1\n    tag_278:\n      dup2\n      sload\n      dup2\n      mstore\n      swap1\n      0x01\n      add\n      swap1\n      0x20\n      add\n      dup1\n      dup4\n      gt\n      tag_278\n      jumpi\n      dup3\n      swap1\n      sub\n      0x1f\n      and\n      dup3\n      add\n      swap2\n    tag_276:\n      pop\n      pop\n      pop\n      pop\n      pop\n      dup2\n      mstore\n      0x20\n      add\n      0x0b\n      dup3\n      add\n      dup1\n      sload\n      dup1\n      0x20\n      mul\n      0x20\n      add\n      mload(0x40)\n      swap1\n      dup2\n      add\n      0x40\n      mstore\n      dup1\n      swap3\n      swap2\n      swap1\n      dup2\n      dup2\n      mstore\n      0x20\n      add\n      0x00\n      swap1\n    tag_279:\n      dup3\n      dup3\n      lt\n      iszero\n      tag_169\n      jumpi\n      dup4\n      dup3\n      swap1\n      0x00\n      mstore\n      keccak256(0x00, 0x20)\n      add\n      dup1\n      sload\n      tag_282\n      swap1\n      tag_62\n      jump\t// in\n    tag_282:\n      dup1\n      0x1f\n      add\n      0x20\n      dup1\n      swap2\n      div\n      mul\n      0x20\n      add\n      mload(0x40)\n      swap1\n      dup2\n      add\n      0x40\n      mstore\n      dup1\n      swap3\n      swap2\n      swap1\n      dup2\n      dup2\n      mstore\n      0x20\n      add\n      dup3\n      dup1\n      sload\n      tag_283\n      swap1\n      tag_62\n      jump\t// in\n    tag_283:\n      dup1\n      iszero\n      tag_284\n      jumpi\n      dup1\n      0x1f\n      lt\n      tag_285\n      jumpi\n      0x0100\n      dup1\n      dup4\n      sload\n      div\n      mul\n      dup4\n      mstore\n      swap2\n      0x20\n      add\n      swap2\n      jump(tag_284)\n    tag_285:\n      dup3\n      add\n      swap2\n      swap1\n      0x00\n      mstore\n      keccak256(0x00, 0x20)\n      swap1\n    tag_286:\n      dup2\n      sload\n      dup2\n      mstore\n      swap1\n      0x01\n      add\n      swap1\n      0x20\n      add\n      dup1\n      dup4\n      gt\n      tag_286\n      jumpi\n      dup3\n      swap1\n      sub\n      0x1f\n      and\n      dup3\n      add\n      swap2\n    tag_284:\n      pop\n      pop\n      pop\n      pop\n      pop\n      dup2\n      mstore\n      0x20\n      add\n      swap1\n      0x01\n      add\n      swap1\n      jump(tag_279)\n    tag_264:\n        /* \"Polls.sol\":6274:6890  Details({... */\n      0x03\n      dup2\n      gt\n      iszero\n      tag_288\n      jumpi\n      tag_288\n      tag_58\n      jump\t// in\n    tag_288:\n      dup2\n      mstore\n      0x40\n      dup1\n      mload\n      0x60\n      dup2\n      add\n      dup3\n      mstore\n        /* \"Polls.sol\":6651:6664  poll.settings */\n      0x08\n      dup6\n      add\n        /* \"Polls.sol\":6274:6890  Details({... */\n      dup1\n      sload\n      0xff\n      dup1\n      dup3\n      and\n      iszero\n      iszero\n      dup5\n      mstore\n      0x0100\n      dup3\n      div\n      dup2\n      and\n      iszero\n      iszero\n      0x20\n      dup6\n      dup2\n      add\n      swap2\n      swap1\n      swap2\n      mstore\n      swap1\n      swap6\n      add\n      swap5\n      swap3\n      swap4\n        /* \"Polls.sol\":6651:6664  poll.settings */\n      swap2\n      swap3\n        /* \"Polls.sol\":6274:6890  Details({... */\n      swap2\n      dup5\n      add\n      swap2\n      0x010000\n      swap1\n      swap2\n      div\n      and\n      0x03\n      dup2\n      gt\n      iszero\n      tag_290\n      jumpi\n      tag_290\n      tag_58\n      jump\t// in\n    tag_290:\n      0x03\n      dup2\n      gt\n      iszero\n      tag_292\n      jumpi\n      tag_292\n      tag_58\n      jump\t// in\n    tag_292:\n      swap1\n      mstore\n      pop\n      dup2\n      mstore\n        /* \"Polls.sol\":6693:6710  hasVoted[_pollId] */\n      0x00\n      dup6\n      dup2\n      mstore\n        /* \"Polls.sol\":6693:6701  hasVoted */\n      0x04\n        /* \"Polls.sol\":6274:6890  Details({... */\n      0x20\n        /* \"Polls.sol\":6693:6710  hasVoted[_pollId] */\n      swap1\n      dup2\n      mstore\n      0x40\n      dup1\n      dup4\n      keccak256\n        /* \"Polls.sol\":6711:6721  msg.sender */\n      caller\n        /* \"Polls.sol\":6693:6722  hasVoted[_pollId][msg.sender] */\n      dup1\n      dup6\n      mstore\n      swap1\n      dup4\n      mstore\n      dup2\n      dup5\n      keccak256\n      sload\n      0xff\n      and\n        /* \"Polls.sol\":6274:6890  Details({... */\n      iszero\n      iszero\n      dup4\n      dup7\n      add\n      mstore\n        /* \"Polls.sol\":6755:6776  votedIndices[_pollId] */\n      dup9\n      dup5\n      mstore\n        /* \"Polls.sol\":6755:6767  votedIndices */\n      0x07\n        /* \"Polls.sol\":6755:6776  votedIndices[_pollId] */\n      dup4\n      mstore\n      dup2\n      dup5\n      keccak256\n        /* \"Polls.sol\":6755:6788  votedIndices[_pollId][msg.sender] */\n      swap1\n      dup5\n      mstore\n      dup3\n      mstore\n      swap2\n      dup3\n      swap1\n      keccak256\n        /* \"Polls.sol\":6274:6890  Details({... */\n      dup1\n      sload\n      dup4\n      mload\n      dup2\n      dup5\n      mul\n      dup2\n      add\n      dup5\n      add\n      dup6\n      mstore\n      dup2\n      dup2\n      mstore\n      swap4\n      swap1\n      swap5\n      add\n      swap4\n        /* \"Polls.sol\":6755:6788  votedIndices[_pollId][msg.sender] */\n      swap1\n      swap2\n        /* \"Polls.sol\":6274:6890  Details({... */\n      dup4\n      add\n        /* \"Polls.sol\":6755:6788  votedIndices[_pollId][msg.sender] */\n      dup3\n        /* \"Polls.sol\":6274:6890  Details({... */\n      dup3\n      dup1\n      iszero\n      tag_293\n      jumpi\n      0x20\n      mul\n      dup3\n      add\n      swap2\n      swap1\n      0x00\n      mstore\n      keccak256(0x00, 0x20)\n      swap1\n    tag_294:\n      dup2\n      sload\n      dup2\n      mstore\n      0x20\n      add\n      swap1\n      0x01\n      add\n      swap1\n      dup1\n      dup4\n      gt\n      tag_294\n      jumpi\n    tag_293:\n      pop\n      pop\n      pop\n      pop\n      pop\n      dup2\n      mstore\n      0x20\n      add\n        /* \"Polls.sol\":6818:6822  poll */\n      dup3\n        /* \"Polls.sol\":6818:6832  poll.createdAt */\n      0x06\n      add\n      sload\n        /* \"Polls.sol\":6274:6890  Details({... */\n      dup2\n      mstore\n      pop\n        /* \"Polls.sol\":6254:6890  return... */\n      swap2\n      pop\n      pop\n        /* \"Polls.sol\":6098:6898  function getPollDetails(... */\n      swap2\n      swap1\n      pop\n      jump\t// out\n        /* \"Polls.sol\":4949:6090  function getPollSummaries() public view returns (Summary[] memory) {... */\n    tag_47:\n        /* \"Polls.sol\":5061:5071  msg.sender */\n      caller\n        /* \"Polls.sol\":5027:5048  uint256[] storage ids */\n      0x00\n        /* \"Polls.sol\":5051:5072  userPolls[msg.sender] */\n      swap1\n      dup2\n      mstore\n        /* \"Polls.sol\":5051:5060  userPolls */\n      0x03\n        /* \"Polls.sol\":5051:5072  userPolls[msg.sender] */\n      0x20\n      mstore\n      0x40\n      dup2\n      keccak256\n        /* \"Polls.sol\":5104:5114  ids.length */\n      dup1\n      sload\n        /* \"Polls.sol\":4998:5014  Summary[] memory */\n      0x60\n      swap3\n        /* \"Polls.sol\":5027:5048  uint256[] storage ids */\n      dup1\n        /* \"Polls.sol\":5160:5304  for (uint256 i = 0; i < totalCount; i++) {... */\n    tag_296:\n        /* \"Polls.sol\":5184:5194  totalCount */\n      dup3\n        /* \"Polls.sol\":5180:5181  i */\n      dup2\n        /* \"Polls.sol\":5180:5194  i < totalCount */\n      lt\n        /* \"Polls.sol\":5160:5304  for (uint256 i = 0; i < totalCount; i++) {... */\n      iszero\n      tag_297\n      jumpi\n        /* \"Polls.sol\":5221:5226  polls */\n      0x00\n        /* \"Polls.sol\":5227:5230  ids */\n      dup5\n        /* \"Polls.sol\":5231:5232  i */\n      dup3\n        /* \"Polls.sol\":5227:5233  ids[i] */\n      dup2\n      sload\n      dup2\n      lt\n      tag_300\n      jumpi\n      tag_300\n      tag_140\n      jump\t// in\n    tag_300:\n      swap1\n      0x00\n      mstore\n      keccak256(0x00, 0x20)\n      add\n      sload\n        /* \"Polls.sol\":5221:5234  polls[ids[i]] */\n      dup2\n      sload\n      dup2\n      lt\n      tag_303\n      jumpi\n      tag_303\n      tag_140\n      jump\t// in\n    tag_303:\n      0x00\n      swap2\n      dup3\n      mstore\n      0x20\n      swap1\n      swap2\n      keccak256\n        /* \"Polls.sol\":5221:5244  polls[ids[i]].isDeleted */\n      0x07\n        /* \"Polls.sol\":5221:5234  polls[ids[i]] */\n      0x0c\n      swap1\n      swap3\n      mul\n      add\n        /* \"Polls.sol\":5221:5244  polls[ids[i]].isDeleted */\n      add\n      sload\n      0xff\n      and\n        /* \"Polls.sol\":5216:5293  if (!polls[ids[i]].isDeleted) {... */\n      tag_305\n      jumpi\n        /* \"Polls.sol\":5265:5277  validCount++ */\n      dup2\n      tag_306\n      dup2\n      tag_147\n      jump\t// in\n    tag_306:\n      swap3\n      pop\n      pop\n        /* \"Polls.sol\":5216:5293  if (!polls[ids[i]].isDeleted) {... */\n    tag_305:\n        /* \"Polls.sol\":5196:5199  i++ */\n      0x01\n      add\n        /* \"Polls.sol\":5160:5304  for (uint256 i = 0; i < totalCount; i++) {... */\n      jump(tag_296)\n    tag_297:\n      pop\n        /* \"Polls.sol\":5316:5342  Summary[] memory summaries */\n      0x00\n        /* \"Polls.sol\":5359:5369  validCount */\n      dup2\n        /* \"Polls.sol\":5345:5370  new Summary[](validCount) */\n      0xffffffffffffffff\n      dup2\n      gt\n      iszero\n      tag_308\n      jumpi\n      tag_308\n      tag_309\n      jump\t// in\n    tag_308:\n      mload(0x40)\n      swap1\n      dup1\n      dup3\n      mstore\n      dup1\n      0x20\n      mul\n      0x20\n      add\n      dup3\n      add\n      0x40\n      mstore\n      dup1\n      iszero\n      tag_310\n      jumpi\n      dup2\n      0x20\n      add\n    tag_311:\n      tag_312\n      tag_313\n      jump\t// in\n    tag_312:\n      dup2\n      mstore\n      0x20\n      add\n      swap1\n      0x01\n      swap1\n      sub\n      swap1\n      dup2\n      tag_311\n      jumpi\n      swap1\n      pop\n    tag_310:\n      pop\n        /* \"Polls.sol\":5316:5370  Summary[] memory summaries = new Summary[](validCount) */\n      swap1\n      pop\n        /* \"Polls.sol\":5381:5401  uint256 currentIndex */\n      0x00\n        /* \"Polls.sol\":5423:5432  uint256 i */\n      dup1\n        /* \"Polls.sol\":5418:6054  for (uint256 i = 0; i < totalCount; i++) {... */\n    tag_314:\n        /* \"Polls.sol\":5442:5452  totalCount */\n      dup5\n        /* \"Polls.sol\":5438:5439  i */\n      dup2\n        /* \"Polls.sol\":5438:5452  i < totalCount */\n      lt\n        /* \"Polls.sol\":5418:6054  for (uint256 i = 0; i < totalCount; i++) {... */\n      iszero\n      tag_315\n      jumpi\n        /* \"Polls.sol\":5474:5484  uint256 id */\n      0x00\n        /* \"Polls.sol\":5487:5490  ids */\n      dup7\n        /* \"Polls.sol\":5491:5492  i */\n      dup3\n        /* \"Polls.sol\":5487:5493  ids[i] */\n      dup2\n      sload\n      dup2\n      lt\n      tag_318\n      jumpi\n      tag_318\n      tag_140\n      jump\t// in\n    tag_318:\n      swap1\n      0x00\n      mstore\n      keccak256(0x00, 0x20)\n      add\n      sload\n        /* \"Polls.sol\":5474:5493  uint256 id = ids[i] */\n      swap1\n      pop\n        /* \"Polls.sol\":5512:5517  polls */\n      0x00\n        /* \"Polls.sol\":5518:5520  id */\n      dup2\n        /* \"Polls.sol\":5512:5521  polls[id] */\n      dup2\n      sload\n      dup2\n      lt\n      tag_321\n      jumpi\n      tag_321\n      tag_140\n      jump\t// in\n    tag_321:\n      0x00\n      swap2\n      dup3\n      mstore\n      0x20\n      swap1\n      swap2\n      keccak256\n        /* \"Polls.sol\":5512:5531  polls[id].isDeleted */\n      0x07\n        /* \"Polls.sol\":5512:5521  polls[id] */\n      0x0c\n      swap1\n      swap3\n      mul\n      add\n        /* \"Polls.sol\":5512:5531  polls[id].isDeleted */\n      add\n      sload\n      0xff\n      and\n        /* \"Polls.sol\":5508:5541  if (polls[id].isDeleted) continue */\n      iszero\n      tag_323\n      jumpi\n        /* \"Polls.sol\":5533:5541  continue */\n      pop\n      jump(tag_316)\n        /* \"Polls.sol\":5508:5541  if (polls[id].isDeleted) continue */\n    tag_323:\n        /* \"Polls.sol\":5558:5575  Poll storage poll */\n      0x00\n        /* \"Polls.sol\":5578:5583  polls */\n      dup1\n        /* \"Polls.sol\":5584:5586  id */\n      dup3\n        /* \"Polls.sol\":5578:5587  polls[id] */\n      dup2\n      sload\n      dup2\n      lt\n      tag_325\n      jumpi\n      tag_325\n      tag_140\n      jump\t// in\n    tag_325:\n      swap1\n      0x00\n      mstore\n      keccak256(0x00, 0x20)\n      swap1\n      0x0c\n      mul\n      add\n        /* \"Polls.sol\":5558:5587  Poll storage poll = polls[id] */\n      swap1\n      pop\n        /* \"Polls.sol\":5628:6013  Summary({... */\n      mload(0x40)\n      dup1\n      0x0120\n      add\n      0x40\n      mstore\n      dup1\n        /* \"Polls.sol\":5664:5668  poll */\n      dup3\n        /* \"Polls.sol\":5664:5676  poll.creator */\n      0x01\n      add\n      0x00\n      swap1\n      sload\n      swap1\n      0x0100\n      exp\n      swap1\n      div\n      sub(shl(0xa0, 0x01), 0x01)\n      and\n      sub(shl(0xa0, 0x01), 0x01)\n        /* \"Polls.sol\":5628:6013  Summary({... */\n      and\n      dup2\n      mstore\n      0x20\n      add\n        /* \"Polls.sol\":5699:5701  id */\n      dup4\n        /* \"Polls.sol\":5628:6013  Summary({... */\n      dup2\n      mstore\n      0x20\n      add\n        /* \"Polls.sol\":5727:5731  poll */\n      dup3\n        /* \"Polls.sol\":5727:5737  poll.title */\n      0x09\n      add\n        /* \"Polls.sol\":5628:6013  Summary({... */\n      dup1\n      sload\n      tag_327\n      swap1\n      tag_62\n      jump\t// in\n    tag_327:\n      dup1\n      0x1f\n      add\n      0x20\n      dup1\n      swap2\n      div\n      mul\n      0x20\n      add\n      mload(0x40)\n      swap1\n      dup2\n      add\n      0x40\n      mstore\n      dup1\n      swap3\n      swap2\n      swap1\n      dup2\n      dup2\n      mstore\n      0x20\n      add\n      dup3\n      dup1\n      sload\n      tag_328\n      swap1\n      tag_62\n      jump\t// in\n    tag_328:\n      dup1\n      iszero\n      tag_329\n      jumpi\n      dup1\n      0x1f\n      lt\n      tag_330\n      jumpi\n      0x0100\n      dup1\n      dup4\n      sload\n      div\n      mul\n      dup4\n      mstore\n      swap2\n      0x20\n      add\n      swap2\n      jump(tag_329)\n    tag_330:\n      dup3\n      add\n      swap2\n      swap1\n      0x00\n      mstore\n      keccak256(0x00, 0x20)\n      swap1\n    tag_331:\n      dup2\n      sload\n      dup2\n      mstore\n      swap1\n      0x01\n      add\n      swap1\n      0x20\n      add\n      dup1\n      dup4\n      gt\n      tag_331\n      jumpi\n      dup3\n      swap1\n      sub\n      0x1f\n      and\n      dup3\n      add\n      swap2\n    tag_329:\n      pop\n      pop\n      pop\n      swap2\n      dup4\n      mstore\n      pop\n      pop\n        /* \"Polls.sol\":5770:5785  poll.totalVotes */\n      0x05\n      dup4\n      add\n      sload\n        /* \"Polls.sol\":5628:6013  Summary({... */\n      0x20\n      dup1\n      dup4\n      add\n      dup3\n      swap1\n      mstore\n      0x40\n      dup1\n      dup5\n      add\n      dup4\n      swap1\n      mstore\n        /* \"Polls.sol\":5858:5873  getStatus(poll) */\n      dup1\n      mload\n      0x0180\n      dup2\n      add\n      dup3\n      mstore\n      dup7\n      sload\n      dup2\n      mstore\n      0x01\n      dup8\n      add\n      sload\n      sub(shl(0xa0, 0x01), 0x01)\n      and\n      dup2\n      dup5\n      add\n      mstore\n      0x02\n      dup8\n      add\n      sload\n      dup2\n      dup4\n      add\n      mstore\n      0x03\n      dup1\n      dup9\n      add\n      sload\n        /* \"Polls.sol\":5628:6013  Summary({... */\n      0x60\n        /* \"Polls.sol\":5858:5873  getStatus(poll) */\n      dup4\n      dup2\n      add\n      swap2\n      swap1\n      swap2\n      mstore\n      0x04\n      dup10\n      add\n      sload\n      0x80\n      dup5\n      add\n      mstore\n      0xa0\n      dup4\n      add\n      swap6\n      swap1\n      swap6\n      mstore\n      0x06\n      dup9\n      add\n      sload\n      0xc0\n      dup4\n      add\n      mstore\n      0x07\n      dup9\n      add\n      sload\n      0xff\n      swap1\n      dup2\n      and\n      iszero\n      iszero\n      0xe0\n      dup5\n      add\n      mstore\n      dup4\n      mload\n      dup1\n      dup8\n      add\n      dup6\n      mstore\n      0x08\n      dup11\n      add\n      dup1\n      sload\n      dup1\n      dup5\n      and\n      iszero\n      iszero\n      dup4\n      mstore\n      0x0100\n      dup1\n      dup3\n      div\n      dup6\n      and\n      iszero\n      iszero\n      swap9\n      dup5\n      add\n      swap9\n      swap1\n      swap9\n      mstore\n        /* \"Polls.sol\":5628:6013  Summary({... */\n      swap8\n      swap1\n      swap9\n      add\n      swap8\n        /* \"Polls.sol\":5858:5873  getStatus(poll) */\n      tag_332\n      swap8\n      swap5\n      swap7\n        /* \"Polls.sol\":5770:5774  poll */\n      dup12\n      swap7\n        /* \"Polls.sol\":5858:5873  getStatus(poll) */\n      swap1\n      dup9\n      add\n      swap6\n      swap3\n      swap5\n      swap2\n      swap4\n      swap1\n      dup6\n      add\n      swap3\n      0x010000\n      swap1\n      div\n      and\n      swap1\n      dup2\n      gt\n      iszero\n      tag_334\n      jumpi\n      tag_334\n      tag_58\n      jump\t// in\n    tag_334:\n      0x03\n      dup2\n      gt\n      iszero\n      tag_336\n      jumpi\n      tag_336\n      tag_58\n      jump\t// in\n    tag_336:\n      dup2\n      mstore\n      pop\n      pop\n      dup2\n      mstore\n      0x20\n      add\n      0x09\n      dup3\n      add\n      dup1\n      sload\n      tag_337\n      swap1\n      tag_62\n      jump\t// in\n    tag_337:\n      dup1\n      0x1f\n      add\n      0x20\n      dup1\n      swap2\n      div\n      mul\n      0x20\n      add\n      mload(0x40)\n      swap1\n      dup2\n      add\n      0x40\n      mstore\n      dup1\n      swap3\n      swap2\n      swap1\n      dup2\n      dup2\n      mstore\n      0x20\n      add\n      dup3\n      dup1\n      sload\n      tag_338\n      swap1\n      tag_62\n      jump\t// in\n    tag_338:\n      dup1\n      iszero\n      tag_339\n      jumpi\n      dup1\n      0x1f\n      lt\n      tag_340\n      jumpi\n      0x0100\n      dup1\n      dup4\n      sload\n      div\n      mul\n      dup4\n      mstore\n      swap2\n      0x20\n      add\n      swap2\n      jump(tag_339)\n    tag_340:\n      dup3\n      add\n      swap2\n      swap1\n      0x00\n      mstore\n      keccak256(0x00, 0x20)\n      swap1\n    tag_341:\n      dup2\n      sload\n      dup2\n      mstore\n      swap1\n      0x01\n      add\n      swap1\n      0x20\n      add\n      dup1\n      dup4\n      gt\n      tag_341\n      jumpi\n      dup3\n      swap1\n      sub\n      0x1f\n      and\n      dup3\n      add\n      swap2\n    tag_339:\n      pop\n      pop\n      pop\n      pop\n      pop\n      dup2\n      mstore\n      0x20\n      add\n      0x0a\n      dup3\n      add\n      dup1\n      sload\n      tag_342\n      swap1\n      tag_62\n      jump\t// in\n    tag_342:\n      dup1\n      0x1f\n      add\n      0x20\n      dup1\n      swap2\n      div\n      mul\n      0x20\n      add\n      mload(0x40)\n      swap1\n      dup2\n      add\n      0x40\n      mstore\n      dup1\n      swap3\n      swap2\n      swap1\n      dup2\n      dup2\n      mstore\n      0x20\n      add\n      dup3\n      dup1\n      sload\n      tag_343\n      swap1\n      tag_62\n      jump\t// in\n    tag_343:\n      dup1\n      iszero\n      tag_344\n      jumpi\n      dup1\n      0x1f\n      lt\n      tag_345\n      jumpi\n      0x0100\n      dup1\n      dup4\n      sload\n      div\n      mul\n      dup4\n      mstore\n      swap2\n      0x20\n      add\n      swap2\n      jump(tag_344)\n    tag_345:\n      dup3\n      add\n      swap2\n      swap1\n      0x00\n      mstore\n      keccak256(0x00, 0x20)\n      swap1\n    tag_346:\n      dup2\n      sload\n      dup2\n      mstore\n      swap1\n      0x01\n      add\n      swap1\n      0x20\n      add\n      dup1\n      dup4\n      gt\n      tag_346\n      jumpi\n      dup3\n      swap1\n      sub\n      0x1f\n      and\n      dup3\n      add\n      swap2\n    tag_344:\n      pop\n      pop\n      pop\n      pop\n      pop\n      dup2\n      mstore\n      0x20\n      add\n      0x0b\n      dup3\n      add\n      dup1\n      sload\n      dup1\n      0x20\n      mul\n      0x20\n      add\n      mload(0x40)\n      swap1\n      dup2\n      add\n      0x40\n      mstore\n      dup1\n      swap3\n      swap2\n      swap1\n      dup2\n      dup2\n      mstore\n      0x20\n      add\n      0x00\n      swap1\n    tag_347:\n      dup3\n      dup3\n      lt\n      iszero\n      tag_169\n      jumpi\n      dup4\n      dup3\n      swap1\n      0x00\n      mstore\n      keccak256(0x00, 0x20)\n      add\n      dup1\n      sload\n      tag_350\n      swap1\n      tag_62\n      jump\t// in\n    tag_350:\n      dup1\n      0x1f\n      add\n      0x20\n      dup1\n      swap2\n      div\n      mul\n      0x20\n      add\n      mload(0x40)\n      swap1\n      dup2\n      add\n      0x40\n      mstore\n      dup1\n      swap3\n      swap2\n      swap1\n      dup2\n      dup2\n      mstore\n      0x20\n      add\n      dup3\n      dup1\n      sload\n      tag_351\n      swap1\n      tag_62\n      jump\t// in\n    tag_351:\n      dup1\n      iszero\n      tag_352\n      jumpi\n      dup1\n      0x1f\n      lt\n      tag_353\n      jumpi\n      0x0100\n      dup1\n      dup4\n      sload\n      div\n      mul\n      dup4\n      mstore\n      swap2\n      0x20\n      add\n      swap2\n      jump(tag_352)\n    tag_353:\n      dup3\n      add\n      swap2\n      swap1\n      0x00\n      mstore\n      keccak256(0x00, 0x20)\n      swap1\n    tag_354:\n      dup2\n      sload\n      dup2\n      mstore\n      swap1\n      0x01\n      add\n      swap1\n      0x20\n      add\n      dup1\n      dup4\n      gt\n      tag_354\n      jumpi\n      dup3\n      swap1\n      sub\n      0x1f\n      and\n      dup3\n      add\n      swap2\n    tag_352:\n      pop\n      pop\n      pop\n      pop\n      pop\n      dup2\n      mstore\n      0x20\n      add\n      swap1\n      0x01\n      add\n      swap1\n      jump(tag_347)\n    tag_332:\n        /* \"Polls.sol\":5628:6013  Summary({... */\n      0x03\n      dup2\n      gt\n      iszero\n      tag_356\n      jumpi\n      tag_356\n      tag_58\n      jump\t// in\n    tag_356:\n      dup2\n      mstore\n      0x20\n      add\n        /* \"Polls.sol\":5902:5906  poll */\n      dup3\n        /* \"Polls.sol\":5902:5915  poll.startsAt */\n      0x02\n      add\n      sload\n        /* \"Polls.sol\":5628:6013  Summary({... */\n      dup2\n      mstore\n      0x20\n      add\n        /* \"Polls.sol\":5942:5946  poll */\n      dup3\n        /* \"Polls.sol\":5942:5953  poll.endsAt */\n      0x03\n      add\n      sload\n        /* \"Polls.sol\":5628:6013  Summary({... */\n      dup2\n      mstore\n      0x20\n      add\n        /* \"Polls.sol\":5983:5987  poll */\n      dup3\n        /* \"Polls.sol\":5983:5997  poll.createdAt */\n      0x06\n      add\n      sload\n        /* \"Polls.sol\":5628:6013  Summary({... */\n      dup2\n      mstore\n      pop\n        /* \"Polls.sol\":5602:5611  summaries */\n      dup6\n        /* \"Polls.sol\":5612:5624  currentIndex */\n      dup6\n        /* \"Polls.sol\":5602:5625  summaries[currentIndex] */\n      dup2\n      mload\n      dup2\n      lt\n      tag_358\n      jumpi\n      tag_358\n      tag_140\n      jump\t// in\n    tag_358:\n      0x20\n      mul\n      0x20\n      add\n      add\n        /* \"Polls.sol\":5602:6013  summaries[currentIndex] = Summary({... */\n      dup2\n      swap1\n      mstore\n      pop\n        /* \"Polls.sol\":6028:6042  currentIndex++ */\n      dup4\n      dup1\n      tag_359\n      swap1\n      tag_147\n      jump\t// in\n    tag_359:\n      swap5\n      pop\n      pop\n        /* \"Polls.sol\":5459:6054  {... */\n      pop\n      pop\n        /* \"Polls.sol\":5418:6054  for (uint256 i = 0; i < totalCount; i++) {... */\n    tag_316:\n        /* \"Polls.sol\":5454:5457  i++ */\n      0x01\n      add\n        /* \"Polls.sol\":5418:6054  for (uint256 i = 0; i < totalCount; i++) {... */\n      jump(tag_314)\n    tag_315:\n      pop\n        /* \"Polls.sol\":6073:6082  summaries */\n      swap1\n      swap6\n        /* \"Polls.sol\":4949:6090  function getPollSummaries() public view returns (Summary[] memory) {... */\n      swap5\n      pop\n      pop\n      pop\n      pop\n      pop\n      jump\t// out\n        /* \"Polls.sol\":11227:11491  function getPoll(uint256 _pollId) internal view returns (Poll storage) {... */\n    tag_54:\n        /* \"Polls.sol\":11284:11296  Poll storage */\n      0x00\n        /* \"Polls.sol\":11328:11340  polls.length */\n      dup1\n      sload\n        /* \"Polls.sol\":11317:11340  _pollId <= polls.length */\n      dup3\n      gt\n      iszero\n        /* \"Polls.sol\":11309:11357  require(_pollId <= polls.length, \"PollNotFound\") */\n      tag_361\n      jumpi\n      mload(0x40)\n      shl(0xe5, 0x461bcd)\n      dup2\n      mstore\n        /* \"#utility.yul\":16993:16995   */\n      0x20\n        /* \"Polls.sol\":11309:11357  require(_pollId <= polls.length, \"PollNotFound\") */\n      0x04\n      dup3\n      add\n        /* \"#utility.yul\":16975:16996   */\n      mstore\n        /* \"#utility.yul\":17032:17034   */\n      0x0c\n        /* \"#utility.yul\":17012:17030   */\n      0x24\n      dup3\n      add\n        /* \"#utility.yul\":17005:17035   */\n      mstore\n        /* \"#utility.yul\":17071:17085   */\n      0x506f6c6c4e6f74466f756e640000000000000000000000000000000000000000\n        /* \"#utility.yul\":17051:17069   */\n      0x44\n      dup3\n      add\n        /* \"#utility.yul\":17044:17086   */\n      mstore\n        /* \"#utility.yul\":17103:17121   */\n      0x64\n      add\n        /* \"Polls.sol\":11309:11357  require(_pollId <= polls.length, \"PollNotFound\") */\n    tag_362:\n      mload(0x40)\n      dup1\n      swap2\n      sub\n      swap1\n      revert\n    tag_361:\n        /* \"Polls.sol\":11368:11385  Poll storage poll */\n      0x00\n        /* \"Polls.sol\":11388:11393  polls */\n      dup1\n        /* \"Polls.sol\":11394:11401  _pollId */\n      dup4\n        /* \"Polls.sol\":11388:11402  polls[_pollId] */\n      dup2\n      sload\n      dup2\n      lt\n      tag_365\n      jumpi\n      tag_365\n      tag_140\n      jump\t// in\n    tag_365:\n      0x00\n      swap2\n      dup3\n      mstore\n      0x20\n      swap1\n      swap2\n      keccak256\n      0x0c\n      swap1\n      swap2\n      mul\n      add\n        /* \"Polls.sol\":11417:11431  poll.isDeleted */\n      0x07\n      dup2\n      add\n      sload\n        /* \"Polls.sol\":11388:11402  polls[_pollId] */\n      swap1\n      swap2\n      pop\n        /* \"Polls.sol\":11417:11431  poll.isDeleted */\n      0xff\n      and\n        /* \"Polls.sol\":11413:11461  if (poll.isDeleted) revert PollNotFound(_pollId) */\n      iszero\n      tag_52\n      jumpi\n        /* \"Polls.sol\":11440:11461  PollNotFound(_pollId) */\n      mload(0x40)\n      shl(0xe2, 0x02708a4d)\n      dup2\n      mstore\n      0x04\n      dup2\n      add\n        /* \"#utility.yul\":4937:4962   */\n      dup5\n      swap1\n      mstore\n        /* \"#utility.yul\":4910:4928   */\n      0x24\n      add\n        /* \"Polls.sol\":11440:11461  PollNotFound(_pollId) */\n      tag_362\n        /* \"#utility.yul\":4791:4968   */\n      jump\n        /* \"Polls.sol\":10064:10744  function shouldShowResults(... */\n    tag_80:\n        /* \"Polls.sol\":10174:10178  bool */\n      0x00\n        /* \"Polls.sol\":10230:10252  ResultVisibility.Never */\n      0x03\n        /* \"Polls.sol\":10195:10200  _poll */\n      dup4\n        /* \"Polls.sol\":10195:10209  _poll.settings */\n      0x0100\n      add\n      mload\n        /* \"Polls.sol\":10195:10226  _poll.settings.resultVisibility */\n      0x40\n      add\n      mload\n        /* \"Polls.sol\":10195:10252  _poll.settings.resultVisibility == ResultVisibility.Never */\n      0x03\n      dup2\n      gt\n      iszero\n      tag_373\n      jumpi\n      tag_373\n      tag_58\n      jump\t// in\n    tag_373:\n      sub\n        /* \"Polls.sol\":10191:10293  if (_poll.settings.resultVisibility == ResultVisibility.Never) {... */\n      tag_374\n      jumpi\n      pop\n        /* \"Polls.sol\":10276:10281  false */\n      0x00\n        /* \"Polls.sol\":10269:10281  return false */\n      jump(tag_52)\n        /* \"Polls.sol\":10191:10293  if (_poll.settings.resultVisibility == ResultVisibility.Never) {... */\n    tag_374:\n        /* \"Polls.sol\":10356:10382  ResultVisibility.AfterVote */\n      0x01\n        /* \"Polls.sol\":10321:10326  _poll */\n      dup4\n        /* \"Polls.sol\":10321:10335  _poll.settings */\n      0x0100\n      add\n      mload\n        /* \"Polls.sol\":10321:10352  _poll.settings.resultVisibility */\n      0x40\n      add\n      mload\n        /* \"Polls.sol\":10321:10382  _poll.settings.resultVisibility == ResultVisibility.AfterVote */\n      0x03\n      dup2\n      gt\n      iszero\n      tag_378\n      jumpi\n      tag_378\n      tag_58\n      jump\t// in\n    tag_378:\n      eq\n        /* \"Polls.sol\":10321:10426  _poll.settings.resultVisibility == ResultVisibility.AfterVote &&... */\n      dup1\n      iszero\n      tag_379\n      jumpi\n      pop\n        /* \"Polls.sol\":10409:10417  _poll.id */\n      dup3\n      mload\n        /* \"Polls.sol\":10400:10418  hasVoted[_poll.id] */\n      0x00\n      swap1\n      dup2\n      mstore\n        /* \"Polls.sol\":10400:10408  hasVoted */\n      0x04\n        /* \"Polls.sol\":10400:10418  hasVoted[_poll.id] */\n      0x20\n      swap1\n      dup2\n      mstore\n      0x40\n      dup1\n      dup4\n      keccak256\n      sub(shl(0xa0, 0x01), 0x01)\n        /* \"Polls.sol\":10400:10426  hasVoted[_poll.id][_voter] */\n      dup7\n      and\n      dup5\n      mstore\n      swap1\n      swap2\n      mstore\n      swap1\n      keccak256\n      sload\n      0xff\n      and\n        /* \"Polls.sol\":10399:10426  !hasVoted[_poll.id][_voter] */\n      iszero\n        /* \"Polls.sol\":10321:10426  _poll.settings.resultVisibility == ResultVisibility.AfterVote &&... */\n    tag_379:\n        /* \"Polls.sol\":10303:10477  if (... */\n      iszero\n      tag_380\n      jumpi\n      pop\n        /* \"Polls.sol\":10460:10465  false */\n      0x00\n        /* \"Polls.sol\":10453:10465  return false */\n      jump(tag_52)\n        /* \"Polls.sol\":10303:10477  if (... */\n    tag_380:\n        /* \"Polls.sol\":10540:10565  ResultVisibility.AfterEnd */\n      0x02\n        /* \"Polls.sol\":10505:10510  _poll */\n      dup4\n        /* \"Polls.sol\":10505:10519  _poll.settings */\n      0x0100\n      add\n      mload\n        /* \"Polls.sol\":10505:10536  _poll.settings.resultVisibility */\n      0x40\n      add\n      mload\n        /* \"Polls.sol\":10505:10565  _poll.settings.resultVisibility == ResultVisibility.AfterEnd */\n      0x03\n      dup2\n      gt\n      iszero\n      tag_384\n      jumpi\n      tag_384\n      tag_58\n      jump\t// in\n    tag_384:\n      eq\n        /* \"Polls.sol\":10505:10614  _poll.settings.resultVisibility == ResultVisibility.AfterEnd &&... */\n      dup1\n      iszero\n      tag_385\n      jumpi\n      pop\n        /* \"Polls.sol\":10602:10614  Status.Ended */\n      0x02\n        /* \"Polls.sol\":10582:10598  getStatus(_poll) */\n      tag_388\n        /* \"Polls.sol\":10592:10597  _poll */\n      dup5\n        /* \"Polls.sol\":10582:10591  getStatus */\n      tag_176\n        /* \"Polls.sol\":10582:10598  getStatus(_poll) */\n      jump\t// in\n    tag_388:\n        /* \"Polls.sol\":10582:10614  getStatus(_poll) != Status.Ended */\n      0x03\n      dup2\n      gt\n      iszero\n      tag_390\n      jumpi\n      tag_390\n      tag_58\n      jump\t// in\n    tag_390:\n      eq\n      iszero\n        /* \"Polls.sol\":10505:10614  _poll.settings.resultVisibility == ResultVisibility.AfterEnd &&... */\n    tag_385:\n        /* \"Polls.sol\":10505:10664  _poll.settings.resultVisibility == ResultVisibility.AfterEnd &&... */\n      dup1\n      iszero\n      tag_391\n      jumpi\n      pop\n        /* \"Polls.sol\":10651:10664  Status.Closed */\n      0x03\n        /* \"Polls.sol\":10631:10647  getStatus(_poll) */\n      tag_394\n        /* \"Polls.sol\":10641:10646  _poll */\n      dup5\n        /* \"Polls.sol\":10631:10640  getStatus */\n      tag_176\n        /* \"Polls.sol\":10631:10647  getStatus(_poll) */\n      jump\t// in\n    tag_394:\n        /* \"Polls.sol\":10631:10664  getStatus(_poll) != Status.Closed */\n      0x03\n      dup2\n      gt\n      iszero\n      tag_396\n      jumpi\n      tag_396\n      tag_58\n      jump\t// in\n    tag_396:\n      eq\n      iszero\n        /* \"Polls.sol\":10505:10664  _poll.settings.resultVisibility == ResultVisibility.AfterEnd &&... */\n    tag_391:\n        /* \"Polls.sol\":10487:10715  if (... */\n      iszero\n      tag_397\n      jumpi\n      pop\n        /* \"Polls.sol\":10698:10703  false */\n      0x00\n        /* \"Polls.sol\":10691:10703  return false */\n      jump(tag_52)\n        /* \"Polls.sol\":10487:10715  if (... */\n    tag_397:\n      pop\n        /* \"Polls.sol\":10732:10736  true */\n      0x01\n        /* \"Polls.sol\":10064:10744  function shouldShowResults(... */\n      swap3\n      swap2\n      pop\n      pop\n      jump\t// out\n        /* \"Polls.sol\":10752:11219  function getOptionsResult(... */\n    tag_105:\n        /* \"Polls.sol\":10884:10897  _poll.options */\n      0x0160\n      dup2\n      add\n      mload\n        /* \"Polls.sol\":10884:10904  _poll.options.length */\n      mload\n        /* \"Polls.sol\":10836:10857  OptionResult[] memory */\n      0x60\n      swap1\n        /* \"Polls.sol\":10870:10881  uint256 len */\n      0x00\n        /* \"Polls.sol\":10884:10904  _poll.options.length */\n      dup2\n        /* \"Polls.sol\":10947:10970  new OptionResult[](len) */\n      0xffffffffffffffff\n      dup2\n      gt\n      iszero\n      tag_400\n      jumpi\n      tag_400\n      tag_309\n      jump\t// in\n    tag_400:\n      mload(0x40)\n      swap1\n      dup1\n      dup3\n      mstore\n      dup1\n      0x20\n      mul\n      0x20\n      add\n      dup3\n      add\n      0x40\n      mstore\n      dup1\n      iszero\n      tag_401\n      jumpi\n      dup2\n      0x20\n      add\n    tag_402:\n      0x40\n      dup1\n      mload\n      dup1\n      dup3\n      add\n      swap1\n      swap2\n      mstore\n      0x60\n      dup2\n      mstore\n      0x00\n      0x20\n      dup3\n      add\n      mstore\n      dup2\n      mstore\n      0x20\n      add\n      swap1\n      0x01\n      swap1\n      sub\n      swap1\n      dup2\n      tag_402\n      jumpi\n      swap1\n      pop\n    tag_401:\n      pop\n        /* \"Polls.sol\":10915:10970  OptionResult[] memory results = new OptionResult[](len) */\n      swap1\n      pop\n        /* \"Polls.sol\":10988:10997  uint256 i */\n      0x00\n        /* \"Polls.sol\":10983:11187  for (uint256 i = 0; i < len; i++) {... */\n    tag_405:\n        /* \"Polls.sol\":11007:11010  len */\n      dup3\n        /* \"Polls.sol\":11003:11004  i */\n      dup2\n        /* \"Polls.sol\":11003:11010  i < len */\n      lt\n        /* \"Polls.sol\":10983:11187  for (uint256 i = 0; i < len; i++) {... */\n      iszero\n      tag_406\n      jumpi\n        /* \"Polls.sol\":11045:11175  OptionResult({... */\n      mload(0x40)\n      dup1\n      0x40\n      add\n      0x40\n      mstore\n      dup1\n        /* \"Polls.sol\":11083:11088  _poll */\n      dup7\n        /* \"Polls.sol\":11083:11096  _poll.options */\n      0x0160\n      add\n      mload\n        /* \"Polls.sol\":11097:11098  i */\n      dup4\n        /* \"Polls.sol\":11083:11099  _poll.options[i] */\n      dup2\n      mload\n      dup2\n      lt\n      tag_409\n      jumpi\n      tag_409\n      tag_140\n      jump\t// in\n    tag_409:\n      0x20\n      swap1\n      dup2\n      mul\n      swap2\n      swap1\n      swap2\n      add\n      dup2\n      add\n      mload\n        /* \"Polls.sol\":11045:11175  OptionResult({... */\n      dup3\n      mstore\n        /* \"Polls.sol\":11147:11155  _poll.id */\n      dup8\n      mload\n        /* \"Polls.sol\":11130:11156  optionTotalVotes[_poll.id] */\n      0x00\n      swap1\n      dup2\n      mstore\n        /* \"Polls.sol\":11130:11146  optionTotalVotes */\n      0x06\n        /* \"Polls.sol\":11130:11156  optionTotalVotes[_poll.id] */\n      dup3\n      mstore\n      0x40\n      dup1\n      dup3\n      keccak256\n        /* \"Polls.sol\":11130:11159  optionTotalVotes[_poll.id][i] */\n      dup7\n      dup4\n      mstore\n      dup4\n      mstore\n      swap1\n      keccak256\n      sload\n        /* \"Polls.sol\":11045:11175  OptionResult({... */\n      swap2\n      add\n      mstore\n        /* \"Polls.sol\":11032:11042  results[i] */\n      dup3\n      mload\n        /* \"Polls.sol\":11032:11039  results */\n      dup4\n      swap1\n        /* \"Polls.sol\":11157:11158  i */\n      dup4\n      swap1\n        /* \"Polls.sol\":11032:11042  results[i] */\n      dup2\n      lt\n      tag_411\n      jumpi\n      tag_411\n      tag_140\n      jump\t// in\n    tag_411:\n      0x20\n      swap1\n      dup2\n      mul\n      swap2\n      swap1\n      swap2\n      add\n      add\n        /* \"Polls.sol\":11032:11175  results[i] = OptionResult({... */\n      mstore\n        /* \"Polls.sol\":11012:11015  i++ */\n      0x01\n      add\n        /* \"Polls.sol\":10983:11187  for (uint256 i = 0; i < len; i++) {... */\n      jump(tag_405)\n    tag_406:\n      pop\n        /* \"Polls.sol\":11204:11211  results */\n      swap4\n        /* \"Polls.sol\":10752:11219  function getOptionsResult(... */\n      swap3\n      pop\n      pop\n      pop\n      jump\t// out\n        /* \"Polls.sol\":11909:12126  function validateTitle(string calldata _title) internal pure {... */\n    tag_116:\n        /* \"Polls.sol\":12004:12010  _title */\n      dup1\n        /* \"Polls.sol\":12042:12043  3 */\n      0x03\n        /* \"Polls.sol\":12033:12043  length < 3 */\n      dup2\n      lt\n        /* \"Polls.sol\":12029:12067  if (length < 3) revert TitleTooShort() */\n      iszero\n      tag_413\n      jumpi\n        /* \"Polls.sol\":12052:12067  TitleTooShort() */\n      mload(0x40)\n      shl(0xe0, 0x24ace355)\n      dup2\n      mstore\n      0x04\n      add\n      mload(0x40)\n      dup1\n      swap2\n      sub\n      swap1\n      revert\n        /* \"Polls.sol\":12029:12067  if (length < 3) revert TitleTooShort() */\n    tag_413:\n        /* \"Polls.sol\":12091:12094  100 */\n      0x64\n        /* \"Polls.sol\":12082:12088  length */\n      dup2\n        /* \"Polls.sol\":12082:12094  length > 100 */\n      gt\n        /* \"Polls.sol\":12078:12118  if (length > 100) revert TitleTooLarge() */\n      iszero\n      tag_414\n      jumpi\n        /* \"Polls.sol\":12103:12118  TitleTooLarge() */\n      mload(0x40)\n      shl(0xe2, 0x2b5df40f)\n      dup2\n      mstore\n      0x04\n      add\n      mload(0x40)\n      dup1\n      swap2\n      sub\n      swap1\n      revert\n        /* \"Polls.sol\":12078:12118  if (length > 100) revert TitleTooLarge() */\n    tag_414:\n        /* \"Polls.sol\":11970:12126  {... */\n      pop\n        /* \"Polls.sol\":11909:12126  function validateTitle(string calldata _title) internal pure {... */\n      pop\n      pop\n      jump\t// out\n        /* \"Polls.sol\":12134:12376  function validateDesc(string calldata _desc) internal pure {... */\n    tag_118:\n        /* \"Polls.sol\":12227:12232  _desc */\n      dup1\n        /* \"Polls.sol\":12255:12265  length > 0 */\n      dup1\n      iszero\n      dup1\n      iszero\n      swap1\n        /* \"Polls.sol\":12255:12280  length > 0 && length < 10 */\n      tag_416\n      jumpi\n      pop\n        /* \"Polls.sol\":12278:12280  10 */\n      0x0a\n        /* \"Polls.sol\":12269:12275  length */\n      dup2\n        /* \"Polls.sol\":12269:12280  length < 10 */\n      lt\n        /* \"Polls.sol\":12255:12280  length > 0 && length < 10 */\n    tag_416:\n        /* \"Polls.sol\":12251:12310  if (length > 0 && length < 10) revert DescriptionTooShort() */\n      iszero\n      tag_417\n      jumpi\n        /* \"Polls.sol\":12289:12310  DescriptionTooShort() */\n      mload(0x40)\n      shl(0xe2, 0x1b0bf735)\n      dup2\n      mstore\n      0x04\n      add\n      mload(0x40)\n      dup1\n      swap2\n      sub\n      swap1\n      revert\n        /* \"Polls.sol\":12251:12310  if (length > 0 && length < 10) revert DescriptionTooShort() */\n    tag_417:\n        /* \"Polls.sol\":12334:12338  1000 */\n      0x03e8\n        /* \"Polls.sol\":12325:12331  length */\n      dup2\n        /* \"Polls.sol\":12325:12338  length > 1000 */\n      gt\n        /* \"Polls.sol\":12321:12368  if (length > 1000) revert DescriptionTooLarge() */\n      iszero\n      tag_414\n      jumpi\n        /* \"Polls.sol\":12347:12368  DescriptionTooLarge() */\n      mload(0x40)\n      shl(0xe0, 0x1b0fce83)\n      dup2\n      mstore\n      0x04\n      add\n      mload(0x40)\n      dup1\n      swap2\n      sub\n      swap1\n      revert\n        /* \"Polls.sol\":12384:12609  function validateTimes(uint256 _startsAt, uint256 _endsAt) internal view {... */\n    tag_120:\n        /* \"Polls.sol\":12484:12499  block.timestamp */\n      timestamp\n        /* \"Polls.sol\":12472:12481  _startsAt */\n      dup3\n        /* \"Polls.sol\":12472:12499  _startsAt < block.timestamp */\n      lt\n        /* \"Polls.sol\":12468:12534  if (_startsAt < block.timestamp) revert PollMustStartInTheFuture() */\n      iszero\n      tag_420\n      jumpi\n        /* \"Polls.sol\":12508:12534  PollMustStartInTheFuture() */\n      mload(0x40)\n      shl(0xe0, 0x3eb2d8c5)\n      dup2\n      mstore\n      0x04\n      add\n      mload(0x40)\n      dup1\n      swap2\n      sub\n      swap1\n      revert\n        /* \"Polls.sol\":12468:12534  if (_startsAt < block.timestamp) revert PollMustStartInTheFuture() */\n    tag_420:\n        /* \"Polls.sol\":12560:12569  _startsAt */\n      dup2\n        /* \"Polls.sol\":12549:12556  _endsAt */\n      dup2\n        /* \"Polls.sol\":12549:12569  _endsAt <= _startsAt */\n      gt\n        /* \"Polls.sol\":12545:12601  if (_endsAt <= _startsAt) revert PollMustEndAfterStart() */\n      tag_421\n      jumpi\n        /* \"Polls.sol\":12578:12601  PollMustEndAfterStart() */\n      mload(0x40)\n      shl(0xe1, 0x71f32861)\n      dup2\n      mstore\n      0x04\n      add\n      mload(0x40)\n      dup1\n      swap2\n      sub\n      swap1\n      revert\n        /* \"Polls.sol\":12545:12601  if (_endsAt <= _startsAt) revert PollMustEndAfterStart() */\n    tag_421:\n        /* \"Polls.sol\":12384:12609  function validateTimes(uint256 _startsAt, uint256 _endsAt) internal view {... */\n      pop\n      pop\n      jump\t// out\n        /* \"Polls.sol\":12617:13141  function validateOptions(string[] calldata _options) internal pure {... */\n    tag_122:\n        /* \"Polls.sol\":12719:12727  _options */\n      dup1\n        /* \"Polls.sol\":12765:12766  2 */\n      0x02\n        /* \"Polls.sol\":12749:12766  optionsLength < 2 */\n      dup2\n      lt\n        /* \"Polls.sol\":12745:12806  if (optionsLength < 2) revert PollMustHaveAtLeastTwoOptions() */\n      iszero\n      tag_423\n      jumpi\n        /* \"Polls.sol\":12775:12806  PollMustHaveAtLeastTwoOptions() */\n      mload(0x40)\n      shl(0xe0, 0x8ee5f57d)\n      dup2\n      mstore\n      0x04\n      add\n      mload(0x40)\n      dup1\n      swap2\n      sub\n      swap1\n      revert\n        /* \"Polls.sol\":12745:12806  if (optionsLength < 2) revert PollMustHaveAtLeastTwoOptions() */\n    tag_423:\n        /* \"Polls.sol\":12837:12839  10 */\n      0x0a\n        /* \"Polls.sol\":12821:12834  optionsLength */\n      dup2\n        /* \"Polls.sol\":12821:12839  optionsLength > 10 */\n      gt\n        /* \"Polls.sol\":12817:12878  if (optionsLength > 10) revert PollMustHaveAtMostTenOptions() */\n      iszero\n      tag_424\n      jumpi\n        /* \"Polls.sol\":12848:12878  PollMustHaveAtMostTenOptions() */\n      mload(0x40)\n      shl(0xe1, 0x701d39f1)\n      dup2\n      mstore\n      0x04\n      add\n      mload(0x40)\n      dup1\n      swap2\n      sub\n      swap1\n      revert\n        /* \"Polls.sol\":12817:12878  if (optionsLength > 10) revert PollMustHaveAtMostTenOptions() */\n    tag_424:\n        /* \"Polls.sol\":12896:12905  uint256 i */\n      0x00\n        /* \"Polls.sol\":12891:13134  for (uint256 i = 0; i < optionsLength; ++i) {... */\n    tag_425:\n        /* \"Polls.sol\":12915:12928  optionsLength */\n      dup2\n        /* \"Polls.sol\":12911:12912  i */\n      dup2\n        /* \"Polls.sol\":12911:12928  i < optionsLength */\n      lt\n        /* \"Polls.sol\":12891:13134  for (uint256 i = 0; i < optionsLength; ++i) {... */\n      iszero\n      tag_426\n      jumpi\n        /* \"Polls.sol\":12950:12970  uint256 optionLength */\n      0x00\n        /* \"Polls.sol\":12979:12987  _options */\n      dup5\n      dup5\n        /* \"Polls.sol\":12988:12989  i */\n      dup4\n        /* \"Polls.sol\":12979:12990  _options[i] */\n      dup2\n      dup2\n      lt\n      tag_429\n      jumpi\n      tag_429\n      tag_140\n      jump\t// in\n    tag_429:\n      swap1\n      pop\n      0x20\n      mul\n      dup2\n      add\n      swap1\n      tag_430\n      swap2\n      swap1\n      tag_142\n      jump\t// in\n    tag_430:\n        /* \"Polls.sol\":12973:12998  bytes(_options[i]).length */\n      swap2\n      pop\n      pop\n        /* \"Polls.sol\":13032:13033  1 */\n      0x01\n        /* \"Polls.sol\":13017:13033  optionLength < 1 */\n      dup2\n      lt\n        /* \"Polls.sol\":13013:13059  if (optionLength < 1) revert OptionTooShort(i) */\n      iszero\n      tag_431\n      jumpi\n        /* \"Polls.sol\":13042:13059  OptionTooShort(i) */\n      mload(0x40)\n      shl(0xe1, 0x23bae5c5)\n      dup2\n      mstore\n      0x04\n      dup2\n      add\n        /* \"#utility.yul\":4937:4962   */\n      dup4\n      swap1\n      mstore\n        /* \"#utility.yul\":4910:4928   */\n      0x24\n      add\n        /* \"Polls.sol\":13042:13059  OptionTooShort(i) */\n      tag_362\n        /* \"#utility.yul\":4791:4968   */\n      jump\n        /* \"Polls.sol\":13013:13059  if (optionLength < 1) revert OptionTooShort(i) */\n    tag_431:\n        /* \"Polls.sol\":13093:13096  100 */\n      0x64\n        /* \"Polls.sol\":13078:13090  optionLength */\n      dup2\n        /* \"Polls.sol\":13078:13096  optionLength > 100 */\n      gt\n        /* \"Polls.sol\":13074:13122  if (optionLength > 100) revert OptionTooLarge(i) */\n      iszero\n      tag_433\n      jumpi\n        /* \"Polls.sol\":13105:13122  OptionTooLarge(i) */\n      mload(0x40)\n      shl(0xe2, 0x1e8a1825)\n      dup2\n      mstore\n      0x04\n      dup2\n      add\n        /* \"#utility.yul\":4937:4962   */\n      dup4\n      swap1\n      mstore\n        /* \"#utility.yul\":4910:4928   */\n      0x24\n      add\n        /* \"Polls.sol\":13105:13122  OptionTooLarge(i) */\n      tag_362\n        /* \"#utility.yul\":4791:4968   */\n      jump\n        /* \"Polls.sol\":13074:13122  if (optionLength > 100) revert OptionTooLarge(i) */\n    tag_433:\n      pop\n        /* \"Polls.sol\":12930:12933  ++i */\n      0x01\n      add\n        /* \"Polls.sol\":12891:13134  for (uint256 i = 0; i < optionsLength; ++i) {... */\n      jump(tag_425)\n    tag_426:\n      pop\n        /* \"Polls.sol\":12684:13141  {... */\n      pop\n        /* \"Polls.sol\":12617:13141  function validateOptions(string[] calldata _options) internal pure {... */\n      pop\n      pop\n      jump\t// out\n        /* \"Polls.sol\":13149:13428  function validateSettings(Settings calldata _settings) internal pure {... */\n    tag_124:\n        /* \"Polls.sol\":13247:13267  _settings.noDeadline */\n      tag_436\n      0x40\n      dup3\n      add\n      0x20\n      dup4\n      add\n      tag_130\n      jump\t// in\n    tag_436:\n        /* \"Polls.sol\":13247:13339  _settings.noDeadline &&... */\n      dup1\n      iszero\n      tag_437\n      jumpi\n      pop\n        /* \"Polls.sol\":13314:13339  ResultVisibility.AfterEnd */\n      0x02\n        /* \"Polls.sol\":13284:13310  _settings.resultVisibility */\n      tag_440\n      0x60\n      dup4\n      add\n      0x40\n      dup5\n      add\n      tag_441\n      jump\t// in\n    tag_440:\n        /* \"Polls.sol\":13284:13339  _settings.resultVisibility == ResultVisibility.AfterEnd */\n      0x03\n      dup2\n      gt\n      iszero\n      tag_443\n      jumpi\n      tag_443\n      tag_58\n      jump\t// in\n    tag_443:\n      eq\n        /* \"Polls.sol\":13247:13339  _settings.noDeadline &&... */\n    tag_437:\n        /* \"Polls.sol\":13229:13421  if (... */\n      iszero\n      tag_444\n      jumpi\n        /* \"Polls.sol\":13373:13409  PollResultVisibilitySettingInvalid() */\n      mload(0x40)\n      shl(0xe0, 0xdc2ca701)\n      dup2\n      mstore\n      0x04\n      add\n      mload(0x40)\n      dup1\n      swap2\n      sub\n      swap1\n      revert\n        /* \"Polls.sol\":13229:13421  if (... */\n    tag_444:\n        /* \"Polls.sol\":13149:13428  function validateSettings(Settings calldata _settings) internal pure {... */\n      pop\n      jump\t// out\n        /* \"Polls.sol\":11499:11901  function getStatus(Poll memory _poll) internal view returns (Status) {... */\n    tag_176:\n        /* \"Polls.sol\":11560:11566  Status */\n      0x00\n        /* \"Polls.sol\":11600:11615  block.timestamp */\n      timestamp\n        /* \"Polls.sol\":11583:11588  _poll */\n      dup3\n        /* \"Polls.sol\":11583:11597  _poll.startsAt */\n      0x40\n      add\n      mload\n        /* \"Polls.sol\":11583:11615  _poll.startsAt > block.timestamp */\n      gt\n        /* \"Polls.sol\":11579:11666  if (_poll.startsAt > block.timestamp) {... */\n      iszero\n      tag_446\n      jumpi\n      pop\n        /* \"Polls.sol\":11639:11654  Status.Upcoming */\n      0x00\n      swap2\n        /* \"Polls.sol\":11499:11901  function getStatus(Poll memory _poll) internal view returns (Status) {... */\n      swap1\n      pop\n      jump\t// out\n        /* \"Polls.sol\":11579:11666  if (_poll.startsAt > block.timestamp) {... */\n    tag_446:\n        /* \"Polls.sol\":11682:11687  _poll */\n      dup2\n        /* \"Polls.sol\":11682:11694  _poll.endsAt */\n      0x60\n      add\n      mload\n        /* \"Polls.sol\":11698:11699  1 */\n      0x01\n        /* \"Polls.sol\":11682:11699  _poll.endsAt == 1 */\n      sub\n        /* \"Polls.sol\":11678:11748  if (_poll.endsAt == 1) {... */\n      tag_447\n      jumpi\n      pop\n        /* \"Polls.sol\":11723:11736  Status.Closed */\n      0x03\n      swap2\n        /* \"Polls.sol\":11499:11901  function getStatus(Poll memory _poll) internal view returns (Status) {... */\n      swap1\n      pop\n      jump\t// out\n        /* \"Polls.sol\":11678:11748  if (_poll.endsAt == 1) {... */\n    tag_447:\n        /* \"Polls.sol\":11779:11780  1 */\n      0x01\n        /* \"Polls.sol\":11764:11769  _poll */\n      dup3\n        /* \"Polls.sol\":11764:11776  _poll.endsAt */\n      0x60\n      add\n      mload\n        /* \"Polls.sol\":11764:11780  _poll.endsAt > 1 */\n      gt\n        /* \"Polls.sol\":11764:11815  _poll.endsAt > 1 && _poll.endsAt <= block.timestamp */\n      dup1\n      iszero\n      tag_448\n      jumpi\n      pop\n        /* \"Polls.sol\":11800:11815  block.timestamp */\n      timestamp\n        /* \"Polls.sol\":11784:11789  _poll */\n      dup3\n        /* \"Polls.sol\":11784:11796  _poll.endsAt */\n      0x60\n      add\n      mload\n        /* \"Polls.sol\":11784:11815  _poll.endsAt <= block.timestamp */\n      gt\n      iszero\n        /* \"Polls.sol\":11764:11815  _poll.endsAt > 1 && _poll.endsAt <= block.timestamp */\n    tag_448:\n        /* \"Polls.sol\":11760:11863  if (_poll.endsAt > 1 && _poll.endsAt <= block.timestamp) {... */\n      iszero\n      tag_449\n      jumpi\n      pop\n        /* \"Polls.sol\":11839:11851  Status.Ended */\n      0x02\n      swap2\n        /* \"Polls.sol\":11499:11901  function getStatus(Poll memory _poll) internal view returns (Status) {... */\n      swap1\n      pop\n      jump\t// out\n        /* \"Polls.sol\":11760:11863  if (_poll.endsAt > 1 && _poll.endsAt <= block.timestamp) {... */\n    tag_449:\n      pop\n        /* \"Polls.sol\":11882:11893  Status.Open */\n      0x01\n      swap2\n        /* \"Polls.sol\":11499:11901  function getStatus(Poll memory _poll) internal view returns (Status) {... */\n      swap1\n      pop\n      jump\t// out\n    tag_202:\n      dup3\n      dup1\n      sload\n      dup3\n      dup3\n      sstore\n      swap1\n      0x00\n      mstore\n      keccak256(0x00, 0x20)\n      swap1\n      dup2\n      add\n      swap3\n      dup3\n      iszero\n      tag_452\n      jumpi\n      swap2\n      0x20\n      mul\n      dup3\n      add\n    tag_451:\n      dup3\n      dup2\n      gt\n      iszero\n      tag_452\n      jumpi\n      dup3\n      calldataload\n      dup3\n      sstore\n      swap2\n      0x20\n      add\n      swap2\n      swap1\n      0x01\n      add\n      swap1\n      jump(tag_451)\n    tag_452:\n      pop\n      tag_453\n      swap3\n      swap2\n      pop\n      tag_454\n      jump\t// in\n    tag_453:\n      pop\n      swap1\n      jump\t// out\n    tag_243:\n      mload(0x40)\n      dup1\n      0x01a0\n      add\n      0x40\n      mstore\n      dup1\n      and(sub(shl(0xa0, 0x01), 0x01), 0x00)\n      dup2\n      mstore\n      0x20\n      add\n      0x60\n      dup2\n      mstore\n      0x20\n      add\n      0x60\n      dup2\n      mstore\n      0x20\n      add\n      0x00\n      dup2\n      mstore\n      0x20\n      add\n      0x00\n      dup2\n      mstore\n      0x20\n      add\n      0x60\n      dup2\n      mstore\n      0x20\n      add\n      0x00\n      dup2\n      mstore\n      0x20\n      add\n      0x00\n      dup2\n      mstore\n      0x20\n      add\n      0x00\n      0x03\n      dup2\n      gt\n      iszero\n      tag_456\n      jumpi\n      tag_456\n      tag_58\n      jump\t// in\n    tag_456:\n      dup2\n      mstore\n      0x20\n      add\n      tag_457\n      0x40\n      dup1\n      mload\n      0x60\n      dup2\n      add\n      dup3\n      mstore\n      0x00\n      dup1\n      dup3\n      mstore\n      0x20\n      dup3\n      add\n      dup2\n      swap1\n      mstore\n      swap1\n      swap2\n      dup3\n      add\n      mstore\n      swap1\n      jump\n    tag_457:\n      dup2\n      mstore\n      0x20\n      add\n      iszero(iszero(0x00))\n      dup2\n      mstore\n      0x20\n      add\n      0x60\n      dup2\n      mstore\n      0x20\n      add\n      0x00\n      dup2\n      mstore\n      pop\n      swap1\n      jump\t// out\n    tag_313:\n      mload(0x40)\n      dup1\n      0x0120\n      add\n      0x40\n      mstore\n      dup1\n      and(sub(shl(0xa0, 0x01), 0x01), 0x00)\n      dup2\n      mstore\n      0x20\n      add\n      0x00\n      dup2\n      mstore\n      0x20\n      add\n      0x60\n      dup2\n      mstore\n      0x20\n      add\n      0x00\n      dup2\n      mstore\n      0x20\n      add\n      0x00\n      dup2\n      mstore\n      0x20\n      add\n      0x00\n      0x03\n      dup2\n      gt\n      iszero\n      tag_460\n      jumpi\n      tag_460\n      tag_58\n      jump\t// in\n    tag_460:\n      dup2\n      mstore\n      0x20\n      add\n      0x00\n      dup2\n      mstore\n      0x20\n      add\n      0x00\n      dup2\n      mstore\n      0x20\n      add\n      0x00\n      dup2\n      mstore\n      pop\n      swap1\n      jump\t// out\n    tag_454:\n    tag_461:\n      dup1\n      dup3\n      gt\n      iszero\n      tag_453\n      jumpi\n      0x00\n      dup2\n      sstore\n      0x01\n      add\n      jump(tag_461)\n        /* \"#utility.yul\":14:210   */\n    tag_465:\n        /* \"#utility.yul\":82:102   */\n      dup1\n      calldataload\n      sub(shl(0xa0, 0x01), 0x01)\n        /* \"#utility.yul\":131:185   */\n      dup2\n      and\n        /* \"#utility.yul\":121:186   */\n      dup2\n      eq\n        /* \"#utility.yul\":111:204   */\n      tag_483\n      jumpi\n        /* \"#utility.yul\":200:201   */\n      0x00\n        /* \"#utility.yul\":197:198   */\n      dup1\n        /* \"#utility.yul\":190:202   */\n      revert\n        /* \"#utility.yul\":111:204   */\n    tag_483:\n        /* \"#utility.yul\":14:210   */\n      swap2\n      swap1\n      pop\n      jump\t// out\n        /* \"#utility.yul\":215:469   */\n    tag_14:\n        /* \"#utility.yul\":283:289   */\n      0x00\n        /* \"#utility.yul\":291:297   */\n      dup1\n        /* \"#utility.yul\":344:346   */\n      0x40\n        /* \"#utility.yul\":332:341   */\n      dup4\n        /* \"#utility.yul\":323:330   */\n      dup6\n        /* \"#utility.yul\":319:342   */\n      sub\n        /* \"#utility.yul\":315:347   */\n      slt\n        /* \"#utility.yul\":312:364   */\n      iszero\n      tag_485\n      jumpi\n        /* \"#utility.yul\":360:361   */\n      0x00\n        /* \"#utility.yul\":357:358   */\n      dup1\n        /* \"#utility.yul\":350:362   */\n      revert\n        /* \"#utility.yul\":312:364   */\n    tag_485:\n        /* \"#utility.yul\":396:405   */\n      dup3\n        /* \"#utility.yul\":383:406   */\n      calldataload\n        /* \"#utility.yul\":373:406   */\n      swap2\n      pop\n        /* \"#utility.yul\":425:463   */\n      tag_486\n        /* \"#utility.yul\":459:461   */\n      0x20\n        /* \"#utility.yul\":448:457   */\n      dup5\n        /* \"#utility.yul\":444:462   */\n      add\n        /* \"#utility.yul\":425:463   */\n      tag_465\n      jump\t// in\n    tag_486:\n        /* \"#utility.yul\":415:463   */\n      swap1\n      pop\n        /* \"#utility.yul\":215:469   */\n      swap3\n      pop\n      swap3\n      swap1\n      pop\n      jump\t// out\n        /* \"#utility.yul\":474:763   */\n    tag_466:\n        /* \"#utility.yul\":516:519   */\n      0x00\n        /* \"#utility.yul\":554:559   */\n      dup2\n        /* \"#utility.yul\":548:560   */\n      mload\n        /* \"#utility.yul\":581:587   */\n      dup1\n        /* \"#utility.yul\":576:579   */\n      dup5\n        /* \"#utility.yul\":569:588   */\n      mstore\n        /* \"#utility.yul\":637:643   */\n      dup1\n        /* \"#utility.yul\":630:634   */\n      0x20\n        /* \"#utility.yul\":623:628   */\n      dup5\n        /* \"#utility.yul\":619:635   */\n      add\n        /* \"#utility.yul\":612:616   */\n      0x20\n        /* \"#utility.yul\":607:610   */\n      dup7\n        /* \"#utility.yul\":603:617   */\n      add\n        /* \"#utility.yul\":597:644   */\n      mcopy\n        /* \"#utility.yul\":689:690   */\n      0x00\n        /* \"#utility.yul\":682:686   */\n      0x20\n        /* \"#utility.yul\":673:679   */\n      dup3\n        /* \"#utility.yul\":668:671   */\n      dup7\n        /* \"#utility.yul\":664:680   */\n      add\n        /* \"#utility.yul\":660:687   */\n      add\n        /* \"#utility.yul\":653:691   */\n      mstore\n        /* \"#utility.yul\":752:756   */\n      0x20\n        /* \"#utility.yul\":745:747   */\n      0x1f\n        /* \"#utility.yul\":741:748   */\n      not\n        /* \"#utility.yul\":736:738   */\n      0x1f\n        /* \"#utility.yul\":728:734   */\n      dup4\n        /* \"#utility.yul\":724:739   */\n      add\n        /* \"#utility.yul\":720:749   */\n      and\n        /* \"#utility.yul\":715:718   */\n      dup6\n        /* \"#utility.yul\":711:750   */\n      add\n        /* \"#utility.yul\":707:757   */\n      add\n        /* \"#utility.yul\":700:757   */\n      swap2\n      pop\n      pop\n        /* \"#utility.yul\":474:763   */\n      swap3\n      swap2\n      pop\n      pop\n      jump\t// out\n        /* \"#utility.yul\":900:2512   */\n    tag_17:\n        /* \"#utility.yul\":1038:1042   */\n      0x00\n        /* \"#utility.yul\":1067:1069   */\n      0x20\n        /* \"#utility.yul\":1096:1098   */\n      dup1\n        /* \"#utility.yul\":1085:1094   */\n      dup4\n        /* \"#utility.yul\":1078:1099   */\n      mstore\n        /* \"#utility.yul\":1134:1140   */\n      dup4\n        /* \"#utility.yul\":1128:1141   */\n      mload\n        /* \"#utility.yul\":1177:1181   */\n      0xc0\n        /* \"#utility.yul\":1172:1174   */\n      dup3\n        /* \"#utility.yul\":1161:1170   */\n      dup6\n        /* \"#utility.yul\":1157:1175   */\n      add\n        /* \"#utility.yul\":1150:1182   */\n      mstore\n        /* \"#utility.yul\":1205:1257   */\n      tag_490\n        /* \"#utility.yul\":1252:1255   */\n      0xe0\n        /* \"#utility.yul\":1241:1250   */\n      dup6\n        /* \"#utility.yul\":1237:1256   */\n      add\n        /* \"#utility.yul\":1223:1235   */\n      dup3\n        /* \"#utility.yul\":1205:1257   */\n      tag_466\n      jump\t// in\n    tag_490:\n        /* \"#utility.yul\":1191:1257   */\n      swap1\n      pop\n        /* \"#utility.yul\":1306:1308   */\n      dup2\n        /* \"#utility.yul\":1298:1304   */\n      dup6\n        /* \"#utility.yul\":1294:1309   */\n      add\n        /* \"#utility.yul\":1288:1310   */\n      mload\n        /* \"#utility.yul\":1329:1331   */\n      0x40\n      sub(shl(0xa0, 0x01), 0x01)\n        /* \"#utility.yul\":1371:1385   */\n      dup3\n        /* \"#utility.yul\":1367:1430   */\n      and\n        /* \"#utility.yul\":1362:1364   */\n      0x40\n        /* \"#utility.yul\":1351:1360   */\n      dup8\n        /* \"#utility.yul\":1347:1365   */\n      add\n        /* \"#utility.yul\":1340:1431   */\n      mstore\n        /* \"#utility.yul\":1485:1487   */\n      0x40\n        /* \"#utility.yul\":1477:1483   */\n      dup8\n        /* \"#utility.yul\":1473:1488   */\n      add\n        /* \"#utility.yul\":1467:1489   */\n      mload\n        /* \"#utility.yul\":1462:1464   */\n      0x60\n        /* \"#utility.yul\":1451:1460   */\n      dup8\n        /* \"#utility.yul\":1447:1465   */\n      add\n        /* \"#utility.yul\":1440:1490   */\n      mstore\n        /* \"#utility.yul\":1545:1547   */\n      0x60\n        /* \"#utility.yul\":1537:1543   */\n      dup8\n        /* \"#utility.yul\":1533:1548   */\n      add\n        /* \"#utility.yul\":1527:1549   */\n      mload\n        /* \"#utility.yul\":1521:1524   */\n      0x80\n        /* \"#utility.yul\":1510:1519   */\n      dup8\n        /* \"#utility.yul\":1506:1525   */\n      add\n        /* \"#utility.yul\":1499:1550   */\n      mstore\n        /* \"#utility.yul\":1599:1602   */\n      0x80\n        /* \"#utility.yul\":1591:1597   */\n      dup8\n        /* \"#utility.yul\":1587:1603   */\n      add\n        /* \"#utility.yul\":1581:1604   */\n      mload\n        /* \"#utility.yul\":1559:1604   */\n      swap2\n      pop\n        /* \"#utility.yul\":1627:1629   */\n      0x1f\n        /* \"#utility.yul\":1623:1630   */\n      not\n        /* \"#utility.yul\":1695:1697   */\n      dup1\n        /* \"#utility.yul\":1683:1692   */\n      dup8\n        /* \"#utility.yul\":1675:1681   */\n      dup6\n        /* \"#utility.yul\":1671:1693   */\n      sub\n        /* \"#utility.yul\":1667:1698   */\n      add\n        /* \"#utility.yul\":1661:1664   */\n      0xa0\n        /* \"#utility.yul\":1650:1659   */\n      dup9\n        /* \"#utility.yul\":1646:1665   */\n      add\n        /* \"#utility.yul\":1639:1699   */\n      mstore\n        /* \"#utility.yul\":1719:1725   */\n      dup4\n        /* \"#utility.yul\":1754:1768   */\n      dup4\n        /* \"#utility.yul\":1748:1769   */\n      mload\n        /* \"#utility.yul\":1793:1799   */\n      dup1\n        /* \"#utility.yul\":1785:1791   */\n      dup7\n        /* \"#utility.yul\":1778:1800   */\n      mstore\n        /* \"#utility.yul\":1828:1830   */\n      dup7\n        /* \"#utility.yul\":1820:1826   */\n      dup7\n        /* \"#utility.yul\":1816:1831   */\n      add\n        /* \"#utility.yul\":1809:1831   */\n      swap2\n      pop\n        /* \"#utility.yul\":1887:1889   */\n      dup7\n        /* \"#utility.yul\":1877:1883   */\n      dup2\n        /* \"#utility.yul\":1874:1875   */\n      0x05\n        /* \"#utility.yul\":1870:1884   */\n      shl\n        /* \"#utility.yul\":1862:1868   */\n      dup8\n        /* \"#utility.yul\":1858:1885   */\n      add\n        /* \"#utility.yul\":1854:1890   */\n      add\n        /* \"#utility.yul\":1933:1935   */\n      dup8\n        /* \"#utility.yul\":1917:1931   */\n      dup7\n        /* \"#utility.yul\":1913:1936   */\n      add\n        /* \"#utility.yul\":1899:1936   */\n      swap6\n      pop\n        /* \"#utility.yul\":1954:1955   */\n      0x00\n        /* \"#utility.yul\":1964:2421   */\n    tag_491:\n        /* \"#utility.yul\":1978:1984   */\n      dup3\n        /* \"#utility.yul\":1975:1976   */\n      dup2\n        /* \"#utility.yul\":1972:1985   */\n      lt\n        /* \"#utility.yul\":1964:2421   */\n      iszero\n      tag_493\n      jumpi\n        /* \"#utility.yul\":2064:2066   */\n      dup5\n        /* \"#utility.yul\":2055:2061   */\n      dup9\n        /* \"#utility.yul\":2047:2053   */\n      dup4\n        /* \"#utility.yul\":2043:2062   */\n      sub\n        /* \"#utility.yul\":2039:2067   */\n      add\n        /* \"#utility.yul\":2034:2037   */\n      dup5\n        /* \"#utility.yul\":2027:2068   */\n      mstore\n        /* \"#utility.yul\":2097:2103   */\n      dup7\n        /* \"#utility.yul\":2091:2104   */\n      mload\n        /* \"#utility.yul\":2145:2147   */\n      dup1\n        /* \"#utility.yul\":2139:2148   */\n      mload\n        /* \"#utility.yul\":2176:2178   */\n      dup8\n        /* \"#utility.yul\":2168:2174   */\n      dup5\n        /* \"#utility.yul\":2161:2179   */\n      mstore\n        /* \"#utility.yul\":2206:2256   */\n      tag_494\n        /* \"#utility.yul\":2252:2254   */\n      dup9\n        /* \"#utility.yul\":2244:2250   */\n      dup6\n        /* \"#utility.yul\":2240:2255   */\n      add\n        /* \"#utility.yul\":2224:2238   */\n      dup3\n        /* \"#utility.yul\":2206:2256   */\n      tag_466\n      jump\t// in\n    tag_494:\n        /* \"#utility.yul\":2299:2310   */\n      swap2\n      dup12\n      add\n        /* \"#utility.yul\":2293:2311   */\n      mload\n        /* \"#utility.yul\":2276:2291   */\n      swap4\n      dup12\n      add\n        /* \"#utility.yul\":2269:2312   */\n      swap4\n      swap1\n      swap4\n      mstore\n        /* \"#utility.yul\":2364:2379   */\n      swap7\n      dup10\n      add\n      swap7\n        /* \"#utility.yul\":2399:2411   */\n      swap4\n      dup10\n      add\n      swap4\n        /* \"#utility.yul\":2192:2256   */\n      swap2\n      pop\n        /* \"#utility.yul\":2000:2001   */\n      0x01\n        /* \"#utility.yul\":1993:2002   */\n      add\n        /* \"#utility.yul\":1964:2421   */\n      jump(tag_491)\n    tag_493:\n        /* \"#utility.yul\":1968:1971   */\n      pop\n        /* \"#utility.yul\":2477:2480   */\n      0xa0\n        /* \"#utility.yul\":2469:2475   */\n      dup12\n        /* \"#utility.yul\":2465:2481   */\n      add\n        /* \"#utility.yul\":2459:2482   */\n      mload\n        /* \"#utility.yul\":2452:2456   */\n      0xc0\n        /* \"#utility.yul\":2441:2450   */\n      dup12\n        /* \"#utility.yul\":2437:2457   */\n      add\n        /* \"#utility.yul\":2430:2483   */\n      mstore\n        /* \"#utility.yul\":2500:2506   */\n      dup1\n        /* \"#utility.yul\":2492:2506   */\n      swap9\n      pop\n      pop\n      pop\n      pop\n      pop\n      pop\n      pop\n      pop\n      pop\n        /* \"#utility.yul\":900:2512   */\n      swap3\n      swap2\n      pop\n      pop\n      jump\t// out\n        /* \"#utility.yul\":2517:2697   */\n    tag_20:\n        /* \"#utility.yul\":2576:2582   */\n      0x00\n        /* \"#utility.yul\":2629:2631   */\n      0x20\n        /* \"#utility.yul\":2617:2626   */\n      dup3\n        /* \"#utility.yul\":2608:2615   */\n      dup5\n        /* \"#utility.yul\":2604:2627   */\n      sub\n        /* \"#utility.yul\":2600:2632   */\n      slt\n        /* \"#utility.yul\":2597:2649   */\n      iszero\n      tag_496\n      jumpi\n        /* \"#utility.yul\":2645:2646   */\n      0x00\n        /* \"#utility.yul\":2642:2643   */\n      dup1\n        /* \"#utility.yul\":2635:2647   */\n      revert\n        /* \"#utility.yul\":2597:2649   */\n    tag_496:\n      pop\n        /* \"#utility.yul\":2668:2691   */\n      calldataload\n      swap2\n        /* \"#utility.yul\":2517:2697   */\n      swap1\n      pop\n      jump\t// out\n        /* \"#utility.yul\":2702:3050   */\n    tag_468:\n        /* \"#utility.yul\":2754:2762   */\n      0x00\n        /* \"#utility.yul\":2764:2770   */\n      dup1\n        /* \"#utility.yul\":2818:2821   */\n      dup4\n        /* \"#utility.yul\":2811:2815   */\n      0x1f\n        /* \"#utility.yul\":2803:2809   */\n      dup5\n        /* \"#utility.yul\":2799:2816   */\n      add\n        /* \"#utility.yul\":2795:2822   */\n      slt\n        /* \"#utility.yul\":2785:2840   */\n      tag_498\n      jumpi\n        /* \"#utility.yul\":2836:2837   */\n      0x00\n        /* \"#utility.yul\":2833:2834   */\n      dup1\n        /* \"#utility.yul\":2826:2838   */\n      revert\n        /* \"#utility.yul\":2785:2840   */\n    tag_498:\n      pop\n        /* \"#utility.yul\":2859:2879   */\n      dup2\n      calldataload\n        /* \"#utility.yul\":2902:2920   */\n      0xffffffffffffffff\n        /* \"#utility.yul\":2891:2921   */\n      dup2\n      gt\n        /* \"#utility.yul\":2888:2938   */\n      iszero\n      tag_499\n      jumpi\n        /* \"#utility.yul\":2934:2935   */\n      0x00\n        /* \"#utility.yul\":2931:2932   */\n      dup1\n        /* \"#utility.yul\":2924:2936   */\n      revert\n        /* \"#utility.yul\":2888:2938   */\n    tag_499:\n        /* \"#utility.yul\":2971:2975   */\n      0x20\n        /* \"#utility.yul\":2963:2969   */\n      dup4\n        /* \"#utility.yul\":2959:2976   */\n      add\n        /* \"#utility.yul\":2947:2976   */\n      swap2\n      pop\n        /* \"#utility.yul\":3023:3026   */\n      dup4\n        /* \"#utility.yul\":3016:3020   */\n      0x20\n        /* \"#utility.yul\":3007:3013   */\n      dup3\n        /* \"#utility.yul\":2999:3005   */\n      dup6\n        /* \"#utility.yul\":2995:3014   */\n      add\n        /* \"#utility.yul\":2991:3021   */\n      add\n        /* \"#utility.yul\":2988:3027   */\n      gt\n        /* \"#utility.yul\":2985:3044   */\n      iszero\n      tag_500\n      jumpi\n        /* \"#utility.yul\":3040:3041   */\n      0x00\n        /* \"#utility.yul\":3037:3038   */\n      dup1\n        /* \"#utility.yul\":3030:3042   */\n      revert\n        /* \"#utility.yul\":2985:3044   */\n    tag_500:\n        /* \"#utility.yul\":2702:3050   */\n      swap3\n      pop\n      swap3\n      swap1\n      pop\n      jump\t// out\n        /* \"#utility.yul\":3055:3430   */\n    tag_469:\n        /* \"#utility.yul\":3126:3134   */\n      0x00\n        /* \"#utility.yul\":3136:3142   */\n      dup1\n        /* \"#utility.yul\":3190:3193   */\n      dup4\n        /* \"#utility.yul\":3183:3187   */\n      0x1f\n        /* \"#utility.yul\":3175:3181   */\n      dup5\n        /* \"#utility.yul\":3171:3188   */\n      add\n        /* \"#utility.yul\":3167:3194   */\n      slt\n        /* \"#utility.yul\":3157:3212   */\n      tag_502\n      jumpi\n        /* \"#utility.yul\":3208:3209   */\n      0x00\n        /* \"#utility.yul\":3205:3206   */\n      dup1\n        /* \"#utility.yul\":3198:3210   */\n      revert\n        /* \"#utility.yul\":3157:3212   */\n    tag_502:\n      pop\n        /* \"#utility.yul\":3231:3251   */\n      dup2\n      calldataload\n        /* \"#utility.yul\":3274:3292   */\n      0xffffffffffffffff\n        /* \"#utility.yul\":3263:3293   */\n      dup2\n      gt\n        /* \"#utility.yul\":3260:3310   */\n      iszero\n      tag_503\n      jumpi\n        /* \"#utility.yul\":3306:3307   */\n      0x00\n        /* \"#utility.yul\":3303:3304   */\n      dup1\n        /* \"#utility.yul\":3296:3308   */\n      revert\n        /* \"#utility.yul\":3260:3310   */\n    tag_503:\n        /* \"#utility.yul\":3343:3347   */\n      0x20\n        /* \"#utility.yul\":3335:3341   */\n      dup4\n        /* \"#utility.yul\":3331:3348   */\n      add\n        /* \"#utility.yul\":3319:3348   */\n      swap2\n      pop\n        /* \"#utility.yul\":3403:3406   */\n      dup4\n        /* \"#utility.yul\":3396:3400   */\n      0x20\n        /* \"#utility.yul\":3386:3392   */\n      dup3\n        /* \"#utility.yul\":3383:3384   */\n      0x05\n        /* \"#utility.yul\":3379:3393   */\n      shl\n        /* \"#utility.yul\":3371:3377   */\n      dup6\n        /* \"#utility.yul\":3367:3394   */\n      add\n        /* \"#utility.yul\":3363:3401   */\n      add\n        /* \"#utility.yul\":3360:3407   */\n      gt\n        /* \"#utility.yul\":3357:3424   */\n      iszero\n      tag_500\n      jumpi\n        /* \"#utility.yul\":3420:3421   */\n      0x00\n        /* \"#utility.yul\":3417:3418   */\n      dup1\n        /* \"#utility.yul\":3410:3422   */\n      revert\n        /* \"#utility.yul\":3435:4786   */\n    tag_24:\n        /* \"#utility.yul\":3628:3634   */\n      0x00\n        /* \"#utility.yul\":3636:3642   */\n      dup1\n        /* \"#utility.yul\":3644:3650   */\n      0x00\n        /* \"#utility.yul\":3652:3658   */\n      dup1\n        /* \"#utility.yul\":3660:3666   */\n      0x00\n        /* \"#utility.yul\":3668:3674   */\n      dup1\n        /* \"#utility.yul\":3676:3682   */\n      0x00\n        /* \"#utility.yul\":3684:3690   */\n      dup1\n        /* \"#utility.yul\":3692:3698   */\n      0x00\n        /* \"#utility.yul\":3736:3745   */\n      dup10\n        /* \"#utility.yul\":3727:3734   */\n      dup12\n        /* \"#utility.yul\":3723:3746   */\n      sub\n        /* \"#utility.yul\":3766:3769   */\n      0x0100\n        /* \"#utility.yul\":3762:3764   */\n      dup2\n        /* \"#utility.yul\":3758:3770   */\n      slt\n        /* \"#utility.yul\":3755:3787   */\n      iszero\n      tag_506\n      jumpi\n        /* \"#utility.yul\":3783:3784   */\n      0x00\n        /* \"#utility.yul\":3780:3781   */\n      dup1\n        /* \"#utility.yul\":3773:3785   */\n      revert\n        /* \"#utility.yul\":3755:3787   */\n    tag_506:\n        /* \"#utility.yul\":3823:3832   */\n      dup11\n        /* \"#utility.yul\":3810:3833   */\n      calldataload\n        /* \"#utility.yul\":3852:3870   */\n      0xffffffffffffffff\n        /* \"#utility.yul\":3893:3895   */\n      dup1\n        /* \"#utility.yul\":3885:3891   */\n      dup3\n        /* \"#utility.yul\":3882:3896   */\n      gt\n        /* \"#utility.yul\":3879:3913   */\n      iszero\n      tag_507\n      jumpi\n        /* \"#utility.yul\":3909:3910   */\n      0x00\n        /* \"#utility.yul\":3906:3907   */\n      dup1\n        /* \"#utility.yul\":3899:3911   */\n      revert\n        /* \"#utility.yul\":3879:3913   */\n    tag_507:\n        /* \"#utility.yul\":3948:4007   */\n      tag_508\n        /* \"#utility.yul\":3999:4006   */\n      dup15\n        /* \"#utility.yul\":3990:3996   */\n      dup4\n        /* \"#utility.yul\":3979:3988   */\n      dup16\n        /* \"#utility.yul\":3975:3997   */\n      add\n        /* \"#utility.yul\":3948:4007   */\n      tag_468\n      jump\t// in\n    tag_508:\n        /* \"#utility.yul\":4026:4034   */\n      swap1\n      swap13\n      pop\n        /* \"#utility.yul\":3922:4007   */\n      swap11\n      pop\n        /* \"#utility.yul\":4114:4116   */\n      0x20\n        /* \"#utility.yul\":4099:4117   */\n      dup14\n      add\n        /* \"#utility.yul\":4086:4118   */\n      calldataload\n      swap2\n      pop\n        /* \"#utility.yul\":4130:4146   */\n      dup1\n      dup3\n      gt\n        /* \"#utility.yul\":4127:4163   */\n      iszero\n      tag_509\n      jumpi\n        /* \"#utility.yul\":4159:4160   */\n      0x00\n        /* \"#utility.yul\":4156:4157   */\n      dup1\n        /* \"#utility.yul\":4149:4161   */\n      revert\n        /* \"#utility.yul\":4127:4163   */\n    tag_509:\n        /* \"#utility.yul\":4198:4259   */\n      tag_510\n        /* \"#utility.yul\":4251:4258   */\n      dup15\n        /* \"#utility.yul\":4240:4248   */\n      dup4\n        /* \"#utility.yul\":4229:4238   */\n      dup16\n        /* \"#utility.yul\":4225:4249   */\n      add\n        /* \"#utility.yul\":4198:4259   */\n      tag_468\n      jump\t// in\n    tag_510:\n        /* \"#utility.yul\":4278:4286   */\n      swap1\n      swap11\n      pop\n        /* \"#utility.yul\":4172:4259   */\n      swap9\n      pop\n        /* \"#utility.yul\":4360:4362   */\n      0x40\n        /* \"#utility.yul\":4345:4363   */\n      dup14\n      add\n        /* \"#utility.yul\":4332:4364   */\n      calldataload\n      swap8\n      pop\n        /* \"#utility.yul\":4411:4413   */\n      0x60\n        /* \"#utility.yul\":4396:4414   */\n      dup14\n      add\n        /* \"#utility.yul\":4383:4415   */\n      calldataload\n      swap7\n      pop\n        /* \"#utility.yul\":4468:4471   */\n      0x80\n        /* \"#utility.yul\":4453:4472   */\n      dup14\n      add\n        /* \"#utility.yul\":4440:4473   */\n      calldataload\n      swap2\n      pop\n        /* \"#utility.yul\":4485:4501   */\n      dup1\n      dup3\n      gt\n        /* \"#utility.yul\":4482:4518   */\n      iszero\n      tag_511\n      jumpi\n        /* \"#utility.yul\":4514:4515   */\n      0x00\n        /* \"#utility.yul\":4511:4512   */\n      dup1\n        /* \"#utility.yul\":4504:4516   */\n      revert\n        /* \"#utility.yul\":4482:4518   */\n    tag_511:\n      pop\n        /* \"#utility.yul\":4553:4633   */\n      tag_512\n        /* \"#utility.yul\":4625:4632   */\n      dup14\n        /* \"#utility.yul\":4614:4622   */\n      dup3\n        /* \"#utility.yul\":4603:4612   */\n      dup15\n        /* \"#utility.yul\":4599:4623   */\n      add\n        /* \"#utility.yul\":4553:4633   */\n      tag_469\n      jump\t// in\n    tag_512:\n        /* \"#utility.yul\":4652:4660   */\n      swap1\n      swap6\n      pop\n        /* \"#utility.yul\":4527:4633   */\n      swap4\n      pop\n      pop\n        /* \"#utility.yul\":4722:4724   */\n      0x60\n      not(0x9f)\n        /* \"#utility.yul\":4703:4720   */\n      dup3\n      add\n        /* \"#utility.yul\":4699:4725   */\n      slt\n        /* \"#utility.yul\":4696:4742   */\n      iszero\n      tag_513\n      jumpi\n        /* \"#utility.yul\":4738:4739   */\n      0x00\n        /* \"#utility.yul\":4735:4736   */\n      dup1\n        /* \"#utility.yul\":4728:4740   */\n      revert\n        /* \"#utility.yul\":4696:4742   */\n    tag_513:\n      pop\n        /* \"#utility.yul\":4776:4779   */\n      0xa0\n        /* \"#utility.yul\":4765:4774   */\n      dup11\n        /* \"#utility.yul\":4761:4780   */\n      add\n        /* \"#utility.yul\":4751:4780   */\n      swap1\n      pop\n        /* \"#utility.yul\":3435:4786   */\n      swap3\n      swap6\n      swap9\n      pop\n      swap3\n      swap6\n      swap9\n      pop\n      swap3\n      swap6\n      swap9\n      jump\t// out\n        /* \"#utility.yul\":4973:5486   */\n    tag_30:\n        /* \"#utility.yul\":5068:5074   */\n      0x00\n        /* \"#utility.yul\":5076:5082   */\n      dup1\n        /* \"#utility.yul\":5084:5090   */\n      0x00\n        /* \"#utility.yul\":5137:5139   */\n      0x40\n        /* \"#utility.yul\":5125:5134   */\n      dup5\n        /* \"#utility.yul\":5116:5123   */\n      dup7\n        /* \"#utility.yul\":5112:5135   */\n      sub\n        /* \"#utility.yul\":5108:5140   */\n      slt\n        /* \"#utility.yul\":5105:5157   */\n      iszero\n      tag_516\n      jumpi\n        /* \"#utility.yul\":5153:5154   */\n      0x00\n        /* \"#utility.yul\":5150:5151   */\n      dup1\n        /* \"#utility.yul\":5143:5155   */\n      revert\n        /* \"#utility.yul\":5105:5157   */\n    tag_516:\n        /* \"#utility.yul\":5189:5198   */\n      dup4\n        /* \"#utility.yul\":5176:5199   */\n      calldataload\n        /* \"#utility.yul\":5166:5199   */\n      swap3\n      pop\n        /* \"#utility.yul\":5250:5252   */\n      0x20\n        /* \"#utility.yul\":5239:5248   */\n      dup5\n        /* \"#utility.yul\":5235:5253   */\n      add\n        /* \"#utility.yul\":5222:5254   */\n      calldataload\n        /* \"#utility.yul\":5277:5295   */\n      0xffffffffffffffff\n        /* \"#utility.yul\":5269:5275   */\n      dup2\n        /* \"#utility.yul\":5266:5296   */\n      gt\n        /* \"#utility.yul\":5263:5313   */\n      iszero\n      tag_517\n      jumpi\n        /* \"#utility.yul\":5309:5310   */\n      0x00\n        /* \"#utility.yul\":5306:5307   */\n      dup1\n        /* \"#utility.yul\":5299:5311   */\n      revert\n        /* \"#utility.yul\":5263:5313   */\n    tag_517:\n        /* \"#utility.yul\":5348:5426   */\n      tag_518\n        /* \"#utility.yul\":5418:5425   */\n      dup7\n        /* \"#utility.yul\":5409:5415   */\n      dup3\n        /* \"#utility.yul\":5398:5407   */\n      dup8\n        /* \"#utility.yul\":5394:5416   */\n      add\n        /* \"#utility.yul\":5348:5426   */\n      tag_469\n      jump\t// in\n    tag_518:\n        /* \"#utility.yul\":4973:5486   */\n      swap5\n      swap8\n        /* \"#utility.yul\":5445:5453   */\n      swap1\n      swap7\n      pop\n        /* \"#utility.yul\":5322:5426   */\n      swap4\n      swap5\n      pop\n      pop\n      pop\n      pop\n        /* \"#utility.yul\":4973:5486   */\n      jump\t// out\n        /* \"#utility.yul\":5491:5677   */\n    tag_34:\n        /* \"#utility.yul\":5550:5556   */\n      0x00\n        /* \"#utility.yul\":5603:5605   */\n      0x20\n        /* \"#utility.yul\":5591:5600   */\n      dup3\n        /* \"#utility.yul\":5582:5589   */\n      dup5\n        /* \"#utility.yul\":5578:5601   */\n      sub\n        /* \"#utility.yul\":5574:5606   */\n      slt\n        /* \"#utility.yul\":5571:5623   */\n      iszero\n      tag_520\n      jumpi\n        /* \"#utility.yul\":5619:5620   */\n      0x00\n        /* \"#utility.yul\":5616:5617   */\n      dup1\n        /* \"#utility.yul\":5609:5621   */\n      revert\n        /* \"#utility.yul\":5571:5623   */\n    tag_520:\n        /* \"#utility.yul\":5642:5671   */\n      tag_521\n        /* \"#utility.yul\":5661:5670   */\n      dup3\n        /* \"#utility.yul\":5642:5671   */\n      tag_465\n      jump\t// in\n    tag_521:\n        /* \"#utility.yul\":5632:5671   */\n      swap4\n        /* \"#utility.yul\":5491:5677   */\n      swap3\n      pop\n      pop\n      pop\n      jump\t// out\n        /* \"#utility.yul\":5986:6584   */\n    tag_470:\n        /* \"#utility.yul\":6038:6041   */\n      0x00\n        /* \"#utility.yul\":6069:6072   */\n      dup3\n        /* \"#utility.yul\":6101:6106   */\n      dup3\n        /* \"#utility.yul\":6095:6107   */\n      mload\n        /* \"#utility.yul\":6128:6134   */\n      dup1\n        /* \"#utility.yul\":6123:6126   */\n      dup6\n        /* \"#utility.yul\":6116:6135   */\n      mstore\n        /* \"#utility.yul\":6154:6158   */\n      0x20\n        /* \"#utility.yul\":6183:6187   */\n      dup1\n        /* \"#utility.yul\":6178:6181   */\n      dup7\n        /* \"#utility.yul\":6174:6188   */\n      add\n        /* \"#utility.yul\":6167:6188   */\n      swap6\n      pop\n        /* \"#utility.yul\":6241:6245   */\n      0x20\n        /* \"#utility.yul\":6231:6237   */\n      dup3\n        /* \"#utility.yul\":6228:6229   */\n      0x05\n        /* \"#utility.yul\":6224:6238   */\n      shl\n        /* \"#utility.yul\":6217:6222   */\n      dup5\n        /* \"#utility.yul\":6213:6239   */\n      add\n        /* \"#utility.yul\":6209:6246   */\n      add\n        /* \"#utility.yul\":6280:6284   */\n      0x20\n        /* \"#utility.yul\":6273:6278   */\n      dup7\n        /* \"#utility.yul\":6269:6285   */\n      add\n        /* \"#utility.yul\":6303:6304   */\n      0x00\n        /* \"#utility.yul\":6313:6558   */\n    tag_524:\n        /* \"#utility.yul\":6327:6333   */\n      dup5\n        /* \"#utility.yul\":6324:6325   */\n      dup2\n        /* \"#utility.yul\":6321:6334   */\n      lt\n        /* \"#utility.yul\":6313:6558   */\n      iszero\n      tag_526\n      jumpi\n        /* \"#utility.yul\":6414:6416   */\n      0x1f\n        /* \"#utility.yul\":6410:6417   */\n      not\n        /* \"#utility.yul\":6402:6407   */\n      dup7\n        /* \"#utility.yul\":6396:6400   */\n      dup5\n        /* \"#utility.yul\":6392:6408   */\n      sub\n        /* \"#utility.yul\":6388:6418   */\n      add\n        /* \"#utility.yul\":6383:6386   */\n      dup10\n        /* \"#utility.yul\":6376:6419   */\n      mstore\n        /* \"#utility.yul\":6440:6478   */\n      tag_527\n        /* \"#utility.yul\":6473:6477   */\n      dup4\n        /* \"#utility.yul\":6464:6470   */\n      dup4\n        /* \"#utility.yul\":6458:6471   */\n      mload\n        /* \"#utility.yul\":6440:6478   */\n      tag_466\n      jump\t// in\n    tag_527:\n        /* \"#utility.yul\":6536:6548   */\n      swap9\n      dup5\n      add\n      swap9\n        /* \"#utility.yul\":6432:6478   */\n      swap3\n      pop\n        /* \"#utility.yul\":6501:6516   */\n      swap1\n      dup4\n      add\n      swap1\n        /* \"#utility.yul\":6349:6350   */\n      0x01\n        /* \"#utility.yul\":6342:6351   */\n      add\n        /* \"#utility.yul\":6313:6558   */\n      jump(tag_524)\n    tag_526:\n      pop\n        /* \"#utility.yul\":6574:6578   */\n      swap1\n      swap8\n        /* \"#utility.yul\":5986:6584   */\n      swap7\n      pop\n      pop\n      pop\n      pop\n      pop\n      pop\n      pop\n      jump\t// out\n        /* \"#utility.yul\":6589:6716   */\n    tag_58:\n        /* \"#utility.yul\":6650:6660   */\n      0x4e487b71\n        /* \"#utility.yul\":6645:6648   */\n      0xe0\n        /* \"#utility.yul\":6641:6661   */\n      shl\n        /* \"#utility.yul\":6638:6639   */\n      0x00\n        /* \"#utility.yul\":6631:6662   */\n      mstore\n        /* \"#utility.yul\":6681:6685   */\n      0x21\n        /* \"#utility.yul\":6678:6679   */\n      0x04\n        /* \"#utility.yul\":6671:6686   */\n      mstore\n        /* \"#utility.yul\":6705:6709   */\n      0x24\n        /* \"#utility.yul\":6702:6703   */\n      0x00\n        /* \"#utility.yul\":6695:6710   */\n      revert\n        /* \"#utility.yul\":6721:6929   */\n    tag_471:\n        /* \"#utility.yul\":6800:6801   */\n      0x04\n        /* \"#utility.yul\":6793:6798   */\n      dup2\n        /* \"#utility.yul\":6790:6802   */\n      lt\n        /* \"#utility.yul\":6780:6923   */\n      tag_444\n      jumpi\n        /* \"#utility.yul\":6845:6855   */\n      0x4e487b71\n        /* \"#utility.yul\":6840:6843   */\n      0xe0\n        /* \"#utility.yul\":6836:6856   */\n      shl\n        /* \"#utility.yul\":6833:6834   */\n      0x00\n        /* \"#utility.yul\":6826:6857   */\n      mstore\n        /* \"#utility.yul\":6880:6884   */\n      0x21\n        /* \"#utility.yul\":6877:6878   */\n      0x04\n        /* \"#utility.yul\":6870:6885   */\n      mstore\n        /* \"#utility.yul\":6908:6912   */\n      0x24\n        /* \"#utility.yul\":6905:6906   */\n      0x00\n        /* \"#utility.yul\":6898:6913   */\n      revert\n        /* \"#utility.yul\":6934:7060   */\n    tag_472:\n        /* \"#utility.yul\":6992:7027   */\n      tag_532\n        /* \"#utility.yul\":7021:7026   */\n      dup2\n        /* \"#utility.yul\":6992:7027   */\n      tag_471\n      jump\t// in\n    tag_532:\n        /* \"#utility.yul\":7036:7054   */\n      swap1\n      mstore\n        /* \"#utility.yul\":6934:7060   */\n      jump\t// out\n        /* \"#utility.yul\":7161:7490   */\n    tag_474:\n        /* \"#utility.yul\":7255:7260   */\n      dup1\n        /* \"#utility.yul\":7249:7261   */\n      mload\n        /* \"#utility.yul\":7242:7262   */\n      iszero\n        /* \"#utility.yul\":7235:7263   */\n      iszero\n        /* \"#utility.yul\":7230:7233   */\n      dup3\n        /* \"#utility.yul\":7223:7264   */\n      mstore\n        /* \"#utility.yul\":7327:7331   */\n      0x20\n        /* \"#utility.yul\":7320:7325   */\n      dup2\n        /* \"#utility.yul\":7316:7332   */\n      add\n        /* \"#utility.yul\":7310:7333   */\n      mload\n        /* \"#utility.yul\":7303:7334   */\n      iszero\n        /* \"#utility.yul\":7296:7335   */\n      iszero\n        /* \"#utility.yul\":7289:7293   */\n      0x20\n        /* \"#utility.yul\":7284:7287   */\n      dup4\n        /* \"#utility.yul\":7280:7294   */\n      add\n        /* \"#utility.yul\":7273:7336   */\n      mstore\n        /* \"#utility.yul\":7382:7386   */\n      0x40\n        /* \"#utility.yul\":7375:7380   */\n      dup2\n        /* \"#utility.yul\":7371:7387   */\n      add\n        /* \"#utility.yul\":7365:7388   */\n      mload\n        /* \"#utility.yul\":7397:7439   */\n      tag_535\n        /* \"#utility.yul\":7426:7438   */\n      dup2\n        /* \"#utility.yul\":7397:7439   */\n      tag_471\n      jump\t// in\n    tag_535:\n        /* \"#utility.yul\":7471:7483   */\n      dup1\n        /* \"#utility.yul\":7464:7468   */\n      0x40\n        /* \"#utility.yul\":7459:7462   */\n      dup5\n        /* \"#utility.yul\":7455:7469   */\n      add\n        /* \"#utility.yul\":7448:7484   */\n      mstore\n      pop\n        /* \"#utility.yul\":7161:7490   */\n      pop\n      pop\n      jump\t// out\n        /* \"#utility.yul\":7495:7934   */\n    tag_475:\n        /* \"#utility.yul\":7548:7551   */\n      0x00\n        /* \"#utility.yul\":7586:7591   */\n      dup2\n        /* \"#utility.yul\":7580:7592   */\n      mload\n        /* \"#utility.yul\":7613:7619   */\n      dup1\n        /* \"#utility.yul\":7608:7611   */\n      dup5\n        /* \"#utility.yul\":7601:7620   */\n      mstore\n        /* \"#utility.yul\":7639:7643   */\n      0x20\n        /* \"#utility.yul\":7668:7672   */\n      dup1\n        /* \"#utility.yul\":7663:7666   */\n      dup6\n        /* \"#utility.yul\":7659:7673   */\n      add\n        /* \"#utility.yul\":7652:7673   */\n      swap5\n      pop\n        /* \"#utility.yul\":7707:7711   */\n      0x20\n        /* \"#utility.yul\":7700:7705   */\n      dup5\n        /* \"#utility.yul\":7696:7712   */\n      add\n        /* \"#utility.yul\":7730:7731   */\n      0x00\n        /* \"#utility.yul\":7740:7909   */\n    tag_537:\n        /* \"#utility.yul\":7754:7760   */\n      dup4\n        /* \"#utility.yul\":7751:7752   */\n      dup2\n        /* \"#utility.yul\":7748:7761   */\n      lt\n        /* \"#utility.yul\":7740:7909   */\n      iszero\n      tag_539\n      jumpi\n        /* \"#utility.yul\":7815:7828   */\n      dup2\n      mload\n        /* \"#utility.yul\":7803:7829   */\n      dup8\n      mstore\n        /* \"#utility.yul\":7849:7861   */\n      swap6\n      dup3\n      add\n      swap6\n        /* \"#utility.yul\":7884:7899   */\n      swap1\n      dup3\n      add\n      swap1\n        /* \"#utility.yul\":7776:7777   */\n      0x01\n        /* \"#utility.yul\":7769:7778   */\n      add\n        /* \"#utility.yul\":7740:7909   */\n      jump(tag_537)\n    tag_539:\n      pop\n        /* \"#utility.yul\":7925:7928   */\n      swap5\n      swap6\n        /* \"#utility.yul\":7495:7934   */\n      swap5\n      pop\n      pop\n      pop\n      pop\n      pop\n      jump\t// out\n        /* \"#utility.yul\":7939:9757   */\n    tag_45:\n        /* \"#utility.yul\":8114:8116   */\n      0x20\n        /* \"#utility.yul\":8103:8112   */\n      dup2\n        /* \"#utility.yul\":8096:8117   */\n      mstore\n        /* \"#utility.yul\":8126:8179   */\n      tag_541\n        /* \"#utility.yul\":8175:8177   */\n      0x20\n        /* \"#utility.yul\":8164:8173   */\n      dup3\n        /* \"#utility.yul\":8160:8178   */\n      add\n        /* \"#utility.yul\":8151:8157   */\n      dup4\n        /* \"#utility.yul\":8145:8158   */\n      mload\n      sub(shl(0xa0, 0x01), 0x01)\n        /* \"#utility.yul\":834:888   */\n      and\n        /* \"#utility.yul\":822:889   */\n      swap1\n      mstore\n        /* \"#utility.yul\":768:895   */\n      jump\n        /* \"#utility.yul\":8126:8179   */\n    tag_541:\n        /* \"#utility.yul\":8077:8081   */\n      0x00\n        /* \"#utility.yul\":8226:8228   */\n      0x20\n        /* \"#utility.yul\":8218:8224   */\n      dup4\n        /* \"#utility.yul\":8214:8229   */\n      add\n        /* \"#utility.yul\":8208:8230   */\n      mload\n        /* \"#utility.yul\":8249:8255   */\n      0x01e0\n        /* \"#utility.yul\":8291:8293   */\n      dup1\n        /* \"#utility.yul\":8286:8288   */\n      0x40\n        /* \"#utility.yul\":8275:8284   */\n      dup6\n        /* \"#utility.yul\":8271:8289   */\n      add\n        /* \"#utility.yul\":8264:8294   */\n      mstore\n        /* \"#utility.yul\":8317:8369   */\n      tag_542\n        /* \"#utility.yul\":8364:8367   */\n      0x0200\n        /* \"#utility.yul\":8353:8362   */\n      dup6\n        /* \"#utility.yul\":8349:8368   */\n      add\n        /* \"#utility.yul\":8335:8347   */\n      dup4\n        /* \"#utility.yul\":8317:8369   */\n      tag_466\n      jump\t// in\n    tag_542:\n        /* \"#utility.yul\":8303:8369   */\n      swap2\n      pop\n        /* \"#utility.yul\":8418:8420   */\n      0x40\n        /* \"#utility.yul\":8410:8416   */\n      dup6\n        /* \"#utility.yul\":8406:8421   */\n      add\n        /* \"#utility.yul\":8400:8422   */\n      mload\n        /* \"#utility.yul\":8445:8447   */\n      0x1f\n        /* \"#utility.yul\":8441:8448   */\n      not\n        /* \"#utility.yul\":8512:8514   */\n      dup1\n        /* \"#utility.yul\":8500:8509   */\n      dup7\n        /* \"#utility.yul\":8492:8498   */\n      dup6\n        /* \"#utility.yul\":8488:8510   */\n      sub\n        /* \"#utility.yul\":8484:8515   */\n      add\n        /* \"#utility.yul\":8479:8481   */\n      0x60\n        /* \"#utility.yul\":8468:8477   */\n      dup8\n        /* \"#utility.yul\":8464:8482   */\n      add\n        /* \"#utility.yul\":8457:8516   */\n      mstore\n        /* \"#utility.yul\":8539:8580   */\n      tag_543\n        /* \"#utility.yul\":8573:8579   */\n      dup5\n        /* \"#utility.yul\":8557:8571   */\n      dup4\n        /* \"#utility.yul\":8539:8580   */\n      tag_466\n      jump\t// in\n    tag_543:\n        /* \"#utility.yul\":8525:8580   */\n      swap4\n      pop\n        /* \"#utility.yul\":8635:8637   */\n      0x60\n        /* \"#utility.yul\":8627:8633   */\n      dup8\n        /* \"#utility.yul\":8623:8638   */\n      add\n        /* \"#utility.yul\":8617:8639   */\n      mload\n        /* \"#utility.yul\":8611:8614   */\n      0x80\n        /* \"#utility.yul\":8600:8609   */\n      dup8\n        /* \"#utility.yul\":8596:8615   */\n      add\n        /* \"#utility.yul\":8589:8640   */\n      mstore\n        /* \"#utility.yul\":8695:8698   */\n      0x80\n        /* \"#utility.yul\":8687:8693   */\n      dup8\n        /* \"#utility.yul\":8683:8699   */\n      add\n        /* \"#utility.yul\":8677:8700   */\n      mload\n        /* \"#utility.yul\":8671:8674   */\n      0xa0\n        /* \"#utility.yul\":8660:8669   */\n      dup8\n        /* \"#utility.yul\":8656:8675   */\n      add\n        /* \"#utility.yul\":8649:8701   */\n      mstore\n        /* \"#utility.yul\":8750:8753   */\n      0xa0\n        /* \"#utility.yul\":8742:8748   */\n      dup8\n        /* \"#utility.yul\":8738:8754   */\n      add\n        /* \"#utility.yul\":8732:8755   */\n      mload\n        /* \"#utility.yul\":8710:8755   */\n      swap2\n      pop\n        /* \"#utility.yul\":8820:8822   */\n      dup1\n        /* \"#utility.yul\":8808:8817   */\n      dup7\n        /* \"#utility.yul\":8800:8806   */\n      dup6\n        /* \"#utility.yul\":8796:8818   */\n      sub\n        /* \"#utility.yul\":8792:8823   */\n      add\n        /* \"#utility.yul\":8786:8789   */\n      0xc0\n        /* \"#utility.yul\":8775:8784   */\n      dup8\n        /* \"#utility.yul\":8771:8790   */\n      add\n        /* \"#utility.yul\":8764:8824   */\n      mstore\n        /* \"#utility.yul\":8847:8898   */\n      tag_544\n        /* \"#utility.yul\":8891:8897   */\n      dup5\n        /* \"#utility.yul\":8875:8889   */\n      dup4\n        /* \"#utility.yul\":8847:8898   */\n      tag_470\n      jump\t// in\n    tag_544:\n        /* \"#utility.yul\":8833:8898   */\n      swap4\n      pop\n        /* \"#utility.yul\":8953:8956   */\n      0xc0\n        /* \"#utility.yul\":8945:8951   */\n      dup8\n        /* \"#utility.yul\":8941:8957   */\n      add\n        /* \"#utility.yul\":8935:8958   */\n      mload\n        /* \"#utility.yul\":8929:8932   */\n      0xe0\n        /* \"#utility.yul\":8918:8927   */\n      dup8\n        /* \"#utility.yul\":8914:8933   */\n      add\n        /* \"#utility.yul\":8907:8959   */\n      mstore\n        /* \"#utility.yul\":8996:8999   */\n      0xe0\n        /* \"#utility.yul\":8988:8994   */\n      dup8\n        /* \"#utility.yul\":8984:9000   */\n      add\n        /* \"#utility.yul\":8978:9001   */\n      mload\n        /* \"#utility.yul\":8968:9001   */\n      swap2\n      pop\n        /* \"#utility.yul\":9020:9023   */\n      0x0100\n        /* \"#utility.yul\":9059:9061   */\n      dup3\n        /* \"#utility.yul\":9054:9056   */\n      dup2\n        /* \"#utility.yul\":9043:9052   */\n      dup9\n        /* \"#utility.yul\":9039:9057   */\n      add\n        /* \"#utility.yul\":9032:9062   */\n      mstore\n        /* \"#utility.yul\":9111:9113   */\n      dup1\n        /* \"#utility.yul\":9103:9109   */\n      dup9\n        /* \"#utility.yul\":9099:9114   */\n      add\n        /* \"#utility.yul\":9093:9115   */\n      mload\n        /* \"#utility.yul\":9071:9115   */\n      swap3\n      pop\n      pop\n        /* \"#utility.yul\":9134:9137   */\n      0x0120\n        /* \"#utility.yul\":9146:9204   */\n      tag_545\n        /* \"#utility.yul\":9200:9202   */\n      dup2\n        /* \"#utility.yul\":9189:9198   */\n      dup9\n        /* \"#utility.yul\":9185:9203   */\n      add\n        /* \"#utility.yul\":9169:9183   */\n      dup5\n        /* \"#utility.yul\":9146:9204   */\n      tag_472\n      jump\t// in\n    tag_545:\n        /* \"#utility.yul\":9241:9256   */\n      dup8\n      add\n        /* \"#utility.yul\":9235:9257   */\n      mload\n      swap2\n      pop\n        /* \"#utility.yul\":9276:9279   */\n      0x0140\n        /* \"#utility.yul\":9288:9350   */\n      tag_546\n        /* \"#utility.yul\":9331:9349   */\n      dup8\n      dup3\n      add\n        /* \"#utility.yul\":9235:9257   */\n      dup5\n        /* \"#utility.yul\":9288:9350   */\n      tag_474\n      jump\t// in\n    tag_546:\n        /* \"#utility.yul\":9387:9402   */\n      dup8\n      add\n        /* \"#utility.yul\":9381:9403   */\n      mload\n        /* \"#utility.yul\":7135:7148   */\n      iszero\n        /* \"#utility.yul\":7128:7149   */\n      iszero\n        /* \"#utility.yul\":9459:9462   */\n      0x01a0\n        /* \"#utility.yul\":9444:9463   */\n      dup8\n      add\n        /* \"#utility.yul\":7116:7150   */\n      mstore\n        /* \"#utility.yul\":9513:9519   */\n      0x0160\n        /* \"#utility.yul\":9501:9520   */\n      dup8\n      add\n        /* \"#utility.yul\":9495:9521   */\n      mload\n        /* \"#utility.yul\":9562:9584   */\n      dup7\n      dup6\n      sub\n        /* \"#utility.yul\":9558:9589   */\n      swap1\n      swap2\n      add\n        /* \"#utility.yul\":9552:9555   */\n      0x01c0\n        /* \"#utility.yul\":9537:9556   */\n      dup8\n      add\n        /* \"#utility.yul\":9530:9590   */\n      mstore\n        /* \"#utility.yul\":9495:9521   */\n      swap1\n      pop\n        /* \"#utility.yul\":9613:9665   */\n      tag_548\n        /* \"#utility.yul\":9566:9572   */\n      dup4\n        /* \"#utility.yul\":9495:9521   */\n      dup3\n        /* \"#utility.yul\":9613:9665   */\n      tag_475\n      jump\t// in\n    tag_548:\n        /* \"#utility.yul\":9599:9665   */\n      swap3\n      pop\n      pop\n        /* \"#utility.yul\":9719:9725   */\n      0x0180\n        /* \"#utility.yul\":9711:9717   */\n      dup6\n        /* \"#utility.yul\":9707:9726   */\n      add\n        /* \"#utility.yul\":9701:9727   */\n      mload\n        /* \"#utility.yul\":9696:9698   */\n      dup2\n        /* \"#utility.yul\":9685:9694   */\n      dup6\n        /* \"#utility.yul\":9681:9699   */\n      add\n        /* \"#utility.yul\":9674:9728   */\n      mstore\n      pop\n        /* \"#utility.yul\":9745:9751   */\n      dup1\n        /* \"#utility.yul\":9737:9751   */\n      swap2\n      pop\n      pop\n        /* \"#utility.yul\":7939:9757   */\n      swap3\n      swap2\n      pop\n      pop\n      jump\t// out\n        /* \"#utility.yul\":9762:11483   */\n    tag_49:\n        /* \"#utility.yul\":9950:9954   */\n      0x00\n        /* \"#utility.yul\":9979:9981   */\n      0x20\n        /* \"#utility.yul\":10019:10021   */\n      dup1\n        /* \"#utility.yul\":10008:10017   */\n      dup4\n        /* \"#utility.yul\":10004:10022   */\n      add\n        /* \"#utility.yul\":10049:10051   */\n      dup2\n        /* \"#utility.yul\":10038:10047   */\n      dup5\n        /* \"#utility.yul\":10031:10052   */\n      mstore\n        /* \"#utility.yul\":10072:10078   */\n      dup1\n        /* \"#utility.yul\":10107:10113   */\n      dup6\n        /* \"#utility.yul\":10101:10114   */\n      mload\n        /* \"#utility.yul\":10138:10144   */\n      dup1\n        /* \"#utility.yul\":10130:10136   */\n      dup4\n        /* \"#utility.yul\":10123:10145   */\n      mstore\n        /* \"#utility.yul\":10164:10166   */\n      0x40\n        /* \"#utility.yul\":10154:10166   */\n      swap3\n      pop\n        /* \"#utility.yul\":10197:10199   */\n      0x40\n        /* \"#utility.yul\":10186:10195   */\n      dup7\n        /* \"#utility.yul\":10182:10200   */\n      add\n        /* \"#utility.yul\":10175:10200   */\n      swap2\n      pop\n        /* \"#utility.yul\":10259:10261   */\n      0x40\n        /* \"#utility.yul\":10249:10255   */\n      dup2\n        /* \"#utility.yul\":10246:10247   */\n      0x05\n        /* \"#utility.yul\":10242:10256   */\n      shl\n        /* \"#utility.yul\":10231:10240   */\n      dup8\n        /* \"#utility.yul\":10227:10257   */\n      add\n        /* \"#utility.yul\":10223:10262   */\n      add\n        /* \"#utility.yul\":10297:10299   */\n      dup5\n        /* \"#utility.yul\":10289:10295   */\n      dup9\n        /* \"#utility.yul\":10285:10300   */\n      add\n        /* \"#utility.yul\":10318:10319   */\n      0x00\n        /* \"#utility.yul\":10328:11454   */\n    tag_550:\n        /* \"#utility.yul\":10342:10348   */\n      dup4\n        /* \"#utility.yul\":10339:10340   */\n      dup2\n        /* \"#utility.yul\":10336:10349   */\n      lt\n        /* \"#utility.yul\":10328:11454   */\n      iszero\n      tag_552\n      jumpi\n        /* \"#utility.yul\":10407:10429   */\n      dup9\n      dup4\n      sub\n      not(0x3f)\n        /* \"#utility.yul\":10403:10439   */\n      add\n        /* \"#utility.yul\":10391:10440   */\n      dup6\n      mstore\n        /* \"#utility.yul\":10463:10476   */\n      dup2\n      mload\n        /* \"#utility.yul\":10537:10546   */\n      dup1\n      mload\n      sub(shl(0xa0, 0x01), 0x01)\n        /* \"#utility.yul\":834:888   */\n      and\n        /* \"#utility.yul\":822:889   */\n      dup5\n      mstore\n        /* \"#utility.yul\":10499:10505   */\n      0x0120\n        /* \"#utility.yul\":10606:10608   */\n      dup9\n        /* \"#utility.yul\":10602:10604   */\n      dup3\n        /* \"#utility.yul\":10598:10609   */\n      add\n        /* \"#utility.yul\":10592:10610   */\n      mload\n        /* \"#utility.yul\":10587:10589   */\n      dup10\n        /* \"#utility.yul\":10579:10585   */\n      dup7\n        /* \"#utility.yul\":10575:10590   */\n      add\n        /* \"#utility.yul\":10568:10611   */\n      mstore\n        /* \"#utility.yul\":10658:10660   */\n      dup8\n        /* \"#utility.yul\":10654:10656   */\n      dup3\n        /* \"#utility.yul\":10650:10661   */\n      add\n        /* \"#utility.yul\":10644:10662   */\n      mload\n        /* \"#utility.yul\":10699:10701   */\n      dup2\n        /* \"#utility.yul\":10694:10696   */\n      dup10\n        /* \"#utility.yul\":10686:10692   */\n      dup8\n        /* \"#utility.yul\":10682:10697   */\n      add\n        /* \"#utility.yul\":10675:10702   */\n      mstore\n        /* \"#utility.yul\":10729:10777   */\n      tag_554\n        /* \"#utility.yul\":10773:10775   */\n      dup3\n        /* \"#utility.yul\":10765:10771   */\n      dup8\n        /* \"#utility.yul\":10761:10776   */\n      add\n        /* \"#utility.yul\":10747:10759   */\n      dup3\n        /* \"#utility.yul\":10729:10777   */\n      tag_466\n      jump\t// in\n    tag_554:\n        /* \"#utility.yul\":10715:10777   */\n      swap2\n      pop\n      pop\n        /* \"#utility.yul\":10800:10804   */\n      0x60\n        /* \"#utility.yul\":10855:10857   */\n      dup1\n        /* \"#utility.yul\":10851:10853   */\n      dup4\n        /* \"#utility.yul\":10847:10858   */\n      add\n        /* \"#utility.yul\":10841:10859   */\n      mload\n        /* \"#utility.yul\":10836:10838   */\n      dup2\n        /* \"#utility.yul\":10828:10834   */\n      dup8\n        /* \"#utility.yul\":10824:10839   */\n      add\n        /* \"#utility.yul\":10817:10860   */\n      mstore\n      pop\n        /* \"#utility.yul\":10883:10887   */\n      0x80\n        /* \"#utility.yul\":10938:10940   */\n      dup1\n        /* \"#utility.yul\":10934:10936   */\n      dup4\n        /* \"#utility.yul\":10930:10941   */\n      add\n        /* \"#utility.yul\":10924:10942   */\n      mload\n        /* \"#utility.yul\":10919:10921   */\n      dup2\n        /* \"#utility.yul\":10911:10917   */\n      dup8\n        /* \"#utility.yul\":10907:10922   */\n      add\n        /* \"#utility.yul\":10900:10943   */\n      mstore\n      pop\n        /* \"#utility.yul\":10966:10970   */\n      0xa0\n        /* \"#utility.yul\":11019:11021   */\n      dup1\n        /* \"#utility.yul\":11015:11017   */\n      dup4\n        /* \"#utility.yul\":11011:11022   */\n      add\n        /* \"#utility.yul\":11005:11023   */\n      mload\n        /* \"#utility.yul\":11036:11091   */\n      tag_555\n        /* \"#utility.yul\":11087:11089   */\n      dup3\n        /* \"#utility.yul\":11079:11085   */\n      dup9\n        /* \"#utility.yul\":11075:11090   */\n      add\n        /* \"#utility.yul\":11059:11073   */\n      dup3\n        /* \"#utility.yul\":11036:11091   */\n      tag_472\n      jump\t// in\n    tag_555:\n      pop\n      pop\n        /* \"#utility.yul\":11114:11118   */\n      0xc0\n        /* \"#utility.yul\":11161:11172   */\n      dup3\n      dup2\n      add\n        /* \"#utility.yul\":11155:11173   */\n      mload\n        /* \"#utility.yul\":11138:11153   */\n      swap1\n      dup7\n      add\n        /* \"#utility.yul\":11131:11174   */\n      mstore\n        /* \"#utility.yul\":11197:11201   */\n      0xe0\n        /* \"#utility.yul\":11244:11255   */\n      dup1\n      dup4\n      add\n        /* \"#utility.yul\":11238:11256   */\n      mload\n        /* \"#utility.yul\":11221:11236   */\n      swap1\n      dup7\n      add\n        /* \"#utility.yul\":11214:11257   */\n      mstore\n        /* \"#utility.yul\":11281:11287   */\n      0x0100\n        /* \"#utility.yul\":11331:11343   */\n      swap2\n      dup3\n      add\n        /* \"#utility.yul\":11325:11344   */\n      mload\n        /* \"#utility.yul\":11307:11323   */\n      swap2\n      swap1\n      swap5\n      add\n        /* \"#utility.yul\":11300:11345   */\n      mstore\n        /* \"#utility.yul\":11432:11444   */\n      swap4\n      dup7\n      add\n      swap4\n        /* \"#utility.yul\":11397:11412   */\n      swap1\n      dup7\n      add\n      swap1\n        /* \"#utility.yul\":10364:10365   */\n      0x01\n        /* \"#utility.yul\":10357:10366   */\n      add\n        /* \"#utility.yul\":10328:11454   */\n      jump(tag_550)\n    tag_552:\n      pop\n        /* \"#utility.yul\":11471:11477   */\n      swap1\n      swap9\n        /* \"#utility.yul\":9762:11483   */\n      swap8\n      pop\n      pop\n      pop\n      pop\n      pop\n      pop\n      pop\n      pop\n      jump\t// out\n        /* \"#utility.yul\":11488:11868   */\n    tag_62:\n        /* \"#utility.yul\":11567:11568   */\n      0x01\n        /* \"#utility.yul\":11563:11575   */\n      dup2\n      dup2\n      shr\n      swap1\n        /* \"#utility.yul\":11610:11622   */\n      dup3\n      and\n      dup1\n        /* \"#utility.yul\":11631:11692   */\n      tag_557\n      jumpi\n        /* \"#utility.yul\":11685:11689   */\n      0x7f\n        /* \"#utility.yul\":11677:11683   */\n      dup3\n        /* \"#utility.yul\":11673:11690   */\n      and\n        /* \"#utility.yul\":11663:11690   */\n      swap2\n      pop\n        /* \"#utility.yul\":11631:11692   */\n    tag_557:\n        /* \"#utility.yul\":11738:11740   */\n      0x20\n        /* \"#utility.yul\":11730:11736   */\n      dup3\n        /* \"#utility.yul\":11727:11741   */\n      lt\n        /* \"#utility.yul\":11707:11725   */\n      dup2\n        /* \"#utility.yul\":11704:11742   */\n      sub\n        /* \"#utility.yul\":11701:11862   */\n      tag_558\n      jumpi\n        /* \"#utility.yul\":11784:11794   */\n      0x4e487b71\n        /* \"#utility.yul\":11779:11782   */\n      0xe0\n        /* \"#utility.yul\":11775:11795   */\n      shl\n        /* \"#utility.yul\":11772:11773   */\n      0x00\n        /* \"#utility.yul\":11765:11796   */\n      mstore\n        /* \"#utility.yul\":11819:11823   */\n      0x22\n        /* \"#utility.yul\":11816:11817   */\n      0x04\n        /* \"#utility.yul\":11809:11824   */\n      mstore\n        /* \"#utility.yul\":11847:11851   */\n      0x24\n        /* \"#utility.yul\":11844:11845   */\n      0x00\n        /* \"#utility.yul\":11837:11852   */\n      revert\n        /* \"#utility.yul\":11701:11862   */\n    tag_558:\n      pop\n        /* \"#utility.yul\":11488:11868   */\n      swap2\n      swap1\n      pop\n      jump\t// out\n        /* \"#utility.yul\":11873:12000   */\n    tag_309:\n        /* \"#utility.yul\":11934:11944   */\n      0x4e487b71\n        /* \"#utility.yul\":11929:11932   */\n      0xe0\n        /* \"#utility.yul\":11925:11945   */\n      shl\n        /* \"#utility.yul\":11922:11923   */\n      0x00\n        /* \"#utility.yul\":11915:11946   */\n      mstore\n        /* \"#utility.yul\":11965:11969   */\n      0x41\n        /* \"#utility.yul\":11962:11963   */\n      0x04\n        /* \"#utility.yul\":11955:11970   */\n      mstore\n        /* \"#utility.yul\":11989:11993   */\n      0x24\n        /* \"#utility.yul\":11986:11987   */\n      0x00\n        /* \"#utility.yul\":11979:11994   */\n      revert\n        /* \"#utility.yul\":12131:12649   */\n    tag_477:\n        /* \"#utility.yul\":12233:12235   */\n      0x1f\n        /* \"#utility.yul\":12228:12231   */\n      dup3\n        /* \"#utility.yul\":12225:12236   */\n      gt\n        /* \"#utility.yul\":12222:12643   */\n      iszero\n      tag_414\n      jumpi\n        /* \"#utility.yul\":12269:12274   */\n      dup1\n        /* \"#utility.yul\":12266:12267   */\n      0x00\n        /* \"#utility.yul\":12259:12275   */\n      mstore\n        /* \"#utility.yul\":12313:12317   */\n      0x20\n        /* \"#utility.yul\":12310:12311   */\n      0x00\n        /* \"#utility.yul\":12300:12318   */\n      keccak256\n        /* \"#utility.yul\":12383:12385   */\n      0x1f\n        /* \"#utility.yul\":12371:12381   */\n      dup5\n        /* \"#utility.yul\":12367:12386   */\n      add\n        /* \"#utility.yul\":12364:12365   */\n      0x05\n        /* \"#utility.yul\":12360:12387   */\n      shr\n        /* \"#utility.yul\":12354:12358   */\n      dup2\n        /* \"#utility.yul\":12350:12388   */\n      add\n        /* \"#utility.yul\":12419:12423   */\n      0x20\n        /* \"#utility.yul\":12407:12417   */\n      dup6\n        /* \"#utility.yul\":12404:12424   */\n      lt\n        /* \"#utility.yul\":12401:12448   */\n      iszero\n      tag_563\n      jumpi\n      pop\n        /* \"#utility.yul\":12442:12446   */\n      dup1\n        /* \"#utility.yul\":12401:12448   */\n    tag_563:\n        /* \"#utility.yul\":12497:12499   */\n      0x1f\n        /* \"#utility.yul\":12492:12495   */\n      dup5\n        /* \"#utility.yul\":12488:12500   */\n      add\n        /* \"#utility.yul\":12485:12486   */\n      0x05\n        /* \"#utility.yul\":12481:12501   */\n      shr\n        /* \"#utility.yul\":12475:12479   */\n      dup3\n        /* \"#utility.yul\":12471:12502   */\n      add\n        /* \"#utility.yul\":12461:12502   */\n      swap2\n      pop\n        /* \"#utility.yul\":12552:12633   */\n    tag_564:\n        /* \"#utility.yul\":12570:12572   */\n      dup2\n        /* \"#utility.yul\":12563:12568   */\n      dup2\n        /* \"#utility.yul\":12560:12573   */\n      lt\n        /* \"#utility.yul\":12552:12633   */\n      iszero\n      tag_566\n      jumpi\n        /* \"#utility.yul\":12629:12630   */\n      0x00\n        /* \"#utility.yul\":12615:12631   */\n      dup2\n      sstore\n        /* \"#utility.yul\":12596:12597   */\n      0x01\n        /* \"#utility.yul\":12585:12598   */\n      add\n        /* \"#utility.yul\":12552:12633   */\n      jump(tag_564)\n    tag_566:\n        /* \"#utility.yul\":12556:12559   */\n      pop\n      pop\n        /* \"#utility.yul\":12131:12649   */\n      pop\n      pop\n      pop\n      jump\t// out\n        /* \"#utility.yul\":12825:14023   */\n    tag_127:\n        /* \"#utility.yul\":12949:12967   */\n      0xffffffffffffffff\n        /* \"#utility.yul\":12944:12947   */\n      dup4\n        /* \"#utility.yul\":12941:12968   */\n      gt\n        /* \"#utility.yul\":12938:12991   */\n      iszero\n      tag_570\n      jumpi\n        /* \"#utility.yul\":12971:12989   */\n      tag_570\n      tag_309\n      jump\t// in\n    tag_570:\n        /* \"#utility.yul\":13000:13094   */\n      tag_571\n        /* \"#utility.yul\":13090:13093   */\n      dup4\n        /* \"#utility.yul\":13050:13088   */\n      tag_572\n        /* \"#utility.yul\":13082:13086   */\n      dup4\n        /* \"#utility.yul\":13076:13087   */\n      sload\n        /* \"#utility.yul\":13050:13088   */\n      tag_62\n      jump\t// in\n    tag_572:\n        /* \"#utility.yul\":13044:13048   */\n      dup4\n        /* \"#utility.yul\":13000:13094   */\n      tag_477\n      jump\t// in\n    tag_571:\n        /* \"#utility.yul\":13120:13121   */\n      0x00\n        /* \"#utility.yul\":13145:13147   */\n      0x1f\n        /* \"#utility.yul\":13140:13143   */\n      dup5\n        /* \"#utility.yul\":13137:13148   */\n      gt\n        /* \"#utility.yul\":13162:13163   */\n      0x01\n        /* \"#utility.yul\":13157:13765   */\n      dup2\n      eq\n      tag_574\n      jumpi\n        /* \"#utility.yul\":13809:13810   */\n      0x00\n        /* \"#utility.yul\":13826:13829   */\n      dup6\n        /* \"#utility.yul\":13823:13916   */\n      iszero\n      tag_575\n      jumpi\n      pop\n        /* \"#utility.yul\":13882:13901   */\n      dup4\n      dup3\n      add\n        /* \"#utility.yul\":13869:13902   */\n      calldataload\n        /* \"#utility.yul\":13823:13916   */\n    tag_575:\n      not(0x00)\n        /* \"#utility.yul\":12782:12783   */\n      0x03\n        /* \"#utility.yul\":12778:12789   */\n      dup8\n      swap1\n      shl\n        /* \"#utility.yul\":12774:12798   */\n      shr\n        /* \"#utility.yul\":12770:12799   */\n      not\n        /* \"#utility.yul\":12760:12800   */\n      and\n        /* \"#utility.yul\":12806:12807   */\n      0x01\n        /* \"#utility.yul\":12802:12813   */\n      dup7\n      swap1\n      shl\n        /* \"#utility.yul\":12757:12814   */\n      or\n        /* \"#utility.yul\":13929:14007   */\n      dup4\n      sstore\n        /* \"#utility.yul\":13130:14017   */\n      jump(tag_566)\n        /* \"#utility.yul\":13157:13765   */\n    tag_574:\n        /* \"#utility.yul\":12078:12079   */\n      0x00\n        /* \"#utility.yul\":12071:12085   */\n      dup4\n      dup2\n      mstore\n        /* \"#utility.yul\":12115:12119   */\n      0x20\n        /* \"#utility.yul\":12102:12120   */\n      dup2\n      keccak256\n      not(0x1f)\n        /* \"#utility.yul\":13193:13210   */\n      dup8\n      and\n      swap2\n        /* \"#utility.yul\":13308:13537   */\n    tag_578:\n        /* \"#utility.yul\":13322:13329   */\n      dup3\n        /* \"#utility.yul\":13319:13320   */\n      dup2\n        /* \"#utility.yul\":13316:13330   */\n      lt\n        /* \"#utility.yul\":13308:13537   */\n      iszero\n      tag_580\n      jumpi\n        /* \"#utility.yul\":13411:13430   */\n      dup7\n      dup6\n      add\n        /* \"#utility.yul\":13398:13431   */\n      calldataload\n        /* \"#utility.yul\":13383:13432   */\n      dup3\n      sstore\n        /* \"#utility.yul\":13518:13522   */\n      0x20\n        /* \"#utility.yul\":13503:13523   */\n      swap5\n      dup6\n      add\n      swap5\n        /* \"#utility.yul\":13471:13472   */\n      0x01\n        /* \"#utility.yul\":13459:13473   */\n      swap1\n      swap3\n      add\n      swap2\n        /* \"#utility.yul\":13338:13350   */\n      add\n        /* \"#utility.yul\":13308:13537   */\n      jump(tag_578)\n    tag_580:\n        /* \"#utility.yul\":13312:13315   */\n      pop\n        /* \"#utility.yul\":13565:13568   */\n      dup7\n        /* \"#utility.yul\":13556:13563   */\n      dup3\n        /* \"#utility.yul\":13553:13569   */\n      lt\n        /* \"#utility.yul\":13550:13709   */\n      iszero\n      tag_581\n      jumpi\n        /* \"#utility.yul\":13689:13690   */\n      0x00\n        /* \"#utility.yul\":13685:13691   */\n      not\n        /* \"#utility.yul\":13679:13682   */\n      0xf8\n        /* \"#utility.yul\":13673:13676   */\n      dup9\n        /* \"#utility.yul\":13670:13671   */\n      0x03\n        /* \"#utility.yul\":13666:13677   */\n      shl\n        /* \"#utility.yul\":13662:13683   */\n      and\n        /* \"#utility.yul\":13658:13692   */\n      shr\n        /* \"#utility.yul\":13654:13693   */\n      not\n        /* \"#utility.yul\":13641:13650   */\n      dup5\n        /* \"#utility.yul\":13636:13639   */\n      dup8\n        /* \"#utility.yul\":13632:13651   */\n      add\n        /* \"#utility.yul\":13619:13652   */\n      calldataload\n        /* \"#utility.yul\":13615:13694   */\n      and\n        /* \"#utility.yul\":13607:13613   */\n      dup2\n        /* \"#utility.yul\":13600:13695   */\n      sstore\n        /* \"#utility.yul\":13550:13709   */\n    tag_581:\n      pop\n      pop\n        /* \"#utility.yul\":13752:13753   */\n      0x01\n        /* \"#utility.yul\":13746:13749   */\n      dup6\n        /* \"#utility.yul\":13743:13744   */\n      0x01\n        /* \"#utility.yul\":13739:13750   */\n      shl\n        /* \"#utility.yul\":13735:13754   */\n      add\n        /* \"#utility.yul\":13729:13733   */\n      dup4\n        /* \"#utility.yul\":13722:13755   */\n      sstore\n        /* \"#utility.yul\":13130:14017   */\n      pop\n      pop\n        /* \"#utility.yul\":12825:14023   */\n      pop\n      pop\n      pop\n      jump\t// out\n        /* \"#utility.yul\":14028:14146   */\n    tag_479:\n        /* \"#utility.yul\":14114:14119   */\n      dup1\n        /* \"#utility.yul\":14107:14120   */\n      iszero\n        /* \"#utility.yul\":14100:14121   */\n      iszero\n        /* \"#utility.yul\":14093:14098   */\n      dup2\n        /* \"#utility.yul\":14090:14122   */\n      eq\n        /* \"#utility.yul\":14080:14140   */\n      tag_444\n      jumpi\n        /* \"#utility.yul\":14136:14137   */\n      0x00\n        /* \"#utility.yul\":14133:14134   */\n      dup1\n        /* \"#utility.yul\":14126:14138   */\n      revert\n        /* \"#utility.yul\":14151:14392   */\n    tag_130:\n        /* \"#utility.yul\":14207:14213   */\n      0x00\n        /* \"#utility.yul\":14260:14262   */\n      0x20\n        /* \"#utility.yul\":14248:14257   */\n      dup3\n        /* \"#utility.yul\":14239:14246   */\n      dup5\n        /* \"#utility.yul\":14235:14258   */\n      sub\n        /* \"#utility.yul\":14231:14263   */\n      slt\n        /* \"#utility.yul\":14228:14280   */\n      iszero\n      tag_585\n      jumpi\n        /* \"#utility.yul\":14276:14277   */\n      0x00\n        /* \"#utility.yul\":14273:14274   */\n      dup1\n        /* \"#utility.yul\":14266:14278   */\n      revert\n        /* \"#utility.yul\":14228:14280   */\n    tag_585:\n        /* \"#utility.yul\":14315:14324   */\n      dup2\n        /* \"#utility.yul\":14302:14325   */\n      calldataload\n        /* \"#utility.yul\":14334:14362   */\n      tag_521\n        /* \"#utility.yul\":14356:14361   */\n      dup2\n        /* \"#utility.yul\":14334:14362   */\n      tag_479\n      jump\t// in\n        /* \"#utility.yul\":14397:14512   */\n    tag_480:\n        /* \"#utility.yul\":14486:14487   */\n      0x04\n        /* \"#utility.yul\":14479:14484   */\n      dup2\n        /* \"#utility.yul\":14476:14488   */\n      lt\n        /* \"#utility.yul\":14466:14506   */\n      tag_444\n      jumpi\n        /* \"#utility.yul\":14502:14503   */\n      0x00\n        /* \"#utility.yul\":14499:14500   */\n      dup1\n        /* \"#utility.yul\":14492:14504   */\n      revert\n        /* \"#utility.yul\":14517:15324   */\n    tag_134:\n        /* \"#utility.yul\":14680:14685   */\n      dup2\n        /* \"#utility.yul\":14667:14686   */\n      calldataload\n        /* \"#utility.yul\":14695:14725   */\n      tag_590\n        /* \"#utility.yul\":14717:14724   */\n      dup2\n        /* \"#utility.yul\":14695:14725   */\n      tag_479\n      jump\t// in\n    tag_590:\n        /* \"#utility.yul\":14744:14755   */\n      dup2\n      sload\n      not(0xff)\n        /* \"#utility.yul\":14832:14849   */\n      dup2\n      and\n        /* \"#utility.yul\":14785:14800   */\n      swap2\n      iszero\n        /* \"#utility.yul\":14778:14801   */\n      iszero\n        /* \"#utility.yul\":14803:14806   */\n      0xff\n        /* \"#utility.yul\":14774:14807   */\n      and\n        /* \"#utility.yul\":14829:14854   */\n      swap2\n      dup3\n      or\n        /* \"#utility.yul\":14816:14855   */\n      dup4\n      sstore\n        /* \"#utility.yul\":14903:14905   */\n      0x20\n        /* \"#utility.yul\":14892:14906   */\n      dup5\n      add\n        /* \"#utility.yul\":14879:14907   */\n      calldataload\n        /* \"#utility.yul\":14916:14946   */\n      tag_591\n        /* \"#utility.yul\":14879:14907   */\n      dup2\n        /* \"#utility.yul\":14916:14946   */\n      tag_479\n      jump\t// in\n    tag_591:\n        /* \"#utility.yul\":15002:15007   */\n      0xff00\n        /* \"#utility.yul\":14983:14998   */\n      swap1\n      iszero\n        /* \"#utility.yul\":14976:14999   */\n      iszero\n        /* \"#utility.yul\":14973:14974   */\n      0x08\n        /* \"#utility.yul\":14969:15000   */\n      shl\n        /* \"#utility.yul\":14965:15008   */\n      and\n      not(0xffff)\n        /* \"#utility.yul\":15036:15055   */\n      dup3\n      and\n        /* \"#utility.yul\":15033:15060   */\n      dup4\n      or\n        /* \"#utility.yul\":15030:15065   */\n      dup2\n      or\n        /* \"#utility.yul\":15017:15066   */\n      dup5\n      sstore\n        /* \"#utility.yul\":15114:15116   */\n      0x40\n        /* \"#utility.yul\":15103:15117   */\n      dup6\n      add\n        /* \"#utility.yul\":15090:15118   */\n      calldataload\n        /* \"#utility.yul\":15127:15174   */\n      tag_592\n        /* \"#utility.yul\":15090:15118   */\n      dup2\n        /* \"#utility.yul\":15127:15174   */\n      tag_480\n      jump\t// in\n    tag_592:\n        /* \"#utility.yul\":15183:15220   */\n      tag_593\n        /* \"#utility.yul\":15212:15219   */\n      dup2\n        /* \"#utility.yul\":15183:15220   */\n      tag_471\n      jump\t// in\n    tag_593:\n        /* \"#utility.yul\":15307:15315   */\n      0xff0000\n        /* \"#utility.yul\":15297:15304   */\n      dup2\n        /* \"#utility.yul\":15293:15295   */\n      0x10\n        /* \"#utility.yul\":15289:15305   */\n      shl\n        /* \"#utility.yul\":15285:15316   */\n      and\n        /* \"#utility.yul\":15279:15281   */\n      dup5\n        /* \"#utility.yul\":15267:15275   */\n      0xffffff\n        /* \"#utility.yul\":15263:15276   */\n      not\n        /* \"#utility.yul\":15259:15261   */\n      dup6\n        /* \"#utility.yul\":15255:15277   */\n      and\n        /* \"#utility.yul\":15252:15282   */\n      or\n        /* \"#utility.yul\":15248:15250   */\n      dup4\n        /* \"#utility.yul\":15245:15283   */\n      or\n        /* \"#utility.yul\":15242:15317   */\n      or\n        /* \"#utility.yul\":15236:15240   */\n      dup6\n        /* \"#utility.yul\":15229:15318   */\n      sstore\n      pop\n      pop\n      pop\n      pop\n        /* \"#utility.yul\":14517:15324   */\n      pop\n      pop\n      jump\t// out\n        /* \"#utility.yul\":15329:15456   */\n    tag_140:\n        /* \"#utility.yul\":15390:15400   */\n      0x4e487b71\n        /* \"#utility.yul\":15385:15388   */\n      0xe0\n        /* \"#utility.yul\":15381:15401   */\n      shl\n        /* \"#utility.yul\":15378:15379   */\n      0x00\n        /* \"#utility.yul\":15371:15402   */\n      mstore\n        /* \"#utility.yul\":15421:15425   */\n      0x32\n        /* \"#utility.yul\":15418:15419   */\n      0x04\n        /* \"#utility.yul\":15411:15426   */\n      mstore\n        /* \"#utility.yul\":15445:15449   */\n      0x24\n        /* \"#utility.yul\":15442:15443   */\n      0x00\n        /* \"#utility.yul\":15435:15450   */\n      revert\n        /* \"#utility.yul\":15461:15983   */\n    tag_142:\n        /* \"#utility.yul\":15539:15543   */\n      0x00\n        /* \"#utility.yul\":15545:15551   */\n      dup1\n        /* \"#utility.yul\":15605:15616   */\n      dup4\n        /* \"#utility.yul\":15592:15617   */\n      calldataload\n        /* \"#utility.yul\":15699:15701   */\n      0x1e\n        /* \"#utility.yul\":15695:15702   */\n      not\n        /* \"#utility.yul\":15684:15692   */\n      dup5\n        /* \"#utility.yul\":15668:15682   */\n      calldatasize\n        /* \"#utility.yul\":15664:15693   */\n      sub\n        /* \"#utility.yul\":15660:15703   */\n      add\n        /* \"#utility.yul\":15640:15658   */\n      dup2\n        /* \"#utility.yul\":15636:15704   */\n      slt\n        /* \"#utility.yul\":15626:15722   */\n      tag_596\n      jumpi\n        /* \"#utility.yul\":15718:15719   */\n      0x00\n        /* \"#utility.yul\":15715:15716   */\n      dup1\n        /* \"#utility.yul\":15708:15720   */\n      revert\n        /* \"#utility.yul\":15626:15722   */\n    tag_596:\n        /* \"#utility.yul\":15745:15778   */\n      dup4\n      add\n        /* \"#utility.yul\":15797:15817   */\n      dup1\n      calldataload\n      swap2\n      pop\n        /* \"#utility.yul\":15840:15858   */\n      0xffffffffffffffff\n        /* \"#utility.yul\":15829:15859   */\n      dup3\n      gt\n        /* \"#utility.yul\":15826:15876   */\n      iszero\n      tag_597\n      jumpi\n        /* \"#utility.yul\":15872:15873   */\n      0x00\n        /* \"#utility.yul\":15869:15870   */\n      dup1\n        /* \"#utility.yul\":15862:15874   */\n      revert\n        /* \"#utility.yul\":15826:15876   */\n    tag_597:\n        /* \"#utility.yul\":15905:15909   */\n      0x20\n        /* \"#utility.yul\":15893:15910   */\n      add\n      swap2\n      pop\n        /* \"#utility.yul\":15936:15950   */\n      calldatasize\n        /* \"#utility.yul\":15932:15959   */\n      dup2\n      swap1\n      sub\n        /* \"#utility.yul\":15922:15960   */\n      dup3\n      sgt\n        /* \"#utility.yul\":15919:15977   */\n      iszero\n      tag_500\n      jumpi\n        /* \"#utility.yul\":15973:15974   */\n      0x00\n        /* \"#utility.yul\":15970:15971   */\n      dup1\n        /* \"#utility.yul\":15963:15975   */\n      revert\n        /* \"#utility.yul\":15988:16220   */\n    tag_147:\n        /* \"#utility.yul\":16027:16030   */\n      0x00\n        /* \"#utility.yul\":16048:16065   */\n      0x01\n      dup3\n      add\n        /* \"#utility.yul\":16045:16185   */\n      tag_600\n      jumpi\n        /* \"#utility.yul\":16107:16117   */\n      0x4e487b71\n        /* \"#utility.yul\":16102:16105   */\n      0xe0\n        /* \"#utility.yul\":16098:16118   */\n      shl\n        /* \"#utility.yul\":16095:16096   */\n      0x00\n        /* \"#utility.yul\":16088:16119   */\n      mstore\n        /* \"#utility.yul\":16142:16146   */\n      0x11\n        /* \"#utility.yul\":16139:16140   */\n      0x04\n        /* \"#utility.yul\":16132:16147   */\n      mstore\n        /* \"#utility.yul\":16170:16174   */\n      0x24\n        /* \"#utility.yul\":16167:16168   */\n      0x00\n        /* \"#utility.yul\":16160:16175   */\n      revert\n        /* \"#utility.yul\":16045:16185   */\n    tag_600:\n      pop\n        /* \"#utility.yul\":16212:16213   */\n      0x01\n        /* \"#utility.yul\":16201:16214   */\n      add\n      swap1\n        /* \"#utility.yul\":15988:16220   */\n      jump\t// out\n        /* \"#utility.yul\":16225:16786   */\n    tag_206:\n        /* \"#utility.yul\":16442:16448   */\n      dup4\n        /* \"#utility.yul\":16431:16440   */\n      dup2\n        /* \"#utility.yul\":16424:16449   */\n      mstore\n        /* \"#utility.yul\":16485:16487   */\n      0x40\n        /* \"#utility.yul\":16480:16482   */\n      0x20\n        /* \"#utility.yul\":16469:16478   */\n      dup3\n        /* \"#utility.yul\":16465:16483   */\n      add\n        /* \"#utility.yul\":16458:16488   */\n      mstore\n        /* \"#utility.yul\":16524:16530   */\n      dup2\n        /* \"#utility.yul\":16519:16521   */\n      0x40\n        /* \"#utility.yul\":16508:16517   */\n      dup3\n        /* \"#utility.yul\":16504:16522   */\n      add\n        /* \"#utility.yul\":16497:16531   */\n      mstore\n        /* \"#utility.yul\":16405:16409   */\n      0x00\n        /* \"#utility.yul\":16554:16620   */\n      0x07ffffffffffffffffffffffffffffffffffffffffffffffffffffffffffffff\n        /* \"#utility.yul\":16546:16552   */\n      dup4\n        /* \"#utility.yul\":16543:16621   */\n      gt\n        /* \"#utility.yul\":16540:16638   */\n      iszero\n      tag_602\n      jumpi\n        /* \"#utility.yul\":16634:16635   */\n      0x00\n        /* \"#utility.yul\":16631:16632   */\n      dup1\n        /* \"#utility.yul\":16624:16636   */\n      revert\n        /* \"#utility.yul\":16540:16638   */\n    tag_602:\n        /* \"#utility.yul\":16668:16674   */\n      dup3\n        /* \"#utility.yul\":16665:16666   */\n      0x05\n        /* \"#utility.yul\":16661:16675   */\n      shl\n        /* \"#utility.yul\":16725:16731   */\n      dup1\n        /* \"#utility.yul\":16717:16723   */\n      dup6\n        /* \"#utility.yul\":16712:16714   */\n      0x60\n        /* \"#utility.yul\":16701:16710   */\n      dup6\n        /* \"#utility.yul\":16697:16715   */\n      add\n        /* \"#utility.yul\":16684:16732   */\n      calldatacopy\n        /* \"#utility.yul\":16753:16775   */\n      swap2\n      swap1\n      swap2\n      add\n        /* \"#utility.yul\":16777:16779   */\n      0x60\n        /* \"#utility.yul\":16749:16780   */\n      add\n      swap5\n        /* \"#utility.yul\":16225:16786   */\n      swap4\n      pop\n      pop\n      pop\n      pop\n      jump\t// out\n        /* \"#utility.yul\":17132:17412   */\n    tag_441:\n        /* \"#utility.yul\":17210:17216   */\n      0x00\n        /* \"#utility.yul\":17263:17265   */\n      0x20\n        /* \"#utility.yul\":17251:17260   */\n      dup3\n        /* \"#utility.yul\":17242:17249   */\n      dup5\n        /* \"#utility.yul\":17238:17261   */\n      sub\n        /* \"#utility.yul\":17234:17266   */\n      slt\n        /* \"#utility.yul\":17231:17283   */\n      iszero\n      tag_605\n      jumpi\n        /* \"#utility.yul\":17279:17280   */\n      0x00\n        /* \"#utility.yul\":17276:17277   */\n      dup1\n        /* \"#utility.yul\":17269:17281   */\n      revert\n        /* \"#utility.yul\":17231:17283   */\n    tag_605:\n        /* \"#utility.yul\":17318:17327   */\n      dup2\n        /* \"#utility.yul\":17305:17328   */\n      calldataload\n        /* \"#utility.yul\":17337:17382   */\n      tag_521\n        /* \"#utility.yul\":17376:17381   */\n      dup2\n        /* \"#utility.yul\":17337:17382   */\n      tag_480\n      jump\t// in\n\n    auxdata: 0xa2646970667358221220d7819eb9eb5589ec114ddb878091aa359edc83035502f00b3dcab92fd9309bb564736f6c63430008190033\n}\n",
    "bytecode": {
      "linkReferences": {},
      "object": "6080604052348015600e575f80fd5b50612eee8061001c5f395ff3fe608060405234801561000f575f80fd5b5060043610610085575f3560e01c80634e43603a116100585780634e43603a146100fb5780639534e637146101745780639a0040e414610187578063dfcaab88146101a7575f80fd5b806314956b6f146100895780631f35b51d146100b257806321b91db5146100c75780632fa48e9e146100e8575b5f80fd5b61009c61009736600461260c565b6101bc565b6040516100a99190612664565b60405180910390f35b6100c56100c0366004612733565b6108a3565b005b6100da6100d53660046127d0565b61092a565b6040519081526020016100a9565b6100c56100f636600461288f565b610b5d565b6101596101093660046128d7565b6040805180820182525f8082526020918201819052825180840184528181528083018281526001600160a01b03959095168083526009845284832054825282526008909252919091205490915290565b604080518251815260209283015192810192909252016100a9565b6100c5610182366004612733565b6110c5565b61019a610195366004612733565b611425565b6040516100a991906129f1565b6101af611a4b565b6040516100a99190612afd565b6101fa6040518060c00160405280606081526020015f6001600160a01b031681526020015f81526020015f8152602001606081526020015f81525090565b5f61020484611fa3565b60408051610180810182528254815260018301546001600160a01b031660208083019190915260028401548284015260038085015460608085019190915260048601546080850152600586015460a0850152600686015460c0850152600786015460ff908116151560e0860152855191820186526008870180548083161515845261010080820484161515968501969096529798506104d897959689969588019593949193908501926201000090910416908111156102c5576102c561294f565b60038111156102d6576102d661294f565b8152505081526020016009820180546102ee90612bcf565b80601f016020809104026020016040519081016040528092919081815260200182805461031a90612bcf565b80156103655780601f1061033c57610100808354040283529160200191610365565b820191905f5260205f20905b81548152906001019060200180831161034857829003601f168201915b50505050508152602001600a8201805461037e90612bcf565b80601f01602080910402602001604051908101604052809291908181526020018280546103aa90612bcf565b80156103f55780601f106103cc576101008083540402835291602001916103f5565b820191905f5260205f20905b8154815290600101906020018083116103d857829003601f168201915b50505050508152602001600b8201805480602002602001604051908101604052809291908181526020015f905b828210156104ca578382905f5260205f2001805461043f90612bcf565b80601f016020809104026020016040519081016040528092919081815260200182805461046b90612bcf565b80156104b65780601f1061048d576101008083540402835291602001916104b6565b820191905f5260205f20905b81548152906001019060200180831161049957829003601f168201915b505050505081526020019060010190610422565b505050508152505084612048565b6104f557604051634ca8886760e01b815260040160405180910390fd5b60408051610180810182528254815260018301546001600160a01b031660208083019190915260028401548284015260038085015460608085019190915260048601546080850152600586015460a0850152600686015460c0850152600786015460ff908116151560e0860152855191820186526008870180548083161515845261010080820484161515968501969096525f976107c497968a96908801959491850192620100009004909116908111156105b2576105b261294f565b60038111156105c3576105c361294f565b8152505081526020016009820180546105db90612bcf565b80601f016020809104026020016040519081016040528092919081815260200182805461060790612bcf565b80156106525780601f1061062957610100808354040283529160200191610652565b820191905f5260205f20905b81548152906001019060200180831161063557829003601f168201915b50505050508152602001600a8201805461066b90612bcf565b80601f016020809104026020016040519081016040528092919081815260200182805461069790612bcf565b80156106e25780601f106106b9576101008083540402835291602001916106e2565b820191905f5260205f20905b8154815290600101906020018083116106c557829003601f168201915b50505050508152602001600b8201805480602002602001604051908101604052809291908181526020015f905b828210156107b7578382905f5260205f2001805461072c90612bcf565b80601f016020809104026020016040519081016040528092919081815260200182805461075890612bcf565b80156107a35780601f1061077a576101008083540402835291602001916107a3565b820191905f5260205f20905b81548152906001019060200180831161078657829003601f168201915b50505050508152602001906001019061070f565b505050508152505061214b565b90506040518060c001604052808360090180546107e090612bcf565b80601f016020809104026020016040519081016040528092919081815260200182805461080c90612bcf565b80156108575780601f1061082e57610100808354040283529160200191610857565b820191905f5260205f20905b81548152906001019060200180831161083a57829003601f168201915b505050918352505060018401546001600160a01b031660208201526004840154604082015260058401546060820152608081019290925260069092015460a09091015290505b92915050565b5f6108ad82611fa3565b60018101549091506001600160a01b031633146108dd57604051634ca8886760e01b815260040160405180910390fd5b60078101805460ff1916600190811790915581015460405183916001600160a01b0316907f8e6c50d6b1ccb63b8c9dbaec72e0535801412cda407271616bb03a6096d75f9d905f90a35050565b5f6109358a8a61223a565b61093f8888612284565b61094986866122d5565b610953848461231a565b61095c826123ea565b5f80546001810182559080527f290decd9548b62a8d60345a988386fc84ba6bc95484008f6362f93160ef3e564600c820290810180547fffffffffffffffffffffffff000000000000000000000000000000000000000016331790557f290decd9548b62a8d60345a988386fc84ba6bc95484008f6362f93160ef3e5638101828155907f290decd9548b62a8d60345a988386fc84ba6bc95484008f6362f93160ef3e56c01610a0c8c8e83612c66565b50600a8101610a1c8a8c83612c66565b5060028101889055610a346040850160208601612d2d565b610a3e5786610a40565b5f5b60038201555f6004820181905560058201558360088201610a618282612d54565b505042600682015560078101805460ff191690555f5b85811015610acf5781600b01878783818110610a9557610a95612dcb565b9050602002810190610aa79190612ddf565b82546001810184555f938452602090932090920191610ac69183612c66565b50600101610a77565b50335f81815260036020908152604080832080546001810182559084528284200186905592825260099052908120805491610b0983612e22565b909155505060018054905f610b1d83612e22565b9091555050604051829033907f253458ed40d765e300ef79d87f8b5a901191fbfc27d54b1ea052a6752908953c905f90a3509a9950505050505050505050565b5f610b6784611fa3565b9050600160408051610180810182528354815260018401546001600160a01b031660208083019190915260028501548284015260038086015460608085019190915260048701546080850152600587015460a0850152600687015460c0850152600787015460ff908116151560e086015285519182018652600888018054808316151584526101008082048416151596850196909652610e36978a96880195929390850192620100009092041690811115610c2457610c2461294f565b6003811115610c3557610c3561294f565b815250508152602001600982018054610c4d90612bcf565b80601f0160208091040260200160405190810160405280929190818152602001828054610c7990612bcf565b8015610cc45780601f10610c9b57610100808354040283529160200191610cc4565b820191905f5260205f20905b815481529060010190602001808311610ca757829003601f168201915b50505050508152602001600a82018054610cdd90612bcf565b80601f0160208091040260200160405190810160405280929190818152602001828054610d0990612bcf565b8015610d545780601f10610d2b57610100808354040283529160200191610d54565b820191905f5260205f20905b815481529060010190602001808311610d3757829003601f168201915b50505050508152602001600b8201805480602002602001604051908101604052809291908181526020015f905b82821015610e29578382905f5260205f20018054610d9e90612bcf565b80601f0160208091040260200160405190810160405280929190818152602001828054610dca90612bcf565b8015610e155780601f10610dec57610100808354040283529160200191610e15565b820191905f5260205f20905b815481529060010190602001808311610df857829003601f168201915b505050505081526020019060010190610d81565b5050505081525050612447565b6003811115610e4757610e4761294f565b14610e655760405163b4f0e2d960e01b815260040160405180910390fd5b5f84815260046020908152604080832033845290915290205460ff1615610e9f57604051637c9a1cf960e01b815260040160405180910390fd5b815f819003610ec15760405163be5a2acd60e01b815260040160405180910390fd5b600882015460ff16158015610ed65750600181115b15610ef45760405163baabd10760e01b815260040160405180910390fd5b5f5b8181101561100b575f858583818110610f1157610f11612dcb565b90506020020135905083600b01805490508110610f41576040516370039a2560e01b815260040160405180910390fd5b5f5b82811015610fa357868682818110610f5d57610f5d612dcb565b90506020020135878785818110610f7657610f76612dcb565b9050602002013503610f9b57604051630fe3ee1360e11b815260040160405180910390fd5b600101610f43565b50600584018054905f610fb583612e22565b90915550505f8781526006602090815260408083208484529091528120805491610fde83612e22565b9091555050335f908152600860205260408120805491610ffd83612e22565b909155505050600101610ef6565b505f85815260046020908152604080832033808552908352818420805460ff1916600117905588845260078352818420908452909152902061104e90858561249c565b5060028054905f61105e83612e22565b9091555050600482018054905f61107483612e22565b9190505550336001600160a01b03167fcf413025c8b450134dae85561cfe55bd5a20cd0d8912db984431e553b31d4c098686866040516110b693929190612e46565b60405180910390a25050505050565b5f6110cf82611fa3565b60018101549091506001600160a01b031633146110ff57604051634ca8886760e01b815260040160405180910390fd5b600360408051610180810182528354815260018401546001600160a01b031660208083019190915260028501548284015260038086015460608085019190915260048701546080850152600587015460a0850152600687015460c0850152600787015460ff908116151560e0860152855191820186526008880180548083161515845261010080820484161515968501969096526113bf978a968801959293908501926201000090920416908111156111ba576111ba61294f565b60038111156111cb576111cb61294f565b8152505081526020016009820180546111e390612bcf565b80601f016020809104026020016040519081016040528092919081815260200182805461120f90612bcf565b801561125a5780601f106112315761010080835404028352916020019161125a565b820191905f5260205f20905b81548152906001019060200180831161123d57829003601f168201915b50505050508152602001600a8201805461127390612bcf565b80601f016020809104026020016040519081016040528092919081815260200182805461129f90612bcf565b80156112ea5780601f106112c1576101008083540402835291602001916112ea565b820191905f5260205f20905b8154815290600101906020018083116112cd57829003601f168201915b50505050508152602001600b8201805480602002602001604051908101604052809291908181526020015f905b82821015610e29578382905f5260205f2001805461133490612bcf565b80601f016020809104026020016040519081016040528092919081815260200182805461136090612bcf565b80156113ab5780601f10611382576101008083540402835291602001916113ab565b820191905f5260205f20905b81548152906001019060200180831161138e57829003601f168201915b505050505081526020019060010190611317565b60038111156113d0576113d061294f565b036113ee57604051639b22ddeb60e01b815260040160405180910390fd5b60016003820155604051829033907f563a96cebb2dd00c04fe16ab3f34901e3749b13da3040e6cae0b5a55ea4daee2905f90a35050565b61142d6124e5565b5f61143783611fa3565b604080516101a0810190915260018201546001600160a01b03168152600982018054929350909160208301919061146d90612bcf565b80601f016020809104026020016040519081016040528092919081815260200182805461149990612bcf565b80156114e45780601f106114bb576101008083540402835291602001916114e4565b820191905f5260205f20905b8154815290600101906020018083116114c757829003601f168201915b5050505050815260200182600a0180546114fd90612bcf565b80601f016020809104026020016040519081016040528092919081815260200182805461152990612bcf565b80156115745780601f1061154b57610100808354040283529160200191611574565b820191905f5260205f20905b81548152906001019060200180831161155757829003601f168201915b50505050508152602001826002015481526020018260030154815260200182600b01805480602002602001604051908101604052809291908181526020015f905b8282101561165d578382905f5260205f200180546115d290612bcf565b80601f01602080910402602001604051908101604052809291908181526020018280546115fe90612bcf565b80156116495780601f1061162057610100808354040283529160200191611649565b820191905f5260205f20905b81548152906001019060200180831161162c57829003601f168201915b5050505050815260200190600101906115b5565b5050509082525060048301546020808301829052600585015460408085018290528051610180810182528754815260018801546001600160a01b031681850152600288015481830152600380890154606083810191909152608083019690965260a0820193909352600688015460c0820152600788015460ff908116151560e08301528251808701845260088a018054808416151583526101008082048516151598840198909852979098019761193d9793968b9690880195929491939285019262010000909204909116908111156117385761173861294f565b60038111156117495761174961294f565b81525050815260200160098201805461176190612bcf565b80601f016020809104026020016040519081016040528092919081815260200182805461178d90612bcf565b80156117d85780601f106117af576101008083540402835291602001916117d8565b820191905f5260205f20905b8154815290600101906020018083116117bb57829003601f168201915b50505050508152602001600a820180546117f190612bcf565b80601f016020809104026020016040519081016040528092919081815260200182805461181d90612bcf565b80156118685780601f1061183f57610100808354040283529160200191611868565b820191905f5260205f20905b81548152906001019060200180831161184b57829003601f168201915b50505050508152602001600b8201805480602002602001604051908101604052809291908181526020015f905b82821015610e29578382905f5260205f200180546118b290612bcf565b80601f01602080910402602001604051908101604052809291908181526020018280546118de90612bcf565b80156119295780601f1061190057610100808354040283529160200191611929565b820191905f5260205f20905b81548152906001019060200180831161190c57829003601f168201915b505050505081526020019060010190611895565b600381111561194e5761194e61294f565b81526040805160608101825260088501805460ff80821615158452610100820481161515602085810191909152909501949293919291840191620100009091041660038111156119a0576119a061294f565b60038111156119b1576119b161294f565b90525081525f858152600460209081526040808320338085529083528184205460ff16151583860152888452600783528184209084528252918290208054835181840281018401855281815293909401939091830182828015611a3157602002820191905f5260205f20905b815481526020019060010190808311611a1d575b505050505081526020018260060154815250915050919050565b335f9081526003602052604081208054606092805b82811015611ac4575f848281548110611a7b57611a7b612dcb565b905f5260205f20015481548110611a9457611a94612dcb565b5f91825260209091206007600c90920201015460ff16611abc5781611ab881612e22565b9250505b600101611a60565b505f8167ffffffffffffffff811115611adf57611adf612c07565b604051908082528060200260200182016040528015611b1857816020015b611b0561257f565b815260200190600190039081611afd5790505b5090505f805b84811015611f98575f868281548110611b3957611b39612dcb565b905f5260205f20015490505f8181548110611b5657611b56612dcb565b5f91825260209091206007600c90920201015460ff1615611b775750611f90565b5f808281548110611b8a57611b8a612dcb565b905f5260205f2090600c02019050604051806101200160405280826001015f9054906101000a90046001600160a01b03166001600160a01b03168152602001838152602001826009018054611bde90612bcf565b80601f0160208091040260200160405190810160405280929190818152602001828054611c0a90612bcf565b8015611c555780601f10611c2c57610100808354040283529160200191611c55565b820191905f5260205f20905b815481529060010190602001808311611c3857829003601f168201915b50505091835250506005830154602080830182905260408084018390528051610180810182528654815260018701546001600160a01b0316818401526002870154818301526003808801546060838101919091526004890154608084015260a0830195909552600688015460c0830152600788015460ff908116151560e08401528351808701855260088a0180548084161515835261010080820485161515988401989098529790980197611f309794968b969088019592949193908501926201000090041690811115611d2b57611d2b61294f565b6003811115611d3c57611d3c61294f565b815250508152602001600982018054611d5490612bcf565b80601f0160208091040260200160405190810160405280929190818152602001828054611d8090612bcf565b8015611dcb5780601f10611da257610100808354040283529160200191611dcb565b820191905f5260205f20905b815481529060010190602001808311611dae57829003601f168201915b50505050508152602001600a82018054611de490612bcf565b80601f0160208091040260200160405190810160405280929190818152602001828054611e1090612bcf565b8015611e5b5780601f10611e3257610100808354040283529160200191611e5b565b820191905f5260205f20905b815481529060010190602001808311611e3e57829003601f168201915b50505050508152602001600b8201805480602002602001604051908101604052809291908181526020015f905b82821015610e29578382905f5260205f20018054611ea590612bcf565b80601f0160208091040260200160405190810160405280929190818152602001828054611ed190612bcf565b8015611f1c5780601f10611ef357610100808354040283529160200191611f1c565b820191905f5260205f20905b815481529060010190602001808311611eff57829003601f168201915b505050505081526020019060010190611e88565b6003811115611f4157611f4161294f565b815260200182600201548152602001826003015481526020018260060154815250858581518110611f7457611f74612dcb565b60200260200101819052508380611f8a90612e22565b94505050505b600101611b1e565b509095945050505050565b5f8054821115611ffa5760405162461bcd60e51b815260206004820152600c60248201527f506f6c6c4e6f74466f756e64000000000000000000000000000000000000000060448201526064015b60405180910390fd5b5f80838154811061200d5761200d612dcb565b5f9182526020909120600c90910201600781015490915060ff161561089d576040516302708a4d60e21b815260048101849052602401611ff1565b5f60038361010001516040015160038111156120665761206661294f565b0361207257505f61089d565b600183610100015160400151600381111561208f5761208f61294f565b1480156120c0575082515f9081526004602090815260408083206001600160a01b038616845290915290205460ff16155b156120cc57505f61089d565b60028361010001516040015160038111156120e9576120e961294f565b148015612110575060026120fc84612447565b600381111561210d5761210d61294f565b14155b80156121365750600361212284612447565b60038111156121335761213361294f565b14155b1561214257505f61089d565b50600192915050565b610160810151516060905f8167ffffffffffffffff81111561216f5761216f612c07565b6040519080825280602002602001820160405280156121b457816020015b60408051808201909152606081525f602082015281526020019060019003908161218d5790505b5090505f5b8281101561223257604051806040016040528086610160015183815181106121e3576121e3612dcb565b602090810291909101810151825287515f9081526006825260408082208683528352902054910152825183908390811061221f5761221f612dcb565b60209081029190910101526001016121b9565b509392505050565b80600381101561225d576040516324ace35560e01b815260040160405180910390fd5b606481111561227f57604051632b5df40f60e21b815260040160405180910390fd5b505050565b8080158015906122945750600a81105b156122b257604051631b0bf73560e21b815260040160405180910390fd5b6103e881111561227f57604051631b0fce8360e01b815260040160405180910390fd5b428210156122f657604051633eb2d8c560e01b815260040160405180910390fd5b818111612316576040516371f3286160e11b815260040160405180910390fd5b5050565b80600281101561233d57604051638ee5f57d60e01b815260040160405180910390fd5b600a81111561235f5760405163701d39f160e11b815260040160405180910390fd5b5f5b818110156123e4575f84848381811061237c5761237c612dcb565b905060200281019061238e9190612ddf565b91505060018110156123b6576040516323bae5c560e11b815260048101839052602401611ff1565b60648111156123db57604051631e8a182560e21b815260048101839052602401611ff1565b50600101612361565b50505050565b6123fa6040820160208301612d2d565b8015612426575060026124136060830160408401612e9d565b60038111156124245761242461294f565b145b156124445760405163dc2ca70160e01b815260040160405180910390fd5b50565b5f428260400151111561245b57505f919050565b816060015160010361246f57506003919050565b60018260600151118015612487575042826060015111155b1561249457506002919050565b506001919050565b828054828255905f5260205f209081019282156124d5579160200282015b828111156124d55782358255916020019190600101906124ba565b506124e19291506125dd565b5090565b604051806101a001604052805f6001600160a01b0316815260200160608152602001606081526020015f81526020015f8152602001606081526020015f81526020015f81526020015f600381111561253f5761253f61294f565b8152602001612564604080516060810182525f80825260208201819052909182015290565b81526020015f15158152602001606081526020015f81525090565b6040518061012001604052805f6001600160a01b031681526020015f8152602001606081526020015f81526020015f81526020015f60038111156125c5576125c561294f565b81526020015f81526020015f81526020015f81525090565b5b808211156124e1575f81556001016125de565b80356001600160a01b0381168114612607575f80fd5b919050565b5f806040838503121561261d575f80fd5b8235915061262d602084016125f1565b90509250929050565b5f81518084528060208401602086015e5f602082860101526020601f19601f83011685010191505092915050565b5f6020808352835160c08285015261267f60e0850182612636565b90508185015160406001600160a01b0382166040870152604087015160608701526060870151608087015260808701519150601f19808785030160a08801528383518086528686019150868160051b87010187860195505f5b828110156127175784888303018452865180518784526126fa88850182612636565b918b0151938b0193909352968901969389019391506001016126d8565b5060a08b015160c08b0152809850505050505050505092915050565b5f60208284031215612743575f80fd5b5035919050565b5f8083601f84011261275a575f80fd5b50813567ffffffffffffffff811115612771575f80fd5b602083019150836020828501011115612788575f80fd5b9250929050565b5f8083601f84011261279f575f80fd5b50813567ffffffffffffffff8111156127b6575f80fd5b6020830191508360208260051b8501011115612788575f80fd5b5f805f805f805f805f898b036101008112156127ea575f80fd5b8a3567ffffffffffffffff80821115612801575f80fd5b61280d8e838f0161274a565b909c509a5060208d0135915080821115612825575f80fd5b6128318e838f0161274a565b909a50985060408d0135975060608d0135965060808d0135915080821115612857575f80fd5b506128648d828e0161278f565b9095509350506060609f198201121561287b575f80fd5b5060a08a0190509295985092959850929598565b5f805f604084860312156128a1575f80fd5b83359250602084013567ffffffffffffffff8111156128be575f80fd5b6128ca8682870161278f565b9497909650939450505050565b5f602082840312156128e7575f80fd5b6128f0826125f1565b9392505050565b5f8282518085526020808601955060208260051b840101602086015f5b8481101561294257601f19868403018952612930838351612636565b98840198925090830190600101612914565b5090979650505050505050565b634e487b7160e01b5f52602160045260245ffd5b6004811061244457634e487b7160e01b5f52602160045260245ffd5b61298881612963565b9052565b80511515825260208101511515602083015260408101516129ac81612963565b806040840152505050565b5f815180845260208085019450602084015f5b838110156129e6578151875295820195908201906001016129ca565b509495945050505050565b60208152612a0b6020820183516001600160a01b03169052565b5f60208301516101e0806040850152612a28610200850183612636565b91506040850151601f1980868503016060870152612a468483612636565b935060608701516080870152608087015160a087015260a08701519150808685030160c0870152612a7784836128f7565b935060c087015160e087015260e08701519150610100828188015280880151925050610120612aa88188018461297f565b8701519150610140612abc8782018461298c565b87015115156101a08701526101608701518685039091016101c08701529050612ae583826129b7565b92505061018085015181850152508091505092915050565b5f60208083018184528085518083526040925060408601915060408160051b8701018488015f5b83811015612bc157888303603f19018552815180516001600160a01b031684526101208882015189860152878201518189870152612b6482870182612636565b9150506060808301518187015250608080830151818701525060a080830151612b8f8288018261297f565b505060c0828101519086015260e080830151908601526101009182015191909401529386019390860190600101612b24565b509098975050505050505050565b600181811c90821680612be357607f821691505b602082108103612c0157634e487b7160e01b5f52602260045260245ffd5b50919050565b634e487b7160e01b5f52604160045260245ffd5b601f82111561227f57805f5260205f20601f840160051c81016020851015612c405750805b601f840160051c820191505b81811015612c5f575f8155600101612c4c565b5050505050565b67ffffffffffffffff831115612c7e57612c7e612c07565b612c9283612c8c8354612bcf565b83612c1b565b5f601f841160018114612cc3575f8515612cac5750838201355b5f19600387901b1c1916600186901b178355612c5f565b5f83815260208120601f198716915b82811015612cf25786850135825560209485019460019092019101612cd2565b5086821015612d0e575f1960f88860031b161c19848701351681555b505060018560011b0183555050505050565b8015158114612444575f80fd5b5f60208284031215612d3d575f80fd5b81356128f081612d20565b60048110612444575f80fd5b8135612d5f81612d20565b815460ff19811691151560ff1691821783556020840135612d7f81612d20565b61ff0090151560081b1661ffff1982168317811784556040850135612da381612d48565b612dac81612963565b62ff00008160101b168462ffffff198516178317178555505050505050565b634e487b7160e01b5f52603260045260245ffd5b5f808335601e19843603018112612df4575f80fd5b83018035915067ffffffffffffffff821115612e0e575f80fd5b602001915036819003821315612788575f80fd5b5f60018201612e3f57634e487b7160e01b5f52601160045260245ffd5b5060010190565b838152604060208201528160408201525f7f07ffffffffffffffffffffffffffffffffffffffffffffffffffffffffffffff831115612e83575f80fd5b8260051b8085606085013791909101606001949350505050565b5f60208284031215612ead575f80fd5b81356128f081612d4856fea2646970667358221220d7819eb9eb5589ec114ddb878091aa359edc83035502f00b3dcab92fd9309bb564736f6c63430008190033",
      "opcodes": "PUSH1 0x80 PUSH1 0x40 MSTORE CALLVALUE DUP1 ISZERO PUSH1 0xE JUMPI PUSH0 DUP1 REVERT JUMPDEST POP PUSH2 0x2EEE DUP1 PUSH2 0x1C PUSH0 CODECOPY PUSH0 RETURN INVALID PUSH1 0x80 PUSH1 0x40 MSTORE CALLVALUE DUP1 ISZERO PUSH2 0xF JUMPI PUSH0 DUP1 REVERT JUMPDEST POP PUSH1 0x4 CALLDATASIZE LT PUSH2 0x85 JUMPI PUSH0 CALLDATALOAD PUSH1 0xE0 SHR DUP1 PUSH4 0x4E43603A GT PUSH2 0x58 JUMPI DUP1 PUSH4 0x4E43603A EQ PUSH2 0xFB JUMPI DUP1 PUSH4 0x9534E637 EQ PUSH2 0x174 JUMPI DUP1 PUSH4 0x9A0040E4 EQ PUSH2 0x187 JUMPI DUP1 PUSH4 0xDFCAAB88 EQ PUSH2 0x1A7 JUMPI PUSH0 DUP1 REVERT JUMPDEST DUP1 PUSH4 0x14956B6F EQ PUSH2 0x89 JUMPI DUP1 PUSH4 0x1F35B51D EQ PUSH2 0xB2 JUMPI DUP1 PUSH4 0x21B91DB5 EQ PUSH2 0xC7 JUMPI DUP1 PUSH4 0x2FA48E9E EQ PUSH2 0xE8 JUMPI JUMPDEST PUSH0 DUP1 REVERT JUMPDEST PUSH2 0x9C PUSH2 0x97 CALLDATASIZE PUSH1 0x4 PUSH2 0x260C JUMP JUMPDEST PUSH2 0x1BC JUMP JUMPDEST PUSH1 0x40 MLOAD PUSH2 0xA9 SWAP2 SWAP1 PUSH2 0x2664 JUMP JUMPDEST PUSH1 0x40 MLOAD DUP1 SWAP2 SUB SWAP1 RETURN JUMPDEST PUSH2 0xC5 PUSH2 0xC0 CALLDATASIZE PUSH1 0x4 PUSH2 0x2733 JUMP JUMPDEST PUSH2 0x8A3 JUMP JUMPDEST STOP JUMPDEST PUSH2 0xDA PUSH2 0xD5 CALLDATASIZE PUSH1 0x4 PUSH2 0x27D0 JUMP JUMPDEST PUSH2 0x92A JUMP JUMPDEST PUSH1 0x40 MLOAD SWAP1 DUP2 MSTORE PUSH1 0x20 ADD PUSH2 0xA9 JUMP JUMPDEST PUSH2 0xC5 PUSH2 0xF6 CALLDATASIZE PUSH1 0x4 PUSH2 0x288F JUMP JUMPDEST PUSH2 0xB5D JUMP JUMPDEST PUSH2 0x159 PUSH2 0x109 CALLDATASIZE PUSH1 0x4 PUSH2 0x28D7 JUMP JUMPDEST PUSH1 0x40 DUP1 MLOAD DUP1 DUP3 ADD DUP3 MSTORE PUSH0 DUP1 DUP3 MSTORE PUSH1 0x20 SWAP2 DUP3 ADD DUP2 SWAP1 MSTORE DUP3 MLOAD DUP1 DUP5 ADD DUP5 MSTORE DUP2 DUP2 MSTORE DUP1 DUP4 ADD DUP3 DUP2 MSTORE PUSH1 0x1 PUSH1 0x1 PUSH1 0xA0 SHL SUB SWAP6 SWAP1 SWAP6 AND DUP1 DUP4 MSTORE PUSH1 0x9 DUP5 MSTORE DUP5 DUP4 KECCAK256 SLOAD DUP3 MSTORE DUP3 MSTORE PUSH1 0x8 SWAP1 SWAP3 MSTORE SWAP2 SWAP1 SWAP2 KECCAK256 SLOAD SWAP1 SWAP2 MSTORE SWAP1 JUMP JUMPDEST PUSH1 0x40 DUP1 MLOAD DUP3 MLOAD DUP2 MSTORE PUSH1 0x20 SWAP3 DUP4 ADD MLOAD SWAP3 DUP2 ADD SWAP3 SWAP1 SWAP3 MSTORE ADD PUSH2 0xA9 JUMP JUMPDEST PUSH2 0xC5 PUSH2 0x182 CALLDATASIZE PUSH1 0x4 PUSH2 0x2733 JUMP JUMPDEST PUSH2 0x10C5 JUMP JUMPDEST PUSH2 0x19A PUSH2 0x195 CALLDATASIZE PUSH1 0x4 PUSH2 0x2733 JUMP JUMPDEST PUSH2 0x1425 JUMP JUMPDEST PUSH1 0x40 MLOAD PUSH2 0xA9 SWAP2 SWAP1 PUSH2 0x29F1 JUMP JUMPDEST PUSH2 0x1AF PUSH2 0x1A4B JUMP JUMPDEST PUSH1 0x40 MLOAD PUSH2 0xA9 SWAP2 SWAP1 PUSH2 0x2AFD JUMP JUMPDEST PUSH2 0x1FA PUSH1 0x40 MLOAD DUP1 PUSH1 0xC0 ADD PUSH1 0x40 MSTORE DUP1 PUSH1 0x60 DUP2 MSTORE PUSH1 0x20 ADD PUSH0 PUSH1 0x1 PUSH1 0x1 PUSH1 0xA0 SHL SUB AND DUP2 MSTORE PUSH1 0x20 ADD PUSH0 DUP2 MSTORE PUSH1 0x20 ADD PUSH0 DUP2 MSTORE PUSH1 0x20 ADD PUSH1 0x60 DUP2 MSTORE PUSH1 0x20 ADD PUSH0 DUP2 MSTORE POP SWAP1 JUMP JUMPDEST PUSH0 PUSH2 0x204 DUP5 PUSH2 0x1FA3 JUMP JUMPDEST PUSH1 0x40 DUP1 MLOAD PUSH2 0x180 DUP2 ADD DUP3 MSTORE DUP3 SLOAD DUP2 MSTORE PUSH1 0x1 DUP4 ADD SLOAD PUSH1 0x1 PUSH1 0x1 PUSH1 0xA0 SHL SUB AND PUSH1 0x20 DUP1 DUP4 ADD SWAP2 SWAP1 SWAP2 MSTORE PUSH1 0x2 DUP5 ADD SLOAD DUP3 DUP5 ADD MSTORE PUSH1 0x3 DUP1 DUP6 ADD SLOAD PUSH1 0x60 DUP1 DUP6 ADD SWAP2 SWAP1 SWAP2 MSTORE PUSH1 0x4 DUP7 ADD SLOAD PUSH1 0x80 DUP6 ADD MSTORE PUSH1 0x5 DUP7 ADD SLOAD PUSH1 0xA0 DUP6 ADD MSTORE PUSH1 0x6 DUP7 ADD SLOAD PUSH1 0xC0 DUP6 ADD MSTORE PUSH1 0x7 DUP7 ADD SLOAD PUSH1 0xFF SWAP1 DUP2 AND ISZERO ISZERO PUSH1 0xE0 DUP7 ADD MSTORE DUP6 MLOAD SWAP2 DUP3 ADD DUP7 MSTORE PUSH1 0x8 DUP8 ADD DUP1 SLOAD DUP1 DUP4 AND ISZERO ISZERO DUP5 MSTORE PUSH2 0x100 DUP1 DUP3 DIV DUP5 AND ISZERO ISZERO SWAP7 DUP6 ADD SWAP7 SWAP1 SWAP7 MSTORE SWAP8 SWAP9 POP PUSH2 0x4D8 SWAP8 SWAP6 SWAP7 DUP10 SWAP7 SWAP6 DUP9 ADD SWAP6 SWAP4 SWAP5 SWAP2 SWAP4 SWAP1 DUP6 ADD SWAP3 PUSH3 0x10000 SWAP1 SWAP2 DIV AND SWAP1 DUP2 GT ISZERO PUSH2 0x2C5 JUMPI PUSH2 0x2C5 PUSH2 0x294F JUMP JUMPDEST PUSH1 0x3 DUP2 GT ISZERO PUSH2 0x2D6 JUMPI PUSH2 0x2D6 PUSH2 0x294F JUMP JUMPDEST DUP2 MSTORE POP POP DUP2 MSTORE PUSH1 0x20 ADD PUSH1 0x9 DUP3 ADD DUP1 SLOAD PUSH2 0x2EE SWAP1 PUSH2 0x2BCF JUMP JUMPDEST DUP1 PUSH1 0x1F ADD PUSH1 0x20 DUP1 SWAP2 DIV MUL PUSH1 0x20 ADD PUSH1 0x40 MLOAD SWAP1 DUP2 ADD PUSH1 0x40 MSTORE DUP1 SWAP3 SWAP2 SWAP1 DUP2 DUP2 MSTORE PUSH1 0x20 ADD DUP3 DUP1 SLOAD PUSH2 0x31A SWAP1 PUSH2 0x2BCF JUMP JUMPDEST DUP1 ISZERO PUSH2 0x365 JUMPI DUP1 PUSH1 0x1F LT PUSH2 0x33C JUMPI PUSH2 0x100 DUP1 DUP4 SLOAD DIV MUL DUP4 MSTORE SWAP2 PUSH1 0x20 ADD SWAP2 PUSH2 0x365 JUMP JUMPDEST DUP3 ADD SWAP2 SWAP1 PUSH0 MSTORE PUSH1 0x20 PUSH0 KECCAK256 SWAP1 JUMPDEST DUP2 SLOAD DUP2 MSTORE SWAP1 PUSH1 0x1 ADD SWAP1 PUSH1 0x20 ADD DUP1 DUP4 GT PUSH2 0x348 JUMPI DUP3 SWAP1 SUB PUSH1 0x1F AND DUP3 ADD SWAP2 JUMPDEST POP POP POP POP POP DUP2 MSTORE PUSH1 0x20 ADD PUSH1 0xA DUP3 ADD DUP1 SLOAD PUSH2 0x37E SWAP1 PUSH2 0x2BCF JUMP JUMPDEST DUP1 PUSH1 0x1F ADD PUSH1 0x20 DUP1 SWAP2 DIV MUL PUSH1 0x20 ADD PUSH1 0x40 MLOAD SWAP1 DUP2 ADD PUSH1 0x40 MSTORE DUP1 SWAP3 SWAP2 SWAP1 DUP2 DUP2 MSTORE PUSH1 0x20 ADD DUP3 DUP1 SLOAD PUSH2 0x3AA SWAP1 PUSH2 0x2BCF JUMP JUMPDEST DUP1 ISZERO PUSH2 0x3F5 JUMPI DUP1 PUSH1 0x1F LT PUSH2 0x3CC JUMPI PUSH2 0x100 DUP1 DUP4 SLOAD DIV MUL DUP4 MSTORE SWAP2 PUSH1 0x20 ADD SWAP2 PUSH2 0x3F5 JUMP JUMPDEST DUP3 ADD SWAP2 SWAP1 PUSH0 MSTORE PUSH1 0x20 PUSH0 KECCAK256 SWAP1 JUMPDEST DUP2 SLOAD DUP2 MSTORE SWAP1 PUSH1 0x1 ADD SWAP1 PUSH1 0x20 ADD DUP1 DUP4 GT PUSH2 0x3D8 JUMPI DUP3 SWAP1 SUB PUSH1 0x1F AND DUP3 ADD SWAP2 JUMPDEST POP POP POP POP POP DUP2 MSTORE PUSH1 0x20 ADD PUSH1 0xB DUP3 ADD DUP1 SLOAD DUP1 PUSH1 0x20 MUL PUSH1 0x20 ADD PUSH1 0x40 MLOAD SWAP1 DUP2 ADD PUSH1 0x40 MSTORE DUP1 SWAP3 SWAP2 SWAP1 DUP2 DUP2 MSTORE PUSH1 0x20 ADD PUSH0 SWAP1 JUMPDEST DUP3 DUP3 LT ISZERO PUSH2 0x4CA JUMPI DUP4 DUP3 SWAP1 PUSH0 MSTORE PUSH1 0x20 PUSH0 KECCAK256 ADD DUP1 SLOAD PUSH2 0x43F SWAP1 PUSH2 0x2BCF JUMP JUMPDEST DUP1 PUSH1 0x1F ADD PUSH1 0x20 DUP1 SWAP2 DIV MUL PUSH1 0x20 ADD PUSH1 0x40 MLOAD SWAP1 DUP2 ADD PUSH1 0x40 MSTORE DUP1 SWAP3 SWAP2 SWAP1 DUP2 DUP2 MSTORE PUSH1 0x20 ADD DUP3 DUP1 SLOAD PUSH2 0x46B SWAP1 PUSH2 0x2BCF JUMP JUMPDEST DUP1 ISZERO PUSH2 0x4B6 JUMPI DUP1 PUSH1 0x1F LT PUSH2 0x48D JUMPI PUSH2 0x100 DUP1 DUP4 SLOAD DIV MUL DUP4 MSTORE SWAP2 PUSH1 0x20 ADD SWAP2 PUSH2 0x4B6 JUMP JUMPDEST DUP3 ADD SWAP2 SWAP1 PUSH0 MSTORE PUSH1 0x20 PUSH0 KECCAK256 SWAP1 JUMPDEST DUP2 SLOAD DUP2 MSTORE SWAP1 PUSH1 0x1 ADD SWAP1 PUSH1 0x20 ADD DUP1 DUP4 GT PUSH2 0x499 JUMPI DUP3 SWAP1 SUB PUSH1 0x1F AND DUP3 ADD SWAP2 JUMPDEST POP POP POP POP POP DUP2 MSTORE PUSH1 0x20 ADD SWAP1 PUSH1 0x1 ADD SWAP1 PUSH2 0x422 JUMP JUMPDEST POP POP POP POP DUP2 MSTORE POP POP DUP5 PUSH2 0x2048 JUMP JUMPDEST PUSH2 0x4F5 JUMPI PUSH1 0x40 MLOAD PUSH4 0x4CA88867 PUSH1 0xE0 SHL DUP2 MSTORE PUSH1 0x4 ADD PUSH1 0x40 MLOAD DUP1 SWAP2 SUB SWAP1 REVERT JUMPDEST PUSH1 0x40 DUP1 MLOAD PUSH2 0x180 DUP2 ADD DUP3 MSTORE DUP3 SLOAD DUP2 MSTORE PUSH1 0x1 DUP4 ADD SLOAD PUSH1 0x1 PUSH1 0x1 PUSH1 0xA0 SHL SUB AND PUSH1 0x20 DUP1 DUP4 ADD SWAP2 SWAP1 SWAP2 MSTORE PUSH1 0x2 DUP5 ADD SLOAD DUP3 DUP5 ADD MSTORE PUSH1 0x3 DUP1 DUP6 ADD SLOAD PUSH1 0x60 DUP1 DUP6 ADD SWAP2 SWAP1 SWAP2 MSTORE PUSH1 0x4 DUP7 ADD SLOAD PUSH1 0x80 DUP6 ADD MSTORE PUSH1 0x5 DUP7 ADD SLOAD PUSH1 0xA0 DUP6 ADD MSTORE PUSH1 0x6 DUP7 ADD SLOAD PUSH1 0xC0 DUP6 ADD MSTORE PUSH1 0x7 DUP7 ADD SLOAD PUSH1 0xFF SWAP1 DUP2 AND ISZERO ISZERO PUSH1 0xE0 DUP7 ADD MSTORE DUP6 MLOAD SWAP2 DUP3 ADD DUP7 MSTORE PUSH1 0x8 DUP8 ADD DUP1 SLOAD DUP1 DUP4 AND ISZERO ISZERO DUP5 MSTORE PUSH2 0x100 DUP1 DUP3 DIV DUP5 AND ISZERO ISZERO SWAP7 DUP6 ADD SWAP7 SWAP1 SWAP7 MSTORE PUSH0 SWAP8 PUSH2 0x7C4 SWAP8 SWAP7 DUP11 SWAP7 SWAP1 DUP9 ADD SWAP6 SWAP5 SWAP2 DUP6 ADD SWAP3 PUSH3 0x10000 SWAP1 DIV SWAP1 SWAP2 AND SWAP1 DUP2 GT ISZERO PUSH2 0x5B2 JUMPI PUSH2 0x5B2 PUSH2 0x294F JUMP JUMPDEST PUSH1 0x3 DUP2 GT ISZERO PUSH2 0x5C3 JUMPI PUSH2 0x5C3 PUSH2 0x294F JUMP JUMPDEST DUP2 MSTORE POP POP DUP2 MSTORE PUSH1 0x20 ADD PUSH1 0x9 DUP3 ADD DUP1 SLOAD PUSH2 0x5DB SWAP1 PUSH2 0x2BCF JUMP JUMPDEST DUP1 PUSH1 0x1F ADD PUSH1 0x20 DUP1 SWAP2 DIV MUL PUSH1 0x20 ADD PUSH1 0x40 MLOAD SWAP1 DUP2 ADD PUSH1 0x40 MSTORE DUP1 SWAP3 SWAP2 SWAP1 DUP2 DUP2 MSTORE PUSH1 0x20 ADD DUP3 DUP1 SLOAD PUSH2 0x607 SWAP1 PUSH2 0x2BCF JUMP JUMPDEST DUP1 ISZERO PUSH2 0x652 JUMPI DUP1 PUSH1 0x1F LT PUSH2 0x629 JUMPI PUSH2 0x100 DUP1 DUP4 SLOAD DIV MUL DUP4 MSTORE SWAP2 PUSH1 0x20 ADD SWAP2 PUSH2 0x652 JUMP JUMPDEST DUP3 ADD SWAP2 SWAP1 PUSH0 MSTORE PUSH1 0x20 PUSH0 KECCAK256 SWAP1 JUMPDEST DUP2 SLOAD DUP2 MSTORE SWAP1 PUSH1 0x1 ADD SWAP1 PUSH1 0x20 ADD DUP1 DUP4 GT PUSH2 0x635 JUMPI DUP3 SWAP1 SUB PUSH1 0x1F AND DUP3 ADD SWAP2 JUMPDEST POP POP POP POP POP DUP2 MSTORE PUSH1 0x20 ADD PUSH1 0xA DUP3 ADD DUP1 SLOAD PUSH2 0x66B SWAP1 PUSH2 0x2BCF JUMP JUMPDEST DUP1 PUSH1 0x1F ADD PUSH1 0x20 DUP1 SWAP2 DIV MUL PUSH1 0x20 ADD PUSH1 0x40 MLOAD SWAP1 DUP2 ADD PUSH1 0x40 MSTORE DUP1 SWAP3 SWAP2 SWAP1 DUP2 DUP2 MSTORE PUSH1 0x20 ADD DUP3 DUP1 SLOAD PUSH2 0x697 SWAP1 PUSH2 0x2BCF JUMP JUMPDEST DUP1 ISZERO PUSH2 0x6E2 JUMPI DUP1 PUSH1 0x1F LT PUSH2 0x6B9 JUMPI PUSH2 0x100 DUP1 DUP4 SLOAD DIV MUL DUP4 MSTORE SWAP2 PUSH1 0x20 ADD SWAP2 PUSH2 0x6E2 JUMP JUMPDEST DUP3 ADD SWAP2 SWAP1 PUSH0 MSTORE PUSH1 0x20 PUSH0 KECCAK256 SWAP1 JUMPDEST DUP2 SLOAD DUP2 MSTORE SWAP1 PUSH1 0x1 ADD SWAP1 PUSH1 0x20 ADD DUP1 DUP4 GT PUSH2 0x6C5 JUMPI DUP3 SWAP1 SUB PUSH1 0x1F AND DUP3 ADD SWAP2 JUMPDEST POP POP POP POP POP DUP2 MSTORE PUSH1 0x20 ADD PUSH1 0xB DUP3 ADD DUP1 SLOAD DUP1 PUSH1 0x20 MUL PUSH1 0x20 ADD PUSH1 0x40 MLOAD SWAP1 DUP2 ADD PUSH1 0x40 MSTORE DUP1 SWAP3 SWAP2 SWAP1 DUP2 DUP2 MSTORE PUSH1 0x20 ADD PUSH0 SWAP1 JUMPDEST DUP3 DUP3 LT ISZERO PUSH2 0x7B7 JUMPI DUP4 DUP3 SWAP1 PUSH0 MSTORE PUSH1 0x20 PUSH0 KECCAK256 ADD DUP1 SLOAD PUSH2 0x72C SWAP1 PUSH2 0x2BCF JUMP JUMPDEST DUP1 PUSH1 0x1F ADD PUSH1 0x20 DUP1 SWAP2 DIV MUL PUSH1 0x20 ADD PUSH1 0x40 MLOAD SWAP1 DUP2 ADD PUSH1 0x40 MSTORE DUP1 SWAP3 SWAP2 SWAP1 DUP2 DUP2 MSTORE PUSH1 0x20 ADD DUP3 DUP1 SLOAD PUSH2 0x758 SWAP1 PUSH2 0x2BCF JUMP JUMPDEST DUP1 ISZERO PUSH2 0x7A3 JUMPI DUP1 PUSH1 0x1F LT PUSH2 0x77A JUMPI PUSH2 0x100 DUP1 DUP4 SLOAD DIV MUL DUP4 MSTORE SWAP2 PUSH1 0x20 ADD SWAP2 PUSH2 0x7A3 JUMP JUMPDEST DUP3 ADD SWAP2 SWAP1 PUSH0 MSTORE PUSH1 0x20 PUSH0 KECCAK256 SWAP1 JUMPDEST DUP2 SLOAD DUP2 MSTORE SWAP1 PUSH1 0x1 ADD SWAP1 PUSH1 0x20 ADD DUP1 DUP4 GT PUSH2 0x786 JUMPI DUP3 SWAP1 SUB PUSH1 0x1F AND DUP3 ADD SWAP2 JUMPDEST POP POP POP POP POP DUP2 MSTORE PUSH1 0x20 ADD SWAP1 PUSH1 0x1 ADD SWAP1 PUSH2 0x70F JUMP JUMPDEST POP POP POP POP DUP2 MSTORE POP POP PUSH2 0x214B JUMP JUMPDEST SWAP1 POP PUSH1 0x40 MLOAD DUP1 PUSH1 0xC0 ADD PUSH1 0x40 MSTORE DUP1 DUP4 PUSH1 0x9 ADD DUP1 SLOAD PUSH2 0x7E0 SWAP1 PUSH2 0x2BCF JUMP JUMPDEST DUP1 PUSH1 0x1F ADD PUSH1 0x20 DUP1 SWAP2 DIV MUL PUSH1 0x20 ADD PUSH1 0x40 MLOAD SWAP1 DUP2 ADD PUSH1 0x40 MSTORE DUP1 SWAP3 SWAP2 SWAP1 DUP2 DUP2 MSTORE PUSH1 0x20 ADD DUP3 DUP1 SLOAD PUSH2 0x80C SWAP1 PUSH2 0x2BCF JUMP JUMPDEST DUP1 ISZERO PUSH2 0x857 JUMPI DUP1 PUSH1 0x1F LT PUSH2 0x82E JUMPI PUSH2 0x100 DUP1 DUP4 SLOAD DIV MUL DUP4 MSTORE SWAP2 PUSH1 0x20 ADD SWAP2 PUSH2 0x857 JUMP JUMPDEST DUP3 ADD SWAP2 SWAP1 PUSH0 MSTORE PUSH1 0x20 PUSH0 KECCAK256 SWAP1 JUMPDEST DUP2 SLOAD DUP2 MSTORE SWAP1 PUSH1 0x1 ADD SWAP1 PUSH1 0x20 ADD DUP1 DUP4 GT PUSH2 0x83A JUMPI DUP3 SWAP1 SUB PUSH1 0x1F AND DUP3 ADD SWAP2 JUMPDEST POP POP POP SWAP2 DUP4 MSTORE POP POP PUSH1 0x1 DUP5 ADD SLOAD PUSH1 0x1 PUSH1 0x1 PUSH1 0xA0 SHL SUB AND PUSH1 0x20 DUP3 ADD MSTORE PUSH1 0x4 DUP5 ADD SLOAD PUSH1 0x40 DUP3 ADD MSTORE PUSH1 0x5 DUP5 ADD SLOAD PUSH1 0x60 DUP3 ADD MSTORE PUSH1 0x80 DUP2 ADD SWAP3 SWAP1 SWAP3 MSTORE PUSH1 0x6 SWAP1 SWAP3 ADD SLOAD PUSH1 0xA0 SWAP1 SWAP2 ADD MSTORE SWAP1 POP JUMPDEST SWAP3 SWAP2 POP POP JUMP JUMPDEST PUSH0 PUSH2 0x8AD DUP3 PUSH2 0x1FA3 JUMP JUMPDEST PUSH1 0x1 DUP2 ADD SLOAD SWAP1 SWAP2 POP PUSH1 0x1 PUSH1 0x1 PUSH1 0xA0 SHL SUB AND CALLER EQ PUSH2 0x8DD JUMPI PUSH1 0x40 MLOAD PUSH4 0x4CA88867 PUSH1 0xE0 SHL DUP2 MSTORE PUSH1 0x4 ADD PUSH1 0x40 MLOAD DUP1 SWAP2 SUB SWAP1 REVERT JUMPDEST PUSH1 0x7 DUP2 ADD DUP1 SLOAD PUSH1 0xFF NOT AND PUSH1 0x1 SWAP1 DUP2 OR SWAP1 SWAP2 SSTORE DUP2 ADD SLOAD PUSH1 0x40 MLOAD DUP4 SWAP2 PUSH1 0x1 PUSH1 0x1 PUSH1 0xA0 SHL SUB AND SWAP1 PUSH32 0x8E6C50D6B1CCB63B8C9DBAEC72E0535801412CDA407271616BB03A6096D75F9D SWAP1 PUSH0 SWAP1 LOG3 POP POP JUMP JUMPDEST PUSH0 PUSH2 0x935 DUP11 DUP11 PUSH2 0x223A JUMP JUMPDEST PUSH2 0x93F DUP9 DUP9 PUSH2 0x2284 JUMP JUMPDEST PUSH2 0x949 DUP7 DUP7 PUSH2 0x22D5 JUMP JUMPDEST PUSH2 0x953 DUP5 DUP5 PUSH2 0x231A JUMP JUMPDEST PUSH2 0x95C DUP3 PUSH2 0x23EA JUMP JUMPDEST PUSH0 DUP1 SLOAD PUSH1 0x1 DUP2 ADD DUP3 SSTORE SWAP1 DUP1 MSTORE PUSH32 0x290DECD9548B62A8D60345A988386FC84BA6BC95484008F6362F93160EF3E564 PUSH1 0xC DUP3 MUL SWAP1 DUP2 ADD DUP1 SLOAD PUSH32 0xFFFFFFFFFFFFFFFFFFFFFFFF0000000000000000000000000000000000000000 AND CALLER OR SWAP1 SSTORE PUSH32 0x290DECD9548B62A8D60345A988386FC84BA6BC95484008F6362F93160EF3E563 DUP2 ADD DUP3 DUP2 SSTORE SWAP1 PUSH32 0x290DECD9548B62A8D60345A988386FC84BA6BC95484008F6362F93160EF3E56C ADD PUSH2 0xA0C DUP13 DUP15 DUP4 PUSH2 0x2C66 JUMP JUMPDEST POP PUSH1 0xA DUP2 ADD PUSH2 0xA1C DUP11 DUP13 DUP4 PUSH2 0x2C66 JUMP JUMPDEST POP PUSH1 0x2 DUP2 ADD DUP9 SWAP1 SSTORE PUSH2 0xA34 PUSH1 0x40 DUP6 ADD PUSH1 0x20 DUP7 ADD PUSH2 0x2D2D JUMP JUMPDEST PUSH2 0xA3E JUMPI DUP7 PUSH2 0xA40 JUMP JUMPDEST PUSH0 JUMPDEST PUSH1 0x3 DUP3 ADD SSTORE PUSH0 PUSH1 0x4 DUP3 ADD DUP2 SWAP1 SSTORE PUSH1 0x5 DUP3 ADD SSTORE DUP4 PUSH1 0x8 DUP3 ADD PUSH2 0xA61 DUP3 DUP3 PUSH2 0x2D54 JUMP JUMPDEST POP POP TIMESTAMP PUSH1 0x6 DUP3 ADD SSTORE PUSH1 0x7 DUP2 ADD DUP1 SLOAD PUSH1 0xFF NOT AND SWAP1 SSTORE PUSH0 JUMPDEST DUP6 DUP2 LT ISZERO PUSH2 0xACF JUMPI DUP2 PUSH1 0xB ADD DUP8 DUP8 DUP4 DUP2 DUP2 LT PUSH2 0xA95 JUMPI PUSH2 0xA95 PUSH2 0x2DCB JUMP JUMPDEST SWAP1 POP PUSH1 0x20 MUL DUP2 ADD SWAP1 PUSH2 0xAA7 SWAP2 SWAP1 PUSH2 0x2DDF JUMP JUMPDEST DUP3 SLOAD PUSH1 0x1 DUP2 ADD DUP5 SSTORE PUSH0 SWAP4 DUP5 MSTORE PUSH1 0x20 SWAP1 SWAP4 KECCAK256 SWAP1 SWAP3 ADD SWAP2 PUSH2 0xAC6 SWAP2 DUP4 PUSH2 0x2C66 JUMP JUMPDEST POP PUSH1 0x1 ADD PUSH2 0xA77 JUMP JUMPDEST POP CALLER PUSH0 DUP2 DUP2 MSTORE PUSH1 0x3 PUSH1 0x20 SWAP1 DUP2 MSTORE PUSH1 0x40 DUP1 DUP4 KECCAK256 DUP1 SLOAD PUSH1 0x1 DUP2 ADD DUP3 SSTORE SWAP1 DUP5 MSTORE DUP3 DUP5 KECCAK256 ADD DUP7 SWAP1 SSTORE SWAP3 DUP3 MSTORE PUSH1 0x9 SWAP1 MSTORE SWAP1 DUP2 KECCAK256 DUP1 SLOAD SWAP2 PUSH2 0xB09 DUP4 PUSH2 0x2E22 JUMP JUMPDEST SWAP1 SWAP2 SSTORE POP POP PUSH1 0x1 DUP1 SLOAD SWAP1 PUSH0 PUSH2 0xB1D DUP4 PUSH2 0x2E22 JUMP JUMPDEST SWAP1 SWAP2 SSTORE POP POP PUSH1 0x40 MLOAD DUP3 SWAP1 CALLER SWAP1 PUSH32 0x253458ED40D765E300EF79D87F8B5A901191FBFC27D54B1EA052A6752908953C SWAP1 PUSH0 SWAP1 LOG3 POP SWAP11 SWAP10 POP POP POP POP POP POP POP POP POP POP JUMP JUMPDEST PUSH0 PUSH2 0xB67 DUP5 PUSH2 0x1FA3 JUMP JUMPDEST SWAP1 POP PUSH1 0x1 PUSH1 0x40 DUP1 MLOAD PUSH2 0x180 DUP2 ADD DUP3 MSTORE DUP4 SLOAD DUP2 MSTORE PUSH1 0x1 DUP5 ADD SLOAD PUSH1 0x1 PUSH1 0x1 PUSH1 0xA0 SHL SUB AND PUSH1 0x20 DUP1 DUP4 ADD SWAP2 SWAP1 SWAP2 MSTORE PUSH1 0x2 DUP6 ADD SLOAD DUP3 DUP5 ADD MSTORE PUSH1 0x3 DUP1 DUP7 ADD SLOAD PUSH1 0x60 DUP1 DUP6 ADD SWAP2 SWAP1 SWAP2 MSTORE PUSH1 0x4 DUP8 ADD SLOAD PUSH1 0x80 DUP6 ADD MSTORE PUSH1 0x5 DUP8 ADD SLOAD PUSH1 0xA0 DUP6 ADD MSTORE PUSH1 0x6 DUP8 ADD SLOAD PUSH1 0xC0 DUP6 ADD MSTORE PUSH1 0x7 DUP8 ADD SLOAD PUSH1 0xFF SWAP1 DUP2 AND ISZERO ISZERO PUSH1 0xE0 DUP7 ADD MSTORE DUP6 MLOAD SWAP2 DUP3 ADD DUP7 MSTORE PUSH1 0x8 DUP9 ADD DUP1 SLOAD DUP1 DUP4 AND ISZERO ISZERO DUP5 MSTORE PUSH2 0x100 DUP1 DUP3 DIV DUP5 AND ISZERO ISZERO SWAP7 DUP6 ADD SWAP7 SWAP1 SWAP7 MSTORE PUSH2 0xE36 SWAP8 DUP11 SWAP7 DUP9 ADD SWAP6 SWAP3 SWAP4 SWAP1 DUP6 ADD SWAP3 PUSH3 0x10000 SWAP1 SWAP3 DIV AND SWAP1 DUP2 GT ISZERO PUSH2 0xC24 JUMPI PUSH2 0xC24 PUSH2 0x294F JUMP JUMPDEST PUSH1 0x3 DUP2 GT ISZERO PUSH2 0xC35 JUMPI PUSH2 0xC35 PUSH2 0x294F JUMP JUMPDEST DUP2 MSTORE POP POP DUP2 MSTORE PUSH1 0x20 ADD PUSH1 0x9 DUP3 ADD DUP1 SLOAD PUSH2 0xC4D SWAP1 PUSH2 0x2BCF JUMP JUMPDEST DUP1 PUSH1 0x1F ADD PUSH1 0x20 DUP1 SWAP2 DIV MUL PUSH1 0x20 ADD PUSH1 0x40 MLOAD SWAP1 DUP2 ADD PUSH1 0x40 MSTORE DUP1 SWAP3 SWAP2 SWAP1 DUP2 DUP2 MSTORE PUSH1 0x20 ADD DUP3 DUP1 SLOAD PUSH2 0xC79 SWAP1 PUSH2 0x2BCF JUMP JUMPDEST DUP1 ISZERO PUSH2 0xCC4 JUMPI DUP1 PUSH1 0x1F LT PUSH2 0xC9B JUMPI PUSH2 0x100 DUP1 DUP4 SLOAD DIV MUL DUP4 MSTORE SWAP2 PUSH1 0x20 ADD SWAP2 PUSH2 0xCC4 JUMP JUMPDEST DUP3 ADD SWAP2 SWAP1 PUSH0 MSTORE PUSH1 0x20 PUSH0 KECCAK256 SWAP1 JUMPDEST DUP2 SLOAD DUP2 MSTORE SWAP1 PUSH1 0x1 ADD SWAP1 PUSH1 0x20 ADD DUP1 DUP4 GT PUSH2 0xCA7 JUMPI DUP3 SWAP1 SUB PUSH1 0x1F AND DUP3 ADD SWAP2 JUMPDEST POP POP POP POP POP DUP2 MSTORE PUSH1 0x20 ADD PUSH1 0xA DUP3 ADD DUP1 SLOAD PUSH2 0xCDD SWAP1 PUSH2 0x2BCF JUMP JUMPDEST DUP1 PUSH1 0x1F ADD PUSH1 0x20 DUP1 SWAP2 DIV MUL PUSH1 0x20 ADD PUSH1 0x40 MLOAD SWAP1 DUP2 ADD PUSH1 0x40 MSTORE DUP1 SWAP3 SWAP2 SWAP1 DUP2 DUP2 MSTORE PUSH1 0x20 ADD DUP3 DUP1 SLOAD PUSH2 0xD09 SWAP1 PUSH2 0x2BCF JUMP JUMPDEST DUP1 ISZERO PUSH2 0xD54 JUMPI DUP1 PUSH1 0x1F LT PUSH2 0xD2B JUMPI PUSH2 0x100 DUP1 DUP4 SLOAD DIV MUL DUP4 MSTORE SWAP2 PUSH1 0x20 ADD SWAP2 PUSH2 0xD54 JUMP JUMPDEST DUP3 ADD SWAP2 SWAP1 PUSH0 MSTORE PUSH1 0x20 PUSH0 KECCAK256 SWAP1 JUMPDEST DUP2 SLOAD DUP2 MSTORE SWAP1 PUSH1 0x1 ADD SWAP1 PUSH1 0x20 ADD DUP1 DUP4 GT PUSH2 0xD37 JUMPI DUP3 SWAP1 SUB PUSH1 0x1F AND DUP3 ADD SWAP2 JUMPDEST POP POP POP POP POP DUP2 MSTORE PUSH1 0x20 ADD PUSH1 0xB DUP3 ADD DUP1 SLOAD DUP1 PUSH1 0x20 MUL PUSH1 0x20 ADD PUSH1 0x40 MLOAD SWAP1 DUP2 ADD PUSH1 0x40 MSTORE DUP1 SWAP3 SWAP2 SWAP1 DUP2 DUP2 MSTORE PUSH1 0x20 ADD PUSH0 SWAP1 JUMPDEST DUP3 DUP3 LT ISZERO PUSH2 0xE29 JUMPI DUP4 DUP3 SWAP1 PUSH0 MSTORE PUSH1 0x20 PUSH0 KECCAK256 ADD DUP1 SLOAD PUSH2 0xD9E SWAP1 PUSH2 0x2BCF JUMP JUMPDEST DUP1 PUSH1 0x1F ADD PUSH1 0x20 DUP1 SWAP2 DIV MUL PUSH1 0x20 ADD PUSH1 0x40 MLOAD SWAP1 DUP2 ADD PUSH1 0x40 MSTORE DUP1 SWAP3 SWAP2 SWAP1 DUP2 DUP2 MSTORE PUSH1 0x20 ADD DUP3 DUP1 SLOAD PUSH2 0xDCA SWAP1 PUSH2 0x2BCF JUMP JUMPDEST DUP1 ISZERO PUSH2 0xE15 JUMPI DUP1 PUSH1 0x1F LT PUSH2 0xDEC JUMPI PUSH2 0x100 DUP1 DUP4 SLOAD DIV MUL DUP4 MSTORE SWAP2 PUSH1 0x20 ADD SWAP2 PUSH2 0xE15 JUMP JUMPDEST DUP3 ADD SWAP2 SWAP1 PUSH0 MSTORE PUSH1 0x20 PUSH0 KECCAK256 SWAP1 JUMPDEST DUP2 SLOAD DUP2 MSTORE SWAP1 PUSH1 0x1 ADD SWAP1 PUSH1 0x20 ADD DUP1 DUP4 GT PUSH2 0xDF8 JUMPI DUP3 SWAP1 SUB PUSH1 0x1F AND DUP3 ADD SWAP2 JUMPDEST POP POP POP POP POP DUP2 MSTORE PUSH1 0x20 ADD SWAP1 PUSH1 0x1 ADD SWAP1 PUSH2 0xD81 JUMP JUMPDEST POP POP POP POP DUP2 MSTORE POP POP PUSH2 0x2447 JUMP JUMPDEST PUSH1 0x3 DUP2 GT ISZERO PUSH2 0xE47 JUMPI PUSH2 0xE47 PUSH2 0x294F JUMP JUMPDEST EQ PUSH2 0xE65 JUMPI PUSH1 0x40 MLOAD PUSH4 0xB4F0E2D9 PUSH1 0xE0 SHL DUP2 MSTORE PUSH1 0x4 ADD PUSH1 0x40 MLOAD DUP1 SWAP2 SUB SWAP1 REVERT JUMPDEST PUSH0 DUP5 DUP2 MSTORE PUSH1 0x4 PUSH1 0x20 SWAP1 DUP2 MSTORE PUSH1 0x40 DUP1 DUP4 KECCAK256 CALLER DUP5 MSTORE SWAP1 SWAP2 MSTORE SWAP1 KECCAK256 SLOAD PUSH1 0xFF AND ISZERO PUSH2 0xE9F JUMPI PUSH1 0x40 MLOAD PUSH4 0x7C9A1CF9 PUSH1 0xE0 SHL DUP2 MSTORE PUSH1 0x4 ADD PUSH1 0x40 MLOAD DUP1 SWAP2 SUB SWAP1 REVERT JUMPDEST DUP2 PUSH0 DUP2 SWAP1 SUB PUSH2 0xEC1 JUMPI PUSH1 0x40 MLOAD PUSH4 0xBE5A2ACD PUSH1 0xE0 SHL DUP2 MSTORE PUSH1 0x4 ADD PUSH1 0x40 MLOAD DUP1 SWAP2 SUB SWAP1 REVERT JUMPDEST PUSH1 0x8 DUP3 ADD SLOAD PUSH1 0xFF AND ISZERO DUP1 ISZERO PUSH2 0xED6 JUMPI POP PUSH1 0x1 DUP2 GT JUMPDEST ISZERO PUSH2 0xEF4 JUMPI PUSH1 0x40 MLOAD PUSH4 0xBAABD107 PUSH1 0xE0 SHL DUP2 MSTORE PUSH1 0x4 ADD PUSH1 0x40 MLOAD DUP1 SWAP2 SUB SWAP1 REVERT JUMPDEST PUSH0 JUMPDEST DUP2 DUP2 LT ISZERO PUSH2 0x100B JUMPI PUSH0 DUP6 DUP6 DUP4 DUP2 DUP2 LT PUSH2 0xF11 JUMPI PUSH2 0xF11 PUSH2 0x2DCB JUMP JUMPDEST SWAP1 POP PUSH1 0x20 MUL ADD CALLDATALOAD SWAP1 POP DUP4 PUSH1 0xB ADD DUP1 SLOAD SWAP1 POP DUP2 LT PUSH2 0xF41 JUMPI PUSH1 0x40 MLOAD PUSH4 0x70039A25 PUSH1 0xE0 SHL DUP2 MSTORE PUSH1 0x4 ADD PUSH1 0x40 MLOAD DUP1 SWAP2 SUB SWAP1 REVERT JUMPDEST PUSH0 JUMPDEST DUP3 DUP2 LT ISZERO PUSH2 0xFA3 JUMPI DUP7 DUP7 DUP3 DUP2 DUP2 LT PUSH2 0xF5D JUMPI PUSH2 0xF5D PUSH2 0x2DCB JUMP JUMPDEST SWAP1 POP PUSH1 0x20 MUL ADD CALLDATALOAD DUP8 DUP8 DUP6 DUP2 DUP2 LT PUSH2 0xF76 JUMPI PUSH2 0xF76 PUSH2 0x2DCB JUMP JUMPDEST SWAP1 POP PUSH1 0x20 MUL ADD CALLDATALOAD SUB PUSH2 0xF9B JUMPI PUSH1 0x40 MLOAD PUSH4 0xFE3EE13 PUSH1 0xE1 SHL DUP2 MSTORE PUSH1 0x4 ADD PUSH1 0x40 MLOAD DUP1 SWAP2 SUB SWAP1 REVERT JUMPDEST PUSH1 0x1 ADD PUSH2 0xF43 JUMP JUMPDEST POP PUSH1 0x5 DUP5 ADD DUP1 SLOAD SWAP1 PUSH0 PUSH2 0xFB5 DUP4 PUSH2 0x2E22 JUMP JUMPDEST SWAP1 SWAP2 SSTORE POP POP PUSH0 DUP8 DUP2 MSTORE PUSH1 0x6 PUSH1 0x20 SWAP1 DUP2 MSTORE PUSH1 0x40 DUP1 DUP4 KECCAK256 DUP5 DUP5 MSTORE SWAP1 SWAP2 MSTORE DUP2 KECCAK256 DUP1 SLOAD SWAP2 PUSH2 0xFDE DUP4 PUSH2 0x2E22 JUMP JUMPDEST SWAP1 SWAP2 SSTORE POP POP CALLER PUSH0 SWAP1 DUP2 MSTORE PUSH1 0x8 PUSH1 0x20 MSTORE PUSH1 0x40 DUP2 KECCAK256 DUP1 SLOAD SWAP2 PUSH2 0xFFD DUP4 PUSH2 0x2E22 JUMP JUMPDEST SWAP1 SWAP2 SSTORE POP POP POP PUSH1 0x1 ADD PUSH2 0xEF6 JUMP JUMPDEST POP PUSH0 DUP6 DUP2 MSTORE PUSH1 0x4 PUSH1 0x20 SWAP1 DUP2 MSTORE PUSH1 0x40 DUP1 DUP4 KECCAK256 CALLER DUP1 DUP6 MSTORE SWAP1 DUP4 MSTORE DUP2 DUP5 KECCAK256 DUP1 SLOAD PUSH1 0xFF NOT AND PUSH1 0x1 OR SWAP1 SSTORE DUP9 DUP5 MSTORE PUSH1 0x7 DUP4 MSTORE DUP2 DUP5 KECCAK256 SWAP1 DUP5 MSTORE SWAP1 SWAP2 MSTORE SWAP1 KECCAK256 PUSH2 0x104E SWAP1 DUP6 DUP6 PUSH2 0x249C JUMP JUMPDEST POP PUSH1 0x2 DUP1 SLOAD SWAP1 PUSH0 PUSH2 0x105E DUP4 PUSH2 0x2E22 JUMP JUMPDEST SWAP1 SWAP2 SSTORE POP POP PUSH1 0x4 DUP3 ADD DUP1 SLOAD SWAP1 PUSH0 PUSH2 0x1074 DUP4 PUSH2 0x2E22 JUMP JUMPDEST SWAP2 SWAP1 POP SSTORE POP CALLER PUSH1 0x1 PUSH1 0x1 PUSH1 0xA0 SHL SUB AND PUSH32 0xCF413025C8B450134DAE85561CFE55BD5A20CD0D8912DB984431E553B31D4C09 DUP7 DUP7 DUP7 PUSH1 0x40 MLOAD PUSH2 0x10B6 SWAP4 SWAP3 SWAP2 SWAP1 PUSH2 0x2E46 JUMP JUMPDEST PUSH1 0x40 MLOAD DUP1 SWAP2 SUB SWAP1 LOG2 POP POP POP POP POP JUMP JUMPDEST PUSH0 PUSH2 0x10CF DUP3 PUSH2 0x1FA3 JUMP JUMPDEST PUSH1 0x1 DUP2 ADD SLOAD SWAP1 SWAP2 POP PUSH1 0x1 PUSH1 0x1 PUSH1 0xA0 SHL SUB AND CALLER EQ PUSH2 0x10FF JUMPI PUSH1 0x40 MLOAD PUSH4 0x4CA88867 PUSH1 0xE0 SHL DUP2 MSTORE PUSH1 0x4 ADD PUSH1 0x40 MLOAD DUP1 SWAP2 SUB SWAP1 REVERT JUMPDEST PUSH1 0x3 PUSH1 0x40 DUP1 MLOAD PUSH2 0x180 DUP2 ADD DUP3 MSTORE DUP4 SLOAD DUP2 MSTORE PUSH1 0x1 DUP5 ADD SLOAD PUSH1 0x1 PUSH1 0x1 PUSH1 0xA0 SHL SUB AND PUSH1 0x20 DUP1 DUP4 ADD SWAP2 SWAP1 SWAP2 MSTORE PUSH1 0x2 DUP6 ADD SLOAD DUP3 DUP5 ADD MSTORE PUSH1 0x3 DUP1 DUP7 ADD SLOAD PUSH1 0x60 DUP1 DUP6 ADD SWAP2 SWAP1 SWAP2 MSTORE PUSH1 0x4 DUP8 ADD SLOAD PUSH1 0x80 DUP6 ADD MSTORE PUSH1 0x5 DUP8 ADD SLOAD PUSH1 0xA0 DUP6 ADD MSTORE PUSH1 0x6 DUP8 ADD SLOAD PUSH1 0xC0 DUP6 ADD MSTORE PUSH1 0x7 DUP8 ADD SLOAD PUSH1 0xFF SWAP1 DUP2 AND ISZERO ISZERO PUSH1 0xE0 DUP7 ADD MSTORE DUP6 MLOAD SWAP2 DUP3 ADD DUP7 MSTORE PUSH1 0x8 DUP9 ADD DUP1 SLOAD DUP1 DUP4 AND ISZERO ISZERO DUP5 MSTORE PUSH2 0x100 DUP1 DUP3 DIV DUP5 AND ISZERO ISZERO SWAP7 DUP6 ADD SWAP7 SWAP1 SWAP7 MSTORE PUSH2 0x13BF SWAP8 DUP11 SWAP7 DUP9 ADD SWAP6 SWAP3 SWAP4 SWAP1 DUP6 ADD SWAP3 PUSH3 0x10000 SWAP1 SWAP3 DIV AND SWAP1 DUP2 GT ISZERO PUSH2 0x11BA JUMPI PUSH2 0x11BA PUSH2 0x294F JUMP JUMPDEST PUSH1 0x3 DUP2 GT ISZERO PUSH2 0x11CB JUMPI PUSH2 0x11CB PUSH2 0x294F JUMP JUMPDEST DUP2 MSTORE POP POP DUP2 MSTORE PUSH1 0x20 ADD PUSH1 0x9 DUP3 ADD DUP1 SLOAD PUSH2 0x11E3 SWAP1 PUSH2 0x2BCF JUMP JUMPDEST DUP1 PUSH1 0x1F ADD PUSH1 0x20 DUP1 SWAP2 DIV MUL PUSH1 0x20 ADD PUSH1 0x40 MLOAD SWAP1 DUP2 ADD PUSH1 0x40 MSTORE DUP1 SWAP3 SWAP2 SWAP1 DUP2 DUP2 MSTORE PUSH1 0x20 ADD DUP3 DUP1 SLOAD PUSH2 0x120F SWAP1 PUSH2 0x2BCF JUMP JUMPDEST DUP1 ISZERO PUSH2 0x125A JUMPI DUP1 PUSH1 0x1F LT PUSH2 0x1231 JUMPI PUSH2 0x100 DUP1 DUP4 SLOAD DIV MUL DUP4 MSTORE SWAP2 PUSH1 0x20 ADD SWAP2 PUSH2 0x125A JUMP JUMPDEST DUP3 ADD SWAP2 SWAP1 PUSH0 MSTORE PUSH1 0x20 PUSH0 KECCAK256 SWAP1 JUMPDEST DUP2 SLOAD DUP2 MSTORE SWAP1 PUSH1 0x1 ADD SWAP1 PUSH1 0x20 ADD DUP1 DUP4 GT PUSH2 0x123D JUMPI DUP3 SWAP1 SUB PUSH1 0x1F AND DUP3 ADD SWAP2 JUMPDEST POP POP POP POP POP DUP2 MSTORE PUSH1 0x20 ADD PUSH1 0xA DUP3 ADD DUP1 SLOAD PUSH2 0x1273 SWAP1 PUSH2 0x2BCF JUMP JUMPDEST DUP1 PUSH1 0x1F ADD PUSH1 0x20 DUP1 SWAP2 DIV MUL PUSH1 0x20 ADD PUSH1 0x40 MLOAD SWAP1 DUP2 ADD PUSH1 0x40 MSTORE DUP1 SWAP3 SWAP2 SWAP1 DUP2 DUP2 MSTORE PUSH1 0x20 ADD DUP3 DUP1 SLOAD PUSH2 0x129F SWAP1 PUSH2 0x2BCF JUMP JUMPDEST DUP1 ISZERO PUSH2 0x12EA JUMPI DUP1 PUSH1 0x1F LT PUSH2 0x12C1 JUMPI PUSH2 0x100 DUP1 DUP4 SLOAD DIV MUL DUP4 MSTORE SWAP2 PUSH1 0x20 ADD SWAP2 PUSH2 0x12EA JUMP JUMPDEST DUP3 ADD SWAP2 SWAP1 PUSH0 MSTORE PUSH1 0x20 PUSH0 KECCAK256 SWAP1 JUMPDEST DUP2 SLOAD DUP2 MSTORE SWAP1 PUSH1 0x1 ADD SWAP1 PUSH1 0x20 ADD DUP1 DUP4 GT PUSH2 0x12CD JUMPI DUP3 SWAP1 SUB PUSH1 0x1F AND DUP3 ADD SWAP2 JUMPDEST POP POP POP POP POP DUP2 MSTORE PUSH1 0x20 ADD PUSH1 0xB DUP3 ADD DUP1 SLOAD DUP1 PUSH1 0x20 MUL PUSH1 0x20 ADD PUSH1 0x40 MLOAD SWAP1 DUP2 ADD PUSH1 0x40 MSTORE DUP1 SWAP3 SWAP2 SWAP1 DUP2 DUP2 MSTORE PUSH1 0x20 ADD PUSH0 SWAP1 JUMPDEST DUP3 DUP3 LT ISZERO PUSH2 0xE29 JUMPI DUP4 DUP3 SWAP1 PUSH0 MSTORE PUSH1 0x20 PUSH0 KECCAK256 ADD DUP1 SLOAD PUSH2 0x1334 SWAP1 PUSH2 0x2BCF JUMP JUMPDEST DUP1 PUSH1 0x1F ADD PUSH1 0x20 DUP1 SWAP2 DIV MUL PUSH1 0x20 ADD PUSH1 0x40 MLOAD SWAP1 DUP2 ADD PUSH1 0x40 MSTORE DUP1 SWAP3 SWAP2 SWAP1 DUP2 DUP2 MSTORE PUSH1 0x20 ADD DUP3 DUP1 SLOAD PUSH2 0x1360 SWAP1 PUSH2 0x2BCF JUMP JUMPDEST DUP1 ISZERO PUSH2 0x13AB JUMPI DUP1 PUSH1 0x1F LT PUSH2 0x1382 JUMPI PUSH2 0x100 DUP1 DUP4 SLOAD DIV MUL DUP4 MSTORE SWAP2 PUSH1 0x20 ADD SWAP2 PUSH2 0x13AB JUMP JUMPDEST DUP3 ADD SWAP2 SWAP1 PUSH0 MSTORE PUSH1 0x20 PUSH0 KECCAK256 SWAP1 JUMPDEST DUP2 SLOAD DUP2 MSTORE SWAP1 PUSH1 0x1 ADD SWAP1 PUSH1 0x20 ADD DUP1 DUP4 GT PUSH2 0x138E JUMPI DUP3 SWAP1 SUB PUSH1 0x1F AND DUP3 ADD SWAP2 JUMPDEST POP POP POP POP POP DUP2 MSTORE PUSH1 0x20 ADD SWAP1 PUSH1 0x1 ADD SWAP1 PUSH2 0x1317 JUMP JUMPDEST PUSH1 0x3 DUP2 GT ISZERO PUSH2 0x13D0 JUMPI PUSH2 0x13D0 PUSH2 0x294F JUMP JUMPDEST SUB PUSH2 0x13EE JUMPI PUSH1 0x40 MLOAD PUSH4 0x9B22DDEB PUSH1 0xE0 SHL DUP2 MSTORE PUSH1 0x4 ADD PUSH1 0x40 MLOAD DUP1 SWAP2 SUB SWAP1 REVERT JUMPDEST PUSH1 0x1 PUSH1 0x3 DUP3 ADD SSTORE PUSH1 0x40 MLOAD DUP3 SWAP1 CALLER SWAP1 PUSH32 0x563A96CEBB2DD00C04FE16AB3F34901E3749B13DA3040E6CAE0B5A55EA4DAEE2 SWAP1 PUSH0 SWAP1 LOG3 POP POP JUMP JUMPDEST PUSH2 0x142D PUSH2 0x24E5 JUMP JUMPDEST PUSH0 PUSH2 0x1437 DUP4 PUSH2 0x1FA3 JUMP JUMPDEST PUSH1 0x40 DUP1 MLOAD PUSH2 0x1A0 DUP2 ADD SWAP1 SWAP2 MSTORE PUSH1 0x1 DUP3 ADD SLOAD PUSH1 0x1 PUSH1 0x1 PUSH1 0xA0 SHL SUB AND DUP2 MSTORE PUSH1 0x9 DUP3 ADD DUP1 SLOAD SWAP3 SWAP4 POP SWAP1 SWAP2 PUSH1 0x20 DUP4 ADD SWAP2 SWAP1 PUSH2 0x146D SWAP1 PUSH2 0x2BCF JUMP JUMPDEST DUP1 PUSH1 0x1F ADD PUSH1 0x20 DUP1 SWAP2 DIV MUL PUSH1 0x20 ADD PUSH1 0x40 MLOAD SWAP1 DUP2 ADD PUSH1 0x40 MSTORE DUP1 SWAP3 SWAP2 SWAP1 DUP2 DUP2 MSTORE PUSH1 0x20 ADD DUP3 DUP1 SLOAD PUSH2 0x1499 SWAP1 PUSH2 0x2BCF JUMP JUMPDEST DUP1 ISZERO PUSH2 0x14E4 JUMPI DUP1 PUSH1 0x1F LT PUSH2 0x14BB JUMPI PUSH2 0x100 DUP1 DUP4 SLOAD DIV MUL DUP4 MSTORE SWAP2 PUSH1 0x20 ADD SWAP2 PUSH2 0x14E4 JUMP JUMPDEST DUP3 ADD SWAP2 SWAP1 PUSH0 MSTORE PUSH1 0x20 PUSH0 KECCAK256 SWAP1 JUMPDEST DUP2 SLOAD DUP2 MSTORE SWAP1 PUSH1 0x1 ADD SWAP1 PUSH1 0x20 ADD DUP1 DUP4 GT PUSH2 0x14C7 JUMPI DUP3 SWAP1 SUB PUSH1 0x1F AND DUP3 ADD SWAP2 JUMPDEST POP POP POP POP POP DUP2 MSTORE PUSH1 0x20 ADD DUP3 PUSH1 0xA ADD DUP1 SLOAD PUSH2 0x14FD SWAP1 PUSH2 0x2BCF JUMP JUMPDEST DUP1 PUSH1 0x1F ADD PUSH1 0x20 DUP1 SWAP2 DIV MUL PUSH1 0x20 ADD PUSH1 0x40 MLOAD SWAP1 DUP2 ADD PUSH1 0x40 MSTORE DUP1 SWAP3 SWAP2 SWAP1 DUP2 DUP2 MSTORE PUSH1 0x20 ADD DUP3 DUP1 SLOAD PUSH2 0x1529 SWAP1 PUSH2 0x2BCF JUMP JUMPDEST DUP1 ISZERO PUSH2 0x1574 JUMPI DUP1 PUSH1 0x1F LT PUSH2 0x154B JUMPI PUSH2 0x100 DUP1 DUP4 SLOAD DIV MUL DUP4 MSTORE SWAP2 PUSH1 0x20 ADD SWAP2 PUSH2 0x1574 JUMP JUMPDEST DUP3 ADD SWAP2 SWAP1 PUSH0 MSTORE PUSH1 0x20 PUSH0 KECCAK256 SWAP1 JUMPDEST DUP2 SLOAD DUP2 MSTORE SWAP1 PUSH1 0x1 ADD SWAP1 PUSH1 0x20 ADD DUP1 DUP4 GT PUSH2 0x1557 JUMPI DUP3 SWAP1 SUB PUSH1 0x1F AND DUP3 ADD SWAP2 JUMPDEST POP POP POP POP POP DUP2 MSTORE PUSH1 0x20 ADD DUP3 PUSH1 0x2 ADD SLOAD DUP2 MSTORE PUSH1 0x20 ADD DUP3 PUSH1 0x3 ADD SLOAD DUP2 MSTORE PUSH1 0x20 ADD DUP3 PUSH1 0xB ADD DUP1 SLOAD DUP1 PUSH1 0x20 MUL PUSH1 0x20 ADD PUSH1 0x40 MLOAD SWAP1 DUP2 ADD PUSH1 0x40 MSTORE DUP1 SWAP3 SWAP2 SWAP1 DUP2 DUP2 MSTORE PUSH1 0x20 ADD PUSH0 SWAP1 JUMPDEST DUP3 DUP3 LT ISZERO PUSH2 0x165D JUMPI DUP4 DUP3 SWAP1 PUSH0 MSTORE PUSH1 0x20 PUSH0 KECCAK256 ADD DUP1 SLOAD PUSH2 0x15D2 SWAP1 PUSH2 0x2BCF JUMP JUMPDEST DUP1 PUSH1 0x1F ADD PUSH1 0x20 DUP1 SWAP2 DIV MUL PUSH1 0x20 ADD PUSH1 0x40 MLOAD SWAP1 DUP2 ADD PUSH1 0x40 MSTORE DUP1 SWAP3 SWAP2 SWAP1 DUP2 DUP2 MSTORE PUSH1 0x20 ADD DUP3 DUP1 SLOAD PUSH2 0x15FE SWAP1 PUSH2 0x2BCF JUMP JUMPDEST DUP1 ISZERO PUSH2 0x1649 JUMPI DUP1 PUSH1 0x1F LT PUSH2 0x1620 JUMPI PUSH2 0x100 DUP1 DUP4 SLOAD DIV MUL DUP4 MSTORE SWAP2 PUSH1 0x20 ADD SWAP2 PUSH2 0x1649 JUMP JUMPDEST DUP3 ADD SWAP2 SWAP1 PUSH0 MSTORE PUSH1 0x20 PUSH0 KECCAK256 SWAP1 JUMPDEST DUP2 SLOAD DUP2 MSTORE SWAP1 PUSH1 0x1 ADD SWAP1 PUSH1 0x20 ADD DUP1 DUP4 GT PUSH2 0x162C JUMPI DUP3 SWAP1 SUB PUSH1 0x1F AND DUP3 ADD SWAP2 JUMPDEST POP POP POP POP POP DUP2 MSTORE PUSH1 0x20 ADD SWAP1 PUSH1 0x1 ADD SWAP1 PUSH2 0x15B5 JUMP JUMPDEST POP POP POP SWAP1 DUP3 MSTORE POP PUSH1 0x4 DUP4 ADD SLOAD PUSH1 0x20 DUP1 DUP4 ADD DUP3 SWAP1 MSTORE PUSH1 0x5 DUP6 ADD SLOAD PUSH1 0x40 DUP1 DUP6 ADD DUP3 SWAP1 MSTORE DUP1 MLOAD PUSH2 0x180 DUP2 ADD DUP3 MSTORE DUP8 SLOAD DUP2 MSTORE PUSH1 0x1 DUP9 ADD SLOAD PUSH1 0x1 PUSH1 0x1 PUSH1 0xA0 SHL SUB AND DUP2 DUP6 ADD MSTORE PUSH1 0x2 DUP9 ADD SLOAD DUP2 DUP4 ADD MSTORE PUSH1 0x3 DUP1 DUP10 ADD SLOAD PUSH1 0x60 DUP4 DUP2 ADD SWAP2 SWAP1 SWAP2 MSTORE PUSH1 0x80 DUP4 ADD SWAP7 SWAP1 SWAP7 MSTORE PUSH1 0xA0 DUP3 ADD SWAP4 SWAP1 SWAP4 MSTORE PUSH1 0x6 DUP9 ADD SLOAD PUSH1 0xC0 DUP3 ADD MSTORE PUSH1 0x7 DUP9 ADD SLOAD PUSH1 0xFF SWAP1 DUP2 AND ISZERO ISZERO PUSH1 0xE0 DUP4 ADD MSTORE DUP3 MLOAD DUP1 DUP8 ADD DUP5 MSTORE PUSH1 0x8 DUP11 ADD DUP1 SLOAD DUP1 DUP5 AND ISZERO ISZERO DUP4 MSTORE PUSH2 0x100 DUP1 DUP3 DIV DUP6 AND ISZERO ISZERO SWAP9 DUP5 ADD SWAP9 SWAP1 SWAP9 MSTORE SWAP8 SWAP1 SWAP9 ADD SWAP8 PUSH2 0x193D SWAP8 SWAP4 SWAP7 DUP12 SWAP7 SWAP1 DUP9 ADD SWAP6 SWAP3 SWAP5 SWAP2 SWAP4 SWAP3 DUP6 ADD SWAP3 PUSH3 0x10000 SWAP1 SWAP3 DIV SWAP1 SWAP2 AND SWAP1 DUP2 GT ISZERO PUSH2 0x1738 JUMPI PUSH2 0x1738 PUSH2 0x294F JUMP JUMPDEST PUSH1 0x3 DUP2 GT ISZERO PUSH2 0x1749 JUMPI PUSH2 0x1749 PUSH2 0x294F JUMP JUMPDEST DUP2 MSTORE POP POP DUP2 MSTORE PUSH1 0x20 ADD PUSH1 0x9 DUP3 ADD DUP1 SLOAD PUSH2 0x1761 SWAP1 PUSH2 0x2BCF JUMP JUMPDEST DUP1 PUSH1 0x1F ADD PUSH1 0x20 DUP1 SWAP2 DIV MUL PUSH1 0x20 ADD PUSH1 0x40 MLOAD SWAP1 DUP2 ADD PUSH1 0x40 MSTORE DUP1 SWAP3 SWAP2 SWAP1 DUP2 DUP2 MSTORE PUSH1 0x20 ADD DUP3 DUP1 SLOAD PUSH2 0x178D SWAP1 PUSH2 0x2BCF JUMP JUMPDEST DUP1 ISZERO PUSH2 0x17D8 JUMPI DUP1 PUSH1 0x1F LT PUSH2 0x17AF JUMPI PUSH2 0x100 DUP1 DUP4 SLOAD DIV MUL DUP4 MSTORE SWAP2 PUSH1 0x20 ADD SWAP2 PUSH2 0x17D8 JUMP JUMPDEST DUP3 ADD SWAP2 SWAP1 PUSH0 MSTORE PUSH1 0x20 PUSH0 KECCAK256 SWAP1 JUMPDEST DUP2 SLOAD DUP2 MSTORE SWAP1 PUSH1 0x1 ADD SWAP1 PUSH1 0x20 ADD DUP1 DUP4 GT PUSH2 0x17BB JUMPI DUP3 SWAP1 SUB PUSH1 0x1F AND DUP3 ADD SWAP2 JUMPDEST POP POP POP POP POP DUP2 MSTORE PUSH1 0x20 ADD PUSH1 0xA DUP3 ADD DUP1 SLOAD PUSH2 0x17F1 SWAP1 PUSH2 0x2BCF JUMP JUMPDEST DUP1 PUSH1 0x1F ADD PUSH1 0x20 DUP1 SWAP2 DIV MUL PUSH1 0x20 ADD PUSH1 0x40 MLOAD SWAP1 DUP2 ADD PUSH1 0x40 MSTORE DUP1 SWAP3 SWAP2 SWAP1 DUP2 DUP2 MSTORE PUSH1 0x20 ADD DUP3 DUP1 SLOAD PUSH2 0x181D SWAP1 PUSH2 0x2BCF JUMP JUMPDEST DUP1 ISZERO PUSH2 0x1868 JUMPI DUP1 PUSH1 0x1F LT PUSH2 0x183F JUMPI PUSH2 0x100 DUP1 DUP4 SLOAD DIV MUL DUP4 MSTORE SWAP2 PUSH1 0x20 ADD SWAP2 PUSH2 0x1868 JUMP JUMPDEST DUP3 ADD SWAP2 SWAP1 PUSH0 MSTORE PUSH1 0x20 PUSH0 KECCAK256 SWAP1 JUMPDEST DUP2 SLOAD DUP2 MSTORE SWAP1 PUSH1 0x1 ADD SWAP1 PUSH1 0x20 ADD DUP1 DUP4 GT PUSH2 0x184B JUMPI DUP3 SWAP1 SUB PUSH1 0x1F AND DUP3 ADD SWAP2 JUMPDEST POP POP POP POP POP DUP2 MSTORE PUSH1 0x20 ADD PUSH1 0xB DUP3 ADD DUP1 SLOAD DUP1 PUSH1 0x20 MUL PUSH1 0x20 ADD PUSH1 0x40 MLOAD SWAP1 DUP2 ADD PUSH1 0x40 MSTORE DUP1 SWAP3 SWAP2 SWAP1 DUP2 DUP2 MSTORE PUSH1 0x20 ADD PUSH0 SWAP1 JUMPDEST DUP3 DUP3 LT ISZERO PUSH2 0xE29 JUMPI DUP4 DUP3 SWAP1 PUSH0 MSTORE PUSH1 0x20 PUSH0 KECCAK256 ADD DUP1 SLOAD PUSH2 0x18B2 SWAP1 PUSH2 0x2BCF JUMP JUMPDEST DUP1 PUSH1 0x1F ADD PUSH1 0x20 DUP1 SWAP2 DIV MUL PUSH1 0x20 ADD PUSH1 0x40 MLOAD SWAP1 DUP2 ADD PUSH1 0x40 MSTORE DUP1 SWAP3 SWAP2 SWAP1 DUP2 DUP2 MSTORE PUSH1 0x20 ADD DUP3 DUP1 SLOAD PUSH2 0x18DE SWAP1 PUSH2 0x2BCF JUMP JUMPDEST DUP1 ISZERO PUSH2 0x1929 JUMPI DUP1 PUSH1 0x1F LT PUSH2 0x1900 JUMPI PUSH2 0x100 DUP1 DUP4 SLOAD DIV MUL DUP4 MSTORE SWAP2 PUSH1 0x20 ADD SWAP2 PUSH2 0x1929 JUMP JUMPDEST DUP3 ADD SWAP2 SWAP1 PUSH0 MSTORE PUSH1 0x20 PUSH0 KECCAK256 SWAP1 JUMPDEST DUP2 SLOAD DUP2 MSTORE SWAP1 PUSH1 0x1 ADD SWAP1 PUSH1 0x20 ADD DUP1 DUP4 GT PUSH2 0x190C JUMPI DUP3 SWAP1 SUB PUSH1 0x1F AND DUP3 ADD SWAP2 JUMPDEST POP POP POP POP POP DUP2 MSTORE PUSH1 0x20 ADD SWAP1 PUSH1 0x1 ADD SWAP1 PUSH2 0x1895 JUMP JUMPDEST PUSH1 0x3 DUP2 GT ISZERO PUSH2 0x194E JUMPI PUSH2 0x194E PUSH2 0x294F JUMP JUMPDEST DUP2 MSTORE PUSH1 0x40 DUP1 MLOAD PUSH1 0x60 DUP2 ADD DUP3 MSTORE PUSH1 0x8 DUP6 ADD DUP1 SLOAD PUSH1 0xFF DUP1 DUP3 AND ISZERO ISZERO DUP5 MSTORE PUSH2 0x100 DUP3 DIV DUP2 AND ISZERO ISZERO PUSH1 0x20 DUP6 DUP2 ADD SWAP2 SWAP1 SWAP2 MSTORE SWAP1 SWAP6 ADD SWAP5 SWAP3 SWAP4 SWAP2 SWAP3 SWAP2 DUP5 ADD SWAP2 PUSH3 0x10000 SWAP1 SWAP2 DIV AND PUSH1 0x3 DUP2 GT ISZERO PUSH2 0x19A0 JUMPI PUSH2 0x19A0 PUSH2 0x294F JUMP JUMPDEST PUSH1 0x3 DUP2 GT ISZERO PUSH2 0x19B1 JUMPI PUSH2 0x19B1 PUSH2 0x294F JUMP JUMPDEST SWAP1 MSTORE POP DUP2 MSTORE PUSH0 DUP6 DUP2 MSTORE PUSH1 0x4 PUSH1 0x20 SWAP1 DUP2 MSTORE PUSH1 0x40 DUP1 DUP4 KECCAK256 CALLER DUP1 DUP6 MSTORE SWAP1 DUP4 MSTORE DUP2 DUP5 KECCAK256 SLOAD PUSH1 0xFF AND ISZERO ISZERO DUP4 DUP7 ADD MSTORE DUP9 DUP5 MSTORE PUSH1 0x7 DUP4 MSTORE DUP2 DUP5 KECCAK256 SWAP1 DUP5 MSTORE DUP3 MSTORE SWAP2 DUP3 SWAP1 KECCAK256 DUP1 SLOAD DUP4 MLOAD DUP2 DUP5 MUL DUP2 ADD DUP5 ADD DUP6 MSTORE DUP2 DUP2 MSTORE SWAP4 SWAP1 SWAP5 ADD SWAP4 SWAP1 SWAP2 DUP4 ADD DUP3 DUP3 DUP1 ISZERO PUSH2 0x1A31 JUMPI PUSH1 0x20 MUL DUP3 ADD SWAP2 SWAP1 PUSH0 MSTORE PUSH1 0x20 PUSH0 KECCAK256 SWAP1 JUMPDEST DUP2 SLOAD DUP2 MSTORE PUSH1 0x20 ADD SWAP1 PUSH1 0x1 ADD SWAP1 DUP1 DUP4 GT PUSH2 0x1A1D JUMPI JUMPDEST POP POP POP POP POP DUP2 MSTORE PUSH1 0x20 ADD DUP3 PUSH1 0x6 ADD SLOAD DUP2 MSTORE POP SWAP2 POP POP SWAP2 SWAP1 POP JUMP JUMPDEST CALLER PUSH0 SWAP1 DUP2 MSTORE PUSH1 0x3 PUSH1 0x20 MSTORE PUSH1 0x40 DUP2 KECCAK256 DUP1 SLOAD PUSH1 0x60 SWAP3 DUP1 JUMPDEST DUP3 DUP2 LT ISZERO PUSH2 0x1AC4 JUMPI PUSH0 DUP5 DUP3 DUP2 SLOAD DUP2 LT PUSH2 0x1A7B JUMPI PUSH2 0x1A7B PUSH2 0x2DCB JUMP JUMPDEST SWAP1 PUSH0 MSTORE PUSH1 0x20 PUSH0 KECCAK256 ADD SLOAD DUP2 SLOAD DUP2 LT PUSH2 0x1A94 JUMPI PUSH2 0x1A94 PUSH2 0x2DCB JUMP JUMPDEST PUSH0 SWAP2 DUP3 MSTORE PUSH1 0x20 SWAP1 SWAP2 KECCAK256 PUSH1 0x7 PUSH1 0xC SWAP1 SWAP3 MUL ADD ADD SLOAD PUSH1 0xFF AND PUSH2 0x1ABC JUMPI DUP2 PUSH2 0x1AB8 DUP2 PUSH2 0x2E22 JUMP JUMPDEST SWAP3 POP POP JUMPDEST PUSH1 0x1 ADD PUSH2 0x1A60 JUMP JUMPDEST POP PUSH0 DUP2 PUSH8 0xFFFFFFFFFFFFFFFF DUP2 GT ISZERO PUSH2 0x1ADF JUMPI PUSH2 0x1ADF PUSH2 0x2C07 JUMP JUMPDEST PUSH1 0x40 MLOAD SWAP1 DUP1 DUP3 MSTORE DUP1 PUSH1 0x20 MUL PUSH1 0x20 ADD DUP3 ADD PUSH1 0x40 MSTORE DUP1 ISZERO PUSH2 0x1B18 JUMPI DUP2 PUSH1 0x20 ADD JUMPDEST PUSH2 0x1B05 PUSH2 0x257F JUMP JUMPDEST DUP2 MSTORE PUSH1 0x20 ADD SWAP1 PUSH1 0x1 SWAP1 SUB SWAP1 DUP2 PUSH2 0x1AFD JUMPI SWAP1 POP JUMPDEST POP SWAP1 POP PUSH0 DUP1 JUMPDEST DUP5 DUP2 LT ISZERO PUSH2 0x1F98 JUMPI PUSH0 DUP7 DUP3 DUP2 SLOAD DUP2 LT PUSH2 0x1B39 JUMPI PUSH2 0x1B39 PUSH2 0x2DCB JUMP JUMPDEST SWAP1 PUSH0 MSTORE PUSH1 0x20 PUSH0 KECCAK256 ADD SLOAD SWAP1 POP PUSH0 DUP2 DUP2 SLOAD DUP2 LT PUSH2 0x1B56 JUMPI PUSH2 0x1B56 PUSH2 0x2DCB JUMP JUMPDEST PUSH0 SWAP2 DUP3 MSTORE PUSH1 0x20 SWAP1 SWAP2 KECCAK256 PUSH1 0x7 PUSH1 0xC SWAP1 SWAP3 MUL ADD ADD SLOAD PUSH1 0xFF AND ISZERO PUSH2 0x1B77 JUMPI POP PUSH2 0x1F90 JUMP JUMPDEST PUSH0 DUP1 DUP3 DUP2 SLOAD DUP2 LT PUSH2 0x1B8A JUMPI PUSH2 0x1B8A PUSH2 0x2DCB JUMP JUMPDEST SWAP1 PUSH0 MSTORE PUSH1 0x20 PUSH0 KECCAK256 SWAP1 PUSH1 0xC MUL ADD SWAP1 POP PUSH1 0x40 MLOAD DUP1 PUSH2 0x120 ADD PUSH1 0x40 MSTORE DUP1 DUP3 PUSH1 0x1 ADD PUSH0 SWAP1 SLOAD SWAP1 PUSH2 0x100 EXP SWAP1 DIV PUSH1 0x1 PUSH1 0x1 PUSH1 0xA0 SHL SUB AND PUSH1 0x1 PUSH1 0x1 PUSH1 0xA0 SHL SUB AND DUP2 MSTORE PUSH1 0x20 ADD DUP4 DUP2 MSTORE PUSH1 0x20 ADD DUP3 PUSH1 0x9 ADD DUP1 SLOAD PUSH2 0x1BDE SWAP1 PUSH2 0x2BCF JUMP JUMPDEST DUP1 PUSH1 0x1F ADD PUSH1 0x20 DUP1 SWAP2 DIV MUL PUSH1 0x20 ADD PUSH1 0x40 MLOAD SWAP1 DUP2 ADD PUSH1 0x40 MSTORE DUP1 SWAP3 SWAP2 SWAP1 DUP2 DUP2 MSTORE PUSH1 0x20 ADD DUP3 DUP1 SLOAD PUSH2 0x1C0A SWAP1 PUSH2 0x2BCF JUMP JUMPDEST DUP1 ISZERO PUSH2 0x1C55 JUMPI DUP1 PUSH1 0x1F LT PUSH2 0x1C2C JUMPI PUSH2 0x100 DUP1 DUP4 SLOAD DIV MUL DUP4 MSTORE SWAP2 PUSH1 0x20 ADD SWAP2 PUSH2 0x1C55 JUMP JUMPDEST DUP3 ADD SWAP2 SWAP1 PUSH0 MSTORE PUSH1 0x20 PUSH0 KECCAK256 SWAP1 JUMPDEST DUP2 SLOAD DUP2 MSTORE SWAP1 PUSH1 0x1 ADD SWAP1 PUSH1 0x20 ADD DUP1 DUP4 GT PUSH2 0x1C38 JUMPI DUP3 SWAP1 SUB PUSH1 0x1F AND DUP3 ADD SWAP2 JUMPDEST POP POP POP SWAP2 DUP4 MSTORE POP POP PUSH1 0x5 DUP4 ADD SLOAD PUSH1 0x20 DUP1 DUP4 ADD DUP3 SWAP1 MSTORE PUSH1 0x40 DUP1 DUP5 ADD DUP4 SWAP1 MSTORE DUP1 MLOAD PUSH2 0x180 DUP2 ADD DUP3 MSTORE DUP7 SLOAD DUP2 MSTORE PUSH1 0x1 DUP8 ADD SLOAD PUSH1 0x1 PUSH1 0x1 PUSH1 0xA0 SHL SUB AND DUP2 DUP5 ADD MSTORE PUSH1 0x2 DUP8 ADD SLOAD DUP2 DUP4 ADD MSTORE PUSH1 0x3 DUP1 DUP9 ADD SLOAD PUSH1 0x60 DUP4 DUP2 ADD SWAP2 SWAP1 SWAP2 MSTORE PUSH1 0x4 DUP10 ADD SLOAD PUSH1 0x80 DUP5 ADD MSTORE PUSH1 0xA0 DUP4 ADD SWAP6 SWAP1 SWAP6 MSTORE PUSH1 0x6 DUP9 ADD SLOAD PUSH1 0xC0 DUP4 ADD MSTORE PUSH1 0x7 DUP9 ADD SLOAD PUSH1 0xFF SWAP1 DUP2 AND ISZERO ISZERO PUSH1 0xE0 DUP5 ADD MSTORE DUP4 MLOAD DUP1 DUP8 ADD DUP6 MSTORE PUSH1 0x8 DUP11 ADD DUP1 SLOAD DUP1 DUP5 AND ISZERO ISZERO DUP4 MSTORE PUSH2 0x100 DUP1 DUP3 DIV DUP6 AND ISZERO ISZERO SWAP9 DUP5 ADD SWAP9 SWAP1 SWAP9 MSTORE SWAP8 SWAP1 SWAP9 ADD SWAP8 PUSH2 0x1F30 SWAP8 SWAP5 SWAP7 DUP12 SWAP7 SWAP1 DUP9 ADD SWAP6 SWAP3 SWAP5 SWAP2 SWAP4 SWAP1 DUP6 ADD SWAP3 PUSH3 0x10000 SWAP1 DIV AND SWAP1 DUP2 GT ISZERO PUSH2 0x1D2B JUMPI PUSH2 0x1D2B PUSH2 0x294F JUMP JUMPDEST PUSH1 0x3 DUP2 GT ISZERO PUSH2 0x1D3C JUMPI PUSH2 0x1D3C PUSH2 0x294F JUMP JUMPDEST DUP2 MSTORE POP POP DUP2 MSTORE PUSH1 0x20 ADD PUSH1 0x9 DUP3 ADD DUP1 SLOAD PUSH2 0x1D54 SWAP1 PUSH2 0x2BCF JUMP JUMPDEST DUP1 PUSH1 0x1F ADD PUSH1 0x20 DUP1 SWAP2 DIV MUL PUSH1 0x20 ADD PUSH1 0x40 MLOAD SWAP1 DUP2 ADD PUSH1 0x40 MSTORE DUP1 SWAP3 SWAP2 SWAP1 DUP2 DUP2 MSTORE PUSH1 0x20 ADD DUP3 DUP1 SLOAD PUSH2 0x1D80 SWAP1 PUSH2 0x2BCF JUMP JUMPDEST DUP1 ISZERO PUSH2 0x1DCB JUMPI DUP1 PUSH1 0x1F LT PUSH2 0x1DA2 JUMPI PUSH2 0x100 DUP1 DUP4 SLOAD DIV MUL DUP4 MSTORE SWAP2 PUSH1 0x20 ADD SWAP2 PUSH2 0x1DCB JUMP JUMPDEST DUP3 ADD SWAP2 SWAP1 PUSH0 MSTORE PUSH1 0x20 PUSH0 KECCAK256 SWAP1 JUMPDEST DUP2 SLOAD DUP2 MSTORE SWAP1 PUSH1 0x1 ADD SWAP1 PUSH1 0x20 ADD DUP1 DUP4 GT PUSH2 0x1DAE JUMPI DUP3 SWAP1 SUB PUSH1 0x1F AND DUP3 ADD SWAP2 JUMPDEST POP POP POP POP POP DUP2 MSTORE PUSH1 0x20 ADD PUSH1 0xA DUP3 ADD DUP1 SLOAD PUSH2 0x1DE4 SWAP1 PUSH2 0x2BCF JUMP JUMPDEST DUP1 PUSH1 0x1F ADD PUSH1 0x20 DUP1 SWAP2 DIV MUL PUSH1 0x20 ADD PUSH1 0x40 MLOAD SWAP1 DUP2 ADD PUSH1 0x40 MSTORE DUP1 SWAP3 SWAP2 SWAP1 DUP2 DUP2 MSTORE PUSH1 0x20 ADD DUP3 DUP1 SLOAD PUSH2 0x1E10 SWAP1 PUSH2 0x2BCF JUMP JUMPDEST DUP1 ISZERO PUSH2 0x1E5B JUMPI DUP1 PUSH1 0x1F LT PUSH2 0x1E32 JUMPI PUSH2 0x100 DUP1 DUP4 SLOAD DIV MUL DUP4 MSTORE SWAP2 PUSH1 0x20 ADD SWAP2 PUSH2 0x1E5B JUMP JUMPDEST DUP3 ADD SWAP2 SWAP1 PUSH0 MSTORE PUSH1 0x20 PUSH0 KECCAK256 SWAP1 JUMPDEST DUP2 SLOAD DUP2 MSTORE SWAP1 PUSH1 0x1 ADD SWAP1 PUSH1 0x20 ADD DUP1 DUP4 GT PUSH2 0x1E3E JUMPI DUP3 SWAP1 SUB PUSH1 0x1F AND DUP3 ADD SWAP2 JUMPDEST POP POP POP POP POP DUP2 MSTORE PUSH1 0x20 ADD PUSH1 0xB DUP3 ADD DUP1 SLOAD DUP1 PUSH1 0x20 MUL PUSH1 0x20 ADD PUSH1 0x40 MLOAD SWAP1 DUP2 ADD PUSH1 0x40 MSTORE DUP1 SWAP3 SWAP2 SWAP1 DUP2 DUP2 MSTORE PUSH1 0x20 ADD PUSH0 SWAP1 JUMPDEST DUP3 DUP3 LT ISZERO PUSH2 0xE29 JUMPI DUP4 DUP3 SWAP1 PUSH0 MSTORE PUSH1 0x20 PUSH0 KECCAK256 ADD DUP1 SLOAD PUSH2 0x1EA5 SWAP1 PUSH2 0x2BCF JUMP JUMPDEST DUP1 PUSH1 0x1F ADD PUSH1 0x20 DUP1 SWAP2 DIV MUL PUSH1 0x20 ADD PUSH1 0x40 MLOAD SWAP1 DUP2 ADD PUSH1 0x40 MSTORE DUP1 SWAP3 SWAP2 SWAP1 DUP2 DUP2 MSTORE PUSH1 0x20 ADD DUP3 DUP1 SLOAD PUSH2 0x1ED1 SWAP1 PUSH2 0x2BCF JUMP JUMPDEST DUP1 ISZERO PUSH2 0x1F1C JUMPI DUP1 PUSH1 0x1F LT PUSH2 0x1EF3 JUMPI PUSH2 0x100 DUP1 DUP4 SLOAD DIV MUL DUP4 MSTORE SWAP2 PUSH1 0x20 ADD SWAP2 PUSH2 0x1F1C JUMP JUMPDEST DUP3 ADD SWAP2 SWAP1 PUSH0 MSTORE PUSH1 0x20 PUSH0 KECCAK256 SWAP1 JUMPDEST DUP2 SLOAD DUP2 MSTORE SWAP1 PUSH1 0x1 ADD SWAP1 PUSH1 0x20 ADD DUP1 DUP4 GT PUSH2 0x1EFF JUMPI DUP3 SWAP1 SUB PUSH1 0x1F AND DUP3 ADD SWAP2 JUMPDEST POP POP POP POP POP DUP2 MSTORE PUSH1 0x20 ADD SWAP1 PUSH1 0x1 ADD SWAP1 PUSH2 0x1E88 JUMP JUMPDEST PUSH1 0x3 DUP2 GT ISZERO PUSH2 0x1F41 JUMPI PUSH2 0x1F41 PUSH2 0x294F JUMP JUMPDEST DUP2 MSTORE PUSH1 0x20 ADD DUP3 PUSH1 0x2 ADD SLOAD DUP2 MSTORE PUSH1 0x20 ADD DUP3 PUSH1 0x3 ADD SLOAD DUP2 MSTORE PUSH1 0x20 ADD DUP3 PUSH1 0x6 ADD SLOAD DUP2 MSTORE POP DUP6 DUP6 DUP2 MLOAD DUP2 LT PUSH2 0x1F74 JUMPI PUSH2 0x1F74 PUSH2 0x2DCB JUMP JUMPDEST PUSH1 0x20 MUL PUSH1 0x20 ADD ADD DUP2 SWAP1 MSTORE POP DUP4 DUP1 PUSH2 0x1F8A SWAP1 PUSH2 0x2E22 JUMP JUMPDEST SWAP5 POP POP POP POP JUMPDEST PUSH1 0x1 ADD PUSH2 0x1B1E JUMP JUMPDEST POP SWAP1 SWAP6 SWAP5 POP POP POP POP POP JUMP JUMPDEST PUSH0 DUP1 SLOAD DUP3 GT ISZERO PUSH2 0x1FFA JUMPI PUSH1 0x40 MLOAD PUSH3 0x461BCD PUSH1 0xE5 SHL DUP2 MSTORE PUSH1 0x20 PUSH1 0x4 DUP3 ADD MSTORE PUSH1 0xC PUSH1 0x24 DUP3 ADD MSTORE PUSH32 0x506F6C6C4E6F74466F756E640000000000000000000000000000000000000000 PUSH1 0x44 DUP3 ADD MSTORE PUSH1 0x64 ADD JUMPDEST PUSH1 0x40 MLOAD DUP1 SWAP2 SUB SWAP1 REVERT JUMPDEST PUSH0 DUP1 DUP4 DUP2 SLOAD DUP2 LT PUSH2 0x200D JUMPI PUSH2 0x200D PUSH2 0x2DCB JUMP JUMPDEST PUSH0 SWAP2 DUP3 MSTORE PUSH1 0x20 SWAP1 SWAP2 KECCAK256 PUSH1 0xC SWAP1 SWAP2 MUL ADD PUSH1 0x7 DUP2 ADD SLOAD SWAP1 SWAP2 POP PUSH1 0xFF AND ISZERO PUSH2 0x89D JUMPI PUSH1 0x40 MLOAD PUSH4 0x2708A4D PUSH1 0xE2 SHL DUP2 MSTORE PUSH1 0x4 DUP2 ADD DUP5 SWAP1 MSTORE PUSH1 0x24 ADD PUSH2 0x1FF1 JUMP JUMPDEST PUSH0 PUSH1 0x3 DUP4 PUSH2 0x100 ADD MLOAD PUSH1 0x40 ADD MLOAD PUSH1 0x3 DUP2 GT ISZERO PUSH2 0x2066 JUMPI PUSH2 0x2066 PUSH2 0x294F JUMP JUMPDEST SUB PUSH2 0x2072 JUMPI POP PUSH0 PUSH2 0x89D JUMP JUMPDEST PUSH1 0x1 DUP4 PUSH2 0x100 ADD MLOAD PUSH1 0x40 ADD MLOAD PUSH1 0x3 DUP2 GT ISZERO PUSH2 0x208F JUMPI PUSH2 0x208F PUSH2 0x294F JUMP JUMPDEST EQ DUP1 ISZERO PUSH2 0x20C0 JUMPI POP DUP3 MLOAD PUSH0 SWAP1 DUP2 MSTORE PUSH1 0x4 PUSH1 0x20 SWAP1 DUP2 MSTORE PUSH1 0x40 DUP1 DUP4 KECCAK256 PUSH1 0x1 PUSH1 0x1 PUSH1 0xA0 SHL SUB DUP7 AND DUP5 MSTORE SWAP1 SWAP2 MSTORE SWAP1 KECCAK256 SLOAD PUSH1 0xFF AND ISZERO JUMPDEST ISZERO PUSH2 0x20CC JUMPI POP PUSH0 PUSH2 0x89D JUMP JUMPDEST PUSH1 0x2 DUP4 PUSH2 0x100 ADD MLOAD PUSH1 0x40 ADD MLOAD PUSH1 0x3 DUP2 GT ISZERO PUSH2 0x20E9 JUMPI PUSH2 0x20E9 PUSH2 0x294F JUMP JUMPDEST EQ DUP1 ISZERO PUSH2 0x2110 JUMPI POP PUSH1 0x2 PUSH2 0x20FC DUP5 PUSH2 0x2447 JUMP JUMPDEST PUSH1 0x3 DUP2 GT ISZERO PUSH2 0x210D JUMPI PUSH2 0x210D PUSH2 0x294F JUMP JUMPDEST EQ ISZERO JUMPDEST DUP1 ISZERO PUSH2 0x2136 JUMPI POP PUSH1 0x3 PUSH2 0x2122 DUP5 PUSH2 0x2447 JUMP JUMPDEST PUSH1 0x3 DUP2 GT ISZERO PUSH2 0x2133 JUMPI PUSH2 0x2133 PUSH2 0x294F JUMP JUMPDEST EQ ISZERO JUMPDEST ISZERO PUSH2 0x2142 JUMPI POP PUSH0 PUSH2 0x89D JUMP JUMPDEST POP PUSH1 0x1 SWAP3 SWAP2 POP POP JUMP JUMPDEST PUSH2 0x160 DUP2 ADD MLOAD MLOAD PUSH1 0x60 SWAP1 PUSH0 DUP2 PUSH8 0xFFFFFFFFFFFFFFFF DUP2 GT ISZERO PUSH2 0x216F JUMPI PUSH2 0x216F PUSH2 0x2C07 JUMP JUMPDEST PUSH1 0x40 MLOAD SWAP1 DUP1 DUP3 MSTORE DUP1 PUSH1 0x20 MUL PUSH1 0x20 ADD DUP3 ADD PUSH1 0x40 MSTORE DUP1 ISZERO PUSH2 0x21B4 JUMPI DUP2 PUSH1 0x20 ADD JUMPDEST PUSH1 0x40 DUP1 MLOAD DUP1 DUP3 ADD SWAP1 SWAP2 MSTORE PUSH1 0x60 DUP2 MSTORE PUSH0 PUSH1 0x20 DUP3 ADD MSTORE DUP2 MSTORE PUSH1 0x20 ADD SWAP1 PUSH1 0x1 SWAP1 SUB SWAP1 DUP2 PUSH2 0x218D JUMPI SWAP1 POP JUMPDEST POP SWAP1 POP PUSH0 JUMPDEST DUP3 DUP2 LT ISZERO PUSH2 0x2232 JUMPI PUSH1 0x40 MLOAD DUP1 PUSH1 0x40 ADD PUSH1 0x40 MSTORE DUP1 DUP7 PUSH2 0x160 ADD MLOAD DUP4 DUP2 MLOAD DUP2 LT PUSH2 0x21E3 JUMPI PUSH2 0x21E3 PUSH2 0x2DCB JUMP JUMPDEST PUSH1 0x20 SWAP1 DUP2 MUL SWAP2 SWAP1 SWAP2 ADD DUP2 ADD MLOAD DUP3 MSTORE DUP8 MLOAD PUSH0 SWAP1 DUP2 MSTORE PUSH1 0x6 DUP3 MSTORE PUSH1 0x40 DUP1 DUP3 KECCAK256 DUP7 DUP4 MSTORE DUP4 MSTORE SWAP1 KECCAK256 SLOAD SWAP2 ADD MSTORE DUP3 MLOAD DUP4 SWAP1 DUP4 SWAP1 DUP2 LT PUSH2 0x221F JUMPI PUSH2 0x221F PUSH2 0x2DCB JUMP JUMPDEST PUSH1 0x20 SWAP1 DUP2 MUL SWAP2 SWAP1 SWAP2 ADD ADD MSTORE PUSH1 0x1 ADD PUSH2 0x21B9 JUMP JUMPDEST POP SWAP4 SWAP3 POP POP POP JUMP JUMPDEST DUP1 PUSH1 0x3 DUP2 LT ISZERO PUSH2 0x225D JUMPI PUSH1 0x40 MLOAD PUSH4 0x24ACE355 PUSH1 0xE0 SHL DUP2 MSTORE PUSH1 0x4 ADD PUSH1 0x40 MLOAD DUP1 SWAP2 SUB SWAP1 REVERT JUMPDEST PUSH1 0x64 DUP2 GT ISZERO PUSH2 0x227F JUMPI PUSH1 0x40 MLOAD PUSH4 0x2B5DF40F PUSH1 0xE2 SHL DUP2 MSTORE PUSH1 0x4 ADD PUSH1 0x40 MLOAD DUP1 SWAP2 SUB SWAP1 REVERT JUMPDEST POP POP POP JUMP JUMPDEST DUP1 DUP1 ISZERO DUP1 ISZERO SWAP1 PUSH2 0x2294 JUMPI POP PUSH1 0xA DUP2 LT JUMPDEST ISZERO PUSH2 0x22B2 JUMPI PUSH1 0x40 MLOAD PUSH4 0x1B0BF735 PUSH1 0xE2 SHL DUP2 MSTORE PUSH1 0x4 ADD PUSH1 0x40 MLOAD DUP1 SWAP2 SUB SWAP1 REVERT JUMPDEST PUSH2 0x3E8 DUP2 GT ISZERO PUSH2 0x227F JUMPI PUSH1 0x40 MLOAD PUSH4 0x1B0FCE83 PUSH1 0xE0 SHL DUP2 MSTORE PUSH1 0x4 ADD PUSH1 0x40 MLOAD DUP1 SWAP2 SUB SWAP1 REVERT JUMPDEST TIMESTAMP DUP3 LT ISZERO PUSH2 0x22F6 JUMPI PUSH1 0x40 MLOAD PUSH4 0x3EB2D8C5 PUSH1 0xE0 SHL DUP2 MSTORE PUSH1 0x4 ADD PUSH1 0x40 MLOAD DUP1 SWAP2 SUB SWAP1 REVERT JUMPDEST DUP2 DUP2 GT PUSH2 0x2316 JUMPI PUSH1 0x40 MLOAD PUSH4 0x71F32861 PUSH1 0xE1 SHL DUP2 MSTORE PUSH1 0x4 ADD PUSH1 0x40 MLOAD DUP1 SWAP2 SUB SWAP1 REVERT JUMPDEST POP POP JUMP JUMPDEST DUP1 PUSH1 0x2 DUP2 LT ISZERO PUSH2 0x233D JUMPI PUSH1 0x40 MLOAD PUSH4 0x8EE5F57D PUSH1 0xE0 SHL DUP2 MSTORE PUSH1 0x4 ADD PUSH1 0x40 MLOAD DUP1 SWAP2 SUB SWAP1 REVERT JUMPDEST PUSH1 0xA DUP2 GT ISZERO PUSH2 0x235F JUMPI PUSH1 0x40 MLOAD PUSH4 0x701D39F1 PUSH1 0xE1 SHL DUP2 MSTORE PUSH1 0x4 ADD PUSH1 0x40 MLOAD DUP1 SWAP2 SUB SWAP1 REVERT JUMPDEST PUSH0 JUMPDEST DUP2 DUP2 LT ISZERO PUSH2 0x23E4 JUMPI PUSH0 DUP5 DUP5 DUP4 DUP2 DUP2 LT PUSH2 0x237C JUMPI PUSH2 0x237C PUSH2 0x2DCB JUMP JUMPDEST SWAP1 POP PUSH1 0x20 MUL DUP2 ADD SWAP1 PUSH2 0x238E SWAP2 SWAP1 PUSH2 0x2DDF JUMP JUMPDEST SWAP2 POP POP PUSH1 0x1 DUP2 LT ISZERO PUSH2 0x23B6 JUMPI PUSH1 0x40 MLOAD PUSH4 0x23BAE5C5 PUSH1 0xE1 SHL DUP2 MSTORE PUSH1 0x4 DUP2 ADD DUP4 SWAP1 MSTORE PUSH1 0x24 ADD PUSH2 0x1FF1 JUMP JUMPDEST PUSH1 0x64 DUP2 GT ISZERO PUSH2 0x23DB JUMPI PUSH1 0x40 MLOAD PUSH4 0x1E8A1825 PUSH1 0xE2 SHL DUP2 MSTORE PUSH1 0x4 DUP2 ADD DUP4 SWAP1 MSTORE PUSH1 0x24 ADD PUSH2 0x1FF1 JUMP JUMPDEST POP PUSH1 0x1 ADD PUSH2 0x2361 JUMP JUMPDEST POP POP POP POP JUMP JUMPDEST PUSH2 0x23FA PUSH1 0x40 DUP3 ADD PUSH1 0x20 DUP4 ADD PUSH2 0x2D2D JUMP JUMPDEST DUP1 ISZERO PUSH2 0x2426 JUMPI POP PUSH1 0x2 PUSH2 0x2413 PUSH1 0x60 DUP4 ADD PUSH1 0x40 DUP5 ADD PUSH2 0x2E9D JUMP JUMPDEST PUSH1 0x3 DUP2 GT ISZERO PUSH2 0x2424 JUMPI PUSH2 0x2424 PUSH2 0x294F JUMP JUMPDEST EQ JUMPDEST ISZERO PUSH2 0x2444 JUMPI PUSH1 0x40 MLOAD PUSH4 0xDC2CA701 PUSH1 0xE0 SHL DUP2 MSTORE PUSH1 0x4 ADD PUSH1 0x40 MLOAD DUP1 SWAP2 SUB SWAP1 REVERT JUMPDEST POP JUMP JUMPDEST PUSH0 TIMESTAMP DUP3 PUSH1 0x40 ADD MLOAD GT ISZERO PUSH2 0x245B JUMPI POP PUSH0 SWAP2 SWAP1 POP JUMP JUMPDEST DUP2 PUSH1 0x60 ADD MLOAD PUSH1 0x1 SUB PUSH2 0x246F JUMPI POP PUSH1 0x3 SWAP2 SWAP1 POP JUMP JUMPDEST PUSH1 0x1 DUP3 PUSH1 0x60 ADD MLOAD GT DUP1 ISZERO PUSH2 0x2487 JUMPI POP TIMESTAMP DUP3 PUSH1 0x60 ADD MLOAD GT ISZERO JUMPDEST ISZERO PUSH2 0x2494 JUMPI POP PUSH1 0x2 SWAP2 SWAP1 POP JUMP JUMPDEST POP PUSH1 0x1 SWAP2 SWAP1 POP JUMP JUMPDEST DUP3 DUP1 SLOAD DUP3 DUP3 SSTORE SWAP1 PUSH0 MSTORE PUSH1 0x20 PUSH0 KECCAK256 SWAP1 DUP2 ADD SWAP3 DUP3 ISZERO PUSH2 0x24D5 JUMPI SWAP2 PUSH1 0x20 MUL DUP3 ADD JUMPDEST DUP3 DUP2 GT ISZERO PUSH2 0x24D5 JUMPI DUP3 CALLDATALOAD DUP3 SSTORE SWAP2 PUSH1 0x20 ADD SWAP2 SWAP1 PUSH1 0x1 ADD SWAP1 PUSH2 0x24BA JUMP JUMPDEST POP PUSH2 0x24E1 SWAP3 SWAP2 POP PUSH2 0x25DD JUMP JUMPDEST POP SWAP1 JUMP JUMPDEST PUSH1 0x40 MLOAD DUP1 PUSH2 0x1A0 ADD PUSH1 0x40 MSTORE DUP1 PUSH0 PUSH1 0x1 PUSH1 0x1 PUSH1 0xA0 SHL SUB AND DUP2 MSTORE PUSH1 0x20 ADD PUSH1 0x60 DUP2 MSTORE PUSH1 0x20 ADD PUSH1 0x60 DUP2 MSTORE PUSH1 0x20 ADD PUSH0 DUP2 MSTORE PUSH1 0x20 ADD PUSH0 DUP2 MSTORE PUSH1 0x20 ADD PUSH1 0x60 DUP2 MSTORE PUSH1 0x20 ADD PUSH0 DUP2 MSTORE PUSH1 0x20 ADD PUSH0 DUP2 MSTORE PUSH1 0x20 ADD PUSH0 PUSH1 0x3 DUP2 GT ISZERO PUSH2 0x253F JUMPI PUSH2 0x253F PUSH2 0x294F JUMP JUMPDEST DUP2 MSTORE PUSH1 0x20 ADD PUSH2 0x2564 PUSH1 0x40 DUP1 MLOAD PUSH1 0x60 DUP2 ADD DUP3 MSTORE PUSH0 DUP1 DUP3 MSTORE PUSH1 0x20 DUP3 ADD DUP2 SWAP1 MSTORE SWAP1 SWAP2 DUP3 ADD MSTORE SWAP1 JUMP JUMPDEST DUP2 MSTORE PUSH1 0x20 ADD PUSH0 ISZERO ISZERO DUP2 MSTORE PUSH1 0x20 ADD PUSH1 0x60 DUP2 MSTORE PUSH1 0x20 ADD PUSH0 DUP2 MSTORE POP SWAP1 JUMP JUMPDEST PUSH1 0x40 MLOAD DUP1 PUSH2 0x120 ADD PUSH1 0x40 MSTORE DUP1 PUSH0 PUSH1 0x1 PUSH1 0x1 PUSH1 0xA0 SHL SUB AND DUP2 MSTORE PUSH1 0x20 ADD PUSH0 DUP2 MSTORE PUSH1 0x20 ADD PUSH1 0x60 DUP2 MSTORE PUSH1 0x20 ADD PUSH0 DUP2 MSTORE PUSH1 0x20 ADD PUSH0 DUP2 MSTORE PUSH1 0x20 ADD PUSH0 PUSH1 0x3 DUP2 GT ISZERO PUSH2 0x25C5 JUMPI PUSH2 0x25C5 PUSH2 0x294F JUMP JUMPDEST DUP2 MSTORE PUSH1 0x20 ADD PUSH0 DUP2 MSTORE PUSH1 0x20 ADD PUSH0 DUP2 MSTORE PUSH1 0x20 ADD PUSH0 DUP2 MSTORE POP SWAP1 JUMP JUMPDEST JUMPDEST DUP1 DUP3 GT ISZERO PUSH2 0x24E1 JUMPI PUSH0 DUP2 SSTORE PUSH1 0x1 ADD PUSH2 0x25DE JUMP JUMPDEST DUP1 CALLDATALOAD PUSH1 0x1 PUSH1 0x1 PUSH1 0xA0 SHL SUB DUP2 AND DUP2 EQ PUSH2 0x2607 JUMPI PUSH0 DUP1 REVERT JUMPDEST SWAP2 SWAP1 POP JUMP JUMPDEST PUSH0 DUP1 PUSH1 0x40 DUP4 DUP6 SUB SLT ISZERO PUSH2 0x261D JUMPI PUSH0 DUP1 REVERT JUMPDEST DUP3 CALLDATALOAD SWAP2 POP PUSH2 0x262D PUSH1 0x20 DUP5 ADD PUSH2 0x25F1 JUMP JUMPDEST SWAP1 POP SWAP3 POP SWAP3 SWAP1 POP JUMP JUMPDEST PUSH0 DUP2 MLOAD DUP1 DUP5 MSTORE DUP1 PUSH1 0x20 DUP5 ADD PUSH1 0x20 DUP7 ADD MCOPY PUSH0 PUSH1 0x20 DUP3 DUP7 ADD ADD MSTORE PUSH1 0x20 PUSH1 0x1F NOT PUSH1 0x1F DUP4 ADD AND DUP6 ADD ADD SWAP2 POP POP SWAP3 SWAP2 POP POP JUMP JUMPDEST PUSH0 PUSH1 0x20 DUP1 DUP4 MSTORE DUP4 MLOAD PUSH1 0xC0 DUP3 DUP6 ADD MSTORE PUSH2 0x267F PUSH1 0xE0 DUP6 ADD DUP3 PUSH2 0x2636 JUMP JUMPDEST SWAP1 POP DUP2 DUP6 ADD MLOAD PUSH1 0x40 PUSH1 0x1 PUSH1 0x1 PUSH1 0xA0 SHL SUB DUP3 AND PUSH1 0x40 DUP8 ADD MSTORE PUSH1 0x40 DUP8 ADD MLOAD PUSH1 0x60 DUP8 ADD MSTORE PUSH1 0x60 DUP8 ADD MLOAD PUSH1 0x80 DUP8 ADD MSTORE PUSH1 0x80 DUP8 ADD MLOAD SWAP2 POP PUSH1 0x1F NOT DUP1 DUP8 DUP6 SUB ADD PUSH1 0xA0 DUP9 ADD MSTORE DUP4 DUP4 MLOAD DUP1 DUP7 MSTORE DUP7 DUP7 ADD SWAP2 POP DUP7 DUP2 PUSH1 0x5 SHL DUP8 ADD ADD DUP8 DUP7 ADD SWAP6 POP PUSH0 JUMPDEST DUP3 DUP2 LT ISZERO PUSH2 0x2717 JUMPI DUP5 DUP9 DUP4 SUB ADD DUP5 MSTORE DUP7 MLOAD DUP1 MLOAD DUP8 DUP5 MSTORE PUSH2 0x26FA DUP9 DUP6 ADD DUP3 PUSH2 0x2636 JUMP JUMPDEST SWAP2 DUP12 ADD MLOAD SWAP4 DUP12 ADD SWAP4 SWAP1 SWAP4 MSTORE SWAP7 DUP10 ADD SWAP7 SWAP4 DUP10 ADD SWAP4 SWAP2 POP PUSH1 0x1 ADD PUSH2 0x26D8 JUMP JUMPDEST POP PUSH1 0xA0 DUP12 ADD MLOAD PUSH1 0xC0 DUP12 ADD MSTORE DUP1 SWAP9 POP POP POP POP POP POP POP POP POP SWAP3 SWAP2 POP POP JUMP JUMPDEST PUSH0 PUSH1 0x20 DUP3 DUP5 SUB SLT ISZERO PUSH2 0x2743 JUMPI PUSH0 DUP1 REVERT JUMPDEST POP CALLDATALOAD SWAP2 SWAP1 POP JUMP JUMPDEST PUSH0 DUP1 DUP4 PUSH1 0x1F DUP5 ADD SLT PUSH2 0x275A JUMPI PUSH0 DUP1 REVERT JUMPDEST POP DUP2 CALLDATALOAD PUSH8 0xFFFFFFFFFFFFFFFF DUP2 GT ISZERO PUSH2 0x2771 JUMPI PUSH0 DUP1 REVERT JUMPDEST PUSH1 0x20 DUP4 ADD SWAP2 POP DUP4 PUSH1 0x20 DUP3 DUP6 ADD ADD GT ISZERO PUSH2 0x2788 JUMPI PUSH0 DUP1 REVERT JUMPDEST SWAP3 POP SWAP3 SWAP1 POP JUMP JUMPDEST PUSH0 DUP1 DUP4 PUSH1 0x1F DUP5 ADD SLT PUSH2 0x279F JUMPI PUSH0 DUP1 REVERT JUMPDEST POP DUP2 CALLDATALOAD PUSH8 0xFFFFFFFFFFFFFFFF DUP2 GT ISZERO PUSH2 0x27B6 JUMPI PUSH0 DUP1 REVERT JUMPDEST PUSH1 0x20 DUP4 ADD SWAP2 POP DUP4 PUSH1 0x20 DUP3 PUSH1 0x5 SHL DUP6 ADD ADD GT ISZERO PUSH2 0x2788 JUMPI PUSH0 DUP1 REVERT JUMPDEST PUSH0 DUP1 PUSH0 DUP1 PUSH0 DUP1 PUSH0 DUP1 PUSH0 DUP10 DUP12 SUB PUSH2 0x100 DUP2 SLT ISZERO PUSH2 0x27EA JUMPI PUSH0 DUP1 REVERT JUMPDEST DUP11 CALLDATALOAD PUSH8 0xFFFFFFFFFFFFFFFF DUP1 DUP3 GT ISZERO PUSH2 0x2801 JUMPI PUSH0 DUP1 REVERT JUMPDEST PUSH2 0x280D DUP15 DUP4 DUP16 ADD PUSH2 0x274A JUMP JUMPDEST SWAP1 SWAP13 POP SWAP11 POP PUSH1 0x20 DUP14 ADD CALLDATALOAD SWAP2 POP DUP1 DUP3 GT ISZERO PUSH2 0x2825 JUMPI PUSH0 DUP1 REVERT JUMPDEST PUSH2 0x2831 DUP15 DUP4 DUP16 ADD PUSH2 0x274A JUMP JUMPDEST SWAP1 SWAP11 POP SWAP9 POP PUSH1 0x40 DUP14 ADD CALLDATALOAD SWAP8 POP PUSH1 0x60 DUP14 ADD CALLDATALOAD SWAP7 POP PUSH1 0x80 DUP14 ADD CALLDATALOAD SWAP2 POP DUP1 DUP3 GT ISZERO PUSH2 0x2857 JUMPI PUSH0 DUP1 REVERT JUMPDEST POP PUSH2 0x2864 DUP14 DUP3 DUP15 ADD PUSH2 0x278F JUMP JUMPDEST SWAP1 SWAP6 POP SWAP4 POP POP PUSH1 0x60 PUSH1 0x9F NOT DUP3 ADD SLT ISZERO PUSH2 0x287B JUMPI PUSH0 DUP1 REVERT JUMPDEST POP PUSH1 0xA0 DUP11 ADD SWAP1 POP SWAP3 SWAP6 SWAP9 POP SWAP3 SWAP6 SWAP9 POP SWAP3 SWAP6 SWAP9 JUMP JUMPDEST PUSH0 DUP1 PUSH0 PUSH1 0x40 DUP5 DUP7 SUB SLT ISZERO PUSH2 0x28A1 JUMPI PUSH0 DUP1 REVERT JUMPDEST DUP4 CALLDATALOAD SWAP3 POP PUSH1 0x20 DUP5 ADD CALLDATALOAD PUSH8 0xFFFFFFFFFFFFFFFF DUP2 GT ISZERO PUSH2 0x28BE JUMPI PUSH0 DUP1 REVERT JUMPDEST PUSH2 0x28CA DUP7 DUP3 DUP8 ADD PUSH2 0x278F JUMP JUMPDEST SWAP5 SWAP8 SWAP1 SWAP7 POP SWAP4 SWAP5 POP POP POP POP JUMP JUMPDEST PUSH0 PUSH1 0x20 DUP3 DUP5 SUB SLT ISZERO PUSH2 0x28E7 JUMPI PUSH0 DUP1 REVERT JUMPDEST PUSH2 0x28F0 DUP3 PUSH2 0x25F1 JUMP JUMPDEST SWAP4 SWAP3 POP POP POP JUMP JUMPDEST PUSH0 DUP3 DUP3 MLOAD DUP1 DUP6 MSTORE PUSH1 0x20 DUP1 DUP7 ADD SWAP6 POP PUSH1 0x20 DUP3 PUSH1 0x5 SHL DUP5 ADD ADD PUSH1 0x20 DUP7 ADD PUSH0 JUMPDEST DUP5 DUP2 LT ISZERO PUSH2 0x2942 JUMPI PUSH1 0x1F NOT DUP7 DUP5 SUB ADD DUP10 MSTORE PUSH2 0x2930 DUP4 DUP4 MLOAD PUSH2 0x2636 JUMP JUMPDEST SWAP9 DUP5 ADD SWAP9 SWAP3 POP SWAP1 DUP4 ADD SWAP1 PUSH1 0x1 ADD PUSH2 0x2914 JUMP JUMPDEST POP SWAP1 SWAP8 SWAP7 POP POP POP POP POP POP POP JUMP JUMPDEST PUSH4 0x4E487B71 PUSH1 0xE0 SHL PUSH0 MSTORE PUSH1 0x21 PUSH1 0x4 MSTORE PUSH1 0x24 PUSH0 REVERT JUMPDEST PUSH1 0x4 DUP2 LT PUSH2 0x2444 JUMPI PUSH4 0x4E487B71 PUSH1 0xE0 SHL PUSH0 MSTORE PUSH1 0x21 PUSH1 0x4 MSTORE PUSH1 0x24 PUSH0 REVERT JUMPDEST PUSH2 0x2988 DUP2 PUSH2 0x2963 JUMP JUMPDEST SWAP1 MSTORE JUMP JUMPDEST DUP1 MLOAD ISZERO ISZERO DUP3 MSTORE PUSH1 0x20 DUP2 ADD MLOAD ISZERO ISZERO PUSH1 0x20 DUP4 ADD MSTORE PUSH1 0x40 DUP2 ADD MLOAD PUSH2 0x29AC DUP2 PUSH2 0x2963 JUMP JUMPDEST DUP1 PUSH1 0x40 DUP5 ADD MSTORE POP POP POP JUMP JUMPDEST PUSH0 DUP2 MLOAD DUP1 DUP5 MSTORE PUSH1 0x20 DUP1 DUP6 ADD SWAP5 POP PUSH1 0x20 DUP5 ADD PUSH0 JUMPDEST DUP4 DUP2 LT ISZERO PUSH2 0x29E6 JUMPI DUP2 MLOAD DUP8 MSTORE SWAP6 DUP3 ADD SWAP6 SWAP1 DUP3 ADD SWAP1 PUSH1 0x1 ADD PUSH2 0x29CA JUMP JUMPDEST POP SWAP5 SWAP6 SWAP5 POP POP POP POP POP JUMP JUMPDEST PUSH1 0x20 DUP2 MSTORE PUSH2 0x2A0B PUSH1 0x20 DUP3 ADD DUP4 MLOAD PUSH1 0x1 PUSH1 0x1 PUSH1 0xA0 SHL SUB AND SWAP1 MSTORE JUMP JUMPDEST PUSH0 PUSH1 0x20 DUP4 ADD MLOAD PUSH2 0x1E0 DUP1 PUSH1 0x40 DUP6 ADD MSTORE PUSH2 0x2A28 PUSH2 0x200 DUP6 ADD DUP4 PUSH2 0x2636 JUMP JUMPDEST SWAP2 POP PUSH1 0x40 DUP6 ADD MLOAD PUSH1 0x1F NOT DUP1 DUP7 DUP6 SUB ADD PUSH1 0x60 DUP8 ADD MSTORE PUSH2 0x2A46 DUP5 DUP4 PUSH2 0x2636 JUMP JUMPDEST SWAP4 POP PUSH1 0x60 DUP8 ADD MLOAD PUSH1 0x80 DUP8 ADD MSTORE PUSH1 0x80 DUP8 ADD MLOAD PUSH1 0xA0 DUP8 ADD MSTORE PUSH1 0xA0 DUP8 ADD MLOAD SWAP2 POP DUP1 DUP7 DUP6 SUB ADD PUSH1 0xC0 DUP8 ADD MSTORE PUSH2 0x2A77 DUP5 DUP4 PUSH2 0x28F7 JUMP JUMPDEST SWAP4 POP PUSH1 0xC0 DUP8 ADD MLOAD PUSH1 0xE0 DUP8 ADD MSTORE PUSH1 0xE0 DUP8 ADD MLOAD SWAP2 POP PUSH2 0x100 DUP3 DUP2 DUP9 ADD MSTORE DUP1 DUP9 ADD MLOAD SWAP3 POP POP PUSH2 0x120 PUSH2 0x2AA8 DUP2 DUP9 ADD DUP5 PUSH2 0x297F JUMP JUMPDEST DUP8 ADD MLOAD SWAP2 POP PUSH2 0x140 PUSH2 0x2ABC DUP8 DUP3 ADD DUP5 PUSH2 0x298C JUMP JUMPDEST DUP8 ADD MLOAD ISZERO ISZERO PUSH2 0x1A0 DUP8 ADD MSTORE PUSH2 0x160 DUP8 ADD MLOAD DUP7 DUP6 SUB SWAP1 SWAP2 ADD PUSH2 0x1C0 DUP8 ADD MSTORE SWAP1 POP PUSH2 0x2AE5 DUP4 DUP3 PUSH2 0x29B7 JUMP JUMPDEST SWAP3 POP POP PUSH2 0x180 DUP6 ADD MLOAD DUP2 DUP6 ADD MSTORE POP DUP1 SWAP2 POP POP SWAP3 SWAP2 POP POP JUMP JUMPDEST PUSH0 PUSH1 0x20 DUP1 DUP4 ADD DUP2 DUP5 MSTORE DUP1 DUP6 MLOAD DUP1 DUP4 MSTORE PUSH1 0x40 SWAP3 POP PUSH1 0x40 DUP7 ADD SWAP2 POP PUSH1 0x40 DUP2 PUSH1 0x5 SHL DUP8 ADD ADD DUP5 DUP9 ADD PUSH0 JUMPDEST DUP4 DUP2 LT ISZERO PUSH2 0x2BC1 JUMPI DUP9 DUP4 SUB PUSH1 0x3F NOT ADD DUP6 MSTORE DUP2 MLOAD DUP1 MLOAD PUSH1 0x1 PUSH1 0x1 PUSH1 0xA0 SHL SUB AND DUP5 MSTORE PUSH2 0x120 DUP9 DUP3 ADD MLOAD DUP10 DUP7 ADD MSTORE DUP8 DUP3 ADD MLOAD DUP2 DUP10 DUP8 ADD MSTORE PUSH2 0x2B64 DUP3 DUP8 ADD DUP3 PUSH2 0x2636 JUMP JUMPDEST SWAP2 POP POP PUSH1 0x60 DUP1 DUP4 ADD MLOAD DUP2 DUP8 ADD MSTORE POP PUSH1 0x80 DUP1 DUP4 ADD MLOAD DUP2 DUP8 ADD MSTORE POP PUSH1 0xA0 DUP1 DUP4 ADD MLOAD PUSH2 0x2B8F DUP3 DUP9 ADD DUP3 PUSH2 0x297F JUMP JUMPDEST POP POP PUSH1 0xC0 DUP3 DUP2 ADD MLOAD SWAP1 DUP7 ADD MSTORE PUSH1 0xE0 DUP1 DUP4 ADD MLOAD SWAP1 DUP7 ADD MSTORE PUSH2 0x100 SWAP2 DUP3 ADD MLOAD SWAP2 SWAP1 SWAP5 ADD MSTORE SWAP4 DUP7 ADD SWAP4 SWAP1 DUP7 ADD SWAP1 PUSH1 0x1 ADD PUSH2 0x2B24 JUMP JUMPDEST POP SWAP1 SWAP9 SWAP8 POP POP POP POP POP POP POP POP JUMP JUMPDEST PUSH1 0x1 DUP2 DUP2 SHR SWAP1 DUP3 AND DUP1 PUSH2 0x2BE3 JUMPI PUSH1 0x7F DUP3 AND SWAP2 POP JUMPDEST PUSH1 0x20 DUP3 LT DUP2 SUB PUSH2 0x2C01 JUMPI PUSH4 0x4E487B71 PUSH1 0xE0 SHL PUSH0 MSTORE PUSH1 0x22 PUSH1 0x4 MSTORE PUSH1 0x24 PUSH0 REVERT JUMPDEST POP SWAP2 SWAP1 POP JUMP JUMPDEST PUSH4 0x4E487B71 PUSH1 0xE0 SHL PUSH0 MSTORE PUSH1 0x41 PUSH1 0x4 MSTORE PUSH1 0x24 PUSH0 REVERT JUMPDEST PUSH1 0x1F DUP3 GT ISZERO PUSH2 0x227F JUMPI DUP1 PUSH0 MSTORE PUSH1 0x20 PUSH0 KECCAK256 PUSH1 0x1F DUP5 ADD PUSH1 0x5 SHR DUP2 ADD PUSH1 0x20 DUP6 LT ISZERO PUSH2 0x2C40 JUMPI POP DUP1 JUMPDEST PUSH1 0x1F DUP5 ADD PUSH1 0x5 SHR DUP3 ADD SWAP2 POP JUMPDEST DUP2 DUP2 LT ISZERO PUSH2 0x2C5F JUMPI PUSH0 DUP2 SSTORE PUSH1 0x1 ADD PUSH2 0x2C4C JUMP JUMPDEST POP POP POP POP POP JUMP JUMPDEST PUSH8 0xFFFFFFFFFFFFFFFF DUP4 GT ISZERO PUSH2 0x2C7E JUMPI PUSH2 0x2C7E PUSH2 0x2C07 JUMP JUMPDEST PUSH2 0x2C92 DUP4 PUSH2 0x2C8C DUP4 SLOAD PUSH2 0x2BCF JUMP JUMPDEST DUP4 PUSH2 0x2C1B JUMP JUMPDEST PUSH0 PUSH1 0x1F DUP5 GT PUSH1 0x1 DUP2 EQ PUSH2 0x2CC3 JUMPI PUSH0 DUP6 ISZERO PUSH2 0x2CAC JUMPI POP DUP4 DUP3 ADD CALLDATALOAD JUMPDEST PUSH0 NOT PUSH1 0x3 DUP8 SWAP1 SHL SHR NOT AND PUSH1 0x1 DUP7 SWAP1 SHL OR DUP4 SSTORE PUSH2 0x2C5F JUMP JUMPDEST PUSH0 DUP4 DUP2 MSTORE PUSH1 0x20 DUP2 KECCAK256 PUSH1 0x1F NOT DUP8 AND SWAP2 JUMPDEST DUP3 DUP2 LT ISZERO PUSH2 0x2CF2 JUMPI DUP7 DUP6 ADD CALLDATALOAD DUP3 SSTORE PUSH1 0x20 SWAP5 DUP6 ADD SWAP5 PUSH1 0x1 SWAP1 SWAP3 ADD SWAP2 ADD PUSH2 0x2CD2 JUMP JUMPDEST POP DUP7 DUP3 LT ISZERO PUSH2 0x2D0E JUMPI PUSH0 NOT PUSH1 0xF8 DUP9 PUSH1 0x3 SHL AND SHR NOT DUP5 DUP8 ADD CALLDATALOAD AND DUP2 SSTORE JUMPDEST POP POP PUSH1 0x1 DUP6 PUSH1 0x1 SHL ADD DUP4 SSTORE POP POP POP POP POP JUMP JUMPDEST DUP1 ISZERO ISZERO DUP2 EQ PUSH2 0x2444 JUMPI PUSH0 DUP1 REVERT JUMPDEST PUSH0 PUSH1 0x20 DUP3 DUP5 SUB SLT ISZERO PUSH2 0x2D3D JUMPI PUSH0 DUP1 REVERT JUMPDEST DUP2 CALLDATALOAD PUSH2 0x28F0 DUP2 PUSH2 0x2D20 JUMP JUMPDEST PUSH1 0x4 DUP2 LT PUSH2 0x2444 JUMPI PUSH0 DUP1 REVERT JUMPDEST DUP2 CALLDATALOAD PUSH2 0x2D5F DUP2 PUSH2 0x2D20 JUMP JUMPDEST DUP2 SLOAD PUSH1 0xFF NOT DUP2 AND SWAP2 ISZERO ISZERO PUSH1 0xFF AND SWAP2 DUP3 OR DUP4 SSTORE PUSH1 0x20 DUP5 ADD CALLDATALOAD PUSH2 0x2D7F DUP2 PUSH2 0x2D20 JUMP JUMPDEST PUSH2 0xFF00 SWAP1 ISZERO ISZERO PUSH1 0x8 SHL AND PUSH2 0xFFFF NOT DUP3 AND DUP4 OR DUP2 OR DUP5 SSTORE PUSH1 0x40 DUP6 ADD CALLDATALOAD PUSH2 0x2DA3 DUP2 PUSH2 0x2D48 JUMP JUMPDEST PUSH2 0x2DAC DUP2 PUSH2 0x2963 JUMP JUMPDEST PUSH3 0xFF0000 DUP2 PUSH1 0x10 SHL AND DUP5 PUSH3 0xFFFFFF NOT DUP6 AND OR DUP4 OR OR DUP6 SSTORE POP POP POP POP POP POP JUMP JUMPDEST PUSH4 0x4E487B71 PUSH1 0xE0 SHL PUSH0 MSTORE PUSH1 0x32 PUSH1 0x4 MSTORE PUSH1 0x24 PUSH0 REVERT JUMPDEST PUSH0 DUP1 DUP4 CALLDATALOAD PUSH1 0x1E NOT DUP5 CALLDATASIZE SUB ADD DUP2 SLT PUSH2 0x2DF4 JUMPI PUSH0 DUP1 REVERT JUMPDEST DUP4 ADD DUP1 CALLDATALOAD SWAP2 POP PUSH8 0xFFFFFFFFFFFFFFFF DUP3 GT ISZERO PUSH2 0x2E0E JUMPI PUSH0 DUP1 REVERT JUMPDEST PUSH1 0x20 ADD SWAP2 POP CALLDATASIZE DUP2 SWAP1 SUB DUP3 SGT ISZERO PUSH2 0x2788 JUMPI PUSH0 DUP1 REVERT JUMPDEST PUSH0 PUSH1 0x1 DUP3 ADD PUSH2 0x2E3F JUMPI PUSH4 0x4E487B71 PUSH1 0xE0 SHL PUSH0 MSTORE PUSH1 0x11 PUSH1 0x4 MSTORE PUSH1 0x24 PUSH0 REVERT JUMPDEST POP PUSH1 0x1 ADD SWAP1 JUMP JUMPDEST DUP4 DUP2 MSTORE PUSH1 0x40 PUSH1 0x20 DUP3 ADD MSTORE DUP2 PUSH1 0x40 DUP3 ADD MSTORE PUSH0 PUSH32 0x7FFFFFFFFFFFFFFFFFFFFFFFFFFFFFFFFFFFFFFFFFFFFFFFFFFFFFFFFFFFFFF DUP4 GT ISZERO PUSH2 0x2E83 JUMPI PUSH0 DUP1 REVERT JUMPDEST DUP3 PUSH1 0x5 SHL DUP1 DUP6 PUSH1 0x60 DUP6 ADD CALLDATACOPY SWAP2 SWAP1 SWAP2 ADD PUSH1 0x60 ADD SWAP5 SWAP4 POP POP POP POP JUMP JUMPDEST PUSH0 PUSH1 0x20 DUP3 DUP5 SUB SLT ISZERO PUSH2 0x2EAD JUMPI PUSH0 DUP1 REVERT JUMPDEST DUP2 CALLDATALOAD PUSH2 0x28F0 DUP2 PUSH2 0x2D48 JUMP INVALID LOG2 PUSH5 0x6970667358 0x22 SLT KECCAK256 0xD7 DUP2 SWAP15 0xB9 0xEB SSTORE DUP10 0xEC GT 0x4D 0xDB DUP8 DUP1 SWAP2 0xAA CALLDATALOAD SWAP15 0xDC DUP4 SUB SSTORE MUL CREATE SIGNEXTEND RETURNDATASIZE 0xCA 0xB9 0x2F 0xD9 ADDRESS SWAP12 0xB5 PUSH5 0x736F6C6343 STOP ADDMOD NOT STOP CALLER "
    },
    "gasEstimates": {
      "creation": {
        "codeDepositCost": "2402800",
        "executionCost": "2581",
        "totalCost": "2405381"
      },
      "external": {
        "castVote(uint256,uint256[])": "infinite",
        "closePoll(uint256)": "infinite",
        "createPoll(string,string,uint256,uint256,string[],(bool,bool,uint8))": "infinite",
        "deletePoll(uint256)": "36800",
        "getPollDetails(uint256)": "infinite",
        "getPollResults(uint256,address)": "infinite",
        "getPollSummaries()": "infinite",
        "getUserStats(address)": "4883"
      },
      "internal": {
        "getOptionsResult(struct Polls.Poll memory)": "infinite",
        "getPoll(uint256)": "infinite",
        "getStatus(struct Polls.Poll memory)": "infinite",
        "shouldShowResults(struct Polls.Poll memory,address)": "infinite",
        "validateDesc(string calldata)": "infinite",
        "validateOptions(string calldata[] calldata)": "infinite",
        "validateSettings(struct Polls.Settings calldata)": "infinite",
        "validateTimes(uint256,uint256)": "infinite",
        "validateTitle(string calldata)": "infinite"
      }
    },
    "methodIdentifiers": {
      "castVote(uint256,uint256[])": "2fa48e9e",
      "closePoll(uint256)": "9534e637",
      "createPoll(string,string,uint256,uint256,string[],(bool,bool,uint8))": "21b91db5",
      "deletePoll(uint256)": "1f35b51d",
      "getPollDetails(uint256)": "9a0040e4",
      "getPollResults(uint256,address)": "14956b6f",
      "getPollSummaries()": "dfcaab88",
      "getUserStats(address)": "4e43603a"
    }
  },
  "storageLayout": {
    "storage": [
      {
        "astId": 126,
        "contract": "Polls.sol:Polls",
        "label": "polls",
        "offset": 0,
        "slot": "0",
        "type": "t_array(t_struct(Poll)46_storage)dyn_storage"
      },
      {
        "astId": 128,
        "contract": "Polls.sol:Polls",
        "label": "totalPollsCreated",
        "offset": 0,
        "slot": "1",
        "type": "t_uint256"
      },
      {
        "astId": 130,
        "contract": "Polls.sol:Polls",
        "label": "totalVotesReceived",
        "offset": 0,
        "slot": "2",
        "type": "t_uint256"
      },
      {
        "astId": 135,
        "contract": "Polls.sol:Polls",
        "label": "userPolls",
        "offset": 0,
        "slot": "3",
        "type": "t_mapping(t_address,t_array(t_uint256)dyn_storage)"
      },
      {
        "astId": 141,
        "contract": "Polls.sol:Polls",
        "label": "hasVoted",
        "offset": 0,
        "slot": "4",
        "type": "t_mapping(t_uint256,t_mapping(t_address,t_bool))"
      },
      {
        "astId": 145,
        "contract": "Polls.sol:Polls",
        "label": "totalVotes",
        "offset": 0,
        "slot": "5",
        "type": "t_mapping(t_uint256,t_uint256)"
      },
      {
        "astId": 151,
        "contract": "Polls.sol:Polls",
        "label": "optionTotalVotes",
        "offset": 0,
        "slot": "6",
        "type": "t_mapping(t_uint256,t_mapping(t_uint256,t_uint256))"
      },
      {
        "astId": 158,
        "contract": "Polls.sol:Polls",
        "label": "votedIndices",
        "offset": 0,
        "slot": "7",
        "type": "t_mapping(t_uint256,t_mapping(t_address,t_array(t_uint256)dyn_storage))"
      },
      {
        "astId": 162,
        "contract": "Polls.sol:Polls",
        "label": "userTotalVotesReceived",
        "offset": 0,
        "slot": "8",
        "type": "t_mapping(t_address,t_uint256)"
      },
      {
        "astId": 166,
        "contract": "Polls.sol:Polls",
        "label": "userTotalPollsCreated",
        "offset": 0,
        "slot": "9",
        "type": "t_mapping(t_address,t_uint256)"
      }
    ],
    "types": {
      "t_address": {
        "encoding": "inplace",
        "label": "address",
        "numberOfBytes": "20"
      },
      "t_array(t_string_storage)dyn_storage": {
        "base": "t_string_storage",
        "encoding": "dynamic_array",
        "label": "string[]",
        "numberOfBytes": "32"
      },
      "t_array(t_struct(Poll)46_storage)dyn_storage": {
        "base": "t_struct(Poll)46_storage",
        "encoding": "dynamic_array",
        "label": "struct Polls.Poll[]",
        "numberOfBytes": "32"
      },
      "t_array(t_uint256)dyn_storage": {
        "base": "t_uint256",
        "encoding": "dynamic_array",
        "label": "uint256[]",
        "numberOfBytes": "32"
      },
      "t_bool": {
        "encoding": "inplace",
        "label": "bool",
        "numberOfBytes": "1"
      },
      "t_enum(ResultVisibility)11": {
        "encoding": "inplace",
        "label": "enum Polls.ResultVisibility",
        "numberOfBytes": "1"
      },
      "t_mapping(t_address,t_array(t_uint256)dyn_storage)": {
        "encoding": "mapping",
        "key": "t_address",
        "label": "mapping(address => uint256[])",
        "numberOfBytes": "32",
        "value": "t_array(t_uint256)dyn_storage"
      },
      "t_mapping(t_address,t_bool)": {
        "encoding": "mapping",
        "key": "t_address",
        "label": "mapping(address => bool)",
        "numberOfBytes": "32",
        "value": "t_bool"
      },
      "t_mapping(t_address,t_uint256)": {
        "encoding": "mapping",
        "key": "t_address",
        "label": "mapping(address => uint256)",
        "numberOfBytes": "32",
        "value": "t_uint256"
      },
      "t_mapping(t_uint256,t_mapping(t_address,t_array(t_uint256)dyn_storage))": {
        "encoding": "mapping",
        "key": "t_uint256",
        "label": "mapping(uint256 => mapping(address => uint256[]))",
        "numberOfBytes": "32",
        "value": "t_mapping(t_address,t_array(t_uint256)dyn_storage)"
      },
      "t_mapping(t_uint256,t_mapping(t_address,t_bool))": {
        "encoding": "mapping",
        "key": "t_uint256",
        "label": "mapping(uint256 => mapping(address => bool))",
        "numberOfBytes": "32",
        "value": "t_mapping(t_address,t_bool)"
      },
      "t_mapping(t_uint256,t_mapping(t_uint256,t_uint256))": {
        "encoding": "mapping",
        "key": "t_uint256",
        "label": "mapping(uint256 => mapping(uint256 => uint256))",
        "numberOfBytes": "32",
        "value": "t_mapping(t_uint256,t_uint256)"
      },
      "t_mapping(t_uint256,t_uint256)": {
        "encoding": "mapping",
        "key": "t_uint256",
        "label": "mapping(uint256 => uint256)",
        "numberOfBytes": "32",
        "value": "t_uint256"
      },
      "t_string_storage": {
        "encoding": "bytes",
        "label": "string",
        "numberOfBytes": "32"
      },
      "t_struct(Poll)46_storage": {
        "encoding": "inplace",
        "label": "struct Polls.Poll",
        "members": [
          {
            "astId": 21,
            "contract": "Polls.sol:Polls",
            "label": "id",
            "offset": 0,
            "slot": "0",
            "type": "t_uint256"
          },
          {
            "astId": 23,
            "contract": "Polls.sol:Polls",
            "label": "creator",
            "offset": 0,
            "slot": "1",
            "type": "t_address"
          },
          {
            "astId": 25,
            "contract": "Polls.sol:Polls",
            "label": "startsAt",
            "offset": 0,
            "slot": "2",
            "type": "t_uint256"
          },
          {
            "astId": 27,
            "contract": "Polls.sol:Polls",
            "label": "endsAt",
            "offset": 0,
            "slot": "3",
            "type": "t_uint256"
          },
          {
            "astId": 29,
            "contract": "Polls.sol:Polls",
            "label": "participants",
            "offset": 0,
            "slot": "4",
            "type": "t_uint256"
          },
          {
            "astId": 31,
            "contract": "Polls.sol:Polls",
            "label": "totalVotes",
            "offset": 0,
            "slot": "5",
            "type": "t_uint256"
          },
          {
            "astId": 33,
            "contract": "Polls.sol:Polls",
            "label": "createdAt",
            "offset": 0,
            "slot": "6",
            "type": "t_uint256"
          },
          {
            "astId": 35,
            "contract": "Polls.sol:Polls",
            "label": "isDeleted",
            "offset": 0,
            "slot": "7",
            "type": "t_bool"
          },
          {
            "astId": 38,
            "contract": "Polls.sol:Polls",
            "label": "settings",
            "offset": 0,
            "slot": "8",
            "type": "t_struct(Settings)19_storage"
          },
          {
            "astId": 40,
            "contract": "Polls.sol:Polls",
            "label": "title",
            "offset": 0,
            "slot": "9",
            "type": "t_string_storage"
          },
          {
            "astId": 42,
            "contract": "Polls.sol:Polls",
            "label": "description",
            "offset": 0,
            "slot": "10",
            "type": "t_string_storage"
          },
          {
            "astId": 45,
            "contract": "Polls.sol:Polls",
            "label": "options",
            "offset": 0,
            "slot": "11",
            "type": "t_array(t_string_storage)dyn_storage"
          }
        ],
        "numberOfBytes": "384"
      },
      "t_struct(Settings)19_storage": {
        "encoding": "inplace",
        "label": "struct Polls.Settings",
        "members": [
          {
            "astId": 13,
            "contract": "Polls.sol:Polls",
            "label": "multiChoice",
            "offset": 0,
            "slot": "0",
            "type": "t_bool"
          },
          {
            "astId": 15,
            "contract": "Polls.sol:Polls",
            "label": "noDeadline",
            "offset": 1,
            "slot": "0",
            "type": "t_bool"
          },
          {
            "astId": 18,
            "contract": "Polls.sol:Polls",
            "label": "resultVisibility",
            "offset": 2,
            "slot": "0",
            "type": "t_enum(ResultVisibility)11"
          }
        ],
        "numberOfBytes": "32"
      },
      "t_uint256": {
        "encoding": "inplace",
        "label": "uint256",
        "numberOfBytes": "32"
      }
    }
  },
  "userdoc": {
    "kind": "user",
    "methods": {},
    "version": 1
  }
}