{
  "abi": [
    {
      "inputs": [],
      "name": "AccessDenied",
      "type": "error"
    },
    {
      "inputs": [],
      "name": "AlreadyVoted",
      "type": "error"
    },
    {
      "inputs": [],
      "name": "DescriptionTooLarge",
      "type": "error"
    },
    {
      "inputs": [],
      "name": "DescriptionTooShort",
      "type": "error"
    },
    {
      "inputs": [],
      "name": "DuplicateOptionSelected",
      "type": "error"
    },
    {
      "inputs": [],
      "name": "InvalidPollOption",
      "type": "error"
    },
    {
      "inputs": [],
      "name": "MultiChoiceNotAllowed",
      "type": "error"
    },
    {
      "inputs": [],
      "name": "NoOptionSelected",
      "type": "error"
    },
    {
      "inputs": [
        {
          "internalType": "uint256",
          "name": "index",
          "type": "uint256"
        }
      ],
      "name": "OptionTooLarge",
      "type": "error"
    },
    {
      "inputs": [
        {
          "internalType": "uint256",
          "name": "index",
          "type": "uint256"
        }
      ],
      "name": "OptionTooShort",
      "type": "error"
    },
    {
      "inputs": [],
      "name": "PollAlreadyClosed",
      "type": "error"
    },
    {
      "inputs": [],
      "name": "PollMustEndAfterStart",
      "type": "error"
    },
    {
      "inputs": [],
      "name": "PollMustHaveAtLeastTwoOptions",
      "type": "error"
    },
    {
      "inputs": [],
      "name": "PollMustHaveAtMostTenOptions",
      "type": "error"
    },
    {
      "inputs": [],
      "name": "PollMustStartInTheFuture",
      "type": "error"
    },
    {
      "inputs": [
        {
          "internalType": "uint256",
          "name": "pollId",
          "type": "uint256"
        }
      ],
      "name": "PollNotFound",
      "type": "error"
    },
    {
      "inputs": [],
      "name": "PollNotOpen",
      "type": "error"
    },
    {
      "inputs": [],
      "name": "PollResultVisibilitySettingInvalid",
      "type": "error"
    },
    {
      "inputs": [],
      "name": "TitleTooLarge",
      "type": "error"
    },
    {
      "inputs": [],
      "name": "TitleTooShort",
      "type": "error"
    },
    {
      "anonymous": false,
      "inputs": [
        {
          "indexed": true,
          "internalType": "address",
          "name": "creator",
          "type": "address"
        },
        {
          "indexed": true,
          "internalType": "uint256",
          "name": "pollId",
          "type": "uint256"
        }
      ],
      "name": "PollClosed",
      "type": "event"
    },
    {
      "anonymous": false,
      "inputs": [
        {
          "indexed": true,
          "internalType": "address",
          "name": "creator",
          "type": "address"
        },
        {
          "indexed": true,
          "internalType": "uint256",
          "name": "pollId",
          "type": "uint256"
        }
      ],
      "name": "PollCreated",
      "type": "event"
    },
    {
      "anonymous": false,
      "inputs": [
        {
          "indexed": true,
          "internalType": "address",
          "name": "voter",
          "type": "address"
        },
        {
          "indexed": false,
          "internalType": "uint256",
          "name": "pollId",
          "type": "uint256"
        },
        {
          "indexed": false,
          "internalType": "uint256[]",
          "name": "optionIndices",
          "type": "uint256[]"
        }
      ],
      "name": "Voted",
      "type": "event"
    },
    {
      "inputs": [
        {
          "internalType": "address",
          "name": "",
          "type": "address"
        },
        {
          "internalType": "uint256",
          "name": "",
          "type": "uint256"
        }
      ],
      "name": "UserPolls",
      "outputs": [
        {
          "internalType": "uint256",
          "name": "",
          "type": "uint256"
        }
      ],
      "stateMutability": "view",
      "type": "function"
    },
    {
      "inputs": [
        {
          "internalType": "uint256",
          "name": "_pollId",
          "type": "uint256"
        }
      ],
      "name": "closePoll",
      "outputs": [],
      "stateMutability": "nonpayable",
      "type": "function"
    },
    {
      "inputs": [
        {
          "internalType": "string",
          "name": "_title",
          "type": "string"
        },
        {
          "internalType": "string",
          "name": "_desc",
          "type": "string"
        },
        {
          "internalType": "uint256",
          "name": "_startsAt",
          "type": "uint256"
        },
        {
          "internalType": "uint256",
          "name": "_endsAt",
          "type": "uint256"
        },
        {
          "internalType": "string[]",
          "name": "_options",
          "type": "string[]"
        },
        {
          "components": [
            {
              "internalType": "bool",
              "name": "multiChoice",
              "type": "bool"
            },
            {
              "internalType": "bool",
              "name": "noDeadline",
              "type": "bool"
            },
            {
              "internalType": "enum Polls.PollResultVisibility",
              "name": "resultVisibility",
              "type": "uint8"
            }
          ],
          "internalType": "struct Polls.PollSettings",
          "name": "_settings",
          "type": "tuple"
        }
      ],
      "name": "createPoll",
      "outputs": [
        {
          "internalType": "uint256",
          "name": "",
          "type": "uint256"
        }
      ],
      "stateMutability": "nonpayable",
      "type": "function"
    },
    {
      "inputs": [
        {
          "internalType": "uint256",
          "name": "_pollId",
          "type": "uint256"
        }
      ],
      "name": "getPollDetails",
      "outputs": [
        {
          "components": [
            {
              "internalType": "address",
              "name": "creator",
              "type": "address"
            },
            {
              "internalType": "string",
              "name": "title",
              "type": "string"
            },
            {
              "internalType": "string",
              "name": "description",
              "type": "string"
            },
            {
              "internalType": "uint256",
              "name": "startsAt",
              "type": "uint256"
            },
            {
              "internalType": "uint256",
              "name": "endsAt",
              "type": "uint256"
            },
            {
              "components": [
                {
                  "internalType": "string",
                  "name": "text",
                  "type": "string"
                },
                {
                  "internalType": "uint256",
                  "name": "votes",
                  "type": "uint256"
                }
              ],
              "internalType": "struct Polls.OptionResult[]",
              "name": "options",
              "type": "tuple[]"
            },
            {
              "internalType": "uint256",
              "name": "pollVotes",
              "type": "uint256"
            },
            {
              "components": [
                {
                  "internalType": "bool",
                  "name": "multiChoice",
                  "type": "bool"
                },
                {
                  "internalType": "bool",
                  "name": "noDeadline",
                  "type": "bool"
                },
                {
                  "internalType": "enum Polls.PollResultVisibility",
                  "name": "resultVisibility",
                  "type": "uint8"
                }
              ],
              "internalType": "struct Polls.PollSettings",
              "name": "settings",
              "type": "tuple"
            },
            {
              "internalType": "bool",
              "name": "hasVoted",
              "type": "bool"
            },
            {
              "internalType": "uint256[]",
              "name": "votedIndices",
              "type": "uint256[]"
            }
          ],
          "internalType": "struct Polls.PollDetails",
          "name": "",
          "type": "tuple"
        }
      ],
      "stateMutability": "view",
      "type": "function"
    },
    {
      "inputs": [],
      "name": "getPollSummaries",
      "outputs": [
        {
          "components": [
            {
              "internalType": "address",
              "name": "creator",
              "type": "address"
            },
            {
              "internalType": "uint256",
              "name": "id",
              "type": "uint256"
            },
            {
              "internalType": "string",
              "name": "title",
              "type": "string"
            },
            {
              "internalType": "uint256",
              "name": "pollVotes",
              "type": "uint256"
            },
            {
              "internalType": "enum Polls.PollStatus",
              "name": "status",
              "type": "uint8"
            }
          ],
          "internalType": "struct Polls.PollSummary[]",
          "name": "",
          "type": "tuple[]"
        }
      ],
      "stateMutability": "view",
      "type": "function"
    },
    {
      "inputs": [
        {
          "internalType": "uint256",
          "name": "",
          "type": "uint256"
        }
      ],
      "name": "polls",
      "outputs": [
        {
          "internalType": "address",
          "name": "creator",
          "type": "address"
        },
        {
          "internalType": "uint256",
          "name": "id",
          "type": "uint256"
        },
        {
          "internalType": "string",
          "name": "title",
          "type": "string"
        },
        {
          "internalType": "string",
          "name": "description",
          "type": "string"
        },
        {
          "internalType": "uint256",
          "name": "startsAt",
          "type": "uint256"
        },
        {
          "internalType": "uint256",
          "name": "endsAt",
          "type": "uint256"
        },
        {
          "internalType": "uint256",
          "name": "pollVotes",
          "type": "uint256"
        },
        {
          "components": [
            {
              "internalType": "bool",
              "name": "multiChoice",
              "type": "bool"
            },
            {
              "internalType": "bool",
              "name": "noDeadline",
              "type": "bool"
            },
            {
              "internalType": "enum Polls.PollResultVisibility",
              "name": "resultVisibility",
              "type": "uint8"
            }
          ],
          "internalType": "struct Polls.PollSettings",
          "name": "settings",
          "type": "tuple"
        }
      ],
      "stateMutability": "view",
      "type": "function"
    },
    {
      "inputs": [
        {
          "internalType": "uint256",
          "name": "_pollId",
          "type": "uint256"
        },
        {
          "internalType": "uint256[]",
          "name": "_optionIndices",
          "type": "uint256[]"
        }
      ],
      "name": "vote",
      "outputs": [],
      "stateMutability": "nonpayable",
      "type": "function"
    }
  ],
  "devdoc": {
    "kind": "dev",
    "methods": {},
    "version": 1
  },
  "evm": {
    "assembly": "    /* \"Polls.sol\":72:9099  contract Polls {... */\n  mstore(0x40, 0x80)\n  callvalue\n  dup1\n  iszero\n  tag_1\n  jumpi\n  0x00\n  dup1\n  revert\ntag_1:\n  pop\n  dataSize(sub_0)\n  dup1\n  dataOffset(sub_0)\n  0x00\n  codecopy\n  0x00\n  return\nstop\n\nsub_0: assembly {\n        /* \"Polls.sol\":72:9099  contract Polls {... */\n      mstore(0x40, 0x80)\n      callvalue\n      dup1\n      iszero\n      tag_1\n      jumpi\n      0x00\n      dup1\n      revert\n    tag_1:\n      pop\n      jumpi(tag_2, lt(calldatasize, 0x04))\n      shr(0xe0, calldataload(0x00))\n      dup1\n      0x9534e637\n      gt\n      tag_10\n      jumpi\n      dup1\n      0x9534e637\n      eq\n      tag_6\n      jumpi\n      dup1\n      0x9a0040e4\n      eq\n      tag_7\n      jumpi\n      dup1\n      0xac2f0074\n      eq\n      tag_8\n      jumpi\n      dup1\n      0xdfcaab88\n      eq\n      tag_9\n      jumpi\n      0x00\n      dup1\n      revert\n    tag_10:\n      dup1\n      0x1994a615\n      eq\n      tag_3\n      jumpi\n      dup1\n      0x21b91db5\n      eq\n      tag_4\n      jumpi\n      dup1\n      0x7055d368\n      eq\n      tag_5\n      jumpi\n    tag_2:\n      0x00\n      dup1\n      revert\n        /* \"Polls.sol\":1292:1338  mapping(address => uint256[]) public UserPolls */\n    tag_3:\n      tag_11\n      tag_12\n      calldatasize\n      0x04\n      tag_13\n      jump\t// in\n    tag_12:\n      tag_14\n      jump\t// in\n    tag_11:\n      mload(0x40)\n        /* \"#utility.yul\":542:567   */\n      swap1\n      dup2\n      mstore\n        /* \"#utility.yul\":530:532   */\n      0x20\n        /* \"#utility.yul\":515:533   */\n      add\n        /* \"Polls.sol\":1292:1338  mapping(address => uint256[]) public UserPolls */\n    tag_15:\n      mload(0x40)\n      dup1\n      swap2\n      sub\n      swap1\n      return\n        /* \"Polls.sol\":2616:3687  function createPoll(... */\n    tag_4:\n      tag_11\n      tag_18\n      calldatasize\n      0x04\n      tag_19\n      jump\t// in\n    tag_18:\n      tag_20\n      jump\t// in\n        /* \"Polls.sol\":5047:6118  function vote(uint256 _pollId, uint256[] calldata _optionIndices) external {... */\n    tag_5:\n      tag_22\n      tag_23\n      calldatasize\n      0x04\n      tag_24\n      jump\t// in\n    tag_23:\n      tag_25\n      jump\t// in\n    tag_22:\n      stop\n        /* \"Polls.sol\":6126:6444  function closePoll(uint256 _pollId) external {... */\n    tag_6:\n      tag_22\n      tag_27\n      calldatasize\n      0x04\n      tag_28\n      jump\t// in\n    tag_27:\n      tag_29\n      jump\t// in\n        /* \"Polls.sol\":4359:5039  function getPollDetails(... */\n    tag_7:\n      tag_30\n      tag_31\n      calldatasize\n      0x04\n      tag_28\n      jump\t// in\n    tag_31:\n      tag_32\n      jump\t// in\n    tag_30:\n      mload(0x40)\n      tag_15\n      swap2\n      swap1\n      tag_34\n      jump\t// in\n        /* \"Polls.sol\":1266:1285  Poll[] public polls */\n    tag_8:\n      tag_35\n      tag_36\n      calldatasize\n      0x04\n      tag_28\n      jump\t// in\n    tag_36:\n      tag_37\n      jump\t// in\n    tag_35:\n      mload(0x40)\n      tag_15\n      swap9\n      swap8\n      swap7\n      swap6\n      swap5\n      swap4\n      swap3\n      swap2\n      swap1\n      tag_39\n      jump\t// in\n        /* \"Polls.sol\":3695:4351  function getPollSummaries() public view returns (PollSummary[] memory) {... */\n    tag_9:\n      tag_40\n      tag_41\n      jump\t// in\n    tag_40:\n      mload(0x40)\n      tag_15\n      swap2\n      swap1\n      tag_43\n      jump\t// in\n        /* \"Polls.sol\":1292:1338  mapping(address => uint256[]) public UserPolls */\n    tag_14:\n      mstore(0x20, 0x01)\n      dup2\n      0x00\n      mstore\n      keccak256(0x00, 0x40)\n      dup2\n      dup2\n      sload\n      dup2\n      lt\n      tag_44\n      jumpi\n      0x00\n      dup1\n      revert\n    tag_44:\n      swap1\n      0x00\n      mstore\n      keccak256(0x00, 0x20)\n      add\n      0x00\n      swap2\n      pop\n      swap2\n      pop\n      pop\n      sload\n      dup2\n      jump\t// out\n        /* \"Polls.sol\":2616:3687  function createPoll(... */\n    tag_20:\n        /* \"Polls.sol\":2859:2866  uint256 */\n      0x00\n        /* \"Polls.sol\":2879:2900  validateTitle(_title) */\n      tag_47\n        /* \"Polls.sol\":2893:2899  _title */\n      dup11\n      dup11\n        /* \"Polls.sol\":2879:2892  validateTitle */\n      tag_48\n        /* \"Polls.sol\":2879:2900  validateTitle(_title) */\n      jump\t// in\n    tag_47:\n        /* \"Polls.sol\":2911:2930  validateDesc(_desc) */\n      tag_49\n        /* \"Polls.sol\":2924:2929  _desc */\n      dup9\n      dup9\n        /* \"Polls.sol\":2911:2923  validateDesc */\n      tag_50\n        /* \"Polls.sol\":2911:2930  validateDesc(_desc) */\n      jump\t// in\n    tag_49:\n        /* \"Polls.sol\":2941:2974  validateTimes(_startsAt, _endsAt) */\n      tag_51\n        /* \"Polls.sol\":2955:2964  _startsAt */\n      dup7\n        /* \"Polls.sol\":2966:2973  _endsAt */\n      dup7\n        /* \"Polls.sol\":2941:2954  validateTimes */\n      tag_52\n        /* \"Polls.sol\":2941:2974  validateTimes(_startsAt, _endsAt) */\n      jump\t// in\n    tag_51:\n        /* \"Polls.sol\":2985:3010  validateOptions(_options) */\n      tag_53\n        /* \"Polls.sol\":3001:3009  _options */\n      dup5\n      dup5\n        /* \"Polls.sol\":2985:3000  validateOptions */\n      tag_54\n        /* \"Polls.sol\":2985:3010  validateOptions(_options) */\n      jump\t// in\n    tag_53:\n        /* \"Polls.sol\":3021:3048  validateSettings(_settings) */\n      tag_55\n        /* \"Polls.sol\":3038:3047  _settings */\n      dup3\n        /* \"Polls.sol\":3021:3037  validateSettings */\n      tag_56\n        /* \"Polls.sol\":3021:3048  validateSettings(_settings) */\n      jump\t// in\n    tag_55:\n        /* \"Polls.sol\":3061:3075  uint256 pollId */\n      0x00\n        /* \"Polls.sol\":3078:3090  polls.length */\n      dup1\n      sload\n        /* \"Polls.sol\":3124:3136  polls.push() */\n      0x01\n      dup2\n      add\n      dup3\n      sstore\n      swap1\n      dup1\n      mstore\n      0x09\n      dup2\n      mul\n      0x290decd9548b62a8d60345a988386fc84ba6bc95484008f6362f93160ef3e563\n      dup2\n      add\n        /* \"Polls.sol\":3147:3175  newPoll.creator = msg.sender */\n      dup1\n      sload\n      0xffffffffffffffffffffffff0000000000000000000000000000000000000000\n      and\n        /* \"Polls.sol\":3165:3175  msg.sender */\n      caller\n        /* \"Polls.sol\":3147:3175  newPoll.creator = msg.sender */\n      or\n      dup2\n      sstore\n        /* \"Polls.sol\":3186:3196  newPoll.id */\n      0x290decd9548b62a8d60345a988386fc84ba6bc95484008f6362f93160ef3e564\n      dup3\n      add\n        /* \"Polls.sol\":3186:3205  newPoll.id = pollId */\n      dup4\n      swap1\n      sstore\n        /* \"Polls.sol\":3124:3136  polls.push() */\n      swap1\n        /* \"Polls.sol\":3216:3229  newPoll.title */\n      0x290decd9548b62a8d60345a988386fc84ba6bc95484008f6362f93160ef3e565\n      add\n        /* \"Polls.sol\":3216:3238  newPoll.title = _title */\n      tag_58\n        /* \"Polls.sol\":3232:3238  _title */\n      dup13\n      dup15\n        /* \"Polls.sol\":3216:3229  newPoll.title */\n      dup4\n        /* \"Polls.sol\":3216:3238  newPoll.title = _title */\n      tag_59\n      jump\t// in\n    tag_58:\n      pop\n        /* \"Polls.sol\":3249:3268  newPoll.description */\n      0x03\n      dup2\n      add\n        /* \"Polls.sol\":3249:3276  newPoll.description = _desc */\n      tag_60\n        /* \"Polls.sol\":3271:3276  _desc */\n      dup11\n      dup13\n        /* \"Polls.sol\":3249:3268  newPoll.description */\n      dup4\n        /* \"Polls.sol\":3249:3276  newPoll.description = _desc */\n      tag_59\n      jump\t// in\n    tag_60:\n      pop\n        /* \"Polls.sol\":3287:3303  newPoll.startsAt */\n      0x04\n      dup2\n      add\n        /* \"Polls.sol\":3287:3315  newPoll.startsAt = _startsAt */\n      dup9\n      swap1\n      sstore\n        /* \"Polls.sol\":3343:3363  _settings.noDeadline */\n      tag_61\n      0x40\n      dup6\n      add\n      0x20\n      dup7\n      add\n      tag_62\n      jump\t// in\n    tag_61:\n        /* \"Polls.sol\":3343:3377  _settings.noDeadline ? 0 : _endsAt */\n      tag_63\n      jumpi\n        /* \"Polls.sol\":3370:3377  _endsAt */\n      dup7\n        /* \"Polls.sol\":3343:3377  _settings.noDeadline ? 0 : _endsAt */\n      jump(tag_64)\n    tag_63:\n        /* \"Polls.sol\":3366:3367  0 */\n      0x00\n        /* \"Polls.sol\":3343:3377  _settings.noDeadline ? 0 : _endsAt */\n    tag_64:\n        /* \"Polls.sol\":3326:3340  newPoll.endsAt */\n      0x05\n      dup3\n      add\n        /* \"Polls.sol\":3326:3377  newPoll.endsAt = _settings.noDeadline ? 0 : _endsAt */\n      sstore\n        /* \"Polls.sol\":3393:3399  uint i */\n      0x00\n        /* \"Polls.sol\":3388:3491  for (uint i = 0; i < _options.length; i++) {... */\n    tag_65:\n        /* \"Polls.sol\":3405:3424  i < _options.length */\n      dup6\n      dup2\n      lt\n        /* \"Polls.sol\":3388:3491  for (uint i = 0; i < _options.length; i++) {... */\n      iszero\n      tag_66\n      jumpi\n        /* \"Polls.sol\":3446:3453  newPoll */\n      dup2\n        /* \"Polls.sol\":3446:3461  newPoll.options */\n      0x06\n      add\n        /* \"Polls.sol\":3467:3475  _options */\n      dup8\n      dup8\n        /* \"Polls.sol\":3476:3477  i */\n      dup4\n        /* \"Polls.sol\":3467:3478  _options[i] */\n      dup2\n      dup2\n      lt\n      tag_69\n      jumpi\n      tag_69\n      tag_70\n      jump\t// in\n    tag_69:\n      swap1\n      pop\n      0x20\n      mul\n      dup2\n      add\n      swap1\n      tag_71\n      swap2\n      swap1\n      tag_72\n      jump\t// in\n    tag_71:\n        /* \"Polls.sol\":3446:3479  newPoll.options.push(_options[i]) */\n      dup3\n      sload\n      0x01\n      dup2\n      add\n      dup5\n      sstore\n      0x00\n      swap4\n      dup5\n      mstore\n      0x20\n      swap1\n      swap4\n      keccak256\n      swap1\n      swap3\n      add\n      swap2\n      tag_74\n      swap2\n      dup4\n      tag_59\n      jump\t// in\n    tag_74:\n      pop\n        /* \"Polls.sol\":3426:3429  i++ */\n      0x01\n      add\n        /* \"Polls.sol\":3388:3491  for (uint i = 0; i < _options.length; i++) {... */\n      jump(tag_65)\n    tag_66:\n      pop\n        /* \"Polls.sol\":3521:3522  0 */\n      0x00\n        /* \"Polls.sol\":3501:3518  newPoll.pollVotes */\n      0x07\n      dup3\n      add\n        /* \"Polls.sol\":3501:3522  newPoll.pollVotes = 0 */\n      sstore\n        /* \"Polls.sol\":3552:3561  _settings */\n      dup4\n        /* \"Polls.sol\":3533:3549  newPoll.settings */\n      0x08\n      dup3\n      add\n        /* \"Polls.sol\":3533:3561  newPoll.settings = _settings */\n      tag_75\n        /* \"Polls.sol\":3552:3561  _settings */\n      dup3\n        /* \"Polls.sol\":3533:3549  newPoll.settings */\n      dup3\n        /* \"Polls.sol\":3533:3561  newPoll.settings = _settings */\n      tag_76\n      jump\t// in\n    tag_75:\n      pop\n      pop\n        /* \"Polls.sol\":3584:3594  msg.sender */\n      caller\n        /* \"Polls.sol\":3574:3595  UserPolls[msg.sender] */\n      0x00\n      dup2\n      dup2\n      mstore\n        /* \"Polls.sol\":3574:3583  UserPolls */\n      0x01\n        /* \"Polls.sol\":3574:3595  UserPolls[msg.sender] */\n      0x20\n      dup2\n      dup2\n      mstore\n      0x40\n      dup1\n      dup5\n      keccak256\n        /* \"Polls.sol\":3574:3608  UserPolls[msg.sender].push(pollId) */\n      dup1\n      sload\n      swap4\n      dup5\n      add\n      dup2\n      sstore\n      dup5\n      mstore\n      swap1\n      dup4\n      keccak256\n      swap1\n      swap2\n      add\n      dup6\n      swap1\n      sstore\n        /* \"Polls.sol\":3624:3655  PollCreated(msg.sender, pollId) */\n      mload\n        /* \"Polls.sol\":3601:3607  pollId */\n      dup5\n      swap3\n        /* \"Polls.sol\":3584:3594  msg.sender */\n      swap2\n        /* \"Polls.sol\":3624:3655  PollCreated(msg.sender, pollId) */\n      0x253458ed40d765e300ef79d87f8b5a901191fbfc27d54b1ea052a6752908953c\n      swap2\n      log3\n      pop\n        /* \"Polls.sol\":3673:3679  pollId */\n      swap1\n      pop\n        /* \"Polls.sol\":2616:3687  function createPoll(... */\n    tag_46:\n      swap10\n      swap9\n      pop\n      pop\n      pop\n      pop\n      pop\n      pop\n      pop\n      pop\n      pop\n      jump\t// out\n        /* \"Polls.sol\":5047:6118  function vote(uint256 _pollId, uint256[] calldata _optionIndices) external {... */\n    tag_25:\n        /* \"Polls.sol\":5133:5150  Poll storage poll */\n      0x00\n        /* \"Polls.sol\":5153:5169  getPoll(_pollId) */\n      tag_79\n        /* \"Polls.sol\":5161:5168  _pollId */\n      dup5\n        /* \"Polls.sol\":5153:5160  getPoll */\n      tag_80\n        /* \"Polls.sol\":5153:5169  getPoll(_pollId) */\n      jump\t// in\n    tag_79:\n        /* \"Polls.sol\":5133:5169  Poll storage poll = getPoll(_pollId) */\n      swap1\n      pop\n        /* \"Polls.sol\":5205:5220  PollStatus.Open */\n      0x01\n        /* \"Polls.sol\":5186:5201  getStatus(poll) */\n      0x40\n      dup1\n      mload\n      0x0120\n      dup2\n      add\n      dup3\n      mstore\n      dup4\n      sload\n      sub(shl(0xa0, 0x01), 0x01)\n      and\n      dup2\n      mstore\n      0x01\n      dup5\n      add\n      sload\n      0x20\n      dup3\n      add\n      mstore\n      0x02\n      dup5\n      add\n      dup1\n      sload\n      tag_84\n      swap4\n        /* \"Polls.sol\":5196:5200  poll */\n      dup7\n      swap3\n        /* \"Polls.sol\":5186:5201  getStatus(poll) */\n      swap1\n      dup5\n      add\n      swap2\n      tag_85\n      swap1\n      tag_86\n      jump\t// in\n    tag_85:\n      dup1\n      0x1f\n      add\n      0x20\n      dup1\n      swap2\n      div\n      mul\n      0x20\n      add\n      mload(0x40)\n      swap1\n      dup2\n      add\n      0x40\n      mstore\n      dup1\n      swap3\n      swap2\n      swap1\n      dup2\n      dup2\n      mstore\n      0x20\n      add\n      dup3\n      dup1\n      sload\n      tag_87\n      swap1\n      tag_86\n      jump\t// in\n    tag_87:\n      dup1\n      iszero\n      tag_88\n      jumpi\n      dup1\n      0x1f\n      lt\n      tag_89\n      jumpi\n      0x0100\n      dup1\n      dup4\n      sload\n      div\n      mul\n      dup4\n      mstore\n      swap2\n      0x20\n      add\n      swap2\n      jump(tag_88)\n    tag_89:\n      dup3\n      add\n      swap2\n      swap1\n      0x00\n      mstore\n      keccak256(0x00, 0x20)\n      swap1\n    tag_90:\n      dup2\n      sload\n      dup2\n      mstore\n      swap1\n      0x01\n      add\n      swap1\n      0x20\n      add\n      dup1\n      dup4\n      gt\n      tag_90\n      jumpi\n      dup3\n      swap1\n      sub\n      0x1f\n      and\n      dup3\n      add\n      swap2\n    tag_88:\n      pop\n      pop\n      pop\n      pop\n      pop\n      dup2\n      mstore\n      0x20\n      add\n      0x03\n      dup3\n      add\n      dup1\n      sload\n      tag_91\n      swap1\n      tag_86\n      jump\t// in\n    tag_91:\n      dup1\n      0x1f\n      add\n      0x20\n      dup1\n      swap2\n      div\n      mul\n      0x20\n      add\n      mload(0x40)\n      swap1\n      dup2\n      add\n      0x40\n      mstore\n      dup1\n      swap3\n      swap2\n      swap1\n      dup2\n      dup2\n      mstore\n      0x20\n      add\n      dup3\n      dup1\n      sload\n      tag_92\n      swap1\n      tag_86\n      jump\t// in\n    tag_92:\n      dup1\n      iszero\n      tag_93\n      jumpi\n      dup1\n      0x1f\n      lt\n      tag_94\n      jumpi\n      0x0100\n      dup1\n      dup4\n      sload\n      div\n      mul\n      dup4\n      mstore\n      swap2\n      0x20\n      add\n      swap2\n      jump(tag_93)\n    tag_94:\n      dup3\n      add\n      swap2\n      swap1\n      0x00\n      mstore\n      keccak256(0x00, 0x20)\n      swap1\n    tag_95:\n      dup2\n      sload\n      dup2\n      mstore\n      swap1\n      0x01\n      add\n      swap1\n      0x20\n      add\n      dup1\n      dup4\n      gt\n      tag_95\n      jumpi\n      dup3\n      swap1\n      sub\n      0x1f\n      and\n      dup3\n      add\n      swap2\n    tag_93:\n      pop\n      pop\n      pop\n      pop\n      pop\n      dup2\n      mstore\n      0x20\n      add\n      0x04\n      dup3\n      add\n      sload\n      dup2\n      mstore\n      0x20\n      add\n      0x05\n      dup3\n      add\n      sload\n      dup2\n      mstore\n      0x20\n      add\n      0x06\n      dup3\n      add\n      dup1\n      sload\n      dup1\n      0x20\n      mul\n      0x20\n      add\n      mload(0x40)\n      swap1\n      dup2\n      add\n      0x40\n      mstore\n      dup1\n      swap3\n      swap2\n      swap1\n      dup2\n      dup2\n      mstore\n      0x20\n      add\n      0x00\n      swap1\n    tag_96:\n      dup3\n      dup3\n      lt\n      iszero\n      tag_97\n      jumpi\n      dup4\n      dup3\n      swap1\n      0x00\n      mstore\n      keccak256(0x00, 0x20)\n      add\n      dup1\n      sload\n      tag_99\n      swap1\n      tag_86\n      jump\t// in\n    tag_99:\n      dup1\n      0x1f\n      add\n      0x20\n      dup1\n      swap2\n      div\n      mul\n      0x20\n      add\n      mload(0x40)\n      swap1\n      dup2\n      add\n      0x40\n      mstore\n      dup1\n      swap3\n      swap2\n      swap1\n      dup2\n      dup2\n      mstore\n      0x20\n      add\n      dup3\n      dup1\n      sload\n      tag_100\n      swap1\n      tag_86\n      jump\t// in\n    tag_100:\n      dup1\n      iszero\n      tag_101\n      jumpi\n      dup1\n      0x1f\n      lt\n      tag_102\n      jumpi\n      0x0100\n      dup1\n      dup4\n      sload\n      div\n      mul\n      dup4\n      mstore\n      swap2\n      0x20\n      add\n      swap2\n      jump(tag_101)\n    tag_102:\n      dup3\n      add\n      swap2\n      swap1\n      0x00\n      mstore\n      keccak256(0x00, 0x20)\n      swap1\n    tag_103:\n      dup2\n      sload\n      dup2\n      mstore\n      swap1\n      0x01\n      add\n      swap1\n      0x20\n      add\n      dup1\n      dup4\n      gt\n      tag_103\n      jumpi\n      dup3\n      swap1\n      sub\n      0x1f\n      and\n      dup3\n      add\n      swap2\n    tag_101:\n      pop\n      pop\n      pop\n      pop\n      pop\n      dup2\n      mstore\n      0x20\n      add\n      swap1\n      0x01\n      add\n      swap1\n      jump(tag_96)\n    tag_97:\n      pop\n      pop\n      pop\n      swap1\n      dup3\n      mstore\n      pop\n      0x07\n      dup3\n      add\n      sload\n      0x20\n      dup1\n      dup4\n      add\n      swap2\n      swap1\n      swap2\n      mstore\n      0x40\n      dup1\n      mload\n      0x60\n      dup2\n      add\n      dup3\n      mstore\n      0x08\n      dup6\n      add\n      dup1\n      sload\n      0xff\n      dup1\n      dup3\n      and\n      iszero\n      iszero\n      dup5\n      mstore\n      0x0100\n      dup3\n      div\n      dup2\n      and\n      iszero\n      iszero\n      swap6\n      dup5\n      add\n      swap6\n      swap1\n      swap6\n      mstore\n      swap5\n      dup4\n      add\n      swap5\n      swap2\n      swap4\n      swap1\n      swap3\n      dup5\n      add\n      swap2\n      0x010000\n      swap1\n      div\n      and\n      0x03\n      dup2\n      gt\n      iszero\n      tag_105\n      jumpi\n      tag_105\n      tag_83\n      jump\t// in\n    tag_105:\n      0x03\n      dup2\n      gt\n      iszero\n      tag_107\n      jumpi\n      tag_107\n      tag_83\n      jump\t// in\n    tag_107:\n      swap1\n      mstore\n      pop\n      swap1\n      mstore\n      pop\n        /* \"Polls.sol\":5186:5195  getStatus */\n      tag_108\n        /* \"Polls.sol\":5186:5201  getStatus(poll) */\n      jump\t// in\n    tag_84:\n        /* \"Polls.sol\":5186:5220  getStatus(poll) != PollStatus.Open */\n      0x03\n      dup2\n      gt\n      iszero\n      tag_110\n      jumpi\n      tag_110\n      tag_83\n      jump\t// in\n    tag_110:\n      eq\n        /* \"Polls.sol\":5182:5242  if (getStatus(poll) != PollStatus.Open) revert PollNotOpen() */\n      tag_111\n      jumpi\n        /* \"Polls.sol\":5229:5242  PollNotOpen() */\n      mload(0x40)\n      shl(0xe0, 0xb4f0e2d9)\n      dup2\n      mstore\n      0x04\n      add\n      mload(0x40)\n      dup1\n      swap2\n      sub\n      swap1\n      revert\n        /* \"Polls.sol\":5182:5242  if (getStatus(poll) != PollStatus.Open) revert PollNotOpen() */\n    tag_111:\n        /* \"Polls.sol\":5257:5274  hasVoted[_pollId] */\n      0x00\n      dup5\n      dup2\n      mstore\n        /* \"Polls.sol\":5257:5265  hasVoted */\n      0x02\n        /* \"Polls.sol\":5257:5274  hasVoted[_pollId] */\n      0x20\n      swap1\n      dup2\n      mstore\n      0x40\n      dup1\n      dup4\n      keccak256\n        /* \"Polls.sol\":5275:5285  msg.sender */\n      caller\n        /* \"Polls.sol\":5257:5286  hasVoted[_pollId][msg.sender] */\n      dup5\n      mstore\n      swap1\n      swap2\n      mstore\n      swap1\n      keccak256\n      sload\n      0xff\n      and\n        /* \"Polls.sol\":5253:5309  if (hasVoted[_pollId][msg.sender]) revert AlreadyVoted() */\n      iszero\n      tag_112\n      jumpi\n        /* \"Polls.sol\":5295:5309  AlreadyVoted() */\n      mload(0x40)\n      shl(0xe0, 0x7c9a1cf9)\n      dup2\n      mstore\n      0x04\n      add\n      mload(0x40)\n      dup1\n      swap2\n      sub\n      swap1\n      revert\n        /* \"Polls.sol\":5253:5309  if (hasVoted[_pollId][msg.sender]) revert AlreadyVoted() */\n    tag_112:\n        /* \"Polls.sol\":5343:5357  _optionIndices */\n      dup2\n        /* \"Polls.sol\":5322:5340  uint256 numChoices */\n      0x00\n        /* \"Polls.sol\":5379:5394  numChoices == 0 */\n      dup2\n      swap1\n      sub\n        /* \"Polls.sol\":5375:5421  if (numChoices == 0) revert NoOptionSelected() */\n      tag_113\n      jumpi\n        /* \"Polls.sol\":5403:5421  NoOptionSelected() */\n      mload(0x40)\n      shl(0xe0, 0xbe5a2acd)\n      dup2\n      mstore\n      0x04\n      add\n      mload(0x40)\n      dup1\n      swap2\n      sub\n      swap1\n      revert\n        /* \"Polls.sol\":5375:5421  if (numChoices == 0) revert NoOptionSelected() */\n    tag_113:\n        /* \"Polls.sol\":5439:5452  poll.settings */\n      0x08\n      dup3\n      add\n        /* \"Polls.sol\":5439:5464  poll.settings.multiChoice */\n      sload\n      0xff\n      and\n        /* \"Polls.sol\":5438:5464  !poll.settings.multiChoice */\n      iszero\n        /* \"Polls.sol\":5438:5482  !poll.settings.multiChoice && numChoices > 1 */\n      dup1\n      iszero\n      tag_114\n      jumpi\n      pop\n        /* \"Polls.sol\":5481:5482  1 */\n      0x01\n        /* \"Polls.sol\":5468:5478  numChoices */\n      dup2\n        /* \"Polls.sol\":5468:5482  numChoices > 1 */\n      gt\n        /* \"Polls.sol\":5438:5482  !poll.settings.multiChoice && numChoices > 1 */\n    tag_114:\n        /* \"Polls.sol\":5434:5541  if (!poll.settings.multiChoice && numChoices > 1) {... */\n      iszero\n      tag_115\n      jumpi\n        /* \"Polls.sol\":5506:5529  MultiChoiceNotAllowed() */\n      mload(0x40)\n      shl(0xe0, 0xbaabd107)\n      dup2\n      mstore\n      0x04\n      add\n      mload(0x40)\n      dup1\n      swap2\n      sub\n      swap1\n      revert\n        /* \"Polls.sol\":5434:5541  if (!poll.settings.multiChoice && numChoices > 1) {... */\n    tag_115:\n        /* \"Polls.sol\":5558:5567  uint256 i */\n      0x00\n        /* \"Polls.sol\":5553:5975  for (uint256 i = 0; i < numChoices; i++) {... */\n    tag_116:\n        /* \"Polls.sol\":5577:5587  numChoices */\n      dup2\n        /* \"Polls.sol\":5573:5574  i */\n      dup2\n        /* \"Polls.sol\":5573:5587  i < numChoices */\n      lt\n        /* \"Polls.sol\":5553:5975  for (uint256 i = 0; i < numChoices; i++) {... */\n      iszero\n      tag_117\n      jumpi\n        /* \"Polls.sol\":5609:5623  uint256 optInx */\n      0x00\n        /* \"Polls.sol\":5626:5640  _optionIndices */\n      dup6\n      dup6\n        /* \"Polls.sol\":5641:5642  i */\n      dup4\n        /* \"Polls.sol\":5626:5643  _optionIndices[i] */\n      dup2\n      dup2\n      lt\n      tag_120\n      jumpi\n      tag_120\n      tag_70\n      jump\t// in\n    tag_120:\n      swap1\n      pop\n      0x20\n      mul\n      add\n      calldataload\n        /* \"Polls.sol\":5609:5643  uint256 optInx = _optionIndices[i] */\n      swap1\n      pop\n        /* \"Polls.sol\":5672:5676  poll */\n      dup4\n        /* \"Polls.sol\":5672:5684  poll.options */\n      0x06\n      add\n        /* \"Polls.sol\":5672:5691  poll.options.length */\n      dup1\n      sload\n      swap1\n      pop\n        /* \"Polls.sol\":5662:5668  optInx */\n      dup2\n        /* \"Polls.sol\":5662:5691  optInx >= poll.options.length */\n      lt\n        /* \"Polls.sol\":5658:5719  if (optInx >= poll.options.length) revert InvalidPollOption() */\n      tag_121\n      jumpi\n        /* \"Polls.sol\":5700:5719  InvalidPollOption() */\n      mload(0x40)\n      shl(0xe0, 0x70039a25)\n      dup2\n      mstore\n      0x04\n      add\n      mload(0x40)\n      dup1\n      swap2\n      sub\n      swap1\n      revert\n        /* \"Polls.sol\":5658:5719  if (optInx >= poll.options.length) revert InvalidPollOption() */\n    tag_121:\n        /* \"Polls.sol\":5739:5748  uint256 j */\n      0x00\n        /* \"Polls.sol\":5734:5919  for (uint256 j = 0; j < i; j++) {... */\n    tag_122:\n        /* \"Polls.sol\":5758:5759  i */\n      dup3\n        /* \"Polls.sol\":5754:5755  j */\n      dup2\n        /* \"Polls.sol\":5754:5759  j < i */\n      lt\n        /* \"Polls.sol\":5734:5919  for (uint256 j = 0; j < i; j++) {... */\n      iszero\n      tag_123\n      jumpi\n        /* \"Polls.sol\":5810:5824  _optionIndices */\n      dup7\n      dup7\n        /* \"Polls.sol\":5825:5826  j */\n      dup3\n        /* \"Polls.sol\":5810:5827  _optionIndices[j] */\n      dup2\n      dup2\n      lt\n      tag_126\n      jumpi\n      tag_126\n      tag_70\n      jump\t// in\n    tag_126:\n      swap1\n      pop\n      0x20\n      mul\n      add\n      calldataload\n        /* \"Polls.sol\":5789:5803  _optionIndices */\n      dup8\n      dup8\n        /* \"Polls.sol\":5804:5805  i */\n      dup6\n        /* \"Polls.sol\":5789:5806  _optionIndices[i] */\n      dup2\n      dup2\n      lt\n      tag_128\n      jumpi\n      tag_128\n      tag_70\n      jump\t// in\n    tag_128:\n      swap1\n      pop\n      0x20\n      mul\n      add\n      calldataload\n        /* \"Polls.sol\":5789:5827  _optionIndices[i] == _optionIndices[j] */\n      sub\n        /* \"Polls.sol\":5785:5904  if (_optionIndices[i] == _optionIndices[j]) {... */\n      tag_129\n      jumpi\n        /* \"Polls.sol\":5859:5884  DuplicateOptionSelected() */\n      mload(0x40)\n      shl(0xe1, 0x0fe3ee13)\n      dup2\n      mstore\n      0x04\n      add\n      mload(0x40)\n      dup1\n      swap2\n      sub\n      swap1\n      revert\n        /* \"Polls.sol\":5785:5904  if (_optionIndices[i] == _optionIndices[j]) {... */\n    tag_129:\n        /* \"Polls.sol\":5761:5764  j++ */\n      0x01\n      add\n        /* \"Polls.sol\":5734:5919  for (uint256 j = 0; j < i; j++) {... */\n      jump(tag_122)\n    tag_123:\n      pop\n        /* \"Polls.sol\":5933:5953  optionVotes[_pollId] */\n      0x00\n      dup8\n      dup2\n      mstore\n        /* \"Polls.sol\":5933:5944  optionVotes */\n      0x04\n        /* \"Polls.sol\":5933:5953  optionVotes[_pollId] */\n      0x20\n      swap1\n      dup2\n      mstore\n      0x40\n      dup1\n      dup4\n      keccak256\n        /* \"Polls.sol\":5933:5961  optionVotes[_pollId][optInx] */\n      dup5\n      dup5\n      mstore\n      swap1\n      swap2\n      mstore\n      dup2\n      keccak256\n        /* \"Polls.sol\":5933:5963  optionVotes[_pollId][optInx]++ */\n      dup1\n      sload\n      swap2\n      tag_130\n      dup4\n      tag_131\n      jump\t// in\n    tag_130:\n      swap1\n      swap2\n      sstore\n      pop\n      pop\n      pop\n        /* \"Polls.sol\":5589:5592  i++ */\n      0x01\n      add\n        /* \"Polls.sol\":5553:5975  for (uint256 i = 0; i < numChoices; i++) {... */\n      jump(tag_116)\n    tag_117:\n      pop\n        /* \"Polls.sol\":5987:6001  poll.pollVotes */\n      0x07\n      dup3\n      add\n        /* \"Polls.sol\":5987:6003  poll.pollVotes++ */\n      dup1\n      sload\n      swap1\n        /* \"Polls.sol\":5987:6001  poll.pollVotes */\n      0x00\n        /* \"Polls.sol\":5987:6003  poll.pollVotes++ */\n      tag_132\n      dup4\n      tag_131\n      jump\t// in\n    tag_132:\n      swap1\n      swap2\n      sstore\n      pop\n      pop\n        /* \"Polls.sol\":6014:6031  hasVoted[_pollId] */\n      0x00\n      dup6\n      dup2\n      mstore\n        /* \"Polls.sol\":6014:6022  hasVoted */\n      0x02\n        /* \"Polls.sol\":6014:6031  hasVoted[_pollId] */\n      0x20\n      swap1\n      dup2\n      mstore\n      0x40\n      dup1\n      dup4\n      keccak256\n        /* \"Polls.sol\":6032:6042  msg.sender */\n      caller\n        /* \"Polls.sol\":6014:6043  hasVoted[_pollId][msg.sender] */\n      dup1\n      dup6\n      mstore\n      swap3\n      mstore\n      swap2\n      dup3\n      swap1\n      keccak256\n        /* \"Polls.sol\":6014:6050  hasVoted[_pollId][msg.sender] = true */\n      dup1\n      sload\n      not(0xff)\n      and\n        /* \"Polls.sol\":6046:6050  true */\n      0x01\n        /* \"Polls.sol\":6014:6050  hasVoted[_pollId][msg.sender] = true */\n      or\n      swap1\n      sstore\n        /* \"Polls.sol\":6068:6110  Voted(msg.sender, _pollId, _optionIndices) */\n      swap1\n      mload\n      0x871b62f932d6ef8afa59aed962334ae3a32efd388f7ec8932a67b7e47ae7795a\n      swap1\n      tag_133\n      swap1\n        /* \"Polls.sol\":6023:6030  _pollId */\n      dup9\n      swap1\n        /* \"Polls.sol\":6095:6109  _optionIndices */\n      dup9\n      swap1\n      dup9\n      swap1\n        /* \"Polls.sol\":6068:6110  Voted(msg.sender, _pollId, _optionIndices) */\n      tag_134\n      jump\t// in\n    tag_133:\n      mload(0x40)\n      dup1\n      swap2\n      sub\n      swap1\n      log2\n        /* \"Polls.sol\":5122:6118  {... */\n      pop\n      pop\n        /* \"Polls.sol\":5047:6118  function vote(uint256 _pollId, uint256[] calldata _optionIndices) external {... */\n      pop\n      pop\n      pop\n      jump\t// out\n        /* \"Polls.sol\":6126:6444  function closePoll(uint256 _pollId) external {... */\n    tag_29:\n        /* \"Polls.sol\":6182:6199  Poll storage poll */\n      0x00\n        /* \"Polls.sol\":6202:6218  getPoll(_pollId) */\n      tag_136\n        /* \"Polls.sol\":6210:6217  _pollId */\n      dup3\n        /* \"Polls.sol\":6202:6209  getPoll */\n      tag_80\n        /* \"Polls.sol\":6202:6218  getPoll(_pollId) */\n      jump\t// in\n    tag_136:\n        /* \"Polls.sol\":6233:6245  poll.creator */\n      dup1\n      sload\n        /* \"Polls.sol\":6182:6218  Poll storage poll = getPoll(_pollId) */\n      swap1\n      swap2\n      pop\n      sub(shl(0xa0, 0x01), 0x01)\n        /* \"Polls.sol\":6233:6245  poll.creator */\n      and\n        /* \"Polls.sol\":6249:6259  msg.sender */\n      caller\n        /* \"Polls.sol\":6233:6259  poll.creator != msg.sender */\n      eq\n        /* \"Polls.sol\":6229:6282  if (poll.creator != msg.sender) revert AccessDenied() */\n      tag_137\n      jumpi\n        /* \"Polls.sol\":6268:6282  AccessDenied() */\n      mload(0x40)\n      shl(0xe0, 0x4ca88867)\n      dup2\n      mstore\n      0x04\n      add\n      mload(0x40)\n      dup1\n      swap2\n      sub\n      swap1\n      revert\n        /* \"Polls.sol\":6229:6282  if (poll.creator != msg.sender) revert AccessDenied() */\n    tag_137:\n        /* \"Polls.sol\":6316:6333  PollStatus.Closed */\n      0x03\n        /* \"Polls.sol\":6297:6312  getStatus(poll) */\n      0x40\n      dup1\n      mload\n      0x0120\n      dup2\n      add\n      dup3\n      mstore\n      dup4\n      sload\n      sub(shl(0xa0, 0x01), 0x01)\n      and\n      dup2\n      mstore\n      0x01\n      dup5\n      add\n      sload\n      0x20\n      dup3\n      add\n      mstore\n      0x02\n      dup5\n      add\n      dup1\n      sload\n      tag_140\n      swap4\n        /* \"Polls.sol\":6307:6311  poll */\n      dup7\n      swap3\n        /* \"Polls.sol\":6297:6312  getStatus(poll) */\n      swap1\n      dup5\n      add\n      swap2\n      tag_141\n      swap1\n      tag_86\n      jump\t// in\n    tag_141:\n      dup1\n      0x1f\n      add\n      0x20\n      dup1\n      swap2\n      div\n      mul\n      0x20\n      add\n      mload(0x40)\n      swap1\n      dup2\n      add\n      0x40\n      mstore\n      dup1\n      swap3\n      swap2\n      swap1\n      dup2\n      dup2\n      mstore\n      0x20\n      add\n      dup3\n      dup1\n      sload\n      tag_142\n      swap1\n      tag_86\n      jump\t// in\n    tag_142:\n      dup1\n      iszero\n      tag_143\n      jumpi\n      dup1\n      0x1f\n      lt\n      tag_144\n      jumpi\n      0x0100\n      dup1\n      dup4\n      sload\n      div\n      mul\n      dup4\n      mstore\n      swap2\n      0x20\n      add\n      swap2\n      jump(tag_143)\n    tag_144:\n      dup3\n      add\n      swap2\n      swap1\n      0x00\n      mstore\n      keccak256(0x00, 0x20)\n      swap1\n    tag_145:\n      dup2\n      sload\n      dup2\n      mstore\n      swap1\n      0x01\n      add\n      swap1\n      0x20\n      add\n      dup1\n      dup4\n      gt\n      tag_145\n      jumpi\n      dup3\n      swap1\n      sub\n      0x1f\n      and\n      dup3\n      add\n      swap2\n    tag_143:\n      pop\n      pop\n      pop\n      pop\n      pop\n      dup2\n      mstore\n      0x20\n      add\n      0x03\n      dup3\n      add\n      dup1\n      sload\n      tag_146\n      swap1\n      tag_86\n      jump\t// in\n    tag_146:\n      dup1\n      0x1f\n      add\n      0x20\n      dup1\n      swap2\n      div\n      mul\n      0x20\n      add\n      mload(0x40)\n      swap1\n      dup2\n      add\n      0x40\n      mstore\n      dup1\n      swap3\n      swap2\n      swap1\n      dup2\n      dup2\n      mstore\n      0x20\n      add\n      dup3\n      dup1\n      sload\n      tag_147\n      swap1\n      tag_86\n      jump\t// in\n    tag_147:\n      dup1\n      iszero\n      tag_148\n      jumpi\n      dup1\n      0x1f\n      lt\n      tag_149\n      jumpi\n      0x0100\n      dup1\n      dup4\n      sload\n      div\n      mul\n      dup4\n      mstore\n      swap2\n      0x20\n      add\n      swap2\n      jump(tag_148)\n    tag_149:\n      dup3\n      add\n      swap2\n      swap1\n      0x00\n      mstore\n      keccak256(0x00, 0x20)\n      swap1\n    tag_150:\n      dup2\n      sload\n      dup2\n      mstore\n      swap1\n      0x01\n      add\n      swap1\n      0x20\n      add\n      dup1\n      dup4\n      gt\n      tag_150\n      jumpi\n      dup3\n      swap1\n      sub\n      0x1f\n      and\n      dup3\n      add\n      swap2\n    tag_148:\n      pop\n      pop\n      pop\n      pop\n      pop\n      dup2\n      mstore\n      0x20\n      add\n      0x04\n      dup3\n      add\n      sload\n      dup2\n      mstore\n      0x20\n      add\n      0x05\n      dup3\n      add\n      sload\n      dup2\n      mstore\n      0x20\n      add\n      0x06\n      dup3\n      add\n      dup1\n      sload\n      dup1\n      0x20\n      mul\n      0x20\n      add\n      mload(0x40)\n      swap1\n      dup2\n      add\n      0x40\n      mstore\n      dup1\n      swap3\n      swap2\n      swap1\n      dup2\n      dup2\n      mstore\n      0x20\n      add\n      0x00\n      swap1\n    tag_151:\n      dup3\n      dup3\n      lt\n      iszero\n      tag_97\n      jumpi\n      dup4\n      dup3\n      swap1\n      0x00\n      mstore\n      keccak256(0x00, 0x20)\n      add\n      dup1\n      sload\n      tag_154\n      swap1\n      tag_86\n      jump\t// in\n    tag_154:\n      dup1\n      0x1f\n      add\n      0x20\n      dup1\n      swap2\n      div\n      mul\n      0x20\n      add\n      mload(0x40)\n      swap1\n      dup2\n      add\n      0x40\n      mstore\n      dup1\n      swap3\n      swap2\n      swap1\n      dup2\n      dup2\n      mstore\n      0x20\n      add\n      dup3\n      dup1\n      sload\n      tag_155\n      swap1\n      tag_86\n      jump\t// in\n    tag_155:\n      dup1\n      iszero\n      tag_156\n      jumpi\n      dup1\n      0x1f\n      lt\n      tag_157\n      jumpi\n      0x0100\n      dup1\n      dup4\n      sload\n      div\n      mul\n      dup4\n      mstore\n      swap2\n      0x20\n      add\n      swap2\n      jump(tag_156)\n    tag_157:\n      dup3\n      add\n      swap2\n      swap1\n      0x00\n      mstore\n      keccak256(0x00, 0x20)\n      swap1\n    tag_158:\n      dup2\n      sload\n      dup2\n      mstore\n      swap1\n      0x01\n      add\n      swap1\n      0x20\n      add\n      dup1\n      dup4\n      gt\n      tag_158\n      jumpi\n      dup3\n      swap1\n      sub\n      0x1f\n      and\n      dup3\n      add\n      swap2\n    tag_156:\n      pop\n      pop\n      pop\n      pop\n      pop\n      dup2\n      mstore\n      0x20\n      add\n      swap1\n      0x01\n      add\n      swap1\n      jump(tag_151)\n    tag_140:\n        /* \"Polls.sol\":6297:6333  getStatus(poll) == PollStatus.Closed */\n      0x03\n      dup2\n      gt\n      iszero\n      tag_164\n      jumpi\n      tag_164\n      tag_83\n      jump\t// in\n    tag_164:\n      sub\n        /* \"Polls.sol\":6293:6361  if (getStatus(poll) == PollStatus.Closed) revert PollAlreadyClosed() */\n      tag_165\n      jumpi\n        /* \"Polls.sol\":6342:6361  PollAlreadyClosed() */\n      mload(0x40)\n      shl(0xe0, 0x9b22ddeb)\n      dup2\n      mstore\n      0x04\n      add\n      mload(0x40)\n      dup1\n      swap2\n      sub\n      swap1\n      revert\n        /* \"Polls.sol\":6293:6361  if (getStatus(poll) == PollStatus.Closed) revert PollAlreadyClosed() */\n    tag_165:\n        /* \"Polls.sol\":6386:6387  1 */\n      0x01\n        /* \"Polls.sol\":6372:6383  poll.endsAt */\n      0x05\n      dup3\n      add\n        /* \"Polls.sol\":6372:6387  poll.endsAt = 1 */\n      sstore\n        /* \"Polls.sol\":6405:6436  PollClosed(msg.sender, _pollId) */\n      mload(0x40)\n        /* \"Polls.sol\":6428:6435  _pollId */\n      dup3\n      swap1\n        /* \"Polls.sol\":6416:6426  msg.sender */\n      caller\n      swap1\n        /* \"Polls.sol\":6405:6436  PollClosed(msg.sender, _pollId) */\n      0x563a96cebb2dd00c04fe16ab3f34901e3749b13da3040e6cae0b5a55ea4daee2\n      swap1\n      0x00\n      swap1\n      log3\n        /* \"Polls.sol\":6171:6444  {... */\n      pop\n        /* \"Polls.sol\":6126:6444  function closePoll(uint256 _pollId) external {... */\n      pop\n      jump\t// out\n        /* \"Polls.sol\":4359:5039  function getPollDetails(... */\n    tag_32:\n        /* \"Polls.sol\":4439:4457  PollDetails memory */\n      tag_166\n      tag_167\n      jump\t// in\n    tag_166:\n        /* \"Polls.sol\":4470:4487  Poll storage poll */\n      0x00\n        /* \"Polls.sol\":4490:4506  getPoll(_pollId) */\n      tag_169\n        /* \"Polls.sol\":4498:4505  _pollId */\n      dup4\n        /* \"Polls.sol\":4490:4497  getPoll */\n      tag_80\n        /* \"Polls.sol\":4490:4506  getPoll(_pollId) */\n      jump\t// in\n    tag_169:\n        /* \"Polls.sol\":4539:5031  PollDetails({... */\n      0x40\n      dup1\n      mload\n      0x0140\n      dup2\n      add\n      swap1\n      swap2\n      mstore\n        /* \"Polls.sol\":4579:4591  poll.creator */\n      dup2\n      sload\n      sub(shl(0xa0, 0x01), 0x01)\n      and\n        /* \"Polls.sol\":4539:5031  PollDetails({... */\n      dup2\n      mstore\n        /* \"Polls.sol\":4617:4627  poll.title */\n      0x02\n      dup3\n      add\n        /* \"Polls.sol\":4539:5031  PollDetails({... */\n      dup1\n      sload\n        /* \"Polls.sol\":4470:4506  Poll storage poll = getPoll(_pollId) */\n      swap3\n      swap4\n      pop\n        /* \"Polls.sol\":4539:5031  PollDetails({... */\n      swap1\n      swap2\n      0x20\n      dup4\n      add\n      swap2\n        /* \"Polls.sol\":4617:4627  poll.title */\n      swap1\n        /* \"Polls.sol\":4539:5031  PollDetails({... */\n      tag_170\n      swap1\n      tag_86\n      jump\t// in\n    tag_170:\n      dup1\n      0x1f\n      add\n      0x20\n      dup1\n      swap2\n      div\n      mul\n      0x20\n      add\n      mload(0x40)\n      swap1\n      dup2\n      add\n      0x40\n      mstore\n      dup1\n      swap3\n      swap2\n      swap1\n      dup2\n      dup2\n      mstore\n      0x20\n      add\n      dup3\n      dup1\n      sload\n      tag_171\n      swap1\n      tag_86\n      jump\t// in\n    tag_171:\n      dup1\n      iszero\n      tag_172\n      jumpi\n      dup1\n      0x1f\n      lt\n      tag_173\n      jumpi\n      0x0100\n      dup1\n      dup4\n      sload\n      div\n      mul\n      dup4\n      mstore\n      swap2\n      0x20\n      add\n      swap2\n      jump(tag_172)\n    tag_173:\n      dup3\n      add\n      swap2\n      swap1\n      0x00\n      mstore\n      keccak256(0x00, 0x20)\n      swap1\n    tag_174:\n      dup2\n      sload\n      dup2\n      mstore\n      swap1\n      0x01\n      add\n      swap1\n      0x20\n      add\n      dup1\n      dup4\n      gt\n      tag_174\n      jumpi\n      dup3\n      swap1\n      sub\n      0x1f\n      and\n      dup3\n      add\n      swap2\n    tag_172:\n      pop\n      pop\n      pop\n      pop\n      pop\n      dup2\n      mstore\n      0x20\n      add\n        /* \"Polls.sol\":4659:4663  poll */\n      dup3\n        /* \"Polls.sol\":4659:4675  poll.description */\n      0x03\n      add\n        /* \"Polls.sol\":4539:5031  PollDetails({... */\n      dup1\n      sload\n      tag_175\n      swap1\n      tag_86\n      jump\t// in\n    tag_175:\n      dup1\n      0x1f\n      add\n      0x20\n      dup1\n      swap2\n      div\n      mul\n      0x20\n      add\n      mload(0x40)\n      swap1\n      dup2\n      add\n      0x40\n      mstore\n      dup1\n      swap3\n      swap2\n      swap1\n      dup2\n      dup2\n      mstore\n      0x20\n      add\n      dup3\n      dup1\n      sload\n      tag_176\n      swap1\n      tag_86\n      jump\t// in\n    tag_176:\n      dup1\n      iszero\n      tag_177\n      jumpi\n      dup1\n      0x1f\n      lt\n      tag_178\n      jumpi\n      0x0100\n      dup1\n      dup4\n      sload\n      div\n      mul\n      dup4\n      mstore\n      swap2\n      0x20\n      add\n      swap2\n      jump(tag_177)\n    tag_178:\n      dup3\n      add\n      swap2\n      swap1\n      0x00\n      mstore\n      keccak256(0x00, 0x20)\n      swap1\n    tag_179:\n      dup2\n      sload\n      dup2\n      mstore\n      swap1\n      0x01\n      add\n      swap1\n      0x20\n      add\n      dup1\n      dup4\n      gt\n      tag_179\n      jumpi\n      dup3\n      swap1\n      sub\n      0x1f\n      and\n      dup3\n      add\n      swap2\n    tag_177:\n      pop\n      pop\n      pop\n      pop\n      pop\n      dup2\n      mstore\n      0x20\n      add\n        /* \"Polls.sol\":4704:4708  poll */\n      dup3\n        /* \"Polls.sol\":4704:4717  poll.startsAt */\n      0x04\n      add\n      sload\n        /* \"Polls.sol\":4539:5031  PollDetails({... */\n      dup2\n      mstore\n      0x20\n      add\n        /* \"Polls.sol\":4744:4748  poll */\n      dup3\n        /* \"Polls.sol\":4744:4755  poll.endsAt */\n      0x05\n      add\n      sload\n        /* \"Polls.sol\":4539:5031  PollDetails({... */\n      dup2\n      mstore\n      0x20\n      add\n        /* \"Polls.sol\":4783:4805  getOptionsResult(poll) */\n      tag_180\n        /* \"Polls.sol\":4800:4804  poll */\n      dup4\n        /* \"Polls.sol\":4783:4805  getOptionsResult(poll) */\n      mload(0x40)\n      dup1\n      0x0120\n      add\n      0x40\n      mstore\n      swap1\n      dup2\n      0x00\n      dup3\n      add\n      0x00\n      swap1\n      sload\n      swap1\n      0x0100\n      exp\n      swap1\n      div\n      sub(shl(0xa0, 0x01), 0x01)\n      and\n      sub(shl(0xa0, 0x01), 0x01)\n      and\n      sub(shl(0xa0, 0x01), 0x01)\n      and\n      dup2\n      mstore\n      0x20\n      add\n      0x01\n      dup3\n      add\n      sload\n      dup2\n      mstore\n      0x20\n      add\n      0x02\n      dup3\n      add\n      dup1\n      sload\n      tag_181\n      swap1\n      tag_86\n      jump\t// in\n    tag_181:\n      dup1\n      0x1f\n      add\n      0x20\n      dup1\n      swap2\n      div\n      mul\n      0x20\n      add\n      mload(0x40)\n      swap1\n      dup2\n      add\n      0x40\n      mstore\n      dup1\n      swap3\n      swap2\n      swap1\n      dup2\n      dup2\n      mstore\n      0x20\n      add\n      dup3\n      dup1\n      sload\n      tag_182\n      swap1\n      tag_86\n      jump\t// in\n    tag_182:\n      dup1\n      iszero\n      tag_183\n      jumpi\n      dup1\n      0x1f\n      lt\n      tag_184\n      jumpi\n      0x0100\n      dup1\n      dup4\n      sload\n      div\n      mul\n      dup4\n      mstore\n      swap2\n      0x20\n      add\n      swap2\n      jump(tag_183)\n    tag_184:\n      dup3\n      add\n      swap2\n      swap1\n      0x00\n      mstore\n      keccak256(0x00, 0x20)\n      swap1\n    tag_185:\n      dup2\n      sload\n      dup2\n      mstore\n      swap1\n      0x01\n      add\n      swap1\n      0x20\n      add\n      dup1\n      dup4\n      gt\n      tag_185\n      jumpi\n      dup3\n      swap1\n      sub\n      0x1f\n      and\n      dup3\n      add\n      swap2\n    tag_183:\n      pop\n      pop\n      pop\n      pop\n      pop\n      dup2\n      mstore\n      0x20\n      add\n      0x03\n      dup3\n      add\n      dup1\n      sload\n      tag_186\n      swap1\n      tag_86\n      jump\t// in\n    tag_186:\n      dup1\n      0x1f\n      add\n      0x20\n      dup1\n      swap2\n      div\n      mul\n      0x20\n      add\n      mload(0x40)\n      swap1\n      dup2\n      add\n      0x40\n      mstore\n      dup1\n      swap3\n      swap2\n      swap1\n      dup2\n      dup2\n      mstore\n      0x20\n      add\n      dup3\n      dup1\n      sload\n      tag_187\n      swap1\n      tag_86\n      jump\t// in\n    tag_187:\n      dup1\n      iszero\n      tag_188\n      jumpi\n      dup1\n      0x1f\n      lt\n      tag_189\n      jumpi\n      0x0100\n      dup1\n      dup4\n      sload\n      div\n      mul\n      dup4\n      mstore\n      swap2\n      0x20\n      add\n      swap2\n      jump(tag_188)\n    tag_189:\n      dup3\n      add\n      swap2\n      swap1\n      0x00\n      mstore\n      keccak256(0x00, 0x20)\n      swap1\n    tag_190:\n      dup2\n      sload\n      dup2\n      mstore\n      swap1\n      0x01\n      add\n      swap1\n      0x20\n      add\n      dup1\n      dup4\n      gt\n      tag_190\n      jumpi\n      dup3\n      swap1\n      sub\n      0x1f\n      and\n      dup3\n      add\n      swap2\n    tag_188:\n      pop\n      pop\n      pop\n      pop\n      pop\n      dup2\n      mstore\n      0x20\n      add\n      0x04\n      dup3\n      add\n      sload\n      dup2\n      mstore\n      0x20\n      add\n      0x05\n      dup3\n      add\n      sload\n      dup2\n      mstore\n      0x20\n      add\n      0x06\n      dup3\n      add\n      dup1\n      sload\n      dup1\n      0x20\n      mul\n      0x20\n      add\n      mload(0x40)\n      swap1\n      dup2\n      add\n      0x40\n      mstore\n      dup1\n      swap3\n      swap2\n      swap1\n      dup2\n      dup2\n      mstore\n      0x20\n      add\n      0x00\n      swap1\n    tag_191:\n      dup3\n      dup3\n      lt\n      iszero\n      tag_192\n      jumpi\n      dup4\n      dup3\n      swap1\n      0x00\n      mstore\n      keccak256(0x00, 0x20)\n      add\n      dup1\n      sload\n      tag_194\n      swap1\n      tag_86\n      jump\t// in\n    tag_194:\n      dup1\n      0x1f\n      add\n      0x20\n      dup1\n      swap2\n      div\n      mul\n      0x20\n      add\n      mload(0x40)\n      swap1\n      dup2\n      add\n      0x40\n      mstore\n      dup1\n      swap3\n      swap2\n      swap1\n      dup2\n      dup2\n      mstore\n      0x20\n      add\n      dup3\n      dup1\n      sload\n      tag_195\n      swap1\n      tag_86\n      jump\t// in\n    tag_195:\n      dup1\n      iszero\n      tag_196\n      jumpi\n      dup1\n      0x1f\n      lt\n      tag_197\n      jumpi\n      0x0100\n      dup1\n      dup4\n      sload\n      div\n      mul\n      dup4\n      mstore\n      swap2\n      0x20\n      add\n      swap2\n      jump(tag_196)\n    tag_197:\n      dup3\n      add\n      swap2\n      swap1\n      0x00\n      mstore\n      keccak256(0x00, 0x20)\n      swap1\n    tag_198:\n      dup2\n      sload\n      dup2\n      mstore\n      swap1\n      0x01\n      add\n      swap1\n      0x20\n      add\n      dup1\n      dup4\n      gt\n      tag_198\n      jumpi\n      dup3\n      swap1\n      sub\n      0x1f\n      and\n      dup3\n      add\n      swap2\n    tag_196:\n      pop\n      pop\n      pop\n      pop\n      pop\n      dup2\n      mstore\n      0x20\n      add\n      swap1\n      0x01\n      add\n      swap1\n      jump(tag_191)\n    tag_192:\n      pop\n      pop\n      pop\n      swap1\n      dup3\n      mstore\n      pop\n      0x07\n      dup3\n      add\n      sload\n      0x20\n      dup1\n      dup4\n      add\n      swap2\n      swap1\n      swap2\n      mstore\n      0x40\n      dup1\n      mload\n      0x60\n      dup2\n      add\n      dup3\n      mstore\n      0x08\n      dup6\n      add\n      dup1\n      sload\n      0xff\n      dup1\n      dup3\n      and\n      iszero\n      iszero\n      dup5\n      mstore\n      0x0100\n      dup3\n      div\n      dup2\n      and\n      iszero\n      iszero\n      swap6\n      dup5\n      add\n      swap6\n      swap1\n      swap6\n      mstore\n      swap5\n      dup4\n      add\n      swap5\n      swap2\n      swap4\n      swap1\n      swap3\n      dup5\n      add\n      swap2\n      0x010000\n      swap1\n      div\n      and\n      0x03\n      dup2\n      gt\n      iszero\n      tag_200\n      jumpi\n      tag_200\n      tag_83\n      jump\t// in\n    tag_200:\n      0x03\n      dup2\n      gt\n      iszero\n      tag_202\n      jumpi\n      tag_202\n      tag_83\n      jump\t// in\n    tag_202:\n      swap1\n      mstore\n      pop\n      swap1\n      mstore\n      pop\n        /* \"Polls.sol\":4783:4799  getOptionsResult */\n      tag_203\n        /* \"Polls.sol\":4783:4805  getOptionsResult(poll) */\n      jump\t// in\n    tag_180:\n        /* \"Polls.sol\":4539:5031  PollDetails({... */\n      dup2\n      mstore\n        /* \"Polls.sol\":4835:4849  poll.pollVotes */\n      0x07\n      dup4\n      add\n      sload\n        /* \"Polls.sol\":4539:5031  PollDetails({... */\n      0x20\n      dup1\n      dup4\n      add\n      swap2\n      swap1\n      swap2\n      mstore\n      0x40\n      dup1\n      mload\n      0x60\n      dup2\n      add\n      dup3\n      mstore\n        /* \"Polls.sol\":4878:4891  poll.settings */\n      0x08\n      dup7\n      add\n        /* \"Polls.sol\":4539:5031  PollDetails({... */\n      dup1\n      sload\n      0xff\n      dup1\n      dup3\n      and\n      iszero\n      iszero\n      dup5\n      mstore\n      0x0100\n      dup3\n      div\n      dup2\n      and\n      iszero\n      iszero\n      swap6\n      dup5\n      add\n      swap6\n      swap1\n      swap6\n      mstore\n      swap5\n      dup4\n      add\n      swap5\n      swap2\n      swap4\n        /* \"Polls.sol\":4878:4891  poll.settings */\n      swap1\n      swap3\n        /* \"Polls.sol\":4539:5031  PollDetails({... */\n      dup5\n      add\n      swap2\n      0x010000\n      swap1\n      div\n      and\n      0x03\n      dup2\n      gt\n      iszero\n      tag_205\n      jumpi\n      tag_205\n      tag_83\n      jump\t// in\n    tag_205:\n      0x03\n      dup2\n      gt\n      iszero\n      tag_207\n      jumpi\n      tag_207\n      tag_83\n      jump\t// in\n    tag_207:\n      swap1\n      mstore\n      pop\n      dup2\n      mstore\n        /* \"Polls.sol\":4920:4937  hasVoted[_pollId] */\n      0x00\n      dup6\n      dup2\n      mstore\n        /* \"Polls.sol\":4920:4928  hasVoted */\n      0x02\n        /* \"Polls.sol\":4539:5031  PollDetails({... */\n      0x20\n        /* \"Polls.sol\":4920:4937  hasVoted[_pollId] */\n      swap1\n      dup2\n      mstore\n      0x40\n      dup1\n      dup4\n      keccak256\n        /* \"Polls.sol\":4938:4948  msg.sender */\n      caller\n        /* \"Polls.sol\":4920:4949  hasVoted[_pollId][msg.sender] */\n      dup1\n      dup6\n      mstore\n      swap1\n      dup4\n      mstore\n      dup2\n      dup5\n      keccak256\n      sload\n      0xff\n      and\n        /* \"Polls.sol\":4539:5031  PollDetails({... */\n      iszero\n      iszero\n      dup4\n      dup7\n      add\n      mstore\n        /* \"Polls.sol\":4982:5003  votedIndices[_pollId] */\n      dup9\n      dup5\n      mstore\n        /* \"Polls.sol\":4982:4994  votedIndices */\n      0x05\n        /* \"Polls.sol\":4982:5003  votedIndices[_pollId] */\n      dup4\n      mstore\n      dup2\n      dup5\n      keccak256\n        /* \"Polls.sol\":4982:5015  votedIndices[_pollId][msg.sender] */\n      swap1\n      dup5\n      mstore\n      dup3\n      mstore\n      swap2\n      dup3\n      swap1\n      keccak256\n        /* \"Polls.sol\":4539:5031  PollDetails({... */\n      dup1\n      sload\n      dup4\n      mload\n      dup2\n      dup5\n      mul\n      dup2\n      add\n      dup5\n      add\n      dup6\n      mstore\n      dup2\n      dup2\n      mstore\n      swap4\n      swap1\n      swap5\n      add\n      swap4\n        /* \"Polls.sol\":4982:5015  votedIndices[_pollId][msg.sender] */\n      swap1\n      swap2\n        /* \"Polls.sol\":4539:5031  PollDetails({... */\n      dup4\n      add\n        /* \"Polls.sol\":4982:5015  votedIndices[_pollId][msg.sender] */\n      dup3\n        /* \"Polls.sol\":4539:5031  PollDetails({... */\n      dup3\n      dup1\n      iszero\n      tag_208\n      jumpi\n      0x20\n      mul\n      dup3\n      add\n      swap2\n      swap1\n      0x00\n      mstore\n      keccak256(0x00, 0x20)\n      swap1\n    tag_209:\n      dup2\n      sload\n      dup2\n      mstore\n      0x20\n      add\n      swap1\n      0x01\n      add\n      swap1\n      dup1\n      dup4\n      gt\n      tag_209\n      jumpi\n    tag_208:\n      pop\n      pop\n      pop\n      pop\n      pop\n      dup2\n      mstore\n      pop\n        /* \"Polls.sol\":4519:5031  return... */\n      swap2\n      pop\n      pop\n        /* \"Polls.sol\":4359:5039  function getPollDetails(... */\n      swap2\n      swap1\n      pop\n      jump\t// out\n        /* \"Polls.sol\":1266:1285  Poll[] public polls */\n    tag_37:\n      0x00\n      dup2\n      dup2\n      sload\n      dup2\n      lt\n      tag_210\n      jumpi\n      0x00\n      dup1\n      revert\n    tag_210:\n      0x00\n      swap2\n      dup3\n      mstore\n      0x20\n      swap1\n      swap2\n      keccak256\n      0x09\n      swap1\n      swap2\n      mul\n      add\n      dup1\n      sload\n      0x01\n      dup3\n      add\n      sload\n      0x02\n      dup4\n      add\n      dup1\n      sload\n      sub(shl(0xa0, 0x01), 0x01)\n      swap1\n      swap4\n      and\n      swap5\n      pop\n      swap1\n      swap3\n      swap2\n      tag_212\n      swap1\n      tag_86\n      jump\t// in\n    tag_212:\n      dup1\n      0x1f\n      add\n      0x20\n      dup1\n      swap2\n      div\n      mul\n      0x20\n      add\n      mload(0x40)\n      swap1\n      dup2\n      add\n      0x40\n      mstore\n      dup1\n      swap3\n      swap2\n      swap1\n      dup2\n      dup2\n      mstore\n      0x20\n      add\n      dup3\n      dup1\n      sload\n      tag_213\n      swap1\n      tag_86\n      jump\t// in\n    tag_213:\n      dup1\n      iszero\n      tag_214\n      jumpi\n      dup1\n      0x1f\n      lt\n      tag_215\n      jumpi\n      0x0100\n      dup1\n      dup4\n      sload\n      div\n      mul\n      dup4\n      mstore\n      swap2\n      0x20\n      add\n      swap2\n      jump(tag_214)\n    tag_215:\n      dup3\n      add\n      swap2\n      swap1\n      0x00\n      mstore\n      keccak256(0x00, 0x20)\n      swap1\n    tag_216:\n      dup2\n      sload\n      dup2\n      mstore\n      swap1\n      0x01\n      add\n      swap1\n      0x20\n      add\n      dup1\n      dup4\n      gt\n      tag_216\n      jumpi\n      dup3\n      swap1\n      sub\n      0x1f\n      and\n      dup3\n      add\n      swap2\n    tag_214:\n      pop\n      pop\n      pop\n      pop\n      pop\n      swap1\n      dup1\n      0x03\n      add\n      dup1\n      sload\n      tag_217\n      swap1\n      tag_86\n      jump\t// in\n    tag_217:\n      dup1\n      0x1f\n      add\n      0x20\n      dup1\n      swap2\n      div\n      mul\n      0x20\n      add\n      mload(0x40)\n      swap1\n      dup2\n      add\n      0x40\n      mstore\n      dup1\n      swap3\n      swap2\n      swap1\n      dup2\n      dup2\n      mstore\n      0x20\n      add\n      dup3\n      dup1\n      sload\n      tag_218\n      swap1\n      tag_86\n      jump\t// in\n    tag_218:\n      dup1\n      iszero\n      tag_219\n      jumpi\n      dup1\n      0x1f\n      lt\n      tag_220\n      jumpi\n      0x0100\n      dup1\n      dup4\n      sload\n      div\n      mul\n      dup4\n      mstore\n      swap2\n      0x20\n      add\n      swap2\n      jump(tag_219)\n    tag_220:\n      dup3\n      add\n      swap2\n      swap1\n      0x00\n      mstore\n      keccak256(0x00, 0x20)\n      swap1\n    tag_221:\n      dup2\n      sload\n      dup2\n      mstore\n      swap1\n      0x01\n      add\n      swap1\n      0x20\n      add\n      dup1\n      dup4\n      gt\n      tag_221\n      jumpi\n      dup3\n      swap1\n      sub\n      0x1f\n      and\n      dup3\n      add\n      swap2\n    tag_219:\n      pop\n      pop\n      pop\n      0x04\n      dup5\n      add\n      sload\n      0x05\n      dup6\n      add\n      sload\n      0x07\n      dup7\n      add\n      sload\n      0x40\n      dup1\n      mload\n      0x60\n      dup2\n      add\n      dup3\n      mstore\n      0x08\n      dup10\n      add\n      dup1\n      sload\n      0xff\n      dup1\n      dup3\n      and\n      iszero\n      iszero\n      dup5\n      mstore\n      0x0100\n      dup3\n      div\n      dup2\n      and\n      iszero\n      iszero\n      0x20\n      dup6\n      add\n      mstore\n      swap10\n      swap11\n      swap7\n      swap10\n      swap6\n      swap9\n      pop\n      swap4\n      swap7\n      pop\n      swap1\n      swap4\n      swap1\n      swap3\n      swap2\n      dup5\n      add\n      swap2\n      0x010000\n      swap1\n      div\n      and\n      0x03\n      dup2\n      gt\n      iszero\n      tag_223\n      jumpi\n      tag_223\n      tag_83\n      jump\t// in\n    tag_223:\n      0x03\n      dup2\n      gt\n      iszero\n      tag_225\n      jumpi\n      tag_225\n      tag_83\n      jump\t// in\n    tag_225:\n      swap1\n      mstore\n      pop\n      swap1\n      pop\n      dup9\n      jump\t// out\n        /* \"Polls.sol\":3695:4351  function getPollSummaries() public view returns (PollSummary[] memory) {... */\n    tag_41:\n        /* \"Polls.sol\":3811:3821  msg.sender */\n      caller\n        /* \"Polls.sol\":3777:3798  uint256[] storage ids */\n      0x00\n        /* \"Polls.sol\":3801:3822  UserPolls[msg.sender] */\n      swap1\n      dup2\n      mstore\n        /* \"Polls.sol\":3801:3810  UserPolls */\n      0x01\n        /* \"Polls.sol\":3801:3822  UserPolls[msg.sender] */\n      0x20\n      mstore\n      0x40\n      dup2\n      keccak256\n        /* \"Polls.sol\":3849:3859  ids.length */\n      dup1\n      sload\n        /* \"Polls.sol\":3744:3764  PollSummary[] memory */\n      0x60\n      swap3\n        /* \"Polls.sol\":3849:3859  ids.length */\n      dup2\n        /* \"Polls.sol\":3905:3929  new PollSummary[](count) */\n      0xffffffffffffffff\n      dup2\n      gt\n      iszero\n      tag_228\n      jumpi\n      tag_228\n      tag_229\n      jump\t// in\n    tag_228:\n      mload(0x40)\n      swap1\n      dup1\n      dup3\n      mstore\n      dup1\n      0x20\n      mul\n      0x20\n      add\n      dup3\n      add\n      0x40\n      mstore\n      dup1\n      iszero\n      tag_230\n      jumpi\n      dup2\n      0x20\n      add\n    tag_231:\n      tag_232\n      tag_233\n      jump\t// in\n    tag_232:\n      dup2\n      mstore\n      0x20\n      add\n      swap1\n      0x01\n      swap1\n      sub\n      swap1\n      dup2\n      tag_231\n      jumpi\n      swap1\n      pop\n    tag_230:\n      pop\n        /* \"Polls.sol\":3872:3929  PollSummary[] memory summaries = new PollSummary[](count) */\n      swap1\n      pop\n        /* \"Polls.sol\":3947:3956  uint256 i */\n      0x00\n        /* \"Polls.sol\":3942:4315  for (uint256 i = 0; i < count; i++) {... */\n    tag_234:\n        /* \"Polls.sol\":3966:3971  count */\n      dup3\n        /* \"Polls.sol\":3962:3963  i */\n      dup2\n        /* \"Polls.sol\":3962:3971  i < count */\n      lt\n        /* \"Polls.sol\":3942:4315  for (uint256 i = 0; i < count; i++) {... */\n      iszero\n      tag_235\n      jumpi\n        /* \"Polls.sol\":3993:4003  uint256 id */\n      0x00\n        /* \"Polls.sol\":4006:4009  ids */\n      dup5\n        /* \"Polls.sol\":4010:4011  i */\n      dup3\n        /* \"Polls.sol\":4006:4012  ids[i] */\n      dup2\n      sload\n      dup2\n      lt\n      tag_238\n      jumpi\n      tag_238\n      tag_70\n      jump\t// in\n    tag_238:\n      swap1\n      0x00\n      mstore\n      keccak256(0x00, 0x20)\n      add\n      sload\n        /* \"Polls.sol\":3993:4012  uint256 id = ids[i] */\n      swap1\n      pop\n        /* \"Polls.sol\":4027:4044  Poll storage poll */\n      0x00\n        /* \"Polls.sol\":4047:4052  polls */\n      dup1\n        /* \"Polls.sol\":4053:4055  id */\n      dup3\n        /* \"Polls.sol\":4047:4056  polls[id] */\n      dup2\n      sload\n      dup2\n      lt\n      tag_241\n      jumpi\n      tag_241\n      tag_70\n      jump\t// in\n    tag_241:\n      swap1\n      0x00\n      mstore\n      keccak256(0x00, 0x20)\n      swap1\n      0x09\n      mul\n      add\n        /* \"Polls.sol\":4027:4056  Poll storage poll = polls[id] */\n      swap1\n      pop\n        /* \"Polls.sol\":4088:4303  PollSummary({... */\n      mload(0x40)\n      dup1\n      0xa0\n      add\n      0x40\n      mstore\n      dup1\n        /* \"Polls.sol\":4128:4132  poll */\n      dup3\n        /* \"Polls.sol\":4128:4140  poll.creator */\n      0x00\n      add\n      0x00\n      swap1\n      sload\n      swap1\n      0x0100\n      exp\n      swap1\n      div\n      sub(shl(0xa0, 0x01), 0x01)\n      and\n      sub(shl(0xa0, 0x01), 0x01)\n        /* \"Polls.sol\":4088:4303  PollSummary({... */\n      and\n      dup2\n      mstore\n      0x20\n      add\n        /* \"Polls.sol\":4163:4165  id */\n      dup4\n        /* \"Polls.sol\":4088:4303  PollSummary({... */\n      dup2\n      mstore\n      0x20\n      add\n        /* \"Polls.sol\":4191:4195  poll */\n      dup3\n        /* \"Polls.sol\":4191:4201  poll.title */\n      0x02\n      add\n        /* \"Polls.sol\":4088:4303  PollSummary({... */\n      dup1\n      sload\n      tag_243\n      swap1\n      tag_86\n      jump\t// in\n    tag_243:\n      dup1\n      0x1f\n      add\n      0x20\n      dup1\n      swap2\n      div\n      mul\n      0x20\n      add\n      mload(0x40)\n      swap1\n      dup2\n      add\n      0x40\n      mstore\n      dup1\n      swap3\n      swap2\n      swap1\n      dup2\n      dup2\n      mstore\n      0x20\n      add\n      dup3\n      dup1\n      sload\n      tag_244\n      swap1\n      tag_86\n      jump\t// in\n    tag_244:\n      dup1\n      iszero\n      tag_245\n      jumpi\n      dup1\n      0x1f\n      lt\n      tag_246\n      jumpi\n      0x0100\n      dup1\n      dup4\n      sload\n      div\n      mul\n      dup4\n      mstore\n      swap2\n      0x20\n      add\n      swap2\n      jump(tag_245)\n    tag_246:\n      dup3\n      add\n      swap2\n      swap1\n      0x00\n      mstore\n      keccak256(0x00, 0x20)\n      swap1\n    tag_247:\n      dup2\n      sload\n      dup2\n      mstore\n      swap1\n      0x01\n      add\n      swap1\n      0x20\n      add\n      dup1\n      dup4\n      gt\n      tag_247\n      jumpi\n      dup3\n      swap1\n      sub\n      0x1f\n      and\n      dup3\n      add\n      swap2\n    tag_245:\n      pop\n      pop\n      pop\n      pop\n      pop\n      dup2\n      mstore\n      0x20\n      add\n        /* \"Polls.sol\":4231:4235  poll */\n      dup3\n        /* \"Polls.sol\":4231:4245  poll.pollVotes */\n      0x07\n      add\n      sload\n        /* \"Polls.sol\":4088:4303  PollSummary({... */\n      dup2\n      mstore\n      0x20\n      add\n        /* \"Polls.sol\":4272:4287  getStatus(poll) */\n      tag_248\n        /* \"Polls.sol\":4282:4286  poll */\n      dup4\n        /* \"Polls.sol\":4272:4287  getStatus(poll) */\n      mload(0x40)\n      dup1\n      0x0120\n      add\n      0x40\n      mstore\n      swap1\n      dup2\n      0x00\n      dup3\n      add\n      0x00\n      swap1\n      sload\n      swap1\n      0x0100\n      exp\n      swap1\n      div\n      sub(shl(0xa0, 0x01), 0x01)\n      and\n      sub(shl(0xa0, 0x01), 0x01)\n      and\n      sub(shl(0xa0, 0x01), 0x01)\n      and\n      dup2\n      mstore\n      0x20\n      add\n      0x01\n      dup3\n      add\n      sload\n      dup2\n      mstore\n      0x20\n      add\n      0x02\n      dup3\n      add\n      dup1\n      sload\n      tag_249\n      swap1\n      tag_86\n      jump\t// in\n    tag_249:\n      dup1\n      0x1f\n      add\n      0x20\n      dup1\n      swap2\n      div\n      mul\n      0x20\n      add\n      mload(0x40)\n      swap1\n      dup2\n      add\n      0x40\n      mstore\n      dup1\n      swap3\n      swap2\n      swap1\n      dup2\n      dup2\n      mstore\n      0x20\n      add\n      dup3\n      dup1\n      sload\n      tag_250\n      swap1\n      tag_86\n      jump\t// in\n    tag_250:\n      dup1\n      iszero\n      tag_251\n      jumpi\n      dup1\n      0x1f\n      lt\n      tag_252\n      jumpi\n      0x0100\n      dup1\n      dup4\n      sload\n      div\n      mul\n      dup4\n      mstore\n      swap2\n      0x20\n      add\n      swap2\n      jump(tag_251)\n    tag_252:\n      dup3\n      add\n      swap2\n      swap1\n      0x00\n      mstore\n      keccak256(0x00, 0x20)\n      swap1\n    tag_253:\n      dup2\n      sload\n      dup2\n      mstore\n      swap1\n      0x01\n      add\n      swap1\n      0x20\n      add\n      dup1\n      dup4\n      gt\n      tag_253\n      jumpi\n      dup3\n      swap1\n      sub\n      0x1f\n      and\n      dup3\n      add\n      swap2\n    tag_251:\n      pop\n      pop\n      pop\n      pop\n      pop\n      dup2\n      mstore\n      0x20\n      add\n      0x03\n      dup3\n      add\n      dup1\n      sload\n      tag_254\n      swap1\n      tag_86\n      jump\t// in\n    tag_254:\n      dup1\n      0x1f\n      add\n      0x20\n      dup1\n      swap2\n      div\n      mul\n      0x20\n      add\n      mload(0x40)\n      swap1\n      dup2\n      add\n      0x40\n      mstore\n      dup1\n      swap3\n      swap2\n      swap1\n      dup2\n      dup2\n      mstore\n      0x20\n      add\n      dup3\n      dup1\n      sload\n      tag_255\n      swap1\n      tag_86\n      jump\t// in\n    tag_255:\n      dup1\n      iszero\n      tag_256\n      jumpi\n      dup1\n      0x1f\n      lt\n      tag_257\n      jumpi\n      0x0100\n      dup1\n      dup4\n      sload\n      div\n      mul\n      dup4\n      mstore\n      swap2\n      0x20\n      add\n      swap2\n      jump(tag_256)\n    tag_257:\n      dup3\n      add\n      swap2\n      swap1\n      0x00\n      mstore\n      keccak256(0x00, 0x20)\n      swap1\n    tag_258:\n      dup2\n      sload\n      dup2\n      mstore\n      swap1\n      0x01\n      add\n      swap1\n      0x20\n      add\n      dup1\n      dup4\n      gt\n      tag_258\n      jumpi\n      dup3\n      swap1\n      sub\n      0x1f\n      and\n      dup3\n      add\n      swap2\n    tag_256:\n      pop\n      pop\n      pop\n      pop\n      pop\n      dup2\n      mstore\n      0x20\n      add\n      0x04\n      dup3\n      add\n      sload\n      dup2\n      mstore\n      0x20\n      add\n      0x05\n      dup3\n      add\n      sload\n      dup2\n      mstore\n      0x20\n      add\n      0x06\n      dup3\n      add\n      dup1\n      sload\n      dup1\n      0x20\n      mul\n      0x20\n      add\n      mload(0x40)\n      swap1\n      dup2\n      add\n      0x40\n      mstore\n      dup1\n      swap3\n      swap2\n      swap1\n      dup2\n      dup2\n      mstore\n      0x20\n      add\n      0x00\n      swap1\n    tag_259:\n      dup3\n      dup3\n      lt\n      iszero\n      tag_97\n      jumpi\n      dup4\n      dup3\n      swap1\n      0x00\n      mstore\n      keccak256(0x00, 0x20)\n      add\n      dup1\n      sload\n      tag_262\n      swap1\n      tag_86\n      jump\t// in\n    tag_262:\n      dup1\n      0x1f\n      add\n      0x20\n      dup1\n      swap2\n      div\n      mul\n      0x20\n      add\n      mload(0x40)\n      swap1\n      dup2\n      add\n      0x40\n      mstore\n      dup1\n      swap3\n      swap2\n      swap1\n      dup2\n      dup2\n      mstore\n      0x20\n      add\n      dup3\n      dup1\n      sload\n      tag_263\n      swap1\n      tag_86\n      jump\t// in\n    tag_263:\n      dup1\n      iszero\n      tag_264\n      jumpi\n      dup1\n      0x1f\n      lt\n      tag_265\n      jumpi\n      0x0100\n      dup1\n      dup4\n      sload\n      div\n      mul\n      dup4\n      mstore\n      swap2\n      0x20\n      add\n      swap2\n      jump(tag_264)\n    tag_265:\n      dup3\n      add\n      swap2\n      swap1\n      0x00\n      mstore\n      keccak256(0x00, 0x20)\n      swap1\n    tag_266:\n      dup2\n      sload\n      dup2\n      mstore\n      swap1\n      0x01\n      add\n      swap1\n      0x20\n      add\n      dup1\n      dup4\n      gt\n      tag_266\n      jumpi\n      dup3\n      swap1\n      sub\n      0x1f\n      and\n      dup3\n      add\n      swap2\n    tag_264:\n      pop\n      pop\n      pop\n      pop\n      pop\n      dup2\n      mstore\n      0x20\n      add\n      swap1\n      0x01\n      add\n      swap1\n      jump(tag_259)\n    tag_248:\n        /* \"Polls.sol\":4088:4303  PollSummary({... */\n      0x03\n      dup2\n      gt\n      iszero\n      tag_272\n      jumpi\n      tag_272\n      tag_83\n      jump\t// in\n    tag_272:\n      dup2\n      mstore\n      pop\n        /* \"Polls.sol\":4073:4082  summaries */\n      dup5\n        /* \"Polls.sol\":4083:4084  i */\n      dup5\n        /* \"Polls.sol\":4073:4085  summaries[i] */\n      dup2\n      mload\n      dup2\n      lt\n      tag_274\n      jumpi\n      tag_274\n      tag_70\n      jump\t// in\n    tag_274:\n      0x20\n      swap1\n      dup2\n      mul\n      swap2\n      swap1\n      swap2\n      add\n      add\n        /* \"Polls.sol\":4073:4303  summaries[i] = PollSummary({... */\n      mstore\n      pop\n      pop\n        /* \"Polls.sol\":3973:3976  i++ */\n      0x01\n      add\n        /* \"Polls.sol\":3942:4315  for (uint256 i = 0; i < count; i++) {... */\n      jump(tag_234)\n    tag_235:\n      pop\n        /* \"Polls.sol\":4334:4343  summaries */\n      swap4\n        /* \"Polls.sol\":3695:4351  function getPollSummaries() public view returns (PollSummary[] memory) {... */\n      swap3\n      pop\n      pop\n      pop\n      jump\t// out\n        /* \"Polls.sol\":7569:7786  function validateTitle(string calldata _title) internal pure {... */\n    tag_48:\n        /* \"Polls.sol\":7664:7670  _title */\n      dup1\n        /* \"Polls.sol\":7702:7703  3 */\n      0x03\n        /* \"Polls.sol\":7693:7703  length < 3 */\n      dup2\n      lt\n        /* \"Polls.sol\":7689:7727  if (length < 3) revert TitleTooShort() */\n      iszero\n      tag_276\n      jumpi\n        /* \"Polls.sol\":7712:7727  TitleTooShort() */\n      mload(0x40)\n      shl(0xe0, 0x24ace355)\n      dup2\n      mstore\n      0x04\n      add\n      mload(0x40)\n      dup1\n      swap2\n      sub\n      swap1\n      revert\n        /* \"Polls.sol\":7689:7727  if (length < 3) revert TitleTooShort() */\n    tag_276:\n        /* \"Polls.sol\":7751:7754  100 */\n      0x64\n        /* \"Polls.sol\":7742:7748  length */\n      dup2\n        /* \"Polls.sol\":7742:7754  length > 100 */\n      gt\n        /* \"Polls.sol\":7738:7778  if (length > 100) revert TitleTooLarge() */\n      iszero\n      tag_277\n      jumpi\n        /* \"Polls.sol\":7763:7778  TitleTooLarge() */\n      mload(0x40)\n      shl(0xe2, 0x2b5df40f)\n      dup2\n      mstore\n      0x04\n      add\n      mload(0x40)\n      dup1\n      swap2\n      sub\n      swap1\n      revert\n        /* \"Polls.sol\":7738:7778  if (length > 100) revert TitleTooLarge() */\n    tag_277:\n        /* \"Polls.sol\":7630:7786  {... */\n      pop\n        /* \"Polls.sol\":7569:7786  function validateTitle(string calldata _title) internal pure {... */\n      pop\n      pop\n      jump\t// out\n        /* \"Polls.sol\":7794:8036  function validateDesc(string calldata _desc) internal pure {... */\n    tag_50:\n        /* \"Polls.sol\":7887:7892  _desc */\n      dup1\n        /* \"Polls.sol\":7915:7925  length > 0 */\n      dup1\n      iszero\n      dup1\n      iszero\n      swap1\n        /* \"Polls.sol\":7915:7940  length > 0 && length < 10 */\n      tag_279\n      jumpi\n      pop\n        /* \"Polls.sol\":7938:7940  10 */\n      0x0a\n        /* \"Polls.sol\":7929:7935  length */\n      dup2\n        /* \"Polls.sol\":7929:7940  length < 10 */\n      lt\n        /* \"Polls.sol\":7915:7940  length > 0 && length < 10 */\n    tag_279:\n        /* \"Polls.sol\":7911:7970  if (length > 0 && length < 10) revert DescriptionTooShort() */\n      iszero\n      tag_280\n      jumpi\n        /* \"Polls.sol\":7949:7970  DescriptionTooShort() */\n      mload(0x40)\n      shl(0xe2, 0x1b0bf735)\n      dup2\n      mstore\n      0x04\n      add\n      mload(0x40)\n      dup1\n      swap2\n      sub\n      swap1\n      revert\n        /* \"Polls.sol\":7911:7970  if (length > 0 && length < 10) revert DescriptionTooShort() */\n    tag_280:\n        /* \"Polls.sol\":7994:7998  1000 */\n      0x03e8\n        /* \"Polls.sol\":7985:7991  length */\n      dup2\n        /* \"Polls.sol\":7985:7998  length > 1000 */\n      gt\n        /* \"Polls.sol\":7981:8028  if (length > 1000) revert DescriptionTooLarge() */\n      iszero\n      tag_277\n      jumpi\n        /* \"Polls.sol\":8007:8028  DescriptionTooLarge() */\n      mload(0x40)\n      shl(0xe0, 0x1b0fce83)\n      dup2\n      mstore\n      0x04\n      add\n      mload(0x40)\n      dup1\n      swap2\n      sub\n      swap1\n      revert\n        /* \"Polls.sol\":8044:8269  function validateTimes(uint256 _startsAt, uint256 _endsAt) internal view {... */\n    tag_52:\n        /* \"Polls.sol\":8144:8159  block.timestamp */\n      timestamp\n        /* \"Polls.sol\":8132:8141  _startsAt */\n      dup3\n        /* \"Polls.sol\":8132:8159  _startsAt < block.timestamp */\n      lt\n        /* \"Polls.sol\":8128:8194  if (_startsAt < block.timestamp) revert PollMustStartInTheFuture() */\n      iszero\n      tag_283\n      jumpi\n        /* \"Polls.sol\":8168:8194  PollMustStartInTheFuture() */\n      mload(0x40)\n      shl(0xe0, 0x3eb2d8c5)\n      dup2\n      mstore\n      0x04\n      add\n      mload(0x40)\n      dup1\n      swap2\n      sub\n      swap1\n      revert\n        /* \"Polls.sol\":8128:8194  if (_startsAt < block.timestamp) revert PollMustStartInTheFuture() */\n    tag_283:\n        /* \"Polls.sol\":8220:8229  _startsAt */\n      dup2\n        /* \"Polls.sol\":8209:8216  _endsAt */\n      dup2\n        /* \"Polls.sol\":8209:8229  _endsAt <= _startsAt */\n      gt\n        /* \"Polls.sol\":8205:8261  if (_endsAt <= _startsAt) revert PollMustEndAfterStart() */\n      tag_284\n      jumpi\n        /* \"Polls.sol\":8238:8261  PollMustEndAfterStart() */\n      mload(0x40)\n      shl(0xe1, 0x71f32861)\n      dup2\n      mstore\n      0x04\n      add\n      mload(0x40)\n      dup1\n      swap2\n      sub\n      swap1\n      revert\n        /* \"Polls.sol\":8205:8261  if (_endsAt <= _startsAt) revert PollMustEndAfterStart() */\n    tag_284:\n        /* \"Polls.sol\":8044:8269  function validateTimes(uint256 _startsAt, uint256 _endsAt) internal view {... */\n      pop\n      pop\n      jump\t// out\n        /* \"Polls.sol\":8277:8801  function validateOptions(string[] calldata _options) internal pure {... */\n    tag_54:\n        /* \"Polls.sol\":8379:8387  _options */\n      dup1\n        /* \"Polls.sol\":8425:8426  2 */\n      0x02\n        /* \"Polls.sol\":8409:8426  optionsLength < 2 */\n      dup2\n      lt\n        /* \"Polls.sol\":8405:8466  if (optionsLength < 2) revert PollMustHaveAtLeastTwoOptions() */\n      iszero\n      tag_286\n      jumpi\n        /* \"Polls.sol\":8435:8466  PollMustHaveAtLeastTwoOptions() */\n      mload(0x40)\n      shl(0xe0, 0x8ee5f57d)\n      dup2\n      mstore\n      0x04\n      add\n      mload(0x40)\n      dup1\n      swap2\n      sub\n      swap1\n      revert\n        /* \"Polls.sol\":8405:8466  if (optionsLength < 2) revert PollMustHaveAtLeastTwoOptions() */\n    tag_286:\n        /* \"Polls.sol\":8497:8499  10 */\n      0x0a\n        /* \"Polls.sol\":8481:8494  optionsLength */\n      dup2\n        /* \"Polls.sol\":8481:8499  optionsLength > 10 */\n      gt\n        /* \"Polls.sol\":8477:8538  if (optionsLength > 10) revert PollMustHaveAtMostTenOptions() */\n      iszero\n      tag_287\n      jumpi\n        /* \"Polls.sol\":8508:8538  PollMustHaveAtMostTenOptions() */\n      mload(0x40)\n      shl(0xe1, 0x701d39f1)\n      dup2\n      mstore\n      0x04\n      add\n      mload(0x40)\n      dup1\n      swap2\n      sub\n      swap1\n      revert\n        /* \"Polls.sol\":8477:8538  if (optionsLength > 10) revert PollMustHaveAtMostTenOptions() */\n    tag_287:\n        /* \"Polls.sol\":8556:8565  uint256 i */\n      0x00\n        /* \"Polls.sol\":8551:8794  for (uint256 i = 0; i < optionsLength; ++i) {... */\n    tag_288:\n        /* \"Polls.sol\":8575:8588  optionsLength */\n      dup2\n        /* \"Polls.sol\":8571:8572  i */\n      dup2\n        /* \"Polls.sol\":8571:8588  i < optionsLength */\n      lt\n        /* \"Polls.sol\":8551:8794  for (uint256 i = 0; i < optionsLength; ++i) {... */\n      iszero\n      tag_289\n      jumpi\n        /* \"Polls.sol\":8610:8630  uint256 optionLength */\n      0x00\n        /* \"Polls.sol\":8639:8647  _options */\n      dup5\n      dup5\n        /* \"Polls.sol\":8648:8649  i */\n      dup4\n        /* \"Polls.sol\":8639:8650  _options[i] */\n      dup2\n      dup2\n      lt\n      tag_292\n      jumpi\n      tag_292\n      tag_70\n      jump\t// in\n    tag_292:\n      swap1\n      pop\n      0x20\n      mul\n      dup2\n      add\n      swap1\n      tag_293\n      swap2\n      swap1\n      tag_72\n      jump\t// in\n    tag_293:\n        /* \"Polls.sol\":8633:8658  bytes(_options[i]).length */\n      swap2\n      pop\n      pop\n        /* \"Polls.sol\":8692:8693  1 */\n      0x01\n        /* \"Polls.sol\":8677:8693  optionLength < 1 */\n      dup2\n      lt\n        /* \"Polls.sol\":8673:8719  if (optionLength < 1) revert OptionTooShort(i) */\n      iszero\n      tag_294\n      jumpi\n        /* \"Polls.sol\":8702:8719  OptionTooShort(i) */\n      mload(0x40)\n      shl(0xe1, 0x23bae5c5)\n      dup2\n      mstore\n      0x04\n      dup2\n      add\n        /* \"#utility.yul\":542:567   */\n      dup4\n      swap1\n      mstore\n        /* \"#utility.yul\":515:533   */\n      0x24\n      add\n        /* \"Polls.sol\":8702:8719  OptionTooShort(i) */\n    tag_295:\n      mload(0x40)\n      dup1\n      swap2\n      sub\n      swap1\n      revert\n        /* \"Polls.sol\":8673:8719  if (optionLength < 1) revert OptionTooShort(i) */\n    tag_294:\n        /* \"Polls.sol\":8753:8756  100 */\n      0x64\n        /* \"Polls.sol\":8738:8750  optionLength */\n      dup2\n        /* \"Polls.sol\":8738:8756  optionLength > 100 */\n      gt\n        /* \"Polls.sol\":8734:8782  if (optionLength > 100) revert OptionTooLarge(i) */\n      iszero\n      tag_296\n      jumpi\n        /* \"Polls.sol\":8765:8782  OptionTooLarge(i) */\n      mload(0x40)\n      shl(0xe2, 0x1e8a1825)\n      dup2\n      mstore\n      0x04\n      dup2\n      add\n        /* \"#utility.yul\":542:567   */\n      dup4\n      swap1\n      mstore\n        /* \"#utility.yul\":515:533   */\n      0x24\n      add\n        /* \"Polls.sol\":8765:8782  OptionTooLarge(i) */\n      tag_295\n        /* \"#utility.yul\":396:573   */\n      jump\n        /* \"Polls.sol\":8734:8782  if (optionLength > 100) revert OptionTooLarge(i) */\n    tag_296:\n      pop\n        /* \"Polls.sol\":8590:8593  ++i */\n      0x01\n      add\n        /* \"Polls.sol\":8551:8794  for (uint256 i = 0; i < optionsLength; ++i) {... */\n      jump(tag_288)\n    tag_289:\n      pop\n        /* \"Polls.sol\":8344:8801  {... */\n      pop\n        /* \"Polls.sol\":8277:8801  function validateOptions(string[] calldata _options) internal pure {... */\n      pop\n      pop\n      jump\t// out\n        /* \"Polls.sol\":8809:9096  function validateSettings(PollSettings calldata _settings) internal pure {... */\n    tag_56:\n        /* \"Polls.sol\":8911:8931  _settings.noDeadline */\n      tag_299\n      0x40\n      dup3\n      add\n      0x20\n      dup4\n      add\n      tag_62\n      jump\t// in\n    tag_299:\n        /* \"Polls.sol\":8911:9007  _settings.noDeadline &&... */\n      dup1\n      iszero\n      tag_300\n      jumpi\n      pop\n        /* \"Polls.sol\":8978:9007  PollResultVisibility.AfterEnd */\n      0x02\n        /* \"Polls.sol\":8948:8974  _settings.resultVisibility */\n      tag_303\n      0x60\n      dup4\n      add\n      0x40\n      dup5\n      add\n      tag_304\n      jump\t// in\n    tag_303:\n        /* \"Polls.sol\":8948:9007  _settings.resultVisibility == PollResultVisibility.AfterEnd */\n      0x03\n      dup2\n      gt\n      iszero\n      tag_306\n      jumpi\n      tag_306\n      tag_83\n      jump\t// in\n    tag_306:\n      eq\n        /* \"Polls.sol\":8911:9007  _settings.noDeadline &&... */\n    tag_300:\n        /* \"Polls.sol\":8893:9089  if (... */\n      iszero\n      tag_307\n      jumpi\n        /* \"Polls.sol\":9041:9077  PollResultVisibilitySettingInvalid() */\n      mload(0x40)\n      shl(0xe0, 0xdc2ca701)\n      dup2\n      mstore\n      0x04\n      add\n      mload(0x40)\n      dup1\n      swap2\n      sub\n      swap1\n      revert\n        /* \"Polls.sol\":8893:9089  if (... */\n    tag_307:\n        /* \"Polls.sol\":8809:9096  function validateSettings(PollSettings calldata _settings) internal pure {... */\n      pop\n      jump\t// out\n        /* \"Polls.sol\":6917:7131  function getPoll(uint256 _pollId) internal view returns (Poll storage) {... */\n    tag_80:\n        /* \"Polls.sol\":6974:6986  Poll storage */\n      0x00\n        /* \"Polls.sol\":7014:7026  polls.length */\n      dup1\n      sload\n        /* \"Polls.sol\":7003:7026  _pollId >= polls.length */\n      dup3\n      lt\n        /* \"Polls.sol\":6999:7056  if (_pollId >= polls.length) revert PollNotFound(_pollId) */\n      tag_309\n      jumpi\n        /* \"Polls.sol\":7035:7056  PollNotFound(_pollId) */\n      mload(0x40)\n      shl(0xe2, 0x02708a4d)\n      dup2\n      mstore\n      0x04\n      dup2\n      add\n        /* \"#utility.yul\":542:567   */\n      dup4\n      swap1\n      mstore\n        /* \"#utility.yul\":515:533   */\n      0x24\n      add\n        /* \"Polls.sol\":7035:7056  PollNotFound(_pollId) */\n      tag_295\n        /* \"#utility.yul\":396:573   */\n      jump\n        /* \"Polls.sol\":6999:7056  if (_pollId >= polls.length) revert PollNotFound(_pollId) */\n    tag_309:\n        /* \"Polls.sol\":7067:7084  Poll storage poll */\n      0x00\n        /* \"Polls.sol\":7087:7092  polls */\n      dup1\n        /* \"Polls.sol\":7093:7100  _pollId */\n      dup4\n        /* \"Polls.sol\":7087:7101  polls[_pollId] */\n      dup2\n      sload\n      dup2\n      lt\n      tag_312\n      jumpi\n      tag_312\n      tag_70\n      jump\t// in\n    tag_312:\n      0x00\n      swap2\n      dup3\n      mstore\n      0x20\n      swap1\n      swap2\n      keccak256\n      0x09\n      swap1\n      swap2\n      mul\n      add\n      swap4\n        /* \"Polls.sol\":6917:7131  function getPoll(uint256 _pollId) internal view returns (Poll storage) {... */\n      swap3\n      pop\n      pop\n      pop\n      jump\t// out\n        /* \"Polls.sol\":7139:7561  function getStatus(Poll memory _poll) internal view returns (PollStatus) {... */\n    tag_108:\n        /* \"Polls.sol\":7200:7210  PollStatus */\n      0x00\n        /* \"Polls.sol\":7244:7259  block.timestamp */\n      timestamp\n        /* \"Polls.sol\":7227:7232  _poll */\n      dup3\n        /* \"Polls.sol\":7227:7241  _poll.startsAt */\n      0x80\n      add\n      mload\n        /* \"Polls.sol\":7227:7259  _poll.startsAt > block.timestamp */\n      gt\n        /* \"Polls.sol\":7223:7314  if (_poll.startsAt > block.timestamp) {... */\n      iszero\n      tag_315\n      jumpi\n      pop\n        /* \"Polls.sol\":7283:7302  PollStatus.Upcoming */\n      0x00\n      swap2\n        /* \"Polls.sol\":7139:7561  function getStatus(Poll memory _poll) internal view returns (PollStatus) {... */\n      swap1\n      pop\n      jump\t// out\n        /* \"Polls.sol\":7223:7314  if (_poll.startsAt > block.timestamp) {... */\n    tag_315:\n        /* \"Polls.sol\":7330:7335  _poll */\n      dup2\n        /* \"Polls.sol\":7330:7342  _poll.endsAt */\n      0xa0\n      add\n      mload\n        /* \"Polls.sol\":7346:7347  1 */\n      0x01\n        /* \"Polls.sol\":7330:7347  _poll.endsAt == 1 */\n      sub\n        /* \"Polls.sol\":7326:7400  if (_poll.endsAt == 1) {... */\n      tag_316\n      jumpi\n      pop\n        /* \"Polls.sol\":7371:7388  PollStatus.Closed */\n      0x03\n      swap2\n        /* \"Polls.sol\":7139:7561  function getStatus(Poll memory _poll) internal view returns (PollStatus) {... */\n      swap1\n      pop\n      jump\t// out\n        /* \"Polls.sol\":7326:7400  if (_poll.endsAt == 1) {... */\n    tag_316:\n        /* \"Polls.sol\":7431:7432  1 */\n      0x01\n        /* \"Polls.sol\":7416:7421  _poll */\n      dup3\n        /* \"Polls.sol\":7416:7428  _poll.endsAt */\n      0xa0\n      add\n      mload\n        /* \"Polls.sol\":7416:7432  _poll.endsAt > 1 */\n      gt\n        /* \"Polls.sol\":7416:7467  _poll.endsAt > 1 && _poll.endsAt <= block.timestamp */\n      dup1\n      iszero\n      tag_317\n      jumpi\n      pop\n        /* \"Polls.sol\":7452:7467  block.timestamp */\n      timestamp\n        /* \"Polls.sol\":7436:7441  _poll */\n      dup3\n        /* \"Polls.sol\":7436:7448  _poll.endsAt */\n      0xa0\n      add\n      mload\n        /* \"Polls.sol\":7436:7467  _poll.endsAt <= block.timestamp */\n      gt\n      iszero\n        /* \"Polls.sol\":7416:7467  _poll.endsAt > 1 && _poll.endsAt <= block.timestamp */\n    tag_317:\n        /* \"Polls.sol\":7412:7519  if (_poll.endsAt > 1 && _poll.endsAt <= block.timestamp) {... */\n      iszero\n      tag_318\n      jumpi\n      pop\n        /* \"Polls.sol\":7491:7507  PollStatus.Ended */\n      0x02\n      swap2\n        /* \"Polls.sol\":7139:7561  function getStatus(Poll memory _poll) internal view returns (PollStatus) {... */\n      swap1\n      pop\n      jump\t// out\n        /* \"Polls.sol\":7412:7519  if (_poll.endsAt > 1 && _poll.endsAt <= block.timestamp) {... */\n    tag_318:\n      pop\n        /* \"Polls.sol\":7538:7553  PollStatus.Open */\n      0x01\n      swap2\n        /* \"Polls.sol\":7139:7561  function getStatus(Poll memory _poll) internal view returns (PollStatus) {... */\n      swap1\n      pop\n      jump\t// out\n        /* \"Polls.sol\":6452:6909  function getOptionsResult(... */\n    tag_203:\n        /* \"Polls.sol\":6584:6597  _poll.options */\n      0xc0\n      dup2\n      add\n      mload\n        /* \"Polls.sol\":6584:6604  _poll.options.length */\n      mload\n        /* \"Polls.sol\":6536:6557  OptionResult[] memory */\n      0x60\n      swap1\n        /* \"Polls.sol\":6570:6581  uint256 len */\n      0x00\n        /* \"Polls.sol\":6584:6604  _poll.options.length */\n      dup2\n        /* \"Polls.sol\":6647:6670  new OptionResult[](len) */\n      0xffffffffffffffff\n      dup2\n      gt\n      iszero\n      tag_321\n      jumpi\n      tag_321\n      tag_229\n      jump\t// in\n    tag_321:\n      mload(0x40)\n      swap1\n      dup1\n      dup3\n      mstore\n      dup1\n      0x20\n      mul\n      0x20\n      add\n      dup3\n      add\n      0x40\n      mstore\n      dup1\n      iszero\n      tag_322\n      jumpi\n      dup2\n      0x20\n      add\n    tag_323:\n      0x40\n      dup1\n      mload\n      dup1\n      dup3\n      add\n      swap1\n      swap2\n      mstore\n      0x60\n      dup2\n      mstore\n      0x00\n      0x20\n      dup3\n      add\n      mstore\n      dup2\n      mstore\n      0x20\n      add\n      swap1\n      0x01\n      swap1\n      sub\n      swap1\n      dup2\n      tag_323\n      jumpi\n      swap1\n      pop\n    tag_322:\n      pop\n        /* \"Polls.sol\":6615:6670  OptionResult[] memory results = new OptionResult[](len) */\n      swap1\n      pop\n        /* \"Polls.sol\":6688:6697  uint256 i */\n      0x00\n        /* \"Polls.sol\":6683:6877  for (uint256 i = 0; i < len; i++) {... */\n    tag_326:\n        /* \"Polls.sol\":6707:6710  len */\n      dup3\n        /* \"Polls.sol\":6703:6704  i */\n      dup2\n        /* \"Polls.sol\":6703:6710  i < len */\n      lt\n        /* \"Polls.sol\":6683:6877  for (uint256 i = 0; i < len; i++) {... */\n      iszero\n      tag_235\n      jumpi\n        /* \"Polls.sol\":6745:6865  OptionResult({... */\n      mload(0x40)\n      dup1\n      0x40\n      add\n      0x40\n      mstore\n      dup1\n        /* \"Polls.sol\":6783:6788  _poll */\n      dup7\n        /* \"Polls.sol\":6783:6796  _poll.options */\n      0xc0\n      add\n      mload\n        /* \"Polls.sol\":6797:6798  i */\n      dup4\n        /* \"Polls.sol\":6783:6799  _poll.options[i] */\n      dup2\n      mload\n      dup2\n      lt\n      tag_330\n      jumpi\n      tag_330\n      tag_70\n      jump\t// in\n    tag_330:\n      0x20\n      swap1\n      dup2\n      mul\n      swap2\n      swap1\n      swap2\n      add\n      dup2\n      add\n      mload\n        /* \"Polls.sol\":6745:6865  OptionResult({... */\n      dup3\n      mstore\n        /* \"Polls.sol\":6837:6845  _poll.id */\n      dup8\n      dup2\n      add\n      mload\n        /* \"Polls.sol\":6825:6846  optionVotes[_poll.id] */\n      0x00\n      swap1\n      dup2\n      mstore\n        /* \"Polls.sol\":6825:6836  optionVotes */\n      0x04\n        /* \"Polls.sol\":6825:6846  optionVotes[_poll.id] */\n      dup3\n      mstore\n      0x40\n      dup1\n      dup3\n      keccak256\n        /* \"Polls.sol\":6825:6849  optionVotes[_poll.id][i] */\n      dup7\n      dup4\n      mstore\n      dup4\n      mstore\n      swap1\n      keccak256\n      sload\n        /* \"Polls.sol\":6745:6865  OptionResult({... */\n      swap2\n      add\n      mstore\n        /* \"Polls.sol\":6732:6742  results[i] */\n      dup3\n      mload\n        /* \"Polls.sol\":6732:6739  results */\n      dup4\n      swap1\n        /* \"Polls.sol\":6847:6848  i */\n      dup4\n      swap1\n        /* \"Polls.sol\":6732:6742  results[i] */\n      dup2\n      lt\n      tag_332\n      jumpi\n      tag_332\n      tag_70\n      jump\t// in\n    tag_332:\n      0x20\n      swap1\n      dup2\n      mul\n      swap2\n      swap1\n      swap2\n      add\n      add\n        /* \"Polls.sol\":6732:6865  results[i] = OptionResult({... */\n      mstore\n        /* \"Polls.sol\":6712:6715  i++ */\n      0x01\n      add\n        /* \"Polls.sol\":6683:6877  for (uint256 i = 0; i < len; i++) {... */\n      jump(tag_326)\n    tag_167:\n      mload(0x40)\n      dup1\n      0x0140\n      add\n      0x40\n      mstore\n      dup1\n      and(sub(shl(0xa0, 0x01), 0x01), 0x00)\n      dup2\n      mstore\n      0x20\n      add\n      0x60\n      dup2\n      mstore\n      0x20\n      add\n      0x60\n      dup2\n      mstore\n      0x20\n      add\n      0x00\n      dup2\n      mstore\n      0x20\n      add\n      0x00\n      dup2\n      mstore\n      0x20\n      add\n      0x60\n      dup2\n      mstore\n      0x20\n      add\n      0x00\n      dup2\n      mstore\n      0x20\n      add\n      tag_333\n      0x40\n      dup1\n      mload\n      0x60\n      dup2\n      add\n      dup3\n      mstore\n      0x00\n      dup1\n      dup3\n      mstore\n      0x20\n      dup3\n      add\n      dup2\n      swap1\n      mstore\n      swap1\n      swap2\n      dup3\n      add\n      mstore\n      swap1\n      jump\n    tag_333:\n      dup2\n      mstore\n      0x00\n      0x20\n      dup3\n      add\n      mstore\n      0x60\n      0x40\n      swap1\n      swap2\n      add\n      mstore\n      swap1\n      jump\t// out\n    tag_233:\n      mload(0x40)\n      dup1\n      0xa0\n      add\n      0x40\n      mstore\n      dup1\n      and(sub(shl(0xa0, 0x01), 0x01), 0x00)\n      dup2\n      mstore\n      0x20\n      add\n      0x00\n      dup2\n      mstore\n      0x20\n      add\n      0x60\n      dup2\n      mstore\n      0x20\n      add\n      0x00\n      dup2\n      mstore\n      0x20\n      add\n      0x00\n      0x03\n      dup2\n      gt\n      iszero\n      tag_336\n      jumpi\n      tag_336\n      tag_83\n      jump\t// in\n    tag_336:\n      swap1\n      mstore\n      swap1\n      jump\t// out\n        /* \"#utility.yul\":14:391   */\n    tag_13:\n        /* \"#utility.yul\":82:88   */\n      0x00\n        /* \"#utility.yul\":90:96   */\n      dup1\n        /* \"#utility.yul\":143:145   */\n      0x40\n        /* \"#utility.yul\":131:140   */\n      dup4\n        /* \"#utility.yul\":122:129   */\n      dup6\n        /* \"#utility.yul\":118:141   */\n      sub\n        /* \"#utility.yul\":114:146   */\n      slt\n        /* \"#utility.yul\":111:163   */\n      iszero\n      tag_355\n      jumpi\n        /* \"#utility.yul\":159:160   */\n      0x00\n        /* \"#utility.yul\":156:157   */\n      dup1\n        /* \"#utility.yul\":149:161   */\n      revert\n        /* \"#utility.yul\":111:163   */\n    tag_355:\n        /* \"#utility.yul\":198:207   */\n      dup3\n        /* \"#utility.yul\":185:208   */\n      calldataload\n      sub(shl(0xa0, 0x01), 0x01)\n        /* \"#utility.yul\":241:246   */\n      dup2\n        /* \"#utility.yul\":237:291   */\n      and\n        /* \"#utility.yul\":230:235   */\n      dup2\n        /* \"#utility.yul\":227:292   */\n      eq\n        /* \"#utility.yul\":217:310   */\n      tag_356\n      jumpi\n        /* \"#utility.yul\":306:307   */\n      0x00\n        /* \"#utility.yul\":303:304   */\n      dup1\n        /* \"#utility.yul\":296:308   */\n      revert\n        /* \"#utility.yul\":217:310   */\n    tag_356:\n        /* \"#utility.yul\":329:334   */\n      swap5\n        /* \"#utility.yul\":381:383   */\n      0x20\n        /* \"#utility.yul\":366:384   */\n      swap4\n      swap1\n      swap4\n      add\n        /* \"#utility.yul\":353:385   */\n      calldataload\n      swap4\n      pop\n      pop\n      pop\n        /* \"#utility.yul\":14:391   */\n      jump\t// out\n        /* \"#utility.yul\":578:926   */\n    tag_339:\n        /* \"#utility.yul\":630:638   */\n      0x00\n        /* \"#utility.yul\":640:646   */\n      dup1\n        /* \"#utility.yul\":694:697   */\n      dup4\n        /* \"#utility.yul\":687:691   */\n      0x1f\n        /* \"#utility.yul\":679:685   */\n      dup5\n        /* \"#utility.yul\":675:692   */\n      add\n        /* \"#utility.yul\":671:698   */\n      slt\n        /* \"#utility.yul\":661:716   */\n      tag_359\n      jumpi\n        /* \"#utility.yul\":712:713   */\n      0x00\n        /* \"#utility.yul\":709:710   */\n      dup1\n        /* \"#utility.yul\":702:714   */\n      revert\n        /* \"#utility.yul\":661:716   */\n    tag_359:\n      pop\n        /* \"#utility.yul\":735:755   */\n      dup2\n      calldataload\n        /* \"#utility.yul\":778:796   */\n      0xffffffffffffffff\n        /* \"#utility.yul\":767:797   */\n      dup2\n      gt\n        /* \"#utility.yul\":764:814   */\n      iszero\n      tag_360\n      jumpi\n        /* \"#utility.yul\":810:811   */\n      0x00\n        /* \"#utility.yul\":807:808   */\n      dup1\n        /* \"#utility.yul\":800:812   */\n      revert\n        /* \"#utility.yul\":764:814   */\n    tag_360:\n        /* \"#utility.yul\":847:851   */\n      0x20\n        /* \"#utility.yul\":839:845   */\n      dup4\n        /* \"#utility.yul\":835:852   */\n      add\n        /* \"#utility.yul\":823:852   */\n      swap2\n      pop\n        /* \"#utility.yul\":899:902   */\n      dup4\n        /* \"#utility.yul\":892:896   */\n      0x20\n        /* \"#utility.yul\":883:889   */\n      dup3\n        /* \"#utility.yul\":875:881   */\n      dup6\n        /* \"#utility.yul\":871:890   */\n      add\n        /* \"#utility.yul\":867:897   */\n      add\n        /* \"#utility.yul\":864:903   */\n      gt\n        /* \"#utility.yul\":861:920   */\n      iszero\n      tag_361\n      jumpi\n        /* \"#utility.yul\":916:917   */\n      0x00\n        /* \"#utility.yul\":913:914   */\n      dup1\n        /* \"#utility.yul\":906:918   */\n      revert\n        /* \"#utility.yul\":861:920   */\n    tag_361:\n        /* \"#utility.yul\":578:926   */\n      swap3\n      pop\n      swap3\n      swap1\n      pop\n      jump\t// out\n        /* \"#utility.yul\":931:1306   */\n    tag_340:\n        /* \"#utility.yul\":1002:1010   */\n      0x00\n        /* \"#utility.yul\":1012:1018   */\n      dup1\n        /* \"#utility.yul\":1066:1069   */\n      dup4\n        /* \"#utility.yul\":1059:1063   */\n      0x1f\n        /* \"#utility.yul\":1051:1057   */\n      dup5\n        /* \"#utility.yul\":1047:1064   */\n      add\n        /* \"#utility.yul\":1043:1070   */\n      slt\n        /* \"#utility.yul\":1033:1088   */\n      tag_363\n      jumpi\n        /* \"#utility.yul\":1084:1085   */\n      0x00\n        /* \"#utility.yul\":1081:1082   */\n      dup1\n        /* \"#utility.yul\":1074:1086   */\n      revert\n        /* \"#utility.yul\":1033:1088   */\n    tag_363:\n      pop\n        /* \"#utility.yul\":1107:1127   */\n      dup2\n      calldataload\n        /* \"#utility.yul\":1150:1168   */\n      0xffffffffffffffff\n        /* \"#utility.yul\":1139:1169   */\n      dup2\n      gt\n        /* \"#utility.yul\":1136:1186   */\n      iszero\n      tag_364\n      jumpi\n        /* \"#utility.yul\":1182:1183   */\n      0x00\n        /* \"#utility.yul\":1179:1180   */\n      dup1\n        /* \"#utility.yul\":1172:1184   */\n      revert\n        /* \"#utility.yul\":1136:1186   */\n    tag_364:\n        /* \"#utility.yul\":1219:1223   */\n      0x20\n        /* \"#utility.yul\":1211:1217   */\n      dup4\n        /* \"#utility.yul\":1207:1224   */\n      add\n        /* \"#utility.yul\":1195:1224   */\n      swap2\n      pop\n        /* \"#utility.yul\":1279:1282   */\n      dup4\n        /* \"#utility.yul\":1272:1276   */\n      0x20\n        /* \"#utility.yul\":1262:1268   */\n      dup3\n        /* \"#utility.yul\":1259:1260   */\n      0x05\n        /* \"#utility.yul\":1255:1269   */\n      shl\n        /* \"#utility.yul\":1247:1253   */\n      dup6\n        /* \"#utility.yul\":1243:1270   */\n      add\n        /* \"#utility.yul\":1239:1277   */\n      add\n        /* \"#utility.yul\":1236:1283   */\n      gt\n        /* \"#utility.yul\":1233:1300   */\n      iszero\n      tag_361\n      jumpi\n        /* \"#utility.yul\":1296:1297   */\n      0x00\n        /* \"#utility.yul\":1293:1294   */\n      dup1\n        /* \"#utility.yul\":1286:1298   */\n      revert\n        /* \"#utility.yul\":1311:2666   */\n    tag_19:\n        /* \"#utility.yul\":1508:1514   */\n      0x00\n        /* \"#utility.yul\":1516:1522   */\n      dup1\n        /* \"#utility.yul\":1524:1530   */\n      0x00\n        /* \"#utility.yul\":1532:1538   */\n      dup1\n        /* \"#utility.yul\":1540:1546   */\n      0x00\n        /* \"#utility.yul\":1548:1554   */\n      dup1\n        /* \"#utility.yul\":1556:1562   */\n      0x00\n        /* \"#utility.yul\":1564:1570   */\n      dup1\n        /* \"#utility.yul\":1572:1578   */\n      0x00\n        /* \"#utility.yul\":1616:1625   */\n      dup10\n        /* \"#utility.yul\":1607:1614   */\n      dup12\n        /* \"#utility.yul\":1603:1626   */\n      sub\n        /* \"#utility.yul\":1646:1649   */\n      0x0100\n        /* \"#utility.yul\":1642:1644   */\n      dup2\n        /* \"#utility.yul\":1638:1650   */\n      slt\n        /* \"#utility.yul\":1635:1667   */\n      iszero\n      tag_367\n      jumpi\n        /* \"#utility.yul\":1663:1664   */\n      0x00\n        /* \"#utility.yul\":1660:1661   */\n      dup1\n        /* \"#utility.yul\":1653:1665   */\n      revert\n        /* \"#utility.yul\":1635:1667   */\n    tag_367:\n        /* \"#utility.yul\":1703:1712   */\n      dup11\n        /* \"#utility.yul\":1690:1713   */\n      calldataload\n        /* \"#utility.yul\":1732:1750   */\n      0xffffffffffffffff\n        /* \"#utility.yul\":1773:1775   */\n      dup1\n        /* \"#utility.yul\":1765:1771   */\n      dup3\n        /* \"#utility.yul\":1762:1776   */\n      gt\n        /* \"#utility.yul\":1759:1793   */\n      iszero\n      tag_368\n      jumpi\n        /* \"#utility.yul\":1789:1790   */\n      0x00\n        /* \"#utility.yul\":1786:1787   */\n      dup1\n        /* \"#utility.yul\":1779:1791   */\n      revert\n        /* \"#utility.yul\":1759:1793   */\n    tag_368:\n        /* \"#utility.yul\":1828:1887   */\n      tag_369\n        /* \"#utility.yul\":1879:1886   */\n      dup15\n        /* \"#utility.yul\":1870:1876   */\n      dup4\n        /* \"#utility.yul\":1859:1868   */\n      dup16\n        /* \"#utility.yul\":1855:1877   */\n      add\n        /* \"#utility.yul\":1828:1887   */\n      tag_339\n      jump\t// in\n    tag_369:\n        /* \"#utility.yul\":1906:1914   */\n      swap1\n      swap13\n      pop\n        /* \"#utility.yul\":1802:1887   */\n      swap11\n      pop\n        /* \"#utility.yul\":1994:1996   */\n      0x20\n        /* \"#utility.yul\":1979:1997   */\n      dup14\n      add\n        /* \"#utility.yul\":1966:1998   */\n      calldataload\n      swap2\n      pop\n        /* \"#utility.yul\":2010:2026   */\n      dup1\n      dup3\n      gt\n        /* \"#utility.yul\":2007:2043   */\n      iszero\n      tag_370\n      jumpi\n        /* \"#utility.yul\":2039:2040   */\n      0x00\n        /* \"#utility.yul\":2036:2037   */\n      dup1\n        /* \"#utility.yul\":2029:2041   */\n      revert\n        /* \"#utility.yul\":2007:2043   */\n    tag_370:\n        /* \"#utility.yul\":2078:2139   */\n      tag_371\n        /* \"#utility.yul\":2131:2138   */\n      dup15\n        /* \"#utility.yul\":2120:2128   */\n      dup4\n        /* \"#utility.yul\":2109:2118   */\n      dup16\n        /* \"#utility.yul\":2105:2129   */\n      add\n        /* \"#utility.yul\":2078:2139   */\n      tag_339\n      jump\t// in\n    tag_371:\n        /* \"#utility.yul\":2158:2166   */\n      swap1\n      swap11\n      pop\n        /* \"#utility.yul\":2052:2139   */\n      swap9\n      pop\n        /* \"#utility.yul\":2240:2242   */\n      0x40\n        /* \"#utility.yul\":2225:2243   */\n      dup14\n      add\n        /* \"#utility.yul\":2212:2244   */\n      calldataload\n      swap8\n      pop\n        /* \"#utility.yul\":2291:2293   */\n      0x60\n        /* \"#utility.yul\":2276:2294   */\n      dup14\n      add\n        /* \"#utility.yul\":2263:2295   */\n      calldataload\n      swap7\n      pop\n        /* \"#utility.yul\":2348:2351   */\n      0x80\n        /* \"#utility.yul\":2333:2352   */\n      dup14\n      add\n        /* \"#utility.yul\":2320:2353   */\n      calldataload\n      swap2\n      pop\n        /* \"#utility.yul\":2365:2381   */\n      dup1\n      dup3\n      gt\n        /* \"#utility.yul\":2362:2398   */\n      iszero\n      tag_372\n      jumpi\n        /* \"#utility.yul\":2394:2395   */\n      0x00\n        /* \"#utility.yul\":2391:2392   */\n      dup1\n        /* \"#utility.yul\":2384:2396   */\n      revert\n        /* \"#utility.yul\":2362:2398   */\n    tag_372:\n      pop\n        /* \"#utility.yul\":2433:2513   */\n      tag_373\n        /* \"#utility.yul\":2505:2512   */\n      dup14\n        /* \"#utility.yul\":2494:2502   */\n      dup3\n        /* \"#utility.yul\":2483:2492   */\n      dup15\n        /* \"#utility.yul\":2479:2503   */\n      add\n        /* \"#utility.yul\":2433:2513   */\n      tag_340\n      jump\t// in\n    tag_373:\n        /* \"#utility.yul\":2532:2540   */\n      swap1\n      swap6\n      pop\n        /* \"#utility.yul\":2407:2513   */\n      swap4\n      pop\n      pop\n        /* \"#utility.yul\":2602:2604   */\n      0x60\n      not(0x9f)\n        /* \"#utility.yul\":2583:2600   */\n      dup3\n      add\n        /* \"#utility.yul\":2579:2605   */\n      slt\n        /* \"#utility.yul\":2576:2622   */\n      iszero\n      tag_374\n      jumpi\n        /* \"#utility.yul\":2618:2619   */\n      0x00\n        /* \"#utility.yul\":2615:2616   */\n      dup1\n        /* \"#utility.yul\":2608:2620   */\n      revert\n        /* \"#utility.yul\":2576:2622   */\n    tag_374:\n      pop\n        /* \"#utility.yul\":2656:2659   */\n      0xa0\n        /* \"#utility.yul\":2645:2654   */\n      dup11\n        /* \"#utility.yul\":2641:2660   */\n      add\n        /* \"#utility.yul\":2631:2660   */\n      swap1\n      pop\n        /* \"#utility.yul\":1311:2666   */\n      swap3\n      swap6\n      swap9\n      pop\n      swap3\n      swap6\n      swap9\n      pop\n      swap3\n      swap6\n      swap9\n      jump\t// out\n        /* \"#utility.yul\":2671:3184   */\n    tag_24:\n        /* \"#utility.yul\":2766:2772   */\n      0x00\n        /* \"#utility.yul\":2774:2780   */\n      dup1\n        /* \"#utility.yul\":2782:2788   */\n      0x00\n        /* \"#utility.yul\":2835:2837   */\n      0x40\n        /* \"#utility.yul\":2823:2832   */\n      dup5\n        /* \"#utility.yul\":2814:2821   */\n      dup7\n        /* \"#utility.yul\":2810:2833   */\n      sub\n        /* \"#utility.yul\":2806:2838   */\n      slt\n        /* \"#utility.yul\":2803:2855   */\n      iszero\n      tag_376\n      jumpi\n        /* \"#utility.yul\":2851:2852   */\n      0x00\n        /* \"#utility.yul\":2848:2849   */\n      dup1\n        /* \"#utility.yul\":2841:2853   */\n      revert\n        /* \"#utility.yul\":2803:2855   */\n    tag_376:\n        /* \"#utility.yul\":2887:2896   */\n      dup4\n        /* \"#utility.yul\":2874:2897   */\n      calldataload\n        /* \"#utility.yul\":2864:2897   */\n      swap3\n      pop\n        /* \"#utility.yul\":2948:2950   */\n      0x20\n        /* \"#utility.yul\":2937:2946   */\n      dup5\n        /* \"#utility.yul\":2933:2951   */\n      add\n        /* \"#utility.yul\":2920:2952   */\n      calldataload\n        /* \"#utility.yul\":2975:2993   */\n      0xffffffffffffffff\n        /* \"#utility.yul\":2967:2973   */\n      dup2\n        /* \"#utility.yul\":2964:2994   */\n      gt\n        /* \"#utility.yul\":2961:3011   */\n      iszero\n      tag_377\n      jumpi\n        /* \"#utility.yul\":3007:3008   */\n      0x00\n        /* \"#utility.yul\":3004:3005   */\n      dup1\n        /* \"#utility.yul\":2997:3009   */\n      revert\n        /* \"#utility.yul\":2961:3011   */\n    tag_377:\n        /* \"#utility.yul\":3046:3124   */\n      tag_378\n        /* \"#utility.yul\":3116:3123   */\n      dup7\n        /* \"#utility.yul\":3107:3113   */\n      dup3\n        /* \"#utility.yul\":3096:3105   */\n      dup8\n        /* \"#utility.yul\":3092:3114   */\n      add\n        /* \"#utility.yul\":3046:3124   */\n      tag_340\n      jump\t// in\n    tag_378:\n        /* \"#utility.yul\":2671:3184   */\n      swap5\n      swap8\n        /* \"#utility.yul\":3143:3151   */\n      swap1\n      swap7\n      pop\n        /* \"#utility.yul\":3020:3124   */\n      swap4\n      swap5\n      pop\n      pop\n      pop\n      pop\n        /* \"#utility.yul\":2671:3184   */\n      jump\t// out\n        /* \"#utility.yul\":3189:3369   */\n    tag_28:\n        /* \"#utility.yul\":3248:3254   */\n      0x00\n        /* \"#utility.yul\":3301:3303   */\n      0x20\n        /* \"#utility.yul\":3289:3298   */\n      dup3\n        /* \"#utility.yul\":3280:3287   */\n      dup5\n        /* \"#utility.yul\":3276:3299   */\n      sub\n        /* \"#utility.yul\":3272:3304   */\n      slt\n        /* \"#utility.yul\":3269:3321   */\n      iszero\n      tag_380\n      jumpi\n        /* \"#utility.yul\":3317:3318   */\n      0x00\n        /* \"#utility.yul\":3314:3315   */\n      dup1\n        /* \"#utility.yul\":3307:3319   */\n      revert\n        /* \"#utility.yul\":3269:3321   */\n    tag_380:\n      pop\n        /* \"#utility.yul\":3340:3363   */\n      calldataload\n      swap2\n        /* \"#utility.yul\":3189:3369   */\n      swap1\n      pop\n      jump\t// out\n        /* \"#utility.yul\":3506:3795   */\n    tag_342:\n        /* \"#utility.yul\":3548:3551   */\n      0x00\n        /* \"#utility.yul\":3586:3591   */\n      dup2\n        /* \"#utility.yul\":3580:3592   */\n      mload\n        /* \"#utility.yul\":3613:3619   */\n      dup1\n        /* \"#utility.yul\":3608:3611   */\n      dup5\n        /* \"#utility.yul\":3601:3620   */\n      mstore\n        /* \"#utility.yul\":3669:3675   */\n      dup1\n        /* \"#utility.yul\":3662:3666   */\n      0x20\n        /* \"#utility.yul\":3655:3660   */\n      dup5\n        /* \"#utility.yul\":3651:3667   */\n      add\n        /* \"#utility.yul\":3644:3648   */\n      0x20\n        /* \"#utility.yul\":3639:3642   */\n      dup7\n        /* \"#utility.yul\":3635:3649   */\n      add\n        /* \"#utility.yul\":3629:3676   */\n      mcopy\n        /* \"#utility.yul\":3721:3722   */\n      0x00\n        /* \"#utility.yul\":3714:3718   */\n      0x20\n        /* \"#utility.yul\":3705:3711   */\n      dup3\n        /* \"#utility.yul\":3700:3703   */\n      dup7\n        /* \"#utility.yul\":3696:3712   */\n      add\n        /* \"#utility.yul\":3692:3719   */\n      add\n        /* \"#utility.yul\":3685:3723   */\n      mstore\n        /* \"#utility.yul\":3784:3788   */\n      0x20\n        /* \"#utility.yul\":3777:3779   */\n      0x1f\n        /* \"#utility.yul\":3773:3780   */\n      not\n        /* \"#utility.yul\":3768:3770   */\n      0x1f\n        /* \"#utility.yul\":3760:3766   */\n      dup4\n        /* \"#utility.yul\":3756:3771   */\n      add\n        /* \"#utility.yul\":3752:3781   */\n      and\n        /* \"#utility.yul\":3747:3750   */\n      dup6\n        /* \"#utility.yul\":3743:3782   */\n      add\n        /* \"#utility.yul\":3739:3789   */\n      add\n        /* \"#utility.yul\":3732:3789   */\n      swap2\n      pop\n      pop\n        /* \"#utility.yul\":3506:3795   */\n      swap3\n      swap2\n      pop\n      pop\n      jump\t// out\n        /* \"#utility.yul\":3800:4634   */\n    tag_343:\n        /* \"#utility.yul\":3865:3868   */\n      0x00\n        /* \"#utility.yul\":3896:3899   */\n      dup3\n        /* \"#utility.yul\":3928:3933   */\n      dup3\n        /* \"#utility.yul\":3922:3934   */\n      mload\n        /* \"#utility.yul\":3955:3961   */\n      dup1\n        /* \"#utility.yul\":3950:3953   */\n      dup6\n        /* \"#utility.yul\":3943:3962   */\n      mstore\n        /* \"#utility.yul\":3981:3985   */\n      0x20\n        /* \"#utility.yul\":4010:4012   */\n      dup1\n        /* \"#utility.yul\":4005:4008   */\n      dup7\n        /* \"#utility.yul\":4001:4013   */\n      add\n        /* \"#utility.yul\":3994:4013   */\n      swap6\n      pop\n        /* \"#utility.yul\":4066:4068   */\n      dup1\n        /* \"#utility.yul\":4056:4062   */\n      dup3\n        /* \"#utility.yul\":4053:4054   */\n      0x05\n        /* \"#utility.yul\":4049:4063   */\n      shl\n        /* \"#utility.yul\":4042:4047   */\n      dup5\n        /* \"#utility.yul\":4038:4064   */\n      add\n        /* \"#utility.yul\":4034:4069   */\n      add\n        /* \"#utility.yul\":4103:4105   */\n      dup2\n        /* \"#utility.yul\":4096:4101   */\n      dup7\n        /* \"#utility.yul\":4092:4106   */\n      add\n        /* \"#utility.yul\":4124:4125   */\n      0x00\n        /* \"#utility.yul\":4134:4608   */\n    tag_384:\n        /* \"#utility.yul\":4148:4154   */\n      dup5\n        /* \"#utility.yul\":4145:4146   */\n      dup2\n        /* \"#utility.yul\":4142:4155   */\n      lt\n        /* \"#utility.yul\":4134:4608   */\n      iszero\n      tag_386\n      jumpi\n        /* \"#utility.yul\":4235:4237   */\n      0x1f\n        /* \"#utility.yul\":4231:4238   */\n      not\n        /* \"#utility.yul\":4223:4228   */\n      dup7\n        /* \"#utility.yul\":4217:4221   */\n      dup5\n        /* \"#utility.yul\":4213:4229   */\n      sub\n        /* \"#utility.yul\":4209:4239   */\n      add\n        /* \"#utility.yul\":4204:4207   */\n      dup10\n        /* \"#utility.yul\":4197:4240   */\n      mstore\n        /* \"#utility.yul\":4269:4275   */\n      dup2\n        /* \"#utility.yul\":4263:4276   */\n      mload\n        /* \"#utility.yul\":4299:4303   */\n      0x40\n        /* \"#utility.yul\":4342:4344   */\n      dup2\n        /* \"#utility.yul\":4336:4345   */\n      mload\n        /* \"#utility.yul\":4371:4373   */\n      dup2\n        /* \"#utility.yul\":4365:4369   */\n      dup7\n        /* \"#utility.yul\":4358:4374   */\n      mstore\n        /* \"#utility.yul\":4401:4447   */\n      tag_387\n        /* \"#utility.yul\":4443:4445   */\n      dup3\n        /* \"#utility.yul\":4437:4441   */\n      dup8\n        /* \"#utility.yul\":4433:4446   */\n      add\n        /* \"#utility.yul\":4419:4431   */\n      dup3\n        /* \"#utility.yul\":4401:4447   */\n      tag_342\n      jump\t// in\n    tag_387:\n        /* \"#utility.yul\":4488:4499   */\n      swap3\n      dup8\n      add\n        /* \"#utility.yul\":4482:4500   */\n      mload\n        /* \"#utility.yul\":4467:4480   */\n      swap6\n      dup8\n      add\n        /* \"#utility.yul\":4460:4501   */\n      swap6\n      swap1\n      swap6\n      mstore\n      pop\n        /* \"#utility.yul\":4586:4598   */\n      swap9\n      dup5\n      add\n      swap9\n        /* \"#utility.yul\":4387:4447   */\n      swap3\n      pop\n        /* \"#utility.yul\":4551:4566   */\n      swap1\n      dup4\n      add\n      swap1\n        /* \"#utility.yul\":4170:4171   */\n      0x01\n        /* \"#utility.yul\":4163:4172   */\n      add\n        /* \"#utility.yul\":4134:4608   */\n      jump(tag_384)\n    tag_386:\n      pop\n        /* \"#utility.yul\":4624:4628   */\n      swap1\n      swap8\n        /* \"#utility.yul\":3800:4634   */\n      swap7\n      pop\n      pop\n      pop\n      pop\n      pop\n      pop\n      pop\n      jump\t// out\n        /* \"#utility.yul\":4735:4862   */\n    tag_83:\n        /* \"#utility.yul\":4796:4806   */\n      0x4e487b71\n        /* \"#utility.yul\":4791:4794   */\n      0xe0\n        /* \"#utility.yul\":4787:4807   */\n      shl\n        /* \"#utility.yul\":4784:4785   */\n      0x00\n        /* \"#utility.yul\":4777:4808   */\n      mstore\n        /* \"#utility.yul\":4827:4831   */\n      0x21\n        /* \"#utility.yul\":4824:4825   */\n      0x04\n        /* \"#utility.yul\":4817:4832   */\n      mstore\n        /* \"#utility.yul\":4851:4855   */\n      0x24\n        /* \"#utility.yul\":4848:4849   */\n      0x00\n        /* \"#utility.yul\":4841:4856   */\n      revert\n        /* \"#utility.yul\":4867:5089   */\n    tag_345:\n        /* \"#utility.yul\":4960:4961   */\n      0x04\n        /* \"#utility.yul\":4953:4958   */\n      dup2\n        /* \"#utility.yul\":4950:4962   */\n      lt\n        /* \"#utility.yul\":4940:5083   */\n      tag_307\n      jumpi\n        /* \"#utility.yul\":5005:5015   */\n      0x4e487b71\n        /* \"#utility.yul\":5000:5003   */\n      0xe0\n        /* \"#utility.yul\":4996:5016   */\n      shl\n        /* \"#utility.yul\":4993:4994   */\n      0x00\n        /* \"#utility.yul\":4986:5017   */\n      mstore\n        /* \"#utility.yul\":5040:5044   */\n      0x21\n        /* \"#utility.yul\":5037:5038   */\n      0x04\n        /* \"#utility.yul\":5030:5045   */\n      mstore\n        /* \"#utility.yul\":5068:5072   */\n      0x24\n        /* \"#utility.yul\":5065:5066   */\n      0x00\n        /* \"#utility.yul\":5058:5073   */\n      revert\n        /* \"#utility.yul\":5094:5441   */\n    tag_346:\n        /* \"#utility.yul\":5192:5197   */\n      dup1\n        /* \"#utility.yul\":5186:5198   */\n      mload\n        /* \"#utility.yul\":5179:5199   */\n      iszero\n        /* \"#utility.yul\":5172:5200   */\n      iszero\n        /* \"#utility.yul\":5167:5170   */\n      dup3\n        /* \"#utility.yul\":5160:5201   */\n      mstore\n        /* \"#utility.yul\":5264:5268   */\n      0x20\n        /* \"#utility.yul\":5257:5262   */\n      dup2\n        /* \"#utility.yul\":5253:5269   */\n      add\n        /* \"#utility.yul\":5247:5270   */\n      mload\n        /* \"#utility.yul\":5240:5271   */\n      iszero\n        /* \"#utility.yul\":5233:5272   */\n      iszero\n        /* \"#utility.yul\":5226:5230   */\n      0x20\n        /* \"#utility.yul\":5221:5224   */\n      dup4\n        /* \"#utility.yul\":5217:5231   */\n      add\n        /* \"#utility.yul\":5210:5273   */\n      mstore\n        /* \"#utility.yul\":5319:5323   */\n      0x40\n        /* \"#utility.yul\":5312:5317   */\n      dup2\n        /* \"#utility.yul\":5308:5324   */\n      add\n        /* \"#utility.yul\":5302:5325   */\n      mload\n        /* \"#utility.yul\":5334:5390   */\n      tag_393\n        /* \"#utility.yul\":5377:5389   */\n      dup2\n        /* \"#utility.yul\":5334:5390   */\n      tag_345\n      jump\t// in\n    tag_393:\n        /* \"#utility.yul\":5422:5434   */\n      dup1\n        /* \"#utility.yul\":5415:5419   */\n      0x40\n        /* \"#utility.yul\":5410:5413   */\n      dup5\n        /* \"#utility.yul\":5406:5420   */\n      add\n        /* \"#utility.yul\":5399:5435   */\n      mstore\n      pop\n        /* \"#utility.yul\":5094:5441   */\n      pop\n      pop\n      jump\t// out\n        /* \"#utility.yul\":5446:5885   */\n    tag_347:\n        /* \"#utility.yul\":5499:5502   */\n      0x00\n        /* \"#utility.yul\":5537:5542   */\n      dup2\n        /* \"#utility.yul\":5531:5543   */\n      mload\n        /* \"#utility.yul\":5564:5570   */\n      dup1\n        /* \"#utility.yul\":5559:5562   */\n      dup5\n        /* \"#utility.yul\":5552:5571   */\n      mstore\n        /* \"#utility.yul\":5590:5594   */\n      0x20\n        /* \"#utility.yul\":5619:5623   */\n      dup1\n        /* \"#utility.yul\":5614:5617   */\n      dup6\n        /* \"#utility.yul\":5610:5624   */\n      add\n        /* \"#utility.yul\":5603:5624   */\n      swap5\n      pop\n        /* \"#utility.yul\":5658:5662   */\n      0x20\n        /* \"#utility.yul\":5651:5656   */\n      dup5\n        /* \"#utility.yul\":5647:5663   */\n      add\n        /* \"#utility.yul\":5681:5682   */\n      0x00\n        /* \"#utility.yul\":5691:5860   */\n    tag_395:\n        /* \"#utility.yul\":5705:5711   */\n      dup4\n        /* \"#utility.yul\":5702:5703   */\n      dup2\n        /* \"#utility.yul\":5699:5712   */\n      lt\n        /* \"#utility.yul\":5691:5860   */\n      iszero\n      tag_397\n      jumpi\n        /* \"#utility.yul\":5766:5779   */\n      dup2\n      mload\n        /* \"#utility.yul\":5754:5780   */\n      dup8\n      mstore\n        /* \"#utility.yul\":5800:5812   */\n      swap6\n      dup3\n      add\n      swap6\n        /* \"#utility.yul\":5835:5850   */\n      swap1\n      dup3\n      add\n      swap1\n        /* \"#utility.yul\":5727:5728   */\n      0x01\n        /* \"#utility.yul\":5720:5729   */\n      add\n        /* \"#utility.yul\":5691:5860   */\n      jump(tag_395)\n    tag_397:\n      pop\n        /* \"#utility.yul\":5876:5879   */\n      swap5\n      swap6\n        /* \"#utility.yul\":5446:5885   */\n      swap5\n      pop\n      pop\n      pop\n      pop\n      pop\n      jump\t// out\n        /* \"#utility.yul\":5890:7396   */\n    tag_34:\n        /* \"#utility.yul\":6073:6075   */\n      0x20\n        /* \"#utility.yul\":6062:6071   */\n      dup2\n        /* \"#utility.yul\":6055:6076   */\n      mstore\n        /* \"#utility.yul\":6085:6138   */\n      tag_399\n        /* \"#utility.yul\":6134:6136   */\n      0x20\n        /* \"#utility.yul\":6123:6132   */\n      dup3\n        /* \"#utility.yul\":6119:6137   */\n      add\n        /* \"#utility.yul\":6110:6116   */\n      dup4\n        /* \"#utility.yul\":6104:6117   */\n      mload\n      sub(shl(0xa0, 0x01), 0x01)\n        /* \"#utility.yul\":3440:3494   */\n      and\n        /* \"#utility.yul\":3428:3495   */\n      swap1\n      mstore\n        /* \"#utility.yul\":3374:3501   */\n      jump\n        /* \"#utility.yul\":6085:6138   */\n    tag_399:\n        /* \"#utility.yul\":6036:6040   */\n      0x00\n        /* \"#utility.yul\":6185:6187   */\n      0x20\n        /* \"#utility.yul\":6177:6183   */\n      dup4\n        /* \"#utility.yul\":6173:6188   */\n      add\n        /* \"#utility.yul\":6167:6189   */\n      mload\n        /* \"#utility.yul\":6208:6214   */\n      0x0180\n        /* \"#utility.yul\":6250:6252   */\n      dup1\n        /* \"#utility.yul\":6245:6247   */\n      0x40\n        /* \"#utility.yul\":6234:6243   */\n      dup6\n        /* \"#utility.yul\":6230:6248   */\n      add\n        /* \"#utility.yul\":6223:6253   */\n      mstore\n        /* \"#utility.yul\":6276:6328   */\n      tag_400\n        /* \"#utility.yul\":6323:6326   */\n      0x01a0\n        /* \"#utility.yul\":6312:6321   */\n      dup6\n        /* \"#utility.yul\":6308:6327   */\n      add\n        /* \"#utility.yul\":6294:6306   */\n      dup4\n        /* \"#utility.yul\":6276:6328   */\n      tag_342\n      jump\t// in\n    tag_400:\n        /* \"#utility.yul\":6262:6328   */\n      swap2\n      pop\n        /* \"#utility.yul\":6377:6379   */\n      0x40\n        /* \"#utility.yul\":6369:6375   */\n      dup6\n        /* \"#utility.yul\":6365:6380   */\n      add\n        /* \"#utility.yul\":6359:6381   */\n      mload\n        /* \"#utility.yul\":6404:6406   */\n      0x1f\n        /* \"#utility.yul\":6400:6407   */\n      not\n        /* \"#utility.yul\":6471:6473   */\n      dup1\n        /* \"#utility.yul\":6459:6468   */\n      dup7\n        /* \"#utility.yul\":6451:6457   */\n      dup6\n        /* \"#utility.yul\":6447:6469   */\n      sub\n        /* \"#utility.yul\":6443:6474   */\n      add\n        /* \"#utility.yul\":6438:6440   */\n      0x60\n        /* \"#utility.yul\":6427:6436   */\n      dup8\n        /* \"#utility.yul\":6423:6441   */\n      add\n        /* \"#utility.yul\":6416:6475   */\n      mstore\n        /* \"#utility.yul\":6498:6539   */\n      tag_401\n        /* \"#utility.yul\":6532:6538   */\n      dup5\n        /* \"#utility.yul\":6516:6530   */\n      dup4\n        /* \"#utility.yul\":6498:6539   */\n      tag_342\n      jump\t// in\n    tag_401:\n        /* \"#utility.yul\":6484:6539   */\n      swap4\n      pop\n        /* \"#utility.yul\":6594:6596   */\n      0x60\n        /* \"#utility.yul\":6586:6592   */\n      dup8\n        /* \"#utility.yul\":6582:6597   */\n      add\n        /* \"#utility.yul\":6576:6598   */\n      mload\n        /* \"#utility.yul\":6570:6573   */\n      0x80\n        /* \"#utility.yul\":6559:6568   */\n      dup8\n        /* \"#utility.yul\":6555:6574   */\n      add\n        /* \"#utility.yul\":6548:6599   */\n      mstore\n        /* \"#utility.yul\":6654:6657   */\n      0x80\n        /* \"#utility.yul\":6646:6652   */\n      dup8\n        /* \"#utility.yul\":6642:6658   */\n      add\n        /* \"#utility.yul\":6636:6659   */\n      mload\n        /* \"#utility.yul\":6630:6633   */\n      0xa0\n        /* \"#utility.yul\":6619:6628   */\n      dup8\n        /* \"#utility.yul\":6615:6634   */\n      add\n        /* \"#utility.yul\":6608:6660   */\n      mstore\n        /* \"#utility.yul\":6709:6712   */\n      0xa0\n        /* \"#utility.yul\":6701:6707   */\n      dup8\n        /* \"#utility.yul\":6697:6713   */\n      add\n        /* \"#utility.yul\":6691:6714   */\n      mload\n        /* \"#utility.yul\":6669:6714   */\n      swap2\n      pop\n        /* \"#utility.yul\":6779:6781   */\n      dup1\n        /* \"#utility.yul\":6767:6776   */\n      dup7\n        /* \"#utility.yul\":6759:6765   */\n      dup6\n        /* \"#utility.yul\":6755:6777   */\n      sub\n        /* \"#utility.yul\":6751:6782   */\n      add\n        /* \"#utility.yul\":6745:6748   */\n      0xc0\n        /* \"#utility.yul\":6734:6743   */\n      dup8\n        /* \"#utility.yul\":6730:6749   */\n      add\n        /* \"#utility.yul\":6723:6783   */\n      mstore\n        /* \"#utility.yul\":6806:6870   */\n      tag_402\n        /* \"#utility.yul\":6863:6869   */\n      dup5\n        /* \"#utility.yul\":6847:6861   */\n      dup4\n        /* \"#utility.yul\":6806:6870   */\n      tag_343\n      jump\t// in\n    tag_402:\n        /* \"#utility.yul\":6792:6870   */\n      swap4\n      pop\n        /* \"#utility.yul\":6925:6928   */\n      0xc0\n        /* \"#utility.yul\":6917:6923   */\n      dup8\n        /* \"#utility.yul\":6913:6929   */\n      add\n        /* \"#utility.yul\":6907:6930   */\n      mload\n        /* \"#utility.yul\":6901:6904   */\n      0xe0\n        /* \"#utility.yul\":6890:6899   */\n      dup8\n        /* \"#utility.yul\":6886:6905   */\n      add\n        /* \"#utility.yul\":6879:6931   */\n      mstore\n        /* \"#utility.yul\":6980:6983   */\n      0xe0\n        /* \"#utility.yul\":6972:6978   */\n      dup8\n        /* \"#utility.yul\":6968:6984   */\n      add\n        /* \"#utility.yul\":6962:6985   */\n      mload\n        /* \"#utility.yul\":6940:6985   */\n      swap2\n      pop\n        /* \"#utility.yul\":7004:7007   */\n      0x0100\n        /* \"#utility.yul\":7016:7082   */\n      tag_403\n        /* \"#utility.yul\":7078:7080   */\n      dup2\n        /* \"#utility.yul\":7067:7076   */\n      dup9\n        /* \"#utility.yul\":7063:7081   */\n      add\n        /* \"#utility.yul\":7047:7061   */\n      dup5\n        /* \"#utility.yul\":7016:7082   */\n      tag_346\n      jump\t// in\n    tag_403:\n        /* \"#utility.yul\":7119:7134   */\n      dup8\n      add\n        /* \"#utility.yul\":7113:7135   */\n      mload\n        /* \"#utility.yul\":4709:4722   */\n      iszero\n        /* \"#utility.yul\":4702:4723   */\n      iszero\n        /* \"#utility.yul\":7191:7194   */\n      0x0160\n        /* \"#utility.yul\":7176:7195   */\n      dup8\n      add\n        /* \"#utility.yul\":4690:4724   */\n      mstore\n        /* \"#utility.yul\":7245:7251   */\n      0x0120\n        /* \"#utility.yul\":7233:7252   */\n      dup8\n      add\n        /* \"#utility.yul\":7227:7253   */\n      mload\n        /* \"#utility.yul\":7293:7315   */\n      dup7\n      dup6\n      sub\n        /* \"#utility.yul\":7289:7320   */\n      swap1\n      swap2\n      add\n        /* \"#utility.yul\":7269:7287   */\n      dup4\n      dup8\n      add\n        /* \"#utility.yul\":7262:7321   */\n      mstore\n        /* \"#utility.yul\":7227:7253   */\n      swap1\n      pop\n        /* \"#utility.yul\":7338:7390   */\n      tag_405\n        /* \"#utility.yul\":7297:7303   */\n      dup4\n        /* \"#utility.yul\":7227:7253   */\n      dup3\n        /* \"#utility.yul\":7338:7390   */\n      tag_347\n      jump\t// in\n    tag_405:\n        /* \"#utility.yul\":7330:7390   */\n      swap7\n        /* \"#utility.yul\":5890:7396   */\n      swap6\n      pop\n      pop\n      pop\n      pop\n      pop\n      pop\n      jump\t// out\n        /* \"#utility.yul\":7401:8365   */\n    tag_39:\n        /* \"#utility.yul\":7785:7789   */\n      0x00\n        /* \"#utility.yul\":7814:7817   */\n      0x0140\n      sub(shl(0xa0, 0x01), 0x01)\n        /* \"#utility.yul\":7848:7854   */\n      dup12\n        /* \"#utility.yul\":7844:7899   */\n      and\n        /* \"#utility.yul\":7833:7842   */\n      dup4\n        /* \"#utility.yul\":7826:7900   */\n      mstore\n        /* \"#utility.yul\":7936:7942   */\n      dup10\n        /* \"#utility.yul\":7931:7933   */\n      0x20\n        /* \"#utility.yul\":7920:7929   */\n      dup5\n        /* \"#utility.yul\":7916:7934   */\n      add\n        /* \"#utility.yul\":7909:7943   */\n      mstore\n        /* \"#utility.yul\":7979:7981   */\n      dup1\n        /* \"#utility.yul\":7974:7976   */\n      0x40\n        /* \"#utility.yul\":7963:7972   */\n      dup5\n        /* \"#utility.yul\":7959:7977   */\n      add\n        /* \"#utility.yul\":7952:7982   */\n      mstore\n        /* \"#utility.yul\":8005:8050   */\n      tag_407\n        /* \"#utility.yul\":8046:8048   */\n      dup2\n        /* \"#utility.yul\":8035:8044   */\n      dup5\n        /* \"#utility.yul\":8031:8049   */\n      add\n        /* \"#utility.yul\":8023:8029   */\n      dup11\n        /* \"#utility.yul\":8005:8050   */\n      tag_342\n      jump\t// in\n    tag_407:\n        /* \"#utility.yul\":7991:8050   */\n      swap1\n      pop\n        /* \"#utility.yul\":8098:8107   */\n      dup3\n        /* \"#utility.yul\":8090:8096   */\n      dup2\n        /* \"#utility.yul\":8086:8108   */\n      sub\n        /* \"#utility.yul\":8081:8083   */\n      0x60\n        /* \"#utility.yul\":8070:8079   */\n      dup5\n        /* \"#utility.yul\":8066:8084   */\n      add\n        /* \"#utility.yul\":8059:8109   */\n      mstore\n        /* \"#utility.yul\":8126:8159   */\n      tag_408\n        /* \"#utility.yul\":8152:8158   */\n      dup2\n        /* \"#utility.yul\":8144:8150   */\n      dup10\n        /* \"#utility.yul\":8126:8159   */\n      tag_342\n      jump\t// in\n    tag_408:\n        /* \"#utility.yul\":8118:8159   */\n      swap2\n      pop\n      pop\n        /* \"#utility.yul\":8196:8202   */\n      dup6\n        /* \"#utility.yul\":8190:8193   */\n      0x80\n        /* \"#utility.yul\":8179:8188   */\n      dup4\n        /* \"#utility.yul\":8175:8194   */\n      add\n        /* \"#utility.yul\":8168:8203   */\n      mstore\n        /* \"#utility.yul\":8240:8246   */\n      dup5\n        /* \"#utility.yul\":8234:8237   */\n      0xa0\n        /* \"#utility.yul\":8223:8232   */\n      dup4\n        /* \"#utility.yul\":8219:8238   */\n      add\n        /* \"#utility.yul\":8212:8247   */\n      mstore\n        /* \"#utility.yul\":8284:8290   */\n      dup4\n        /* \"#utility.yul\":8278:8281   */\n      0xc0\n        /* \"#utility.yul\":8267:8276   */\n      dup4\n        /* \"#utility.yul\":8263:8282   */\n      add\n        /* \"#utility.yul\":8256:8291   */\n      mstore\n        /* \"#utility.yul\":8300:8359   */\n      tag_46\n        /* \"#utility.yul\":8354:8357   */\n      0xe0\n        /* \"#utility.yul\":8343:8352   */\n      dup4\n        /* \"#utility.yul\":8339:8358   */\n      add\n        /* \"#utility.yul\":8331:8337   */\n      dup5\n        /* \"#utility.yul\":8300:8359   */\n      tag_346\n      jump\t// in\n        /* \"#utility.yul\":8370:9852   */\n    tag_43:\n        /* \"#utility.yul\":8566:8570   */\n      0x00\n        /* \"#utility.yul\":8595:8597   */\n      0x20\n        /* \"#utility.yul\":8635:8637   */\n      dup1\n        /* \"#utility.yul\":8624:8633   */\n      dup4\n        /* \"#utility.yul\":8620:8638   */\n      add\n        /* \"#utility.yul\":8665:8667   */\n      dup2\n        /* \"#utility.yul\":8654:8663   */\n      dup5\n        /* \"#utility.yul\":8647:8668   */\n      mstore\n        /* \"#utility.yul\":8688:8694   */\n      dup1\n        /* \"#utility.yul\":8723:8729   */\n      dup6\n        /* \"#utility.yul\":8717:8730   */\n      mload\n        /* \"#utility.yul\":8754:8760   */\n      dup1\n        /* \"#utility.yul\":8746:8752   */\n      dup4\n        /* \"#utility.yul\":8739:8761   */\n      mstore\n        /* \"#utility.yul\":8780:8782   */\n      0x40\n        /* \"#utility.yul\":8770:8782   */\n      swap3\n      pop\n        /* \"#utility.yul\":8813:8815   */\n      0x40\n        /* \"#utility.yul\":8802:8811   */\n      dup7\n        /* \"#utility.yul\":8798:8816   */\n      add\n        /* \"#utility.yul\":8791:8816   */\n      swap2\n      pop\n        /* \"#utility.yul\":8875:8877   */\n      0x40\n        /* \"#utility.yul\":8865:8871   */\n      dup2\n        /* \"#utility.yul\":8862:8863   */\n      0x05\n        /* \"#utility.yul\":8858:8872   */\n      shl\n        /* \"#utility.yul\":8847:8856   */\n      dup8\n        /* \"#utility.yul\":8843:8873   */\n      add\n        /* \"#utility.yul\":8839:8878   */\n      add\n        /* \"#utility.yul\":8913:8915   */\n      dup5\n        /* \"#utility.yul\":8905:8911   */\n      dup9\n        /* \"#utility.yul\":8901:8916   */\n      add\n        /* \"#utility.yul\":8934:8935   */\n      0x00\n        /* \"#utility.yul\":8944:9823   */\n    tag_411:\n        /* \"#utility.yul\":8958:8964   */\n      dup4\n        /* \"#utility.yul\":8955:8956   */\n      dup2\n        /* \"#utility.yul\":8952:8965   */\n      lt\n        /* \"#utility.yul\":8944:9823   */\n      iszero\n      tag_413\n      jumpi\n        /* \"#utility.yul\":9051:9053   */\n      0x3f\n        /* \"#utility.yul\":9047:9054   */\n      not\n        /* \"#utility.yul\":9035:9044   */\n      dup10\n        /* \"#utility.yul\":9027:9033   */\n      dup5\n        /* \"#utility.yul\":9023:9045   */\n      sub\n        /* \"#utility.yul\":9019:9055   */\n      add\n        /* \"#utility.yul\":9014:9017   */\n      dup6\n        /* \"#utility.yul\":9007:9056   */\n      mstore\n        /* \"#utility.yul\":9085:9091   */\n      dup2\n        /* \"#utility.yul\":9079:9092   */\n      mload\n        /* \"#utility.yul\":9115:9119   */\n      0xa0\n      sub(shl(0xa0, 0x01), 0x01)\n        /* \"#utility.yul\":9157:9159   */\n      dup3\n        /* \"#utility.yul\":9151:9160   */\n      mload\n        /* \"#utility.yul\":9147:9205   */\n      and\n        /* \"#utility.yul\":9139:9145   */\n      dup6\n        /* \"#utility.yul\":9132:9206   */\n      mstore\n        /* \"#utility.yul\":9257:9259   */\n      dup9\n        /* \"#utility.yul\":9253:9255   */\n      dup3\n        /* \"#utility.yul\":9249:9260   */\n      add\n        /* \"#utility.yul\":9243:9261   */\n      mload\n        /* \"#utility.yul\":9238:9240   */\n      dup10\n        /* \"#utility.yul\":9230:9236   */\n      dup7\n        /* \"#utility.yul\":9226:9241   */\n      add\n        /* \"#utility.yul\":9219:9262   */\n      mstore\n        /* \"#utility.yul\":9309:9311   */\n      dup8\n        /* \"#utility.yul\":9305:9307   */\n      dup3\n        /* \"#utility.yul\":9301:9312   */\n      add\n        /* \"#utility.yul\":9295:9313   */\n      mload\n        /* \"#utility.yul\":9350:9352   */\n      dup2\n        /* \"#utility.yul\":9345:9347   */\n      dup10\n        /* \"#utility.yul\":9337:9343   */\n      dup8\n        /* \"#utility.yul\":9333:9348   */\n      add\n        /* \"#utility.yul\":9326:9353   */\n      mstore\n        /* \"#utility.yul\":9380:9428   */\n      tag_414\n        /* \"#utility.yul\":9424:9426   */\n      dup3\n        /* \"#utility.yul\":9416:9422   */\n      dup8\n        /* \"#utility.yul\":9412:9427   */\n      add\n        /* \"#utility.yul\":9398:9410   */\n      dup3\n        /* \"#utility.yul\":9380:9428   */\n      tag_342\n      jump\t// in\n    tag_414:\n        /* \"#utility.yul\":9366:9428   */\n      swap2\n      pop\n      pop\n        /* \"#utility.yul\":9451:9455   */\n      0x60\n        /* \"#utility.yul\":9506:9508   */\n      dup1\n        /* \"#utility.yul\":9502:9504   */\n      dup4\n        /* \"#utility.yul\":9498:9509   */\n      add\n        /* \"#utility.yul\":9492:9510   */\n      mload\n        /* \"#utility.yul\":9487:9489   */\n      dup2\n        /* \"#utility.yul\":9479:9485   */\n      dup8\n        /* \"#utility.yul\":9475:9490   */\n      add\n        /* \"#utility.yul\":9468:9511   */\n      mstore\n      pop\n        /* \"#utility.yul\":9534:9538   */\n      0x80\n        /* \"#utility.yul\":9587:9589   */\n      dup1\n        /* \"#utility.yul\":9583:9585   */\n      dup4\n        /* \"#utility.yul\":9579:9590   */\n      add\n        /* \"#utility.yul\":9573:9591   */\n      mload\n        /* \"#utility.yul\":9551:9591   */\n      swap3\n      pop\n        /* \"#utility.yul\":9604:9662   */\n      tag_415\n        /* \"#utility.yul\":9647:9661   */\n      dup4\n        /* \"#utility.yul\":9604:9662   */\n      tag_345\n      jump\t// in\n    tag_415:\n        /* \"#utility.yul\":9682:9697   */\n      swap5\n      swap1\n      swap5\n      add\n        /* \"#utility.yul\":9675:9714   */\n      mstore\n        /* \"#utility.yul\":9801:9813   */\n      swap4\n      dup7\n      add\n      swap4\n        /* \"#utility.yul\":9766:9781   */\n      swap1\n      dup7\n      add\n      swap1\n        /* \"#utility.yul\":8980:8981   */\n      0x01\n        /* \"#utility.yul\":8973:8982   */\n      add\n        /* \"#utility.yul\":8944:9823   */\n      jump(tag_411)\n    tag_413:\n      pop\n        /* \"#utility.yul\":9840:9846   */\n      swap1\n      swap9\n        /* \"#utility.yul\":8370:9852   */\n      swap8\n      pop\n      pop\n      pop\n      pop\n      pop\n      pop\n      pop\n      pop\n      jump\t// out\n        /* \"#utility.yul\":9857:9984   */\n    tag_229:\n        /* \"#utility.yul\":9918:9928   */\n      0x4e487b71\n        /* \"#utility.yul\":9913:9916   */\n      0xe0\n        /* \"#utility.yul\":9909:9929   */\n      shl\n        /* \"#utility.yul\":9906:9907   */\n      0x00\n        /* \"#utility.yul\":9899:9930   */\n      mstore\n        /* \"#utility.yul\":9949:9953   */\n      0x41\n        /* \"#utility.yul\":9946:9947   */\n      0x04\n        /* \"#utility.yul\":9939:9954   */\n      mstore\n        /* \"#utility.yul\":9973:9977   */\n      0x24\n        /* \"#utility.yul\":9970:9971   */\n      0x00\n        /* \"#utility.yul\":9963:9978   */\n      revert\n        /* \"#utility.yul\":9989:10369   */\n    tag_86:\n        /* \"#utility.yul\":10068:10069   */\n      0x01\n        /* \"#utility.yul\":10064:10076   */\n      dup2\n      dup2\n      shr\n      swap1\n        /* \"#utility.yul\":10111:10123   */\n      dup3\n      and\n      dup1\n        /* \"#utility.yul\":10132:10193   */\n      tag_418\n      jumpi\n        /* \"#utility.yul\":10186:10190   */\n      0x7f\n        /* \"#utility.yul\":10178:10184   */\n      dup3\n        /* \"#utility.yul\":10174:10191   */\n      and\n        /* \"#utility.yul\":10164:10191   */\n      swap2\n      pop\n        /* \"#utility.yul\":10132:10193   */\n    tag_418:\n        /* \"#utility.yul\":10239:10241   */\n      0x20\n        /* \"#utility.yul\":10231:10237   */\n      dup3\n        /* \"#utility.yul\":10228:10242   */\n      lt\n        /* \"#utility.yul\":10208:10226   */\n      dup2\n        /* \"#utility.yul\":10205:10243   */\n      sub\n        /* \"#utility.yul\":10202:10363   */\n      tag_419\n      jumpi\n        /* \"#utility.yul\":10285:10295   */\n      0x4e487b71\n        /* \"#utility.yul\":10280:10283   */\n      0xe0\n        /* \"#utility.yul\":10276:10296   */\n      shl\n        /* \"#utility.yul\":10273:10274   */\n      0x00\n        /* \"#utility.yul\":10266:10297   */\n      mstore\n        /* \"#utility.yul\":10320:10324   */\n      0x22\n        /* \"#utility.yul\":10317:10318   */\n      0x04\n        /* \"#utility.yul\":10310:10325   */\n      mstore\n        /* \"#utility.yul\":10348:10352   */\n      0x24\n        /* \"#utility.yul\":10345:10346   */\n      0x00\n        /* \"#utility.yul\":10338:10353   */\n      revert\n        /* \"#utility.yul\":10202:10363   */\n    tag_419:\n      pop\n        /* \"#utility.yul\":9989:10369   */\n      swap2\n      swap1\n      pop\n      jump\t// out\n        /* \"#utility.yul\":10500:11018   */\n    tag_349:\n        /* \"#utility.yul\":10602:10604   */\n      0x1f\n        /* \"#utility.yul\":10597:10600   */\n      dup3\n        /* \"#utility.yul\":10594:10605   */\n      gt\n        /* \"#utility.yul\":10591:11012   */\n      iszero\n      tag_277\n      jumpi\n        /* \"#utility.yul\":10638:10643   */\n      dup1\n        /* \"#utility.yul\":10635:10636   */\n      0x00\n        /* \"#utility.yul\":10628:10644   */\n      mstore\n        /* \"#utility.yul\":10682:10686   */\n      0x20\n        /* \"#utility.yul\":10679:10680   */\n      0x00\n        /* \"#utility.yul\":10669:10687   */\n      keccak256\n        /* \"#utility.yul\":10752:10754   */\n      0x1f\n        /* \"#utility.yul\":10740:10750   */\n      dup5\n        /* \"#utility.yul\":10736:10755   */\n      add\n        /* \"#utility.yul\":10733:10734   */\n      0x05\n        /* \"#utility.yul\":10729:10756   */\n      shr\n        /* \"#utility.yul\":10723:10727   */\n      dup2\n        /* \"#utility.yul\":10719:10757   */\n      add\n        /* \"#utility.yul\":10788:10792   */\n      0x20\n        /* \"#utility.yul\":10776:10786   */\n      dup6\n        /* \"#utility.yul\":10773:10793   */\n      lt\n        /* \"#utility.yul\":10770:10817   */\n      iszero\n      tag_423\n      jumpi\n      pop\n        /* \"#utility.yul\":10811:10815   */\n      dup1\n        /* \"#utility.yul\":10770:10817   */\n    tag_423:\n        /* \"#utility.yul\":10866:10868   */\n      0x1f\n        /* \"#utility.yul\":10861:10864   */\n      dup5\n        /* \"#utility.yul\":10857:10869   */\n      add\n        /* \"#utility.yul\":10854:10855   */\n      0x05\n        /* \"#utility.yul\":10850:10870   */\n      shr\n        /* \"#utility.yul\":10844:10848   */\n      dup3\n        /* \"#utility.yul\":10840:10871   */\n      add\n        /* \"#utility.yul\":10830:10871   */\n      swap2\n      pop\n        /* \"#utility.yul\":10921:11002   */\n    tag_424:\n        /* \"#utility.yul\":10939:10941   */\n      dup2\n        /* \"#utility.yul\":10932:10937   */\n      dup2\n        /* \"#utility.yul\":10929:10942   */\n      lt\n        /* \"#utility.yul\":10921:11002   */\n      iszero\n      tag_426\n      jumpi\n        /* \"#utility.yul\":10998:10999   */\n      0x00\n        /* \"#utility.yul\":10984:11000   */\n      dup2\n      sstore\n        /* \"#utility.yul\":10965:10966   */\n      0x01\n        /* \"#utility.yul\":10954:10967   */\n      add\n        /* \"#utility.yul\":10921:11002   */\n      jump(tag_424)\n    tag_426:\n        /* \"#utility.yul\":10925:10928   */\n      pop\n      pop\n        /* \"#utility.yul\":10500:11018   */\n      pop\n      pop\n      pop\n      jump\t// out\n        /* \"#utility.yul\":11194:12392   */\n    tag_59:\n        /* \"#utility.yul\":11318:11336   */\n      0xffffffffffffffff\n        /* \"#utility.yul\":11313:11316   */\n      dup4\n        /* \"#utility.yul\":11310:11337   */\n      gt\n        /* \"#utility.yul\":11307:11360   */\n      iszero\n      tag_430\n      jumpi\n        /* \"#utility.yul\":11340:11358   */\n      tag_430\n      tag_229\n      jump\t// in\n    tag_430:\n        /* \"#utility.yul\":11369:11463   */\n      tag_431\n        /* \"#utility.yul\":11459:11462   */\n      dup4\n        /* \"#utility.yul\":11419:11457   */\n      tag_432\n        /* \"#utility.yul\":11451:11455   */\n      dup4\n        /* \"#utility.yul\":11445:11456   */\n      sload\n        /* \"#utility.yul\":11419:11457   */\n      tag_86\n      jump\t// in\n    tag_432:\n        /* \"#utility.yul\":11413:11417   */\n      dup4\n        /* \"#utility.yul\":11369:11463   */\n      tag_349\n      jump\t// in\n    tag_431:\n        /* \"#utility.yul\":11489:11490   */\n      0x00\n        /* \"#utility.yul\":11514:11516   */\n      0x1f\n        /* \"#utility.yul\":11509:11512   */\n      dup5\n        /* \"#utility.yul\":11506:11517   */\n      gt\n        /* \"#utility.yul\":11531:11532   */\n      0x01\n        /* \"#utility.yul\":11526:12134   */\n      dup2\n      eq\n      tag_434\n      jumpi\n        /* \"#utility.yul\":12178:12179   */\n      0x00\n        /* \"#utility.yul\":12195:12198   */\n      dup6\n        /* \"#utility.yul\":12192:12285   */\n      iszero\n      tag_435\n      jumpi\n      pop\n        /* \"#utility.yul\":12251:12270   */\n      dup4\n      dup3\n      add\n        /* \"#utility.yul\":12238:12271   */\n      calldataload\n        /* \"#utility.yul\":12192:12285   */\n    tag_435:\n      not(0x00)\n        /* \"#utility.yul\":11151:11152   */\n      0x03\n        /* \"#utility.yul\":11147:11158   */\n      dup8\n      swap1\n      shl\n        /* \"#utility.yul\":11143:11167   */\n      shr\n        /* \"#utility.yul\":11139:11168   */\n      not\n        /* \"#utility.yul\":11129:11169   */\n      and\n        /* \"#utility.yul\":11175:11176   */\n      0x01\n        /* \"#utility.yul\":11171:11182   */\n      dup7\n      swap1\n      shl\n        /* \"#utility.yul\":11126:11183   */\n      or\n        /* \"#utility.yul\":12298:12376   */\n      dup4\n      sstore\n        /* \"#utility.yul\":11499:12386   */\n      jump(tag_426)\n        /* \"#utility.yul\":11526:12134   */\n    tag_434:\n        /* \"#utility.yul\":10447:10448   */\n      0x00\n        /* \"#utility.yul\":10440:10454   */\n      dup4\n      dup2\n      mstore\n        /* \"#utility.yul\":10484:10488   */\n      0x20\n        /* \"#utility.yul\":10471:10489   */\n      dup2\n      keccak256\n      not(0x1f)\n        /* \"#utility.yul\":11562:11579   */\n      dup8\n      and\n      swap2\n        /* \"#utility.yul\":11677:11906   */\n    tag_438:\n        /* \"#utility.yul\":11691:11698   */\n      dup3\n        /* \"#utility.yul\":11688:11689   */\n      dup2\n        /* \"#utility.yul\":11685:11699   */\n      lt\n        /* \"#utility.yul\":11677:11906   */\n      iszero\n      tag_440\n      jumpi\n        /* \"#utility.yul\":11780:11799   */\n      dup7\n      dup6\n      add\n        /* \"#utility.yul\":11767:11800   */\n      calldataload\n        /* \"#utility.yul\":11752:11801   */\n      dup3\n      sstore\n        /* \"#utility.yul\":11887:11891   */\n      0x20\n        /* \"#utility.yul\":11872:11892   */\n      swap5\n      dup6\n      add\n      swap5\n        /* \"#utility.yul\":11840:11841   */\n      0x01\n        /* \"#utility.yul\":11828:11842   */\n      swap1\n      swap3\n      add\n      swap2\n        /* \"#utility.yul\":11707:11719   */\n      add\n        /* \"#utility.yul\":11677:11906   */\n      jump(tag_438)\n    tag_440:\n        /* \"#utility.yul\":11681:11684   */\n      pop\n        /* \"#utility.yul\":11934:11937   */\n      dup7\n        /* \"#utility.yul\":11925:11932   */\n      dup3\n        /* \"#utility.yul\":11922:11938   */\n      lt\n        /* \"#utility.yul\":11919:12078   */\n      iszero\n      tag_441\n      jumpi\n        /* \"#utility.yul\":12058:12059   */\n      0x00\n        /* \"#utility.yul\":12054:12060   */\n      not\n        /* \"#utility.yul\":12048:12051   */\n      0xf8\n        /* \"#utility.yul\":12042:12045   */\n      dup9\n        /* \"#utility.yul\":12039:12040   */\n      0x03\n        /* \"#utility.yul\":12035:12046   */\n      shl\n        /* \"#utility.yul\":12031:12052   */\n      and\n        /* \"#utility.yul\":12027:12061   */\n      shr\n        /* \"#utility.yul\":12023:12062   */\n      not\n        /* \"#utility.yul\":12010:12019   */\n      dup5\n        /* \"#utility.yul\":12005:12008   */\n      dup8\n        /* \"#utility.yul\":12001:12020   */\n      add\n        /* \"#utility.yul\":11988:12021   */\n      calldataload\n        /* \"#utility.yul\":11984:12063   */\n      and\n        /* \"#utility.yul\":11976:11982   */\n      dup2\n        /* \"#utility.yul\":11969:12064   */\n      sstore\n        /* \"#utility.yul\":11919:12078   */\n    tag_441:\n      pop\n      pop\n        /* \"#utility.yul\":12121:12122   */\n      0x01\n        /* \"#utility.yul\":12115:12118   */\n      dup6\n        /* \"#utility.yul\":12112:12113   */\n      0x01\n        /* \"#utility.yul\":12108:12119   */\n      shl\n        /* \"#utility.yul\":12104:12123   */\n      add\n        /* \"#utility.yul\":12098:12102   */\n      dup4\n        /* \"#utility.yul\":12091:12124   */\n      sstore\n        /* \"#utility.yul\":11499:12386   */\n      pop\n      pop\n        /* \"#utility.yul\":11194:12392   */\n      pop\n      pop\n      pop\n      jump\t// out\n        /* \"#utility.yul\":12397:12515   */\n    tag_351:\n        /* \"#utility.yul\":12483:12488   */\n      dup1\n        /* \"#utility.yul\":12476:12489   */\n      iszero\n        /* \"#utility.yul\":12469:12490   */\n      iszero\n        /* \"#utility.yul\":12462:12467   */\n      dup2\n        /* \"#utility.yul\":12459:12491   */\n      eq\n        /* \"#utility.yul\":12449:12509   */\n      tag_307\n      jumpi\n        /* \"#utility.yul\":12505:12506   */\n      0x00\n        /* \"#utility.yul\":12502:12503   */\n      dup1\n        /* \"#utility.yul\":12495:12507   */\n      revert\n        /* \"#utility.yul\":12520:12761   */\n    tag_62:\n        /* \"#utility.yul\":12576:12582   */\n      0x00\n        /* \"#utility.yul\":12629:12631   */\n      0x20\n        /* \"#utility.yul\":12617:12626   */\n      dup3\n        /* \"#utility.yul\":12608:12615   */\n      dup5\n        /* \"#utility.yul\":12604:12627   */\n      sub\n        /* \"#utility.yul\":12600:12632   */\n      slt\n        /* \"#utility.yul\":12597:12649   */\n      iszero\n      tag_445\n      jumpi\n        /* \"#utility.yul\":12645:12646   */\n      0x00\n        /* \"#utility.yul\":12642:12643   */\n      dup1\n        /* \"#utility.yul\":12635:12647   */\n      revert\n        /* \"#utility.yul\":12597:12649   */\n    tag_445:\n        /* \"#utility.yul\":12684:12693   */\n      dup2\n        /* \"#utility.yul\":12671:12694   */\n      calldataload\n        /* \"#utility.yul\":12703:12731   */\n      tag_446\n        /* \"#utility.yul\":12725:12730   */\n      dup2\n        /* \"#utility.yul\":12703:12731   */\n      tag_351\n      jump\t// in\n    tag_446:\n        /* \"#utility.yul\":12750:12755   */\n      swap4\n        /* \"#utility.yul\":12520:12761   */\n      swap3\n      pop\n      pop\n      pop\n      jump\t// out\n        /* \"#utility.yul\":12766:12893   */\n    tag_70:\n        /* \"#utility.yul\":12827:12837   */\n      0x4e487b71\n        /* \"#utility.yul\":12822:12825   */\n      0xe0\n        /* \"#utility.yul\":12818:12838   */\n      shl\n        /* \"#utility.yul\":12815:12816   */\n      0x00\n        /* \"#utility.yul\":12808:12839   */\n      mstore\n        /* \"#utility.yul\":12858:12862   */\n      0x32\n        /* \"#utility.yul\":12855:12856   */\n      0x04\n        /* \"#utility.yul\":12848:12863   */\n      mstore\n        /* \"#utility.yul\":12882:12886   */\n      0x24\n        /* \"#utility.yul\":12879:12880   */\n      0x00\n        /* \"#utility.yul\":12872:12887   */\n      revert\n        /* \"#utility.yul\":12898:13420   */\n    tag_72:\n        /* \"#utility.yul\":12976:12980   */\n      0x00\n        /* \"#utility.yul\":12982:12988   */\n      dup1\n        /* \"#utility.yul\":13042:13053   */\n      dup4\n        /* \"#utility.yul\":13029:13054   */\n      calldataload\n        /* \"#utility.yul\":13136:13138   */\n      0x1e\n        /* \"#utility.yul\":13132:13139   */\n      not\n        /* \"#utility.yul\":13121:13129   */\n      dup5\n        /* \"#utility.yul\":13105:13119   */\n      calldatasize\n        /* \"#utility.yul\":13101:13130   */\n      sub\n        /* \"#utility.yul\":13097:13140   */\n      add\n        /* \"#utility.yul\":13077:13095   */\n      dup2\n        /* \"#utility.yul\":13073:13141   */\n      slt\n        /* \"#utility.yul\":13063:13159   */\n      tag_449\n      jumpi\n        /* \"#utility.yul\":13155:13156   */\n      0x00\n        /* \"#utility.yul\":13152:13153   */\n      dup1\n        /* \"#utility.yul\":13145:13157   */\n      revert\n        /* \"#utility.yul\":13063:13159   */\n    tag_449:\n        /* \"#utility.yul\":13182:13215   */\n      dup4\n      add\n        /* \"#utility.yul\":13234:13254   */\n      dup1\n      calldataload\n      swap2\n      pop\n        /* \"#utility.yul\":13277:13295   */\n      0xffffffffffffffff\n        /* \"#utility.yul\":13266:13296   */\n      dup3\n      gt\n        /* \"#utility.yul\":13263:13313   */\n      iszero\n      tag_450\n      jumpi\n        /* \"#utility.yul\":13309:13310   */\n      0x00\n        /* \"#utility.yul\":13306:13307   */\n      dup1\n        /* \"#utility.yul\":13299:13311   */\n      revert\n        /* \"#utility.yul\":13263:13313   */\n    tag_450:\n        /* \"#utility.yul\":13342:13346   */\n      0x20\n        /* \"#utility.yul\":13330:13347   */\n      add\n      swap2\n      pop\n        /* \"#utility.yul\":13373:13387   */\n      calldatasize\n        /* \"#utility.yul\":13369:13396   */\n      dup2\n      swap1\n      sub\n        /* \"#utility.yul\":13359:13397   */\n      dup3\n      sgt\n        /* \"#utility.yul\":13356:13414   */\n      iszero\n      tag_361\n      jumpi\n        /* \"#utility.yul\":13410:13411   */\n      0x00\n        /* \"#utility.yul\":13407:13408   */\n      dup1\n        /* \"#utility.yul\":13400:13412   */\n      revert\n        /* \"#utility.yul\":13425:13544   */\n    tag_352:\n        /* \"#utility.yul\":13518:13519   */\n      0x04\n        /* \"#utility.yul\":13511:13516   */\n      dup2\n        /* \"#utility.yul\":13508:13520   */\n      lt\n        /* \"#utility.yul\":13498:13538   */\n      tag_307\n      jumpi\n        /* \"#utility.yul\":13534:13535   */\n      0x00\n        /* \"#utility.yul\":13531:13532   */\n      dup1\n        /* \"#utility.yul\":13524:13536   */\n      revert\n        /* \"#utility.yul\":13549:14382   */\n    tag_76:\n        /* \"#utility.yul\":13720:13725   */\n      dup2\n        /* \"#utility.yul\":13707:13726   */\n      calldataload\n        /* \"#utility.yul\":13735:13765   */\n      tag_455\n        /* \"#utility.yul\":13757:13764   */\n      dup2\n        /* \"#utility.yul\":13735:13765   */\n      tag_351\n      jump\t// in\n    tag_455:\n        /* \"#utility.yul\":13784:13795   */\n      dup2\n      sload\n      not(0xff)\n        /* \"#utility.yul\":13872:13889   */\n      dup2\n      and\n        /* \"#utility.yul\":13825:13840   */\n      swap2\n      iszero\n        /* \"#utility.yul\":13818:13841   */\n      iszero\n        /* \"#utility.yul\":13843:13846   */\n      0xff\n        /* \"#utility.yul\":13814:13847   */\n      and\n        /* \"#utility.yul\":13869:13894   */\n      swap2\n      dup3\n      or\n        /* \"#utility.yul\":13856:13895   */\n      dup4\n      sstore\n        /* \"#utility.yul\":13943:13945   */\n      0x20\n        /* \"#utility.yul\":13932:13946   */\n      dup5\n      add\n        /* \"#utility.yul\":13919:13947   */\n      calldataload\n        /* \"#utility.yul\":13956:13986   */\n      tag_456\n        /* \"#utility.yul\":13919:13947   */\n      dup2\n        /* \"#utility.yul\":13956:13986   */\n      tag_351\n      jump\t// in\n    tag_456:\n        /* \"#utility.yul\":14042:14047   */\n      0xff00\n        /* \"#utility.yul\":14023:14038   */\n      swap1\n      iszero\n        /* \"#utility.yul\":14016:14039   */\n      iszero\n        /* \"#utility.yul\":14013:14014   */\n      0x08\n        /* \"#utility.yul\":14009:14040   */\n      shl\n        /* \"#utility.yul\":14005:14048   */\n      and\n      not(0xffff)\n        /* \"#utility.yul\":14076:14095   */\n      dup3\n      and\n        /* \"#utility.yul\":14073:14100   */\n      dup4\n      or\n        /* \"#utility.yul\":14070:14105   */\n      dup2\n      or\n        /* \"#utility.yul\":14057:14106   */\n      dup5\n      sstore\n        /* \"#utility.yul\":14154:14156   */\n      0x40\n        /* \"#utility.yul\":14143:14157   */\n      dup6\n      add\n        /* \"#utility.yul\":14130:14158   */\n      calldataload\n        /* \"#utility.yul\":14167:14218   */\n      tag_457\n        /* \"#utility.yul\":14130:14158   */\n      dup2\n        /* \"#utility.yul\":14167:14218   */\n      tag_352\n      jump\t// in\n    tag_457:\n        /* \"#utility.yul\":14227:14278   */\n      tag_458\n        /* \"#utility.yul\":14270:14277   */\n      dup2\n        /* \"#utility.yul\":14227:14278   */\n      tag_345\n      jump\t// in\n    tag_458:\n        /* \"#utility.yul\":14365:14373   */\n      0xff0000\n        /* \"#utility.yul\":14355:14362   */\n      dup2\n        /* \"#utility.yul\":14351:14353   */\n      0x10\n        /* \"#utility.yul\":14347:14363   */\n      shl\n        /* \"#utility.yul\":14343:14374   */\n      and\n        /* \"#utility.yul\":14337:14339   */\n      dup5\n        /* \"#utility.yul\":14325:14333   */\n      0xffffff\n        /* \"#utility.yul\":14321:14334   */\n      not\n        /* \"#utility.yul\":14317:14319   */\n      dup6\n        /* \"#utility.yul\":14313:14335   */\n      and\n        /* \"#utility.yul\":14310:14340   */\n      or\n        /* \"#utility.yul\":14306:14308   */\n      dup4\n        /* \"#utility.yul\":14303:14341   */\n      or\n        /* \"#utility.yul\":14300:14375   */\n      or\n        /* \"#utility.yul\":14294:14298   */\n      dup6\n        /* \"#utility.yul\":14287:14376   */\n      sstore\n      pop\n      pop\n      pop\n      pop\n        /* \"#utility.yul\":13549:14382   */\n      pop\n      pop\n      jump\t// out\n        /* \"#utility.yul\":14387:14619   */\n    tag_131:\n        /* \"#utility.yul\":14426:14429   */\n      0x00\n        /* \"#utility.yul\":14447:14464   */\n      0x01\n      dup3\n      add\n        /* \"#utility.yul\":14444:14584   */\n      tag_460\n      jumpi\n        /* \"#utility.yul\":14506:14516   */\n      0x4e487b71\n        /* \"#utility.yul\":14501:14504   */\n      0xe0\n        /* \"#utility.yul\":14497:14517   */\n      shl\n        /* \"#utility.yul\":14494:14495   */\n      0x00\n        /* \"#utility.yul\":14487:14518   */\n      mstore\n        /* \"#utility.yul\":14541:14545   */\n      0x11\n        /* \"#utility.yul\":14538:14539   */\n      0x04\n        /* \"#utility.yul\":14531:14546   */\n      mstore\n        /* \"#utility.yul\":14569:14573   */\n      0x24\n        /* \"#utility.yul\":14566:14567   */\n      0x00\n        /* \"#utility.yul\":14559:14574   */\n      revert\n        /* \"#utility.yul\":14444:14584   */\n    tag_460:\n      pop\n        /* \"#utility.yul\":14611:14612   */\n      0x01\n        /* \"#utility.yul\":14600:14613   */\n      add\n      swap1\n        /* \"#utility.yul\":14387:14619   */\n      jump\t// out\n        /* \"#utility.yul\":14624:15185   */\n    tag_134:\n        /* \"#utility.yul\":14841:14847   */\n      dup4\n        /* \"#utility.yul\":14830:14839   */\n      dup2\n        /* \"#utility.yul\":14823:14848   */\n      mstore\n        /* \"#utility.yul\":14884:14886   */\n      0x40\n        /* \"#utility.yul\":14879:14881   */\n      0x20\n        /* \"#utility.yul\":14868:14877   */\n      dup3\n        /* \"#utility.yul\":14864:14882   */\n      add\n        /* \"#utility.yul\":14857:14887   */\n      mstore\n        /* \"#utility.yul\":14923:14929   */\n      dup2\n        /* \"#utility.yul\":14918:14920   */\n      0x40\n        /* \"#utility.yul\":14907:14916   */\n      dup3\n        /* \"#utility.yul\":14903:14921   */\n      add\n        /* \"#utility.yul\":14896:14930   */\n      mstore\n        /* \"#utility.yul\":14804:14808   */\n      0x00\n        /* \"#utility.yul\":14953:15019   */\n      0x07ffffffffffffffffffffffffffffffffffffffffffffffffffffffffffffff\n        /* \"#utility.yul\":14945:14951   */\n      dup4\n        /* \"#utility.yul\":14942:15020   */\n      gt\n        /* \"#utility.yul\":14939:15037   */\n      iszero\n      tag_462\n      jumpi\n        /* \"#utility.yul\":15033:15034   */\n      0x00\n        /* \"#utility.yul\":15030:15031   */\n      dup1\n        /* \"#utility.yul\":15023:15035   */\n      revert\n        /* \"#utility.yul\":14939:15037   */\n    tag_462:\n        /* \"#utility.yul\":15067:15073   */\n      dup3\n        /* \"#utility.yul\":15064:15065   */\n      0x05\n        /* \"#utility.yul\":15060:15074   */\n      shl\n        /* \"#utility.yul\":15124:15130   */\n      dup1\n        /* \"#utility.yul\":15116:15122   */\n      dup6\n        /* \"#utility.yul\":15111:15113   */\n      0x60\n        /* \"#utility.yul\":15100:15109   */\n      dup6\n        /* \"#utility.yul\":15096:15114   */\n      add\n        /* \"#utility.yul\":15083:15131   */\n      calldatacopy\n        /* \"#utility.yul\":15152:15174   */\n      swap2\n      swap1\n      swap2\n      add\n        /* \"#utility.yul\":15176:15178   */\n      0x60\n        /* \"#utility.yul\":15148:15179   */\n      add\n      swap5\n        /* \"#utility.yul\":14624:15185   */\n      swap4\n      pop\n      pop\n      pop\n      pop\n      jump\t// out\n        /* \"#utility.yul\":15190:15478   */\n    tag_304:\n        /* \"#utility.yul\":15272:15278   */\n      0x00\n        /* \"#utility.yul\":15325:15327   */\n      0x20\n        /* \"#utility.yul\":15313:15322   */\n      dup3\n        /* \"#utility.yul\":15304:15311   */\n      dup5\n        /* \"#utility.yul\":15300:15323   */\n      sub\n        /* \"#utility.yul\":15296:15328   */\n      slt\n        /* \"#utility.yul\":15293:15345   */\n      iszero\n      tag_464\n      jumpi\n        /* \"#utility.yul\":15341:15342   */\n      0x00\n        /* \"#utility.yul\":15338:15339   */\n      dup1\n        /* \"#utility.yul\":15331:15343   */\n      revert\n        /* \"#utility.yul\":15293:15345   */\n    tag_464:\n        /* \"#utility.yul\":15380:15389   */\n      dup2\n        /* \"#utility.yul\":15367:15390   */\n      calldataload\n        /* \"#utility.yul\":15399:15448   */\n      tag_446\n        /* \"#utility.yul\":15442:15447   */\n      dup2\n        /* \"#utility.yul\":15399:15448   */\n      tag_352\n      jump\t// in\n\n    auxdata: 0xa2646970667358221220a1c842a0eeb752a88bf86c972a588d7988376c921ef9750d89d9367693b6dded64736f6c63430008190033\n}\n",
    "bytecode": {
      "linkReferences": {},
      "object": "6080604052348015600e575f80fd5b506122448061001c5f395ff3fe608060405234801561000f575f80fd5b506004361061007a575f3560e01c80639534e637116100585780639534e637146100cc5780639a0040e4146100df578063ac2f0074146100ff578063dfcaab8814610126575f80fd5b80631994a6151461007e57806321b91db5146100a45780637055d368146100b7575b5f80fd5b61009161008c366004611a37565b61013b565b6040519081526020015b60405180910390f35b6100916100b2366004611af2565b610166565b6100ca6100c5366004611bb1565b61034d565b005b6100ca6100da366004611bf9565b610821565b6100f26100ed366004611bf9565b610aeb565b60405161009b9190611d3f565b61011261010d366004611bf9565b611016565b60405161009b989796959493929190611e18565b61012e6111d8565b60405161009b9190611e76565b6001602052815f5260405f208181548110610154575f80fd5b905f5260205f20015f91509150505481565b5f6101718a8a6115e2565b61017b888861162c565b610185868661167d565b61018f84846116c2565b61019882611797565b5f8054600181018255908052600981027f290decd9548b62a8d60345a988386fc84ba6bc95484008f6362f93160ef3e563810180547fffffffffffffffffffffffff000000000000000000000000000000000000000016331781557f290decd9548b62a8d60345a988386fc84ba6bc95484008f6362f93160ef3e5648201839055907f290decd9548b62a8d60345a988386fc84ba6bc95484008f6362f93160ef3e565016102478c8e83611fb5565b50600381016102578a8c83611fb5565b506004810188905561026f604085016020860161207c565b610279578661027b565b5f5b60058201555f5b858110156102da57816006018787838181106102a0576102a061209e565b90506020028101906102b291906120b2565b82546001810184555f9384526020909320909201916102d19183611fb5565b50600101610282565b505f600782015583600882016102f08282612101565b5050335f818152600160208181526040808420805493840181558452908320909101859055518492917f253458ed40d765e300ef79d87f8b5a901191fbfc27d54b1ea052a6752908953c91a35090505b9998505050505050505050565b5f610357846117f4565b90506001604080516101208101825283546001600160a01b03168152600184015460208201526002840180546106039386929084019161039690611f32565b80601f01602080910402602001604051908101604052809291908181526020018280546103c290611f32565b801561040d5780601f106103e45761010080835404028352916020019161040d565b820191905f5260205f20905b8154815290600101906020018083116103f057829003601f168201915b5050505050815260200160038201805461042690611f32565b80601f016020809104026020016040519081016040528092919081815260200182805461045290611f32565b801561049d5780601f106104745761010080835404028352916020019161049d565b820191905f5260205f20905b81548152906001019060200180831161048057829003601f168201915b50505050508152602001600482015481526020016005820154815260200160068201805480602002602001604051908101604052809291908181526020015f905b82821015610586578382905f5260205f200180546104fb90611f32565b80601f016020809104026020016040519081016040528092919081815260200182805461052790611f32565b80156105725780601f1061054957610100808354040283529160200191610572565b820191905f5260205f20905b81548152906001019060200180831161055557829003601f168201915b5050505050815260200190600101906104de565b5050509082525060078201546020808301919091526040805160608101825260088501805460ff808216151584526101008204811615159584019590955294830194919390928401916201000090041660038111156105e7576105e7611caa565b60038111156105f8576105f8611caa565b905250905250611842565b600381111561061457610614611caa565b146106325760405163b4f0e2d960e01b815260040160405180910390fd5b5f84815260026020908152604080832033845290915290205460ff161561066c57604051637c9a1cf960e01b815260040160405180910390fd5b815f81900361068e5760405163be5a2acd60e01b815260040160405180910390fd5b600882015460ff161580156106a35750600181115b156106c15760405163baabd10760e01b815260040160405180910390fd5b5f5b818110156107a3575f8585838181106106de576106de61209e565b9050602002013590508360060180549050811061070e576040516370039a2560e01b815260040160405180910390fd5b5f5b828110156107705786868281811061072a5761072a61209e565b905060200201358787858181106107435761074361209e565b905060200201350361076857604051630fe3ee1360e11b815260040160405180910390fd5b600101610710565b505f878152600460209081526040808320848452909152812080549161079583612178565b9091555050506001016106c3565b50600782018054905f6107b583612178565b90915550505f85815260026020908152604080832033808552925291829020805460ff1916600117905590517f871b62f932d6ef8afa59aed962334ae3a32efd388f7ec8932a67b7e47ae7795a906108129088908890889061219c565b60405180910390a25050505050565b5f61082b826117f4565b80549091506001600160a01b0316331461085857604051634ca8886760e01b815260040160405180910390fd5b6003604080516101208101825283546001600160a01b0316815260018401546020820152600284018054610a859386929084019161089590611f32565b80601f01602080910402602001604051908101604052809291908181526020018280546108c190611f32565b801561090c5780601f106108e35761010080835404028352916020019161090c565b820191905f5260205f20905b8154815290600101906020018083116108ef57829003601f168201915b5050505050815260200160038201805461092590611f32565b80601f016020809104026020016040519081016040528092919081815260200182805461095190611f32565b801561099c5780601f106109735761010080835404028352916020019161099c565b820191905f5260205f20905b81548152906001019060200180831161097f57829003601f168201915b50505050508152602001600482015481526020016005820154815260200160068201805480602002602001604051908101604052809291908181526020015f905b82821015610586578382905f5260205f200180546109fa90611f32565b80601f0160208091040260200160405190810160405280929190818152602001828054610a2690611f32565b8015610a715780601f10610a4857610100808354040283529160200191610a71565b820191905f5260205f20905b815481529060010190602001808311610a5457829003601f168201915b5050505050815260200190600101906109dd565b6003811115610a9657610a96611caa565b03610ab457604051639b22ddeb60e01b815260040160405180910390fd5b60016005820155604051829033907f563a96cebb2dd00c04fe16ab3f34901e3749b13da3040e6cae0b5a55ea4daee2905f90a35050565b610af361197e565b5f610afd836117f4565b60408051610140810190915281546001600160a01b031681526002820180549293509091602083019190610b3090611f32565b80601f0160208091040260200160405190810160405280929190818152602001828054610b5c90611f32565b8015610ba75780601f10610b7e57610100808354040283529160200191610ba7565b820191905f5260205f20905b815481529060010190602001808311610b8a57829003601f168201915b50505050508152602001826003018054610bc090611f32565b80601f0160208091040260200160405190810160405280929190818152602001828054610bec90611f32565b8015610c375780601f10610c0e57610100808354040283529160200191610c37565b820191905f5260205f20905b815481529060010190602001808311610c1a57829003601f168201915b505050505081526020018260040154815260200182600501548152602001610f1983604051806101200160405290815f82015f9054906101000a90046001600160a01b03166001600160a01b03166001600160a01b0316815260200160018201548152602001600282018054610cac90611f32565b80601f0160208091040260200160405190810160405280929190818152602001828054610cd890611f32565b8015610d235780601f10610cfa57610100808354040283529160200191610d23565b820191905f5260205f20905b815481529060010190602001808311610d0657829003601f168201915b50505050508152602001600382018054610d3c90611f32565b80601f0160208091040260200160405190810160405280929190818152602001828054610d6890611f32565b8015610db35780601f10610d8a57610100808354040283529160200191610db3565b820191905f5260205f20905b815481529060010190602001808311610d9657829003601f168201915b50505050508152602001600482015481526020016005820154815260200160068201805480602002602001604051908101604052809291908181526020015f905b82821015610e9c578382905f5260205f20018054610e1190611f32565b80601f0160208091040260200160405190810160405280929190818152602001828054610e3d90611f32565b8015610e885780601f10610e5f57610100808354040283529160200191610e88565b820191905f5260205f20905b815481529060010190602001808311610e6b57829003601f168201915b505050505081526020019060010190610df4565b5050509082525060078201546020808301919091526040805160608101825260088501805460ff80821615158452610100820481161515958401959095529483019491939092840191620100009004166003811115610efd57610efd611caa565b6003811115610f0e57610f0e611caa565b905250905250611897565b815260078301546020808301919091526040805160608101825260088601805460ff80821615158452610100820481161515958401959095529483019491939092840191620100009004166003811115610f7557610f75611caa565b6003811115610f8657610f86611caa565b90525081525f858152600260209081526040808320338085529083528184205460ff1615158386015288845260058352818420908452825291829020805483518184028101840185528181529390940193909183018282801561100657602002820191905f5260205f20905b815481526020019060010190808311610ff2575b5050505050815250915050919050565b5f8181548110611024575f80fd5b5f9182526020909120600990910201805460018201546002830180546001600160a01b03909316945090929161105990611f32565b80601f016020809104026020016040519081016040528092919081815260200182805461108590611f32565b80156110d05780601f106110a7576101008083540402835291602001916110d0565b820191905f5260205f20905b8154815290600101906020018083116110b357829003601f168201915b5050505050908060030180546110e590611f32565b80601f016020809104026020016040519081016040528092919081815260200182805461111190611f32565b801561115c5780601f106111335761010080835404028352916020019161115c565b820191905f5260205f20905b81548152906001019060200180831161113f57829003601f168201915b5050506004840154600585015460078601546040805160608101825260088901805460ff808216151584526101008204811615156020850152999a969995985093965090939092918401916201000090041660038111156111bf576111bf611caa565b60038111156111d0576111d0611caa565b905250905088565b335f90815260016020526040812080546060928167ffffffffffffffff81111561120457611204611f1e565b60405190808252806020026020018201604052801561123d57816020015b61122a6119f3565b8152602001906001900390816112225790505b5090505f5b828110156115da575f84828154811061125d5761125d61209e565b905f5260205f20015490505f80828154811061127b5761127b61209e565b905f5260205f20906009020190506040518060a00160405280825f015f9054906101000a90046001600160a01b03166001600160a01b031681526020018381526020018260020180546112cd90611f32565b80601f01602080910402602001604051908101604052809291908181526020018280546112f990611f32565b80156113445780601f1061131b57610100808354040283529160200191611344565b820191905f5260205f20905b81548152906001019060200180831161132757829003601f168201915b505050505081526020018260070154815260200161159f83604051806101200160405290815f82015f9054906101000a90046001600160a01b03166001600160a01b03166001600160a01b03168152602001600182015481526020016002820180546113af90611f32565b80601f01602080910402602001604051908101604052809291908181526020018280546113db90611f32565b80156114265780601f106113fd57610100808354040283529160200191611426565b820191905f5260205f20905b81548152906001019060200180831161140957829003601f168201915b5050505050815260200160038201805461143f90611f32565b80601f016020809104026020016040519081016040528092919081815260200182805461146b90611f32565b80156114b65780601f1061148d576101008083540402835291602001916114b6565b820191905f5260205f20905b81548152906001019060200180831161149957829003601f168201915b50505050508152602001600482015481526020016005820154815260200160068201805480602002602001604051908101604052809291908181526020015f905b82821015610586578382905f5260205f2001805461151490611f32565b80601f016020809104026020016040519081016040528092919081815260200182805461154090611f32565b801561158b5780601f106115625761010080835404028352916020019161158b565b820191905f5260205f20905b81548152906001019060200180831161156e57829003601f168201915b5050505050815260200190600101906114f7565b60038111156115b0576115b0611caa565b8152508484815181106115c5576115c561209e565b60209081029190910101525050600101611242565b509392505050565b806003811015611605576040516324ace35560e01b815260040160405180910390fd5b606481111561162757604051632b5df40f60e21b815260040160405180910390fd5b505050565b80801580159061163c5750600a81105b1561165a57604051631b0bf73560e21b815260040160405180910390fd5b6103e881111561162757604051631b0fce8360e01b815260040160405180910390fd5b4282101561169e57604051633eb2d8c560e01b815260040160405180910390fd5b8181116116be576040516371f3286160e11b815260040160405180910390fd5b5050565b8060028110156116e557604051638ee5f57d60e01b815260040160405180910390fd5b600a8111156117075760405163701d39f160e11b815260040160405180910390fd5b5f5b81811015611791575f8484838181106117245761172461209e565b905060200281019061173691906120b2565b9150506001811015611763576040516323bae5c560e11b8152600481018390526024015b60405180910390fd5b606481111561178857604051631e8a182560e21b81526004810183905260240161175a565b50600101611709565b50505050565b6117a7604082016020830161207c565b80156117d3575060026117c060608301604084016121f3565b60038111156117d1576117d1611caa565b145b156117f15760405163dc2ca70160e01b815260040160405180910390fd5b50565b5f80548210611819576040516302708a4d60e21b81526004810183905260240161175a565b5f80838154811061182c5761182c61209e565b5f91825260209091206009909102019392505050565b5f428260800151111561185657505f919050565b8160a0015160010361186a57506003919050565b60018260a001511180156118825750428260a0015111155b1561188f57506002919050565b506001919050565b60c0810151516060905f8167ffffffffffffffff8111156118ba576118ba611f1e565b6040519080825280602002602001820160405280156118ff57816020015b60408051808201909152606081525f60208201528152602001906001900390816118d85790505b5090505f5b828110156115da5760405180604001604052808660c00151838151811061192d5761192d61209e565b6020908102919091018101518252878101515f9081526004825260408082208683528352902054910152825183908390811061196b5761196b61209e565b6020908102919091010152600101611904565b6040518061014001604052805f6001600160a01b0316815260200160608152602001606081526020015f81526020015f8152602001606081526020015f81526020016119e0604080516060810182525f80825260208201819052909182015290565b81525f6020820152606060409091015290565b6040518060a001604052805f6001600160a01b031681526020015f8152602001606081526020015f81526020015f6003811115611a3257611a32611caa565b905290565b5f8060408385031215611a48575f80fd5b82356001600160a01b0381168114611a5e575f80fd5b946020939093013593505050565b5f8083601f840112611a7c575f80fd5b50813567ffffffffffffffff811115611a93575f80fd5b602083019150836020828501011115611aaa575f80fd5b9250929050565b5f8083601f840112611ac1575f80fd5b50813567ffffffffffffffff811115611ad8575f80fd5b6020830191508360208260051b8501011115611aaa575f80fd5b5f805f805f805f805f898b03610100811215611b0c575f80fd5b8a3567ffffffffffffffff80821115611b23575f80fd5b611b2f8e838f01611a6c565b909c509a5060208d0135915080821115611b47575f80fd5b611b538e838f01611a6c565b909a50985060408d0135975060608d0135965060808d0135915080821115611b79575f80fd5b50611b868d828e01611ab1565b9095509350506060609f1982011215611b9d575f80fd5b5060a08a0190509295985092959850929598565b5f805f60408486031215611bc3575f80fd5b83359250602084013567ffffffffffffffff811115611be0575f80fd5b611bec86828701611ab1565b9497909650939450505050565b5f60208284031215611c09575f80fd5b5035919050565b5f81518084528060208401602086015e5f602082860101526020601f19601f83011685010191505092915050565b5f82825180855260208086019550808260051b8401018186015f5b84811015611c9d57601f19868403018952815160408151818652611c7f82870182611c10565b92870151958701959095525098840198925090830190600101611c59565b5090979650505050505050565b634e487b7160e01b5f52602160045260245ffd5b600481106117f157634e487b7160e01b5f52602160045260245ffd5b8051151582526020810151151560208301526040810151611cfa81611cbe565b806040840152505050565b5f815180845260208085019450602084015f5b83811015611d3457815187529582019590820190600101611d18565b509495945050505050565b60208152611d596020820183516001600160a01b03169052565b5f6020830151610180806040850152611d766101a0850183611c10565b91506040850151601f1980868503016060870152611d948483611c10565b935060608701516080870152608087015160a087015260a08701519150808685030160c0870152611dc58483611c3e565b935060c087015160e087015260e08701519150610100611de781880184611cda565b8701511515610160870152610120870151868503909101838701529050611e0e8382611d05565b9695505050505050565b5f6101406001600160a01b038b168352896020840152806040840152611e408184018a611c10565b90508281036060840152611e548189611c10565b9150508560808301528460a08301528360c083015261034060e0830184611cda565b5f60208083018184528085518083526040925060408601915060408160051b8701018488015f5b83811015611f1057603f19898403018552815160a06001600160a01b0382511685528882015189860152878201518189870152611edc82870182611c10565b91505060608083015181870152506080808301519250611efb83611cbe565b94909401529386019390860190600101611e9d565b509098975050505050505050565b634e487b7160e01b5f52604160045260245ffd5b600181811c90821680611f4657607f821691505b602082108103611f6457634e487b7160e01b5f52602260045260245ffd5b50919050565b601f82111561162757805f5260205f20601f840160051c81016020851015611f8f5750805b601f840160051c820191505b81811015611fae575f8155600101611f9b565b5050505050565b67ffffffffffffffff831115611fcd57611fcd611f1e565b611fe183611fdb8354611f32565b83611f6a565b5f601f841160018114612012575f8515611ffb5750838201355b5f19600387901b1c1916600186901b178355611fae565b5f83815260208120601f198716915b828110156120415786850135825560209485019460019092019101612021565b508682101561205d575f1960f88860031b161c19848701351681555b505060018560011b0183555050505050565b80151581146117f1575f80fd5b5f6020828403121561208c575f80fd5b81356120978161206f565b9392505050565b634e487b7160e01b5f52603260045260245ffd5b5f808335601e198436030181126120c7575f80fd5b83018035915067ffffffffffffffff8211156120e1575f80fd5b602001915036819003821315611aaa575f80fd5b600481106117f1575f80fd5b813561210c8161206f565b815460ff19811691151560ff169182178355602084013561212c8161206f565b61ff0090151560081b1661ffff1982168317811784556040850135612150816120f5565b61215981611cbe565b62ff00008160101b168462ffffff198516178317178555505050505050565b5f6001820161219557634e487b7160e01b5f52601160045260245ffd5b5060010190565b838152604060208201528160408201525f7f07ffffffffffffffffffffffffffffffffffffffffffffffffffffffffffffff8311156121d9575f80fd5b8260051b8085606085013791909101606001949350505050565b5f60208284031215612203575f80fd5b8135612097816120f556fea2646970667358221220a1c842a0eeb752a88bf86c972a588d7988376c921ef9750d89d9367693b6dded64736f6c63430008190033",
      "opcodes": "PUSH1 0x80 PUSH1 0x40 MSTORE CALLVALUE DUP1 ISZERO PUSH1 0xE JUMPI PUSH0 DUP1 REVERT JUMPDEST POP PUSH2 0x2244 DUP1 PUSH2 0x1C PUSH0 CODECOPY PUSH0 RETURN INVALID PUSH1 0x80 PUSH1 0x40 MSTORE CALLVALUE DUP1 ISZERO PUSH2 0xF JUMPI PUSH0 DUP1 REVERT JUMPDEST POP PUSH1 0x4 CALLDATASIZE LT PUSH2 0x7A JUMPI PUSH0 CALLDATALOAD PUSH1 0xE0 SHR DUP1 PUSH4 0x9534E637 GT PUSH2 0x58 JUMPI DUP1 PUSH4 0x9534E637 EQ PUSH2 0xCC JUMPI DUP1 PUSH4 0x9A0040E4 EQ PUSH2 0xDF JUMPI DUP1 PUSH4 0xAC2F0074 EQ PUSH2 0xFF JUMPI DUP1 PUSH4 0xDFCAAB88 EQ PUSH2 0x126 JUMPI PUSH0 DUP1 REVERT JUMPDEST DUP1 PUSH4 0x1994A615 EQ PUSH2 0x7E JUMPI DUP1 PUSH4 0x21B91DB5 EQ PUSH2 0xA4 JUMPI DUP1 PUSH4 0x7055D368 EQ PUSH2 0xB7 JUMPI JUMPDEST PUSH0 DUP1 REVERT JUMPDEST PUSH2 0x91 PUSH2 0x8C CALLDATASIZE PUSH1 0x4 PUSH2 0x1A37 JUMP JUMPDEST PUSH2 0x13B JUMP JUMPDEST PUSH1 0x40 MLOAD SWAP1 DUP2 MSTORE PUSH1 0x20 ADD JUMPDEST PUSH1 0x40 MLOAD DUP1 SWAP2 SUB SWAP1 RETURN JUMPDEST PUSH2 0x91 PUSH2 0xB2 CALLDATASIZE PUSH1 0x4 PUSH2 0x1AF2 JUMP JUMPDEST PUSH2 0x166 JUMP JUMPDEST PUSH2 0xCA PUSH2 0xC5 CALLDATASIZE PUSH1 0x4 PUSH2 0x1BB1 JUMP JUMPDEST PUSH2 0x34D JUMP JUMPDEST STOP JUMPDEST PUSH2 0xCA PUSH2 0xDA CALLDATASIZE PUSH1 0x4 PUSH2 0x1BF9 JUMP JUMPDEST PUSH2 0x821 JUMP JUMPDEST PUSH2 0xF2 PUSH2 0xED CALLDATASIZE PUSH1 0x4 PUSH2 0x1BF9 JUMP JUMPDEST PUSH2 0xAEB JUMP JUMPDEST PUSH1 0x40 MLOAD PUSH2 0x9B SWAP2 SWAP1 PUSH2 0x1D3F JUMP JUMPDEST PUSH2 0x112 PUSH2 0x10D CALLDATASIZE PUSH1 0x4 PUSH2 0x1BF9 JUMP JUMPDEST PUSH2 0x1016 JUMP JUMPDEST PUSH1 0x40 MLOAD PUSH2 0x9B SWAP9 SWAP8 SWAP7 SWAP6 SWAP5 SWAP4 SWAP3 SWAP2 SWAP1 PUSH2 0x1E18 JUMP JUMPDEST PUSH2 0x12E PUSH2 0x11D8 JUMP JUMPDEST PUSH1 0x40 MLOAD PUSH2 0x9B SWAP2 SWAP1 PUSH2 0x1E76 JUMP JUMPDEST PUSH1 0x1 PUSH1 0x20 MSTORE DUP2 PUSH0 MSTORE PUSH1 0x40 PUSH0 KECCAK256 DUP2 DUP2 SLOAD DUP2 LT PUSH2 0x154 JUMPI PUSH0 DUP1 REVERT JUMPDEST SWAP1 PUSH0 MSTORE PUSH1 0x20 PUSH0 KECCAK256 ADD PUSH0 SWAP2 POP SWAP2 POP POP SLOAD DUP2 JUMP JUMPDEST PUSH0 PUSH2 0x171 DUP11 DUP11 PUSH2 0x15E2 JUMP JUMPDEST PUSH2 0x17B DUP9 DUP9 PUSH2 0x162C JUMP JUMPDEST PUSH2 0x185 DUP7 DUP7 PUSH2 0x167D JUMP JUMPDEST PUSH2 0x18F DUP5 DUP5 PUSH2 0x16C2 JUMP JUMPDEST PUSH2 0x198 DUP3 PUSH2 0x1797 JUMP JUMPDEST PUSH0 DUP1 SLOAD PUSH1 0x1 DUP2 ADD DUP3 SSTORE SWAP1 DUP1 MSTORE PUSH1 0x9 DUP2 MUL PUSH32 0x290DECD9548B62A8D60345A988386FC84BA6BC95484008F6362F93160EF3E563 DUP2 ADD DUP1 SLOAD PUSH32 0xFFFFFFFFFFFFFFFFFFFFFFFF0000000000000000000000000000000000000000 AND CALLER OR DUP2 SSTORE PUSH32 0x290DECD9548B62A8D60345A988386FC84BA6BC95484008F6362F93160EF3E564 DUP3 ADD DUP4 SWAP1 SSTORE SWAP1 PUSH32 0x290DECD9548B62A8D60345A988386FC84BA6BC95484008F6362F93160EF3E565 ADD PUSH2 0x247 DUP13 DUP15 DUP4 PUSH2 0x1FB5 JUMP JUMPDEST POP PUSH1 0x3 DUP2 ADD PUSH2 0x257 DUP11 DUP13 DUP4 PUSH2 0x1FB5 JUMP JUMPDEST POP PUSH1 0x4 DUP2 ADD DUP9 SWAP1 SSTORE PUSH2 0x26F PUSH1 0x40 DUP6 ADD PUSH1 0x20 DUP7 ADD PUSH2 0x207C JUMP JUMPDEST PUSH2 0x279 JUMPI DUP7 PUSH2 0x27B JUMP JUMPDEST PUSH0 JUMPDEST PUSH1 0x5 DUP3 ADD SSTORE PUSH0 JUMPDEST DUP6 DUP2 LT ISZERO PUSH2 0x2DA JUMPI DUP2 PUSH1 0x6 ADD DUP8 DUP8 DUP4 DUP2 DUP2 LT PUSH2 0x2A0 JUMPI PUSH2 0x2A0 PUSH2 0x209E JUMP JUMPDEST SWAP1 POP PUSH1 0x20 MUL DUP2 ADD SWAP1 PUSH2 0x2B2 SWAP2 SWAP1 PUSH2 0x20B2 JUMP JUMPDEST DUP3 SLOAD PUSH1 0x1 DUP2 ADD DUP5 SSTORE PUSH0 SWAP4 DUP5 MSTORE PUSH1 0x20 SWAP1 SWAP4 KECCAK256 SWAP1 SWAP3 ADD SWAP2 PUSH2 0x2D1 SWAP2 DUP4 PUSH2 0x1FB5 JUMP JUMPDEST POP PUSH1 0x1 ADD PUSH2 0x282 JUMP JUMPDEST POP PUSH0 PUSH1 0x7 DUP3 ADD SSTORE DUP4 PUSH1 0x8 DUP3 ADD PUSH2 0x2F0 DUP3 DUP3 PUSH2 0x2101 JUMP JUMPDEST POP POP CALLER PUSH0 DUP2 DUP2 MSTORE PUSH1 0x1 PUSH1 0x20 DUP2 DUP2 MSTORE PUSH1 0x40 DUP1 DUP5 KECCAK256 DUP1 SLOAD SWAP4 DUP5 ADD DUP2 SSTORE DUP5 MSTORE SWAP1 DUP4 KECCAK256 SWAP1 SWAP2 ADD DUP6 SWAP1 SSTORE MLOAD DUP5 SWAP3 SWAP2 PUSH32 0x253458ED40D765E300EF79D87F8B5A901191FBFC27D54B1EA052A6752908953C SWAP2 LOG3 POP SWAP1 POP JUMPDEST SWAP10 SWAP9 POP POP POP POP POP POP POP POP POP JUMP JUMPDEST PUSH0 PUSH2 0x357 DUP5 PUSH2 0x17F4 JUMP JUMPDEST SWAP1 POP PUSH1 0x1 PUSH1 0x40 DUP1 MLOAD PUSH2 0x120 DUP2 ADD DUP3 MSTORE DUP4 SLOAD PUSH1 0x1 PUSH1 0x1 PUSH1 0xA0 SHL SUB AND DUP2 MSTORE PUSH1 0x1 DUP5 ADD SLOAD PUSH1 0x20 DUP3 ADD MSTORE PUSH1 0x2 DUP5 ADD DUP1 SLOAD PUSH2 0x603 SWAP4 DUP7 SWAP3 SWAP1 DUP5 ADD SWAP2 PUSH2 0x396 SWAP1 PUSH2 0x1F32 JUMP JUMPDEST DUP1 PUSH1 0x1F ADD PUSH1 0x20 DUP1 SWAP2 DIV MUL PUSH1 0x20 ADD PUSH1 0x40 MLOAD SWAP1 DUP2 ADD PUSH1 0x40 MSTORE DUP1 SWAP3 SWAP2 SWAP1 DUP2 DUP2 MSTORE PUSH1 0x20 ADD DUP3 DUP1 SLOAD PUSH2 0x3C2 SWAP1 PUSH2 0x1F32 JUMP JUMPDEST DUP1 ISZERO PUSH2 0x40D JUMPI DUP1 PUSH1 0x1F LT PUSH2 0x3E4 JUMPI PUSH2 0x100 DUP1 DUP4 SLOAD DIV MUL DUP4 MSTORE SWAP2 PUSH1 0x20 ADD SWAP2 PUSH2 0x40D JUMP JUMPDEST DUP3 ADD SWAP2 SWAP1 PUSH0 MSTORE PUSH1 0x20 PUSH0 KECCAK256 SWAP1 JUMPDEST DUP2 SLOAD DUP2 MSTORE SWAP1 PUSH1 0x1 ADD SWAP1 PUSH1 0x20 ADD DUP1 DUP4 GT PUSH2 0x3F0 JUMPI DUP3 SWAP1 SUB PUSH1 0x1F AND DUP3 ADD SWAP2 JUMPDEST POP POP POP POP POP DUP2 MSTORE PUSH1 0x20 ADD PUSH1 0x3 DUP3 ADD DUP1 SLOAD PUSH2 0x426 SWAP1 PUSH2 0x1F32 JUMP JUMPDEST DUP1 PUSH1 0x1F ADD PUSH1 0x20 DUP1 SWAP2 DIV MUL PUSH1 0x20 ADD PUSH1 0x40 MLOAD SWAP1 DUP2 ADD PUSH1 0x40 MSTORE DUP1 SWAP3 SWAP2 SWAP1 DUP2 DUP2 MSTORE PUSH1 0x20 ADD DUP3 DUP1 SLOAD PUSH2 0x452 SWAP1 PUSH2 0x1F32 JUMP JUMPDEST DUP1 ISZERO PUSH2 0x49D JUMPI DUP1 PUSH1 0x1F LT PUSH2 0x474 JUMPI PUSH2 0x100 DUP1 DUP4 SLOAD DIV MUL DUP4 MSTORE SWAP2 PUSH1 0x20 ADD SWAP2 PUSH2 0x49D JUMP JUMPDEST DUP3 ADD SWAP2 SWAP1 PUSH0 MSTORE PUSH1 0x20 PUSH0 KECCAK256 SWAP1 JUMPDEST DUP2 SLOAD DUP2 MSTORE SWAP1 PUSH1 0x1 ADD SWAP1 PUSH1 0x20 ADD DUP1 DUP4 GT PUSH2 0x480 JUMPI DUP3 SWAP1 SUB PUSH1 0x1F AND DUP3 ADD SWAP2 JUMPDEST POP POP POP POP POP DUP2 MSTORE PUSH1 0x20 ADD PUSH1 0x4 DUP3 ADD SLOAD DUP2 MSTORE PUSH1 0x20 ADD PUSH1 0x5 DUP3 ADD SLOAD DUP2 MSTORE PUSH1 0x20 ADD PUSH1 0x6 DUP3 ADD DUP1 SLOAD DUP1 PUSH1 0x20 MUL PUSH1 0x20 ADD PUSH1 0x40 MLOAD SWAP1 DUP2 ADD PUSH1 0x40 MSTORE DUP1 SWAP3 SWAP2 SWAP1 DUP2 DUP2 MSTORE PUSH1 0x20 ADD PUSH0 SWAP1 JUMPDEST DUP3 DUP3 LT ISZERO PUSH2 0x586 JUMPI DUP4 DUP3 SWAP1 PUSH0 MSTORE PUSH1 0x20 PUSH0 KECCAK256 ADD DUP1 SLOAD PUSH2 0x4FB SWAP1 PUSH2 0x1F32 JUMP JUMPDEST DUP1 PUSH1 0x1F ADD PUSH1 0x20 DUP1 SWAP2 DIV MUL PUSH1 0x20 ADD PUSH1 0x40 MLOAD SWAP1 DUP2 ADD PUSH1 0x40 MSTORE DUP1 SWAP3 SWAP2 SWAP1 DUP2 DUP2 MSTORE PUSH1 0x20 ADD DUP3 DUP1 SLOAD PUSH2 0x527 SWAP1 PUSH2 0x1F32 JUMP JUMPDEST DUP1 ISZERO PUSH2 0x572 JUMPI DUP1 PUSH1 0x1F LT PUSH2 0x549 JUMPI PUSH2 0x100 DUP1 DUP4 SLOAD DIV MUL DUP4 MSTORE SWAP2 PUSH1 0x20 ADD SWAP2 PUSH2 0x572 JUMP JUMPDEST DUP3 ADD SWAP2 SWAP1 PUSH0 MSTORE PUSH1 0x20 PUSH0 KECCAK256 SWAP1 JUMPDEST DUP2 SLOAD DUP2 MSTORE SWAP1 PUSH1 0x1 ADD SWAP1 PUSH1 0x20 ADD DUP1 DUP4 GT PUSH2 0x555 JUMPI DUP3 SWAP1 SUB PUSH1 0x1F AND DUP3 ADD SWAP2 JUMPDEST POP POP POP POP POP DUP2 MSTORE PUSH1 0x20 ADD SWAP1 PUSH1 0x1 ADD SWAP1 PUSH2 0x4DE JUMP JUMPDEST POP POP POP SWAP1 DUP3 MSTORE POP PUSH1 0x7 DUP3 ADD SLOAD PUSH1 0x20 DUP1 DUP4 ADD SWAP2 SWAP1 SWAP2 MSTORE PUSH1 0x40 DUP1 MLOAD PUSH1 0x60 DUP2 ADD DUP3 MSTORE PUSH1 0x8 DUP6 ADD DUP1 SLOAD PUSH1 0xFF DUP1 DUP3 AND ISZERO ISZERO DUP5 MSTORE PUSH2 0x100 DUP3 DIV DUP2 AND ISZERO ISZERO SWAP6 DUP5 ADD SWAP6 SWAP1 SWAP6 MSTORE SWAP5 DUP4 ADD SWAP5 SWAP2 SWAP4 SWAP1 SWAP3 DUP5 ADD SWAP2 PUSH3 0x10000 SWAP1 DIV AND PUSH1 0x3 DUP2 GT ISZERO PUSH2 0x5E7 JUMPI PUSH2 0x5E7 PUSH2 0x1CAA JUMP JUMPDEST PUSH1 0x3 DUP2 GT ISZERO PUSH2 0x5F8 JUMPI PUSH2 0x5F8 PUSH2 0x1CAA JUMP JUMPDEST SWAP1 MSTORE POP SWAP1 MSTORE POP PUSH2 0x1842 JUMP JUMPDEST PUSH1 0x3 DUP2 GT ISZERO PUSH2 0x614 JUMPI PUSH2 0x614 PUSH2 0x1CAA JUMP JUMPDEST EQ PUSH2 0x632 JUMPI PUSH1 0x40 MLOAD PUSH4 0xB4F0E2D9 PUSH1 0xE0 SHL DUP2 MSTORE PUSH1 0x4 ADD PUSH1 0x40 MLOAD DUP1 SWAP2 SUB SWAP1 REVERT JUMPDEST PUSH0 DUP5 DUP2 MSTORE PUSH1 0x2 PUSH1 0x20 SWAP1 DUP2 MSTORE PUSH1 0x40 DUP1 DUP4 KECCAK256 CALLER DUP5 MSTORE SWAP1 SWAP2 MSTORE SWAP1 KECCAK256 SLOAD PUSH1 0xFF AND ISZERO PUSH2 0x66C JUMPI PUSH1 0x40 MLOAD PUSH4 0x7C9A1CF9 PUSH1 0xE0 SHL DUP2 MSTORE PUSH1 0x4 ADD PUSH1 0x40 MLOAD DUP1 SWAP2 SUB SWAP1 REVERT JUMPDEST DUP2 PUSH0 DUP2 SWAP1 SUB PUSH2 0x68E JUMPI PUSH1 0x40 MLOAD PUSH4 0xBE5A2ACD PUSH1 0xE0 SHL DUP2 MSTORE PUSH1 0x4 ADD PUSH1 0x40 MLOAD DUP1 SWAP2 SUB SWAP1 REVERT JUMPDEST PUSH1 0x8 DUP3 ADD SLOAD PUSH1 0xFF AND ISZERO DUP1 ISZERO PUSH2 0x6A3 JUMPI POP PUSH1 0x1 DUP2 GT JUMPDEST ISZERO PUSH2 0x6C1 JUMPI PUSH1 0x40 MLOAD PUSH4 0xBAABD107 PUSH1 0xE0 SHL DUP2 MSTORE PUSH1 0x4 ADD PUSH1 0x40 MLOAD DUP1 SWAP2 SUB SWAP1 REVERT JUMPDEST PUSH0 JUMPDEST DUP2 DUP2 LT ISZERO PUSH2 0x7A3 JUMPI PUSH0 DUP6 DUP6 DUP4 DUP2 DUP2 LT PUSH2 0x6DE JUMPI PUSH2 0x6DE PUSH2 0x209E JUMP JUMPDEST SWAP1 POP PUSH1 0x20 MUL ADD CALLDATALOAD SWAP1 POP DUP4 PUSH1 0x6 ADD DUP1 SLOAD SWAP1 POP DUP2 LT PUSH2 0x70E JUMPI PUSH1 0x40 MLOAD PUSH4 0x70039A25 PUSH1 0xE0 SHL DUP2 MSTORE PUSH1 0x4 ADD PUSH1 0x40 MLOAD DUP1 SWAP2 SUB SWAP1 REVERT JUMPDEST PUSH0 JUMPDEST DUP3 DUP2 LT ISZERO PUSH2 0x770 JUMPI DUP7 DUP7 DUP3 DUP2 DUP2 LT PUSH2 0x72A JUMPI PUSH2 0x72A PUSH2 0x209E JUMP JUMPDEST SWAP1 POP PUSH1 0x20 MUL ADD CALLDATALOAD DUP8 DUP8 DUP6 DUP2 DUP2 LT PUSH2 0x743 JUMPI PUSH2 0x743 PUSH2 0x209E JUMP JUMPDEST SWAP1 POP PUSH1 0x20 MUL ADD CALLDATALOAD SUB PUSH2 0x768 JUMPI PUSH1 0x40 MLOAD PUSH4 0xFE3EE13 PUSH1 0xE1 SHL DUP2 MSTORE PUSH1 0x4 ADD PUSH1 0x40 MLOAD DUP1 SWAP2 SUB SWAP1 REVERT JUMPDEST PUSH1 0x1 ADD PUSH2 0x710 JUMP JUMPDEST POP PUSH0 DUP8 DUP2 MSTORE PUSH1 0x4 PUSH1 0x20 SWAP1 DUP2 MSTORE PUSH1 0x40 DUP1 DUP4 KECCAK256 DUP5 DUP5 MSTORE SWAP1 SWAP2 MSTORE DUP2 KECCAK256 DUP1 SLOAD SWAP2 PUSH2 0x795 DUP4 PUSH2 0x2178 JUMP JUMPDEST SWAP1 SWAP2 SSTORE POP POP POP PUSH1 0x1 ADD PUSH2 0x6C3 JUMP JUMPDEST POP PUSH1 0x7 DUP3 ADD DUP1 SLOAD SWAP1 PUSH0 PUSH2 0x7B5 DUP4 PUSH2 0x2178 JUMP JUMPDEST SWAP1 SWAP2 SSTORE POP POP PUSH0 DUP6 DUP2 MSTORE PUSH1 0x2 PUSH1 0x20 SWAP1 DUP2 MSTORE PUSH1 0x40 DUP1 DUP4 KECCAK256 CALLER DUP1 DUP6 MSTORE SWAP3 MSTORE SWAP2 DUP3 SWAP1 KECCAK256 DUP1 SLOAD PUSH1 0xFF NOT AND PUSH1 0x1 OR SWAP1 SSTORE SWAP1 MLOAD PUSH32 0x871B62F932D6EF8AFA59AED962334AE3A32EFD388F7EC8932A67B7E47AE7795A SWAP1 PUSH2 0x812 SWAP1 DUP9 SWAP1 DUP9 SWAP1 DUP9 SWAP1 PUSH2 0x219C JUMP JUMPDEST PUSH1 0x40 MLOAD DUP1 SWAP2 SUB SWAP1 LOG2 POP POP POP POP POP JUMP JUMPDEST PUSH0 PUSH2 0x82B DUP3 PUSH2 0x17F4 JUMP JUMPDEST DUP1 SLOAD SWAP1 SWAP2 POP PUSH1 0x1 PUSH1 0x1 PUSH1 0xA0 SHL SUB AND CALLER EQ PUSH2 0x858 JUMPI PUSH1 0x40 MLOAD PUSH4 0x4CA88867 PUSH1 0xE0 SHL DUP2 MSTORE PUSH1 0x4 ADD PUSH1 0x40 MLOAD DUP1 SWAP2 SUB SWAP1 REVERT JUMPDEST PUSH1 0x3 PUSH1 0x40 DUP1 MLOAD PUSH2 0x120 DUP2 ADD DUP3 MSTORE DUP4 SLOAD PUSH1 0x1 PUSH1 0x1 PUSH1 0xA0 SHL SUB AND DUP2 MSTORE PUSH1 0x1 DUP5 ADD SLOAD PUSH1 0x20 DUP3 ADD MSTORE PUSH1 0x2 DUP5 ADD DUP1 SLOAD PUSH2 0xA85 SWAP4 DUP7 SWAP3 SWAP1 DUP5 ADD SWAP2 PUSH2 0x895 SWAP1 PUSH2 0x1F32 JUMP JUMPDEST DUP1 PUSH1 0x1F ADD PUSH1 0x20 DUP1 SWAP2 DIV MUL PUSH1 0x20 ADD PUSH1 0x40 MLOAD SWAP1 DUP2 ADD PUSH1 0x40 MSTORE DUP1 SWAP3 SWAP2 SWAP1 DUP2 DUP2 MSTORE PUSH1 0x20 ADD DUP3 DUP1 SLOAD PUSH2 0x8C1 SWAP1 PUSH2 0x1F32 JUMP JUMPDEST DUP1 ISZERO PUSH2 0x90C JUMPI DUP1 PUSH1 0x1F LT PUSH2 0x8E3 JUMPI PUSH2 0x100 DUP1 DUP4 SLOAD DIV MUL DUP4 MSTORE SWAP2 PUSH1 0x20 ADD SWAP2 PUSH2 0x90C JUMP JUMPDEST DUP3 ADD SWAP2 SWAP1 PUSH0 MSTORE PUSH1 0x20 PUSH0 KECCAK256 SWAP1 JUMPDEST DUP2 SLOAD DUP2 MSTORE SWAP1 PUSH1 0x1 ADD SWAP1 PUSH1 0x20 ADD DUP1 DUP4 GT PUSH2 0x8EF JUMPI DUP3 SWAP1 SUB PUSH1 0x1F AND DUP3 ADD SWAP2 JUMPDEST POP POP POP POP POP DUP2 MSTORE PUSH1 0x20 ADD PUSH1 0x3 DUP3 ADD DUP1 SLOAD PUSH2 0x925 SWAP1 PUSH2 0x1F32 JUMP JUMPDEST DUP1 PUSH1 0x1F ADD PUSH1 0x20 DUP1 SWAP2 DIV MUL PUSH1 0x20 ADD PUSH1 0x40 MLOAD SWAP1 DUP2 ADD PUSH1 0x40 MSTORE DUP1 SWAP3 SWAP2 SWAP1 DUP2 DUP2 MSTORE PUSH1 0x20 ADD DUP3 DUP1 SLOAD PUSH2 0x951 SWAP1 PUSH2 0x1F32 JUMP JUMPDEST DUP1 ISZERO PUSH2 0x99C JUMPI DUP1 PUSH1 0x1F LT PUSH2 0x973 JUMPI PUSH2 0x100 DUP1 DUP4 SLOAD DIV MUL DUP4 MSTORE SWAP2 PUSH1 0x20 ADD SWAP2 PUSH2 0x99C JUMP JUMPDEST DUP3 ADD SWAP2 SWAP1 PUSH0 MSTORE PUSH1 0x20 PUSH0 KECCAK256 SWAP1 JUMPDEST DUP2 SLOAD DUP2 MSTORE SWAP1 PUSH1 0x1 ADD SWAP1 PUSH1 0x20 ADD DUP1 DUP4 GT PUSH2 0x97F JUMPI DUP3 SWAP1 SUB PUSH1 0x1F AND DUP3 ADD SWAP2 JUMPDEST POP POP POP POP POP DUP2 MSTORE PUSH1 0x20 ADD PUSH1 0x4 DUP3 ADD SLOAD DUP2 MSTORE PUSH1 0x20 ADD PUSH1 0x5 DUP3 ADD SLOAD DUP2 MSTORE PUSH1 0x20 ADD PUSH1 0x6 DUP3 ADD DUP1 SLOAD DUP1 PUSH1 0x20 MUL PUSH1 0x20 ADD PUSH1 0x40 MLOAD SWAP1 DUP2 ADD PUSH1 0x40 MSTORE DUP1 SWAP3 SWAP2 SWAP1 DUP2 DUP2 MSTORE PUSH1 0x20 ADD PUSH0 SWAP1 JUMPDEST DUP3 DUP3 LT ISZERO PUSH2 0x586 JUMPI DUP4 DUP3 SWAP1 PUSH0 MSTORE PUSH1 0x20 PUSH0 KECCAK256 ADD DUP1 SLOAD PUSH2 0x9FA SWAP1 PUSH2 0x1F32 JUMP JUMPDEST DUP1 PUSH1 0x1F ADD PUSH1 0x20 DUP1 SWAP2 DIV MUL PUSH1 0x20 ADD PUSH1 0x40 MLOAD SWAP1 DUP2 ADD PUSH1 0x40 MSTORE DUP1 SWAP3 SWAP2 SWAP1 DUP2 DUP2 MSTORE PUSH1 0x20 ADD DUP3 DUP1 SLOAD PUSH2 0xA26 SWAP1 PUSH2 0x1F32 JUMP JUMPDEST DUP1 ISZERO PUSH2 0xA71 JUMPI DUP1 PUSH1 0x1F LT PUSH2 0xA48 JUMPI PUSH2 0x100 DUP1 DUP4 SLOAD DIV MUL DUP4 MSTORE SWAP2 PUSH1 0x20 ADD SWAP2 PUSH2 0xA71 JUMP JUMPDEST DUP3 ADD SWAP2 SWAP1 PUSH0 MSTORE PUSH1 0x20 PUSH0 KECCAK256 SWAP1 JUMPDEST DUP2 SLOAD DUP2 MSTORE SWAP1 PUSH1 0x1 ADD SWAP1 PUSH1 0x20 ADD DUP1 DUP4 GT PUSH2 0xA54 JUMPI DUP3 SWAP1 SUB PUSH1 0x1F AND DUP3 ADD SWAP2 JUMPDEST POP POP POP POP POP DUP2 MSTORE PUSH1 0x20 ADD SWAP1 PUSH1 0x1 ADD SWAP1 PUSH2 0x9DD JUMP JUMPDEST PUSH1 0x3 DUP2 GT ISZERO PUSH2 0xA96 JUMPI PUSH2 0xA96 PUSH2 0x1CAA JUMP JUMPDEST SUB PUSH2 0xAB4 JUMPI PUSH1 0x40 MLOAD PUSH4 0x9B22DDEB PUSH1 0xE0 SHL DUP2 MSTORE PUSH1 0x4 ADD PUSH1 0x40 MLOAD DUP1 SWAP2 SUB SWAP1 REVERT JUMPDEST PUSH1 0x1 PUSH1 0x5 DUP3 ADD SSTORE PUSH1 0x40 MLOAD DUP3 SWAP1 CALLER SWAP1 PUSH32 0x563A96CEBB2DD00C04FE16AB3F34901E3749B13DA3040E6CAE0B5A55EA4DAEE2 SWAP1 PUSH0 SWAP1 LOG3 POP POP JUMP JUMPDEST PUSH2 0xAF3 PUSH2 0x197E JUMP JUMPDEST PUSH0 PUSH2 0xAFD DUP4 PUSH2 0x17F4 JUMP JUMPDEST PUSH1 0x40 DUP1 MLOAD PUSH2 0x140 DUP2 ADD SWAP1 SWAP2 MSTORE DUP2 SLOAD PUSH1 0x1 PUSH1 0x1 PUSH1 0xA0 SHL SUB AND DUP2 MSTORE PUSH1 0x2 DUP3 ADD DUP1 SLOAD SWAP3 SWAP4 POP SWAP1 SWAP2 PUSH1 0x20 DUP4 ADD SWAP2 SWAP1 PUSH2 0xB30 SWAP1 PUSH2 0x1F32 JUMP JUMPDEST DUP1 PUSH1 0x1F ADD PUSH1 0x20 DUP1 SWAP2 DIV MUL PUSH1 0x20 ADD PUSH1 0x40 MLOAD SWAP1 DUP2 ADD PUSH1 0x40 MSTORE DUP1 SWAP3 SWAP2 SWAP1 DUP2 DUP2 MSTORE PUSH1 0x20 ADD DUP3 DUP1 SLOAD PUSH2 0xB5C SWAP1 PUSH2 0x1F32 JUMP JUMPDEST DUP1 ISZERO PUSH2 0xBA7 JUMPI DUP1 PUSH1 0x1F LT PUSH2 0xB7E JUMPI PUSH2 0x100 DUP1 DUP4 SLOAD DIV MUL DUP4 MSTORE SWAP2 PUSH1 0x20 ADD SWAP2 PUSH2 0xBA7 JUMP JUMPDEST DUP3 ADD SWAP2 SWAP1 PUSH0 MSTORE PUSH1 0x20 PUSH0 KECCAK256 SWAP1 JUMPDEST DUP2 SLOAD DUP2 MSTORE SWAP1 PUSH1 0x1 ADD SWAP1 PUSH1 0x20 ADD DUP1 DUP4 GT PUSH2 0xB8A JUMPI DUP3 SWAP1 SUB PUSH1 0x1F AND DUP3 ADD SWAP2 JUMPDEST POP POP POP POP POP DUP2 MSTORE PUSH1 0x20 ADD DUP3 PUSH1 0x3 ADD DUP1 SLOAD PUSH2 0xBC0 SWAP1 PUSH2 0x1F32 JUMP JUMPDEST DUP1 PUSH1 0x1F ADD PUSH1 0x20 DUP1 SWAP2 DIV MUL PUSH1 0x20 ADD PUSH1 0x40 MLOAD SWAP1 DUP2 ADD PUSH1 0x40 MSTORE DUP1 SWAP3 SWAP2 SWAP1 DUP2 DUP2 MSTORE PUSH1 0x20 ADD DUP3 DUP1 SLOAD PUSH2 0xBEC SWAP1 PUSH2 0x1F32 JUMP JUMPDEST DUP1 ISZERO PUSH2 0xC37 JUMPI DUP1 PUSH1 0x1F LT PUSH2 0xC0E JUMPI PUSH2 0x100 DUP1 DUP4 SLOAD DIV MUL DUP4 MSTORE SWAP2 PUSH1 0x20 ADD SWAP2 PUSH2 0xC37 JUMP JUMPDEST DUP3 ADD SWAP2 SWAP1 PUSH0 MSTORE PUSH1 0x20 PUSH0 KECCAK256 SWAP1 JUMPDEST DUP2 SLOAD DUP2 MSTORE SWAP1 PUSH1 0x1 ADD SWAP1 PUSH1 0x20 ADD DUP1 DUP4 GT PUSH2 0xC1A JUMPI DUP3 SWAP1 SUB PUSH1 0x1F AND DUP3 ADD SWAP2 JUMPDEST POP POP POP POP POP DUP2 MSTORE PUSH1 0x20 ADD DUP3 PUSH1 0x4 ADD SLOAD DUP2 MSTORE PUSH1 0x20 ADD DUP3 PUSH1 0x5 ADD SLOAD DUP2 MSTORE PUSH1 0x20 ADD PUSH2 0xF19 DUP4 PUSH1 0x40 MLOAD DUP1 PUSH2 0x120 ADD PUSH1 0x40 MSTORE SWAP1 DUP2 PUSH0 DUP3 ADD PUSH0 SWAP1 SLOAD SWAP1 PUSH2 0x100 EXP SWAP1 DIV PUSH1 0x1 PUSH1 0x1 PUSH1 0xA0 SHL SUB AND PUSH1 0x1 PUSH1 0x1 PUSH1 0xA0 SHL SUB AND PUSH1 0x1 PUSH1 0x1 PUSH1 0xA0 SHL SUB AND DUP2 MSTORE PUSH1 0x20 ADD PUSH1 0x1 DUP3 ADD SLOAD DUP2 MSTORE PUSH1 0x20 ADD PUSH1 0x2 DUP3 ADD DUP1 SLOAD PUSH2 0xCAC SWAP1 PUSH2 0x1F32 JUMP JUMPDEST DUP1 PUSH1 0x1F ADD PUSH1 0x20 DUP1 SWAP2 DIV MUL PUSH1 0x20 ADD PUSH1 0x40 MLOAD SWAP1 DUP2 ADD PUSH1 0x40 MSTORE DUP1 SWAP3 SWAP2 SWAP1 DUP2 DUP2 MSTORE PUSH1 0x20 ADD DUP3 DUP1 SLOAD PUSH2 0xCD8 SWAP1 PUSH2 0x1F32 JUMP JUMPDEST DUP1 ISZERO PUSH2 0xD23 JUMPI DUP1 PUSH1 0x1F LT PUSH2 0xCFA JUMPI PUSH2 0x100 DUP1 DUP4 SLOAD DIV MUL DUP4 MSTORE SWAP2 PUSH1 0x20 ADD SWAP2 PUSH2 0xD23 JUMP JUMPDEST DUP3 ADD SWAP2 SWAP1 PUSH0 MSTORE PUSH1 0x20 PUSH0 KECCAK256 SWAP1 JUMPDEST DUP2 SLOAD DUP2 MSTORE SWAP1 PUSH1 0x1 ADD SWAP1 PUSH1 0x20 ADD DUP1 DUP4 GT PUSH2 0xD06 JUMPI DUP3 SWAP1 SUB PUSH1 0x1F AND DUP3 ADD SWAP2 JUMPDEST POP POP POP POP POP DUP2 MSTORE PUSH1 0x20 ADD PUSH1 0x3 DUP3 ADD DUP1 SLOAD PUSH2 0xD3C SWAP1 PUSH2 0x1F32 JUMP JUMPDEST DUP1 PUSH1 0x1F ADD PUSH1 0x20 DUP1 SWAP2 DIV MUL PUSH1 0x20 ADD PUSH1 0x40 MLOAD SWAP1 DUP2 ADD PUSH1 0x40 MSTORE DUP1 SWAP3 SWAP2 SWAP1 DUP2 DUP2 MSTORE PUSH1 0x20 ADD DUP3 DUP1 SLOAD PUSH2 0xD68 SWAP1 PUSH2 0x1F32 JUMP JUMPDEST DUP1 ISZERO PUSH2 0xDB3 JUMPI DUP1 PUSH1 0x1F LT PUSH2 0xD8A JUMPI PUSH2 0x100 DUP1 DUP4 SLOAD DIV MUL DUP4 MSTORE SWAP2 PUSH1 0x20 ADD SWAP2 PUSH2 0xDB3 JUMP JUMPDEST DUP3 ADD SWAP2 SWAP1 PUSH0 MSTORE PUSH1 0x20 PUSH0 KECCAK256 SWAP1 JUMPDEST DUP2 SLOAD DUP2 MSTORE SWAP1 PUSH1 0x1 ADD SWAP1 PUSH1 0x20 ADD DUP1 DUP4 GT PUSH2 0xD96 JUMPI DUP3 SWAP1 SUB PUSH1 0x1F AND DUP3 ADD SWAP2 JUMPDEST POP POP POP POP POP DUP2 MSTORE PUSH1 0x20 ADD PUSH1 0x4 DUP3 ADD SLOAD DUP2 MSTORE PUSH1 0x20 ADD PUSH1 0x5 DUP3 ADD SLOAD DUP2 MSTORE PUSH1 0x20 ADD PUSH1 0x6 DUP3 ADD DUP1 SLOAD DUP1 PUSH1 0x20 MUL PUSH1 0x20 ADD PUSH1 0x40 MLOAD SWAP1 DUP2 ADD PUSH1 0x40 MSTORE DUP1 SWAP3 SWAP2 SWAP1 DUP2 DUP2 MSTORE PUSH1 0x20 ADD PUSH0 SWAP1 JUMPDEST DUP3 DUP3 LT ISZERO PUSH2 0xE9C JUMPI DUP4 DUP3 SWAP1 PUSH0 MSTORE PUSH1 0x20 PUSH0 KECCAK256 ADD DUP1 SLOAD PUSH2 0xE11 SWAP1 PUSH2 0x1F32 JUMP JUMPDEST DUP1 PUSH1 0x1F ADD PUSH1 0x20 DUP1 SWAP2 DIV MUL PUSH1 0x20 ADD PUSH1 0x40 MLOAD SWAP1 DUP2 ADD PUSH1 0x40 MSTORE DUP1 SWAP3 SWAP2 SWAP1 DUP2 DUP2 MSTORE PUSH1 0x20 ADD DUP3 DUP1 SLOAD PUSH2 0xE3D SWAP1 PUSH2 0x1F32 JUMP JUMPDEST DUP1 ISZERO PUSH2 0xE88 JUMPI DUP1 PUSH1 0x1F LT PUSH2 0xE5F JUMPI PUSH2 0x100 DUP1 DUP4 SLOAD DIV MUL DUP4 MSTORE SWAP2 PUSH1 0x20 ADD SWAP2 PUSH2 0xE88 JUMP JUMPDEST DUP3 ADD SWAP2 SWAP1 PUSH0 MSTORE PUSH1 0x20 PUSH0 KECCAK256 SWAP1 JUMPDEST DUP2 SLOAD DUP2 MSTORE SWAP1 PUSH1 0x1 ADD SWAP1 PUSH1 0x20 ADD DUP1 DUP4 GT PUSH2 0xE6B JUMPI DUP3 SWAP1 SUB PUSH1 0x1F AND DUP3 ADD SWAP2 JUMPDEST POP POP POP POP POP DUP2 MSTORE PUSH1 0x20 ADD SWAP1 PUSH1 0x1 ADD SWAP1 PUSH2 0xDF4 JUMP JUMPDEST POP POP POP SWAP1 DUP3 MSTORE POP PUSH1 0x7 DUP3 ADD SLOAD PUSH1 0x20 DUP1 DUP4 ADD SWAP2 SWAP1 SWAP2 MSTORE PUSH1 0x40 DUP1 MLOAD PUSH1 0x60 DUP2 ADD DUP3 MSTORE PUSH1 0x8 DUP6 ADD DUP1 SLOAD PUSH1 0xFF DUP1 DUP3 AND ISZERO ISZERO DUP5 MSTORE PUSH2 0x100 DUP3 DIV DUP2 AND ISZERO ISZERO SWAP6 DUP5 ADD SWAP6 SWAP1 SWAP6 MSTORE SWAP5 DUP4 ADD SWAP5 SWAP2 SWAP4 SWAP1 SWAP3 DUP5 ADD SWAP2 PUSH3 0x10000 SWAP1 DIV AND PUSH1 0x3 DUP2 GT ISZERO PUSH2 0xEFD JUMPI PUSH2 0xEFD PUSH2 0x1CAA JUMP JUMPDEST PUSH1 0x3 DUP2 GT ISZERO PUSH2 0xF0E JUMPI PUSH2 0xF0E PUSH2 0x1CAA JUMP JUMPDEST SWAP1 MSTORE POP SWAP1 MSTORE POP PUSH2 0x1897 JUMP JUMPDEST DUP2 MSTORE PUSH1 0x7 DUP4 ADD SLOAD PUSH1 0x20 DUP1 DUP4 ADD SWAP2 SWAP1 SWAP2 MSTORE PUSH1 0x40 DUP1 MLOAD PUSH1 0x60 DUP2 ADD DUP3 MSTORE PUSH1 0x8 DUP7 ADD DUP1 SLOAD PUSH1 0xFF DUP1 DUP3 AND ISZERO ISZERO DUP5 MSTORE PUSH2 0x100 DUP3 DIV DUP2 AND ISZERO ISZERO SWAP6 DUP5 ADD SWAP6 SWAP1 SWAP6 MSTORE SWAP5 DUP4 ADD SWAP5 SWAP2 SWAP4 SWAP1 SWAP3 DUP5 ADD SWAP2 PUSH3 0x10000 SWAP1 DIV AND PUSH1 0x3 DUP2 GT ISZERO PUSH2 0xF75 JUMPI PUSH2 0xF75 PUSH2 0x1CAA JUMP JUMPDEST PUSH1 0x3 DUP2 GT ISZERO PUSH2 0xF86 JUMPI PUSH2 0xF86 PUSH2 0x1CAA JUMP JUMPDEST SWAP1 MSTORE POP DUP2 MSTORE PUSH0 DUP6 DUP2 MSTORE PUSH1 0x2 PUSH1 0x20 SWAP1 DUP2 MSTORE PUSH1 0x40 DUP1 DUP4 KECCAK256 CALLER DUP1 DUP6 MSTORE SWAP1 DUP4 MSTORE DUP2 DUP5 KECCAK256 SLOAD PUSH1 0xFF AND ISZERO ISZERO DUP4 DUP7 ADD MSTORE DUP9 DUP5 MSTORE PUSH1 0x5 DUP4 MSTORE DUP2 DUP5 KECCAK256 SWAP1 DUP5 MSTORE DUP3 MSTORE SWAP2 DUP3 SWAP1 KECCAK256 DUP1 SLOAD DUP4 MLOAD DUP2 DUP5 MUL DUP2 ADD DUP5 ADD DUP6 MSTORE DUP2 DUP2 MSTORE SWAP4 SWAP1 SWAP5 ADD SWAP4 SWAP1 SWAP2 DUP4 ADD DUP3 DUP3 DUP1 ISZERO PUSH2 0x1006 JUMPI PUSH1 0x20 MUL DUP3 ADD SWAP2 SWAP1 PUSH0 MSTORE PUSH1 0x20 PUSH0 KECCAK256 SWAP1 JUMPDEST DUP2 SLOAD DUP2 MSTORE PUSH1 0x20 ADD SWAP1 PUSH1 0x1 ADD SWAP1 DUP1 DUP4 GT PUSH2 0xFF2 JUMPI JUMPDEST POP POP POP POP POP DUP2 MSTORE POP SWAP2 POP POP SWAP2 SWAP1 POP JUMP JUMPDEST PUSH0 DUP2 DUP2 SLOAD DUP2 LT PUSH2 0x1024 JUMPI PUSH0 DUP1 REVERT JUMPDEST PUSH0 SWAP2 DUP3 MSTORE PUSH1 0x20 SWAP1 SWAP2 KECCAK256 PUSH1 0x9 SWAP1 SWAP2 MUL ADD DUP1 SLOAD PUSH1 0x1 DUP3 ADD SLOAD PUSH1 0x2 DUP4 ADD DUP1 SLOAD PUSH1 0x1 PUSH1 0x1 PUSH1 0xA0 SHL SUB SWAP1 SWAP4 AND SWAP5 POP SWAP1 SWAP3 SWAP2 PUSH2 0x1059 SWAP1 PUSH2 0x1F32 JUMP JUMPDEST DUP1 PUSH1 0x1F ADD PUSH1 0x20 DUP1 SWAP2 DIV MUL PUSH1 0x20 ADD PUSH1 0x40 MLOAD SWAP1 DUP2 ADD PUSH1 0x40 MSTORE DUP1 SWAP3 SWAP2 SWAP1 DUP2 DUP2 MSTORE PUSH1 0x20 ADD DUP3 DUP1 SLOAD PUSH2 0x1085 SWAP1 PUSH2 0x1F32 JUMP JUMPDEST DUP1 ISZERO PUSH2 0x10D0 JUMPI DUP1 PUSH1 0x1F LT PUSH2 0x10A7 JUMPI PUSH2 0x100 DUP1 DUP4 SLOAD DIV MUL DUP4 MSTORE SWAP2 PUSH1 0x20 ADD SWAP2 PUSH2 0x10D0 JUMP JUMPDEST DUP3 ADD SWAP2 SWAP1 PUSH0 MSTORE PUSH1 0x20 PUSH0 KECCAK256 SWAP1 JUMPDEST DUP2 SLOAD DUP2 MSTORE SWAP1 PUSH1 0x1 ADD SWAP1 PUSH1 0x20 ADD DUP1 DUP4 GT PUSH2 0x10B3 JUMPI DUP3 SWAP1 SUB PUSH1 0x1F AND DUP3 ADD SWAP2 JUMPDEST POP POP POP POP POP SWAP1 DUP1 PUSH1 0x3 ADD DUP1 SLOAD PUSH2 0x10E5 SWAP1 PUSH2 0x1F32 JUMP JUMPDEST DUP1 PUSH1 0x1F ADD PUSH1 0x20 DUP1 SWAP2 DIV MUL PUSH1 0x20 ADD PUSH1 0x40 MLOAD SWAP1 DUP2 ADD PUSH1 0x40 MSTORE DUP1 SWAP3 SWAP2 SWAP1 DUP2 DUP2 MSTORE PUSH1 0x20 ADD DUP3 DUP1 SLOAD PUSH2 0x1111 SWAP1 PUSH2 0x1F32 JUMP JUMPDEST DUP1 ISZERO PUSH2 0x115C JUMPI DUP1 PUSH1 0x1F LT PUSH2 0x1133 JUMPI PUSH2 0x100 DUP1 DUP4 SLOAD DIV MUL DUP4 MSTORE SWAP2 PUSH1 0x20 ADD SWAP2 PUSH2 0x115C JUMP JUMPDEST DUP3 ADD SWAP2 SWAP1 PUSH0 MSTORE PUSH1 0x20 PUSH0 KECCAK256 SWAP1 JUMPDEST DUP2 SLOAD DUP2 MSTORE SWAP1 PUSH1 0x1 ADD SWAP1 PUSH1 0x20 ADD DUP1 DUP4 GT PUSH2 0x113F JUMPI DUP3 SWAP1 SUB PUSH1 0x1F AND DUP3 ADD SWAP2 JUMPDEST POP POP POP PUSH1 0x4 DUP5 ADD SLOAD PUSH1 0x5 DUP6 ADD SLOAD PUSH1 0x7 DUP7 ADD SLOAD PUSH1 0x40 DUP1 MLOAD PUSH1 0x60 DUP2 ADD DUP3 MSTORE PUSH1 0x8 DUP10 ADD DUP1 SLOAD PUSH1 0xFF DUP1 DUP3 AND ISZERO ISZERO DUP5 MSTORE PUSH2 0x100 DUP3 DIV DUP2 AND ISZERO ISZERO PUSH1 0x20 DUP6 ADD MSTORE SWAP10 SWAP11 SWAP7 SWAP10 SWAP6 SWAP9 POP SWAP4 SWAP7 POP SWAP1 SWAP4 SWAP1 SWAP3 SWAP2 DUP5 ADD SWAP2 PUSH3 0x10000 SWAP1 DIV AND PUSH1 0x3 DUP2 GT ISZERO PUSH2 0x11BF JUMPI PUSH2 0x11BF PUSH2 0x1CAA JUMP JUMPDEST PUSH1 0x3 DUP2 GT ISZERO PUSH2 0x11D0 JUMPI PUSH2 0x11D0 PUSH2 0x1CAA JUMP JUMPDEST SWAP1 MSTORE POP SWAP1 POP DUP9 JUMP JUMPDEST CALLER PUSH0 SWAP1 DUP2 MSTORE PUSH1 0x1 PUSH1 0x20 MSTORE PUSH1 0x40 DUP2 KECCAK256 DUP1 SLOAD PUSH1 0x60 SWAP3 DUP2 PUSH8 0xFFFFFFFFFFFFFFFF DUP2 GT ISZERO PUSH2 0x1204 JUMPI PUSH2 0x1204 PUSH2 0x1F1E JUMP JUMPDEST PUSH1 0x40 MLOAD SWAP1 DUP1 DUP3 MSTORE DUP1 PUSH1 0x20 MUL PUSH1 0x20 ADD DUP3 ADD PUSH1 0x40 MSTORE DUP1 ISZERO PUSH2 0x123D JUMPI DUP2 PUSH1 0x20 ADD JUMPDEST PUSH2 0x122A PUSH2 0x19F3 JUMP JUMPDEST DUP2 MSTORE PUSH1 0x20 ADD SWAP1 PUSH1 0x1 SWAP1 SUB SWAP1 DUP2 PUSH2 0x1222 JUMPI SWAP1 POP JUMPDEST POP SWAP1 POP PUSH0 JUMPDEST DUP3 DUP2 LT ISZERO PUSH2 0x15DA JUMPI PUSH0 DUP5 DUP3 DUP2 SLOAD DUP2 LT PUSH2 0x125D JUMPI PUSH2 0x125D PUSH2 0x209E JUMP JUMPDEST SWAP1 PUSH0 MSTORE PUSH1 0x20 PUSH0 KECCAK256 ADD SLOAD SWAP1 POP PUSH0 DUP1 DUP3 DUP2 SLOAD DUP2 LT PUSH2 0x127B JUMPI PUSH2 0x127B PUSH2 0x209E JUMP JUMPDEST SWAP1 PUSH0 MSTORE PUSH1 0x20 PUSH0 KECCAK256 SWAP1 PUSH1 0x9 MUL ADD SWAP1 POP PUSH1 0x40 MLOAD DUP1 PUSH1 0xA0 ADD PUSH1 0x40 MSTORE DUP1 DUP3 PUSH0 ADD PUSH0 SWAP1 SLOAD SWAP1 PUSH2 0x100 EXP SWAP1 DIV PUSH1 0x1 PUSH1 0x1 PUSH1 0xA0 SHL SUB AND PUSH1 0x1 PUSH1 0x1 PUSH1 0xA0 SHL SUB AND DUP2 MSTORE PUSH1 0x20 ADD DUP4 DUP2 MSTORE PUSH1 0x20 ADD DUP3 PUSH1 0x2 ADD DUP1 SLOAD PUSH2 0x12CD SWAP1 PUSH2 0x1F32 JUMP JUMPDEST DUP1 PUSH1 0x1F ADD PUSH1 0x20 DUP1 SWAP2 DIV MUL PUSH1 0x20 ADD PUSH1 0x40 MLOAD SWAP1 DUP2 ADD PUSH1 0x40 MSTORE DUP1 SWAP3 SWAP2 SWAP1 DUP2 DUP2 MSTORE PUSH1 0x20 ADD DUP3 DUP1 SLOAD PUSH2 0x12F9 SWAP1 PUSH2 0x1F32 JUMP JUMPDEST DUP1 ISZERO PUSH2 0x1344 JUMPI DUP1 PUSH1 0x1F LT PUSH2 0x131B JUMPI PUSH2 0x100 DUP1 DUP4 SLOAD DIV MUL DUP4 MSTORE SWAP2 PUSH1 0x20 ADD SWAP2 PUSH2 0x1344 JUMP JUMPDEST DUP3 ADD SWAP2 SWAP1 PUSH0 MSTORE PUSH1 0x20 PUSH0 KECCAK256 SWAP1 JUMPDEST DUP2 SLOAD DUP2 MSTORE SWAP1 PUSH1 0x1 ADD SWAP1 PUSH1 0x20 ADD DUP1 DUP4 GT PUSH2 0x1327 JUMPI DUP3 SWAP1 SUB PUSH1 0x1F AND DUP3 ADD SWAP2 JUMPDEST POP POP POP POP POP DUP2 MSTORE PUSH1 0x20 ADD DUP3 PUSH1 0x7 ADD SLOAD DUP2 MSTORE PUSH1 0x20 ADD PUSH2 0x159F DUP4 PUSH1 0x40 MLOAD DUP1 PUSH2 0x120 ADD PUSH1 0x40 MSTORE SWAP1 DUP2 PUSH0 DUP3 ADD PUSH0 SWAP1 SLOAD SWAP1 PUSH2 0x100 EXP SWAP1 DIV PUSH1 0x1 PUSH1 0x1 PUSH1 0xA0 SHL SUB AND PUSH1 0x1 PUSH1 0x1 PUSH1 0xA0 SHL SUB AND PUSH1 0x1 PUSH1 0x1 PUSH1 0xA0 SHL SUB AND DUP2 MSTORE PUSH1 0x20 ADD PUSH1 0x1 DUP3 ADD SLOAD DUP2 MSTORE PUSH1 0x20 ADD PUSH1 0x2 DUP3 ADD DUP1 SLOAD PUSH2 0x13AF SWAP1 PUSH2 0x1F32 JUMP JUMPDEST DUP1 PUSH1 0x1F ADD PUSH1 0x20 DUP1 SWAP2 DIV MUL PUSH1 0x20 ADD PUSH1 0x40 MLOAD SWAP1 DUP2 ADD PUSH1 0x40 MSTORE DUP1 SWAP3 SWAP2 SWAP1 DUP2 DUP2 MSTORE PUSH1 0x20 ADD DUP3 DUP1 SLOAD PUSH2 0x13DB SWAP1 PUSH2 0x1F32 JUMP JUMPDEST DUP1 ISZERO PUSH2 0x1426 JUMPI DUP1 PUSH1 0x1F LT PUSH2 0x13FD JUMPI PUSH2 0x100 DUP1 DUP4 SLOAD DIV MUL DUP4 MSTORE SWAP2 PUSH1 0x20 ADD SWAP2 PUSH2 0x1426 JUMP JUMPDEST DUP3 ADD SWAP2 SWAP1 PUSH0 MSTORE PUSH1 0x20 PUSH0 KECCAK256 SWAP1 JUMPDEST DUP2 SLOAD DUP2 MSTORE SWAP1 PUSH1 0x1 ADD SWAP1 PUSH1 0x20 ADD DUP1 DUP4 GT PUSH2 0x1409 JUMPI DUP3 SWAP1 SUB PUSH1 0x1F AND DUP3 ADD SWAP2 JUMPDEST POP POP POP POP POP DUP2 MSTORE PUSH1 0x20 ADD PUSH1 0x3 DUP3 ADD DUP1 SLOAD PUSH2 0x143F SWAP1 PUSH2 0x1F32 JUMP JUMPDEST DUP1 PUSH1 0x1F ADD PUSH1 0x20 DUP1 SWAP2 DIV MUL PUSH1 0x20 ADD PUSH1 0x40 MLOAD SWAP1 DUP2 ADD PUSH1 0x40 MSTORE DUP1 SWAP3 SWAP2 SWAP1 DUP2 DUP2 MSTORE PUSH1 0x20 ADD DUP3 DUP1 SLOAD PUSH2 0x146B SWAP1 PUSH2 0x1F32 JUMP JUMPDEST DUP1 ISZERO PUSH2 0x14B6 JUMPI DUP1 PUSH1 0x1F LT PUSH2 0x148D JUMPI PUSH2 0x100 DUP1 DUP4 SLOAD DIV MUL DUP4 MSTORE SWAP2 PUSH1 0x20 ADD SWAP2 PUSH2 0x14B6 JUMP JUMPDEST DUP3 ADD SWAP2 SWAP1 PUSH0 MSTORE PUSH1 0x20 PUSH0 KECCAK256 SWAP1 JUMPDEST DUP2 SLOAD DUP2 MSTORE SWAP1 PUSH1 0x1 ADD SWAP1 PUSH1 0x20 ADD DUP1 DUP4 GT PUSH2 0x1499 JUMPI DUP3 SWAP1 SUB PUSH1 0x1F AND DUP3 ADD SWAP2 JUMPDEST POP POP POP POP POP DUP2 MSTORE PUSH1 0x20 ADD PUSH1 0x4 DUP3 ADD SLOAD DUP2 MSTORE PUSH1 0x20 ADD PUSH1 0x5 DUP3 ADD SLOAD DUP2 MSTORE PUSH1 0x20 ADD PUSH1 0x6 DUP3 ADD DUP1 SLOAD DUP1 PUSH1 0x20 MUL PUSH1 0x20 ADD PUSH1 0x40 MLOAD SWAP1 DUP2 ADD PUSH1 0x40 MSTORE DUP1 SWAP3 SWAP2 SWAP1 DUP2 DUP2 MSTORE PUSH1 0x20 ADD PUSH0 SWAP1 JUMPDEST DUP3 DUP3 LT ISZERO PUSH2 0x586 JUMPI DUP4 DUP3 SWAP1 PUSH0 MSTORE PUSH1 0x20 PUSH0 KECCAK256 ADD DUP1 SLOAD PUSH2 0x1514 SWAP1 PUSH2 0x1F32 JUMP JUMPDEST DUP1 PUSH1 0x1F ADD PUSH1 0x20 DUP1 SWAP2 DIV MUL PUSH1 0x20 ADD PUSH1 0x40 MLOAD SWAP1 DUP2 ADD PUSH1 0x40 MSTORE DUP1 SWAP3 SWAP2 SWAP1 DUP2 DUP2 MSTORE PUSH1 0x20 ADD DUP3 DUP1 SLOAD PUSH2 0x1540 SWAP1 PUSH2 0x1F32 JUMP JUMPDEST DUP1 ISZERO PUSH2 0x158B JUMPI DUP1 PUSH1 0x1F LT PUSH2 0x1562 JUMPI PUSH2 0x100 DUP1 DUP4 SLOAD DIV MUL DUP4 MSTORE SWAP2 PUSH1 0x20 ADD SWAP2 PUSH2 0x158B JUMP JUMPDEST DUP3 ADD SWAP2 SWAP1 PUSH0 MSTORE PUSH1 0x20 PUSH0 KECCAK256 SWAP1 JUMPDEST DUP2 SLOAD DUP2 MSTORE SWAP1 PUSH1 0x1 ADD SWAP1 PUSH1 0x20 ADD DUP1 DUP4 GT PUSH2 0x156E JUMPI DUP3 SWAP1 SUB PUSH1 0x1F AND DUP3 ADD SWAP2 JUMPDEST POP POP POP POP POP DUP2 MSTORE PUSH1 0x20 ADD SWAP1 PUSH1 0x1 ADD SWAP1 PUSH2 0x14F7 JUMP JUMPDEST PUSH1 0x3 DUP2 GT ISZERO PUSH2 0x15B0 JUMPI PUSH2 0x15B0 PUSH2 0x1CAA JUMP JUMPDEST DUP2 MSTORE POP DUP5 DUP5 DUP2 MLOAD DUP2 LT PUSH2 0x15C5 JUMPI PUSH2 0x15C5 PUSH2 0x209E JUMP JUMPDEST PUSH1 0x20 SWAP1 DUP2 MUL SWAP2 SWAP1 SWAP2 ADD ADD MSTORE POP POP PUSH1 0x1 ADD PUSH2 0x1242 JUMP JUMPDEST POP SWAP4 SWAP3 POP POP POP JUMP JUMPDEST DUP1 PUSH1 0x3 DUP2 LT ISZERO PUSH2 0x1605 JUMPI PUSH1 0x40 MLOAD PUSH4 0x24ACE355 PUSH1 0xE0 SHL DUP2 MSTORE PUSH1 0x4 ADD PUSH1 0x40 MLOAD DUP1 SWAP2 SUB SWAP1 REVERT JUMPDEST PUSH1 0x64 DUP2 GT ISZERO PUSH2 0x1627 JUMPI PUSH1 0x40 MLOAD PUSH4 0x2B5DF40F PUSH1 0xE2 SHL DUP2 MSTORE PUSH1 0x4 ADD PUSH1 0x40 MLOAD DUP1 SWAP2 SUB SWAP1 REVERT JUMPDEST POP POP POP JUMP JUMPDEST DUP1 DUP1 ISZERO DUP1 ISZERO SWAP1 PUSH2 0x163C JUMPI POP PUSH1 0xA DUP2 LT JUMPDEST ISZERO PUSH2 0x165A JUMPI PUSH1 0x40 MLOAD PUSH4 0x1B0BF735 PUSH1 0xE2 SHL DUP2 MSTORE PUSH1 0x4 ADD PUSH1 0x40 MLOAD DUP1 SWAP2 SUB SWAP1 REVERT JUMPDEST PUSH2 0x3E8 DUP2 GT ISZERO PUSH2 0x1627 JUMPI PUSH1 0x40 MLOAD PUSH4 0x1B0FCE83 PUSH1 0xE0 SHL DUP2 MSTORE PUSH1 0x4 ADD PUSH1 0x40 MLOAD DUP1 SWAP2 SUB SWAP1 REVERT JUMPDEST TIMESTAMP DUP3 LT ISZERO PUSH2 0x169E JUMPI PUSH1 0x40 MLOAD PUSH4 0x3EB2D8C5 PUSH1 0xE0 SHL DUP2 MSTORE PUSH1 0x4 ADD PUSH1 0x40 MLOAD DUP1 SWAP2 SUB SWAP1 REVERT JUMPDEST DUP2 DUP2 GT PUSH2 0x16BE JUMPI PUSH1 0x40 MLOAD PUSH4 0x71F32861 PUSH1 0xE1 SHL DUP2 MSTORE PUSH1 0x4 ADD PUSH1 0x40 MLOAD DUP1 SWAP2 SUB SWAP1 REVERT JUMPDEST POP POP JUMP JUMPDEST DUP1 PUSH1 0x2 DUP2 LT ISZERO PUSH2 0x16E5 JUMPI PUSH1 0x40 MLOAD PUSH4 0x8EE5F57D PUSH1 0xE0 SHL DUP2 MSTORE PUSH1 0x4 ADD PUSH1 0x40 MLOAD DUP1 SWAP2 SUB SWAP1 REVERT JUMPDEST PUSH1 0xA DUP2 GT ISZERO PUSH2 0x1707 JUMPI PUSH1 0x40 MLOAD PUSH4 0x701D39F1 PUSH1 0xE1 SHL DUP2 MSTORE PUSH1 0x4 ADD PUSH1 0x40 MLOAD DUP1 SWAP2 SUB SWAP1 REVERT JUMPDEST PUSH0 JUMPDEST DUP2 DUP2 LT ISZERO PUSH2 0x1791 JUMPI PUSH0 DUP5 DUP5 DUP4 DUP2 DUP2 LT PUSH2 0x1724 JUMPI PUSH2 0x1724 PUSH2 0x209E JUMP JUMPDEST SWAP1 POP PUSH1 0x20 MUL DUP2 ADD SWAP1 PUSH2 0x1736 SWAP2 SWAP1 PUSH2 0x20B2 JUMP JUMPDEST SWAP2 POP POP PUSH1 0x1 DUP2 LT ISZERO PUSH2 0x1763 JUMPI PUSH1 0x40 MLOAD PUSH4 0x23BAE5C5 PUSH1 0xE1 SHL DUP2 MSTORE PUSH1 0x4 DUP2 ADD DUP4 SWAP1 MSTORE PUSH1 0x24 ADD JUMPDEST PUSH1 0x40 MLOAD DUP1 SWAP2 SUB SWAP1 REVERT JUMPDEST PUSH1 0x64 DUP2 GT ISZERO PUSH2 0x1788 JUMPI PUSH1 0x40 MLOAD PUSH4 0x1E8A1825 PUSH1 0xE2 SHL DUP2 MSTORE PUSH1 0x4 DUP2 ADD DUP4 SWAP1 MSTORE PUSH1 0x24 ADD PUSH2 0x175A JUMP JUMPDEST POP PUSH1 0x1 ADD PUSH2 0x1709 JUMP JUMPDEST POP POP POP POP JUMP JUMPDEST PUSH2 0x17A7 PUSH1 0x40 DUP3 ADD PUSH1 0x20 DUP4 ADD PUSH2 0x207C JUMP JUMPDEST DUP1 ISZERO PUSH2 0x17D3 JUMPI POP PUSH1 0x2 PUSH2 0x17C0 PUSH1 0x60 DUP4 ADD PUSH1 0x40 DUP5 ADD PUSH2 0x21F3 JUMP JUMPDEST PUSH1 0x3 DUP2 GT ISZERO PUSH2 0x17D1 JUMPI PUSH2 0x17D1 PUSH2 0x1CAA JUMP JUMPDEST EQ JUMPDEST ISZERO PUSH2 0x17F1 JUMPI PUSH1 0x40 MLOAD PUSH4 0xDC2CA701 PUSH1 0xE0 SHL DUP2 MSTORE PUSH1 0x4 ADD PUSH1 0x40 MLOAD DUP1 SWAP2 SUB SWAP1 REVERT JUMPDEST POP JUMP JUMPDEST PUSH0 DUP1 SLOAD DUP3 LT PUSH2 0x1819 JUMPI PUSH1 0x40 MLOAD PUSH4 0x2708A4D PUSH1 0xE2 SHL DUP2 MSTORE PUSH1 0x4 DUP2 ADD DUP4 SWAP1 MSTORE PUSH1 0x24 ADD PUSH2 0x175A JUMP JUMPDEST PUSH0 DUP1 DUP4 DUP2 SLOAD DUP2 LT PUSH2 0x182C JUMPI PUSH2 0x182C PUSH2 0x209E JUMP JUMPDEST PUSH0 SWAP2 DUP3 MSTORE PUSH1 0x20 SWAP1 SWAP2 KECCAK256 PUSH1 0x9 SWAP1 SWAP2 MUL ADD SWAP4 SWAP3 POP POP POP JUMP JUMPDEST PUSH0 TIMESTAMP DUP3 PUSH1 0x80 ADD MLOAD GT ISZERO PUSH2 0x1856 JUMPI POP PUSH0 SWAP2 SWAP1 POP JUMP JUMPDEST DUP2 PUSH1 0xA0 ADD MLOAD PUSH1 0x1 SUB PUSH2 0x186A JUMPI POP PUSH1 0x3 SWAP2 SWAP1 POP JUMP JUMPDEST PUSH1 0x1 DUP3 PUSH1 0xA0 ADD MLOAD GT DUP1 ISZERO PUSH2 0x1882 JUMPI POP TIMESTAMP DUP3 PUSH1 0xA0 ADD MLOAD GT ISZERO JUMPDEST ISZERO PUSH2 0x188F JUMPI POP PUSH1 0x2 SWAP2 SWAP1 POP JUMP JUMPDEST POP PUSH1 0x1 SWAP2 SWAP1 POP JUMP JUMPDEST PUSH1 0xC0 DUP2 ADD MLOAD MLOAD PUSH1 0x60 SWAP1 PUSH0 DUP2 PUSH8 0xFFFFFFFFFFFFFFFF DUP2 GT ISZERO PUSH2 0x18BA JUMPI PUSH2 0x18BA PUSH2 0x1F1E JUMP JUMPDEST PUSH1 0x40 MLOAD SWAP1 DUP1 DUP3 MSTORE DUP1 PUSH1 0x20 MUL PUSH1 0x20 ADD DUP3 ADD PUSH1 0x40 MSTORE DUP1 ISZERO PUSH2 0x18FF JUMPI DUP2 PUSH1 0x20 ADD JUMPDEST PUSH1 0x40 DUP1 MLOAD DUP1 DUP3 ADD SWAP1 SWAP2 MSTORE PUSH1 0x60 DUP2 MSTORE PUSH0 PUSH1 0x20 DUP3 ADD MSTORE DUP2 MSTORE PUSH1 0x20 ADD SWAP1 PUSH1 0x1 SWAP1 SUB SWAP1 DUP2 PUSH2 0x18D8 JUMPI SWAP1 POP JUMPDEST POP SWAP1 POP PUSH0 JUMPDEST DUP3 DUP2 LT ISZERO PUSH2 0x15DA JUMPI PUSH1 0x40 MLOAD DUP1 PUSH1 0x40 ADD PUSH1 0x40 MSTORE DUP1 DUP7 PUSH1 0xC0 ADD MLOAD DUP4 DUP2 MLOAD DUP2 LT PUSH2 0x192D JUMPI PUSH2 0x192D PUSH2 0x209E JUMP JUMPDEST PUSH1 0x20 SWAP1 DUP2 MUL SWAP2 SWAP1 SWAP2 ADD DUP2 ADD MLOAD DUP3 MSTORE DUP8 DUP2 ADD MLOAD PUSH0 SWAP1 DUP2 MSTORE PUSH1 0x4 DUP3 MSTORE PUSH1 0x40 DUP1 DUP3 KECCAK256 DUP7 DUP4 MSTORE DUP4 MSTORE SWAP1 KECCAK256 SLOAD SWAP2 ADD MSTORE DUP3 MLOAD DUP4 SWAP1 DUP4 SWAP1 DUP2 LT PUSH2 0x196B JUMPI PUSH2 0x196B PUSH2 0x209E JUMP JUMPDEST PUSH1 0x20 SWAP1 DUP2 MUL SWAP2 SWAP1 SWAP2 ADD ADD MSTORE PUSH1 0x1 ADD PUSH2 0x1904 JUMP JUMPDEST PUSH1 0x40 MLOAD DUP1 PUSH2 0x140 ADD PUSH1 0x40 MSTORE DUP1 PUSH0 PUSH1 0x1 PUSH1 0x1 PUSH1 0xA0 SHL SUB AND DUP2 MSTORE PUSH1 0x20 ADD PUSH1 0x60 DUP2 MSTORE PUSH1 0x20 ADD PUSH1 0x60 DUP2 MSTORE PUSH1 0x20 ADD PUSH0 DUP2 MSTORE PUSH1 0x20 ADD PUSH0 DUP2 MSTORE PUSH1 0x20 ADD PUSH1 0x60 DUP2 MSTORE PUSH1 0x20 ADD PUSH0 DUP2 MSTORE PUSH1 0x20 ADD PUSH2 0x19E0 PUSH1 0x40 DUP1 MLOAD PUSH1 0x60 DUP2 ADD DUP3 MSTORE PUSH0 DUP1 DUP3 MSTORE PUSH1 0x20 DUP3 ADD DUP2 SWAP1 MSTORE SWAP1 SWAP2 DUP3 ADD MSTORE SWAP1 JUMP JUMPDEST DUP2 MSTORE PUSH0 PUSH1 0x20 DUP3 ADD MSTORE PUSH1 0x60 PUSH1 0x40 SWAP1 SWAP2 ADD MSTORE SWAP1 JUMP JUMPDEST PUSH1 0x40 MLOAD DUP1 PUSH1 0xA0 ADD PUSH1 0x40 MSTORE DUP1 PUSH0 PUSH1 0x1 PUSH1 0x1 PUSH1 0xA0 SHL SUB AND DUP2 MSTORE PUSH1 0x20 ADD PUSH0 DUP2 MSTORE PUSH1 0x20 ADD PUSH1 0x60 DUP2 MSTORE PUSH1 0x20 ADD PUSH0 DUP2 MSTORE PUSH1 0x20 ADD PUSH0 PUSH1 0x3 DUP2 GT ISZERO PUSH2 0x1A32 JUMPI PUSH2 0x1A32 PUSH2 0x1CAA JUMP JUMPDEST SWAP1 MSTORE SWAP1 JUMP JUMPDEST PUSH0 DUP1 PUSH1 0x40 DUP4 DUP6 SUB SLT ISZERO PUSH2 0x1A48 JUMPI PUSH0 DUP1 REVERT JUMPDEST DUP3 CALLDATALOAD PUSH1 0x1 PUSH1 0x1 PUSH1 0xA0 SHL SUB DUP2 AND DUP2 EQ PUSH2 0x1A5E JUMPI PUSH0 DUP1 REVERT JUMPDEST SWAP5 PUSH1 0x20 SWAP4 SWAP1 SWAP4 ADD CALLDATALOAD SWAP4 POP POP POP JUMP JUMPDEST PUSH0 DUP1 DUP4 PUSH1 0x1F DUP5 ADD SLT PUSH2 0x1A7C JUMPI PUSH0 DUP1 REVERT JUMPDEST POP DUP2 CALLDATALOAD PUSH8 0xFFFFFFFFFFFFFFFF DUP2 GT ISZERO PUSH2 0x1A93 JUMPI PUSH0 DUP1 REVERT JUMPDEST PUSH1 0x20 DUP4 ADD SWAP2 POP DUP4 PUSH1 0x20 DUP3 DUP6 ADD ADD GT ISZERO PUSH2 0x1AAA JUMPI PUSH0 DUP1 REVERT JUMPDEST SWAP3 POP SWAP3 SWAP1 POP JUMP JUMPDEST PUSH0 DUP1 DUP4 PUSH1 0x1F DUP5 ADD SLT PUSH2 0x1AC1 JUMPI PUSH0 DUP1 REVERT JUMPDEST POP DUP2 CALLDATALOAD PUSH8 0xFFFFFFFFFFFFFFFF DUP2 GT ISZERO PUSH2 0x1AD8 JUMPI PUSH0 DUP1 REVERT JUMPDEST PUSH1 0x20 DUP4 ADD SWAP2 POP DUP4 PUSH1 0x20 DUP3 PUSH1 0x5 SHL DUP6 ADD ADD GT ISZERO PUSH2 0x1AAA JUMPI PUSH0 DUP1 REVERT JUMPDEST PUSH0 DUP1 PUSH0 DUP1 PUSH0 DUP1 PUSH0 DUP1 PUSH0 DUP10 DUP12 SUB PUSH2 0x100 DUP2 SLT ISZERO PUSH2 0x1B0C JUMPI PUSH0 DUP1 REVERT JUMPDEST DUP11 CALLDATALOAD PUSH8 0xFFFFFFFFFFFFFFFF DUP1 DUP3 GT ISZERO PUSH2 0x1B23 JUMPI PUSH0 DUP1 REVERT JUMPDEST PUSH2 0x1B2F DUP15 DUP4 DUP16 ADD PUSH2 0x1A6C JUMP JUMPDEST SWAP1 SWAP13 POP SWAP11 POP PUSH1 0x20 DUP14 ADD CALLDATALOAD SWAP2 POP DUP1 DUP3 GT ISZERO PUSH2 0x1B47 JUMPI PUSH0 DUP1 REVERT JUMPDEST PUSH2 0x1B53 DUP15 DUP4 DUP16 ADD PUSH2 0x1A6C JUMP JUMPDEST SWAP1 SWAP11 POP SWAP9 POP PUSH1 0x40 DUP14 ADD CALLDATALOAD SWAP8 POP PUSH1 0x60 DUP14 ADD CALLDATALOAD SWAP7 POP PUSH1 0x80 DUP14 ADD CALLDATALOAD SWAP2 POP DUP1 DUP3 GT ISZERO PUSH2 0x1B79 JUMPI PUSH0 DUP1 REVERT JUMPDEST POP PUSH2 0x1B86 DUP14 DUP3 DUP15 ADD PUSH2 0x1AB1 JUMP JUMPDEST SWAP1 SWAP6 POP SWAP4 POP POP PUSH1 0x60 PUSH1 0x9F NOT DUP3 ADD SLT ISZERO PUSH2 0x1B9D JUMPI PUSH0 DUP1 REVERT JUMPDEST POP PUSH1 0xA0 DUP11 ADD SWAP1 POP SWAP3 SWAP6 SWAP9 POP SWAP3 SWAP6 SWAP9 POP SWAP3 SWAP6 SWAP9 JUMP JUMPDEST PUSH0 DUP1 PUSH0 PUSH1 0x40 DUP5 DUP7 SUB SLT ISZERO PUSH2 0x1BC3 JUMPI PUSH0 DUP1 REVERT JUMPDEST DUP4 CALLDATALOAD SWAP3 POP PUSH1 0x20 DUP5 ADD CALLDATALOAD PUSH8 0xFFFFFFFFFFFFFFFF DUP2 GT ISZERO PUSH2 0x1BE0 JUMPI PUSH0 DUP1 REVERT JUMPDEST PUSH2 0x1BEC DUP7 DUP3 DUP8 ADD PUSH2 0x1AB1 JUMP JUMPDEST SWAP5 SWAP8 SWAP1 SWAP7 POP SWAP4 SWAP5 POP POP POP POP JUMP JUMPDEST PUSH0 PUSH1 0x20 DUP3 DUP5 SUB SLT ISZERO PUSH2 0x1C09 JUMPI PUSH0 DUP1 REVERT JUMPDEST POP CALLDATALOAD SWAP2 SWAP1 POP JUMP JUMPDEST PUSH0 DUP2 MLOAD DUP1 DUP5 MSTORE DUP1 PUSH1 0x20 DUP5 ADD PUSH1 0x20 DUP7 ADD MCOPY PUSH0 PUSH1 0x20 DUP3 DUP7 ADD ADD MSTORE PUSH1 0x20 PUSH1 0x1F NOT PUSH1 0x1F DUP4 ADD AND DUP6 ADD ADD SWAP2 POP POP SWAP3 SWAP2 POP POP JUMP JUMPDEST PUSH0 DUP3 DUP3 MLOAD DUP1 DUP6 MSTORE PUSH1 0x20 DUP1 DUP7 ADD SWAP6 POP DUP1 DUP3 PUSH1 0x5 SHL DUP5 ADD ADD DUP2 DUP7 ADD PUSH0 JUMPDEST DUP5 DUP2 LT ISZERO PUSH2 0x1C9D JUMPI PUSH1 0x1F NOT DUP7 DUP5 SUB ADD DUP10 MSTORE DUP2 MLOAD PUSH1 0x40 DUP2 MLOAD DUP2 DUP7 MSTORE PUSH2 0x1C7F DUP3 DUP8 ADD DUP3 PUSH2 0x1C10 JUMP JUMPDEST SWAP3 DUP8 ADD MLOAD SWAP6 DUP8 ADD SWAP6 SWAP1 SWAP6 MSTORE POP SWAP9 DUP5 ADD SWAP9 SWAP3 POP SWAP1 DUP4 ADD SWAP1 PUSH1 0x1 ADD PUSH2 0x1C59 JUMP JUMPDEST POP SWAP1 SWAP8 SWAP7 POP POP POP POP POP POP POP JUMP JUMPDEST PUSH4 0x4E487B71 PUSH1 0xE0 SHL PUSH0 MSTORE PUSH1 0x21 PUSH1 0x4 MSTORE PUSH1 0x24 PUSH0 REVERT JUMPDEST PUSH1 0x4 DUP2 LT PUSH2 0x17F1 JUMPI PUSH4 0x4E487B71 PUSH1 0xE0 SHL PUSH0 MSTORE PUSH1 0x21 PUSH1 0x4 MSTORE PUSH1 0x24 PUSH0 REVERT JUMPDEST DUP1 MLOAD ISZERO ISZERO DUP3 MSTORE PUSH1 0x20 DUP2 ADD MLOAD ISZERO ISZERO PUSH1 0x20 DUP4 ADD MSTORE PUSH1 0x40 DUP2 ADD MLOAD PUSH2 0x1CFA DUP2 PUSH2 0x1CBE JUMP JUMPDEST DUP1 PUSH1 0x40 DUP5 ADD MSTORE POP POP POP JUMP JUMPDEST PUSH0 DUP2 MLOAD DUP1 DUP5 MSTORE PUSH1 0x20 DUP1 DUP6 ADD SWAP5 POP PUSH1 0x20 DUP5 ADD PUSH0 JUMPDEST DUP4 DUP2 LT ISZERO PUSH2 0x1D34 JUMPI DUP2 MLOAD DUP8 MSTORE SWAP6 DUP3 ADD SWAP6 SWAP1 DUP3 ADD SWAP1 PUSH1 0x1 ADD PUSH2 0x1D18 JUMP JUMPDEST POP SWAP5 SWAP6 SWAP5 POP POP POP POP POP JUMP JUMPDEST PUSH1 0x20 DUP2 MSTORE PUSH2 0x1D59 PUSH1 0x20 DUP3 ADD DUP4 MLOAD PUSH1 0x1 PUSH1 0x1 PUSH1 0xA0 SHL SUB AND SWAP1 MSTORE JUMP JUMPDEST PUSH0 PUSH1 0x20 DUP4 ADD MLOAD PUSH2 0x180 DUP1 PUSH1 0x40 DUP6 ADD MSTORE PUSH2 0x1D76 PUSH2 0x1A0 DUP6 ADD DUP4 PUSH2 0x1C10 JUMP JUMPDEST SWAP2 POP PUSH1 0x40 DUP6 ADD MLOAD PUSH1 0x1F NOT DUP1 DUP7 DUP6 SUB ADD PUSH1 0x60 DUP8 ADD MSTORE PUSH2 0x1D94 DUP5 DUP4 PUSH2 0x1C10 JUMP JUMPDEST SWAP4 POP PUSH1 0x60 DUP8 ADD MLOAD PUSH1 0x80 DUP8 ADD MSTORE PUSH1 0x80 DUP8 ADD MLOAD PUSH1 0xA0 DUP8 ADD MSTORE PUSH1 0xA0 DUP8 ADD MLOAD SWAP2 POP DUP1 DUP7 DUP6 SUB ADD PUSH1 0xC0 DUP8 ADD MSTORE PUSH2 0x1DC5 DUP5 DUP4 PUSH2 0x1C3E JUMP JUMPDEST SWAP4 POP PUSH1 0xC0 DUP8 ADD MLOAD PUSH1 0xE0 DUP8 ADD MSTORE PUSH1 0xE0 DUP8 ADD MLOAD SWAP2 POP PUSH2 0x100 PUSH2 0x1DE7 DUP2 DUP9 ADD DUP5 PUSH2 0x1CDA JUMP JUMPDEST DUP8 ADD MLOAD ISZERO ISZERO PUSH2 0x160 DUP8 ADD MSTORE PUSH2 0x120 DUP8 ADD MLOAD DUP7 DUP6 SUB SWAP1 SWAP2 ADD DUP4 DUP8 ADD MSTORE SWAP1 POP PUSH2 0x1E0E DUP4 DUP3 PUSH2 0x1D05 JUMP JUMPDEST SWAP7 SWAP6 POP POP POP POP POP POP JUMP JUMPDEST PUSH0 PUSH2 0x140 PUSH1 0x1 PUSH1 0x1 PUSH1 0xA0 SHL SUB DUP12 AND DUP4 MSTORE DUP10 PUSH1 0x20 DUP5 ADD MSTORE DUP1 PUSH1 0x40 DUP5 ADD MSTORE PUSH2 0x1E40 DUP2 DUP5 ADD DUP11 PUSH2 0x1C10 JUMP JUMPDEST SWAP1 POP DUP3 DUP2 SUB PUSH1 0x60 DUP5 ADD MSTORE PUSH2 0x1E54 DUP2 DUP10 PUSH2 0x1C10 JUMP JUMPDEST SWAP2 POP POP DUP6 PUSH1 0x80 DUP4 ADD MSTORE DUP5 PUSH1 0xA0 DUP4 ADD MSTORE DUP4 PUSH1 0xC0 DUP4 ADD MSTORE PUSH2 0x340 PUSH1 0xE0 DUP4 ADD DUP5 PUSH2 0x1CDA JUMP JUMPDEST PUSH0 PUSH1 0x20 DUP1 DUP4 ADD DUP2 DUP5 MSTORE DUP1 DUP6 MLOAD DUP1 DUP4 MSTORE PUSH1 0x40 SWAP3 POP PUSH1 0x40 DUP7 ADD SWAP2 POP PUSH1 0x40 DUP2 PUSH1 0x5 SHL DUP8 ADD ADD DUP5 DUP9 ADD PUSH0 JUMPDEST DUP4 DUP2 LT ISZERO PUSH2 0x1F10 JUMPI PUSH1 0x3F NOT DUP10 DUP5 SUB ADD DUP6 MSTORE DUP2 MLOAD PUSH1 0xA0 PUSH1 0x1 PUSH1 0x1 PUSH1 0xA0 SHL SUB DUP3 MLOAD AND DUP6 MSTORE DUP9 DUP3 ADD MLOAD DUP10 DUP7 ADD MSTORE DUP8 DUP3 ADD MLOAD DUP2 DUP10 DUP8 ADD MSTORE PUSH2 0x1EDC DUP3 DUP8 ADD DUP3 PUSH2 0x1C10 JUMP JUMPDEST SWAP2 POP POP PUSH1 0x60 DUP1 DUP4 ADD MLOAD DUP2 DUP8 ADD MSTORE POP PUSH1 0x80 DUP1 DUP4 ADD MLOAD SWAP3 POP PUSH2 0x1EFB DUP4 PUSH2 0x1CBE JUMP JUMPDEST SWAP5 SWAP1 SWAP5 ADD MSTORE SWAP4 DUP7 ADD SWAP4 SWAP1 DUP7 ADD SWAP1 PUSH1 0x1 ADD PUSH2 0x1E9D JUMP JUMPDEST POP SWAP1 SWAP9 SWAP8 POP POP POP POP POP POP POP POP JUMP JUMPDEST PUSH4 0x4E487B71 PUSH1 0xE0 SHL PUSH0 MSTORE PUSH1 0x41 PUSH1 0x4 MSTORE PUSH1 0x24 PUSH0 REVERT JUMPDEST PUSH1 0x1 DUP2 DUP2 SHR SWAP1 DUP3 AND DUP1 PUSH2 0x1F46 JUMPI PUSH1 0x7F DUP3 AND SWAP2 POP JUMPDEST PUSH1 0x20 DUP3 LT DUP2 SUB PUSH2 0x1F64 JUMPI PUSH4 0x4E487B71 PUSH1 0xE0 SHL PUSH0 MSTORE PUSH1 0x22 PUSH1 0x4 MSTORE PUSH1 0x24 PUSH0 REVERT JUMPDEST POP SWAP2 SWAP1 POP JUMP JUMPDEST PUSH1 0x1F DUP3 GT ISZERO PUSH2 0x1627 JUMPI DUP1 PUSH0 MSTORE PUSH1 0x20 PUSH0 KECCAK256 PUSH1 0x1F DUP5 ADD PUSH1 0x5 SHR DUP2 ADD PUSH1 0x20 DUP6 LT ISZERO PUSH2 0x1F8F JUMPI POP DUP1 JUMPDEST PUSH1 0x1F DUP5 ADD PUSH1 0x5 SHR DUP3 ADD SWAP2 POP JUMPDEST DUP2 DUP2 LT ISZERO PUSH2 0x1FAE JUMPI PUSH0 DUP2 SSTORE PUSH1 0x1 ADD PUSH2 0x1F9B JUMP JUMPDEST POP POP POP POP POP JUMP JUMPDEST PUSH8 0xFFFFFFFFFFFFFFFF DUP4 GT ISZERO PUSH2 0x1FCD JUMPI PUSH2 0x1FCD PUSH2 0x1F1E JUMP JUMPDEST PUSH2 0x1FE1 DUP4 PUSH2 0x1FDB DUP4 SLOAD PUSH2 0x1F32 JUMP JUMPDEST DUP4 PUSH2 0x1F6A JUMP JUMPDEST PUSH0 PUSH1 0x1F DUP5 GT PUSH1 0x1 DUP2 EQ PUSH2 0x2012 JUMPI PUSH0 DUP6 ISZERO PUSH2 0x1FFB JUMPI POP DUP4 DUP3 ADD CALLDATALOAD JUMPDEST PUSH0 NOT PUSH1 0x3 DUP8 SWAP1 SHL SHR NOT AND PUSH1 0x1 DUP7 SWAP1 SHL OR DUP4 SSTORE PUSH2 0x1FAE JUMP JUMPDEST PUSH0 DUP4 DUP2 MSTORE PUSH1 0x20 DUP2 KECCAK256 PUSH1 0x1F NOT DUP8 AND SWAP2 JUMPDEST DUP3 DUP2 LT ISZERO PUSH2 0x2041 JUMPI DUP7 DUP6 ADD CALLDATALOAD DUP3 SSTORE PUSH1 0x20 SWAP5 DUP6 ADD SWAP5 PUSH1 0x1 SWAP1 SWAP3 ADD SWAP2 ADD PUSH2 0x2021 JUMP JUMPDEST POP DUP7 DUP3 LT ISZERO PUSH2 0x205D JUMPI PUSH0 NOT PUSH1 0xF8 DUP9 PUSH1 0x3 SHL AND SHR NOT DUP5 DUP8 ADD CALLDATALOAD AND DUP2 SSTORE JUMPDEST POP POP PUSH1 0x1 DUP6 PUSH1 0x1 SHL ADD DUP4 SSTORE POP POP POP POP POP JUMP JUMPDEST DUP1 ISZERO ISZERO DUP2 EQ PUSH2 0x17F1 JUMPI PUSH0 DUP1 REVERT JUMPDEST PUSH0 PUSH1 0x20 DUP3 DUP5 SUB SLT ISZERO PUSH2 0x208C JUMPI PUSH0 DUP1 REVERT JUMPDEST DUP2 CALLDATALOAD PUSH2 0x2097 DUP2 PUSH2 0x206F JUMP JUMPDEST SWAP4 SWAP3 POP POP POP JUMP JUMPDEST PUSH4 0x4E487B71 PUSH1 0xE0 SHL PUSH0 MSTORE PUSH1 0x32 PUSH1 0x4 MSTORE PUSH1 0x24 PUSH0 REVERT JUMPDEST PUSH0 DUP1 DUP4 CALLDATALOAD PUSH1 0x1E NOT DUP5 CALLDATASIZE SUB ADD DUP2 SLT PUSH2 0x20C7 JUMPI PUSH0 DUP1 REVERT JUMPDEST DUP4 ADD DUP1 CALLDATALOAD SWAP2 POP PUSH8 0xFFFFFFFFFFFFFFFF DUP3 GT ISZERO PUSH2 0x20E1 JUMPI PUSH0 DUP1 REVERT JUMPDEST PUSH1 0x20 ADD SWAP2 POP CALLDATASIZE DUP2 SWAP1 SUB DUP3 SGT ISZERO PUSH2 0x1AAA JUMPI PUSH0 DUP1 REVERT JUMPDEST PUSH1 0x4 DUP2 LT PUSH2 0x17F1 JUMPI PUSH0 DUP1 REVERT JUMPDEST DUP2 CALLDATALOAD PUSH2 0x210C DUP2 PUSH2 0x206F JUMP JUMPDEST DUP2 SLOAD PUSH1 0xFF NOT DUP2 AND SWAP2 ISZERO ISZERO PUSH1 0xFF AND SWAP2 DUP3 OR DUP4 SSTORE PUSH1 0x20 DUP5 ADD CALLDATALOAD PUSH2 0x212C DUP2 PUSH2 0x206F JUMP JUMPDEST PUSH2 0xFF00 SWAP1 ISZERO ISZERO PUSH1 0x8 SHL AND PUSH2 0xFFFF NOT DUP3 AND DUP4 OR DUP2 OR DUP5 SSTORE PUSH1 0x40 DUP6 ADD CALLDATALOAD PUSH2 0x2150 DUP2 PUSH2 0x20F5 JUMP JUMPDEST PUSH2 0x2159 DUP2 PUSH2 0x1CBE JUMP JUMPDEST PUSH3 0xFF0000 DUP2 PUSH1 0x10 SHL AND DUP5 PUSH3 0xFFFFFF NOT DUP6 AND OR DUP4 OR OR DUP6 SSTORE POP POP POP POP POP POP JUMP JUMPDEST PUSH0 PUSH1 0x1 DUP3 ADD PUSH2 0x2195 JUMPI PUSH4 0x4E487B71 PUSH1 0xE0 SHL PUSH0 MSTORE PUSH1 0x11 PUSH1 0x4 MSTORE PUSH1 0x24 PUSH0 REVERT JUMPDEST POP PUSH1 0x1 ADD SWAP1 JUMP JUMPDEST DUP4 DUP2 MSTORE PUSH1 0x40 PUSH1 0x20 DUP3 ADD MSTORE DUP2 PUSH1 0x40 DUP3 ADD MSTORE PUSH0 PUSH32 0x7FFFFFFFFFFFFFFFFFFFFFFFFFFFFFFFFFFFFFFFFFFFFFFFFFFFFFFFFFFFFFF DUP4 GT ISZERO PUSH2 0x21D9 JUMPI PUSH0 DUP1 REVERT JUMPDEST DUP3 PUSH1 0x5 SHL DUP1 DUP6 PUSH1 0x60 DUP6 ADD CALLDATACOPY SWAP2 SWAP1 SWAP2 ADD PUSH1 0x60 ADD SWAP5 SWAP4 POP POP POP POP JUMP JUMPDEST PUSH0 PUSH1 0x20 DUP3 DUP5 SUB SLT ISZERO PUSH2 0x2203 JUMPI PUSH0 DUP1 REVERT JUMPDEST DUP2 CALLDATALOAD PUSH2 0x2097 DUP2 PUSH2 0x20F5 JUMP INVALID LOG2 PUSH5 0x6970667358 0x22 SLT KECCAK256 LOG1 0xC8 TIMESTAMP LOG0 0xEE 0xB7 MSTORE 0xA8 DUP12 0xF8 PUSH13 0x972A588D7988376C921EF9750D DUP10 0xD9 CALLDATASIZE PUSH23 0x93B6DDED64736F6C634300081900330000000000000000 "
    },
    "gasEstimates": {
      "creation": {
        "codeDepositCost": "1754400",
        "executionCost": "1846",
        "totalCost": "1756246"
      },
      "external": {
        "UserPolls(address,uint256)": "4692",
        "closePoll(uint256)": "infinite",
        "createPoll(string,string,uint256,uint256,string[],(bool,bool,uint8))": "infinite",
        "getPollDetails(uint256)": "infinite",
        "getPollSummaries()": "infinite",
        "polls(uint256)": "infinite",
        "vote(uint256,uint256[])": "infinite"
      },
      "internal": {
        "getOptionsResult(struct Polls.Poll memory)": "infinite",
        "getPoll(uint256)": "infinite",
        "getStatus(struct Polls.Poll memory)": "infinite",
        "validateDesc(string calldata)": "infinite",
        "validateOptions(string calldata[] calldata)": "infinite",
        "validateSettings(struct Polls.PollSettings calldata)": "infinite",
        "validateTimes(uint256,uint256)": "infinite",
        "validateTitle(string calldata)": "infinite"
      }
    },
    "methodIdentifiers": {
      "UserPolls(address,uint256)": "1994a615",
      "closePoll(uint256)": "9534e637",
      "createPoll(string,string,uint256,uint256,string[],(bool,bool,uint8))": "21b91db5",
      "getPollDetails(uint256)": "9a0040e4",
      "getPollSummaries()": "dfcaab88",
      "polls(uint256)": "ac2f0074",
      "vote(uint256,uint256[])": "7055d368"
    }
  },
  "storageLayout": {
    "storage": [
      {
        "astId": 86,
        "contract": "Polls.sol:Polls",
        "label": "polls",
        "offset": 0,
        "slot": "0",
        "type": "t_array(t_struct(Poll)40_storage)dyn_storage"
      },
      {
        "astId": 91,
        "contract": "Polls.sol:Polls",
        "label": "UserPolls",
        "offset": 0,
        "slot": "1",
        "type": "t_mapping(t_address,t_array(t_uint256)dyn_storage)"
      },
      {
        "astId": 97,
        "contract": "Polls.sol:Polls",
        "label": "hasVoted",
        "offset": 0,
        "slot": "2",
        "type": "t_mapping(t_uint256,t_mapping(t_address,t_bool))"
      },
      {
        "astId": 101,
        "contract": "Polls.sol:Polls",
        "label": "pollVotes",
        "offset": 0,
        "slot": "3",
        "type": "t_mapping(t_uint256,t_uint256)"
      },
      {
        "astId": 107,
        "contract": "Polls.sol:Polls",
        "label": "optionVotes",
        "offset": 0,
        "slot": "4",
        "type": "t_mapping(t_uint256,t_mapping(t_uint256,t_uint256))"
      },
      {
        "astId": 114,
        "contract": "Polls.sol:Polls",
        "label": "votedIndices",
        "offset": 0,
        "slot": "5",
        "type": "t_mapping(t_uint256,t_mapping(t_address,t_array(t_uint256)dyn_storage))"
      }
    ],
    "types": {
      "t_address": {
        "encoding": "inplace",
        "label": "address",
        "numberOfBytes": "20"
      },
      "t_array(t_string_storage)dyn_storage": {
        "base": "t_string_storage",
        "encoding": "dynamic_array",
        "label": "string[]",
        "numberOfBytes": "32"
      },
      "t_array(t_struct(Poll)40_storage)dyn_storage": {
        "base": "t_struct(Poll)40_storage",
        "encoding": "dynamic_array",
        "label": "struct Polls.Poll[]",
        "numberOfBytes": "32"
      },
      "t_array(t_uint256)dyn_storage": {
        "base": "t_uint256",
        "encoding": "dynamic_array",
        "label": "uint256[]",
        "numberOfBytes": "32"
      },
      "t_bool": {
        "encoding": "inplace",
        "label": "bool",
        "numberOfBytes": "1"
      },
      "t_enum(PollResultVisibility)11": {
        "encoding": "inplace",
        "label": "enum Polls.PollResultVisibility",
        "numberOfBytes": "1"
      },
      "t_mapping(t_address,t_array(t_uint256)dyn_storage)": {
        "encoding": "mapping",
        "key": "t_address",
        "label": "mapping(address => uint256[])",
        "numberOfBytes": "32",
        "value": "t_array(t_uint256)dyn_storage"
      },
      "t_mapping(t_address,t_bool)": {
        "encoding": "mapping",
        "key": "t_address",
        "label": "mapping(address => bool)",
        "numberOfBytes": "32",
        "value": "t_bool"
      },
      "t_mapping(t_uint256,t_mapping(t_address,t_array(t_uint256)dyn_storage))": {
        "encoding": "mapping",
        "key": "t_uint256",
        "label": "mapping(uint256 => mapping(address => uint256[]))",
        "numberOfBytes": "32",
        "value": "t_mapping(t_address,t_array(t_uint256)dyn_storage)"
      },
      "t_mapping(t_uint256,t_mapping(t_address,t_bool))": {
        "encoding": "mapping",
        "key": "t_uint256",
        "label": "mapping(uint256 => mapping(address => bool))",
        "numberOfBytes": "32",
        "value": "t_mapping(t_address,t_bool)"
      },
      "t_mapping(t_uint256,t_mapping(t_uint256,t_uint256))": {
        "encoding": "mapping",
        "key": "t_uint256",
        "label": "mapping(uint256 => mapping(uint256 => uint256))",
        "numberOfBytes": "32",
        "value": "t_mapping(t_uint256,t_uint256)"
      },
      "t_mapping(t_uint256,t_uint256)": {
        "encoding": "mapping",
        "key": "t_uint256",
        "label": "mapping(uint256 => uint256)",
        "numberOfBytes": "32",
        "value": "t_uint256"
      },
      "t_string_storage": {
        "encoding": "bytes",
        "label": "string",
        "numberOfBytes": "32"
      },
      "t_struct(Poll)40_storage": {
        "encoding": "inplace",
        "label": "struct Polls.Poll",
        "members": [
          {
            "astId": 21,
            "contract": "Polls.sol:Polls",
            "label": "creator",
            "offset": 0,
            "slot": "0",
            "type": "t_address"
          },
          {
            "astId": 23,
            "contract": "Polls.sol:Polls",
            "label": "id",
            "offset": 0,
            "slot": "1",
            "type": "t_uint256"
          },
          {
            "astId": 25,
            "contract": "Polls.sol:Polls",
            "label": "title",
            "offset": 0,
            "slot": "2",
            "type": "t_string_storage"
          },
          {
            "astId": 27,
            "contract": "Polls.sol:Polls",
            "label": "description",
            "offset": 0,
            "slot": "3",
            "type": "t_string_storage"
          },
          {
            "astId": 29,
            "contract": "Polls.sol:Polls",
            "label": "startsAt",
            "offset": 0,
            "slot": "4",
            "type": "t_uint256"
          },
          {
            "astId": 31,
            "contract": "Polls.sol:Polls",
            "label": "endsAt",
            "offset": 0,
            "slot": "5",
            "type": "t_uint256"
          },
          {
            "astId": 34,
            "contract": "Polls.sol:Polls",
            "label": "options",
            "offset": 0,
            "slot": "6",
            "type": "t_array(t_string_storage)dyn_storage"
          },
          {
            "astId": 36,
            "contract": "Polls.sol:Polls",
            "label": "pollVotes",
            "offset": 0,
            "slot": "7",
            "type": "t_uint256"
          },
          {
            "astId": 39,
            "contract": "Polls.sol:Polls",
            "label": "settings",
            "offset": 0,
            "slot": "8",
            "type": "t_struct(PollSettings)19_storage"
          }
        ],
        "numberOfBytes": "288"
      },
      "t_struct(PollSettings)19_storage": {
        "encoding": "inplace",
        "label": "struct Polls.PollSettings",
        "members": [
          {
            "astId": 13,
            "contract": "Polls.sol:Polls",
            "label": "multiChoice",
            "offset": 0,
            "slot": "0",
            "type": "t_bool"
          },
          {
            "astId": 15,
            "contract": "Polls.sol:Polls",
            "label": "noDeadline",
            "offset": 1,
            "slot": "0",
            "type": "t_bool"
          },
          {
            "astId": 18,
            "contract": "Polls.sol:Polls",
            "label": "resultVisibility",
            "offset": 2,
            "slot": "0",
            "type": "t_enum(PollResultVisibility)11"
          }
        ],
        "numberOfBytes": "32"
      },
      "t_uint256": {
        "encoding": "inplace",
        "label": "uint256",
        "numberOfBytes": "32"
      }
    }
  },
  "userdoc": {
    "kind": "user",
    "methods": {},
    "version": 1
  }
}