{
  "_format": "hh3-artifact-1",
  "contractName": "Polls",
  "sourceName": "contracts/Polls.sol",
  "abi": [
    {
      "inputs": [],
      "name": "AccessDenied",
      "type": "error"
    },
    {
      "inputs": [],
      "name": "AlreadyVoted",
      "type": "error"
    },
    {
      "inputs": [],
      "name": "DescriptionTooLarge",
      "type": "error"
    },
    {
      "inputs": [],
      "name": "DescriptionTooShort",
      "type": "error"
    },
    {
      "inputs": [],
      "name": "DuplicateOptionSelected",
      "type": "error"
    },
    {
      "inputs": [],
      "name": "InvalidPollOption",
      "type": "error"
    },
    {
      "inputs": [],
      "name": "MultiChoiceNotAllowed",
      "type": "error"
    },
    {
      "inputs": [],
      "name": "NoOptionSelected",
      "type": "error"
    },
    {
      "inputs": [
        {
          "internalType": "uint256",
          "name": "index",
          "type": "uint256"
        }
      ],
      "name": "OptionTooLarge",
      "type": "error"
    },
    {
      "inputs": [
        {
          "internalType": "uint256",
          "name": "index",
          "type": "uint256"
        }
      ],
      "name": "OptionTooShort",
      "type": "error"
    },
    {
      "inputs": [],
      "name": "PollAlreadyClosed",
      "type": "error"
    },
    {
      "inputs": [],
      "name": "PollMustEndAfterStart",
      "type": "error"
    },
    {
      "inputs": [],
      "name": "PollMustHaveAtLeastTwoOptions",
      "type": "error"
    },
    {
      "inputs": [],
      "name": "PollMustHaveAtMostTenOptions",
      "type": "error"
    },
    {
      "inputs": [],
      "name": "PollMustStartInTheFuture",
      "type": "error"
    },
    {
      "inputs": [
        {
          "internalType": "uint256",
          "name": "pollId",
          "type": "uint256"
        }
      ],
      "name": "PollNotFound",
      "type": "error"
    },
    {
      "inputs": [],
      "name": "PollNotOpen",
      "type": "error"
    },
    {
      "inputs": [],
      "name": "PollResultVisibilitySettingInvalid",
      "type": "error"
    },
    {
      "inputs": [],
      "name": "TitleTooLarge",
      "type": "error"
    },
    {
      "inputs": [],
      "name": "TitleTooShort",
      "type": "error"
    },
    {
      "anonymous": false,
      "inputs": [
        {
          "indexed": true,
          "internalType": "address",
          "name": "creator",
          "type": "address"
        },
        {
          "indexed": true,
          "internalType": "uint256",
          "name": "pollId",
          "type": "uint256"
        }
      ],
      "name": "PollClosed",
      "type": "event"
    },
    {
      "anonymous": false,
      "inputs": [
        {
          "indexed": true,
          "internalType": "address",
          "name": "creator",
          "type": "address"
        },
        {
          "indexed": true,
          "internalType": "uint256",
          "name": "pollId",
          "type": "uint256"
        }
      ],
      "name": "PollCreated",
      "type": "event"
    },
    {
      "anonymous": false,
      "inputs": [
        {
          "indexed": true,
          "internalType": "address",
          "name": "voter",
          "type": "address"
        },
        {
          "indexed": false,
          "internalType": "uint256",
          "name": "pollId",
          "type": "uint256"
        },
        {
          "indexed": false,
          "internalType": "uint256[]",
          "name": "optionIndices",
          "type": "uint256[]"
        }
      ],
      "name": "Voted",
      "type": "event"
    },
    {
      "inputs": [
        {
          "internalType": "address",
          "name": "",
          "type": "address"
        },
        {
          "internalType": "uint256",
          "name": "",
          "type": "uint256"
        }
      ],
      "name": "UserPolls",
      "outputs": [
        {
          "internalType": "uint256",
          "name": "",
          "type": "uint256"
        }
      ],
      "stateMutability": "view",
      "type": "function"
    },
    {
      "inputs": [
        {
          "internalType": "uint256",
          "name": "_pollId",
          "type": "uint256"
        }
      ],
      "name": "closePoll",
      "outputs": [],
      "stateMutability": "nonpayable",
      "type": "function"
    },
    {
      "inputs": [
        {
          "internalType": "string",
          "name": "_title",
          "type": "string"
        },
        {
          "internalType": "string",
          "name": "_desc",
          "type": "string"
        },
        {
          "internalType": "uint256",
          "name": "_startsAt",
          "type": "uint256"
        },
        {
          "internalType": "uint256",
          "name": "_endsAt",
          "type": "uint256"
        },
        {
          "internalType": "string[]",
          "name": "_options",
          "type": "string[]"
        },
        {
          "components": [
            {
              "internalType": "bool",
              "name": "multiChoice",
              "type": "bool"
            },
            {
              "internalType": "bool",
              "name": "noDeadline",
              "type": "bool"
            },
            {
              "internalType": "enum Polls.PollResultVisibility",
              "name": "resultVisibility",
              "type": "uint8"
            }
          ],
          "internalType": "struct Polls.PollSettings",
          "name": "_settings",
          "type": "tuple"
        }
      ],
      "name": "createPoll",
      "outputs": [
        {
          "internalType": "uint256",
          "name": "",
          "type": "uint256"
        }
      ],
      "stateMutability": "nonpayable",
      "type": "function"
    },
    {
      "inputs": [
        {
          "internalType": "uint256",
          "name": "_pollId",
          "type": "uint256"
        }
      ],
      "name": "getPollDetails",
      "outputs": [
        {
          "components": [
            {
              "internalType": "address",
              "name": "creator",
              "type": "address"
            },
            {
              "internalType": "string",
              "name": "title",
              "type": "string"
            },
            {
              "internalType": "string",
              "name": "description",
              "type": "string"
            },
            {
              "internalType": "uint256",
              "name": "startsAt",
              "type": "uint256"
            },
            {
              "internalType": "uint256",
              "name": "endsAt",
              "type": "uint256"
            },
            {
              "components": [
                {
                  "internalType": "string",
                  "name": "text",
                  "type": "string"
                },
                {
                  "internalType": "uint256",
                  "name": "votes",
                  "type": "uint256"
                }
              ],
              "internalType": "struct Polls.OptionResult[]",
              "name": "options",
              "type": "tuple[]"
            },
            {
              "internalType": "uint256",
              "name": "pollVotes",
              "type": "uint256"
            },
            {
              "components": [
                {
                  "internalType": "bool",
                  "name": "multiChoice",
                  "type": "bool"
                },
                {
                  "internalType": "bool",
                  "name": "noDeadline",
                  "type": "bool"
                },
                {
                  "internalType": "enum Polls.PollResultVisibility",
                  "name": "resultVisibility",
                  "type": "uint8"
                }
              ],
              "internalType": "struct Polls.PollSettings",
              "name": "settings",
              "type": "tuple"
            },
            {
              "internalType": "bool",
              "name": "hasVoted",
              "type": "bool"
            },
            {
              "internalType": "uint256[]",
              "name": "votedIndices",
              "type": "uint256[]"
            }
          ],
          "internalType": "struct Polls.PollDetails",
          "name": "",
          "type": "tuple"
        }
      ],
      "stateMutability": "view",
      "type": "function"
    },
    {
      "inputs": [],
      "name": "getPollSummaries",
      "outputs": [
        {
          "components": [
            {
              "internalType": "address",
              "name": "creator",
              "type": "address"
            },
            {
              "internalType": "uint256",
              "name": "id",
              "type": "uint256"
            },
            {
              "internalType": "string",
              "name": "title",
              "type": "string"
            },
            {
              "internalType": "uint256",
              "name": "pollVotes",
              "type": "uint256"
            },
            {
              "internalType": "enum Polls.PollStatus",
              "name": "status",
              "type": "uint8"
            }
          ],
          "internalType": "struct Polls.PollSummary[]",
          "name": "",
          "type": "tuple[]"
        }
      ],
      "stateMutability": "view",
      "type": "function"
    },
    {
      "inputs": [
        {
          "internalType": "uint256",
          "name": "",
          "type": "uint256"
        }
      ],
      "name": "polls",
      "outputs": [
        {
          "internalType": "address",
          "name": "creator",
          "type": "address"
        },
        {
          "internalType": "uint256",
          "name": "id",
          "type": "uint256"
        },
        {
          "internalType": "string",
          "name": "title",
          "type": "string"
        },
        {
          "internalType": "string",
          "name": "description",
          "type": "string"
        },
        {
          "internalType": "uint256",
          "name": "startsAt",
          "type": "uint256"
        },
        {
          "internalType": "uint256",
          "name": "endsAt",
          "type": "uint256"
        },
        {
          "internalType": "uint256",
          "name": "pollVotes",
          "type": "uint256"
        },
        {
          "components": [
            {
              "internalType": "bool",
              "name": "multiChoice",
              "type": "bool"
            },
            {
              "internalType": "bool",
              "name": "noDeadline",
              "type": "bool"
            },
            {
              "internalType": "enum Polls.PollResultVisibility",
              "name": "resultVisibility",
              "type": "uint8"
            }
          ],
          "internalType": "struct Polls.PollSettings",
          "name": "settings",
          "type": "tuple"
        }
      ],
      "stateMutability": "view",
      "type": "function"
    },
    {
      "inputs": [
        {
          "internalType": "uint256",
          "name": "_pollId",
          "type": "uint256"
        },
        {
          "internalType": "uint256[]",
          "name": "_optionIndices",
          "type": "uint256[]"
        }
      ],
      "name": "vote",
      "outputs": [],
      "stateMutability": "nonpayable",
      "type": "function"
    }
  ],
  "bytecode": "0x6080604052348015600e575f5ffd5b506122228061001c5f395ff3fe608060405234801561000f575f5ffd5b506004361061007a575f3560e01c80639534e637116100585780639534e637146100cc5780639a0040e4146100df578063ac2f0074146100ff578063dfcaab8814610126575f5ffd5b80631994a6151461007e57806321b91db5146100a45780637055d368146100b7575b5f5ffd5b61009161008c366004611a1f565b61013b565b6040519081526020015b60405180910390f35b6100916100b2366004611ada565b610166565b6100ca6100c5366004611ba5565b610335565b005b6100ca6100da366004611bed565b610809565b6100f26100ed366004611bed565b610ad3565b60405161009b9190611d34565b61011261010d366004611bed565b610ffe565b60405161009b989796959493929190611e0e565b61012e6111c0565b60405161009b9190611e6a565b6001602052815f5260405f208181548110610154575f80fd5b905f5260205f20015f91509150505481565b5f6101718a8a6115ca565b61017b8888611614565b6101858686611665565b61018f84846116aa565b6101988261177f565b5f8054600181018255908052600981027f290decd9548b62a8d60345a988386fc84ba6bc95484008f6362f93160ef3e563810180546001600160a01b031916331781557f290decd9548b62a8d60345a988386fc84ba6bc95484008f6362f93160ef3e5648201839055907f290decd9548b62a8d60345a988386fc84ba6bc95484008f6362f93160ef3e5650161022f8c8e83611fab565b506003810161023f8a8c83611fab565b50600481018890556102576040850160208601612072565b6102615786610263565b5f5b60058201555f5b858110156102c2578160060187878381811061028857610288612094565b905060200281019061029a91906120a8565b82546001810184555f9384526020909320909201916102b99183611fab565b5060010161026a565b505f600782015583600882016102d882826120f7565b5050335f818152600160208181526040808420805493840181558452908320909101859055518492917f253458ed40d765e300ef79d87f8b5a901191fbfc27d54b1ea052a6752908953c91a35090505b9998505050505050505050565b5f61033f846117dc565b90506001604080516101208101825283546001600160a01b03168152600184015460208201526002840180546105eb9386929084019161037e90611f28565b80601f01602080910402602001604051908101604052809291908181526020018280546103aa90611f28565b80156103f55780601f106103cc576101008083540402835291602001916103f5565b820191905f5260205f20905b8154815290600101906020018083116103d857829003601f168201915b5050505050815260200160038201805461040e90611f28565b80601f016020809104026020016040519081016040528092919081815260200182805461043a90611f28565b80156104855780601f1061045c57610100808354040283529160200191610485565b820191905f5260205f20905b81548152906001019060200180831161046857829003601f168201915b50505050508152602001600482015481526020016005820154815260200160068201805480602002602001604051908101604052809291908181526020015f905b8282101561056e578382905f5260205f200180546104e390611f28565b80601f016020809104026020016040519081016040528092919081815260200182805461050f90611f28565b801561055a5780601f106105315761010080835404028352916020019161055a565b820191905f5260205f20905b81548152906001019060200180831161053d57829003601f168201915b5050505050815260200190600101906104c6565b5050509082525060078201546020808301919091526040805160608101825260088501805460ff808216151584526101008204811615159584019590955294830194919390928401916201000090041660038111156105cf576105cf611c9f565b60038111156105e0576105e0611c9f565b90525090525061182a565b60038111156105fc576105fc611c9f565b1461061a5760405163b4f0e2d960e01b815260040160405180910390fd5b5f84815260026020908152604080832033845290915290205460ff161561065457604051637c9a1cf960e01b815260040160405180910390fd5b815f8190036106765760405163be5a2acd60e01b815260040160405180910390fd5b600882015460ff1615801561068b5750600181115b156106a95760405163baabd10760e01b815260040160405180910390fd5b5f5b8181101561078b575f8585838181106106c6576106c6612094565b905060200201359050836006018054905081106106f6576040516370039a2560e01b815260040160405180910390fd5b5f5b828110156107585786868281811061071257610712612094565b9050602002013587878581811061072b5761072b612094565b905060200201350361075057604051630fe3ee1360e11b815260040160405180910390fd5b6001016106f8565b505f878152600460209081526040808320848452909152812080549161077d8361216e565b9091555050506001016106ab565b50600782018054905f61079d8361216e565b90915550505f85815260026020908152604080832033808552925291829020805460ff1916600117905590517f871b62f932d6ef8afa59aed962334ae3a32efd388f7ec8932a67b7e47ae7795a906107fa90889088908890612192565b60405180910390a25050505050565b5f610813826117dc565b80549091506001600160a01b0316331461084057604051634ca8886760e01b815260040160405180910390fd5b6003604080516101208101825283546001600160a01b0316815260018401546020820152600284018054610a6d9386929084019161087d90611f28565b80601f01602080910402602001604051908101604052809291908181526020018280546108a990611f28565b80156108f45780601f106108cb576101008083540402835291602001916108f4565b820191905f5260205f20905b8154815290600101906020018083116108d757829003601f168201915b5050505050815260200160038201805461090d90611f28565b80601f016020809104026020016040519081016040528092919081815260200182805461093990611f28565b80156109845780601f1061095b57610100808354040283529160200191610984565b820191905f5260205f20905b81548152906001019060200180831161096757829003601f168201915b50505050508152602001600482015481526020016005820154815260200160068201805480602002602001604051908101604052809291908181526020015f905b8282101561056e578382905f5260205f200180546109e290611f28565b80601f0160208091040260200160405190810160405280929190818152602001828054610a0e90611f28565b8015610a595780601f10610a3057610100808354040283529160200191610a59565b820191905f5260205f20905b815481529060010190602001808311610a3c57829003601f168201915b5050505050815260200190600101906109c5565b6003811115610a7e57610a7e611c9f565b03610a9c57604051639b22ddeb60e01b815260040160405180910390fd5b60016005820155604051829033907f563a96cebb2dd00c04fe16ab3f34901e3749b13da3040e6cae0b5a55ea4daee2905f90a35050565b610adb611966565b5f610ae5836117dc565b60408051610140810190915281546001600160a01b031681526002820180549293509091602083019190610b1890611f28565b80601f0160208091040260200160405190810160405280929190818152602001828054610b4490611f28565b8015610b8f5780601f10610b6657610100808354040283529160200191610b8f565b820191905f5260205f20905b815481529060010190602001808311610b7257829003601f168201915b50505050508152602001826003018054610ba890611f28565b80601f0160208091040260200160405190810160405280929190818152602001828054610bd490611f28565b8015610c1f5780601f10610bf657610100808354040283529160200191610c1f565b820191905f5260205f20905b815481529060010190602001808311610c0257829003601f168201915b505050505081526020018260040154815260200182600501548152602001610f0183604051806101200160405290815f82015f9054906101000a90046001600160a01b03166001600160a01b03166001600160a01b0316815260200160018201548152602001600282018054610c9490611f28565b80601f0160208091040260200160405190810160405280929190818152602001828054610cc090611f28565b8015610d0b5780601f10610ce257610100808354040283529160200191610d0b565b820191905f5260205f20905b815481529060010190602001808311610cee57829003601f168201915b50505050508152602001600382018054610d2490611f28565b80601f0160208091040260200160405190810160405280929190818152602001828054610d5090611f28565b8015610d9b5780601f10610d7257610100808354040283529160200191610d9b565b820191905f5260205f20905b815481529060010190602001808311610d7e57829003601f168201915b50505050508152602001600482015481526020016005820154815260200160068201805480602002602001604051908101604052809291908181526020015f905b82821015610e84578382905f5260205f20018054610df990611f28565b80601f0160208091040260200160405190810160405280929190818152602001828054610e2590611f28565b8015610e705780601f10610e4757610100808354040283529160200191610e70565b820191905f5260205f20905b815481529060010190602001808311610e5357829003601f168201915b505050505081526020019060010190610ddc565b5050509082525060078201546020808301919091526040805160608101825260088501805460ff80821615158452610100820481161515958401959095529483019491939092840191620100009004166003811115610ee557610ee5611c9f565b6003811115610ef657610ef6611c9f565b90525090525061187f565b815260078301546020808301919091526040805160608101825260088601805460ff80821615158452610100820481161515958401959095529483019491939092840191620100009004166003811115610f5d57610f5d611c9f565b6003811115610f6e57610f6e611c9f565b90525081525f858152600260209081526040808320338085529083528184205460ff16151583860152888452600583528184209084528252918290208054835181840281018401855281815293909401939091830182828015610fee57602002820191905f5260205f20905b815481526020019060010190808311610fda575b5050505050815250915050919050565b5f818154811061100c575f80fd5b5f9182526020909120600990910201805460018201546002830180546001600160a01b03909316945090929161104190611f28565b80601f016020809104026020016040519081016040528092919081815260200182805461106d90611f28565b80156110b85780601f1061108f576101008083540402835291602001916110b8565b820191905f5260205f20905b81548152906001019060200180831161109b57829003601f168201915b5050505050908060030180546110cd90611f28565b80601f01602080910402602001604051908101604052809291908181526020018280546110f990611f28565b80156111445780601f1061111b57610100808354040283529160200191611144565b820191905f5260205f20905b81548152906001019060200180831161112757829003601f168201915b5050506004840154600585015460078601546040805160608101825260088901805460ff808216151584526101008204811615156020850152999a969995985093965090939092918401916201000090041660038111156111a7576111a7611c9f565b60038111156111b8576111b8611c9f565b905250905088565b335f90815260016020526040812080546060928167ffffffffffffffff8111156111ec576111ec611f14565b60405190808252806020026020018201604052801561122557816020015b6112126119db565b81526020019060019003908161120a5790505b5090505f5b828110156115c2575f84828154811061124557611245612094565b905f5260205f20015490505f5f828154811061126357611263612094565b905f5260205f20906009020190506040518060a00160405280825f015f9054906101000a90046001600160a01b03166001600160a01b031681526020018381526020018260020180546112b590611f28565b80601f01602080910402602001604051908101604052809291908181526020018280546112e190611f28565b801561132c5780601f106113035761010080835404028352916020019161132c565b820191905f5260205f20905b81548152906001019060200180831161130f57829003601f168201915b505050505081526020018260070154815260200161158783604051806101200160405290815f82015f9054906101000a90046001600160a01b03166001600160a01b03166001600160a01b031681526020016001820154815260200160028201805461139790611f28565b80601f01602080910402602001604051908101604052809291908181526020018280546113c390611f28565b801561140e5780601f106113e55761010080835404028352916020019161140e565b820191905f5260205f20905b8154815290600101906020018083116113f157829003601f168201915b5050505050815260200160038201805461142790611f28565b80601f016020809104026020016040519081016040528092919081815260200182805461145390611f28565b801561149e5780601f106114755761010080835404028352916020019161149e565b820191905f5260205f20905b81548152906001019060200180831161148157829003601f168201915b50505050508152602001600482015481526020016005820154815260200160068201805480602002602001604051908101604052809291908181526020015f905b8282101561056e578382905f5260205f200180546114fc90611f28565b80601f016020809104026020016040519081016040528092919081815260200182805461152890611f28565b80156115735780601f1061154a57610100808354040283529160200191611573565b820191905f5260205f20905b81548152906001019060200180831161155657829003601f168201915b5050505050815260200190600101906114df565b600381111561159857611598611c9f565b8152508484815181106115ad576115ad612094565b6020908102919091010152505060010161122a565b509392505050565b8060038110156115ed576040516324ace35560e01b815260040160405180910390fd5b606481111561160f57604051632b5df40f60e21b815260040160405180910390fd5b505050565b8080158015906116245750600a81105b1561164257604051631b0bf73560e21b815260040160405180910390fd5b6103e881111561160f57604051631b0fce8360e01b815260040160405180910390fd5b4282101561168657604051633eb2d8c560e01b815260040160405180910390fd5b8181116116a6576040516371f3286160e11b815260040160405180910390fd5b5050565b8060028110156116cd57604051638ee5f57d60e01b815260040160405180910390fd5b600a8111156116ef5760405163701d39f160e11b815260040160405180910390fd5b5f5b81811015611779575f84848381811061170c5761170c612094565b905060200281019061171e91906120a8565b915050600181101561174b576040516323bae5c560e11b8152600481018390526024015b60405180910390fd5b606481111561177057604051631e8a182560e21b815260048101839052602401611742565b506001016116f1565b50505050565b61178f6040820160208301612072565b80156117bb575060026117a860608301604084016121d1565b60038111156117b9576117b9611c9f565b145b156117d95760405163dc2ca70160e01b815260040160405180910390fd5b50565b5f80548210611801576040516302708a4d60e21b815260048101839052602401611742565b5f5f838154811061181457611814612094565b5f91825260209091206009909102019392505050565b5f428260800151111561183e57505f919050565b8160a0015160010361185257506003919050565b60018260a0015111801561186a5750428260a0015111155b1561187757506002919050565b506001919050565b60c0810151516060905f8167ffffffffffffffff8111156118a2576118a2611f14565b6040519080825280602002602001820160405280156118e757816020015b60408051808201909152606081525f60208201528152602001906001900390816118c05790505b5090505f5b828110156115c25760405180604001604052808660c00151838151811061191557611915612094565b6020908102919091018101518252878101515f9081526004825260408082208683528352902054910152825183908390811061195357611953612094565b60209081029190910101526001016118ec565b6040518061014001604052805f6001600160a01b0316815260200160608152602001606081526020015f81526020015f8152602001606081526020015f81526020016119c8604080516060810182525f80825260208201819052909182015290565b81525f6020820152606060409091015290565b6040518060a001604052805f6001600160a01b031681526020015f8152602001606081526020015f81526020015f6003811115611a1a57611a1a611c9f565b905290565b5f5f60408385031215611a30575f5ffd5b82356001600160a01b0381168114611a46575f5ffd5b946020939093013593505050565b5f5f83601f840112611a64575f5ffd5b50813567ffffffffffffffff811115611a7b575f5ffd5b602083019150836020828501011115611a92575f5ffd5b9250929050565b5f5f83601f840112611aa9575f5ffd5b50813567ffffffffffffffff811115611ac0575f5ffd5b6020830191508360208260051b8501011115611a92575f5ffd5b5f5f5f5f5f5f5f5f5f898b03610100811215611af4575f5ffd5b8a3567ffffffffffffffff811115611b0a575f5ffd5b611b168d828e01611a54565b909b5099505060208b013567ffffffffffffffff811115611b35575f5ffd5b611b418d828e01611a54565b90995097505060408b0135955060608b0135945060808b013567ffffffffffffffff811115611b6e575f5ffd5b611b7a8d828e01611a99565b9095509350506060609f1982011215611b91575f5ffd5b5060a08a0190509295985092959850929598565b5f5f5f60408486031215611bb7575f5ffd5b83359250602084013567ffffffffffffffff811115611bd4575f5ffd5b611be086828701611a99565b9497909650939450505050565b5f60208284031215611bfd575f5ffd5b5035919050565b5f81518084528060208401602086015e5f602082860101526020601f19601f83011685010191505092915050565b5f82825180855260208501945060208160051b830101602085015f5b83811015611c9357601f198584030188528151805160408552611c746040860182611c04565b6020928301519583019590955250978801979190910190600101611c4e565b50909695505050505050565b634e487b7160e01b5f52602160045260245ffd5b600481106117d957634e487b7160e01b5f52602160045260245ffd5b8051151582526020810151151560208301526040810151611cef81611cb3565b806040840152505050565b5f8151808452602084019350602083015f5b82811015611d2a578151865260209586019590910190600101611d0c565b5093949350505050565b60208152611d4e6020820183516001600160a01b03169052565b5f60208301516101806040840152611d6a6101a0840182611c04565b90506040840151601f19848303016060850152611d878282611c04565b91505060608401516080840152608084015160a084015260a0840151601f198483030160c0850152611db98282611c32565b91505060c084015160e084015260e0840151611dd9610100850182611ccf565b506101008401511515610160840152610120840151601f1984830301610180850152611e058282611cfa565b95945050505050565b60018060a01b038916815287602082015261014060408201525f611e36610140830189611c04565b8281036060840152611e488189611c04565b9150508560808301528460a08301528360c083015261032860e0830184611ccf565b5f602082016020835280845180835260408501915060408160051b8601019250602086015f5b82811015611f0857603f19878603018452815160018060a01b03815116865260208101516020870152604081015160a06040880152611ed260a0880182611c04565b90506060820151606088015260808201519150611eee82611cb3565b608096909601526020938401939190910190600101611e90565b50929695505050505050565b634e487b7160e01b5f52604160045260245ffd5b600181811c90821680611f3c57607f821691505b602082108103611f5a57634e487b7160e01b5f52602260045260245ffd5b50919050565b601f82111561160f57805f5260205f20601f840160051c81016020851015611f855750805b601f840160051c820191505b81811015611fa4575f8155600101611f91565b5050505050565b67ffffffffffffffff831115611fc357611fc3611f14565b611fd783611fd18354611f28565b83611f60565b5f601f841160018114612008575f8515611ff15750838201355b5f19600387901b1c1916600186901b178355611fa4565b5f83815260208120601f198716915b828110156120375786850135825560209485019460019092019101612017565b5086821015612053575f1960f88860031b161c19848701351681555b505060018560011b0183555050505050565b80151581146117d9575f5ffd5b5f60208284031215612082575f5ffd5b813561208d81612065565b9392505050565b634e487b7160e01b5f52603260045260245ffd5b5f5f8335601e198436030181126120bd575f5ffd5b83018035915067ffffffffffffffff8211156120d7575f5ffd5b602001915036819003821315611a92575f5ffd5b600481106117d9575f5ffd5b813561210281612065565b815460ff19811691151560ff169182178355602084013561212281612065565b61ff0090151560081b1661ffff1982168317811784556040850135612146816120eb565b61214f81611cb3565b62ff00008160101b168462ffffff198516178317178555505050505050565b5f6001820161218b57634e487b7160e01b5f52601160045260245ffd5b5060010190565b83815260406020820181905281018290525f6001600160fb1b038311156121b7575f5ffd5b8260051b8085606085013791909101606001949350505050565b5f602082840312156121e1575f5ffd5b813561208d816120eb56fea264697066735822122058fcf13a168cd70a1a714560614df1f5560d5ebfee54276204abae38b7d2f46b64736f6c634300081c0033",
  "linkReferences": {},
  "deployedLinkReferences": {},
  "immutableReferences": {},
  "inputSourceName": "project/contracts/Polls.sol",
  "buildInfoId": "solc-0_8_28-3ea3701feb1da48224e96ba5937ebd029f813163"
}